{
	"data": {
		"bytecode": {
			"linkReferences": {},
			"object": "608060405234801561001057600080fd5b5061106c806100206000396000f3fe608060405234801561001057600080fd5b50600436106100885760003560e01c80637d02ebf41161005b5780637d02ebf41461014d5780638444b8131461017d578063a7e7c9f9146101ad578063e51356e8146101dd57610088565b80632833d1f01461008d5780633e60d8e0146100bd5780634b602c6d146100ed578063586336351461011d575b600080fd5b6100a760048036038101906100a29190610bb5565b61020d565b6040516100b49190610c42565b60405180910390f35b6100d760048036038101906100d29190610c5d565b610227565b6040516100e49190610c42565b60405180910390f35b61010760048036038101906101029190610bb5565b61023f565b6040516101149190610c42565b60405180910390f35b61013760048036038101906101329190610bb5565b610259565b6040516101449190610c42565b60405180910390f35b61016760048036038101906101629190610c8a565b610273565b6040516101749190610c42565b60405180910390f35b61019760048036038101906101929190610bb5565b61028d565b6040516101a49190610c42565b60405180910390f35b6101c760048036038101906101c29190610bb5565b6102a7565b6040516101d49190610c42565b60405180910390f35b6101f760048036038101906101f29190610bb5565b6102c1565b6040516102049190610c42565b60405180910390f35b610215610a39565b61021f83836102db565b905092915050565b61022f610a39565b61023882610393565b9050919050565b610247610a39565b610251838361041c565b905092915050565b610261610a39565b61026b83836104fc565b905092915050565b61027b610a39565b61028583836105b4565b905092915050565b610295610a39565b61029f8383610664565b905092915050565b6102af610a39565b6102b98383610737565b905092915050565b6102c9610a39565b6102d38383610848565b905092915050565b6102e3610a39565b828260008083602001519150826020015190508060ff168260ff16146103425781816040517f5bc47486000000000000000000000000000000000000000000000000000000008152600401610339929190610cd9565b60405180910390fd5b6000806000808a6020015193508a6000015192508960000151915081836103699190610d31565b905060405180604001604052808281526020018560ff168152509850505050505050505092915050565b61039b610a39565b60008060008460200151925084600001519150670de0b6b3a76400008084600a6103c59190610e98565b670de0b6b3a7640000856103d99190610ee3565b6103e39190610f54565b6103ed9190610ee3565b6103f79190610f54565b90506040518060400160405280828152602001601260ff168152509350505050919050565b610424610a39565b828260008083602001519150826020015190508060ff168260ff16146104835781816040517f5bc4748600000000000000000000000000000000000000000000000000000000815260040161047a929190610cd9565b60405180910390fd5b60008061048e610a39565b610496610a39565b8a60200151935083600a6104aa9190610e98565b92506040518060400160405280846127106104c59190610ee3565b81526020018560ff1681525090506104dd8b82610664565b91506104e9828b610737565b9150819850505050505050505092915050565b610504610a39565b828260008083602001519150826020015190508060ff168260ff16146105635781816040517f5bc4748600000000000000000000000000000000000000000000000000000000815260040161055a929190610cd9565b60405180910390fd5b6000806000808a6020015193508a60000151925089600001519150818361058a9190610f85565b905060405180604001604052808281526020018560ff168152509850505050505050505092915050565b6105bc610a39565b6000806000856020015192508560000151915060128360ff16146105f6576105e2610a39565b6105eb87610393565b905080600001519250505b670de0b6b3a764000085600a61060c9190610e98565b670de0b6b3a764000080856106219190610ee3565b61062b9190610f54565b6106359190610ee3565b61063f9190610f54565b905060405180604001604052808281526020018660ff16815250935050505092915050565b61066c610a39565b828260008083602001519150826020015190508060ff168260ff16146106cb5781816040517f5bc474860000000000000000000000000000000000000000000000000000000081526004016106c2929190610cd9565b60405180910390fd5b60008060008060008b6020015194508b6000015193508a60000151925084600a6106f59190610e98565b905061070c8184866109289092919063ffffffff16565b915060405180604001604052808381526020018660ff16815250995050505050505050505092915050565b61073f610a39565b828260008083602001519150826020015190508060ff168260ff161461079e5781816040517f5bc47486000000000000000000000000000000000000000000000000000000008152600401610795929190610cd9565b60405180910390fd5b60008060008060008b6020015194508b6000015193508a60000151925084600a6107c89190610e98565b905060008560ff16036108075782846107e19190610ee3565b915060405180604001604052808381526020018660ff168152509950505050505061083e565b61081c8382866109289092919063ffffffff16565b915060405180604001604052808381526020018660ff16815250995050505050505b5050505092915050565b610850610a39565b828260008083602001519150826020015190508060ff168260ff16146108af5781816040517f5bc474860000000000000000000000000000000000000000000000000000000081526004016108a6929190610cd9565b60405180910390fd5b6000806108ba610a39565b6108c2610a39565b8a60200151935083600a6108d69190610e98565b92506040518060400160405280846127106108f19190610ee3565b81526020018560ff1681525090506109098b8b610664565b91506109158282610737565b9150819850505050505050505092915050565b60008060008019858709858702925082811083820303915050600081036109635783828161095957610958610f25565b5b0492505050610a32565b8084116109a5576040517f08c379a000000000000000000000000000000000000000000000000000000000815260040161099c90611016565b60405180910390fd5b60008486880990508281118203915080830392506000600186190186169050808604955080840493506001818260000304019050808302841793506000600287600302189050808702600203810290508087026002038102905080870260020381029050808702600203810290508087026002038102905080870260020381029050808502955050505050505b9392505050565b604051806040016040528060008152602001600060ff1681525090565b6000604051905090565b600080fd5b600080fd5b6000601f19601f8301169050919050565b7f4e487b7100000000000000000000000000000000000000000000000000000000600052604160045260246000fd5b610ab382610a6a565b810181811067ffffffffffffffff82111715610ad257610ad1610a7b565b5b80604052505050565b6000610ae5610a56565b9050610af18282610aaa565b919050565b6000819050919050565b610b0981610af6565b8114610b1457600080fd5b50565b600081359050610b2681610b00565b92915050565b600060ff82169050919050565b610b4281610b2c565b8114610b4d57600080fd5b50565b600081359050610b5f81610b39565b92915050565b600060408284031215610b7b57610b7a610a65565b5b610b856040610adb565b90506000610b9584828501610b17565b6000830152506020610ba984828501610b50565b60208301525092915050565b60008060808385031215610bcc57610bcb610a60565b5b6000610bda85828601610b65565b9250506040610beb85828601610b65565b9150509250929050565b610bfe81610af6565b82525050565b610c0d81610b2c565b82525050565b604082016000820151610c296000850182610bf5565b506020820151610c3c6020850182610c04565b50505050565b6000604082019050610c576000830184610c13565b92915050565b600060408284031215610c7357610c72610a60565b5b6000610c8184828501610b65565b91505092915050565b60008060608385031215610ca157610ca0610a60565b5b6000610caf85828601610b65565b9250506040610cc085828601610b50565b9150509250929050565b610cd381610b2c565b82525050565b6000604082019050610cee6000830185610cca565b610cfb6020830184610cca565b9392505050565b7f4e487b7100000000000000000000000000000000000000000000000000000000600052601160045260246000fd5b6000610d3c82610af6565b9150610d4783610af6565b9250828203905081811115610d5f57610d5e610d02565b5b92915050565b60008160011c9050919050565b6000808291508390505b6001851115610dbc57808604811115610d9857610d97610d02565b5b6001851615610da75780820291505b8081029050610db585610d65565b9450610d7c565b94509492505050565b600082610dd55760019050610e91565b81610de35760009050610e91565b8160018114610df95760028114610e0357610e32565b6001915050610e91565b60ff841115610e1557610e14610d02565b5b8360020a915084821115610e2c57610e2b610d02565b5b50610e91565b5060208310610133831016604e8410600b8410161715610e675782820a905083811115610e6257610e61610d02565b5b610e91565b610e748484846001610d72565b92509050818404811115610e8b57610e8a610d02565b5b81810290505b9392505050565b6000610ea382610af6565b9150610eae83610b2c565b9250610edb7fffffffffffffffffffffffffffffffffffffffffffffffffffffffffffffffff8484610dc5565b905092915050565b6000610eee82610af6565b9150610ef983610af6565b9250828202610f0781610af6565b91508282048414831517610f1e57610f1d610d02565b5b5092915050565b7f4e487b7100000000000000000000000000000000000000000000000000000000600052601260045260246000fd5b6000610f5f82610af6565b9150610f6a83610af6565b925082610f7a57610f79610f25565b5b828204905092915050565b6000610f9082610af6565b9150610f9b83610af6565b9250828201905080821115610fb357610fb2610d02565b5b92915050565b600082825260208201905092915050565b7f4d6174683a206d756c446976206f766572666c6f770000000000000000000000600082015250565b6000611000601583610fb9565b915061100b82610fca565b602082019050919050565b6000602082019050818103600083015261102f81610ff3565b905091905056fea26469706673582212208386e545eec222df1c4e25eacd874cd97d2e6dba3e0b87736f93cfb84076ed2864736f6c63430008130033",
			"opcodes": "PUSH1 0x80 PUSH1 0x40 MSTORE CALLVALUE DUP1 ISZERO PUSH2 0x10 JUMPI PUSH1 0x0 DUP1 REVERT JUMPDEST POP PUSH2 0x106C DUP1 PUSH2 0x20 PUSH1 0x0 CODECOPY PUSH1 0x0 RETURN INVALID PUSH1 0x80 PUSH1 0x40 MSTORE CALLVALUE DUP1 ISZERO PUSH2 0x10 JUMPI PUSH1 0x0 DUP1 REVERT JUMPDEST POP PUSH1 0x4 CALLDATASIZE LT PUSH2 0x88 JUMPI PUSH1 0x0 CALLDATALOAD PUSH1 0xE0 SHR DUP1 PUSH4 0x7D02EBF4 GT PUSH2 0x5B JUMPI DUP1 PUSH4 0x7D02EBF4 EQ PUSH2 0x14D JUMPI DUP1 PUSH4 0x8444B813 EQ PUSH2 0x17D JUMPI DUP1 PUSH4 0xA7E7C9F9 EQ PUSH2 0x1AD JUMPI DUP1 PUSH4 0xE51356E8 EQ PUSH2 0x1DD JUMPI PUSH2 0x88 JUMP JUMPDEST DUP1 PUSH4 0x2833D1F0 EQ PUSH2 0x8D JUMPI DUP1 PUSH4 0x3E60D8E0 EQ PUSH2 0xBD JUMPI DUP1 PUSH4 0x4B602C6D EQ PUSH2 0xED JUMPI DUP1 PUSH4 0x58633635 EQ PUSH2 0x11D JUMPI JUMPDEST PUSH1 0x0 DUP1 REVERT JUMPDEST PUSH2 0xA7 PUSH1 0x4 DUP1 CALLDATASIZE SUB DUP2 ADD SWAP1 PUSH2 0xA2 SWAP2 SWAP1 PUSH2 0xBB5 JUMP JUMPDEST PUSH2 0x20D JUMP JUMPDEST PUSH1 0x40 MLOAD PUSH2 0xB4 SWAP2 SWAP1 PUSH2 0xC42 JUMP JUMPDEST PUSH1 0x40 MLOAD DUP1 SWAP2 SUB SWAP1 RETURN JUMPDEST PUSH2 0xD7 PUSH1 0x4 DUP1 CALLDATASIZE SUB DUP2 ADD SWAP1 PUSH2 0xD2 SWAP2 SWAP1 PUSH2 0xC5D JUMP JUMPDEST PUSH2 0x227 JUMP JUMPDEST PUSH1 0x40 MLOAD PUSH2 0xE4 SWAP2 SWAP1 PUSH2 0xC42 JUMP JUMPDEST PUSH1 0x40 MLOAD DUP1 SWAP2 SUB SWAP1 RETURN JUMPDEST PUSH2 0x107 PUSH1 0x4 DUP1 CALLDATASIZE SUB DUP2 ADD SWAP1 PUSH2 0x102 SWAP2 SWAP1 PUSH2 0xBB5 JUMP JUMPDEST PUSH2 0x23F JUMP JUMPDEST PUSH1 0x40 MLOAD PUSH2 0x114 SWAP2 SWAP1 PUSH2 0xC42 JUMP JUMPDEST PUSH1 0x40 MLOAD DUP1 SWAP2 SUB SWAP1 RETURN JUMPDEST PUSH2 0x137 PUSH1 0x4 DUP1 CALLDATASIZE SUB DUP2 ADD SWAP1 PUSH2 0x132 SWAP2 SWAP1 PUSH2 0xBB5 JUMP JUMPDEST PUSH2 0x259 JUMP JUMPDEST PUSH1 0x40 MLOAD PUSH2 0x144 SWAP2 SWAP1 PUSH2 0xC42 JUMP JUMPDEST PUSH1 0x40 MLOAD DUP1 SWAP2 SUB SWAP1 RETURN JUMPDEST PUSH2 0x167 PUSH1 0x4 DUP1 CALLDATASIZE SUB DUP2 ADD SWAP1 PUSH2 0x162 SWAP2 SWAP1 PUSH2 0xC8A JUMP JUMPDEST PUSH2 0x273 JUMP JUMPDEST PUSH1 0x40 MLOAD PUSH2 0x174 SWAP2 SWAP1 PUSH2 0xC42 JUMP JUMPDEST PUSH1 0x40 MLOAD DUP1 SWAP2 SUB SWAP1 RETURN JUMPDEST PUSH2 0x197 PUSH1 0x4 DUP1 CALLDATASIZE SUB DUP2 ADD SWAP1 PUSH2 0x192 SWAP2 SWAP1 PUSH2 0xBB5 JUMP JUMPDEST PUSH2 0x28D JUMP JUMPDEST PUSH1 0x40 MLOAD PUSH2 0x1A4 SWAP2 SWAP1 PUSH2 0xC42 JUMP JUMPDEST PUSH1 0x40 MLOAD DUP1 SWAP2 SUB SWAP1 RETURN JUMPDEST PUSH2 0x1C7 PUSH1 0x4 DUP1 CALLDATASIZE SUB DUP2 ADD SWAP1 PUSH2 0x1C2 SWAP2 SWAP1 PUSH2 0xBB5 JUMP JUMPDEST PUSH2 0x2A7 JUMP JUMPDEST PUSH1 0x40 MLOAD PUSH2 0x1D4 SWAP2 SWAP1 PUSH2 0xC42 JUMP JUMPDEST PUSH1 0x40 MLOAD DUP1 SWAP2 SUB SWAP1 RETURN JUMPDEST PUSH2 0x1F7 PUSH1 0x4 DUP1 CALLDATASIZE SUB DUP2 ADD SWAP1 PUSH2 0x1F2 SWAP2 SWAP1 PUSH2 0xBB5 JUMP JUMPDEST PUSH2 0x2C1 JUMP JUMPDEST PUSH1 0x40 MLOAD PUSH2 0x204 SWAP2 SWAP1 PUSH2 0xC42 JUMP JUMPDEST PUSH1 0x40 MLOAD DUP1 SWAP2 SUB SWAP1 RETURN JUMPDEST PUSH2 0x215 PUSH2 0xA39 JUMP JUMPDEST PUSH2 0x21F DUP4 DUP4 PUSH2 0x2DB JUMP JUMPDEST SWAP1 POP SWAP3 SWAP2 POP POP JUMP JUMPDEST PUSH2 0x22F PUSH2 0xA39 JUMP JUMPDEST PUSH2 0x238 DUP3 PUSH2 0x393 JUMP JUMPDEST SWAP1 POP SWAP2 SWAP1 POP JUMP JUMPDEST PUSH2 0x247 PUSH2 0xA39 JUMP JUMPDEST PUSH2 0x251 DUP4 DUP4 PUSH2 0x41C JUMP JUMPDEST SWAP1 POP SWAP3 SWAP2 POP POP JUMP JUMPDEST PUSH2 0x261 PUSH2 0xA39 JUMP JUMPDEST PUSH2 0x26B DUP4 DUP4 PUSH2 0x4FC JUMP JUMPDEST SWAP1 POP SWAP3 SWAP2 POP POP JUMP JUMPDEST PUSH2 0x27B PUSH2 0xA39 JUMP JUMPDEST PUSH2 0x285 DUP4 DUP4 PUSH2 0x5B4 JUMP JUMPDEST SWAP1 POP SWAP3 SWAP2 POP POP JUMP JUMPDEST PUSH2 0x295 PUSH2 0xA39 JUMP JUMPDEST PUSH2 0x29F DUP4 DUP4 PUSH2 0x664 JUMP JUMPDEST SWAP1 POP SWAP3 SWAP2 POP POP JUMP JUMPDEST PUSH2 0x2AF PUSH2 0xA39 JUMP JUMPDEST PUSH2 0x2B9 DUP4 DUP4 PUSH2 0x737 JUMP JUMPDEST SWAP1 POP SWAP3 SWAP2 POP POP JUMP JUMPDEST PUSH2 0x2C9 PUSH2 0xA39 JUMP JUMPDEST PUSH2 0x2D3 DUP4 DUP4 PUSH2 0x848 JUMP JUMPDEST SWAP1 POP SWAP3 SWAP2 POP POP JUMP JUMPDEST PUSH2 0x2E3 PUSH2 0xA39 JUMP JUMPDEST DUP3 DUP3 PUSH1 0x0 DUP1 DUP4 PUSH1 0x20 ADD MLOAD SWAP2 POP DUP3 PUSH1 0x20 ADD MLOAD SWAP1 POP DUP1 PUSH1 0xFF AND DUP3 PUSH1 0xFF AND EQ PUSH2 0x342 JUMPI DUP2 DUP2 PUSH1 0x40 MLOAD PUSH32 0x5BC4748600000000000000000000000000000000000000000000000000000000 DUP2 MSTORE PUSH1 0x4 ADD PUSH2 0x339 SWAP3 SWAP2 SWAP1 PUSH2 0xCD9 JUMP JUMPDEST PUSH1 0x40 MLOAD DUP1 SWAP2 SUB SWAP1 REVERT JUMPDEST PUSH1 0x0 DUP1 PUSH1 0x0 DUP1 DUP11 PUSH1 0x20 ADD MLOAD SWAP4 POP DUP11 PUSH1 0x0 ADD MLOAD SWAP3 POP DUP10 PUSH1 0x0 ADD MLOAD SWAP2 POP DUP2 DUP4 PUSH2 0x369 SWAP2 SWAP1 PUSH2 0xD31 JUMP JUMPDEST SWAP1 POP PUSH1 0x40 MLOAD DUP1 PUSH1 0x40 ADD PUSH1 0x40 MSTORE DUP1 DUP3 DUP2 MSTORE PUSH1 0x20 ADD DUP6 PUSH1 0xFF AND DUP2 MSTORE POP SWAP9 POP POP POP POP POP POP POP POP POP SWAP3 SWAP2 POP POP JUMP JUMPDEST PUSH2 0x39B PUSH2 0xA39 JUMP JUMPDEST PUSH1 0x0 DUP1 PUSH1 0x0 DUP5 PUSH1 0x20 ADD MLOAD SWAP3 POP DUP5 PUSH1 0x0 ADD MLOAD SWAP2 POP PUSH8 0xDE0B6B3A7640000 DUP1 DUP5 PUSH1 0xA PUSH2 0x3C5 SWAP2 SWAP1 PUSH2 0xE98 JUMP JUMPDEST PUSH8 0xDE0B6B3A7640000 DUP6 PUSH2 0x3D9 SWAP2 SWAP1 PUSH2 0xEE3 JUMP JUMPDEST PUSH2 0x3E3 SWAP2 SWAP1 PUSH2 0xF54 JUMP JUMPDEST PUSH2 0x3ED SWAP2 SWAP1 PUSH2 0xEE3 JUMP JUMPDEST PUSH2 0x3F7 SWAP2 SWAP1 PUSH2 0xF54 JUMP JUMPDEST SWAP1 POP PUSH1 0x40 MLOAD DUP1 PUSH1 0x40 ADD PUSH1 0x40 MSTORE DUP1 DUP3 DUP2 MSTORE PUSH1 0x20 ADD PUSH1 0x12 PUSH1 0xFF AND DUP2 MSTORE POP SWAP4 POP POP POP POP SWAP2 SWAP1 POP JUMP JUMPDEST PUSH2 0x424 PUSH2 0xA39 JUMP JUMPDEST DUP3 DUP3 PUSH1 0x0 DUP1 DUP4 PUSH1 0x20 ADD MLOAD SWAP2 POP DUP3 PUSH1 0x20 ADD MLOAD SWAP1 POP DUP1 PUSH1 0xFF AND DUP3 PUSH1 0xFF AND EQ PUSH2 0x483 JUMPI DUP2 DUP2 PUSH1 0x40 MLOAD PUSH32 0x5BC4748600000000000000000000000000000000000000000000000000000000 DUP2 MSTORE PUSH1 0x4 ADD PUSH2 0x47A SWAP3 SWAP2 SWAP1 PUSH2 0xCD9 JUMP JUMPDEST PUSH1 0x40 MLOAD DUP1 SWAP2 SUB SWAP1 REVERT JUMPDEST PUSH1 0x0 DUP1 PUSH2 0x48E PUSH2 0xA39 JUMP JUMPDEST PUSH2 0x496 PUSH2 0xA39 JUMP JUMPDEST DUP11 PUSH1 0x20 ADD MLOAD SWAP4 POP DUP4 PUSH1 0xA PUSH2 0x4AA SWAP2 SWAP1 PUSH2 0xE98 JUMP JUMPDEST SWAP3 POP PUSH1 0x40 MLOAD DUP1 PUSH1 0x40 ADD PUSH1 0x40 MSTORE DUP1 DUP5 PUSH2 0x2710 PUSH2 0x4C5 SWAP2 SWAP1 PUSH2 0xEE3 JUMP JUMPDEST DUP2 MSTORE PUSH1 0x20 ADD DUP6 PUSH1 0xFF AND DUP2 MSTORE POP SWAP1 POP PUSH2 0x4DD DUP12 DUP3 PUSH2 0x664 JUMP JUMPDEST SWAP2 POP PUSH2 0x4E9 DUP3 DUP12 PUSH2 0x737 JUMP JUMPDEST SWAP2 POP DUP2 SWAP9 POP POP POP POP POP POP POP POP POP SWAP3 SWAP2 POP POP JUMP JUMPDEST PUSH2 0x504 PUSH2 0xA39 JUMP JUMPDEST DUP3 DUP3 PUSH1 0x0 DUP1 DUP4 PUSH1 0x20 ADD MLOAD SWAP2 POP DUP3 PUSH1 0x20 ADD MLOAD SWAP1 POP DUP1 PUSH1 0xFF AND DUP3 PUSH1 0xFF AND EQ PUSH2 0x563 JUMPI DUP2 DUP2 PUSH1 0x40 MLOAD PUSH32 0x5BC4748600000000000000000000000000000000000000000000000000000000 DUP2 MSTORE PUSH1 0x4 ADD PUSH2 0x55A SWAP3 SWAP2 SWAP1 PUSH2 0xCD9 JUMP JUMPDEST PUSH1 0x40 MLOAD DUP1 SWAP2 SUB SWAP1 REVERT JUMPDEST PUSH1 0x0 DUP1 PUSH1 0x0 DUP1 DUP11 PUSH1 0x20 ADD MLOAD SWAP4 POP DUP11 PUSH1 0x0 ADD MLOAD SWAP3 POP DUP10 PUSH1 0x0 ADD MLOAD SWAP2 POP DUP2 DUP4 PUSH2 0x58A SWAP2 SWAP1 PUSH2 0xF85 JUMP JUMPDEST SWAP1 POP PUSH1 0x40 MLOAD DUP1 PUSH1 0x40 ADD PUSH1 0x40 MSTORE DUP1 DUP3 DUP2 MSTORE PUSH1 0x20 ADD DUP6 PUSH1 0xFF AND DUP2 MSTORE POP SWAP9 POP POP POP POP POP POP POP POP POP SWAP3 SWAP2 POP POP JUMP JUMPDEST PUSH2 0x5BC PUSH2 0xA39 JUMP JUMPDEST PUSH1 0x0 DUP1 PUSH1 0x0 DUP6 PUSH1 0x20 ADD MLOAD SWAP3 POP DUP6 PUSH1 0x0 ADD MLOAD SWAP2 POP PUSH1 0x12 DUP4 PUSH1 0xFF AND EQ PUSH2 0x5F6 JUMPI PUSH2 0x5E2 PUSH2 0xA39 JUMP JUMPDEST PUSH2 0x5EB DUP8 PUSH2 0x393 JUMP JUMPDEST SWAP1 POP DUP1 PUSH1 0x0 ADD MLOAD SWAP3 POP POP JUMPDEST PUSH8 0xDE0B6B3A7640000 DUP6 PUSH1 0xA PUSH2 0x60C SWAP2 SWAP1 PUSH2 0xE98 JUMP JUMPDEST PUSH8 0xDE0B6B3A7640000 DUP1 DUP6 PUSH2 0x621 SWAP2 SWAP1 PUSH2 0xEE3 JUMP JUMPDEST PUSH2 0x62B SWAP2 SWAP1 PUSH2 0xF54 JUMP JUMPDEST PUSH2 0x635 SWAP2 SWAP1 PUSH2 0xEE3 JUMP JUMPDEST PUSH2 0x63F SWAP2 SWAP1 PUSH2 0xF54 JUMP JUMPDEST SWAP1 POP PUSH1 0x40 MLOAD DUP1 PUSH1 0x40 ADD PUSH1 0x40 MSTORE DUP1 DUP3 DUP2 MSTORE PUSH1 0x20 ADD DUP7 PUSH1 0xFF AND DUP2 MSTORE POP SWAP4 POP POP POP POP SWAP3 SWAP2 POP POP JUMP JUMPDEST PUSH2 0x66C PUSH2 0xA39 JUMP JUMPDEST DUP3 DUP3 PUSH1 0x0 DUP1 DUP4 PUSH1 0x20 ADD MLOAD SWAP2 POP DUP3 PUSH1 0x20 ADD MLOAD SWAP1 POP DUP1 PUSH1 0xFF AND DUP3 PUSH1 0xFF AND EQ PUSH2 0x6CB JUMPI DUP2 DUP2 PUSH1 0x40 MLOAD PUSH32 0x5BC4748600000000000000000000000000000000000000000000000000000000 DUP2 MSTORE PUSH1 0x4 ADD PUSH2 0x6C2 SWAP3 SWAP2 SWAP1 PUSH2 0xCD9 JUMP JUMPDEST PUSH1 0x40 MLOAD DUP1 SWAP2 SUB SWAP1 REVERT JUMPDEST PUSH1 0x0 DUP1 PUSH1 0x0 DUP1 PUSH1 0x0 DUP12 PUSH1 0x20 ADD MLOAD SWAP5 POP DUP12 PUSH1 0x0 ADD MLOAD SWAP4 POP DUP11 PUSH1 0x0 ADD MLOAD SWAP3 POP DUP5 PUSH1 0xA PUSH2 0x6F5 SWAP2 SWAP1 PUSH2 0xE98 JUMP JUMPDEST SWAP1 POP PUSH2 0x70C DUP2 DUP5 DUP7 PUSH2 0x928 SWAP1 SWAP3 SWAP2 SWAP1 PUSH4 0xFFFFFFFF AND JUMP JUMPDEST SWAP2 POP PUSH1 0x40 MLOAD DUP1 PUSH1 0x40 ADD PUSH1 0x40 MSTORE DUP1 DUP4 DUP2 MSTORE PUSH1 0x20 ADD DUP7 PUSH1 0xFF AND DUP2 MSTORE POP SWAP10 POP POP POP POP POP POP POP POP POP POP SWAP3 SWAP2 POP POP JUMP JUMPDEST PUSH2 0x73F PUSH2 0xA39 JUMP JUMPDEST DUP3 DUP3 PUSH1 0x0 DUP1 DUP4 PUSH1 0x20 ADD MLOAD SWAP2 POP DUP3 PUSH1 0x20 ADD MLOAD SWAP1 POP DUP1 PUSH1 0xFF AND DUP3 PUSH1 0xFF AND EQ PUSH2 0x79E JUMPI DUP2 DUP2 PUSH1 0x40 MLOAD PUSH32 0x5BC4748600000000000000000000000000000000000000000000000000000000 DUP2 MSTORE PUSH1 0x4 ADD PUSH2 0x795 SWAP3 SWAP2 SWAP1 PUSH2 0xCD9 JUMP JUMPDEST PUSH1 0x40 MLOAD DUP1 SWAP2 SUB SWAP1 REVERT JUMPDEST PUSH1 0x0 DUP1 PUSH1 0x0 DUP1 PUSH1 0x0 DUP12 PUSH1 0x20 ADD MLOAD SWAP5 POP DUP12 PUSH1 0x0 ADD MLOAD SWAP4 POP DUP11 PUSH1 0x0 ADD MLOAD SWAP3 POP DUP5 PUSH1 0xA PUSH2 0x7C8 SWAP2 SWAP1 PUSH2 0xE98 JUMP JUMPDEST SWAP1 POP PUSH1 0x0 DUP6 PUSH1 0xFF AND SUB PUSH2 0x807 JUMPI DUP3 DUP5 PUSH2 0x7E1 SWAP2 SWAP1 PUSH2 0xEE3 JUMP JUMPDEST SWAP2 POP PUSH1 0x40 MLOAD DUP1 PUSH1 0x40 ADD PUSH1 0x40 MSTORE DUP1 DUP4 DUP2 MSTORE PUSH1 0x20 ADD DUP7 PUSH1 0xFF AND DUP2 MSTORE POP SWAP10 POP POP POP POP POP POP PUSH2 0x83E JUMP JUMPDEST PUSH2 0x81C DUP4 DUP3 DUP7 PUSH2 0x928 SWAP1 SWAP3 SWAP2 SWAP1 PUSH4 0xFFFFFFFF AND JUMP JUMPDEST SWAP2 POP PUSH1 0x40 MLOAD DUP1 PUSH1 0x40 ADD PUSH1 0x40 MSTORE DUP1 DUP4 DUP2 MSTORE PUSH1 0x20 ADD DUP7 PUSH1 0xFF AND DUP2 MSTORE POP SWAP10 POP POP POP POP POP POP JUMPDEST POP POP POP POP SWAP3 SWAP2 POP POP JUMP JUMPDEST PUSH2 0x850 PUSH2 0xA39 JUMP JUMPDEST DUP3 DUP3 PUSH1 0x0 DUP1 DUP4 PUSH1 0x20 ADD MLOAD SWAP2 POP DUP3 PUSH1 0x20 ADD MLOAD SWAP1 POP DUP1 PUSH1 0xFF AND DUP3 PUSH1 0xFF AND EQ PUSH2 0x8AF JUMPI DUP2 DUP2 PUSH1 0x40 MLOAD PUSH32 0x5BC4748600000000000000000000000000000000000000000000000000000000 DUP2 MSTORE PUSH1 0x4 ADD PUSH2 0x8A6 SWAP3 SWAP2 SWAP1 PUSH2 0xCD9 JUMP JUMPDEST PUSH1 0x40 MLOAD DUP1 SWAP2 SUB SWAP1 REVERT JUMPDEST PUSH1 0x0 DUP1 PUSH2 0x8BA PUSH2 0xA39 JUMP JUMPDEST PUSH2 0x8C2 PUSH2 0xA39 JUMP JUMPDEST DUP11 PUSH1 0x20 ADD MLOAD SWAP4 POP DUP4 PUSH1 0xA PUSH2 0x8D6 SWAP2 SWAP1 PUSH2 0xE98 JUMP JUMPDEST SWAP3 POP PUSH1 0x40 MLOAD DUP1 PUSH1 0x40 ADD PUSH1 0x40 MSTORE DUP1 DUP5 PUSH2 0x2710 PUSH2 0x8F1 SWAP2 SWAP1 PUSH2 0xEE3 JUMP JUMPDEST DUP2 MSTORE PUSH1 0x20 ADD DUP6 PUSH1 0xFF AND DUP2 MSTORE POP SWAP1 POP PUSH2 0x909 DUP12 DUP12 PUSH2 0x664 JUMP JUMPDEST SWAP2 POP PUSH2 0x915 DUP3 DUP3 PUSH2 0x737 JUMP JUMPDEST SWAP2 POP DUP2 SWAP9 POP POP POP POP POP POP POP POP POP SWAP3 SWAP2 POP POP JUMP JUMPDEST PUSH1 0x0 DUP1 PUSH1 0x0 DUP1 NOT DUP6 DUP8 MULMOD DUP6 DUP8 MUL SWAP3 POP DUP3 DUP2 LT DUP4 DUP3 SUB SUB SWAP2 POP POP PUSH1 0x0 DUP2 SUB PUSH2 0x963 JUMPI DUP4 DUP3 DUP2 PUSH2 0x959 JUMPI PUSH2 0x958 PUSH2 0xF25 JUMP JUMPDEST JUMPDEST DIV SWAP3 POP POP POP PUSH2 0xA32 JUMP JUMPDEST DUP1 DUP5 GT PUSH2 0x9A5 JUMPI PUSH1 0x40 MLOAD PUSH32 0x8C379A000000000000000000000000000000000000000000000000000000000 DUP2 MSTORE PUSH1 0x4 ADD PUSH2 0x99C SWAP1 PUSH2 0x1016 JUMP JUMPDEST PUSH1 0x40 MLOAD DUP1 SWAP2 SUB SWAP1 REVERT JUMPDEST PUSH1 0x0 DUP5 DUP7 DUP9 MULMOD SWAP1 POP DUP3 DUP2 GT DUP3 SUB SWAP2 POP DUP1 DUP4 SUB SWAP3 POP PUSH1 0x0 PUSH1 0x1 DUP7 NOT ADD DUP7 AND SWAP1 POP DUP1 DUP7 DIV SWAP6 POP DUP1 DUP5 DIV SWAP4 POP PUSH1 0x1 DUP2 DUP3 PUSH1 0x0 SUB DIV ADD SWAP1 POP DUP1 DUP4 MUL DUP5 OR SWAP4 POP PUSH1 0x0 PUSH1 0x2 DUP8 PUSH1 0x3 MUL XOR SWAP1 POP DUP1 DUP8 MUL PUSH1 0x2 SUB DUP2 MUL SWAP1 POP DUP1 DUP8 MUL PUSH1 0x2 SUB DUP2 MUL SWAP1 POP DUP1 DUP8 MUL PUSH1 0x2 SUB DUP2 MUL SWAP1 POP DUP1 DUP8 MUL PUSH1 0x2 SUB DUP2 MUL SWAP1 POP DUP1 DUP8 MUL PUSH1 0x2 SUB DUP2 MUL SWAP1 POP DUP1 DUP8 MUL PUSH1 0x2 SUB DUP2 MUL SWAP1 POP DUP1 DUP6 MUL SWAP6 POP POP POP POP POP POP JUMPDEST SWAP4 SWAP3 POP POP POP JUMP JUMPDEST PUSH1 0x40 MLOAD DUP1 PUSH1 0x40 ADD PUSH1 0x40 MSTORE DUP1 PUSH1 0x0 DUP2 MSTORE PUSH1 0x20 ADD PUSH1 0x0 PUSH1 0xFF AND DUP2 MSTORE POP SWAP1 JUMP JUMPDEST PUSH1 0x0 PUSH1 0x40 MLOAD SWAP1 POP SWAP1 JUMP JUMPDEST PUSH1 0x0 DUP1 REVERT JUMPDEST PUSH1 0x0 DUP1 REVERT JUMPDEST PUSH1 0x0 PUSH1 0x1F NOT PUSH1 0x1F DUP4 ADD AND SWAP1 POP SWAP2 SWAP1 POP JUMP JUMPDEST PUSH32 0x4E487B7100000000000000000000000000000000000000000000000000000000 PUSH1 0x0 MSTORE PUSH1 0x41 PUSH1 0x4 MSTORE PUSH1 0x24 PUSH1 0x0 REVERT JUMPDEST PUSH2 0xAB3 DUP3 PUSH2 0xA6A JUMP JUMPDEST DUP2 ADD DUP2 DUP2 LT PUSH8 0xFFFFFFFFFFFFFFFF DUP3 GT OR ISZERO PUSH2 0xAD2 JUMPI PUSH2 0xAD1 PUSH2 0xA7B JUMP JUMPDEST JUMPDEST DUP1 PUSH1 0x40 MSTORE POP POP POP JUMP JUMPDEST PUSH1 0x0 PUSH2 0xAE5 PUSH2 0xA56 JUMP JUMPDEST SWAP1 POP PUSH2 0xAF1 DUP3 DUP3 PUSH2 0xAAA JUMP JUMPDEST SWAP2 SWAP1 POP JUMP JUMPDEST PUSH1 0x0 DUP2 SWAP1 POP SWAP2 SWAP1 POP JUMP JUMPDEST PUSH2 0xB09 DUP2 PUSH2 0xAF6 JUMP JUMPDEST DUP2 EQ PUSH2 0xB14 JUMPI PUSH1 0x0 DUP1 REVERT JUMPDEST POP JUMP JUMPDEST PUSH1 0x0 DUP2 CALLDATALOAD SWAP1 POP PUSH2 0xB26 DUP2 PUSH2 0xB00 JUMP JUMPDEST SWAP3 SWAP2 POP POP JUMP JUMPDEST PUSH1 0x0 PUSH1 0xFF DUP3 AND SWAP1 POP SWAP2 SWAP1 POP JUMP JUMPDEST PUSH2 0xB42 DUP2 PUSH2 0xB2C JUMP JUMPDEST DUP2 EQ PUSH2 0xB4D JUMPI PUSH1 0x0 DUP1 REVERT JUMPDEST POP JUMP JUMPDEST PUSH1 0x0 DUP2 CALLDATALOAD SWAP1 POP PUSH2 0xB5F DUP2 PUSH2 0xB39 JUMP JUMPDEST SWAP3 SWAP2 POP POP JUMP JUMPDEST PUSH1 0x0 PUSH1 0x40 DUP3 DUP5 SUB SLT ISZERO PUSH2 0xB7B JUMPI PUSH2 0xB7A PUSH2 0xA65 JUMP JUMPDEST JUMPDEST PUSH2 0xB85 PUSH1 0x40 PUSH2 0xADB JUMP JUMPDEST SWAP1 POP PUSH1 0x0 PUSH2 0xB95 DUP5 DUP3 DUP6 ADD PUSH2 0xB17 JUMP JUMPDEST PUSH1 0x0 DUP4 ADD MSTORE POP PUSH1 0x20 PUSH2 0xBA9 DUP5 DUP3 DUP6 ADD PUSH2 0xB50 JUMP JUMPDEST PUSH1 0x20 DUP4 ADD MSTORE POP SWAP3 SWAP2 POP POP JUMP JUMPDEST PUSH1 0x0 DUP1 PUSH1 0x80 DUP4 DUP6 SUB SLT ISZERO PUSH2 0xBCC JUMPI PUSH2 0xBCB PUSH2 0xA60 JUMP JUMPDEST JUMPDEST PUSH1 0x0 PUSH2 0xBDA DUP6 DUP3 DUP7 ADD PUSH2 0xB65 JUMP JUMPDEST SWAP3 POP POP PUSH1 0x40 PUSH2 0xBEB DUP6 DUP3 DUP7 ADD PUSH2 0xB65 JUMP JUMPDEST SWAP2 POP POP SWAP3 POP SWAP3 SWAP1 POP JUMP JUMPDEST PUSH2 0xBFE DUP2 PUSH2 0xAF6 JUMP JUMPDEST DUP3 MSTORE POP POP JUMP JUMPDEST PUSH2 0xC0D DUP2 PUSH2 0xB2C JUMP JUMPDEST DUP3 MSTORE POP POP JUMP JUMPDEST PUSH1 0x40 DUP3 ADD PUSH1 0x0 DUP3 ADD MLOAD PUSH2 0xC29 PUSH1 0x0 DUP6 ADD DUP3 PUSH2 0xBF5 JUMP JUMPDEST POP PUSH1 0x20 DUP3 ADD MLOAD PUSH2 0xC3C PUSH1 0x20 DUP6 ADD DUP3 PUSH2 0xC04 JUMP JUMPDEST POP POP POP POP JUMP JUMPDEST PUSH1 0x0 PUSH1 0x40 DUP3 ADD SWAP1 POP PUSH2 0xC57 PUSH1 0x0 DUP4 ADD DUP5 PUSH2 0xC13 JUMP JUMPDEST SWAP3 SWAP2 POP POP JUMP JUMPDEST PUSH1 0x0 PUSH1 0x40 DUP3 DUP5 SUB SLT ISZERO PUSH2 0xC73 JUMPI PUSH2 0xC72 PUSH2 0xA60 JUMP JUMPDEST JUMPDEST PUSH1 0x0 PUSH2 0xC81 DUP5 DUP3 DUP6 ADD PUSH2 0xB65 JUMP JUMPDEST SWAP2 POP POP SWAP3 SWAP2 POP POP JUMP JUMPDEST PUSH1 0x0 DUP1 PUSH1 0x60 DUP4 DUP6 SUB SLT ISZERO PUSH2 0xCA1 JUMPI PUSH2 0xCA0 PUSH2 0xA60 JUMP JUMPDEST JUMPDEST PUSH1 0x0 PUSH2 0xCAF DUP6 DUP3 DUP7 ADD PUSH2 0xB65 JUMP JUMPDEST SWAP3 POP POP PUSH1 0x40 PUSH2 0xCC0 DUP6 DUP3 DUP7 ADD PUSH2 0xB50 JUMP JUMPDEST SWAP2 POP POP SWAP3 POP SWAP3 SWAP1 POP JUMP JUMPDEST PUSH2 0xCD3 DUP2 PUSH2 0xB2C JUMP JUMPDEST DUP3 MSTORE POP POP JUMP JUMPDEST PUSH1 0x0 PUSH1 0x40 DUP3 ADD SWAP1 POP PUSH2 0xCEE PUSH1 0x0 DUP4 ADD DUP6 PUSH2 0xCCA JUMP JUMPDEST PUSH2 0xCFB PUSH1 0x20 DUP4 ADD DUP5 PUSH2 0xCCA JUMP JUMPDEST SWAP4 SWAP3 POP POP POP JUMP JUMPDEST PUSH32 0x4E487B7100000000000000000000000000000000000000000000000000000000 PUSH1 0x0 MSTORE PUSH1 0x11 PUSH1 0x4 MSTORE PUSH1 0x24 PUSH1 0x0 REVERT JUMPDEST PUSH1 0x0 PUSH2 0xD3C DUP3 PUSH2 0xAF6 JUMP JUMPDEST SWAP2 POP PUSH2 0xD47 DUP4 PUSH2 0xAF6 JUMP JUMPDEST SWAP3 POP DUP3 DUP3 SUB SWAP1 POP DUP2 DUP2 GT ISZERO PUSH2 0xD5F JUMPI PUSH2 0xD5E PUSH2 0xD02 JUMP JUMPDEST JUMPDEST SWAP3 SWAP2 POP POP JUMP JUMPDEST PUSH1 0x0 DUP2 PUSH1 0x1 SHR SWAP1 POP SWAP2 SWAP1 POP JUMP JUMPDEST PUSH1 0x0 DUP1 DUP3 SWAP2 POP DUP4 SWAP1 POP JUMPDEST PUSH1 0x1 DUP6 GT ISZERO PUSH2 0xDBC JUMPI DUP1 DUP7 DIV DUP2 GT ISZERO PUSH2 0xD98 JUMPI PUSH2 0xD97 PUSH2 0xD02 JUMP JUMPDEST JUMPDEST PUSH1 0x1 DUP6 AND ISZERO PUSH2 0xDA7 JUMPI DUP1 DUP3 MUL SWAP2 POP JUMPDEST DUP1 DUP2 MUL SWAP1 POP PUSH2 0xDB5 DUP6 PUSH2 0xD65 JUMP JUMPDEST SWAP5 POP PUSH2 0xD7C JUMP JUMPDEST SWAP5 POP SWAP5 SWAP3 POP POP POP JUMP JUMPDEST PUSH1 0x0 DUP3 PUSH2 0xDD5 JUMPI PUSH1 0x1 SWAP1 POP PUSH2 0xE91 JUMP JUMPDEST DUP2 PUSH2 0xDE3 JUMPI PUSH1 0x0 SWAP1 POP PUSH2 0xE91 JUMP JUMPDEST DUP2 PUSH1 0x1 DUP2 EQ PUSH2 0xDF9 JUMPI PUSH1 0x2 DUP2 EQ PUSH2 0xE03 JUMPI PUSH2 0xE32 JUMP JUMPDEST PUSH1 0x1 SWAP2 POP POP PUSH2 0xE91 JUMP JUMPDEST PUSH1 0xFF DUP5 GT ISZERO PUSH2 0xE15 JUMPI PUSH2 0xE14 PUSH2 0xD02 JUMP JUMPDEST JUMPDEST DUP4 PUSH1 0x2 EXP SWAP2 POP DUP5 DUP3 GT ISZERO PUSH2 0xE2C JUMPI PUSH2 0xE2B PUSH2 0xD02 JUMP JUMPDEST JUMPDEST POP PUSH2 0xE91 JUMP JUMPDEST POP PUSH1 0x20 DUP4 LT PUSH2 0x133 DUP4 LT AND PUSH1 0x4E DUP5 LT PUSH1 0xB DUP5 LT AND OR ISZERO PUSH2 0xE67 JUMPI DUP3 DUP3 EXP SWAP1 POP DUP4 DUP2 GT ISZERO PUSH2 0xE62 JUMPI PUSH2 0xE61 PUSH2 0xD02 JUMP JUMPDEST JUMPDEST PUSH2 0xE91 JUMP JUMPDEST PUSH2 0xE74 DUP5 DUP5 DUP5 PUSH1 0x1 PUSH2 0xD72 JUMP JUMPDEST SWAP3 POP SWAP1 POP DUP2 DUP5 DIV DUP2 GT ISZERO PUSH2 0xE8B JUMPI PUSH2 0xE8A PUSH2 0xD02 JUMP JUMPDEST JUMPDEST DUP2 DUP2 MUL SWAP1 POP JUMPDEST SWAP4 SWAP3 POP POP POP JUMP JUMPDEST PUSH1 0x0 PUSH2 0xEA3 DUP3 PUSH2 0xAF6 JUMP JUMPDEST SWAP2 POP PUSH2 0xEAE DUP4 PUSH2 0xB2C JUMP JUMPDEST SWAP3 POP PUSH2 0xEDB PUSH32 0xFFFFFFFFFFFFFFFFFFFFFFFFFFFFFFFFFFFFFFFFFFFFFFFFFFFFFFFFFFFFFFFF DUP5 DUP5 PUSH2 0xDC5 JUMP JUMPDEST SWAP1 POP SWAP3 SWAP2 POP POP JUMP JUMPDEST PUSH1 0x0 PUSH2 0xEEE DUP3 PUSH2 0xAF6 JUMP JUMPDEST SWAP2 POP PUSH2 0xEF9 DUP4 PUSH2 0xAF6 JUMP JUMPDEST SWAP3 POP DUP3 DUP3 MUL PUSH2 0xF07 DUP2 PUSH2 0xAF6 JUMP JUMPDEST SWAP2 POP DUP3 DUP3 DIV DUP5 EQ DUP4 ISZERO OR PUSH2 0xF1E JUMPI PUSH2 0xF1D PUSH2 0xD02 JUMP JUMPDEST JUMPDEST POP SWAP3 SWAP2 POP POP JUMP JUMPDEST PUSH32 0x4E487B7100000000000000000000000000000000000000000000000000000000 PUSH1 0x0 MSTORE PUSH1 0x12 PUSH1 0x4 MSTORE PUSH1 0x24 PUSH1 0x0 REVERT JUMPDEST PUSH1 0x0 PUSH2 0xF5F DUP3 PUSH2 0xAF6 JUMP JUMPDEST SWAP2 POP PUSH2 0xF6A DUP4 PUSH2 0xAF6 JUMP JUMPDEST SWAP3 POP DUP3 PUSH2 0xF7A JUMPI PUSH2 0xF79 PUSH2 0xF25 JUMP JUMPDEST JUMPDEST DUP3 DUP3 DIV SWAP1 POP SWAP3 SWAP2 POP POP JUMP JUMPDEST PUSH1 0x0 PUSH2 0xF90 DUP3 PUSH2 0xAF6 JUMP JUMPDEST SWAP2 POP PUSH2 0xF9B DUP4 PUSH2 0xAF6 JUMP JUMPDEST SWAP3 POP DUP3 DUP3 ADD SWAP1 POP DUP1 DUP3 GT ISZERO PUSH2 0xFB3 JUMPI PUSH2 0xFB2 PUSH2 0xD02 JUMP JUMPDEST JUMPDEST SWAP3 SWAP2 POP POP JUMP JUMPDEST PUSH1 0x0 DUP3 DUP3 MSTORE PUSH1 0x20 DUP3 ADD SWAP1 POP SWAP3 SWAP2 POP POP JUMP JUMPDEST PUSH32 0x4D6174683A206D756C446976206F766572666C6F770000000000000000000000 PUSH1 0x0 DUP3 ADD MSTORE POP JUMP JUMPDEST PUSH1 0x0 PUSH2 0x1000 PUSH1 0x15 DUP4 PUSH2 0xFB9 JUMP JUMPDEST SWAP2 POP PUSH2 0x100B DUP3 PUSH2 0xFCA JUMP JUMPDEST PUSH1 0x20 DUP3 ADD SWAP1 POP SWAP2 SWAP1 POP JUMP JUMPDEST PUSH1 0x0 PUSH1 0x20 DUP3 ADD SWAP1 POP DUP2 DUP2 SUB PUSH1 0x0 DUP4 ADD MSTORE PUSH2 0x102F DUP2 PUSH2 0xFF3 JUMP JUMPDEST SWAP1 POP SWAP2 SWAP1 POP JUMP INVALID LOG2 PUSH5 0x6970667358 0x22 SLT KECCAK256 DUP4 DUP7 0xE5 GASLIMIT 0xEE 0xC2 0x22 0xDF SHR 0x4E 0x25 0xEA 0xCD DUP8 0x4C 0xD9 PUSH30 0x2E6DBA3E0B87736F93CFB84076ED2864736F6C6343000813003300000000 "
		},
		"gasEstimates": {
			"creation": {
				"codeDepositCost": "840800",
				"executionCost": "877",
				"totalCost": "841677"
			},
			"external": {
				"add((uint256,uint8),(uint256,uint8))": "infinite",
				"asEther((uint256,uint8))": "infinite",
				"asNewDecimals((uint256,uint8),uint8)": "infinite",
				"div((uint256,uint8),(uint256,uint8))": "infinite",
				"mul((uint256,uint8),(uint256,uint8))": "infinite",
				"scale((uint256,uint8),(uint256,uint8))": "infinite",
				"slice((uint256,uint8),(uint256,uint8))": "infinite",
				"sub((uint256,uint8),(uint256,uint8))": "infinite"
			},
			"internal": {
				"add_(struct FixedPointValue memory,struct FixedPointValue memory)": "infinite",
				"asEther_(struct FixedPointValue memory)": "infinite",
				"asNewDecimals_(struct FixedPointValue memory,uint8)": "infinite",
				"div_(struct FixedPointValue memory,struct FixedPointValue memory)": "infinite",
				"mul_(struct FixedPointValue memory,struct FixedPointValue memory)": "infinite",
				"scale_(struct FixedPointValue memory,struct FixedPointValue memory)": "infinite",
				"slice_(struct FixedPointValue memory,struct FixedPointValue memory)": "infinite",
				"sub_(struct FixedPointValue memory,struct FixedPointValue memory)": "infinite"
			}
		},
		"methodIdentifiers": {
			"add((uint256,uint8),(uint256,uint8))": "58633635",
			"asEther((uint256,uint8))": "3e60d8e0",
			"asNewDecimals((uint256,uint8),uint8)": "7d02ebf4",
			"div((uint256,uint8),(uint256,uint8))": "8444b813",
			"mul((uint256,uint8),(uint256,uint8))": "a7e7c9f9",
			"scale((uint256,uint8),(uint256,uint8))": "e51356e8",
			"slice((uint256,uint8),(uint256,uint8))": "4b602c6d",
			"sub((uint256,uint8),(uint256,uint8))": "2833d1f0"
		}
	},
	"abi": [
		{
			"inputs": [
				{
					"internalType": "uint8",
					"name": "decimals0",
					"type": "uint8"
				},
				{
					"internalType": "uint8",
					"name": "decimals1",
					"type": "uint8"
				}
			],
			"name": "IncompatibleDecimals",
			"type": "error"
		},
		{
			"inputs": [
				{
					"components": [
						{
							"internalType": "uint256",
							"name": "value",
							"type": "uint256"
						},
						{
							"internalType": "uint8",
							"name": "decimals",
							"type": "uint8"
						}
					],
					"internalType": "struct FixedPointValue",
					"name": "num0",
					"type": "tuple"
				},
				{
					"components": [
						{
							"internalType": "uint256",
							"name": "value",
							"type": "uint256"
						},
						{
							"internalType": "uint8",
							"name": "decimals",
							"type": "uint8"
						}
					],
					"internalType": "struct FixedPointValue",
					"name": "num1",
					"type": "tuple"
				}
			],
			"name": "add",
			"outputs": [
				{
					"components": [
						{
							"internalType": "uint256",
							"name": "value",
							"type": "uint256"
						},
						{
							"internalType": "uint8",
							"name": "decimals",
							"type": "uint8"
						}
					],
					"internalType": "struct FixedPointValue",
					"name": "",
					"type": "tuple"
				}
			],
			"stateMutability": "pure",
			"type": "function"
		},
		{
			"inputs": [
				{
					"components": [
						{
							"internalType": "uint256",
							"name": "value",
							"type": "uint256"
						},
						{
							"internalType": "uint8",
							"name": "decimals",
							"type": "uint8"
						}
					],
					"internalType": "struct FixedPointValue",
					"name": "num",
					"type": "tuple"
				}
			],
			"name": "asEther",
			"outputs": [
				{
					"components": [
						{
							"internalType": "uint256",
							"name": "value",
							"type": "uint256"
						},
						{
							"internalType": "uint8",
							"name": "decimals",
							"type": "uint8"
						}
					],
					"internalType": "struct FixedPointValue",
					"name": "",
					"type": "tuple"
				}
			],
			"stateMutability": "pure",
			"type": "function"
		},
		{
			"inputs": [
				{
					"components": [
						{
							"internalType": "uint256",
							"name": "value",
							"type": "uint256"
						},
						{
							"internalType": "uint8",
							"name": "decimals",
							"type": "uint8"
						}
					],
					"internalType": "struct FixedPointValue",
					"name": "num",
					"type": "tuple"
				},
				{
					"internalType": "uint8",
					"name": "decimals",
					"type": "uint8"
				}
			],
			"name": "asNewDecimals",
			"outputs": [
				{
					"components": [
						{
							"internalType": "uint256",
							"name": "value",
							"type": "uint256"
						},
						{
							"internalType": "uint8",
							"name": "decimals",
							"type": "uint8"
						}
					],
					"internalType": "struct FixedPointValue",
					"name": "",
					"type": "tuple"
				}
			],
			"stateMutability": "pure",
			"type": "function"
		},
		{
			"inputs": [
				{
					"components": [
						{
							"internalType": "uint256",
							"name": "value",
							"type": "uint256"
						},
						{
							"internalType": "uint8",
							"name": "decimals",
							"type": "uint8"
						}
					],
					"internalType": "struct FixedPointValue",
					"name": "num0",
					"type": "tuple"
				},
				{
					"components": [
						{
							"internalType": "uint256",
							"name": "value",
							"type": "uint256"
						},
						{
							"internalType": "uint8",
							"name": "decimals",
							"type": "uint8"
						}
					],
					"internalType": "struct FixedPointValue",
					"name": "num1",
					"type": "tuple"
				}
			],
			"name": "div",
			"outputs": [
				{
					"components": [
						{
							"internalType": "uint256",
							"name": "value",
							"type": "uint256"
						},
						{
							"internalType": "uint8",
							"name": "decimals",
							"type": "uint8"
						}
					],
					"internalType": "struct FixedPointValue",
					"name": "",
					"type": "tuple"
				}
			],
			"stateMutability": "pure",
			"type": "function"
		},
		{
			"inputs": [
				{
					"components": [
						{
							"internalType": "uint256",
							"name": "value",
							"type": "uint256"
						},
						{
							"internalType": "uint8",
							"name": "decimals",
							"type": "uint8"
						}
					],
					"internalType": "struct FixedPointValue",
					"name": "num0",
					"type": "tuple"
				},
				{
					"components": [
						{
							"internalType": "uint256",
							"name": "value",
							"type": "uint256"
						},
						{
							"internalType": "uint8",
							"name": "decimals",
							"type": "uint8"
						}
					],
					"internalType": "struct FixedPointValue",
					"name": "num1",
					"type": "tuple"
				}
			],
			"name": "mul",
			"outputs": [
				{
					"components": [
						{
							"internalType": "uint256",
							"name": "value",
							"type": "uint256"
						},
						{
							"internalType": "uint8",
							"name": "decimals",
							"type": "uint8"
						}
					],
					"internalType": "struct FixedPointValue",
					"name": "",
					"type": "tuple"
				}
			],
			"stateMutability": "pure",
			"type": "function"
		},
		{
			"inputs": [
				{
					"components": [
						{
							"internalType": "uint256",
							"name": "value",
							"type": "uint256"
						},
						{
							"internalType": "uint8",
							"name": "decimals",
							"type": "uint8"
						}
					],
					"internalType": "struct FixedPointValue",
					"name": "num0",
					"type": "tuple"
				},
				{
					"components": [
						{
							"internalType": "uint256",
							"name": "value",
							"type": "uint256"
						},
						{
							"internalType": "uint8",
							"name": "decimals",
							"type": "uint8"
						}
					],
					"internalType": "struct FixedPointValue",
					"name": "num1",
					"type": "tuple"
				}
			],
			"name": "scale",
			"outputs": [
				{
					"components": [
						{
							"internalType": "uint256",
							"name": "value",
							"type": "uint256"
						},
						{
							"internalType": "uint8",
							"name": "decimals",
							"type": "uint8"
						}
					],
					"internalType": "struct FixedPointValue",
					"name": "basisPoints",
					"type": "tuple"
				}
			],
			"stateMutability": "pure",
			"type": "function"
		},
		{
			"inputs": [
				{
					"components": [
						{
							"internalType": "uint256",
							"name": "value",
							"type": "uint256"
						},
						{
							"internalType": "uint8",
							"name": "decimals",
							"type": "uint8"
						}
					],
					"internalType": "struct FixedPointValue",
					"name": "num0",
					"type": "tuple"
				},
				{
					"components": [
						{
							"internalType": "uint256",
							"name": "value",
							"type": "uint256"
						},
						{
							"internalType": "uint8",
							"name": "decimals",
							"type": "uint8"
						}
					],
					"internalType": "struct FixedPointValue",
					"name": "num1",
					"type": "tuple"
				}
			],
			"name": "slice",
			"outputs": [
				{
					"components": [
						{
							"internalType": "uint256",
							"name": "value",
							"type": "uint256"
						},
						{
							"internalType": "uint8",
							"name": "decimals",
							"type": "uint8"
						}
					],
					"internalType": "struct FixedPointValue",
					"name": "",
					"type": "tuple"
				}
			],
			"stateMutability": "pure",
			"type": "function"
		},
		{
			"inputs": [
				{
					"components": [
						{
							"internalType": "uint256",
							"name": "value",
							"type": "uint256"
						},
						{
							"internalType": "uint8",
							"name": "decimals",
							"type": "uint8"
						}
					],
					"internalType": "struct FixedPointValue",
					"name": "num0",
					"type": "tuple"
				},
				{
					"components": [
						{
							"internalType": "uint256",
							"name": "value",
							"type": "uint256"
						},
						{
							"internalType": "uint8",
							"name": "decimals",
							"type": "uint8"
						}
					],
					"internalType": "struct FixedPointValue",
					"name": "num1",
					"type": "tuple"
				}
			],
			"name": "sub",
			"outputs": [
				{
					"components": [
						{
							"internalType": "uint256",
							"name": "value",
							"type": "uint256"
						},
						{
							"internalType": "uint8",
							"name": "decimals",
							"type": "uint8"
						}
					],
					"internalType": "struct FixedPointValue",
					"name": "",
					"type": "tuple"
				}
			],
			"stateMutability": "pure",
			"type": "function"
		}
	]
}