{
	"code/contract/sol/native/facet/AuthFacet.sol": {
		"AuthFacet": {
			"abi": [
				{
					"anonymous": false,
					"inputs": [
						{
							"indexed": false,
							"internalType": "string",
							"name": "role",
							"type": "string"
						},
						{
							"indexed": false,
							"internalType": "address",
							"name": "account",
							"type": "address"
						}
					],
					"name": "GrantedRole",
					"type": "event"
				},
				{
					"inputs": [],
					"name": "claim",
					"outputs": [
						{
							"internalType": "bool",
							"name": "",
							"type": "bool"
						}
					],
					"stateMutability": "nonpayable",
					"type": "function"
				},
				{
					"inputs": [
						{
							"internalType": "string",
							"name": "role",
							"type": "string"
						},
						{
							"internalType": "address",
							"name": "account",
							"type": "address"
						}
					],
					"name": "isMemberOf",
					"outputs": [
						{
							"internalType": "bool",
							"name": "",
							"type": "bool"
						}
					],
					"stateMutability": "view",
					"type": "function"
				},
				{
					"inputs": [
						{
							"internalType": "string",
							"name": "role",
							"type": "string"
						}
					],
					"name": "membersLengthOf",
					"outputs": [
						{
							"internalType": "uint256",
							"name": "",
							"type": "uint256"
						}
					],
					"stateMutability": "view",
					"type": "function"
				},
				{
					"inputs": [
						{
							"internalType": "string",
							"name": "role",
							"type": "string"
						}
					],
					"name": "membersOf",
					"outputs": [
						{
							"internalType": "address[]",
							"name": "",
							"type": "address[]"
						}
					],
					"stateMutability": "view",
					"type": "function"
				}
			],
			"devdoc": {
				"kind": "dev",
				"methods": {},
				"version": 1
			},
			"evm": {
				"assembly": "    /* \"code/contract/sol/native/facet/AuthFacet.sol\":100:701  contract AuthFacet is AuthStorage {... */\n  mstore(0x40, 0x80)\n  callvalue\n  dup1\n  iszero\n  tag_1\n  jumpi\n  0x00\n  dup1\n  revert\ntag_1:\n  pop\n  dataSize(sub_0)\n  dup1\n  dataOffset(sub_0)\n  0x00\n  codecopy\n  0x00\n  return\nstop\n\nsub_0: assembly {\n        /* \"code/contract/sol/native/facet/AuthFacet.sol\":100:701  contract AuthFacet is AuthStorage {... */\n      mstore(0x40, 0x80)\n      callvalue\n      dup1\n      iszero\n      tag_1\n      jumpi\n      0x00\n      dup1\n      revert\n    tag_1:\n      pop\n      jumpi(tag_2, lt(calldatasize, 0x04))\n      shr(0xe0, calldataload(0x00))\n      dup1\n      0x2081ac80\n      eq\n      tag_3\n      jumpi\n      dup1\n      0x4e71d92d\n      eq\n      tag_4\n      jumpi\n      dup1\n      0x5e6fced7\n      eq\n      tag_5\n      jumpi\n      dup1\n      0xc8271a88\n      eq\n      tag_6\n      jumpi\n    tag_2:\n      0x00\n      dup1\n      revert\n        /* \"code/contract/sol/native/facet/AuthFacet.sol\":458:600  function isMemberOf(string memory role, address account) external view returns (bool) {... */\n    tag_3:\n      tag_7\n      0x04\n      dup1\n      calldatasize\n      sub\n      dup2\n      add\n      swap1\n      tag_8\n      swap2\n      swap1\n      tag_9\n      jump\t// in\n    tag_8:\n      tag_10\n      jump\t// in\n    tag_7:\n      mload(0x40)\n      tag_11\n      swap2\n      swap1\n      tag_12\n      jump\t// in\n    tag_11:\n      mload(0x40)\n      dup1\n      swap2\n      sub\n      swap1\n      return\n        /* \"code/contract/sol/native/facet/AuthFacet.sol\":606:699  function claim() external returns (bool) {... */\n    tag_4:\n      tag_13\n      tag_14\n      jump\t// in\n    tag_13:\n      mload(0x40)\n      tag_15\n      swap2\n      swap1\n      tag_12\n      jump\t// in\n    tag_15:\n      mload(0x40)\n      dup1\n      swap2\n      sub\n      swap1\n      return\n        /* \"code/contract/sol/native/facet/AuthFacet.sol\":323:452  function membersLengthOf(string memory role) external view returns (uint256) {... */\n    tag_5:\n      tag_16\n      0x04\n      dup1\n      calldatasize\n      sub\n      dup2\n      add\n      swap1\n      tag_17\n      swap2\n      swap1\n      tag_18\n      jump\t// in\n    tag_17:\n      tag_19\n      jump\t// in\n    tag_16:\n      mload(0x40)\n      tag_20\n      swap2\n      swap1\n      tag_21\n      jump\t// in\n    tag_20:\n      mload(0x40)\n      dup1\n      swap2\n      sub\n      swap1\n      return\n        /* \"code/contract/sol/native/facet/AuthFacet.sol\":191:317  function membersOf(string memory role) external view returns (address[] memory) {... */\n    tag_6:\n      tag_22\n      0x04\n      dup1\n      calldatasize\n      sub\n      dup2\n      add\n      swap1\n      tag_23\n      swap2\n      swap1\n      tag_18\n      jump\t// in\n    tag_23:\n      tag_24\n      jump\t// in\n    tag_22:\n      mload(0x40)\n      tag_25\n      swap2\n      swap1\n      tag_26\n      jump\t// in\n    tag_25:\n      mload(0x40)\n      dup1\n      swap2\n      sub\n      swap1\n      return\n        /* \"code/contract/sol/native/facet/AuthFacet.sol\":458:600  function isMemberOf(string memory role, address account) external view returns (bool) {... */\n    tag_10:\n        /* \"code/contract/sol/native/facet/AuthFacet.sol\":538:542  bool */\n      0x00\n        /* \"code/contract/sol/native/facet/AuthFacet.sol\":561:593  auth().isMemberOf(role, account) */\n      tag_28\n        /* \"code/contract/sol/native/facet/AuthFacet.sol\":579:583  role */\n      dup4\n        /* \"code/contract/sol/native/facet/AuthFacet.sol\":585:592  account */\n      dup4\n        /* \"code/contract/sol/native/facet/AuthFacet.sol\":561:567  auth() */\n      tag_29\n        /* \"code/contract/sol/native/facet/AuthFacet.sol\":561:565  auth */\n      tag_30\n        /* \"code/contract/sol/native/facet/AuthFacet.sol\":561:567  auth() */\n      jump\t// in\n    tag_29:\n        /* \"code/contract/sol/native/facet/AuthFacet.sol\":561:578  auth().isMemberOf */\n      tag_31\n      swap1\n        /* \"code/contract/sol/native/facet/AuthFacet.sol\":561:593  auth().isMemberOf(role, account) */\n      swap3\n      swap2\n      swap1\n      0xffffffff\n      and\n      jump\t// in\n    tag_28:\n        /* \"code/contract/sol/native/facet/AuthFacet.sol\":554:593  return auth().isMemberOf(role, account) */\n      swap1\n      pop\n        /* \"code/contract/sol/native/facet/AuthFacet.sol\":458:600  function isMemberOf(string memory role, address account) external view returns (bool) {... */\n      swap3\n      swap2\n      pop\n      pop\n      jump\t// out\n        /* \"code/contract/sol/native/facet/AuthFacet.sol\":606:699  function claim() external returns (bool) {... */\n    tag_14:\n        /* \"code/contract/sol/native/facet/AuthFacet.sol\":641:645  bool */\n      0x00\n        /* \"code/contract/sol/native/facet/AuthFacet.sol\":657:671  auth().claim() */\n      tag_33\n        /* \"code/contract/sol/native/facet/AuthFacet.sol\":657:663  auth() */\n      tag_34\n        /* \"code/contract/sol/native/facet/AuthFacet.sol\":657:661  auth */\n      tag_30\n        /* \"code/contract/sol/native/facet/AuthFacet.sol\":657:663  auth() */\n      jump\t// in\n    tag_34:\n        /* \"code/contract/sol/native/facet/AuthFacet.sol\":657:669  auth().claim */\n      tag_35\n        /* \"code/contract/sol/native/facet/AuthFacet.sol\":657:671  auth().claim() */\n      jump\t// in\n    tag_33:\n      pop\n        /* \"code/contract/sol/native/facet/AuthFacet.sol\":688:692  true */\n      0x01\n        /* \"code/contract/sol/native/facet/AuthFacet.sol\":681:692  return true */\n      swap1\n      pop\n        /* \"code/contract/sol/native/facet/AuthFacet.sol\":606:699  function claim() external returns (bool) {... */\n      swap1\n      jump\t// out\n        /* \"code/contract/sol/native/facet/AuthFacet.sol\":323:452  function membersLengthOf(string memory role) external view returns (uint256) {... */\n    tag_19:\n        /* \"code/contract/sol/native/facet/AuthFacet.sol\":391:398  uint256 */\n      0x00\n        /* \"code/contract/sol/native/facet/AuthFacet.sol\":417:445  auth().membersLengthOf(role) */\n      tag_37\n        /* \"code/contract/sol/native/facet/AuthFacet.sol\":440:444  role */\n      dup3\n        /* \"code/contract/sol/native/facet/AuthFacet.sol\":417:423  auth() */\n      tag_38\n        /* \"code/contract/sol/native/facet/AuthFacet.sol\":417:421  auth */\n      tag_30\n        /* \"code/contract/sol/native/facet/AuthFacet.sol\":417:423  auth() */\n      jump\t// in\n    tag_38:\n        /* \"code/contract/sol/native/facet/AuthFacet.sol\":417:439  auth().membersLengthOf */\n      tag_39\n      swap1\n        /* \"code/contract/sol/native/facet/AuthFacet.sol\":417:445  auth().membersLengthOf(role) */\n      swap2\n      swap1\n      0xffffffff\n      and\n      jump\t// in\n    tag_37:\n        /* \"code/contract/sol/native/facet/AuthFacet.sol\":410:445  return auth().membersLengthOf(role) */\n      swap1\n      pop\n        /* \"code/contract/sol/native/facet/AuthFacet.sol\":323:452  function membersLengthOf(string memory role) external view returns (uint256) {... */\n      swap2\n      swap1\n      pop\n      jump\t// out\n        /* \"code/contract/sol/native/facet/AuthFacet.sol\":191:317  function membersOf(string memory role) external view returns (address[] memory) {... */\n    tag_24:\n        /* \"code/contract/sol/native/facet/AuthFacet.sol\":253:269  address[] memory */\n      0x60\n        /* \"code/contract/sol/native/facet/AuthFacet.sol\":288:310  auth().membersOf(role) */\n      tag_41\n        /* \"code/contract/sol/native/facet/AuthFacet.sol\":305:309  role */\n      dup3\n        /* \"code/contract/sol/native/facet/AuthFacet.sol\":288:294  auth() */\n      tag_42\n        /* \"code/contract/sol/native/facet/AuthFacet.sol\":288:292  auth */\n      tag_30\n        /* \"code/contract/sol/native/facet/AuthFacet.sol\":288:294  auth() */\n      jump\t// in\n    tag_42:\n        /* \"code/contract/sol/native/facet/AuthFacet.sol\":288:304  auth().membersOf */\n      tag_43\n      swap1\n        /* \"code/contract/sol/native/facet/AuthFacet.sol\":288:310  auth().membersOf(role) */\n      swap2\n      swap1\n      0xffffffff\n      and\n      jump\t// in\n    tag_41:\n        /* \"code/contract/sol/native/facet/AuthFacet.sol\":281:310  return auth().membersOf(role) */\n      swap1\n      pop\n        /* \"code/contract/sol/native/facet/AuthFacet.sol\":191:317  function membersOf(string memory role) external view returns (address[] memory) {... */\n      swap2\n      swap1\n      pop\n      jump\t// out\n        /* \"code/contract/sol/native/storage/auth/AuthStorage.sol\":2762:2924  function auth() internal pure returns (AuthStorageLib.Auth storage sl) {... */\n    tag_30:\n        /* \"code/contract/sol/native/storage/auth/AuthStorage.sol\":2801:2831  AuthStorageLib.Auth storage sl */\n      0x00\n        /* \"code/contract/sol/native/storage/auth/AuthStorage.sol\":2843:2854  bytes32 loc */\n      dup1\n        /* \"code/contract/sol/native/storage/auth/AuthStorage.sol\":2753:2754  1 */\n      0x01\n        /* \"code/contract/sol/native/storage/auth/AuthStorage.sol\":2724:2749  keccak256(\"eip1967.auth\") */\n      0x43ade7009d4d0d9029c7d898feccf8aa5851482f139fb4b86f5fad8ca6326291\n        /* \"code/contract/sol/native/storage/auth/AuthStorage.sol\":2716:2750  uint256(keccak256(\"eip1967.auth\")) */\n      0x00\n      shr\n        /* \"code/contract/sol/native/storage/auth/AuthStorage.sol\":2716:2754  uint256(keccak256(\"eip1967.auth\")) - 1 */\n      tag_45\n      swap2\n      swap1\n      tag_46\n      jump\t// in\n    tag_45:\n        /* \"code/contract/sol/native/storage/auth/AuthStorage.sol\":2708:2755  bytes32(uint256(keccak256(\"eip1967.auth\")) - 1) */\n      0x00\n      shl\n        /* \"code/contract/sol/native/storage/auth/AuthStorage.sol\":2843:2861  bytes32 loc = AUTH */\n      swap1\n      pop\n        /* \"code/contract/sol/native/storage/auth/AuthStorage.sol\":2905:2908  loc */\n      dup1\n        /* \"code/contract/sol/native/storage/auth/AuthStorage.sol\":2894:2908  sl.slot := loc */\n      swap2\n      pop\n        /* \"code/contract/sol/native/storage/auth/AuthStorage.sol\":2880:2918  {... */\n      pop\n        /* \"code/contract/sol/native/storage/auth/AuthStorage.sol\":2762:2924  function auth() internal pure returns (AuthStorageLib.Auth storage sl) {... */\n      swap1\n      jump\t// out\n        /* \"code/contract/sol/native/storage/auth/AuthStorage.sol\":844:1016  function isMemberOf(Auth storage auth, string memory role, address account) internal view returns (bool) {... */\n    tag_31:\n        /* \"code/contract/sol/native/storage/auth/AuthStorage.sol\":943:947  bool */\n      0x00\n        /* \"code/contract/sol/native/storage/auth/AuthStorage.sol\":966:1009  auth.hidden.members[role].contains(account) */\n      tag_48\n        /* \"code/contract/sol/native/storage/auth/AuthStorage.sol\":1001:1008  account */\n      dup3\n        /* \"code/contract/sol/native/storage/auth/AuthStorage.sol\":966:970  auth */\n      dup6\n        /* \"code/contract/sol/native/storage/auth/AuthStorage.sol\":966:977  auth.hidden */\n      0x00\n      add\n        /* \"code/contract/sol/native/storage/auth/AuthStorage.sol\":966:985  auth.hidden.members */\n      0x00\n      add\n        /* \"code/contract/sol/native/storage/auth/AuthStorage.sol\":986:990  role */\n      dup6\n        /* \"code/contract/sol/native/storage/auth/AuthStorage.sol\":966:991  auth.hidden.members[role] */\n      mload(0x40)\n      tag_49\n      swap2\n      swap1\n      tag_50\n      jump\t// in\n    tag_49:\n      swap1\n      dup2\n      mstore\n      0x20\n      add\n      mload(0x40)\n      dup1\n      swap2\n      sub\n      swap1\n      keccak256\n        /* \"code/contract/sol/native/storage/auth/AuthStorage.sol\":966:1000  auth.hidden.members[role].contains */\n      tag_51\n      swap1\n        /* \"code/contract/sol/native/storage/auth/AuthStorage.sol\":966:1009  auth.hidden.members[role].contains(account) */\n      swap2\n      swap1\n      0xffffffff\n      and\n      jump\t// in\n    tag_48:\n        /* \"code/contract/sol/native/storage/auth/AuthStorage.sol\":959:1009  return auth.hidden.members[role].contains(account) */\n      swap1\n      pop\n        /* \"code/contract/sol/native/storage/auth/AuthStorage.sol\":844:1016  function isMemberOf(Auth storage auth, string memory role, address account) internal view returns (bool) {... */\n      swap4\n      swap3\n      pop\n      pop\n      pop\n      jump\t// out\n        /* \"code/contract/sol/native/storage/auth/AuthStorage.sol\":1964:2232  function claim(Auth storage auth) internal returns (Auth storage) {... */\n    tag_35:\n        /* \"code/contract/sol/native/storage/auth/AuthStorage.sol\":2016:2028  Auth storage */\n      0x00\n        /* \"code/contract/sol/native/storage/auth/AuthStorage.sol\":2078:2079  0 */\n      dup1\n        /* \"code/contract/sol/native/storage/auth/AuthStorage.sol\":2048:2074  membersLengthOf(auth, \"*\") */\n      tag_53\n        /* \"code/contract/sol/native/storage/auth/AuthStorage.sol\":2064:2068  auth */\n      dup4\n        /* \"code/contract/sol/native/storage/auth/AuthStorage.sol\":2048:2074  membersLengthOf(auth, \"*\") */\n      mload(0x40)\n      dup1\n      0x40\n      add\n      0x40\n      mstore\n      dup1\n      0x01\n      dup2\n      mstore\n      0x20\n      add\n      0x2a00000000000000000000000000000000000000000000000000000000000000\n      dup2\n      mstore\n      pop\n        /* \"code/contract/sol/native/storage/auth/AuthStorage.sol\":2048:2063  membersLengthOf */\n      tag_39\n        /* \"code/contract/sol/native/storage/auth/AuthStorage.sol\":2048:2074  membersLengthOf(auth, \"*\") */\n      jump\t// in\n    tag_53:\n        /* \"code/contract/sol/native/storage/auth/AuthStorage.sol\":2048:2079  membersLengthOf(auth, \"*\") == 0 */\n      eq\n        /* \"code/contract/sol/native/storage/auth/AuthStorage.sol\":2040:2160  require(membersLengthOf(auth, \"*\") == 0, \"AuthStorageLibrary: cannot only grant the '*' role when there are no members\") */\n      tag_54\n      jumpi\n      mload(0x40)\n      0x08c379a000000000000000000000000000000000000000000000000000000000\n      dup2\n      mstore\n      0x04\n      add\n      tag_55\n      swap1\n      tag_56\n      jump\t// in\n    tag_55:\n      mload(0x40)\n      dup1\n      swap2\n      sub\n      swap1\n      revert\n    tag_54:\n        /* \"code/contract/sol/native/storage/auth/AuthStorage.sol\":2170:2204  grantRoleTo(auth, \"*\", msg.sender) */\n      tag_57\n        /* \"code/contract/sol/native/storage/auth/AuthStorage.sol\":2182:2186  auth */\n      dup3\n        /* \"code/contract/sol/native/storage/auth/AuthStorage.sol\":2170:2204  grantRoleTo(auth, \"*\", msg.sender) */\n      mload(0x40)\n      dup1\n      0x40\n      add\n      0x40\n      mstore\n      dup1\n      0x01\n      dup2\n      mstore\n      0x20\n      add\n      0x2a00000000000000000000000000000000000000000000000000000000000000\n      dup2\n      mstore\n      pop\n        /* \"code/contract/sol/native/storage/auth/AuthStorage.sol\":2193:2203  msg.sender */\n      caller\n        /* \"code/contract/sol/native/storage/auth/AuthStorage.sol\":2170:2181  grantRoleTo */\n      tag_58\n        /* \"code/contract/sol/native/storage/auth/AuthStorage.sol\":2170:2204  grantRoleTo(auth, \"*\", msg.sender) */\n      jump\t// in\n    tag_57:\n      pop\n        /* \"code/contract/sol/native/storage/auth/AuthStorage.sol\":2221:2225  auth */\n      dup2\n        /* \"code/contract/sol/native/storage/auth/AuthStorage.sol\":2214:2225  return auth */\n      swap1\n      pop\n        /* \"code/contract/sol/native/storage/auth/AuthStorage.sol\":1964:2232  function claim(Auth storage auth) internal returns (Auth storage) {... */\n      swap2\n      swap1\n      pop\n      jump\t// out\n        /* \"code/contract/sol/native/storage/auth/AuthStorage.sol\":684:838  function membersLengthOf(Auth storage auth, string memory role) internal view returns (uint256) {... */\n    tag_39:\n        /* \"code/contract/sol/native/storage/auth/AuthStorage.sol\":771:778  uint256 */\n      0x00\n        /* \"code/contract/sol/native/storage/auth/AuthStorage.sol\":797:831  auth.hidden.members[role].length() */\n      tag_60\n        /* \"code/contract/sol/native/storage/auth/AuthStorage.sol\":797:801  auth */\n      dup4\n        /* \"code/contract/sol/native/storage/auth/AuthStorage.sol\":797:808  auth.hidden */\n      0x00\n      add\n        /* \"code/contract/sol/native/storage/auth/AuthStorage.sol\":797:816  auth.hidden.members */\n      0x00\n      add\n        /* \"code/contract/sol/native/storage/auth/AuthStorage.sol\":817:821  role */\n      dup4\n        /* \"code/contract/sol/native/storage/auth/AuthStorage.sol\":797:822  auth.hidden.members[role] */\n      mload(0x40)\n      tag_61\n      swap2\n      swap1\n      tag_50\n      jump\t// in\n    tag_61:\n      swap1\n      dup2\n      mstore\n      0x20\n      add\n      mload(0x40)\n      dup1\n      swap2\n      sub\n      swap1\n      keccak256\n        /* \"code/contract/sol/native/storage/auth/AuthStorage.sol\":797:829  auth.hidden.members[role].length */\n      tag_62\n        /* \"code/contract/sol/native/storage/auth/AuthStorage.sol\":797:831  auth.hidden.members[role].length() */\n      jump\t// in\n    tag_60:\n        /* \"code/contract/sol/native/storage/auth/AuthStorage.sol\":790:831  return auth.hidden.members[role].length() */\n      swap1\n      pop\n        /* \"code/contract/sol/native/storage/auth/AuthStorage.sol\":684:838  function membersLengthOf(Auth storage auth, string memory role) internal view returns (uint256) {... */\n      swap3\n      swap2\n      pop\n      pop\n      jump\t// out\n        /* \"code/contract/sol/native/storage/auth/AuthStorage.sol\":521:678  function membersOf(Auth storage auth, string memory role) internal view returns (address[] memory) {... */\n    tag_43:\n        /* \"code/contract/sol/native/storage/auth/AuthStorage.sol\":602:618  address[] memory */\n      0x60\n        /* \"code/contract/sol/native/storage/auth/AuthStorage.sol\":637:671  auth.hidden.members[role].values() */\n      tag_64\n        /* \"code/contract/sol/native/storage/auth/AuthStorage.sol\":637:641  auth */\n      dup4\n        /* \"code/contract/sol/native/storage/auth/AuthStorage.sol\":637:648  auth.hidden */\n      0x00\n      add\n        /* \"code/contract/sol/native/storage/auth/AuthStorage.sol\":637:656  auth.hidden.members */\n      0x00\n      add\n        /* \"code/contract/sol/native/storage/auth/AuthStorage.sol\":657:661  role */\n      dup4\n        /* \"code/contract/sol/native/storage/auth/AuthStorage.sol\":637:662  auth.hidden.members[role] */\n      mload(0x40)\n      tag_65\n      swap2\n      swap1\n      tag_50\n      jump\t// in\n    tag_65:\n      swap1\n      dup2\n      mstore\n      0x20\n      add\n      mload(0x40)\n      dup1\n      swap2\n      sub\n      swap1\n      keccak256\n        /* \"code/contract/sol/native/storage/auth/AuthStorage.sol\":637:669  auth.hidden.members[role].values */\n      tag_66\n        /* \"code/contract/sol/native/storage/auth/AuthStorage.sol\":637:671  auth.hidden.members[role].values() */\n      jump\t// in\n    tag_64:\n        /* \"code/contract/sol/native/storage/auth/AuthStorage.sol\":630:671  return auth.hidden.members[role].values() */\n      swap1\n      pop\n        /* \"code/contract/sol/native/storage/auth/AuthStorage.sol\":521:678  function membersOf(Auth storage auth, string memory role) internal view returns (address[] memory) {... */\n      swap3\n      swap2\n      pop\n      pop\n      jump\t// out\n        /* \"code/contract/sol/non-native/openzeppelin/utils/structs/EnumerableSet.sol\":8861:9026  function contains(AddressSet storage set, address value) internal view returns (bool) {... */\n    tag_51:\n        /* \"code/contract/sol/non-native/openzeppelin/utils/structs/EnumerableSet.sol\":8941:8945  bool */\n      0x00\n        /* \"code/contract/sol/non-native/openzeppelin/utils/structs/EnumerableSet.sol\":8964:9019  _contains(set._inner, bytes32(uint256(uint160(value)))) */\n      tag_68\n        /* \"code/contract/sol/non-native/openzeppelin/utils/structs/EnumerableSet.sol\":8974:8977  set */\n      dup4\n        /* \"code/contract/sol/non-native/openzeppelin/utils/structs/EnumerableSet.sol\":8974:8984  set._inner */\n      0x00\n      add\n        /* \"code/contract/sol/non-native/openzeppelin/utils/structs/EnumerableSet.sol\":9010:9015  value */\n      dup4\n        /* \"code/contract/sol/non-native/openzeppelin/utils/structs/EnumerableSet.sol\":8994:9017  uint256(uint160(value)) */\n      0xffffffffffffffffffffffffffffffffffffffff\n      and\n        /* \"code/contract/sol/non-native/openzeppelin/utils/structs/EnumerableSet.sol\":8986:9018  bytes32(uint256(uint160(value))) */\n      0x00\n      shl\n        /* \"code/contract/sol/non-native/openzeppelin/utils/structs/EnumerableSet.sol\":8964:8973  _contains */\n      tag_69\n        /* \"code/contract/sol/non-native/openzeppelin/utils/structs/EnumerableSet.sol\":8964:9019  _contains(set._inner, bytes32(uint256(uint160(value)))) */\n      jump\t// in\n    tag_68:\n        /* \"code/contract/sol/non-native/openzeppelin/utils/structs/EnumerableSet.sol\":8957:9019  return _contains(set._inner, bytes32(uint256(uint160(value)))) */\n      swap1\n      pop\n        /* \"code/contract/sol/non-native/openzeppelin/utils/structs/EnumerableSet.sol\":8861:9026  function contains(AddressSet storage set, address value) internal view returns (bool) {... */\n      swap3\n      swap2\n      pop\n      pop\n      jump\t// out\n        /* \"code/contract/sol/native/storage/auth/AuthStorage.sol\":1174:1400  function grantRoleTo(Auth storage auth, string memory role, address account) internal returns (Auth storage) {... */\n    tag_58:\n        /* \"code/contract/sol/native/storage/auth/AuthStorage.sol\":1269:1281  Auth storage */\n      0x00\n        /* \"code/contract/sol/native/storage/auth/AuthStorage.sol\":1293:1331  auth.hidden.members[role].add(account) */\n      tag_71\n        /* \"code/contract/sol/native/storage/auth/AuthStorage.sol\":1323:1330  account */\n      dup3\n        /* \"code/contract/sol/native/storage/auth/AuthStorage.sol\":1293:1297  auth */\n      dup6\n        /* \"code/contract/sol/native/storage/auth/AuthStorage.sol\":1293:1304  auth.hidden */\n      0x00\n      add\n        /* \"code/contract/sol/native/storage/auth/AuthStorage.sol\":1293:1312  auth.hidden.members */\n      0x00\n      add\n        /* \"code/contract/sol/native/storage/auth/AuthStorage.sol\":1313:1317  role */\n      dup6\n        /* \"code/contract/sol/native/storage/auth/AuthStorage.sol\":1293:1318  auth.hidden.members[role] */\n      mload(0x40)\n      tag_72\n      swap2\n      swap1\n      tag_50\n      jump\t// in\n    tag_72:\n      swap1\n      dup2\n      mstore\n      0x20\n      add\n      mload(0x40)\n      dup1\n      swap2\n      sub\n      swap1\n      keccak256\n        /* \"code/contract/sol/native/storage/auth/AuthStorage.sol\":1293:1322  auth.hidden.members[role].add */\n      tag_73\n      swap1\n        /* \"code/contract/sol/native/storage/auth/AuthStorage.sol\":1293:1331  auth.hidden.members[role].add(account) */\n      swap2\n      swap1\n      0xffffffff\n      and\n      jump\t// in\n    tag_71:\n      pop\n        /* \"code/contract/sol/native/storage/auth/AuthStorage.sol\":1346:1372  GrantedRole(role, account) */\n      0x426257855659ac73f28deaf0574d8b1de5afe800ef2886221a2c5a9325c01c52\n        /* \"code/contract/sol/native/storage/auth/AuthStorage.sol\":1358:1362  role */\n      dup4\n        /* \"code/contract/sol/native/storage/auth/AuthStorage.sol\":1364:1371  account */\n      dup4\n        /* \"code/contract/sol/native/storage/auth/AuthStorage.sol\":1346:1372  GrantedRole(role, account) */\n      mload(0x40)\n      tag_74\n      swap3\n      swap2\n      swap1\n      tag_75\n      jump\t// in\n    tag_74:\n      mload(0x40)\n      dup1\n      swap2\n      sub\n      swap1\n      log1\n        /* \"code/contract/sol/native/storage/auth/AuthStorage.sol\":1389:1393  auth */\n      dup4\n        /* \"code/contract/sol/native/storage/auth/AuthStorage.sol\":1382:1393  return auth */\n      swap1\n      pop\n        /* \"code/contract/sol/native/storage/auth/AuthStorage.sol\":1174:1400  function grantRoleTo(Auth storage auth, string memory role, address account) internal returns (Auth storage) {... */\n      swap4\n      swap3\n      pop\n      pop\n      pop\n      jump\t// out\n        /* \"code/contract/sol/non-native/openzeppelin/utils/structs/EnumerableSet.sol\":9107:9222  function length(AddressSet storage set) internal view returns (uint256) {... */\n    tag_62:\n        /* \"code/contract/sol/non-native/openzeppelin/utils/structs/EnumerableSet.sol\":9170:9177  uint256 */\n      0x00\n        /* \"code/contract/sol/non-native/openzeppelin/utils/structs/EnumerableSet.sol\":9196:9215  _length(set._inner) */\n      tag_77\n        /* \"code/contract/sol/non-native/openzeppelin/utils/structs/EnumerableSet.sol\":9204:9207  set */\n      dup3\n        /* \"code/contract/sol/non-native/openzeppelin/utils/structs/EnumerableSet.sol\":9204:9214  set._inner */\n      0x00\n      add\n        /* \"code/contract/sol/non-native/openzeppelin/utils/structs/EnumerableSet.sol\":9196:9203  _length */\n      tag_78\n        /* \"code/contract/sol/non-native/openzeppelin/utils/structs/EnumerableSet.sol\":9196:9215  _length(set._inner) */\n      jump\t// in\n    tag_77:\n        /* \"code/contract/sol/non-native/openzeppelin/utils/structs/EnumerableSet.sol\":9189:9215  return _length(set._inner) */\n      swap1\n      pop\n        /* \"code/contract/sol/non-native/openzeppelin/utils/structs/EnumerableSet.sol\":9107:9222  function length(AddressSet storage set) internal view returns (uint256) {... */\n      swap2\n      swap1\n      pop\n      jump\t// out\n        /* \"code/contract/sol/non-native/openzeppelin/utils/structs/EnumerableSet.sol\":10260:10560  function values(AddressSet storage set) internal view returns (address[] memory) {... */\n    tag_66:\n        /* \"code/contract/sol/non-native/openzeppelin/utils/structs/EnumerableSet.sol\":10323:10339  address[] memory */\n      0x60\n        /* \"code/contract/sol/non-native/openzeppelin/utils/structs/EnumerableSet.sol\":10351:10373  bytes32[] memory store */\n      0x00\n        /* \"code/contract/sol/non-native/openzeppelin/utils/structs/EnumerableSet.sol\":10376:10395  _values(set._inner) */\n      tag_80\n        /* \"code/contract/sol/non-native/openzeppelin/utils/structs/EnumerableSet.sol\":10384:10387  set */\n      dup4\n        /* \"code/contract/sol/non-native/openzeppelin/utils/structs/EnumerableSet.sol\":10384:10394  set._inner */\n      0x00\n      add\n        /* \"code/contract/sol/non-native/openzeppelin/utils/structs/EnumerableSet.sol\":10376:10383  _values */\n      tag_81\n        /* \"code/contract/sol/non-native/openzeppelin/utils/structs/EnumerableSet.sol\":10376:10395  _values(set._inner) */\n      jump\t// in\n    tag_80:\n        /* \"code/contract/sol/non-native/openzeppelin/utils/structs/EnumerableSet.sol\":10351:10395  bytes32[] memory store = _values(set._inner) */\n      swap1\n      pop\n        /* \"code/contract/sol/non-native/openzeppelin/utils/structs/EnumerableSet.sol\":10405:10428  address[] memory result */\n      0x60\n        /* \"code/contract/sol/non-native/openzeppelin/utils/structs/EnumerableSet.sol\":10515:10520  store */\n      dup2\n        /* \"code/contract/sol/non-native/openzeppelin/utils/structs/EnumerableSet.sol\":10505:10520  result := store */\n      swap1\n      pop\n        /* \"code/contract/sol/non-native/openzeppelin/utils/structs/EnumerableSet.sol\":10547:10553  result */\n      dup1\n        /* \"code/contract/sol/non-native/openzeppelin/utils/structs/EnumerableSet.sol\":10540:10553  return result */\n      swap3\n      pop\n      pop\n      pop\n        /* \"code/contract/sol/non-native/openzeppelin/utils/structs/EnumerableSet.sol\":10260:10560  function values(AddressSet storage set) internal view returns (address[] memory) {... */\n      swap2\n      swap1\n      pop\n      jump\t// out\n        /* \"code/contract/sol/non-native/openzeppelin/utils/structs/EnumerableSet.sol\":4256:4383  function _contains(Set storage set, bytes32 value) private view returns (bool) {... */\n    tag_69:\n        /* \"code/contract/sol/non-native/openzeppelin/utils/structs/EnumerableSet.sol\":4329:4333  bool */\n      0x00\n        /* \"code/contract/sol/non-native/openzeppelin/utils/structs/EnumerableSet.sol\":4375:4376  0 */\n      dup1\n        /* \"code/contract/sol/non-native/openzeppelin/utils/structs/EnumerableSet.sol\":4352:4355  set */\n      dup4\n        /* \"code/contract/sol/non-native/openzeppelin/utils/structs/EnumerableSet.sol\":4352:4364  set._indexes */\n      0x01\n      add\n        /* \"code/contract/sol/non-native/openzeppelin/utils/structs/EnumerableSet.sol\":4352:4371  set._indexes[value] */\n      0x00\n        /* \"code/contract/sol/non-native/openzeppelin/utils/structs/EnumerableSet.sol\":4365:4370  value */\n      dup5\n        /* \"code/contract/sol/non-native/openzeppelin/utils/structs/EnumerableSet.sol\":4352:4371  set._indexes[value] */\n      dup2\n      mstore\n      0x20\n      add\n      swap1\n      dup2\n      mstore\n      0x20\n      add\n      0x00\n      keccak256\n      sload\n        /* \"code/contract/sol/non-native/openzeppelin/utils/structs/EnumerableSet.sol\":4352:4376  set._indexes[value] != 0 */\n      eq\n      iszero\n        /* \"code/contract/sol/non-native/openzeppelin/utils/structs/EnumerableSet.sol\":4345:4376  return set._indexes[value] != 0 */\n      swap1\n      pop\n        /* \"code/contract/sol/non-native/openzeppelin/utils/structs/EnumerableSet.sol\":4256:4383  function _contains(Set storage set, bytes32 value) private view returns (bool) {... */\n      swap3\n      swap2\n      pop\n      pop\n      jump\t// out\n        /* \"code/contract/sol/non-native/openzeppelin/utils/structs/EnumerableSet.sol\":8306:8456  function add(AddressSet storage set, address value) internal returns (bool) {... */\n    tag_73:\n        /* \"code/contract/sol/non-native/openzeppelin/utils/structs/EnumerableSet.sol\":8376:8380  bool */\n      0x00\n        /* \"code/contract/sol/non-native/openzeppelin/utils/structs/EnumerableSet.sol\":8399:8449  _add(set._inner, bytes32(uint256(uint160(value)))) */\n      tag_84\n        /* \"code/contract/sol/non-native/openzeppelin/utils/structs/EnumerableSet.sol\":8404:8407  set */\n      dup4\n        /* \"code/contract/sol/non-native/openzeppelin/utils/structs/EnumerableSet.sol\":8404:8414  set._inner */\n      0x00\n      add\n        /* \"code/contract/sol/non-native/openzeppelin/utils/structs/EnumerableSet.sol\":8440:8445  value */\n      dup4\n        /* \"code/contract/sol/non-native/openzeppelin/utils/structs/EnumerableSet.sol\":8424:8447  uint256(uint160(value)) */\n      0xffffffffffffffffffffffffffffffffffffffff\n      and\n        /* \"code/contract/sol/non-native/openzeppelin/utils/structs/EnumerableSet.sol\":8416:8448  bytes32(uint256(uint160(value))) */\n      0x00\n      shl\n        /* \"code/contract/sol/non-native/openzeppelin/utils/structs/EnumerableSet.sol\":8399:8403  _add */\n      tag_85\n        /* \"code/contract/sol/non-native/openzeppelin/utils/structs/EnumerableSet.sol\":8399:8449  _add(set._inner, bytes32(uint256(uint160(value)))) */\n      jump\t// in\n    tag_84:\n        /* \"code/contract/sol/non-native/openzeppelin/utils/structs/EnumerableSet.sol\":8392:8449  return _add(set._inner, bytes32(uint256(uint160(value)))) */\n      swap1\n      pop\n        /* \"code/contract/sol/non-native/openzeppelin/utils/structs/EnumerableSet.sol\":8306:8456  function add(AddressSet storage set, address value) internal returns (bool) {... */\n      swap3\n      swap2\n      pop\n      pop\n      jump\t// out\n        /* \"code/contract/sol/non-native/openzeppelin/utils/structs/EnumerableSet.sol\":4464:4571  function _length(Set storage set) private view returns (uint256) {... */\n    tag_78:\n        /* \"code/contract/sol/non-native/openzeppelin/utils/structs/EnumerableSet.sol\":4520:4527  uint256 */\n      0x00\n        /* \"code/contract/sol/non-native/openzeppelin/utils/structs/EnumerableSet.sol\":4546:4549  set */\n      dup2\n        /* \"code/contract/sol/non-native/openzeppelin/utils/structs/EnumerableSet.sol\":4546:4557  set._values */\n      0x00\n      add\n        /* \"code/contract/sol/non-native/openzeppelin/utils/structs/EnumerableSet.sol\":4546:4564  set._values.length */\n      dup1\n      sload\n      swap1\n      pop\n        /* \"code/contract/sol/non-native/openzeppelin/utils/structs/EnumerableSet.sol\":4539:4564  return set._values.length */\n      swap1\n      pop\n        /* \"code/contract/sol/non-native/openzeppelin/utils/structs/EnumerableSet.sol\":4464:4571  function _length(Set storage set) private view returns (uint256) {... */\n      swap2\n      swap1\n      pop\n      jump\t// out\n        /* \"code/contract/sol/non-native/openzeppelin/utils/structs/EnumerableSet.sol\":5571:5680  function _values(Set storage set) private view returns (bytes32[] memory) {... */\n    tag_81:\n        /* \"code/contract/sol/non-native/openzeppelin/utils/structs/EnumerableSet.sol\":5627:5643  bytes32[] memory */\n      0x60\n        /* \"code/contract/sol/non-native/openzeppelin/utils/structs/EnumerableSet.sol\":5662:5665  set */\n      dup2\n        /* \"code/contract/sol/non-native/openzeppelin/utils/structs/EnumerableSet.sol\":5662:5673  set._values */\n      0x00\n      add\n        /* \"code/contract/sol/non-native/openzeppelin/utils/structs/EnumerableSet.sol\":5655:5673  return set._values */\n      dup1\n      sload\n      dup1\n      0x20\n      mul\n      0x20\n      add\n      mload(0x40)\n      swap1\n      dup2\n      add\n      0x40\n      mstore\n      dup1\n      swap3\n      swap2\n      swap1\n      dup2\n      dup2\n      mstore\n      0x20\n      add\n      dup3\n      dup1\n      sload\n      dup1\n      iszero\n      tag_88\n      jumpi\n      0x20\n      mul\n      dup3\n      add\n      swap2\n      swap1\n      0x00\n      mstore\n      keccak256(0x00, 0x20)\n      swap1\n    tag_89:\n      dup2\n      sload\n      dup2\n      mstore\n      0x20\n      add\n      swap1\n      0x01\n      add\n      swap1\n      dup1\n      dup4\n      gt\n      tag_89\n      jumpi\n    tag_88:\n      pop\n      pop\n      pop\n      pop\n      pop\n      swap1\n      pop\n        /* \"code/contract/sol/non-native/openzeppelin/utils/structs/EnumerableSet.sol\":5571:5680  function _values(Set storage set) private view returns (bytes32[] memory) {... */\n      swap2\n      swap1\n      pop\n      jump\t// out\n        /* \"code/contract/sol/non-native/openzeppelin/utils/structs/EnumerableSet.sol\":2215:2619  function _add(Set storage set, bytes32 value) private returns (bool) {... */\n    tag_85:\n        /* \"code/contract/sol/non-native/openzeppelin/utils/structs/EnumerableSet.sol\":2278:2282  bool */\n      0x00\n        /* \"code/contract/sol/non-native/openzeppelin/utils/structs/EnumerableSet.sol\":2299:2320  _contains(set, value) */\n      tag_91\n        /* \"code/contract/sol/non-native/openzeppelin/utils/structs/EnumerableSet.sol\":2309:2312  set */\n      dup4\n        /* \"code/contract/sol/non-native/openzeppelin/utils/structs/EnumerableSet.sol\":2314:2319  value */\n      dup4\n        /* \"code/contract/sol/non-native/openzeppelin/utils/structs/EnumerableSet.sol\":2299:2308  _contains */\n      tag_69\n        /* \"code/contract/sol/non-native/openzeppelin/utils/structs/EnumerableSet.sol\":2299:2320  _contains(set, value) */\n      jump\t// in\n    tag_91:\n        /* \"code/contract/sol/non-native/openzeppelin/utils/structs/EnumerableSet.sol\":2294:2613  if (!_contains(set, value)) {... */\n      tag_92\n      jumpi\n        /* \"code/contract/sol/non-native/openzeppelin/utils/structs/EnumerableSet.sol\":2336:2339  set */\n      dup3\n        /* \"code/contract/sol/non-native/openzeppelin/utils/structs/EnumerableSet.sol\":2336:2347  set._values */\n      0x00\n      add\n        /* \"code/contract/sol/non-native/openzeppelin/utils/structs/EnumerableSet.sol\":2353:2358  value */\n      dup3\n        /* \"code/contract/sol/non-native/openzeppelin/utils/structs/EnumerableSet.sol\":2336:2359  set._values.push(value) */\n      swap1\n      dup1\n      0x01\n      dup2\n      sload\n      add\n      dup1\n      dup3\n      sstore\n      dup1\n      swap2\n      pop\n      pop\n      0x01\n      swap1\n      sub\n      swap1\n      0x00\n      mstore\n      keccak256(0x00, 0x20)\n      add\n      0x00\n      swap1\n      swap2\n      swap1\n      swap2\n      swap1\n      swap2\n      pop\n      sstore\n        /* \"code/contract/sol/non-native/openzeppelin/utils/structs/EnumerableSet.sol\":2516:2519  set */\n      dup3\n        /* \"code/contract/sol/non-native/openzeppelin/utils/structs/EnumerableSet.sol\":2516:2527  set._values */\n      0x00\n      add\n        /* \"code/contract/sol/non-native/openzeppelin/utils/structs/EnumerableSet.sol\":2516:2534  set._values.length */\n      dup1\n      sload\n      swap1\n      pop\n        /* \"code/contract/sol/non-native/openzeppelin/utils/structs/EnumerableSet.sol\":2494:2497  set */\n      dup4\n        /* \"code/contract/sol/non-native/openzeppelin/utils/structs/EnumerableSet.sol\":2494:2506  set._indexes */\n      0x01\n      add\n        /* \"code/contract/sol/non-native/openzeppelin/utils/structs/EnumerableSet.sol\":2494:2513  set._indexes[value] */\n      0x00\n        /* \"code/contract/sol/non-native/openzeppelin/utils/structs/EnumerableSet.sol\":2507:2512  value */\n      dup5\n        /* \"code/contract/sol/non-native/openzeppelin/utils/structs/EnumerableSet.sol\":2494:2513  set._indexes[value] */\n      dup2\n      mstore\n      0x20\n      add\n      swap1\n      dup2\n      mstore\n      0x20\n      add\n      0x00\n      keccak256\n        /* \"code/contract/sol/non-native/openzeppelin/utils/structs/EnumerableSet.sol\":2494:2534  set._indexes[value] = set._values.length */\n      dup2\n      swap1\n      sstore\n      pop\n        /* \"code/contract/sol/non-native/openzeppelin/utils/structs/EnumerableSet.sol\":2555:2559  true */\n      0x01\n        /* \"code/contract/sol/non-native/openzeppelin/utils/structs/EnumerableSet.sol\":2548:2559  return true */\n      swap1\n      pop\n      jump(tag_90)\n        /* \"code/contract/sol/non-native/openzeppelin/utils/structs/EnumerableSet.sol\":2294:2613  if (!_contains(set, value)) {... */\n    tag_92:\n        /* \"code/contract/sol/non-native/openzeppelin/utils/structs/EnumerableSet.sol\":2597:2602  false */\n      0x00\n        /* \"code/contract/sol/non-native/openzeppelin/utils/structs/EnumerableSet.sol\":2590:2602  return false */\n      swap1\n      pop\n        /* \"code/contract/sol/non-native/openzeppelin/utils/structs/EnumerableSet.sol\":2215:2619  function _add(Set storage set, bytes32 value) private returns (bool) {... */\n    tag_90:\n      swap3\n      swap2\n      pop\n      pop\n      jump\t// out\n        /* \"#utility.yul\":7:82   */\n    tag_95:\n        /* \"#utility.yul\":40:46   */\n      0x00\n        /* \"#utility.yul\":73:75   */\n      0x40\n        /* \"#utility.yul\":67:76   */\n      mload\n        /* \"#utility.yul\":57:76   */\n      swap1\n      pop\n        /* \"#utility.yul\":7:82   */\n      swap1\n      jump\t// out\n        /* \"#utility.yul\":88:205   */\n    tag_96:\n        /* \"#utility.yul\":197:198   */\n      0x00\n        /* \"#utility.yul\":194:195   */\n      dup1\n        /* \"#utility.yul\":187:199   */\n      revert\n        /* \"#utility.yul\":211:328   */\n    tag_97:\n        /* \"#utility.yul\":320:321   */\n      0x00\n        /* \"#utility.yul\":317:318   */\n      dup1\n        /* \"#utility.yul\":310:322   */\n      revert\n        /* \"#utility.yul\":334:451   */\n    tag_98:\n        /* \"#utility.yul\":443:444   */\n      0x00\n        /* \"#utility.yul\":440:441   */\n      dup1\n        /* \"#utility.yul\":433:445   */\n      revert\n        /* \"#utility.yul\":457:574   */\n    tag_99:\n        /* \"#utility.yul\":566:567   */\n      0x00\n        /* \"#utility.yul\":563:564   */\n      dup1\n        /* \"#utility.yul\":556:568   */\n      revert\n        /* \"#utility.yul\":580:682   */\n    tag_100:\n        /* \"#utility.yul\":621:627   */\n      0x00\n        /* \"#utility.yul\":672:674   */\n      0x1f\n        /* \"#utility.yul\":668:675   */\n      not\n        /* \"#utility.yul\":663:665   */\n      0x1f\n        /* \"#utility.yul\":656:661   */\n      dup4\n        /* \"#utility.yul\":652:666   */\n      add\n        /* \"#utility.yul\":648:676   */\n      and\n        /* \"#utility.yul\":638:676   */\n      swap1\n      pop\n        /* \"#utility.yul\":580:682   */\n      swap2\n      swap1\n      pop\n      jump\t// out\n        /* \"#utility.yul\":688:868   */\n    tag_101:\n        /* \"#utility.yul\":736:813   */\n      0x4e487b7100000000000000000000000000000000000000000000000000000000\n        /* \"#utility.yul\":733:734   */\n      0x00\n        /* \"#utility.yul\":726:814   */\n      mstore\n        /* \"#utility.yul\":833:837   */\n      0x41\n        /* \"#utility.yul\":830:831   */\n      0x04\n        /* \"#utility.yul\":823:838   */\n      mstore\n        /* \"#utility.yul\":857:861   */\n      0x24\n        /* \"#utility.yul\":854:855   */\n      0x00\n        /* \"#utility.yul\":847:862   */\n      revert\n        /* \"#utility.yul\":874:1155   */\n    tag_102:\n        /* \"#utility.yul\":957:984   */\n      tag_142\n        /* \"#utility.yul\":979:983   */\n      dup3\n        /* \"#utility.yul\":957:984   */\n      tag_100\n      jump\t// in\n    tag_142:\n        /* \"#utility.yul\":949:955   */\n      dup2\n        /* \"#utility.yul\":945:985   */\n      add\n        /* \"#utility.yul\":1087:1093   */\n      dup2\n        /* \"#utility.yul\":1075:1085   */\n      dup2\n        /* \"#utility.yul\":1072:1094   */\n      lt\n        /* \"#utility.yul\":1051:1069   */\n      0xffffffffffffffff\n        /* \"#utility.yul\":1039:1049   */\n      dup3\n        /* \"#utility.yul\":1036:1070   */\n      gt\n        /* \"#utility.yul\":1033:1095   */\n      or\n        /* \"#utility.yul\":1030:1118   */\n      iszero\n      tag_143\n      jumpi\n        /* \"#utility.yul\":1098:1116   */\n      tag_144\n      tag_101\n      jump\t// in\n    tag_144:\n        /* \"#utility.yul\":1030:1118   */\n    tag_143:\n        /* \"#utility.yul\":1138:1148   */\n      dup1\n        /* \"#utility.yul\":1134:1136   */\n      0x40\n        /* \"#utility.yul\":1127:1149   */\n      mstore\n        /* \"#utility.yul\":917:1155   */\n      pop\n        /* \"#utility.yul\":874:1155   */\n      pop\n      pop\n      jump\t// out\n        /* \"#utility.yul\":1161:1290   */\n    tag_103:\n        /* \"#utility.yul\":1195:1201   */\n      0x00\n        /* \"#utility.yul\":1222:1242   */\n      tag_146\n      tag_95\n      jump\t// in\n    tag_146:\n        /* \"#utility.yul\":1212:1242   */\n      swap1\n      pop\n        /* \"#utility.yul\":1251:1284   */\n      tag_147\n        /* \"#utility.yul\":1279:1283   */\n      dup3\n        /* \"#utility.yul\":1271:1277   */\n      dup3\n        /* \"#utility.yul\":1251:1284   */\n      tag_102\n      jump\t// in\n    tag_147:\n        /* \"#utility.yul\":1161:1290   */\n      swap2\n      swap1\n      pop\n      jump\t// out\n        /* \"#utility.yul\":1296:1604   */\n    tag_104:\n        /* \"#utility.yul\":1358:1362   */\n      0x00\n        /* \"#utility.yul\":1448:1466   */\n      0xffffffffffffffff\n        /* \"#utility.yul\":1440:1446   */\n      dup3\n        /* \"#utility.yul\":1437:1467   */\n      gt\n        /* \"#utility.yul\":1434:1490   */\n      iszero\n      tag_149\n      jumpi\n        /* \"#utility.yul\":1470:1488   */\n      tag_150\n      tag_101\n      jump\t// in\n    tag_150:\n        /* \"#utility.yul\":1434:1490   */\n    tag_149:\n        /* \"#utility.yul\":1508:1537   */\n      tag_151\n        /* \"#utility.yul\":1530:1536   */\n      dup3\n        /* \"#utility.yul\":1508:1537   */\n      tag_100\n      jump\t// in\n    tag_151:\n        /* \"#utility.yul\":1500:1537   */\n      swap1\n      pop\n        /* \"#utility.yul\":1592:1596   */\n      0x20\n        /* \"#utility.yul\":1586:1590   */\n      dup2\n        /* \"#utility.yul\":1582:1597   */\n      add\n        /* \"#utility.yul\":1574:1597   */\n      swap1\n      pop\n        /* \"#utility.yul\":1296:1604   */\n      swap2\n      swap1\n      pop\n      jump\t// out\n        /* \"#utility.yul\":1610:1756   */\n    tag_105:\n        /* \"#utility.yul\":1707:1713   */\n      dup3\n        /* \"#utility.yul\":1702:1705   */\n      dup2\n        /* \"#utility.yul\":1697:1700   */\n      dup4\n        /* \"#utility.yul\":1684:1714   */\n      calldatacopy\n        /* \"#utility.yul\":1748:1749   */\n      0x00\n        /* \"#utility.yul\":1739:1745   */\n      dup4\n        /* \"#utility.yul\":1734:1737   */\n      dup4\n        /* \"#utility.yul\":1730:1746   */\n      add\n        /* \"#utility.yul\":1723:1750   */\n      mstore\n        /* \"#utility.yul\":1610:1756   */\n      pop\n      pop\n      pop\n      jump\t// out\n        /* \"#utility.yul\":1762:2187   */\n    tag_106:\n        /* \"#utility.yul\":1840:1845   */\n      0x00\n        /* \"#utility.yul\":1865:1931   */\n      tag_154\n        /* \"#utility.yul\":1881:1930   */\n      tag_155\n        /* \"#utility.yul\":1923:1929   */\n      dup5\n        /* \"#utility.yul\":1881:1930   */\n      tag_104\n      jump\t// in\n    tag_155:\n        /* \"#utility.yul\":1865:1931   */\n      tag_103\n      jump\t// in\n    tag_154:\n        /* \"#utility.yul\":1856:1931   */\n      swap1\n      pop\n        /* \"#utility.yul\":1954:1960   */\n      dup3\n        /* \"#utility.yul\":1947:1952   */\n      dup2\n        /* \"#utility.yul\":1940:1961   */\n      mstore\n        /* \"#utility.yul\":1992:1996   */\n      0x20\n        /* \"#utility.yul\":1985:1990   */\n      dup2\n        /* \"#utility.yul\":1981:1997   */\n      add\n        /* \"#utility.yul\":2030:2033   */\n      dup5\n        /* \"#utility.yul\":2021:2027   */\n      dup5\n        /* \"#utility.yul\":2016:2019   */\n      dup5\n        /* \"#utility.yul\":2012:2028   */\n      add\n        /* \"#utility.yul\":2009:2034   */\n      gt\n        /* \"#utility.yul\":2006:2118   */\n      iszero\n      tag_156\n      jumpi\n        /* \"#utility.yul\":2037:2116   */\n      tag_157\n      tag_99\n      jump\t// in\n    tag_157:\n        /* \"#utility.yul\":2006:2118   */\n    tag_156:\n        /* \"#utility.yul\":2127:2181   */\n      tag_158\n        /* \"#utility.yul\":2174:2180   */\n      dup5\n        /* \"#utility.yul\":2169:2172   */\n      dup3\n        /* \"#utility.yul\":2164:2167   */\n      dup6\n        /* \"#utility.yul\":2127:2181   */\n      tag_105\n      jump\t// in\n    tag_158:\n        /* \"#utility.yul\":1846:2187   */\n      pop\n        /* \"#utility.yul\":1762:2187   */\n      swap4\n      swap3\n      pop\n      pop\n      pop\n      jump\t// out\n        /* \"#utility.yul\":2207:2547   */\n    tag_107:\n        /* \"#utility.yul\":2263:2268   */\n      0x00\n        /* \"#utility.yul\":2312:2315   */\n      dup3\n        /* \"#utility.yul\":2305:2309   */\n      0x1f\n        /* \"#utility.yul\":2297:2303   */\n      dup4\n        /* \"#utility.yul\":2293:2310   */\n      add\n        /* \"#utility.yul\":2289:2316   */\n      slt\n        /* \"#utility.yul\":2279:2401   */\n      tag_160\n      jumpi\n        /* \"#utility.yul\":2320:2399   */\n      tag_161\n      tag_98\n      jump\t// in\n    tag_161:\n        /* \"#utility.yul\":2279:2401   */\n    tag_160:\n        /* \"#utility.yul\":2437:2443   */\n      dup2\n        /* \"#utility.yul\":2424:2444   */\n      calldataload\n        /* \"#utility.yul\":2462:2541   */\n      tag_162\n        /* \"#utility.yul\":2537:2540   */\n      dup5\n        /* \"#utility.yul\":2529:2535   */\n      dup3\n        /* \"#utility.yul\":2522:2526   */\n      0x20\n        /* \"#utility.yul\":2514:2520   */\n      dup7\n        /* \"#utility.yul\":2510:2527   */\n      add\n        /* \"#utility.yul\":2462:2541   */\n      tag_106\n      jump\t// in\n    tag_162:\n        /* \"#utility.yul\":2453:2541   */\n      swap2\n      pop\n        /* \"#utility.yul\":2269:2547   */\n      pop\n        /* \"#utility.yul\":2207:2547   */\n      swap3\n      swap2\n      pop\n      pop\n      jump\t// out\n        /* \"#utility.yul\":2553:2679   */\n    tag_108:\n        /* \"#utility.yul\":2590:2597   */\n      0x00\n        /* \"#utility.yul\":2630:2672   */\n      0xffffffffffffffffffffffffffffffffffffffff\n        /* \"#utility.yul\":2623:2628   */\n      dup3\n        /* \"#utility.yul\":2619:2673   */\n      and\n        /* \"#utility.yul\":2608:2673   */\n      swap1\n      pop\n        /* \"#utility.yul\":2553:2679   */\n      swap2\n      swap1\n      pop\n      jump\t// out\n        /* \"#utility.yul\":2685:2781   */\n    tag_109:\n        /* \"#utility.yul\":2722:2729   */\n      0x00\n        /* \"#utility.yul\":2751:2775   */\n      tag_165\n        /* \"#utility.yul\":2769:2774   */\n      dup3\n        /* \"#utility.yul\":2751:2775   */\n      tag_108\n      jump\t// in\n    tag_165:\n        /* \"#utility.yul\":2740:2775   */\n      swap1\n      pop\n        /* \"#utility.yul\":2685:2781   */\n      swap2\n      swap1\n      pop\n      jump\t// out\n        /* \"#utility.yul\":2787:2909   */\n    tag_110:\n        /* \"#utility.yul\":2860:2884   */\n      tag_167\n        /* \"#utility.yul\":2878:2883   */\n      dup2\n        /* \"#utility.yul\":2860:2884   */\n      tag_109\n      jump\t// in\n    tag_167:\n        /* \"#utility.yul\":2853:2858   */\n      dup2\n        /* \"#utility.yul\":2850:2885   */\n      eq\n        /* \"#utility.yul\":2840:2903   */\n      tag_168\n      jumpi\n        /* \"#utility.yul\":2899:2900   */\n      0x00\n        /* \"#utility.yul\":2896:2897   */\n      dup1\n        /* \"#utility.yul\":2889:2901   */\n      revert\n        /* \"#utility.yul\":2840:2903   */\n    tag_168:\n        /* \"#utility.yul\":2787:2909   */\n      pop\n      jump\t// out\n        /* \"#utility.yul\":2915:3054   */\n    tag_111:\n        /* \"#utility.yul\":2961:2966   */\n      0x00\n        /* \"#utility.yul\":2999:3005   */\n      dup2\n        /* \"#utility.yul\":2986:3006   */\n      calldataload\n        /* \"#utility.yul\":2977:3006   */\n      swap1\n      pop\n        /* \"#utility.yul\":3015:3048   */\n      tag_170\n        /* \"#utility.yul\":3042:3047   */\n      dup2\n        /* \"#utility.yul\":3015:3048   */\n      tag_110\n      jump\t// in\n    tag_170:\n        /* \"#utility.yul\":2915:3054   */\n      swap3\n      swap2\n      pop\n      pop\n      jump\t// out\n        /* \"#utility.yul\":3060:3714   */\n    tag_9:\n        /* \"#utility.yul\":3138:3144   */\n      0x00\n        /* \"#utility.yul\":3146:3152   */\n      dup1\n        /* \"#utility.yul\":3195:3197   */\n      0x40\n        /* \"#utility.yul\":3183:3192   */\n      dup4\n        /* \"#utility.yul\":3174:3181   */\n      dup6\n        /* \"#utility.yul\":3170:3193   */\n      sub\n        /* \"#utility.yul\":3166:3198   */\n      slt\n        /* \"#utility.yul\":3163:3282   */\n      iszero\n      tag_172\n      jumpi\n        /* \"#utility.yul\":3201:3280   */\n      tag_173\n      tag_96\n      jump\t// in\n    tag_173:\n        /* \"#utility.yul\":3163:3282   */\n    tag_172:\n        /* \"#utility.yul\":3349:3350   */\n      0x00\n        /* \"#utility.yul\":3338:3347   */\n      dup4\n        /* \"#utility.yul\":3334:3351   */\n      add\n        /* \"#utility.yul\":3321:3352   */\n      calldataload\n        /* \"#utility.yul\":3379:3397   */\n      0xffffffffffffffff\n        /* \"#utility.yul\":3371:3377   */\n      dup2\n        /* \"#utility.yul\":3368:3398   */\n      gt\n        /* \"#utility.yul\":3365:3482   */\n      iszero\n      tag_174\n      jumpi\n        /* \"#utility.yul\":3401:3480   */\n      tag_175\n      tag_97\n      jump\t// in\n    tag_175:\n        /* \"#utility.yul\":3365:3482   */\n    tag_174:\n        /* \"#utility.yul\":3506:3569   */\n      tag_176\n        /* \"#utility.yul\":3561:3568   */\n      dup6\n        /* \"#utility.yul\":3552:3558   */\n      dup3\n        /* \"#utility.yul\":3541:3550   */\n      dup7\n        /* \"#utility.yul\":3537:3559   */\n      add\n        /* \"#utility.yul\":3506:3569   */\n      tag_107\n      jump\t// in\n    tag_176:\n        /* \"#utility.yul\":3496:3569   */\n      swap3\n      pop\n        /* \"#utility.yul\":3292:3579   */\n      pop\n        /* \"#utility.yul\":3618:3620   */\n      0x20\n        /* \"#utility.yul\":3644:3697   */\n      tag_177\n        /* \"#utility.yul\":3689:3696   */\n      dup6\n        /* \"#utility.yul\":3680:3686   */\n      dup3\n        /* \"#utility.yul\":3669:3678   */\n      dup7\n        /* \"#utility.yul\":3665:3687   */\n      add\n        /* \"#utility.yul\":3644:3697   */\n      tag_111\n      jump\t// in\n    tag_177:\n        /* \"#utility.yul\":3634:3697   */\n      swap2\n      pop\n        /* \"#utility.yul\":3589:3707   */\n      pop\n        /* \"#utility.yul\":3060:3714   */\n      swap3\n      pop\n      swap3\n      swap1\n      pop\n      jump\t// out\n        /* \"#utility.yul\":3720:3810   */\n    tag_112:\n        /* \"#utility.yul\":3754:3761   */\n      0x00\n        /* \"#utility.yul\":3797:3802   */\n      dup2\n        /* \"#utility.yul\":3790:3803   */\n      iszero\n        /* \"#utility.yul\":3783:3804   */\n      iszero\n        /* \"#utility.yul\":3772:3804   */\n      swap1\n      pop\n        /* \"#utility.yul\":3720:3810   */\n      swap2\n      swap1\n      pop\n      jump\t// out\n        /* \"#utility.yul\":3816:3925   */\n    tag_113:\n        /* \"#utility.yul\":3897:3918   */\n      tag_180\n        /* \"#utility.yul\":3912:3917   */\n      dup2\n        /* \"#utility.yul\":3897:3918   */\n      tag_112\n      jump\t// in\n    tag_180:\n        /* \"#utility.yul\":3892:3895   */\n      dup3\n        /* \"#utility.yul\":3885:3919   */\n      mstore\n        /* \"#utility.yul\":3816:3925   */\n      pop\n      pop\n      jump\t// out\n        /* \"#utility.yul\":3931:4141   */\n    tag_12:\n        /* \"#utility.yul\":4018:4022   */\n      0x00\n        /* \"#utility.yul\":4056:4058   */\n      0x20\n        /* \"#utility.yul\":4045:4054   */\n      dup3\n        /* \"#utility.yul\":4041:4059   */\n      add\n        /* \"#utility.yul\":4033:4059   */\n      swap1\n      pop\n        /* \"#utility.yul\":4069:4134   */\n      tag_182\n        /* \"#utility.yul\":4131:4132   */\n      0x00\n        /* \"#utility.yul\":4120:4129   */\n      dup4\n        /* \"#utility.yul\":4116:4133   */\n      add\n        /* \"#utility.yul\":4107:4113   */\n      dup5\n        /* \"#utility.yul\":4069:4134   */\n      tag_113\n      jump\t// in\n    tag_182:\n        /* \"#utility.yul\":3931:4141   */\n      swap3\n      swap2\n      pop\n      pop\n      jump\t// out\n        /* \"#utility.yul\":4147:4656   */\n    tag_18:\n        /* \"#utility.yul\":4216:4222   */\n      0x00\n        /* \"#utility.yul\":4265:4267   */\n      0x20\n        /* \"#utility.yul\":4253:4262   */\n      dup3\n        /* \"#utility.yul\":4244:4251   */\n      dup5\n        /* \"#utility.yul\":4240:4263   */\n      sub\n        /* \"#utility.yul\":4236:4268   */\n      slt\n        /* \"#utility.yul\":4233:4352   */\n      iszero\n      tag_184\n      jumpi\n        /* \"#utility.yul\":4271:4350   */\n      tag_185\n      tag_96\n      jump\t// in\n    tag_185:\n        /* \"#utility.yul\":4233:4352   */\n    tag_184:\n        /* \"#utility.yul\":4419:4420   */\n      0x00\n        /* \"#utility.yul\":4408:4417   */\n      dup3\n        /* \"#utility.yul\":4404:4421   */\n      add\n        /* \"#utility.yul\":4391:4422   */\n      calldataload\n        /* \"#utility.yul\":4449:4467   */\n      0xffffffffffffffff\n        /* \"#utility.yul\":4441:4447   */\n      dup2\n        /* \"#utility.yul\":4438:4468   */\n      gt\n        /* \"#utility.yul\":4435:4552   */\n      iszero\n      tag_186\n      jumpi\n        /* \"#utility.yul\":4471:4550   */\n      tag_187\n      tag_97\n      jump\t// in\n    tag_187:\n        /* \"#utility.yul\":4435:4552   */\n    tag_186:\n        /* \"#utility.yul\":4576:4639   */\n      tag_188\n        /* \"#utility.yul\":4631:4638   */\n      dup5\n        /* \"#utility.yul\":4622:4628   */\n      dup3\n        /* \"#utility.yul\":4611:4620   */\n      dup6\n        /* \"#utility.yul\":4607:4629   */\n      add\n        /* \"#utility.yul\":4576:4639   */\n      tag_107\n      jump\t// in\n    tag_188:\n        /* \"#utility.yul\":4566:4639   */\n      swap2\n      pop\n        /* \"#utility.yul\":4362:4649   */\n      pop\n        /* \"#utility.yul\":4147:4656   */\n      swap3\n      swap2\n      pop\n      pop\n      jump\t// out\n        /* \"#utility.yul\":4662:4739   */\n    tag_114:\n        /* \"#utility.yul\":4699:4706   */\n      0x00\n        /* \"#utility.yul\":4728:4733   */\n      dup2\n        /* \"#utility.yul\":4717:4733   */\n      swap1\n      pop\n        /* \"#utility.yul\":4662:4739   */\n      swap2\n      swap1\n      pop\n      jump\t// out\n        /* \"#utility.yul\":4745:4863   */\n    tag_115:\n        /* \"#utility.yul\":4832:4856   */\n      tag_191\n        /* \"#utility.yul\":4850:4855   */\n      dup2\n        /* \"#utility.yul\":4832:4856   */\n      tag_114\n      jump\t// in\n    tag_191:\n        /* \"#utility.yul\":4827:4830   */\n      dup3\n        /* \"#utility.yul\":4820:4857   */\n      mstore\n        /* \"#utility.yul\":4745:4863   */\n      pop\n      pop\n      jump\t// out\n        /* \"#utility.yul\":4869:5091   */\n    tag_21:\n        /* \"#utility.yul\":4962:4966   */\n      0x00\n        /* \"#utility.yul\":5000:5002   */\n      0x20\n        /* \"#utility.yul\":4989:4998   */\n      dup3\n        /* \"#utility.yul\":4985:5003   */\n      add\n        /* \"#utility.yul\":4977:5003   */\n      swap1\n      pop\n        /* \"#utility.yul\":5013:5084   */\n      tag_193\n        /* \"#utility.yul\":5081:5082   */\n      0x00\n        /* \"#utility.yul\":5070:5079   */\n      dup4\n        /* \"#utility.yul\":5066:5083   */\n      add\n        /* \"#utility.yul\":5057:5063   */\n      dup5\n        /* \"#utility.yul\":5013:5084   */\n      tag_115\n      jump\t// in\n    tag_193:\n        /* \"#utility.yul\":4869:5091   */\n      swap3\n      swap2\n      pop\n      pop\n      jump\t// out\n        /* \"#utility.yul\":5097:5211   */\n    tag_116:\n        /* \"#utility.yul\":5164:5170   */\n      0x00\n        /* \"#utility.yul\":5198:5203   */\n      dup2\n        /* \"#utility.yul\":5192:5204   */\n      mload\n        /* \"#utility.yul\":5182:5204   */\n      swap1\n      pop\n        /* \"#utility.yul\":5097:5211   */\n      swap2\n      swap1\n      pop\n      jump\t// out\n        /* \"#utility.yul\":5217:5401   */\n    tag_117:\n        /* \"#utility.yul\":5316:5327   */\n      0x00\n        /* \"#utility.yul\":5350:5356   */\n      dup3\n        /* \"#utility.yul\":5345:5348   */\n      dup3\n        /* \"#utility.yul\":5338:5357   */\n      mstore\n        /* \"#utility.yul\":5390:5394   */\n      0x20\n        /* \"#utility.yul\":5385:5388   */\n      dup3\n        /* \"#utility.yul\":5381:5395   */\n      add\n        /* \"#utility.yul\":5366:5395   */\n      swap1\n      pop\n        /* \"#utility.yul\":5217:5401   */\n      swap3\n      swap2\n      pop\n      pop\n      jump\t// out\n        /* \"#utility.yul\":5407:5539   */\n    tag_118:\n        /* \"#utility.yul\":5474:5478   */\n      0x00\n        /* \"#utility.yul\":5497:5500   */\n      dup2\n        /* \"#utility.yul\":5489:5500   */\n      swap1\n      pop\n        /* \"#utility.yul\":5527:5531   */\n      0x20\n        /* \"#utility.yul\":5522:5525   */\n      dup3\n        /* \"#utility.yul\":5518:5532   */\n      add\n        /* \"#utility.yul\":5510:5532   */\n      swap1\n      pop\n        /* \"#utility.yul\":5407:5539   */\n      swap2\n      swap1\n      pop\n      jump\t// out\n        /* \"#utility.yul\":5545:5653   */\n    tag_119:\n        /* \"#utility.yul\":5622:5646   */\n      tag_198\n        /* \"#utility.yul\":5640:5645   */\n      dup2\n        /* \"#utility.yul\":5622:5646   */\n      tag_109\n      jump\t// in\n    tag_198:\n        /* \"#utility.yul\":5617:5620   */\n      dup3\n        /* \"#utility.yul\":5610:5647   */\n      mstore\n        /* \"#utility.yul\":5545:5653   */\n      pop\n      pop\n      jump\t// out\n        /* \"#utility.yul\":5659:5838   */\n    tag_120:\n        /* \"#utility.yul\":5728:5738   */\n      0x00\n        /* \"#utility.yul\":5749:5795   */\n      tag_200\n        /* \"#utility.yul\":5791:5794   */\n      dup4\n        /* \"#utility.yul\":5783:5789   */\n      dup4\n        /* \"#utility.yul\":5749:5795   */\n      tag_119\n      jump\t// in\n    tag_200:\n        /* \"#utility.yul\":5827:5831   */\n      0x20\n        /* \"#utility.yul\":5822:5825   */\n      dup4\n        /* \"#utility.yul\":5818:5832   */\n      add\n        /* \"#utility.yul\":5804:5832   */\n      swap1\n      pop\n        /* \"#utility.yul\":5659:5838   */\n      swap3\n      swap2\n      pop\n      pop\n      jump\t// out\n        /* \"#utility.yul\":5844:5957   */\n    tag_121:\n        /* \"#utility.yul\":5914:5918   */\n      0x00\n        /* \"#utility.yul\":5946:5950   */\n      0x20\n        /* \"#utility.yul\":5941:5944   */\n      dup3\n        /* \"#utility.yul\":5937:5951   */\n      add\n        /* \"#utility.yul\":5929:5951   */\n      swap1\n      pop\n        /* \"#utility.yul\":5844:5957   */\n      swap2\n      swap1\n      pop\n      jump\t// out\n        /* \"#utility.yul\":5993:6725   */\n    tag_122:\n        /* \"#utility.yul\":6112:6115   */\n      0x00\n        /* \"#utility.yul\":6141:6195   */\n      tag_203\n        /* \"#utility.yul\":6189:6194   */\n      dup3\n        /* \"#utility.yul\":6141:6195   */\n      tag_116\n      jump\t// in\n    tag_203:\n        /* \"#utility.yul\":6211:6297   */\n      tag_204\n        /* \"#utility.yul\":6290:6296   */\n      dup2\n        /* \"#utility.yul\":6285:6288   */\n      dup6\n        /* \"#utility.yul\":6211:6297   */\n      tag_117\n      jump\t// in\n    tag_204:\n        /* \"#utility.yul\":6204:6297   */\n      swap4\n      pop\n        /* \"#utility.yul\":6321:6377   */\n      tag_205\n        /* \"#utility.yul\":6371:6376   */\n      dup4\n        /* \"#utility.yul\":6321:6377   */\n      tag_118\n      jump\t// in\n    tag_205:\n        /* \"#utility.yul\":6400:6407   */\n      dup1\n        /* \"#utility.yul\":6431:6432   */\n      0x00\n        /* \"#utility.yul\":6416:6700   */\n    tag_206:\n        /* \"#utility.yul\":6441:6447   */\n      dup4\n        /* \"#utility.yul\":6438:6439   */\n      dup2\n        /* \"#utility.yul\":6435:6448   */\n      lt\n        /* \"#utility.yul\":6416:6700   */\n      iszero\n      tag_208\n      jumpi\n        /* \"#utility.yul\":6517:6523   */\n      dup2\n        /* \"#utility.yul\":6511:6524   */\n      mload\n        /* \"#utility.yul\":6544:6607   */\n      tag_209\n        /* \"#utility.yul\":6603:6606   */\n      dup9\n        /* \"#utility.yul\":6588:6601   */\n      dup3\n        /* \"#utility.yul\":6544:6607   */\n      tag_120\n      jump\t// in\n    tag_209:\n        /* \"#utility.yul\":6537:6607   */\n      swap8\n      pop\n        /* \"#utility.yul\":6630:6690   */\n      tag_210\n        /* \"#utility.yul\":6683:6689   */\n      dup4\n        /* \"#utility.yul\":6630:6690   */\n      tag_121\n      jump\t// in\n    tag_210:\n        /* \"#utility.yul\":6620:6690   */\n      swap3\n      pop\n        /* \"#utility.yul\":6476:6700   */\n      pop\n        /* \"#utility.yul\":6463:6464   */\n      0x01\n        /* \"#utility.yul\":6460:6461   */\n      dup2\n        /* \"#utility.yul\":6456:6465   */\n      add\n        /* \"#utility.yul\":6451:6465   */\n      swap1\n      pop\n        /* \"#utility.yul\":6416:6700   */\n      jump(tag_206)\n    tag_208:\n        /* \"#utility.yul\":6420:6434   */\n      pop\n        /* \"#utility.yul\":6716:6719   */\n      dup6\n        /* \"#utility.yul\":6709:6719   */\n      swap4\n      pop\n        /* \"#utility.yul\":6117:6725   */\n      pop\n      pop\n      pop\n        /* \"#utility.yul\":5993:6725   */\n      swap3\n      swap2\n      pop\n      pop\n      jump\t// out\n        /* \"#utility.yul\":6731:7104   */\n    tag_26:\n        /* \"#utility.yul\":6874:6878   */\n      0x00\n        /* \"#utility.yul\":6912:6914   */\n      0x20\n        /* \"#utility.yul\":6901:6910   */\n      dup3\n        /* \"#utility.yul\":6897:6915   */\n      add\n        /* \"#utility.yul\":6889:6915   */\n      swap1\n      pop\n        /* \"#utility.yul\":6961:6970   */\n      dup2\n        /* \"#utility.yul\":6955:6959   */\n      dup2\n        /* \"#utility.yul\":6951:6971   */\n      sub\n        /* \"#utility.yul\":6947:6948   */\n      0x00\n        /* \"#utility.yul\":6936:6945   */\n      dup4\n        /* \"#utility.yul\":6932:6949   */\n      add\n        /* \"#utility.yul\":6925:6972   */\n      mstore\n        /* \"#utility.yul\":6989:7097   */\n      tag_212\n        /* \"#utility.yul\":7092:7096   */\n      dup2\n        /* \"#utility.yul\":7083:7089   */\n      dup5\n        /* \"#utility.yul\":6989:7097   */\n      tag_122\n      jump\t// in\n    tag_212:\n        /* \"#utility.yul\":6981:7097   */\n      swap1\n      pop\n        /* \"#utility.yul\":6731:7104   */\n      swap3\n      swap2\n      pop\n      pop\n      jump\t// out\n        /* \"#utility.yul\":7110:7290   */\n    tag_123:\n        /* \"#utility.yul\":7158:7235   */\n      0x4e487b7100000000000000000000000000000000000000000000000000000000\n        /* \"#utility.yul\":7155:7156   */\n      0x00\n        /* \"#utility.yul\":7148:7236   */\n      mstore\n        /* \"#utility.yul\":7255:7259   */\n      0x11\n        /* \"#utility.yul\":7252:7253   */\n      0x04\n        /* \"#utility.yul\":7245:7260   */\n      mstore\n        /* \"#utility.yul\":7279:7283   */\n      0x24\n        /* \"#utility.yul\":7276:7277   */\n      0x00\n        /* \"#utility.yul\":7269:7284   */\n      revert\n        /* \"#utility.yul\":7296:7490   */\n    tag_46:\n        /* \"#utility.yul\":7336:7340   */\n      0x00\n        /* \"#utility.yul\":7356:7376   */\n      tag_215\n        /* \"#utility.yul\":7374:7375   */\n      dup3\n        /* \"#utility.yul\":7356:7376   */\n      tag_114\n      jump\t// in\n    tag_215:\n        /* \"#utility.yul\":7351:7376   */\n      swap2\n      pop\n        /* \"#utility.yul\":7390:7410   */\n      tag_216\n        /* \"#utility.yul\":7408:7409   */\n      dup4\n        /* \"#utility.yul\":7390:7410   */\n      tag_114\n      jump\t// in\n    tag_216:\n        /* \"#utility.yul\":7385:7410   */\n      swap3\n      pop\n        /* \"#utility.yul\":7434:7435   */\n      dup3\n        /* \"#utility.yul\":7431:7432   */\n      dup3\n        /* \"#utility.yul\":7427:7436   */\n      sub\n        /* \"#utility.yul\":7419:7436   */\n      swap1\n      pop\n        /* \"#utility.yul\":7458:7459   */\n      dup2\n        /* \"#utility.yul\":7452:7456   */\n      dup2\n        /* \"#utility.yul\":7449:7460   */\n      gt\n        /* \"#utility.yul\":7446:7483   */\n      iszero\n      tag_217\n      jumpi\n        /* \"#utility.yul\":7463:7481   */\n      tag_218\n      tag_123\n      jump\t// in\n    tag_218:\n        /* \"#utility.yul\":7446:7483   */\n    tag_217:\n        /* \"#utility.yul\":7296:7490   */\n      swap3\n      swap2\n      pop\n      pop\n      jump\t// out\n        /* \"#utility.yul\":7496:7595   */\n    tag_124:\n        /* \"#utility.yul\":7548:7554   */\n      0x00\n        /* \"#utility.yul\":7582:7587   */\n      dup2\n        /* \"#utility.yul\":7576:7588   */\n      mload\n        /* \"#utility.yul\":7566:7588   */\n      swap1\n      pop\n        /* \"#utility.yul\":7496:7595   */\n      swap2\n      swap1\n      pop\n      jump\t// out\n        /* \"#utility.yul\":7601:7749   */\n    tag_125:\n        /* \"#utility.yul\":7703:7714   */\n      0x00\n        /* \"#utility.yul\":7740:7743   */\n      dup2\n        /* \"#utility.yul\":7725:7743   */\n      swap1\n      pop\n        /* \"#utility.yul\":7601:7749   */\n      swap3\n      swap2\n      pop\n      pop\n      jump\t// out\n        /* \"#utility.yul\":7755:8001   */\n    tag_126:\n        /* \"#utility.yul\":7836:7837   */\n      0x00\n        /* \"#utility.yul\":7846:7959   */\n    tag_222:\n        /* \"#utility.yul\":7860:7866   */\n      dup4\n        /* \"#utility.yul\":7857:7858   */\n      dup2\n        /* \"#utility.yul\":7854:7867   */\n      lt\n        /* \"#utility.yul\":7846:7959   */\n      iszero\n      tag_224\n      jumpi\n        /* \"#utility.yul\":7945:7946   */\n      dup1\n        /* \"#utility.yul\":7940:7943   */\n      dup3\n        /* \"#utility.yul\":7936:7947   */\n      add\n        /* \"#utility.yul\":7930:7948   */\n      mload\n        /* \"#utility.yul\":7926:7927   */\n      dup2\n        /* \"#utility.yul\":7921:7924   */\n      dup5\n        /* \"#utility.yul\":7917:7928   */\n      add\n        /* \"#utility.yul\":7910:7949   */\n      mstore\n        /* \"#utility.yul\":7882:7884   */\n      0x20\n        /* \"#utility.yul\":7879:7880   */\n      dup2\n        /* \"#utility.yul\":7875:7885   */\n      add\n        /* \"#utility.yul\":7870:7885   */\n      swap1\n      pop\n        /* \"#utility.yul\":7846:7959   */\n      jump(tag_222)\n    tag_224:\n        /* \"#utility.yul\":7993:7994   */\n      0x00\n        /* \"#utility.yul\":7984:7990   */\n      dup5\n        /* \"#utility.yul\":7979:7982   */\n      dup5\n        /* \"#utility.yul\":7975:7991   */\n      add\n        /* \"#utility.yul\":7968:7995   */\n      mstore\n        /* \"#utility.yul\":7817:8001   */\n      pop\n        /* \"#utility.yul\":7755:8001   */\n      pop\n      pop\n      pop\n      jump\t// out\n        /* \"#utility.yul\":8007:8397   */\n    tag_127:\n        /* \"#utility.yul\":8113:8116   */\n      0x00\n        /* \"#utility.yul\":8141:8180   */\n      tag_226\n        /* \"#utility.yul\":8174:8179   */\n      dup3\n        /* \"#utility.yul\":8141:8180   */\n      tag_124\n      jump\t// in\n    tag_226:\n        /* \"#utility.yul\":8196:8285   */\n      tag_227\n        /* \"#utility.yul\":8278:8284   */\n      dup2\n        /* \"#utility.yul\":8273:8276   */\n      dup6\n        /* \"#utility.yul\":8196:8285   */\n      tag_125\n      jump\t// in\n    tag_227:\n        /* \"#utility.yul\":8189:8285   */\n      swap4\n      pop\n        /* \"#utility.yul\":8294:8359   */\n      tag_228\n        /* \"#utility.yul\":8352:8358   */\n      dup2\n        /* \"#utility.yul\":8347:8350   */\n      dup6\n        /* \"#utility.yul\":8340:8344   */\n      0x20\n        /* \"#utility.yul\":8333:8338   */\n      dup7\n        /* \"#utility.yul\":8329:8345   */\n      add\n        /* \"#utility.yul\":8294:8359   */\n      tag_126\n      jump\t// in\n    tag_228:\n        /* \"#utility.yul\":8384:8390   */\n      dup1\n        /* \"#utility.yul\":8379:8382   */\n      dup5\n        /* \"#utility.yul\":8375:8391   */\n      add\n        /* \"#utility.yul\":8368:8391   */\n      swap2\n      pop\n        /* \"#utility.yul\":8117:8397   */\n      pop\n        /* \"#utility.yul\":8007:8397   */\n      swap3\n      swap2\n      pop\n      pop\n      jump\t// out\n        /* \"#utility.yul\":8403:8678   */\n    tag_50:\n        /* \"#utility.yul\":8535:8538   */\n      0x00\n        /* \"#utility.yul\":8557:8652   */\n      tag_230\n        /* \"#utility.yul\":8648:8651   */\n      dup3\n        /* \"#utility.yul\":8639:8645   */\n      dup5\n        /* \"#utility.yul\":8557:8652   */\n      tag_127\n      jump\t// in\n    tag_230:\n        /* \"#utility.yul\":8550:8652   */\n      swap2\n      pop\n        /* \"#utility.yul\":8669:8672   */\n      dup2\n        /* \"#utility.yul\":8662:8672   */\n      swap1\n      pop\n        /* \"#utility.yul\":8403:8678   */\n      swap3\n      swap2\n      pop\n      pop\n      jump\t// out\n        /* \"#utility.yul\":8684:8853   */\n    tag_128:\n        /* \"#utility.yul\":8768:8779   */\n      0x00\n        /* \"#utility.yul\":8802:8808   */\n      dup3\n        /* \"#utility.yul\":8797:8800   */\n      dup3\n        /* \"#utility.yul\":8790:8809   */\n      mstore\n        /* \"#utility.yul\":8842:8846   */\n      0x20\n        /* \"#utility.yul\":8837:8840   */\n      dup3\n        /* \"#utility.yul\":8833:8847   */\n      add\n        /* \"#utility.yul\":8818:8847   */\n      swap1\n      pop\n        /* \"#utility.yul\":8684:8853   */\n      swap3\n      swap2\n      pop\n      pop\n      jump\t// out\n        /* \"#utility.yul\":8859:9159   */\n    tag_129:\n        /* \"#utility.yul\":8999:9033   */\n      0x4175746853746f726167654c6962726172793a2063616e6e6f74206f6e6c7920\n        /* \"#utility.yul\":8995:8996   */\n      0x00\n        /* \"#utility.yul\":8987:8993   */\n      dup3\n        /* \"#utility.yul\":8983:8997   */\n      add\n        /* \"#utility.yul\":8976:9034   */\n      mstore\n        /* \"#utility.yul\":9068:9102   */\n      0x6772616e742074686520272a2720726f6c65207768656e207468657265206172\n        /* \"#utility.yul\":9063:9065   */\n      0x20\n        /* \"#utility.yul\":9055:9061   */\n      dup3\n        /* \"#utility.yul\":9051:9066   */\n      add\n        /* \"#utility.yul\":9044:9103   */\n      mstore\n        /* \"#utility.yul\":9137:9151   */\n      0x65206e6f206d656d626572730000000000000000000000000000000000000000\n        /* \"#utility.yul\":9132:9134   */\n      0x40\n        /* \"#utility.yul\":9124:9130   */\n      dup3\n        /* \"#utility.yul\":9120:9135   */\n      add\n        /* \"#utility.yul\":9113:9152   */\n      mstore\n        /* \"#utility.yul\":8859:9159   */\n      pop\n      jump\t// out\n        /* \"#utility.yul\":9165:9531   */\n    tag_130:\n        /* \"#utility.yul\":9307:9310   */\n      0x00\n        /* \"#utility.yul\":9328:9395   */\n      tag_234\n        /* \"#utility.yul\":9392:9394   */\n      0x4c\n        /* \"#utility.yul\":9387:9390   */\n      dup4\n        /* \"#utility.yul\":9328:9395   */\n      tag_128\n      jump\t// in\n    tag_234:\n        /* \"#utility.yul\":9321:9395   */\n      swap2\n      pop\n        /* \"#utility.yul\":9404:9497   */\n      tag_235\n        /* \"#utility.yul\":9493:9496   */\n      dup3\n        /* \"#utility.yul\":9404:9497   */\n      tag_129\n      jump\t// in\n    tag_235:\n        /* \"#utility.yul\":9522:9524   */\n      0x60\n        /* \"#utility.yul\":9517:9520   */\n      dup3\n        /* \"#utility.yul\":9513:9525   */\n      add\n        /* \"#utility.yul\":9506:9525   */\n      swap1\n      pop\n        /* \"#utility.yul\":9165:9531   */\n      swap2\n      swap1\n      pop\n      jump\t// out\n        /* \"#utility.yul\":9537:9956   */\n    tag_56:\n        /* \"#utility.yul\":9703:9707   */\n      0x00\n        /* \"#utility.yul\":9741:9743   */\n      0x20\n        /* \"#utility.yul\":9730:9739   */\n      dup3\n        /* \"#utility.yul\":9726:9744   */\n      add\n        /* \"#utility.yul\":9718:9744   */\n      swap1\n      pop\n        /* \"#utility.yul\":9790:9799   */\n      dup2\n        /* \"#utility.yul\":9784:9788   */\n      dup2\n        /* \"#utility.yul\":9780:9800   */\n      sub\n        /* \"#utility.yul\":9776:9777   */\n      0x00\n        /* \"#utility.yul\":9765:9774   */\n      dup4\n        /* \"#utility.yul\":9761:9778   */\n      add\n        /* \"#utility.yul\":9754:9801   */\n      mstore\n        /* \"#utility.yul\":9818:9949   */\n      tag_237\n        /* \"#utility.yul\":9944:9948   */\n      dup2\n        /* \"#utility.yul\":9818:9949   */\n      tag_130\n      jump\t// in\n    tag_237:\n        /* \"#utility.yul\":9810:9949   */\n      swap1\n      pop\n        /* \"#utility.yul\":9537:9956   */\n      swap2\n      swap1\n      pop\n      jump\t// out\n        /* \"#utility.yul\":9962:10339   */\n    tag_131:\n        /* \"#utility.yul\":10050:10053   */\n      0x00\n        /* \"#utility.yul\":10078:10117   */\n      tag_239\n        /* \"#utility.yul\":10111:10116   */\n      dup3\n        /* \"#utility.yul\":10078:10117   */\n      tag_124\n      jump\t// in\n    tag_239:\n        /* \"#utility.yul\":10133:10204   */\n      tag_240\n        /* \"#utility.yul\":10197:10203   */\n      dup2\n        /* \"#utility.yul\":10192:10195   */\n      dup6\n        /* \"#utility.yul\":10133:10204   */\n      tag_128\n      jump\t// in\n    tag_240:\n        /* \"#utility.yul\":10126:10204   */\n      swap4\n      pop\n        /* \"#utility.yul\":10213:10278   */\n      tag_241\n        /* \"#utility.yul\":10271:10277   */\n      dup2\n        /* \"#utility.yul\":10266:10269   */\n      dup6\n        /* \"#utility.yul\":10259:10263   */\n      0x20\n        /* \"#utility.yul\":10252:10257   */\n      dup7\n        /* \"#utility.yul\":10248:10264   */\n      add\n        /* \"#utility.yul\":10213:10278   */\n      tag_126\n      jump\t// in\n    tag_241:\n        /* \"#utility.yul\":10303:10332   */\n      tag_242\n        /* \"#utility.yul\":10325:10331   */\n      dup2\n        /* \"#utility.yul\":10303:10332   */\n      tag_100\n      jump\t// in\n    tag_242:\n        /* \"#utility.yul\":10298:10301   */\n      dup5\n        /* \"#utility.yul\":10294:10333   */\n      add\n        /* \"#utility.yul\":10287:10333   */\n      swap2\n      pop\n        /* \"#utility.yul\":10054:10339   */\n      pop\n        /* \"#utility.yul\":9962:10339   */\n      swap3\n      swap2\n      pop\n      pop\n      jump\t// out\n        /* \"#utility.yul\":10345:10463   */\n    tag_132:\n        /* \"#utility.yul\":10432:10456   */\n      tag_244\n        /* \"#utility.yul\":10450:10455   */\n      dup2\n        /* \"#utility.yul\":10432:10456   */\n      tag_109\n      jump\t// in\n    tag_244:\n        /* \"#utility.yul\":10427:10430   */\n      dup3\n        /* \"#utility.yul\":10420:10457   */\n      mstore\n        /* \"#utility.yul\":10345:10463   */\n      pop\n      pop\n      jump\t// out\n        /* \"#utility.yul\":10469:10892   */\n    tag_75:\n        /* \"#utility.yul\":10610:10614   */\n      0x00\n        /* \"#utility.yul\":10648:10650   */\n      0x40\n        /* \"#utility.yul\":10637:10646   */\n      dup3\n        /* \"#utility.yul\":10633:10651   */\n      add\n        /* \"#utility.yul\":10625:10651   */\n      swap1\n      pop\n        /* \"#utility.yul\":10697:10706   */\n      dup2\n        /* \"#utility.yul\":10691:10695   */\n      dup2\n        /* \"#utility.yul\":10687:10707   */\n      sub\n        /* \"#utility.yul\":10683:10684   */\n      0x00\n        /* \"#utility.yul\":10672:10681   */\n      dup4\n        /* \"#utility.yul\":10668:10685   */\n      add\n        /* \"#utility.yul\":10661:10708   */\n      mstore\n        /* \"#utility.yul\":10725:10803   */\n      tag_246\n        /* \"#utility.yul\":10798:10802   */\n      dup2\n        /* \"#utility.yul\":10789:10795   */\n      dup6\n        /* \"#utility.yul\":10725:10803   */\n      tag_131\n      jump\t// in\n    tag_246:\n        /* \"#utility.yul\":10717:10803   */\n      swap1\n      pop\n        /* \"#utility.yul\":10813:10885   */\n      tag_247\n        /* \"#utility.yul\":10881:10883   */\n      0x20\n        /* \"#utility.yul\":10870:10879   */\n      dup4\n        /* \"#utility.yul\":10866:10884   */\n      add\n        /* \"#utility.yul\":10857:10863   */\n      dup5\n        /* \"#utility.yul\":10813:10885   */\n      tag_132\n      jump\t// in\n    tag_247:\n        /* \"#utility.yul\":10469:10892   */\n      swap4\n      swap3\n      pop\n      pop\n      pop\n      jump\t// out\n\n    auxdata: 0xa26469706673582212207a854d6afaa793895faa69e295c96adbbf3988a3dc6fdff002e9bbc851a0c44b64736f6c63430008180033\n}\n",
				"bytecode": {
					"linkReferences": {},
					"object": "608060405234801561000f575f80fd5b50610aee8061001d5f395ff3fe608060405234801561000f575f80fd5b506004361061004a575f3560e01c80632081ac801461004e5780634e71d92d1461007e5780635e6fced71461009c578063c8271a88146100cc575b5f80fd5b610068600480360381019061006391906106c1565b6100fc565b6040516100759190610735565b60405180910390f35b610086610121565b6040516100939190610735565b60405180910390f35b6100b660048036038101906100b1919061074e565b61013a565b6040516100c391906107ad565b60405180910390f35b6100e660048036038101906100e1919061074e565b61015c565b6040516100f3919061087d565b60405180910390f35b5f610119838361010a61017f565b6101bb9092919063ffffffff16565b905092915050565b5f61013261012d61017f565b6101f8565b506001905090565b5f6101558261014761017f565b6102c290919063ffffffff16565b9050919050565b60606101788261016a61017f565b6102f490919063ffffffff16565b9050919050565b5f8060017f43ade7009d4d0d9029c7d898feccf8aa5851482f139fb4b86f5fad8ca63262915f1c6101b091906108ca565b5f1b90508091505090565b5f6101ef82855f015f01856040516101d39190610969565b908152602001604051809103902061032790919063ffffffff16565b90509392505050565b5f80610239836040518060400160405280600181526020017f2a000000000000000000000000000000000000000000000000000000000000008152506102c2565b14610279576040517f08c379a000000000000000000000000000000000000000000000000000000000815260040161027090610a25565b60405180910390fd5b6102b9826040518060400160405280600181526020017f2a0000000000000000000000000000000000000000000000000000000000000081525033610354565b50819050919050565b5f6102ec835f015f01836040516102d99190610969565b90815260200160405180910390206103cc565b905092915050565b606061031f835f015f018360405161030c9190610969565b90815260200160405180910390206103df565b905092915050565b5f61034c835f018373ffffffffffffffffffffffffffffffffffffffff165f1b6103fe565b905092915050565b5f61038882855f015f018560405161036c9190610969565b908152602001604051809103902061041e90919063ffffffff16565b507f426257855659ac73f28deaf0574d8b1de5afe800ef2886221a2c5a9325c01c5283836040516103ba929190610a8a565b60405180910390a18390509392505050565b5f6103d8825f0161044b565b9050919050565b60605f6103ed835f0161045a565b905060608190508092505050919050565b5f80836001015f8481526020019081526020015f20541415905092915050565b5f610443835f018373ffffffffffffffffffffffffffffffffffffffff165f1b6104b3565b905092915050565b5f815f01805490509050919050565b6060815f018054806020026020016040519081016040528092919081815260200182805480156104a757602002820191905f5260205f20905b815481526020019060010190808311610493575b50505050509050919050565b5f6104be83836103fe565b61051057825f0182908060018154018082558091505060019003905f5260205f20015f9091909190915055825f0180549050836001015f8481526020019081526020015f208190555060019050610514565b5f90505b92915050565b5f604051905090565b5f80fd5b5f80fd5b5f80fd5b5f80fd5b5f601f19601f8301169050919050565b7f4e487b71000000000000000000000000000000000000000000000000000000005f52604160045260245ffd5b61057982610533565b810181811067ffffffffffffffff8211171561059857610597610543565b5b80604052505050565b5f6105aa61051a565b90506105b68282610570565b919050565b5f67ffffffffffffffff8211156105d5576105d4610543565b5b6105de82610533565b9050602081019050919050565b828183375f83830152505050565b5f61060b610606846105bb565b6105a1565b9050828152602081018484840111156106275761062661052f565b5b6106328482856105eb565b509392505050565b5f82601f83011261064e5761064d61052b565b5b813561065e8482602086016105f9565b91505092915050565b5f73ffffffffffffffffffffffffffffffffffffffff82169050919050565b5f61069082610667565b9050919050565b6106a081610686565b81146106aa575f80fd5b50565b5f813590506106bb81610697565b92915050565b5f80604083850312156106d7576106d6610523565b5b5f83013567ffffffffffffffff8111156106f4576106f3610527565b5b6107008582860161063a565b9250506020610711858286016106ad565b9150509250929050565b5f8115159050919050565b61072f8161071b565b82525050565b5f6020820190506107485f830184610726565b92915050565b5f6020828403121561076357610762610523565b5b5f82013567ffffffffffffffff8111156107805761077f610527565b5b61078c8482850161063a565b91505092915050565b5f819050919050565b6107a781610795565b82525050565b5f6020820190506107c05f83018461079e565b92915050565b5f81519050919050565b5f82825260208201905092915050565b5f819050602082019050919050565b6107f881610686565b82525050565b5f61080983836107ef565b60208301905092915050565b5f602082019050919050565b5f61082b826107c6565b61083581856107d0565b9350610840836107e0565b805f5b8381101561087057815161085788826107fe565b975061086283610815565b925050600181019050610843565b5085935050505092915050565b5f6020820190508181035f8301526108958184610821565b905092915050565b7f4e487b71000000000000000000000000000000000000000000000000000000005f52601160045260245ffd5b5f6108d482610795565b91506108df83610795565b92508282039050818111156108f7576108f661089d565b5b92915050565b5f81519050919050565b5f81905092915050565b5f5b8381101561092e578082015181840152602081019050610913565b5f8484015250505050565b5f610943826108fd565b61094d8185610907565b935061095d818560208601610911565b80840191505092915050565b5f6109748284610939565b915081905092915050565b5f82825260208201905092915050565b7f4175746853746f726167654c6962726172793a2063616e6e6f74206f6e6c79205f8201527f6772616e742074686520272a2720726f6c65207768656e20746865726520617260208201527f65206e6f206d656d626572730000000000000000000000000000000000000000604082015250565b5f610a0f604c8361097f565b9150610a1a8261098f565b606082019050919050565b5f6020820190508181035f830152610a3c81610a03565b9050919050565b5f610a4d826108fd565b610a57818561097f565b9350610a67818560208601610911565b610a7081610533565b840191505092915050565b610a8481610686565b82525050565b5f6040820190508181035f830152610aa28185610a43565b9050610ab16020830184610a7b565b939250505056fea26469706673582212207a854d6afaa793895faa69e295c96adbbf3988a3dc6fdff002e9bbc851a0c44b64736f6c63430008180033",
					"opcodes": "PUSH1 0x80 PUSH1 0x40 MSTORE CALLVALUE DUP1 ISZERO PUSH2 0xF JUMPI PUSH0 DUP1 REVERT JUMPDEST POP PUSH2 0xAEE DUP1 PUSH2 0x1D PUSH0 CODECOPY PUSH0 RETURN INVALID PUSH1 0x80 PUSH1 0x40 MSTORE CALLVALUE DUP1 ISZERO PUSH2 0xF JUMPI PUSH0 DUP1 REVERT JUMPDEST POP PUSH1 0x4 CALLDATASIZE LT PUSH2 0x4A JUMPI PUSH0 CALLDATALOAD PUSH1 0xE0 SHR DUP1 PUSH4 0x2081AC80 EQ PUSH2 0x4E JUMPI DUP1 PUSH4 0x4E71D92D EQ PUSH2 0x7E JUMPI DUP1 PUSH4 0x5E6FCED7 EQ PUSH2 0x9C JUMPI DUP1 PUSH4 0xC8271A88 EQ PUSH2 0xCC JUMPI JUMPDEST PUSH0 DUP1 REVERT JUMPDEST PUSH2 0x68 PUSH1 0x4 DUP1 CALLDATASIZE SUB DUP2 ADD SWAP1 PUSH2 0x63 SWAP2 SWAP1 PUSH2 0x6C1 JUMP JUMPDEST PUSH2 0xFC JUMP JUMPDEST PUSH1 0x40 MLOAD PUSH2 0x75 SWAP2 SWAP1 PUSH2 0x735 JUMP JUMPDEST PUSH1 0x40 MLOAD DUP1 SWAP2 SUB SWAP1 RETURN JUMPDEST PUSH2 0x86 PUSH2 0x121 JUMP JUMPDEST PUSH1 0x40 MLOAD PUSH2 0x93 SWAP2 SWAP1 PUSH2 0x735 JUMP JUMPDEST PUSH1 0x40 MLOAD DUP1 SWAP2 SUB SWAP1 RETURN JUMPDEST PUSH2 0xB6 PUSH1 0x4 DUP1 CALLDATASIZE SUB DUP2 ADD SWAP1 PUSH2 0xB1 SWAP2 SWAP1 PUSH2 0x74E JUMP JUMPDEST PUSH2 0x13A JUMP JUMPDEST PUSH1 0x40 MLOAD PUSH2 0xC3 SWAP2 SWAP1 PUSH2 0x7AD JUMP JUMPDEST PUSH1 0x40 MLOAD DUP1 SWAP2 SUB SWAP1 RETURN JUMPDEST PUSH2 0xE6 PUSH1 0x4 DUP1 CALLDATASIZE SUB DUP2 ADD SWAP1 PUSH2 0xE1 SWAP2 SWAP1 PUSH2 0x74E JUMP JUMPDEST PUSH2 0x15C JUMP JUMPDEST PUSH1 0x40 MLOAD PUSH2 0xF3 SWAP2 SWAP1 PUSH2 0x87D JUMP JUMPDEST PUSH1 0x40 MLOAD DUP1 SWAP2 SUB SWAP1 RETURN JUMPDEST PUSH0 PUSH2 0x119 DUP4 DUP4 PUSH2 0x10A PUSH2 0x17F JUMP JUMPDEST PUSH2 0x1BB SWAP1 SWAP3 SWAP2 SWAP1 PUSH4 0xFFFFFFFF AND JUMP JUMPDEST SWAP1 POP SWAP3 SWAP2 POP POP JUMP JUMPDEST PUSH0 PUSH2 0x132 PUSH2 0x12D PUSH2 0x17F JUMP JUMPDEST PUSH2 0x1F8 JUMP JUMPDEST POP PUSH1 0x1 SWAP1 POP SWAP1 JUMP JUMPDEST PUSH0 PUSH2 0x155 DUP3 PUSH2 0x147 PUSH2 0x17F JUMP JUMPDEST PUSH2 0x2C2 SWAP1 SWAP2 SWAP1 PUSH4 0xFFFFFFFF AND JUMP JUMPDEST SWAP1 POP SWAP2 SWAP1 POP JUMP JUMPDEST PUSH1 0x60 PUSH2 0x178 DUP3 PUSH2 0x16A PUSH2 0x17F JUMP JUMPDEST PUSH2 0x2F4 SWAP1 SWAP2 SWAP1 PUSH4 0xFFFFFFFF AND JUMP JUMPDEST SWAP1 POP SWAP2 SWAP1 POP JUMP JUMPDEST PUSH0 DUP1 PUSH1 0x1 PUSH32 0x43ADE7009D4D0D9029C7D898FECCF8AA5851482F139FB4B86F5FAD8CA6326291 PUSH0 SHR PUSH2 0x1B0 SWAP2 SWAP1 PUSH2 0x8CA JUMP JUMPDEST PUSH0 SHL SWAP1 POP DUP1 SWAP2 POP POP SWAP1 JUMP JUMPDEST PUSH0 PUSH2 0x1EF DUP3 DUP6 PUSH0 ADD PUSH0 ADD DUP6 PUSH1 0x40 MLOAD PUSH2 0x1D3 SWAP2 SWAP1 PUSH2 0x969 JUMP JUMPDEST SWAP1 DUP2 MSTORE PUSH1 0x20 ADD PUSH1 0x40 MLOAD DUP1 SWAP2 SUB SWAP1 KECCAK256 PUSH2 0x327 SWAP1 SWAP2 SWAP1 PUSH4 0xFFFFFFFF AND JUMP JUMPDEST SWAP1 POP SWAP4 SWAP3 POP POP POP JUMP JUMPDEST PUSH0 DUP1 PUSH2 0x239 DUP4 PUSH1 0x40 MLOAD DUP1 PUSH1 0x40 ADD PUSH1 0x40 MSTORE DUP1 PUSH1 0x1 DUP2 MSTORE PUSH1 0x20 ADD PUSH32 0x2A00000000000000000000000000000000000000000000000000000000000000 DUP2 MSTORE POP PUSH2 0x2C2 JUMP JUMPDEST EQ PUSH2 0x279 JUMPI PUSH1 0x40 MLOAD PUSH32 0x8C379A000000000000000000000000000000000000000000000000000000000 DUP2 MSTORE PUSH1 0x4 ADD PUSH2 0x270 SWAP1 PUSH2 0xA25 JUMP JUMPDEST PUSH1 0x40 MLOAD DUP1 SWAP2 SUB SWAP1 REVERT JUMPDEST PUSH2 0x2B9 DUP3 PUSH1 0x40 MLOAD DUP1 PUSH1 0x40 ADD PUSH1 0x40 MSTORE DUP1 PUSH1 0x1 DUP2 MSTORE PUSH1 0x20 ADD PUSH32 0x2A00000000000000000000000000000000000000000000000000000000000000 DUP2 MSTORE POP CALLER PUSH2 0x354 JUMP JUMPDEST POP DUP2 SWAP1 POP SWAP2 SWAP1 POP JUMP JUMPDEST PUSH0 PUSH2 0x2EC DUP4 PUSH0 ADD PUSH0 ADD DUP4 PUSH1 0x40 MLOAD PUSH2 0x2D9 SWAP2 SWAP1 PUSH2 0x969 JUMP JUMPDEST SWAP1 DUP2 MSTORE PUSH1 0x20 ADD PUSH1 0x40 MLOAD DUP1 SWAP2 SUB SWAP1 KECCAK256 PUSH2 0x3CC JUMP JUMPDEST SWAP1 POP SWAP3 SWAP2 POP POP JUMP JUMPDEST PUSH1 0x60 PUSH2 0x31F DUP4 PUSH0 ADD PUSH0 ADD DUP4 PUSH1 0x40 MLOAD PUSH2 0x30C SWAP2 SWAP1 PUSH2 0x969 JUMP JUMPDEST SWAP1 DUP2 MSTORE PUSH1 0x20 ADD PUSH1 0x40 MLOAD DUP1 SWAP2 SUB SWAP1 KECCAK256 PUSH2 0x3DF JUMP JUMPDEST SWAP1 POP SWAP3 SWAP2 POP POP JUMP JUMPDEST PUSH0 PUSH2 0x34C DUP4 PUSH0 ADD DUP4 PUSH20 0xFFFFFFFFFFFFFFFFFFFFFFFFFFFFFFFFFFFFFFFF AND PUSH0 SHL PUSH2 0x3FE JUMP JUMPDEST SWAP1 POP SWAP3 SWAP2 POP POP JUMP JUMPDEST PUSH0 PUSH2 0x388 DUP3 DUP6 PUSH0 ADD PUSH0 ADD DUP6 PUSH1 0x40 MLOAD PUSH2 0x36C SWAP2 SWAP1 PUSH2 0x969 JUMP JUMPDEST SWAP1 DUP2 MSTORE PUSH1 0x20 ADD PUSH1 0x40 MLOAD DUP1 SWAP2 SUB SWAP1 KECCAK256 PUSH2 0x41E SWAP1 SWAP2 SWAP1 PUSH4 0xFFFFFFFF AND JUMP JUMPDEST POP PUSH32 0x426257855659AC73F28DEAF0574D8B1DE5AFE800EF2886221A2C5A9325C01C52 DUP4 DUP4 PUSH1 0x40 MLOAD PUSH2 0x3BA SWAP3 SWAP2 SWAP1 PUSH2 0xA8A JUMP JUMPDEST PUSH1 0x40 MLOAD DUP1 SWAP2 SUB SWAP1 LOG1 DUP4 SWAP1 POP SWAP4 SWAP3 POP POP POP JUMP JUMPDEST PUSH0 PUSH2 0x3D8 DUP3 PUSH0 ADD PUSH2 0x44B JUMP JUMPDEST SWAP1 POP SWAP2 SWAP1 POP JUMP JUMPDEST PUSH1 0x60 PUSH0 PUSH2 0x3ED DUP4 PUSH0 ADD PUSH2 0x45A JUMP JUMPDEST SWAP1 POP PUSH1 0x60 DUP2 SWAP1 POP DUP1 SWAP3 POP POP POP SWAP2 SWAP1 POP JUMP JUMPDEST PUSH0 DUP1 DUP4 PUSH1 0x1 ADD PUSH0 DUP5 DUP2 MSTORE PUSH1 0x20 ADD SWAP1 DUP2 MSTORE PUSH1 0x20 ADD PUSH0 KECCAK256 SLOAD EQ ISZERO SWAP1 POP SWAP3 SWAP2 POP POP JUMP JUMPDEST PUSH0 PUSH2 0x443 DUP4 PUSH0 ADD DUP4 PUSH20 0xFFFFFFFFFFFFFFFFFFFFFFFFFFFFFFFFFFFFFFFF AND PUSH0 SHL PUSH2 0x4B3 JUMP JUMPDEST SWAP1 POP SWAP3 SWAP2 POP POP JUMP JUMPDEST PUSH0 DUP2 PUSH0 ADD DUP1 SLOAD SWAP1 POP SWAP1 POP SWAP2 SWAP1 POP JUMP JUMPDEST PUSH1 0x60 DUP2 PUSH0 ADD DUP1 SLOAD DUP1 PUSH1 0x20 MUL PUSH1 0x20 ADD PUSH1 0x40 MLOAD SWAP1 DUP2 ADD PUSH1 0x40 MSTORE DUP1 SWAP3 SWAP2 SWAP1 DUP2 DUP2 MSTORE PUSH1 0x20 ADD DUP3 DUP1 SLOAD DUP1 ISZERO PUSH2 0x4A7 JUMPI PUSH1 0x20 MUL DUP3 ADD SWAP2 SWAP1 PUSH0 MSTORE PUSH1 0x20 PUSH0 KECCAK256 SWAP1 JUMPDEST DUP2 SLOAD DUP2 MSTORE PUSH1 0x20 ADD SWAP1 PUSH1 0x1 ADD SWAP1 DUP1 DUP4 GT PUSH2 0x493 JUMPI JUMPDEST POP POP POP POP POP SWAP1 POP SWAP2 SWAP1 POP JUMP JUMPDEST PUSH0 PUSH2 0x4BE DUP4 DUP4 PUSH2 0x3FE JUMP JUMPDEST PUSH2 0x510 JUMPI DUP3 PUSH0 ADD DUP3 SWAP1 DUP1 PUSH1 0x1 DUP2 SLOAD ADD DUP1 DUP3 SSTORE DUP1 SWAP2 POP POP PUSH1 0x1 SWAP1 SUB SWAP1 PUSH0 MSTORE PUSH1 0x20 PUSH0 KECCAK256 ADD PUSH0 SWAP1 SWAP2 SWAP1 SWAP2 SWAP1 SWAP2 POP SSTORE DUP3 PUSH0 ADD DUP1 SLOAD SWAP1 POP DUP4 PUSH1 0x1 ADD PUSH0 DUP5 DUP2 MSTORE PUSH1 0x20 ADD SWAP1 DUP2 MSTORE PUSH1 0x20 ADD PUSH0 KECCAK256 DUP2 SWAP1 SSTORE POP PUSH1 0x1 SWAP1 POP PUSH2 0x514 JUMP JUMPDEST PUSH0 SWAP1 POP JUMPDEST SWAP3 SWAP2 POP POP JUMP JUMPDEST PUSH0 PUSH1 0x40 MLOAD SWAP1 POP SWAP1 JUMP JUMPDEST PUSH0 DUP1 REVERT JUMPDEST PUSH0 DUP1 REVERT JUMPDEST PUSH0 DUP1 REVERT JUMPDEST PUSH0 DUP1 REVERT JUMPDEST PUSH0 PUSH1 0x1F NOT PUSH1 0x1F DUP4 ADD AND SWAP1 POP SWAP2 SWAP1 POP JUMP JUMPDEST PUSH32 0x4E487B7100000000000000000000000000000000000000000000000000000000 PUSH0 MSTORE PUSH1 0x41 PUSH1 0x4 MSTORE PUSH1 0x24 PUSH0 REVERT JUMPDEST PUSH2 0x579 DUP3 PUSH2 0x533 JUMP JUMPDEST DUP2 ADD DUP2 DUP2 LT PUSH8 0xFFFFFFFFFFFFFFFF DUP3 GT OR ISZERO PUSH2 0x598 JUMPI PUSH2 0x597 PUSH2 0x543 JUMP JUMPDEST JUMPDEST DUP1 PUSH1 0x40 MSTORE POP POP POP JUMP JUMPDEST PUSH0 PUSH2 0x5AA PUSH2 0x51A JUMP JUMPDEST SWAP1 POP PUSH2 0x5B6 DUP3 DUP3 PUSH2 0x570 JUMP JUMPDEST SWAP2 SWAP1 POP JUMP JUMPDEST PUSH0 PUSH8 0xFFFFFFFFFFFFFFFF DUP3 GT ISZERO PUSH2 0x5D5 JUMPI PUSH2 0x5D4 PUSH2 0x543 JUMP JUMPDEST JUMPDEST PUSH2 0x5DE DUP3 PUSH2 0x533 JUMP JUMPDEST SWAP1 POP PUSH1 0x20 DUP2 ADD SWAP1 POP SWAP2 SWAP1 POP JUMP JUMPDEST DUP3 DUP2 DUP4 CALLDATACOPY PUSH0 DUP4 DUP4 ADD MSTORE POP POP POP JUMP JUMPDEST PUSH0 PUSH2 0x60B PUSH2 0x606 DUP5 PUSH2 0x5BB JUMP JUMPDEST PUSH2 0x5A1 JUMP JUMPDEST SWAP1 POP DUP3 DUP2 MSTORE PUSH1 0x20 DUP2 ADD DUP5 DUP5 DUP5 ADD GT ISZERO PUSH2 0x627 JUMPI PUSH2 0x626 PUSH2 0x52F JUMP JUMPDEST JUMPDEST PUSH2 0x632 DUP5 DUP3 DUP6 PUSH2 0x5EB JUMP JUMPDEST POP SWAP4 SWAP3 POP POP POP JUMP JUMPDEST PUSH0 DUP3 PUSH1 0x1F DUP4 ADD SLT PUSH2 0x64E JUMPI PUSH2 0x64D PUSH2 0x52B JUMP JUMPDEST JUMPDEST DUP2 CALLDATALOAD PUSH2 0x65E DUP5 DUP3 PUSH1 0x20 DUP7 ADD PUSH2 0x5F9 JUMP JUMPDEST SWAP2 POP POP SWAP3 SWAP2 POP POP JUMP JUMPDEST PUSH0 PUSH20 0xFFFFFFFFFFFFFFFFFFFFFFFFFFFFFFFFFFFFFFFF DUP3 AND SWAP1 POP SWAP2 SWAP1 POP JUMP JUMPDEST PUSH0 PUSH2 0x690 DUP3 PUSH2 0x667 JUMP JUMPDEST SWAP1 POP SWAP2 SWAP1 POP JUMP JUMPDEST PUSH2 0x6A0 DUP2 PUSH2 0x686 JUMP JUMPDEST DUP2 EQ PUSH2 0x6AA JUMPI PUSH0 DUP1 REVERT JUMPDEST POP JUMP JUMPDEST PUSH0 DUP2 CALLDATALOAD SWAP1 POP PUSH2 0x6BB DUP2 PUSH2 0x697 JUMP JUMPDEST SWAP3 SWAP2 POP POP JUMP JUMPDEST PUSH0 DUP1 PUSH1 0x40 DUP4 DUP6 SUB SLT ISZERO PUSH2 0x6D7 JUMPI PUSH2 0x6D6 PUSH2 0x523 JUMP JUMPDEST JUMPDEST PUSH0 DUP4 ADD CALLDATALOAD PUSH8 0xFFFFFFFFFFFFFFFF DUP2 GT ISZERO PUSH2 0x6F4 JUMPI PUSH2 0x6F3 PUSH2 0x527 JUMP JUMPDEST JUMPDEST PUSH2 0x700 DUP6 DUP3 DUP7 ADD PUSH2 0x63A JUMP JUMPDEST SWAP3 POP POP PUSH1 0x20 PUSH2 0x711 DUP6 DUP3 DUP7 ADD PUSH2 0x6AD JUMP JUMPDEST SWAP2 POP POP SWAP3 POP SWAP3 SWAP1 POP JUMP JUMPDEST PUSH0 DUP2 ISZERO ISZERO SWAP1 POP SWAP2 SWAP1 POP JUMP JUMPDEST PUSH2 0x72F DUP2 PUSH2 0x71B JUMP JUMPDEST DUP3 MSTORE POP POP JUMP JUMPDEST PUSH0 PUSH1 0x20 DUP3 ADD SWAP1 POP PUSH2 0x748 PUSH0 DUP4 ADD DUP5 PUSH2 0x726 JUMP JUMPDEST SWAP3 SWAP2 POP POP JUMP JUMPDEST PUSH0 PUSH1 0x20 DUP3 DUP5 SUB SLT ISZERO PUSH2 0x763 JUMPI PUSH2 0x762 PUSH2 0x523 JUMP JUMPDEST JUMPDEST PUSH0 DUP3 ADD CALLDATALOAD PUSH8 0xFFFFFFFFFFFFFFFF DUP2 GT ISZERO PUSH2 0x780 JUMPI PUSH2 0x77F PUSH2 0x527 JUMP JUMPDEST JUMPDEST PUSH2 0x78C DUP5 DUP3 DUP6 ADD PUSH2 0x63A JUMP JUMPDEST SWAP2 POP POP SWAP3 SWAP2 POP POP JUMP JUMPDEST PUSH0 DUP2 SWAP1 POP SWAP2 SWAP1 POP JUMP JUMPDEST PUSH2 0x7A7 DUP2 PUSH2 0x795 JUMP JUMPDEST DUP3 MSTORE POP POP JUMP JUMPDEST PUSH0 PUSH1 0x20 DUP3 ADD SWAP1 POP PUSH2 0x7C0 PUSH0 DUP4 ADD DUP5 PUSH2 0x79E JUMP JUMPDEST SWAP3 SWAP2 POP POP JUMP JUMPDEST PUSH0 DUP2 MLOAD SWAP1 POP SWAP2 SWAP1 POP JUMP JUMPDEST PUSH0 DUP3 DUP3 MSTORE PUSH1 0x20 DUP3 ADD SWAP1 POP SWAP3 SWAP2 POP POP JUMP JUMPDEST PUSH0 DUP2 SWAP1 POP PUSH1 0x20 DUP3 ADD SWAP1 POP SWAP2 SWAP1 POP JUMP JUMPDEST PUSH2 0x7F8 DUP2 PUSH2 0x686 JUMP JUMPDEST DUP3 MSTORE POP POP JUMP JUMPDEST PUSH0 PUSH2 0x809 DUP4 DUP4 PUSH2 0x7EF JUMP JUMPDEST PUSH1 0x20 DUP4 ADD SWAP1 POP SWAP3 SWAP2 POP POP JUMP JUMPDEST PUSH0 PUSH1 0x20 DUP3 ADD SWAP1 POP SWAP2 SWAP1 POP JUMP JUMPDEST PUSH0 PUSH2 0x82B DUP3 PUSH2 0x7C6 JUMP JUMPDEST PUSH2 0x835 DUP2 DUP6 PUSH2 0x7D0 JUMP JUMPDEST SWAP4 POP PUSH2 0x840 DUP4 PUSH2 0x7E0 JUMP JUMPDEST DUP1 PUSH0 JUMPDEST DUP4 DUP2 LT ISZERO PUSH2 0x870 JUMPI DUP2 MLOAD PUSH2 0x857 DUP9 DUP3 PUSH2 0x7FE JUMP JUMPDEST SWAP8 POP PUSH2 0x862 DUP4 PUSH2 0x815 JUMP JUMPDEST SWAP3 POP POP PUSH1 0x1 DUP2 ADD SWAP1 POP PUSH2 0x843 JUMP JUMPDEST POP DUP6 SWAP4 POP POP POP POP SWAP3 SWAP2 POP POP JUMP JUMPDEST PUSH0 PUSH1 0x20 DUP3 ADD SWAP1 POP DUP2 DUP2 SUB PUSH0 DUP4 ADD MSTORE PUSH2 0x895 DUP2 DUP5 PUSH2 0x821 JUMP JUMPDEST SWAP1 POP SWAP3 SWAP2 POP POP JUMP JUMPDEST PUSH32 0x4E487B7100000000000000000000000000000000000000000000000000000000 PUSH0 MSTORE PUSH1 0x11 PUSH1 0x4 MSTORE PUSH1 0x24 PUSH0 REVERT JUMPDEST PUSH0 PUSH2 0x8D4 DUP3 PUSH2 0x795 JUMP JUMPDEST SWAP2 POP PUSH2 0x8DF DUP4 PUSH2 0x795 JUMP JUMPDEST SWAP3 POP DUP3 DUP3 SUB SWAP1 POP DUP2 DUP2 GT ISZERO PUSH2 0x8F7 JUMPI PUSH2 0x8F6 PUSH2 0x89D JUMP JUMPDEST JUMPDEST SWAP3 SWAP2 POP POP JUMP JUMPDEST PUSH0 DUP2 MLOAD SWAP1 POP SWAP2 SWAP1 POP JUMP JUMPDEST PUSH0 DUP2 SWAP1 POP SWAP3 SWAP2 POP POP JUMP JUMPDEST PUSH0 JUMPDEST DUP4 DUP2 LT ISZERO PUSH2 0x92E JUMPI DUP1 DUP3 ADD MLOAD DUP2 DUP5 ADD MSTORE PUSH1 0x20 DUP2 ADD SWAP1 POP PUSH2 0x913 JUMP JUMPDEST PUSH0 DUP5 DUP5 ADD MSTORE POP POP POP POP JUMP JUMPDEST PUSH0 PUSH2 0x943 DUP3 PUSH2 0x8FD JUMP JUMPDEST PUSH2 0x94D DUP2 DUP6 PUSH2 0x907 JUMP JUMPDEST SWAP4 POP PUSH2 0x95D DUP2 DUP6 PUSH1 0x20 DUP7 ADD PUSH2 0x911 JUMP JUMPDEST DUP1 DUP5 ADD SWAP2 POP POP SWAP3 SWAP2 POP POP JUMP JUMPDEST PUSH0 PUSH2 0x974 DUP3 DUP5 PUSH2 0x939 JUMP JUMPDEST SWAP2 POP DUP2 SWAP1 POP SWAP3 SWAP2 POP POP JUMP JUMPDEST PUSH0 DUP3 DUP3 MSTORE PUSH1 0x20 DUP3 ADD SWAP1 POP SWAP3 SWAP2 POP POP JUMP JUMPDEST PUSH32 0x4175746853746F726167654C6962726172793A2063616E6E6F74206F6E6C7920 PUSH0 DUP3 ADD MSTORE PUSH32 0x6772616E742074686520272A2720726F6C65207768656E207468657265206172 PUSH1 0x20 DUP3 ADD MSTORE PUSH32 0x65206E6F206D656D626572730000000000000000000000000000000000000000 PUSH1 0x40 DUP3 ADD MSTORE POP JUMP JUMPDEST PUSH0 PUSH2 0xA0F PUSH1 0x4C DUP4 PUSH2 0x97F JUMP JUMPDEST SWAP2 POP PUSH2 0xA1A DUP3 PUSH2 0x98F JUMP JUMPDEST PUSH1 0x60 DUP3 ADD SWAP1 POP SWAP2 SWAP1 POP JUMP JUMPDEST PUSH0 PUSH1 0x20 DUP3 ADD SWAP1 POP DUP2 DUP2 SUB PUSH0 DUP4 ADD MSTORE PUSH2 0xA3C DUP2 PUSH2 0xA03 JUMP JUMPDEST SWAP1 POP SWAP2 SWAP1 POP JUMP JUMPDEST PUSH0 PUSH2 0xA4D DUP3 PUSH2 0x8FD JUMP JUMPDEST PUSH2 0xA57 DUP2 DUP6 PUSH2 0x97F JUMP JUMPDEST SWAP4 POP PUSH2 0xA67 DUP2 DUP6 PUSH1 0x20 DUP7 ADD PUSH2 0x911 JUMP JUMPDEST PUSH2 0xA70 DUP2 PUSH2 0x533 JUMP JUMPDEST DUP5 ADD SWAP2 POP POP SWAP3 SWAP2 POP POP JUMP JUMPDEST PUSH2 0xA84 DUP2 PUSH2 0x686 JUMP JUMPDEST DUP3 MSTORE POP POP JUMP JUMPDEST PUSH0 PUSH1 0x40 DUP3 ADD SWAP1 POP DUP2 DUP2 SUB PUSH0 DUP4 ADD MSTORE PUSH2 0xAA2 DUP2 DUP6 PUSH2 0xA43 JUMP JUMPDEST SWAP1 POP PUSH2 0xAB1 PUSH1 0x20 DUP4 ADD DUP5 PUSH2 0xA7B JUMP JUMPDEST SWAP4 SWAP3 POP POP POP JUMP INVALID LOG2 PUSH5 0x6970667358 0x22 SLT KECCAK256 PUSH27 0x854D6AFAA793895FAA69E295C96ADBBF3988A3DC6FDFF002E9BBC8 MLOAD LOG0 0xC4 0x4B PUSH5 0x736F6C6343 STOP ADDMOD XOR STOP CALLER "
				},
				"gasEstimates": {
					"creation": {
						"codeDepositCost": "559600",
						"executionCost": "592",
						"totalCost": "560192"
					},
					"external": {
						"claim()": "infinite",
						"isMemberOf(string,address)": "infinite",
						"membersLengthOf(string)": "infinite",
						"membersOf(string)": "infinite"
					}
				},
				"methodIdentifiers": {
					"claim()": "4e71d92d",
					"isMemberOf(string,address)": "2081ac80",
					"membersLengthOf(string)": "5e6fced7",
					"membersOf(string)": "c8271a88"
				}
			},
			"storageLayout": {
				"storage": [],
				"types": null
			},
			"userdoc": {
				"kind": "user",
				"methods": {},
				"version": 1
			}
		}
	}
}