{
	"code/contract/sol/native/facet/RootAccessFacet.sol": {
		"RootAccessFacet": {
			"abi": [
				{
					"inputs": [
						{
							"internalType": "address",
							"name": "account",
							"type": "address"
						},
						{
							"internalType": "string",
							"name": "missingRole",
							"type": "string"
						}
					],
					"name": "MissingRole",
					"type": "error"
				},
				{
					"anonymous": false,
					"inputs": [
						{
							"indexed": false,
							"internalType": "string",
							"name": "name",
							"type": "string"
						}
					],
					"name": "ChangedTokenName",
					"type": "event"
				},
				{
					"anonymous": false,
					"inputs": [
						{
							"indexed": false,
							"internalType": "string",
							"name": "symbol",
							"type": "string"
						}
					],
					"name": "ChangedTokenSymbol",
					"type": "event"
				},
				{
					"anonymous": false,
					"inputs": [
						{
							"indexed": false,
							"internalType": "string",
							"name": "role",
							"type": "string"
						},
						{
							"indexed": false,
							"internalType": "address",
							"name": "account",
							"type": "address"
						}
					],
					"name": "GrantedRole",
					"type": "event"
				},
				{
					"anonymous": false,
					"inputs": [
						{
							"indexed": false,
							"internalType": "string",
							"name": "role",
							"type": "string"
						},
						{
							"indexed": false,
							"internalType": "address",
							"name": "account",
							"type": "address"
						}
					],
					"name": "RevokedRole",
					"type": "event"
				},
				{
					"anonymous": false,
					"inputs": [
						{
							"indexed": true,
							"internalType": "address",
							"name": "from",
							"type": "address"
						},
						{
							"indexed": true,
							"internalType": "address",
							"name": "to",
							"type": "address"
						},
						{
							"indexed": false,
							"internalType": "uint256",
							"name": "amount",
							"type": "uint256"
						}
					],
					"name": "Transfer",
					"type": "event"
				},
				{
					"inputs": [
						{
							"internalType": "address",
							"name": "account",
							"type": "address"
						},
						{
							"internalType": "uint256",
							"name": "amount",
							"type": "uint256"
						}
					],
					"name": "burn",
					"outputs": [
						{
							"internalType": "bool",
							"name": "",
							"type": "bool"
						}
					],
					"stateMutability": "nonpayable",
					"type": "function"
				},
				{
					"inputs": [
						{
							"internalType": "string",
							"name": "role",
							"type": "string"
						},
						{
							"internalType": "address",
							"name": "account",
							"type": "address"
						}
					],
					"name": "grantRoleTo",
					"outputs": [
						{
							"internalType": "bool",
							"name": "",
							"type": "bool"
						}
					],
					"stateMutability": "nonpayable",
					"type": "function"
				},
				{
					"inputs": [
						{
							"internalType": "address",
							"name": "account",
							"type": "address"
						},
						{
							"internalType": "uint256",
							"name": "amount",
							"type": "uint256"
						}
					],
					"name": "mint",
					"outputs": [
						{
							"internalType": "bool",
							"name": "",
							"type": "bool"
						}
					],
					"stateMutability": "nonpayable",
					"type": "function"
				},
				{
					"inputs": [
						{
							"internalType": "string",
							"name": "role",
							"type": "string"
						},
						{
							"internalType": "address",
							"name": "account",
							"type": "address"
						}
					],
					"name": "revokeRoleFrom",
					"outputs": [
						{
							"internalType": "bool",
							"name": "",
							"type": "bool"
						}
					],
					"stateMutability": "nonpayable",
					"type": "function"
				},
				{
					"inputs": [
						{
							"internalType": "string",
							"name": "name",
							"type": "string"
						}
					],
					"name": "setName",
					"outputs": [
						{
							"internalType": "bool",
							"name": "",
							"type": "bool"
						}
					],
					"stateMutability": "nonpayable",
					"type": "function"
				},
				{
					"inputs": [
						{
							"internalType": "string",
							"name": "symbol",
							"type": "string"
						}
					],
					"name": "setSymbol",
					"outputs": [
						{
							"internalType": "bool",
							"name": "",
							"type": "bool"
						}
					],
					"stateMutability": "nonpayable",
					"type": "function"
				}
			],
			"devdoc": {
				"kind": "dev",
				"methods": {},
				"version": 1
			},
			"evm": {
				"assembly": "    /* \"code/contract/sol/native/facet/RootAccessFacet.sol\":144:1397  contract RootAccessFacet is AuthStorage, TokenStorage {... */\n  mstore(0x40, 0x80)\n  callvalue\n  dup1\n  iszero\n  tag_1\n  jumpi\n  0x00\n  dup1\n  revert\ntag_1:\n  pop\n  dataSize(sub_0)\n  dup1\n  dataOffset(sub_0)\n  0x00\n  codecopy\n  0x00\n  return\nstop\n\nsub_0: assembly {\n        /* \"code/contract/sol/native/facet/RootAccessFacet.sol\":144:1397  contract RootAccessFacet is AuthStorage, TokenStorage {... */\n      mstore(0x40, 0x80)\n      callvalue\n      dup1\n      iszero\n      tag_1\n      jumpi\n      0x00\n      dup1\n      revert\n    tag_1:\n      pop\n      jumpi(tag_2, lt(calldatasize, 0x04))\n      shr(0xe0, calldataload(0x00))\n      dup1\n      0x40c10f19\n      eq\n      tag_3\n      jumpi\n      dup1\n      0x92e73307\n      eq\n      tag_4\n      jumpi\n      dup1\n      0x9dc29fac\n      eq\n      tag_5\n      jumpi\n      dup1\n      0xb84c8246\n      eq\n      tag_6\n      jumpi\n      dup1\n      0xbb8a1aff\n      eq\n      tag_7\n      jumpi\n      dup1\n      0xc47f0027\n      eq\n      tag_8\n      jumpi\n    tag_2:\n      0x00\n      dup1\n      revert\n        /* \"code/contract/sol/native/facet/RootAccessFacet.sol\":638:811  function mint(address account, uint256 amount) external returns (bool) {... */\n    tag_3:\n      tag_9\n      0x04\n      dup1\n      calldatasize\n      sub\n      dup2\n      add\n      swap1\n      tag_10\n      swap2\n      swap1\n      tag_11\n      jump\t// in\n    tag_10:\n      tag_12\n      jump\t// in\n    tag_9:\n      mload(0x40)\n      tag_13\n      swap2\n      swap1\n      tag_14\n      jump\t// in\n    tag_13:\n      mload(0x40)\n      dup1\n      swap2\n      sub\n      swap1\n      return\n        /* \"code/contract/sol/native/facet/RootAccessFacet.sol\":996:1185  function grantRoleTo(string memory role, address account) external returns (bool) {... */\n    tag_4:\n      tag_15\n      0x04\n      dup1\n      calldatasize\n      sub\n      dup2\n      add\n      swap1\n      tag_16\n      swap2\n      swap1\n      tag_17\n      jump\t// in\n    tag_16:\n      tag_18\n      jump\t// in\n    tag_15:\n      mload(0x40)\n      tag_19\n      swap2\n      swap1\n      tag_14\n      jump\t// in\n    tag_19:\n      mload(0x40)\n      dup1\n      swap2\n      sub\n      swap1\n      return\n        /* \"code/contract/sol/native/facet/RootAccessFacet.sol\":817:990  function burn(address account, uint256 amount) external returns (bool) {... */\n    tag_5:\n      tag_20\n      0x04\n      dup1\n      calldatasize\n      sub\n      dup2\n      add\n      swap1\n      tag_21\n      swap2\n      swap1\n      tag_11\n      jump\t// in\n    tag_21:\n      tag_22\n      jump\t// in\n    tag_20:\n      mload(0x40)\n      tag_23\n      swap2\n      swap1\n      tag_14\n      jump\t// in\n    tag_23:\n      mload(0x40)\n      dup1\n      swap2\n      sub\n      swap1\n      return\n        /* \"code/contract/sol/native/facet/RootAccessFacet.sol\":469:632  function setSymbol(string memory symbol) external returns (bool) {... */\n    tag_6:\n      tag_24\n      0x04\n      dup1\n      calldatasize\n      sub\n      dup2\n      add\n      swap1\n      tag_25\n      swap2\n      swap1\n      tag_26\n      jump\t// in\n    tag_25:\n      tag_27\n      jump\t// in\n    tag_24:\n      mload(0x40)\n      tag_28\n      swap2\n      swap1\n      tag_14\n      jump\t// in\n    tag_28:\n      mload(0x40)\n      dup1\n      swap2\n      sub\n      swap1\n      return\n        /* \"code/contract/sol/native/facet/RootAccessFacet.sol\":1191:1395  function revokeRoleFrom(string memory role, address account) external returns (bool) {... */\n    tag_7:\n      tag_29\n      0x04\n      dup1\n      calldatasize\n      sub\n      dup2\n      add\n      swap1\n      tag_30\n      swap2\n      swap1\n      tag_17\n      jump\t// in\n    tag_30:\n      tag_31\n      jump\t// in\n    tag_29:\n      mload(0x40)\n      tag_32\n      swap2\n      swap1\n      tag_14\n      jump\t// in\n    tag_32:\n      mload(0x40)\n      dup1\n      swap2\n      sub\n      swap1\n      return\n        /* \"code/contract/sol/native/facet/RootAccessFacet.sol\":308:463  function setName(string memory name) external returns (bool) {... */\n    tag_8:\n      tag_33\n      0x04\n      dup1\n      calldatasize\n      sub\n      dup2\n      add\n      swap1\n      tag_34\n      swap2\n      swap1\n      tag_26\n      jump\t// in\n    tag_34:\n      tag_35\n      jump\t// in\n    tag_33:\n      mload(0x40)\n      tag_36\n      swap2\n      swap1\n      tag_14\n      jump\t// in\n    tag_36:\n      mload(0x40)\n      dup1\n      swap2\n      sub\n      swap1\n      return\n        /* \"code/contract/sol/native/facet/RootAccessFacet.sol\":638:811  function mint(address account, uint256 amount) external returns (bool) {... */\n    tag_12:\n        /* \"code/contract/sol/native/facet/RootAccessFacet.sol\":703:707  bool */\n      0x00\n        /* \"code/contract/sol/native/facet/RootAccessFacet.sol\":719:744  auth().onlyMembersOf(\"*\") */\n      tag_38\n      mload(0x40)\n      dup1\n      0x40\n      add\n      0x40\n      mstore\n      dup1\n      0x01\n      dup2\n      mstore\n      0x20\n      add\n      0x2a00000000000000000000000000000000000000000000000000000000000000\n      dup2\n      mstore\n      pop\n        /* \"code/contract/sol/native/facet/RootAccessFacet.sol\":719:725  auth() */\n      tag_39\n        /* \"code/contract/sol/native/facet/RootAccessFacet.sol\":719:723  auth */\n      tag_40\n        /* \"code/contract/sol/native/facet/RootAccessFacet.sol\":719:725  auth() */\n      jump\t// in\n    tag_39:\n        /* \"code/contract/sol/native/facet/RootAccessFacet.sol\":719:739  auth().onlyMembersOf */\n      tag_41\n      swap1\n        /* \"code/contract/sol/native/facet/RootAccessFacet.sol\":719:744  auth().onlyMembersOf(\"*\") */\n      swap2\n      swap1\n      0xffffffff\n      and\n      jump\t// in\n    tag_38:\n      pop\n        /* \"code/contract/sol/native/facet/RootAccessFacet.sol\":754:783  token().mint(account, amount) */\n      tag_42\n        /* \"code/contract/sol/native/facet/RootAccessFacet.sol\":767:774  account */\n      dup4\n        /* \"code/contract/sol/native/facet/RootAccessFacet.sol\":776:782  amount */\n      dup4\n        /* \"code/contract/sol/native/facet/RootAccessFacet.sol\":754:761  token() */\n      tag_43\n        /* \"code/contract/sol/native/facet/RootAccessFacet.sol\":754:759  token */\n      tag_44\n        /* \"code/contract/sol/native/facet/RootAccessFacet.sol\":754:761  token() */\n      jump\t// in\n    tag_43:\n        /* \"code/contract/sol/native/facet/RootAccessFacet.sol\":754:766  token().mint */\n      tag_45\n      swap1\n        /* \"code/contract/sol/native/facet/RootAccessFacet.sol\":754:783  token().mint(account, amount) */\n      swap3\n      swap2\n      swap1\n      0xffffffff\n      and\n      jump\t// in\n    tag_42:\n      pop\n        /* \"code/contract/sol/native/facet/RootAccessFacet.sol\":800:804  true */\n      0x01\n        /* \"code/contract/sol/native/facet/RootAccessFacet.sol\":793:804  return true */\n      swap1\n      pop\n        /* \"code/contract/sol/native/facet/RootAccessFacet.sol\":638:811  function mint(address account, uint256 amount) external returns (bool) {... */\n      swap3\n      swap2\n      pop\n      pop\n      jump\t// out\n        /* \"code/contract/sol/native/facet/RootAccessFacet.sol\":996:1185  function grantRoleTo(string memory role, address account) external returns (bool) {... */\n    tag_18:\n        /* \"code/contract/sol/native/facet/RootAccessFacet.sol\":1072:1076  bool */\n      0x00\n        /* \"code/contract/sol/native/facet/RootAccessFacet.sol\":1088:1157  auth()... */\n      tag_47\n        /* \"code/contract/sol/native/facet/RootAccessFacet.sol\":1152:1156  role */\n      dup4\n        /* \"code/contract/sol/native/facet/RootAccessFacet.sol\":1088:1126  auth()... */\n      tag_48\n      mload(0x40)\n      dup1\n      0x40\n      add\n      0x40\n      mstore\n      dup1\n      0x01\n      dup2\n      mstore\n      0x20\n      add\n      0x2a00000000000000000000000000000000000000000000000000000000000000\n      dup2\n      mstore\n      pop\n        /* \"code/contract/sol/native/facet/RootAccessFacet.sol\":1088:1094  auth() */\n      tag_49\n        /* \"code/contract/sol/native/facet/RootAccessFacet.sol\":1088:1092  auth */\n      tag_40\n        /* \"code/contract/sol/native/facet/RootAccessFacet.sol\":1088:1094  auth() */\n      jump\t// in\n    tag_49:\n        /* \"code/contract/sol/native/facet/RootAccessFacet.sol\":1088:1121  auth()... */\n      tag_41\n      swap1\n        /* \"code/contract/sol/native/facet/RootAccessFacet.sol\":1088:1126  auth()... */\n      swap2\n      swap1\n      0xffffffff\n      and\n      jump\t// in\n    tag_48:\n        /* \"code/contract/sol/native/facet/RootAccessFacet.sol\":1088:1151  auth()... */\n      tag_50\n      swap1\n        /* \"code/contract/sol/native/facet/RootAccessFacet.sol\":1088:1157  auth()... */\n      swap2\n      swap1\n      0xffffffff\n      and\n      jump\t// in\n    tag_47:\n      pop\n        /* \"code/contract/sol/native/facet/RootAccessFacet.sol\":1174:1178  true */\n      0x01\n        /* \"code/contract/sol/native/facet/RootAccessFacet.sol\":1167:1178  return true */\n      swap1\n      pop\n        /* \"code/contract/sol/native/facet/RootAccessFacet.sol\":996:1185  function grantRoleTo(string memory role, address account) external returns (bool) {... */\n      swap3\n      swap2\n      pop\n      pop\n      jump\t// out\n        /* \"code/contract/sol/native/facet/RootAccessFacet.sol\":817:990  function burn(address account, uint256 amount) external returns (bool) {... */\n    tag_22:\n        /* \"code/contract/sol/native/facet/RootAccessFacet.sol\":882:886  bool */\n      0x00\n        /* \"code/contract/sol/native/facet/RootAccessFacet.sol\":898:923  auth().onlyMembersOf(\"*\") */\n      tag_52\n      mload(0x40)\n      dup1\n      0x40\n      add\n      0x40\n      mstore\n      dup1\n      0x01\n      dup2\n      mstore\n      0x20\n      add\n      0x2a00000000000000000000000000000000000000000000000000000000000000\n      dup2\n      mstore\n      pop\n        /* \"code/contract/sol/native/facet/RootAccessFacet.sol\":898:904  auth() */\n      tag_53\n        /* \"code/contract/sol/native/facet/RootAccessFacet.sol\":898:902  auth */\n      tag_40\n        /* \"code/contract/sol/native/facet/RootAccessFacet.sol\":898:904  auth() */\n      jump\t// in\n    tag_53:\n        /* \"code/contract/sol/native/facet/RootAccessFacet.sol\":898:918  auth().onlyMembersOf */\n      tag_41\n      swap1\n        /* \"code/contract/sol/native/facet/RootAccessFacet.sol\":898:923  auth().onlyMembersOf(\"*\") */\n      swap2\n      swap1\n      0xffffffff\n      and\n      jump\t// in\n    tag_52:\n      pop\n        /* \"code/contract/sol/native/facet/RootAccessFacet.sol\":933:962  token().burn(account, amount) */\n      tag_54\n        /* \"code/contract/sol/native/facet/RootAccessFacet.sol\":946:953  account */\n      dup4\n        /* \"code/contract/sol/native/facet/RootAccessFacet.sol\":955:961  amount */\n      dup4\n        /* \"code/contract/sol/native/facet/RootAccessFacet.sol\":933:940  token() */\n      tag_55\n        /* \"code/contract/sol/native/facet/RootAccessFacet.sol\":933:938  token */\n      tag_44\n        /* \"code/contract/sol/native/facet/RootAccessFacet.sol\":933:940  token() */\n      jump\t// in\n    tag_55:\n        /* \"code/contract/sol/native/facet/RootAccessFacet.sol\":933:945  token().burn */\n      tag_56\n      swap1\n        /* \"code/contract/sol/native/facet/RootAccessFacet.sol\":933:962  token().burn(account, amount) */\n      swap3\n      swap2\n      swap1\n      0xffffffff\n      and\n      jump\t// in\n    tag_54:\n      pop\n        /* \"code/contract/sol/native/facet/RootAccessFacet.sol\":979:983  true */\n      0x01\n        /* \"code/contract/sol/native/facet/RootAccessFacet.sol\":972:983  return true */\n      swap1\n      pop\n        /* \"code/contract/sol/native/facet/RootAccessFacet.sol\":817:990  function burn(address account, uint256 amount) external returns (bool) {... */\n      swap3\n      swap2\n      pop\n      pop\n      jump\t// out\n        /* \"code/contract/sol/native/facet/RootAccessFacet.sol\":469:632  function setSymbol(string memory symbol) external returns (bool) {... */\n    tag_27:\n        /* \"code/contract/sol/native/facet/RootAccessFacet.sol\":528:532  bool */\n      0x00\n        /* \"code/contract/sol/native/facet/RootAccessFacet.sol\":544:569  auth().onlyMembersOf(\"*\") */\n      tag_58\n      mload(0x40)\n      dup1\n      0x40\n      add\n      0x40\n      mstore\n      dup1\n      0x01\n      dup2\n      mstore\n      0x20\n      add\n      0x2a00000000000000000000000000000000000000000000000000000000000000\n      dup2\n      mstore\n      pop\n        /* \"code/contract/sol/native/facet/RootAccessFacet.sol\":544:550  auth() */\n      tag_59\n        /* \"code/contract/sol/native/facet/RootAccessFacet.sol\":544:548  auth */\n      tag_40\n        /* \"code/contract/sol/native/facet/RootAccessFacet.sol\":544:550  auth() */\n      jump\t// in\n    tag_59:\n        /* \"code/contract/sol/native/facet/RootAccessFacet.sol\":544:564  auth().onlyMembersOf */\n      tag_41\n      swap1\n        /* \"code/contract/sol/native/facet/RootAccessFacet.sol\":544:569  auth().onlyMembersOf(\"*\") */\n      swap2\n      swap1\n      0xffffffff\n      and\n      jump\t// in\n    tag_58:\n      pop\n        /* \"code/contract/sol/native/facet/RootAccessFacet.sol\":579:604  token().setSymbol(symbol) */\n      tag_60\n        /* \"code/contract/sol/native/facet/RootAccessFacet.sol\":597:603  symbol */\n      dup3\n        /* \"code/contract/sol/native/facet/RootAccessFacet.sol\":579:586  token() */\n      tag_61\n        /* \"code/contract/sol/native/facet/RootAccessFacet.sol\":579:584  token */\n      tag_44\n        /* \"code/contract/sol/native/facet/RootAccessFacet.sol\":579:586  token() */\n      jump\t// in\n    tag_61:\n        /* \"code/contract/sol/native/facet/RootAccessFacet.sol\":579:596  token().setSymbol */\n      tag_62\n      swap1\n        /* \"code/contract/sol/native/facet/RootAccessFacet.sol\":579:604  token().setSymbol(symbol) */\n      swap2\n      swap1\n      0xffffffff\n      and\n      jump\t// in\n    tag_60:\n      pop\n        /* \"code/contract/sol/native/facet/RootAccessFacet.sol\":621:625  true */\n      0x01\n        /* \"code/contract/sol/native/facet/RootAccessFacet.sol\":614:625  return true */\n      swap1\n      pop\n        /* \"code/contract/sol/native/facet/RootAccessFacet.sol\":469:632  function setSymbol(string memory symbol) external returns (bool) {... */\n      swap2\n      swap1\n      pop\n      jump\t// out\n        /* \"code/contract/sol/native/facet/RootAccessFacet.sol\":1191:1395  function revokeRoleFrom(string memory role, address account) external returns (bool) {... */\n    tag_31:\n        /* \"code/contract/sol/native/facet/RootAccessFacet.sol\":1270:1274  bool */\n      0x00\n        /* \"code/contract/sol/native/facet/RootAccessFacet.sol\":1286:1367  auth()... */\n      tag_64\n        /* \"code/contract/sol/native/facet/RootAccessFacet.sol\":1353:1357  role */\n      dup4\n        /* \"code/contract/sol/native/facet/RootAccessFacet.sol\":1359:1366  account */\n      dup4\n        /* \"code/contract/sol/native/facet/RootAccessFacet.sol\":1286:1324  auth()... */\n      tag_65\n      mload(0x40)\n      dup1\n      0x40\n      add\n      0x40\n      mstore\n      dup1\n      0x01\n      dup2\n      mstore\n      0x20\n      add\n      0x2a00000000000000000000000000000000000000000000000000000000000000\n      dup2\n      mstore\n      pop\n        /* \"code/contract/sol/native/facet/RootAccessFacet.sol\":1286:1292  auth() */\n      tag_66\n        /* \"code/contract/sol/native/facet/RootAccessFacet.sol\":1286:1290  auth */\n      tag_40\n        /* \"code/contract/sol/native/facet/RootAccessFacet.sol\":1286:1292  auth() */\n      jump\t// in\n    tag_66:\n        /* \"code/contract/sol/native/facet/RootAccessFacet.sol\":1286:1319  auth()... */\n      tag_41\n      swap1\n        /* \"code/contract/sol/native/facet/RootAccessFacet.sol\":1286:1324  auth()... */\n      swap2\n      swap1\n      0xffffffff\n      and\n      jump\t// in\n    tag_65:\n        /* \"code/contract/sol/native/facet/RootAccessFacet.sol\":1286:1352  auth()... */\n      tag_67\n      swap1\n        /* \"code/contract/sol/native/facet/RootAccessFacet.sol\":1286:1367  auth()... */\n      swap3\n      swap2\n      swap1\n      0xffffffff\n      and\n      jump\t// in\n    tag_64:\n      pop\n        /* \"code/contract/sol/native/facet/RootAccessFacet.sol\":1384:1388  true */\n      0x01\n        /* \"code/contract/sol/native/facet/RootAccessFacet.sol\":1377:1388  return true */\n      swap1\n      pop\n        /* \"code/contract/sol/native/facet/RootAccessFacet.sol\":1191:1395  function revokeRoleFrom(string memory role, address account) external returns (bool) {... */\n      swap3\n      swap2\n      pop\n      pop\n      jump\t// out\n        /* \"code/contract/sol/native/facet/RootAccessFacet.sol\":308:463  function setName(string memory name) external returns (bool) {... */\n    tag_35:\n        /* \"code/contract/sol/native/facet/RootAccessFacet.sol\":363:367  bool */\n      0x00\n        /* \"code/contract/sol/native/facet/RootAccessFacet.sol\":379:404  auth().onlyMembersOf(\"*\") */\n      tag_69\n      mload(0x40)\n      dup1\n      0x40\n      add\n      0x40\n      mstore\n      dup1\n      0x01\n      dup2\n      mstore\n      0x20\n      add\n      0x2a00000000000000000000000000000000000000000000000000000000000000\n      dup2\n      mstore\n      pop\n        /* \"code/contract/sol/native/facet/RootAccessFacet.sol\":379:385  auth() */\n      tag_70\n        /* \"code/contract/sol/native/facet/RootAccessFacet.sol\":379:383  auth */\n      tag_40\n        /* \"code/contract/sol/native/facet/RootAccessFacet.sol\":379:385  auth() */\n      jump\t// in\n    tag_70:\n        /* \"code/contract/sol/native/facet/RootAccessFacet.sol\":379:399  auth().onlyMembersOf */\n      tag_41\n      swap1\n        /* \"code/contract/sol/native/facet/RootAccessFacet.sol\":379:404  auth().onlyMembersOf(\"*\") */\n      swap2\n      swap1\n      0xffffffff\n      and\n      jump\t// in\n    tag_69:\n      pop\n        /* \"code/contract/sol/native/facet/RootAccessFacet.sol\":414:435  token().setName(name) */\n      tag_71\n        /* \"code/contract/sol/native/facet/RootAccessFacet.sol\":430:434  name */\n      dup3\n        /* \"code/contract/sol/native/facet/RootAccessFacet.sol\":414:421  token() */\n      tag_72\n        /* \"code/contract/sol/native/facet/RootAccessFacet.sol\":414:419  token */\n      tag_44\n        /* \"code/contract/sol/native/facet/RootAccessFacet.sol\":414:421  token() */\n      jump\t// in\n    tag_72:\n        /* \"code/contract/sol/native/facet/RootAccessFacet.sol\":414:429  token().setName */\n      tag_73\n      swap1\n        /* \"code/contract/sol/native/facet/RootAccessFacet.sol\":414:435  token().setName(name) */\n      swap2\n      swap1\n      0xffffffff\n      and\n      jump\t// in\n    tag_71:\n      pop\n        /* \"code/contract/sol/native/facet/RootAccessFacet.sol\":452:456  true */\n      0x01\n        /* \"code/contract/sol/native/facet/RootAccessFacet.sol\":445:456  return true */\n      swap1\n      pop\n        /* \"code/contract/sol/native/facet/RootAccessFacet.sol\":308:463  function setName(string memory name) external returns (bool) {... */\n      swap2\n      swap1\n      pop\n      jump\t// out\n        /* \"code/contract/sol/native/storage/auth/AuthStorage.sol\":2762:2924  function auth() internal pure returns (AuthStorageLib.Auth storage sl) {... */\n    tag_40:\n        /* \"code/contract/sol/native/storage/auth/AuthStorage.sol\":2801:2831  AuthStorageLib.Auth storage sl */\n      0x00\n        /* \"code/contract/sol/native/storage/auth/AuthStorage.sol\":2843:2854  bytes32 loc */\n      dup1\n        /* \"code/contract/sol/native/storage/auth/AuthStorage.sol\":2753:2754  1 */\n      0x01\n        /* \"code/contract/sol/native/storage/auth/AuthStorage.sol\":2724:2749  keccak256(\"eip1967.auth\") */\n      0x43ade7009d4d0d9029c7d898feccf8aa5851482f139fb4b86f5fad8ca6326291\n        /* \"code/contract/sol/native/storage/auth/AuthStorage.sol\":2716:2750  uint256(keccak256(\"eip1967.auth\")) */\n      0x00\n      shr\n        /* \"code/contract/sol/native/storage/auth/AuthStorage.sol\":2716:2754  uint256(keccak256(\"eip1967.auth\")) - 1 */\n      tag_75\n      swap2\n      swap1\n      tag_76\n      jump\t// in\n    tag_75:\n        /* \"code/contract/sol/native/storage/auth/AuthStorage.sol\":2708:2755  bytes32(uint256(keccak256(\"eip1967.auth\")) - 1) */\n      0x00\n      shl\n        /* \"code/contract/sol/native/storage/auth/AuthStorage.sol\":2843:2861  bytes32 loc = AUTH */\n      swap1\n      pop\n        /* \"code/contract/sol/native/storage/auth/AuthStorage.sol\":2905:2908  loc */\n      dup1\n        /* \"code/contract/sol/native/storage/auth/AuthStorage.sol\":2894:2908  sl.slot := loc */\n      swap2\n      pop\n        /* \"code/contract/sol/native/storage/auth/AuthStorage.sol\":2880:2918  {... */\n      pop\n        /* \"code/contract/sol/native/storage/auth/AuthStorage.sol\":2762:2924  function auth() internal pure returns (AuthStorageLib.Auth storage sl) {... */\n      swap1\n      jump\t// out\n        /* \"code/contract/sol/native/storage/auth/AuthStorage.sol\":2493:2653  function onlyMembersOf(Auth storage auth, string memory role) internal view returns (Auth storage) {... */\n    tag_41:\n        /* \"code/contract/sol/native/storage/auth/AuthStorage.sol\":2578:2590  Auth storage */\n      0x00\n        /* \"code/contract/sol/native/storage/auth/AuthStorage.sol\":2609:2646  onlyMembersOf(auth, role, msg.sender) */\n      tag_78\n        /* \"code/contract/sol/native/storage/auth/AuthStorage.sol\":2623:2627  auth */\n      dup4\n        /* \"code/contract/sol/native/storage/auth/AuthStorage.sol\":2629:2633  role */\n      dup4\n        /* \"code/contract/sol/native/storage/auth/AuthStorage.sol\":2635:2645  msg.sender */\n      caller\n        /* \"code/contract/sol/native/storage/auth/AuthStorage.sol\":2609:2622  onlyMembersOf */\n      tag_79\n        /* \"code/contract/sol/native/storage/auth/AuthStorage.sol\":2609:2646  onlyMembersOf(auth, role, msg.sender) */\n      jump\t// in\n    tag_78:\n        /* \"code/contract/sol/native/storage/auth/AuthStorage.sol\":2602:2646  return onlyMembersOf(auth, role, msg.sender) */\n      swap1\n      pop\n        /* \"code/contract/sol/native/storage/auth/AuthStorage.sol\":2493:2653  function onlyMembersOf(Auth storage auth, string memory role) internal view returns (Auth storage) {... */\n      swap3\n      swap2\n      pop\n      pop\n      jump\t// out\n        /* \"code/contract/sol/native/storage/asset/TokenStorage.sol\":6303:6469  function token() internal pure returns (TokenStorageLib.Token storage sl) {... */\n    tag_44:\n        /* \"code/contract/sol/native/storage/asset/TokenStorage.sol\":6343:6375  TokenStorageLib.Token storage sl */\n      0x00\n        /* \"code/contract/sol/native/storage/asset/TokenStorage.sol\":6387:6398  bytes32 loc */\n      dup1\n        /* \"code/contract/sol/native/storage/asset/TokenStorage.sol\":6294:6295  1 */\n      0x01\n        /* \"code/contract/sol/native/storage/asset/TokenStorage.sol\":6264:6290  keccak256(\"eip1967.token\") */\n      0xd0074cb15c0b868f8c1336979ec91b91ec4d450a2ed3389290bfae4eabd9a07d\n        /* \"code/contract/sol/native/storage/asset/TokenStorage.sol\":6256:6291  uint256(keccak256(\"eip1967.token\")) */\n      0x00\n      shr\n        /* \"code/contract/sol/native/storage/asset/TokenStorage.sol\":6256:6295  uint256(keccak256(\"eip1967.token\")) - 1 */\n      tag_81\n      swap2\n      swap1\n      tag_76\n      jump\t// in\n    tag_81:\n        /* \"code/contract/sol/native/storage/asset/TokenStorage.sol\":6248:6296  bytes32(uint256(keccak256(\"eip1967.token\")) - 1) */\n      0x00\n      shl\n        /* \"code/contract/sol/native/storage/asset/TokenStorage.sol\":6387:6406  bytes32 loc = TOKEN */\n      swap1\n      pop\n        /* \"code/contract/sol/native/storage/asset/TokenStorage.sol\":6450:6453  loc */\n      dup1\n        /* \"code/contract/sol/native/storage/asset/TokenStorage.sol\":6439:6453  sl.slot := loc */\n      swap2\n      pop\n        /* \"code/contract/sol/native/storage/asset/TokenStorage.sol\":6425:6463  {... */\n      pop\n        /* \"code/contract/sol/native/storage/asset/TokenStorage.sol\":6303:6469  function token() internal pure returns (TokenStorageLib.Token storage sl) {... */\n      swap1\n      jump\t// out\n        /* \"code/contract/sol/native/storage/asset/TokenStorage.sol\":2307:2461  function mint(Token storage token, address account, uint256 amount) internal returns (Token storage) {... */\n    tag_45:\n        /* \"code/contract/sol/native/storage/asset/TokenStorage.sol\":2393:2406  Token storage */\n      0x00\n        /* \"code/contract/sol/native/storage/asset/TokenStorage.sol\":2425:2454  _mint(token, account, amount) */\n      tag_83\n        /* \"code/contract/sol/native/storage/asset/TokenStorage.sol\":2431:2436  token */\n      dup5\n        /* \"code/contract/sol/native/storage/asset/TokenStorage.sol\":2438:2445  account */\n      dup5\n        /* \"code/contract/sol/native/storage/asset/TokenStorage.sol\":2447:2453  amount */\n      dup5\n        /* \"code/contract/sol/native/storage/asset/TokenStorage.sol\":2425:2430  _mint */\n      tag_84\n        /* \"code/contract/sol/native/storage/asset/TokenStorage.sol\":2425:2454  _mint(token, account, amount) */\n      jump\t// in\n    tag_83:\n        /* \"code/contract/sol/native/storage/asset/TokenStorage.sol\":2418:2454  return _mint(token, account, amount) */\n      swap1\n      pop\n        /* \"code/contract/sol/native/storage/asset/TokenStorage.sol\":2307:2461  function mint(Token storage token, address account, uint256 amount) internal returns (Token storage) {... */\n      swap4\n      swap3\n      pop\n      pop\n      pop\n      jump\t// out\n        /* \"code/contract/sol/native/storage/auth/AuthStorage.sol\":1406:1557  function grantRoleTo(Auth storage auth, string memory role) internal returns (Auth storage) {... */\n    tag_50:\n        /* \"code/contract/sol/native/storage/auth/AuthStorage.sol\":1484:1496  Auth storage */\n      0x00\n        /* \"code/contract/sol/native/storage/auth/AuthStorage.sol\":1515:1550  grantRoleTo(auth, role, msg.sender) */\n      tag_86\n        /* \"code/contract/sol/native/storage/auth/AuthStorage.sol\":1527:1531  auth */\n      dup4\n        /* \"code/contract/sol/native/storage/auth/AuthStorage.sol\":1533:1537  role */\n      dup4\n        /* \"code/contract/sol/native/storage/auth/AuthStorage.sol\":1539:1549  msg.sender */\n      caller\n        /* \"code/contract/sol/native/storage/auth/AuthStorage.sol\":1515:1526  grantRoleTo */\n      tag_87\n        /* \"code/contract/sol/native/storage/auth/AuthStorage.sol\":1515:1550  grantRoleTo(auth, role, msg.sender) */\n      jump\t// in\n    tag_86:\n        /* \"code/contract/sol/native/storage/auth/AuthStorage.sol\":1508:1550  return grantRoleTo(auth, role, msg.sender) */\n      swap1\n      pop\n        /* \"code/contract/sol/native/storage/auth/AuthStorage.sol\":1406:1557  function grantRoleTo(Auth storage auth, string memory role) internal returns (Auth storage) {... */\n      swap3\n      swap2\n      pop\n      pop\n      jump\t// out\n        /* \"code/contract/sol/native/storage/asset/TokenStorage.sol\":2467:2621  function burn(Token storage token, address account, uint256 amount) internal returns (Token storage) {... */\n    tag_56:\n        /* \"code/contract/sol/native/storage/asset/TokenStorage.sol\":2553:2566  Token storage */\n      0x00\n        /* \"code/contract/sol/native/storage/asset/TokenStorage.sol\":2585:2614  _burn(token, account, amount) */\n      tag_89\n        /* \"code/contract/sol/native/storage/asset/TokenStorage.sol\":2591:2596  token */\n      dup5\n        /* \"code/contract/sol/native/storage/asset/TokenStorage.sol\":2598:2605  account */\n      dup5\n        /* \"code/contract/sol/native/storage/asset/TokenStorage.sol\":2607:2613  amount */\n      dup5\n        /* \"code/contract/sol/native/storage/asset/TokenStorage.sol\":2585:2590  _burn */\n      tag_90\n        /* \"code/contract/sol/native/storage/asset/TokenStorage.sol\":2585:2614  _burn(token, account, amount) */\n      jump\t// in\n    tag_89:\n        /* \"code/contract/sol/native/storage/asset/TokenStorage.sol\":2578:2614  return _burn(token, account, amount) */\n      swap1\n      pop\n        /* \"code/contract/sol/native/storage/asset/TokenStorage.sol\":2467:2621  function burn(Token storage token, address account, uint256 amount) internal returns (Token storage) {... */\n      swap4\n      swap3\n      pop\n      pop\n      pop\n      jump\t// out\n        /* \"code/contract/sol/native/storage/asset/TokenStorage.sol\":1592:1795  function setSymbol(Token storage token, string memory symbol) internal returns (Token storage) {... */\n    tag_62:\n        /* \"code/contract/sol/native/storage/asset/TokenStorage.sol\":1672:1685  Token storage */\n      0x00\n        /* \"code/contract/sol/native/storage/asset/TokenStorage.sol\":1719:1725  symbol */\n      dup2\n        /* \"code/contract/sol/native/storage/asset/TokenStorage.sol\":1697:1702  token */\n      dup4\n        /* \"code/contract/sol/native/storage/asset/TokenStorage.sol\":1697:1709  token.hidden */\n      0x00\n      add\n        /* \"code/contract/sol/native/storage/asset/TokenStorage.sol\":1697:1716  token.hidden.symbol */\n      0x04\n      add\n        /* \"code/contract/sol/native/storage/asset/TokenStorage.sol\":1697:1725  token.hidden.symbol = symbol */\n      swap1\n      dup2\n      tag_92\n      swap2\n      swap1\n      tag_93\n      jump\t// in\n    tag_92:\n      pop\n        /* \"code/contract/sol/native/storage/asset/TokenStorage.sol\":1740:1766  ChangedTokenSymbol(symbol) */\n      0x4044d76b63f74bc919c427bb04c970e245db0db19e28dc92734b32b00dcd3c5d\n        /* \"code/contract/sol/native/storage/asset/TokenStorage.sol\":1759:1765  symbol */\n      dup3\n        /* \"code/contract/sol/native/storage/asset/TokenStorage.sol\":1740:1766  ChangedTokenSymbol(symbol) */\n      mload(0x40)\n      tag_94\n      swap2\n      swap1\n      tag_95\n      jump\t// in\n    tag_94:\n      mload(0x40)\n      dup1\n      swap2\n      sub\n      swap1\n      log1\n        /* \"code/contract/sol/native/storage/asset/TokenStorage.sol\":1783:1788  token */\n      dup3\n        /* \"code/contract/sol/native/storage/asset/TokenStorage.sol\":1776:1788  return token */\n      swap1\n      pop\n        /* \"code/contract/sol/native/storage/asset/TokenStorage.sol\":1592:1795  function setSymbol(Token storage token, string memory symbol) internal returns (Token storage) {... */\n      swap3\n      swap2\n      pop\n      pop\n      jump\t// out\n        /* \"code/contract/sol/native/storage/auth/AuthStorage.sol\":1563:1795  function revokeRoleFrom(Auth storage auth, string memory role, address account) internal returns (Auth storage) {... */\n    tag_67:\n        /* \"code/contract/sol/native/storage/auth/AuthStorage.sol\":1661:1673  Auth storage */\n      0x00\n        /* \"code/contract/sol/native/storage/auth/AuthStorage.sol\":1685:1726  auth.hidden.members[role].remove(account) */\n      tag_97\n        /* \"code/contract/sol/native/storage/auth/AuthStorage.sol\":1718:1725  account */\n      dup3\n        /* \"code/contract/sol/native/storage/auth/AuthStorage.sol\":1685:1689  auth */\n      dup6\n        /* \"code/contract/sol/native/storage/auth/AuthStorage.sol\":1685:1696  auth.hidden */\n      0x00\n      add\n        /* \"code/contract/sol/native/storage/auth/AuthStorage.sol\":1685:1704  auth.hidden.members */\n      0x00\n      add\n        /* \"code/contract/sol/native/storage/auth/AuthStorage.sol\":1705:1709  role */\n      dup6\n        /* \"code/contract/sol/native/storage/auth/AuthStorage.sol\":1685:1710  auth.hidden.members[role] */\n      mload(0x40)\n      tag_98\n      swap2\n      swap1\n      tag_99\n      jump\t// in\n    tag_98:\n      swap1\n      dup2\n      mstore\n      0x20\n      add\n      mload(0x40)\n      dup1\n      swap2\n      sub\n      swap1\n      keccak256\n        /* \"code/contract/sol/native/storage/auth/AuthStorage.sol\":1685:1717  auth.hidden.members[role].remove */\n      tag_100\n      swap1\n        /* \"code/contract/sol/native/storage/auth/AuthStorage.sol\":1685:1726  auth.hidden.members[role].remove(account) */\n      swap2\n      swap1\n      0xffffffff\n      and\n      jump\t// in\n    tag_97:\n      pop\n        /* \"code/contract/sol/native/storage/auth/AuthStorage.sol\":1741:1767  RevokedRole(role, account) */\n      0x8f38580e79103313da54f4abbf428dad197dac436a91f3baee207d9f6552626d\n        /* \"code/contract/sol/native/storage/auth/AuthStorage.sol\":1753:1757  role */\n      dup4\n        /* \"code/contract/sol/native/storage/auth/AuthStorage.sol\":1759:1766  account */\n      dup4\n        /* \"code/contract/sol/native/storage/auth/AuthStorage.sol\":1741:1767  RevokedRole(role, account) */\n      mload(0x40)\n      tag_101\n      swap3\n      swap2\n      swap1\n      tag_102\n      jump\t// in\n    tag_101:\n      mload(0x40)\n      dup1\n      swap2\n      sub\n      swap1\n      log1\n        /* \"code/contract/sol/native/storage/auth/AuthStorage.sol\":1784:1788  auth */\n      dup4\n        /* \"code/contract/sol/native/storage/auth/AuthStorage.sol\":1777:1788  return auth */\n      swap1\n      pop\n        /* \"code/contract/sol/native/storage/auth/AuthStorage.sol\":1563:1795  function revokeRoleFrom(Auth storage auth, string memory role, address account) internal returns (Auth storage) {... */\n      swap4\n      swap3\n      pop\n      pop\n      pop\n      jump\t// out\n        /* \"code/contract/sol/native/storage/asset/TokenStorage.sol\":1395:1586  function setName(Token storage token, string memory name) internal returns (Token storage) {... */\n    tag_73:\n        /* \"code/contract/sol/native/storage/asset/TokenStorage.sol\":1471:1484  Token storage */\n      0x00\n        /* \"code/contract/sol/native/storage/asset/TokenStorage.sol\":1516:1520  name */\n      dup2\n        /* \"code/contract/sol/native/storage/asset/TokenStorage.sol\":1496:1501  token */\n      dup4\n        /* \"code/contract/sol/native/storage/asset/TokenStorage.sol\":1496:1508  token.hidden */\n      0x00\n      add\n        /* \"code/contract/sol/native/storage/asset/TokenStorage.sol\":1496:1513  token.hidden.name */\n      0x03\n      add\n        /* \"code/contract/sol/native/storage/asset/TokenStorage.sol\":1496:1520  token.hidden.name = name */\n      swap1\n      dup2\n      tag_104\n      swap2\n      swap1\n      tag_93\n      jump\t// in\n    tag_104:\n      pop\n        /* \"code/contract/sol/native/storage/asset/TokenStorage.sol\":1535:1557  ChangedTokenName(name) */\n      0xa30d5d88c4a00b505091610da337bdae8db8c519e88ab0a6c007b42817968380\n        /* \"code/contract/sol/native/storage/asset/TokenStorage.sol\":1552:1556  name */\n      dup3\n        /* \"code/contract/sol/native/storage/asset/TokenStorage.sol\":1535:1557  ChangedTokenName(name) */\n      mload(0x40)\n      tag_105\n      swap2\n      swap1\n      tag_95\n      jump\t// in\n    tag_105:\n      mload(0x40)\n      dup1\n      swap2\n      sub\n      swap1\n      log1\n        /* \"code/contract/sol/native/storage/asset/TokenStorage.sol\":1574:1579  token */\n      dup3\n        /* \"code/contract/sol/native/storage/asset/TokenStorage.sol\":1567:1579  return token */\n      swap1\n      pop\n        /* \"code/contract/sol/native/storage/asset/TokenStorage.sol\":1395:1586  function setName(Token storage token, string memory name) internal returns (Token storage) {... */\n      swap3\n      swap2\n      pop\n      pop\n      jump\t// out\n        /* \"code/contract/sol/native/storage/auth/AuthStorage.sol\":2238:2487  function onlyMembersOf(Auth storage auth, string memory role, address account) internal view returns (Auth storage) {... */\n    tag_79:\n        /* \"code/contract/sol/native/storage/auth/AuthStorage.sol\":2340:2352  Auth storage */\n      0x00\n        /* \"code/contract/sol/native/storage/auth/AuthStorage.sol\":2369:2400  isMemberOf(auth, role, account) */\n      tag_107\n        /* \"code/contract/sol/native/storage/auth/AuthStorage.sol\":2380:2384  auth */\n      dup5\n        /* \"code/contract/sol/native/storage/auth/AuthStorage.sol\":2386:2390  role */\n      dup5\n        /* \"code/contract/sol/native/storage/auth/AuthStorage.sol\":2392:2399  account */\n      dup5\n        /* \"code/contract/sol/native/storage/auth/AuthStorage.sol\":2369:2379  isMemberOf */\n      tag_108\n        /* \"code/contract/sol/native/storage/auth/AuthStorage.sol\":2369:2400  isMemberOf(auth, role, account) */\n      jump\t// in\n    tag_107:\n        /* \"code/contract/sol/native/storage/auth/AuthStorage.sol\":2364:2460  if (!isMemberOf(auth, role, account)) {... */\n      tag_109\n      jumpi\n        /* \"code/contract/sol/native/storage/auth/AuthStorage.sol\":2435:2442  account */\n      dup2\n        /* \"code/contract/sol/native/storage/auth/AuthStorage.sol\":2444:2448  role */\n      dup4\n        /* \"code/contract/sol/native/storage/auth/AuthStorage.sol\":2423:2449  MissingRole(account, role) */\n      mload(0x40)\n      0xe76ed20900000000000000000000000000000000000000000000000000000000\n      dup2\n      mstore\n      0x04\n      add\n      tag_110\n      swap3\n      swap2\n      swap1\n      tag_111\n      jump\t// in\n    tag_110:\n      mload(0x40)\n      dup1\n      swap2\n      sub\n      swap1\n      revert\n        /* \"code/contract/sol/native/storage/auth/AuthStorage.sol\":2364:2460  if (!isMemberOf(auth, role, account)) {... */\n    tag_109:\n        /* \"code/contract/sol/native/storage/auth/AuthStorage.sol\":2476:2480  auth */\n      dup4\n        /* \"code/contract/sol/native/storage/auth/AuthStorage.sol\":2469:2480  return auth */\n      swap1\n      pop\n        /* \"code/contract/sol/native/storage/auth/AuthStorage.sol\":2238:2487  function onlyMembersOf(Auth storage auth, string memory role, address account) internal view returns (Auth storage) {... */\n      swap4\n      swap3\n      pop\n      pop\n      pop\n      jump\t// out\n        /* \"code/contract/sol/native/storage/asset/TokenStorage.sol\":4245:4647  function _mint(Token storage token, address account, uint256 amount) private returns (Token storage) {... */\n    tag_84:\n        /* \"code/contract/sol/native/storage/asset/TokenStorage.sol\":4331:4344  Token storage */\n      0x00\n        /* \"code/contract/sol/native/storage/asset/TokenStorage.sol\":4383:4384  0 */\n      dup1\n        /* \"code/contract/sol/native/storage/asset/TokenStorage.sol\":4364:4385  account != address(0) */\n      0xffffffffffffffffffffffffffffffffffffffff\n      and\n        /* \"code/contract/sol/native/storage/asset/TokenStorage.sol\":4364:4371  account */\n      dup4\n        /* \"code/contract/sol/native/storage/asset/TokenStorage.sol\":4364:4385  account != address(0) */\n      0xffffffffffffffffffffffffffffffffffffffff\n      and\n      sub\n        /* \"code/contract/sol/native/storage/asset/TokenStorage.sol\":4356:4438  require(account != address(0), \"TokenStorageLibrary: cannot mint to address zero\") */\n      tag_113\n      jumpi\n      mload(0x40)\n      0x08c379a000000000000000000000000000000000000000000000000000000000\n      dup2\n      mstore\n      0x04\n      add\n      tag_114\n      swap1\n      tag_115\n      jump\t// in\n    tag_114:\n      mload(0x40)\n      dup1\n      swap2\n      sub\n      swap1\n      revert\n    tag_113:\n        /* \"code/contract/sol/native/storage/asset/TokenStorage.sol\":4476:4482  amount */\n      dup2\n        /* \"code/contract/sol/native/storage/asset/TokenStorage.sol\":4448:4453  token */\n      dup5\n        /* \"code/contract/sol/native/storage/asset/TokenStorage.sol\":4448:4460  token.hidden */\n      0x00\n      add\n        /* \"code/contract/sol/native/storage/asset/TokenStorage.sol\":4448:4472  token.hidden.totalSupply */\n      0x02\n      add\n      0x00\n        /* \"code/contract/sol/native/storage/asset/TokenStorage.sol\":4448:4482  token.hidden.totalSupply += amount */\n      dup3\n      dup3\n      sload\n      tag_116\n      swap2\n      swap1\n      tag_117\n      jump\t// in\n    tag_116:\n      swap3\n      pop\n      pop\n      dup2\n      swap1\n      sstore\n      pop\n        /* \"code/contract/sol/native/storage/asset/TokenStorage.sol\":4550:4556  amount */\n      dup2\n        /* \"code/contract/sol/native/storage/asset/TokenStorage.sol\":4516:4521  token */\n      dup5\n        /* \"code/contract/sol/native/storage/asset/TokenStorage.sol\":4516:4528  token.hidden */\n      0x00\n      add\n        /* \"code/contract/sol/native/storage/asset/TokenStorage.sol\":4516:4537  token.hidden.balances */\n      0x00\n      add\n        /* \"code/contract/sol/native/storage/asset/TokenStorage.sol\":4516:4546  token.hidden.balances[account] */\n      0x00\n        /* \"code/contract/sol/native/storage/asset/TokenStorage.sol\":4538:4545  account */\n      dup6\n        /* \"code/contract/sol/native/storage/asset/TokenStorage.sol\":4516:4546  token.hidden.balances[account] */\n      0xffffffffffffffffffffffffffffffffffffffff\n      and\n      0xffffffffffffffffffffffffffffffffffffffff\n      and\n      dup2\n      mstore\n      0x20\n      add\n      swap1\n      dup2\n      mstore\n      0x20\n      add\n      0x00\n      keccak256\n      0x00\n        /* \"code/contract/sol/native/storage/asset/TokenStorage.sol\":4516:4556  token.hidden.balances[account] += amount */\n      dup3\n      dup3\n      sload\n      add\n      swap3\n      pop\n      pop\n      dup2\n      swap1\n      sstore\n      pop\n        /* \"code/contract/sol/native/storage/asset/TokenStorage.sol\":4602:4609  account */\n      dup3\n        /* \"code/contract/sol/native/storage/asset/TokenStorage.sol\":4581:4618  Transfer(address(0), account, amount) */\n      0xffffffffffffffffffffffffffffffffffffffff\n      and\n        /* \"code/contract/sol/native/storage/asset/TokenStorage.sol\":4598:4599  0 */\n      0x00\n        /* \"code/contract/sol/native/storage/asset/TokenStorage.sol\":4581:4618  Transfer(address(0), account, amount) */\n      0xffffffffffffffffffffffffffffffffffffffff\n      and\n      0xddf252ad1be2c89b69c2b068fc378daa952ba7f163c4a11628f55a4df523b3ef\n        /* \"code/contract/sol/native/storage/asset/TokenStorage.sol\":4611:4617  amount */\n      dup5\n        /* \"code/contract/sol/native/storage/asset/TokenStorage.sol\":4581:4618  Transfer(address(0), account, amount) */\n      mload(0x40)\n      tag_118\n      swap2\n      swap1\n      tag_119\n      jump\t// in\n    tag_118:\n      mload(0x40)\n      dup1\n      swap2\n      sub\n      swap1\n      log3\n        /* \"code/contract/sol/native/storage/asset/TokenStorage.sol\":4635:4640  token */\n      dup4\n        /* \"code/contract/sol/native/storage/asset/TokenStorage.sol\":4628:4640  return token */\n      swap1\n      pop\n        /* \"code/contract/sol/native/storage/asset/TokenStorage.sol\":4245:4647  function _mint(Token storage token, address account, uint256 amount) private returns (Token storage) {... */\n      swap4\n      swap3\n      pop\n      pop\n      pop\n      jump\t// out\n        /* \"code/contract/sol/native/storage/auth/AuthStorage.sol\":1174:1400  function grantRoleTo(Auth storage auth, string memory role, address account) internal returns (Auth storage) {... */\n    tag_87:\n        /* \"code/contract/sol/native/storage/auth/AuthStorage.sol\":1269:1281  Auth storage */\n      0x00\n        /* \"code/contract/sol/native/storage/auth/AuthStorage.sol\":1293:1331  auth.hidden.members[role].add(account) */\n      tag_121\n        /* \"code/contract/sol/native/storage/auth/AuthStorage.sol\":1323:1330  account */\n      dup3\n        /* \"code/contract/sol/native/storage/auth/AuthStorage.sol\":1293:1297  auth */\n      dup6\n        /* \"code/contract/sol/native/storage/auth/AuthStorage.sol\":1293:1304  auth.hidden */\n      0x00\n      add\n        /* \"code/contract/sol/native/storage/auth/AuthStorage.sol\":1293:1312  auth.hidden.members */\n      0x00\n      add\n        /* \"code/contract/sol/native/storage/auth/AuthStorage.sol\":1313:1317  role */\n      dup6\n        /* \"code/contract/sol/native/storage/auth/AuthStorage.sol\":1293:1318  auth.hidden.members[role] */\n      mload(0x40)\n      tag_122\n      swap2\n      swap1\n      tag_99\n      jump\t// in\n    tag_122:\n      swap1\n      dup2\n      mstore\n      0x20\n      add\n      mload(0x40)\n      dup1\n      swap2\n      sub\n      swap1\n      keccak256\n        /* \"code/contract/sol/native/storage/auth/AuthStorage.sol\":1293:1322  auth.hidden.members[role].add */\n      tag_123\n      swap1\n        /* \"code/contract/sol/native/storage/auth/AuthStorage.sol\":1293:1331  auth.hidden.members[role].add(account) */\n      swap2\n      swap1\n      0xffffffff\n      and\n      jump\t// in\n    tag_121:\n      pop\n        /* \"code/contract/sol/native/storage/auth/AuthStorage.sol\":1346:1372  GrantedRole(role, account) */\n      0x426257855659ac73f28deaf0574d8b1de5afe800ef2886221a2c5a9325c01c52\n        /* \"code/contract/sol/native/storage/auth/AuthStorage.sol\":1358:1362  role */\n      dup4\n        /* \"code/contract/sol/native/storage/auth/AuthStorage.sol\":1364:1371  account */\n      dup4\n        /* \"code/contract/sol/native/storage/auth/AuthStorage.sol\":1346:1372  GrantedRole(role, account) */\n      mload(0x40)\n      tag_124\n      swap3\n      swap2\n      swap1\n      tag_102\n      jump\t// in\n    tag_124:\n      mload(0x40)\n      dup1\n      swap2\n      sub\n      swap1\n      log1\n        /* \"code/contract/sol/native/storage/auth/AuthStorage.sol\":1389:1393  auth */\n      dup4\n        /* \"code/contract/sol/native/storage/auth/AuthStorage.sol\":1382:1393  return auth */\n      swap1\n      pop\n        /* \"code/contract/sol/native/storage/auth/AuthStorage.sol\":1174:1400  function grantRoleTo(Auth storage auth, string memory role, address account) internal returns (Auth storage) {... */\n      swap4\n      swap3\n      pop\n      pop\n      pop\n      jump\t// out\n        /* \"code/contract/sol/native/storage/asset/TokenStorage.sol\":4653:5230  function _burn(Token storage token, address account, uint256 amount) private returns (Token storage) {... */\n    tag_90:\n        /* \"code/contract/sol/native/storage/asset/TokenStorage.sol\":4739:4752  Token storage */\n      0x00\n        /* \"code/contract/sol/native/storage/asset/TokenStorage.sol\":4791:4792  0 */\n      dup1\n        /* \"code/contract/sol/native/storage/asset/TokenStorage.sol\":4772:4793  account != address(0) */\n      0xffffffffffffffffffffffffffffffffffffffff\n      and\n        /* \"code/contract/sol/native/storage/asset/TokenStorage.sol\":4772:4779  account */\n      dup4\n        /* \"code/contract/sol/native/storage/asset/TokenStorage.sol\":4772:4793  account != address(0) */\n      0xffffffffffffffffffffffffffffffffffffffff\n      and\n      sub\n        /* \"code/contract/sol/native/storage/asset/TokenStorage.sol\":4764:4848  require(account != address(0), \"TokenStorageLibrary: cannot burn from address zero\") */\n      tag_126\n      jumpi\n      mload(0x40)\n      0x08c379a000000000000000000000000000000000000000000000000000000000\n      dup2\n      mstore\n      0x04\n      add\n      tag_127\n      swap1\n      tag_128\n      jump\t// in\n    tag_127:\n      mload(0x40)\n      dup1\n      swap2\n      sub\n      swap1\n      revert\n    tag_126:\n        /* \"code/contract/sol/native/storage/asset/TokenStorage.sol\":4858:4880  uint256 accountBalance */\n      0x00\n        /* \"code/contract/sol/native/storage/asset/TokenStorage.sol\":4883:4888  token */\n      dup5\n        /* \"code/contract/sol/native/storage/asset/TokenStorage.sol\":4883:4895  token.hidden */\n      0x00\n      add\n        /* \"code/contract/sol/native/storage/asset/TokenStorage.sol\":4883:4904  token.hidden.balances */\n      0x00\n      add\n        /* \"code/contract/sol/native/storage/asset/TokenStorage.sol\":4883:4913  token.hidden.balances[account] */\n      0x00\n        /* \"code/contract/sol/native/storage/asset/TokenStorage.sol\":4905:4912  account */\n      dup6\n        /* \"code/contract/sol/native/storage/asset/TokenStorage.sol\":4883:4913  token.hidden.balances[account] */\n      0xffffffffffffffffffffffffffffffffffffffff\n      and\n      0xffffffffffffffffffffffffffffffffffffffff\n      and\n      dup2\n      mstore\n      0x20\n      add\n      swap1\n      dup2\n      mstore\n      0x20\n      add\n      0x00\n      keccak256\n      sload\n        /* \"code/contract/sol/native/storage/asset/TokenStorage.sol\":4858:4913  uint256 accountBalance = token.hidden.balances[account] */\n      swap1\n      pop\n        /* \"code/contract/sol/native/storage/asset/TokenStorage.sol\":4949:4955  amount */\n      dup3\n        /* \"code/contract/sol/native/storage/asset/TokenStorage.sol\":4931:4945  accountBalance */\n      dup2\n        /* \"code/contract/sol/native/storage/asset/TokenStorage.sol\":4931:4955  accountBalance >= amount */\n      lt\n      iszero\n        /* \"code/contract/sol/native/storage/asset/TokenStorage.sol\":4923:5001  require(accountBalance >= amount, \"TokenStorageLibrary: insufficient balance\") */\n      tag_129\n      jumpi\n      mload(0x40)\n      0x08c379a000000000000000000000000000000000000000000000000000000000\n      dup2\n      mstore\n      0x04\n      add\n      tag_130\n      swap1\n      tag_131\n      jump\t// in\n    tag_130:\n      mload(0x40)\n      dup1\n      swap2\n      sub\n      swap1\n      revert\n    tag_129:\n        /* \"code/contract/sol/native/storage/asset/TokenStorage.sol\":5085:5091  amount */\n      dup3\n        /* \"code/contract/sol/native/storage/asset/TokenStorage.sol\":5068:5082  accountBalance */\n      dup2\n        /* \"code/contract/sol/native/storage/asset/TokenStorage.sol\":5068:5091  accountBalance - amount */\n      sub\n        /* \"code/contract/sol/native/storage/asset/TokenStorage.sol\":5035:5040  token */\n      dup6\n        /* \"code/contract/sol/native/storage/asset/TokenStorage.sol\":5035:5047  token.hidden */\n      0x00\n      add\n        /* \"code/contract/sol/native/storage/asset/TokenStorage.sol\":5035:5056  token.hidden.balances */\n      0x00\n      add\n        /* \"code/contract/sol/native/storage/asset/TokenStorage.sol\":5035:5065  token.hidden.balances[account] */\n      0x00\n        /* \"code/contract/sol/native/storage/asset/TokenStorage.sol\":5057:5064  account */\n      dup7\n        /* \"code/contract/sol/native/storage/asset/TokenStorage.sol\":5035:5065  token.hidden.balances[account] */\n      0xffffffffffffffffffffffffffffffffffffffff\n      and\n      0xffffffffffffffffffffffffffffffffffffffff\n      and\n      dup2\n      mstore\n      0x20\n      add\n      swap1\n      dup2\n      mstore\n      0x20\n      add\n      0x00\n      keccak256\n        /* \"code/contract/sol/native/storage/asset/TokenStorage.sol\":5035:5091  token.hidden.balances[account] = accountBalance - amount */\n      dup2\n      swap1\n      sstore\n      pop\n        /* \"code/contract/sol/native/storage/asset/TokenStorage.sol\":5133:5139  amount */\n      dup3\n        /* \"code/contract/sol/native/storage/asset/TokenStorage.sol\":5105:5110  token */\n      dup6\n        /* \"code/contract/sol/native/storage/asset/TokenStorage.sol\":5105:5117  token.hidden */\n      0x00\n      add\n        /* \"code/contract/sol/native/storage/asset/TokenStorage.sol\":5105:5129  token.hidden.totalSupply */\n      0x02\n      add\n      0x00\n        /* \"code/contract/sol/native/storage/asset/TokenStorage.sol\":5105:5139  token.hidden.totalSupply -= amount */\n      dup3\n      dup3\n      sload\n      sub\n      swap3\n      pop\n      pop\n      dup2\n      swap1\n      sstore\n      pop\n        /* \"code/contract/sol/native/storage/asset/TokenStorage.sol\":5190:5191  0 */\n      0x00\n        /* \"code/contract/sol/native/storage/asset/TokenStorage.sol\":5164:5201  Transfer(account, address(0), amount) */\n      0xffffffffffffffffffffffffffffffffffffffff\n      and\n        /* \"code/contract/sol/native/storage/asset/TokenStorage.sol\":5173:5180  account */\n      dup5\n        /* \"code/contract/sol/native/storage/asset/TokenStorage.sol\":5164:5201  Transfer(account, address(0), amount) */\n      0xffffffffffffffffffffffffffffffffffffffff\n      and\n      0xddf252ad1be2c89b69c2b068fc378daa952ba7f163c4a11628f55a4df523b3ef\n        /* \"code/contract/sol/native/storage/asset/TokenStorage.sol\":5194:5200  amount */\n      dup6\n        /* \"code/contract/sol/native/storage/asset/TokenStorage.sol\":5164:5201  Transfer(account, address(0), amount) */\n      mload(0x40)\n      tag_132\n      swap2\n      swap1\n      tag_119\n      jump\t// in\n    tag_132:\n      mload(0x40)\n      dup1\n      swap2\n      sub\n      swap1\n      log3\n        /* \"code/contract/sol/native/storage/asset/TokenStorage.sol\":5218:5223  token */\n      dup5\n        /* \"code/contract/sol/native/storage/asset/TokenStorage.sol\":5211:5223  return token */\n      swap2\n      pop\n      pop\n        /* \"code/contract/sol/native/storage/asset/TokenStorage.sol\":4653:5230  function _burn(Token storage token, address account, uint256 amount) private returns (Token storage) {... */\n      swap4\n      swap3\n      pop\n      pop\n      pop\n      jump\t// out\n        /* \"code/contract/sol/non-native/openzeppelin/utils/structs/EnumerableSet.sol\":8624:8780  function remove(AddressSet storage set, address value) internal returns (bool) {... */\n    tag_100:\n        /* \"code/contract/sol/non-native/openzeppelin/utils/structs/EnumerableSet.sol\":8697:8701  bool */\n      0x00\n        /* \"code/contract/sol/non-native/openzeppelin/utils/structs/EnumerableSet.sol\":8720:8773  _remove(set._inner, bytes32(uint256(uint160(value)))) */\n      tag_134\n        /* \"code/contract/sol/non-native/openzeppelin/utils/structs/EnumerableSet.sol\":8728:8731  set */\n      dup4\n        /* \"code/contract/sol/non-native/openzeppelin/utils/structs/EnumerableSet.sol\":8728:8738  set._inner */\n      0x00\n      add\n        /* \"code/contract/sol/non-native/openzeppelin/utils/structs/EnumerableSet.sol\":8764:8769  value */\n      dup4\n        /* \"code/contract/sol/non-native/openzeppelin/utils/structs/EnumerableSet.sol\":8748:8771  uint256(uint160(value)) */\n      0xffffffffffffffffffffffffffffffffffffffff\n      and\n        /* \"code/contract/sol/non-native/openzeppelin/utils/structs/EnumerableSet.sol\":8740:8772  bytes32(uint256(uint160(value))) */\n      0x00\n      shl\n        /* \"code/contract/sol/non-native/openzeppelin/utils/structs/EnumerableSet.sol\":8720:8727  _remove */\n      tag_135\n        /* \"code/contract/sol/non-native/openzeppelin/utils/structs/EnumerableSet.sol\":8720:8773  _remove(set._inner, bytes32(uint256(uint160(value)))) */\n      jump\t// in\n    tag_134:\n        /* \"code/contract/sol/non-native/openzeppelin/utils/structs/EnumerableSet.sol\":8713:8773  return _remove(set._inner, bytes32(uint256(uint160(value)))) */\n      swap1\n      pop\n        /* \"code/contract/sol/non-native/openzeppelin/utils/structs/EnumerableSet.sol\":8624:8780  function remove(AddressSet storage set, address value) internal returns (bool) {... */\n      swap3\n      swap2\n      pop\n      pop\n      jump\t// out\n        /* \"code/contract/sol/native/storage/auth/AuthStorage.sol\":844:1016  function isMemberOf(Auth storage auth, string memory role, address account) internal view returns (bool) {... */\n    tag_108:\n        /* \"code/contract/sol/native/storage/auth/AuthStorage.sol\":943:947  bool */\n      0x00\n        /* \"code/contract/sol/native/storage/auth/AuthStorage.sol\":966:1009  auth.hidden.members[role].contains(account) */\n      tag_137\n        /* \"code/contract/sol/native/storage/auth/AuthStorage.sol\":1001:1008  account */\n      dup3\n        /* \"code/contract/sol/native/storage/auth/AuthStorage.sol\":966:970  auth */\n      dup6\n        /* \"code/contract/sol/native/storage/auth/AuthStorage.sol\":966:977  auth.hidden */\n      0x00\n      add\n        /* \"code/contract/sol/native/storage/auth/AuthStorage.sol\":966:985  auth.hidden.members */\n      0x00\n      add\n        /* \"code/contract/sol/native/storage/auth/AuthStorage.sol\":986:990  role */\n      dup6\n        /* \"code/contract/sol/native/storage/auth/AuthStorage.sol\":966:991  auth.hidden.members[role] */\n      mload(0x40)\n      tag_138\n      swap2\n      swap1\n      tag_99\n      jump\t// in\n    tag_138:\n      swap1\n      dup2\n      mstore\n      0x20\n      add\n      mload(0x40)\n      dup1\n      swap2\n      sub\n      swap1\n      keccak256\n        /* \"code/contract/sol/native/storage/auth/AuthStorage.sol\":966:1000  auth.hidden.members[role].contains */\n      tag_139\n      swap1\n        /* \"code/contract/sol/native/storage/auth/AuthStorage.sol\":966:1009  auth.hidden.members[role].contains(account) */\n      swap2\n      swap1\n      0xffffffff\n      and\n      jump\t// in\n    tag_137:\n        /* \"code/contract/sol/native/storage/auth/AuthStorage.sol\":959:1009  return auth.hidden.members[role].contains(account) */\n      swap1\n      pop\n        /* \"code/contract/sol/native/storage/auth/AuthStorage.sol\":844:1016  function isMemberOf(Auth storage auth, string memory role, address account) internal view returns (bool) {... */\n      swap4\n      swap3\n      pop\n      pop\n      pop\n      jump\t// out\n        /* \"code/contract/sol/non-native/openzeppelin/utils/structs/EnumerableSet.sol\":8306:8456  function add(AddressSet storage set, address value) internal returns (bool) {... */\n    tag_123:\n        /* \"code/contract/sol/non-native/openzeppelin/utils/structs/EnumerableSet.sol\":8376:8380  bool */\n      0x00\n        /* \"code/contract/sol/non-native/openzeppelin/utils/structs/EnumerableSet.sol\":8399:8449  _add(set._inner, bytes32(uint256(uint160(value)))) */\n      tag_141\n        /* \"code/contract/sol/non-native/openzeppelin/utils/structs/EnumerableSet.sol\":8404:8407  set */\n      dup4\n        /* \"code/contract/sol/non-native/openzeppelin/utils/structs/EnumerableSet.sol\":8404:8414  set._inner */\n      0x00\n      add\n        /* \"code/contract/sol/non-native/openzeppelin/utils/structs/EnumerableSet.sol\":8440:8445  value */\n      dup4\n        /* \"code/contract/sol/non-native/openzeppelin/utils/structs/EnumerableSet.sol\":8424:8447  uint256(uint160(value)) */\n      0xffffffffffffffffffffffffffffffffffffffff\n      and\n        /* \"code/contract/sol/non-native/openzeppelin/utils/structs/EnumerableSet.sol\":8416:8448  bytes32(uint256(uint160(value))) */\n      0x00\n      shl\n        /* \"code/contract/sol/non-native/openzeppelin/utils/structs/EnumerableSet.sol\":8399:8403  _add */\n      tag_142\n        /* \"code/contract/sol/non-native/openzeppelin/utils/structs/EnumerableSet.sol\":8399:8449  _add(set._inner, bytes32(uint256(uint160(value)))) */\n      jump\t// in\n    tag_141:\n        /* \"code/contract/sol/non-native/openzeppelin/utils/structs/EnumerableSet.sol\":8392:8449  return _add(set._inner, bytes32(uint256(uint160(value)))) */\n      swap1\n      pop\n        /* \"code/contract/sol/non-native/openzeppelin/utils/structs/EnumerableSet.sol\":8306:8456  function add(AddressSet storage set, address value) internal returns (bool) {... */\n      swap3\n      swap2\n      pop\n      pop\n      jump\t// out\n        /* \"code/contract/sol/non-native/openzeppelin/utils/structs/EnumerableSet.sol\":2787:4175  function _remove(Set storage set, bytes32 value) private returns (bool) {... */\n    tag_135:\n        /* \"code/contract/sol/non-native/openzeppelin/utils/structs/EnumerableSet.sol\":2853:2857  bool */\n      0x00\n        /* \"code/contract/sol/non-native/openzeppelin/utils/structs/EnumerableSet.sol\":2969:2987  uint256 valueIndex */\n      dup1\n        /* \"code/contract/sol/non-native/openzeppelin/utils/structs/EnumerableSet.sol\":2990:2993  set */\n      dup4\n        /* \"code/contract/sol/non-native/openzeppelin/utils/structs/EnumerableSet.sol\":2990:3002  set._indexes */\n      0x01\n      add\n        /* \"code/contract/sol/non-native/openzeppelin/utils/structs/EnumerableSet.sol\":2990:3009  set._indexes[value] */\n      0x00\n        /* \"code/contract/sol/non-native/openzeppelin/utils/structs/EnumerableSet.sol\":3003:3008  value */\n      dup5\n        /* \"code/contract/sol/non-native/openzeppelin/utils/structs/EnumerableSet.sol\":2990:3009  set._indexes[value] */\n      dup2\n      mstore\n      0x20\n      add\n      swap1\n      dup2\n      mstore\n      0x20\n      add\n      0x00\n      keccak256\n      sload\n        /* \"code/contract/sol/non-native/openzeppelin/utils/structs/EnumerableSet.sol\":2969:3009  uint256 valueIndex = set._indexes[value] */\n      swap1\n      pop\n        /* \"code/contract/sol/non-native/openzeppelin/utils/structs/EnumerableSet.sol\":3038:3039  0 */\n      0x00\n        /* \"code/contract/sol/non-native/openzeppelin/utils/structs/EnumerableSet.sol\":3024:3034  valueIndex */\n      dup2\n        /* \"code/contract/sol/non-native/openzeppelin/utils/structs/EnumerableSet.sol\":3024:3039  valueIndex != 0 */\n      eq\n        /* \"code/contract/sol/non-native/openzeppelin/utils/structs/EnumerableSet.sol\":3020:4169  if (valueIndex != 0) {... */\n      tag_144\n      jumpi\n        /* \"code/contract/sol/non-native/openzeppelin/utils/structs/EnumerableSet.sol\":3393:3414  uint256 toDeleteIndex */\n      0x00\n        /* \"code/contract/sol/non-native/openzeppelin/utils/structs/EnumerableSet.sol\":3430:3431  1 */\n      0x01\n        /* \"code/contract/sol/non-native/openzeppelin/utils/structs/EnumerableSet.sol\":3417:3427  valueIndex */\n      dup3\n        /* \"code/contract/sol/non-native/openzeppelin/utils/structs/EnumerableSet.sol\":3417:3431  valueIndex - 1 */\n      tag_145\n      swap2\n      swap1\n      tag_76\n      jump\t// in\n    tag_145:\n        /* \"code/contract/sol/non-native/openzeppelin/utils/structs/EnumerableSet.sol\":3393:3431  uint256 toDeleteIndex = valueIndex - 1 */\n      swap1\n      pop\n        /* \"code/contract/sol/non-native/openzeppelin/utils/structs/EnumerableSet.sol\":3445:3462  uint256 lastIndex */\n      0x00\n        /* \"code/contract/sol/non-native/openzeppelin/utils/structs/EnumerableSet.sol\":3486:3487  1 */\n      0x01\n        /* \"code/contract/sol/non-native/openzeppelin/utils/structs/EnumerableSet.sol\":3465:3468  set */\n      dup7\n        /* \"code/contract/sol/non-native/openzeppelin/utils/structs/EnumerableSet.sol\":3465:3476  set._values */\n      0x00\n      add\n        /* \"code/contract/sol/non-native/openzeppelin/utils/structs/EnumerableSet.sol\":3465:3483  set._values.length */\n      dup1\n      sload\n      swap1\n      pop\n        /* \"code/contract/sol/non-native/openzeppelin/utils/structs/EnumerableSet.sol\":3465:3487  set._values.length - 1 */\n      tag_146\n      swap2\n      swap1\n      tag_76\n      jump\t// in\n    tag_146:\n        /* \"code/contract/sol/non-native/openzeppelin/utils/structs/EnumerableSet.sol\":3445:3487  uint256 lastIndex = set._values.length - 1 */\n      swap1\n      pop\n        /* \"code/contract/sol/non-native/openzeppelin/utils/structs/EnumerableSet.sol\":3519:3532  toDeleteIndex */\n      dup2\n        /* \"code/contract/sol/non-native/openzeppelin/utils/structs/EnumerableSet.sol\":3506:3515  lastIndex */\n      dup2\n        /* \"code/contract/sol/non-native/openzeppelin/utils/structs/EnumerableSet.sol\":3506:3532  lastIndex != toDeleteIndex */\n      eq\n        /* \"code/contract/sol/non-native/openzeppelin/utils/structs/EnumerableSet.sol\":3502:3900  if (lastIndex != toDeleteIndex) {... */\n      tag_147\n      jumpi\n        /* \"code/contract/sol/non-native/openzeppelin/utils/structs/EnumerableSet.sol\":3552:3569  bytes32 lastValue */\n      0x00\n        /* \"code/contract/sol/non-native/openzeppelin/utils/structs/EnumerableSet.sol\":3572:3575  set */\n      dup7\n        /* \"code/contract/sol/non-native/openzeppelin/utils/structs/EnumerableSet.sol\":3572:3583  set._values */\n      0x00\n      add\n        /* \"code/contract/sol/non-native/openzeppelin/utils/structs/EnumerableSet.sol\":3584:3593  lastIndex */\n      dup3\n        /* \"code/contract/sol/non-native/openzeppelin/utils/structs/EnumerableSet.sol\":3572:3594  set._values[lastIndex] */\n      dup2\n      sload\n      dup2\n      lt\n      tag_148\n      jumpi\n      tag_149\n      tag_150\n      jump\t// in\n    tag_149:\n    tag_148:\n      swap1\n      0x00\n      mstore\n      keccak256(0x00, 0x20)\n      add\n      sload\n        /* \"code/contract/sol/non-native/openzeppelin/utils/structs/EnumerableSet.sol\":3552:3594  bytes32 lastValue = set._values[lastIndex] */\n      swap1\n      pop\n        /* \"code/contract/sol/non-native/openzeppelin/utils/structs/EnumerableSet.sol\":3723:3732  lastValue */\n      dup1\n        /* \"code/contract/sol/non-native/openzeppelin/utils/structs/EnumerableSet.sol\":3694:3697  set */\n      dup8\n        /* \"code/contract/sol/non-native/openzeppelin/utils/structs/EnumerableSet.sol\":3694:3705  set._values */\n      0x00\n      add\n        /* \"code/contract/sol/non-native/openzeppelin/utils/structs/EnumerableSet.sol\":3706:3719  toDeleteIndex */\n      dup5\n        /* \"code/contract/sol/non-native/openzeppelin/utils/structs/EnumerableSet.sol\":3694:3720  set._values[toDeleteIndex] */\n      dup2\n      sload\n      dup2\n      lt\n      tag_152\n      jumpi\n      tag_153\n      tag_150\n      jump\t// in\n    tag_153:\n    tag_152:\n      swap1\n      0x00\n      mstore\n      keccak256(0x00, 0x20)\n      add\n        /* \"code/contract/sol/non-native/openzeppelin/utils/structs/EnumerableSet.sol\":3694:3732  set._values[toDeleteIndex] = lastValue */\n      dup2\n      swap1\n      sstore\n      pop\n        /* \"code/contract/sol/non-native/openzeppelin/utils/structs/EnumerableSet.sol\":3832:3842  valueIndex */\n      dup4\n        /* \"code/contract/sol/non-native/openzeppelin/utils/structs/EnumerableSet.sol\":3806:3809  set */\n      dup8\n        /* \"code/contract/sol/non-native/openzeppelin/utils/structs/EnumerableSet.sol\":3806:3818  set._indexes */\n      0x01\n      add\n        /* \"code/contract/sol/non-native/openzeppelin/utils/structs/EnumerableSet.sol\":3806:3829  set._indexes[lastValue] */\n      0x00\n        /* \"code/contract/sol/non-native/openzeppelin/utils/structs/EnumerableSet.sol\":3819:3828  lastValue */\n      dup4\n        /* \"code/contract/sol/non-native/openzeppelin/utils/structs/EnumerableSet.sol\":3806:3829  set._indexes[lastValue] */\n      dup2\n      mstore\n      0x20\n      add\n      swap1\n      dup2\n      mstore\n      0x20\n      add\n      0x00\n      keccak256\n        /* \"code/contract/sol/non-native/openzeppelin/utils/structs/EnumerableSet.sol\":3806:3842  set._indexes[lastValue] = valueIndex */\n      dup2\n      swap1\n      sstore\n      pop\n        /* \"code/contract/sol/non-native/openzeppelin/utils/structs/EnumerableSet.sol\":3534:3900  {... */\n      pop\n        /* \"code/contract/sol/non-native/openzeppelin/utils/structs/EnumerableSet.sol\":3502:3900  if (lastIndex != toDeleteIndex) {... */\n    tag_147:\n        /* \"code/contract/sol/non-native/openzeppelin/utils/structs/EnumerableSet.sol\":3978:3981  set */\n      dup6\n        /* \"code/contract/sol/non-native/openzeppelin/utils/structs/EnumerableSet.sol\":3978:3989  set._values */\n      0x00\n      add\n        /* \"code/contract/sol/non-native/openzeppelin/utils/structs/EnumerableSet.sol\":3978:3995  set._values.pop() */\n      dup1\n      sload\n      dup1\n      tag_155\n      jumpi\n      tag_156\n      tag_157\n      jump\t// in\n    tag_156:\n    tag_155:\n      0x01\n      swap1\n      sub\n      dup2\n      dup2\n      swap1\n      0x00\n      mstore\n      keccak256(0x00, 0x20)\n      add\n      0x00\n      swap1\n      sstore\n      swap1\n      sstore\n        /* \"code/contract/sol/non-native/openzeppelin/utils/structs/EnumerableSet.sol\":4070:4073  set */\n      dup6\n        /* \"code/contract/sol/non-native/openzeppelin/utils/structs/EnumerableSet.sol\":4070:4082  set._indexes */\n      0x01\n      add\n        /* \"code/contract/sol/non-native/openzeppelin/utils/structs/EnumerableSet.sol\":4070:4089  set._indexes[value] */\n      0x00\n        /* \"code/contract/sol/non-native/openzeppelin/utils/structs/EnumerableSet.sol\":4083:4088  value */\n      dup7\n        /* \"code/contract/sol/non-native/openzeppelin/utils/structs/EnumerableSet.sol\":4070:4089  set._indexes[value] */\n      dup2\n      mstore\n      0x20\n      add\n      swap1\n      dup2\n      mstore\n      0x20\n      add\n      0x00\n      keccak256\n        /* \"code/contract/sol/non-native/openzeppelin/utils/structs/EnumerableSet.sol\":4063:4089  delete set._indexes[value] */\n      0x00\n      swap1\n      sstore\n        /* \"code/contract/sol/non-native/openzeppelin/utils/structs/EnumerableSet.sol\":4111:4115  true */\n      0x01\n        /* \"code/contract/sol/non-native/openzeppelin/utils/structs/EnumerableSet.sol\":4104:4115  return true */\n      swap4\n      pop\n      pop\n      pop\n      pop\n      jump(tag_143)\n        /* \"code/contract/sol/non-native/openzeppelin/utils/structs/EnumerableSet.sol\":3020:4169  if (valueIndex != 0) {... */\n    tag_144:\n        /* \"code/contract/sol/non-native/openzeppelin/utils/structs/EnumerableSet.sol\":4153:4158  false */\n      0x00\n        /* \"code/contract/sol/non-native/openzeppelin/utils/structs/EnumerableSet.sol\":4146:4158  return false */\n      swap2\n      pop\n      pop\n        /* \"code/contract/sol/non-native/openzeppelin/utils/structs/EnumerableSet.sol\":2787:4175  function _remove(Set storage set, bytes32 value) private returns (bool) {... */\n    tag_143:\n      swap3\n      swap2\n      pop\n      pop\n      jump\t// out\n        /* \"code/contract/sol/non-native/openzeppelin/utils/structs/EnumerableSet.sol\":8861:9026  function contains(AddressSet storage set, address value) internal view returns (bool) {... */\n    tag_139:\n        /* \"code/contract/sol/non-native/openzeppelin/utils/structs/EnumerableSet.sol\":8941:8945  bool */\n      0x00\n        /* \"code/contract/sol/non-native/openzeppelin/utils/structs/EnumerableSet.sol\":8964:9019  _contains(set._inner, bytes32(uint256(uint160(value)))) */\n      tag_161\n        /* \"code/contract/sol/non-native/openzeppelin/utils/structs/EnumerableSet.sol\":8974:8977  set */\n      dup4\n        /* \"code/contract/sol/non-native/openzeppelin/utils/structs/EnumerableSet.sol\":8974:8984  set._inner */\n      0x00\n      add\n        /* \"code/contract/sol/non-native/openzeppelin/utils/structs/EnumerableSet.sol\":9010:9015  value */\n      dup4\n        /* \"code/contract/sol/non-native/openzeppelin/utils/structs/EnumerableSet.sol\":8994:9017  uint256(uint160(value)) */\n      0xffffffffffffffffffffffffffffffffffffffff\n      and\n        /* \"code/contract/sol/non-native/openzeppelin/utils/structs/EnumerableSet.sol\":8986:9018  bytes32(uint256(uint160(value))) */\n      0x00\n      shl\n        /* \"code/contract/sol/non-native/openzeppelin/utils/structs/EnumerableSet.sol\":8964:8973  _contains */\n      tag_162\n        /* \"code/contract/sol/non-native/openzeppelin/utils/structs/EnumerableSet.sol\":8964:9019  _contains(set._inner, bytes32(uint256(uint160(value)))) */\n      jump\t// in\n    tag_161:\n        /* \"code/contract/sol/non-native/openzeppelin/utils/structs/EnumerableSet.sol\":8957:9019  return _contains(set._inner, bytes32(uint256(uint160(value)))) */\n      swap1\n      pop\n        /* \"code/contract/sol/non-native/openzeppelin/utils/structs/EnumerableSet.sol\":8861:9026  function contains(AddressSet storage set, address value) internal view returns (bool) {... */\n      swap3\n      swap2\n      pop\n      pop\n      jump\t// out\n        /* \"code/contract/sol/non-native/openzeppelin/utils/structs/EnumerableSet.sol\":2215:2619  function _add(Set storage set, bytes32 value) private returns (bool) {... */\n    tag_142:\n        /* \"code/contract/sol/non-native/openzeppelin/utils/structs/EnumerableSet.sol\":2278:2282  bool */\n      0x00\n        /* \"code/contract/sol/non-native/openzeppelin/utils/structs/EnumerableSet.sol\":2299:2320  _contains(set, value) */\n      tag_164\n        /* \"code/contract/sol/non-native/openzeppelin/utils/structs/EnumerableSet.sol\":2309:2312  set */\n      dup4\n        /* \"code/contract/sol/non-native/openzeppelin/utils/structs/EnumerableSet.sol\":2314:2319  value */\n      dup4\n        /* \"code/contract/sol/non-native/openzeppelin/utils/structs/EnumerableSet.sol\":2299:2308  _contains */\n      tag_162\n        /* \"code/contract/sol/non-native/openzeppelin/utils/structs/EnumerableSet.sol\":2299:2320  _contains(set, value) */\n      jump\t// in\n    tag_164:\n        /* \"code/contract/sol/non-native/openzeppelin/utils/structs/EnumerableSet.sol\":2294:2613  if (!_contains(set, value)) {... */\n      tag_165\n      jumpi\n        /* \"code/contract/sol/non-native/openzeppelin/utils/structs/EnumerableSet.sol\":2336:2339  set */\n      dup3\n        /* \"code/contract/sol/non-native/openzeppelin/utils/structs/EnumerableSet.sol\":2336:2347  set._values */\n      0x00\n      add\n        /* \"code/contract/sol/non-native/openzeppelin/utils/structs/EnumerableSet.sol\":2353:2358  value */\n      dup3\n        /* \"code/contract/sol/non-native/openzeppelin/utils/structs/EnumerableSet.sol\":2336:2359  set._values.push(value) */\n      swap1\n      dup1\n      0x01\n      dup2\n      sload\n      add\n      dup1\n      dup3\n      sstore\n      dup1\n      swap2\n      pop\n      pop\n      0x01\n      swap1\n      sub\n      swap1\n      0x00\n      mstore\n      keccak256(0x00, 0x20)\n      add\n      0x00\n      swap1\n      swap2\n      swap1\n      swap2\n      swap1\n      swap2\n      pop\n      sstore\n        /* \"code/contract/sol/non-native/openzeppelin/utils/structs/EnumerableSet.sol\":2516:2519  set */\n      dup3\n        /* \"code/contract/sol/non-native/openzeppelin/utils/structs/EnumerableSet.sol\":2516:2527  set._values */\n      0x00\n      add\n        /* \"code/contract/sol/non-native/openzeppelin/utils/structs/EnumerableSet.sol\":2516:2534  set._values.length */\n      dup1\n      sload\n      swap1\n      pop\n        /* \"code/contract/sol/non-native/openzeppelin/utils/structs/EnumerableSet.sol\":2494:2497  set */\n      dup4\n        /* \"code/contract/sol/non-native/openzeppelin/utils/structs/EnumerableSet.sol\":2494:2506  set._indexes */\n      0x01\n      add\n        /* \"code/contract/sol/non-native/openzeppelin/utils/structs/EnumerableSet.sol\":2494:2513  set._indexes[value] */\n      0x00\n        /* \"code/contract/sol/non-native/openzeppelin/utils/structs/EnumerableSet.sol\":2507:2512  value */\n      dup5\n        /* \"code/contract/sol/non-native/openzeppelin/utils/structs/EnumerableSet.sol\":2494:2513  set._indexes[value] */\n      dup2\n      mstore\n      0x20\n      add\n      swap1\n      dup2\n      mstore\n      0x20\n      add\n      0x00\n      keccak256\n        /* \"code/contract/sol/non-native/openzeppelin/utils/structs/EnumerableSet.sol\":2494:2534  set._indexes[value] = set._values.length */\n      dup2\n      swap1\n      sstore\n      pop\n        /* \"code/contract/sol/non-native/openzeppelin/utils/structs/EnumerableSet.sol\":2555:2559  true */\n      0x01\n        /* \"code/contract/sol/non-native/openzeppelin/utils/structs/EnumerableSet.sol\":2548:2559  return true */\n      swap1\n      pop\n      jump(tag_163)\n        /* \"code/contract/sol/non-native/openzeppelin/utils/structs/EnumerableSet.sol\":2294:2613  if (!_contains(set, value)) {... */\n    tag_165:\n        /* \"code/contract/sol/non-native/openzeppelin/utils/structs/EnumerableSet.sol\":2597:2602  false */\n      0x00\n        /* \"code/contract/sol/non-native/openzeppelin/utils/structs/EnumerableSet.sol\":2590:2602  return false */\n      swap1\n      pop\n        /* \"code/contract/sol/non-native/openzeppelin/utils/structs/EnumerableSet.sol\":2215:2619  function _add(Set storage set, bytes32 value) private returns (bool) {... */\n    tag_163:\n      swap3\n      swap2\n      pop\n      pop\n      jump\t// out\n        /* \"code/contract/sol/non-native/openzeppelin/utils/structs/EnumerableSet.sol\":4256:4383  function _contains(Set storage set, bytes32 value) private view returns (bool) {... */\n    tag_162:\n        /* \"code/contract/sol/non-native/openzeppelin/utils/structs/EnumerableSet.sol\":4329:4333  bool */\n      0x00\n        /* \"code/contract/sol/non-native/openzeppelin/utils/structs/EnumerableSet.sol\":4375:4376  0 */\n      dup1\n        /* \"code/contract/sol/non-native/openzeppelin/utils/structs/EnumerableSet.sol\":4352:4355  set */\n      dup4\n        /* \"code/contract/sol/non-native/openzeppelin/utils/structs/EnumerableSet.sol\":4352:4364  set._indexes */\n      0x01\n      add\n        /* \"code/contract/sol/non-native/openzeppelin/utils/structs/EnumerableSet.sol\":4352:4371  set._indexes[value] */\n      0x00\n        /* \"code/contract/sol/non-native/openzeppelin/utils/structs/EnumerableSet.sol\":4365:4370  value */\n      dup5\n        /* \"code/contract/sol/non-native/openzeppelin/utils/structs/EnumerableSet.sol\":4352:4371  set._indexes[value] */\n      dup2\n      mstore\n      0x20\n      add\n      swap1\n      dup2\n      mstore\n      0x20\n      add\n      0x00\n      keccak256\n      sload\n        /* \"code/contract/sol/non-native/openzeppelin/utils/structs/EnumerableSet.sol\":4352:4376  set._indexes[value] != 0 */\n      eq\n      iszero\n        /* \"code/contract/sol/non-native/openzeppelin/utils/structs/EnumerableSet.sol\":4345:4376  return set._indexes[value] != 0 */\n      swap1\n      pop\n        /* \"code/contract/sol/non-native/openzeppelin/utils/structs/EnumerableSet.sol\":4256:4383  function _contains(Set storage set, bytes32 value) private view returns (bool) {... */\n      swap3\n      swap2\n      pop\n      pop\n      jump\t// out\n        /* \"#utility.yul\":7:82   */\n    tag_169:\n        /* \"#utility.yul\":40:46   */\n      0x00\n        /* \"#utility.yul\":73:75   */\n      0x40\n        /* \"#utility.yul\":67:76   */\n      mload\n        /* \"#utility.yul\":57:76   */\n      swap1\n      pop\n        /* \"#utility.yul\":7:82   */\n      swap1\n      jump\t// out\n        /* \"#utility.yul\":88:205   */\n    tag_170:\n        /* \"#utility.yul\":197:198   */\n      0x00\n        /* \"#utility.yul\":194:195   */\n      dup1\n        /* \"#utility.yul\":187:199   */\n      revert\n        /* \"#utility.yul\":211:328   */\n    tag_171:\n        /* \"#utility.yul\":320:321   */\n      0x00\n        /* \"#utility.yul\":317:318   */\n      dup1\n        /* \"#utility.yul\":310:322   */\n      revert\n        /* \"#utility.yul\":334:460   */\n    tag_172:\n        /* \"#utility.yul\":371:378   */\n      0x00\n        /* \"#utility.yul\":411:453   */\n      0xffffffffffffffffffffffffffffffffffffffff\n        /* \"#utility.yul\":404:409   */\n      dup3\n        /* \"#utility.yul\":400:454   */\n      and\n        /* \"#utility.yul\":389:454   */\n      swap1\n      pop\n        /* \"#utility.yul\":334:460   */\n      swap2\n      swap1\n      pop\n      jump\t// out\n        /* \"#utility.yul\":466:562   */\n    tag_173:\n        /* \"#utility.yul\":503:510   */\n      0x00\n        /* \"#utility.yul\":532:556   */\n      tag_229\n        /* \"#utility.yul\":550:555   */\n      dup3\n        /* \"#utility.yul\":532:556   */\n      tag_172\n      jump\t// in\n    tag_229:\n        /* \"#utility.yul\":521:556   */\n      swap1\n      pop\n        /* \"#utility.yul\":466:562   */\n      swap2\n      swap1\n      pop\n      jump\t// out\n        /* \"#utility.yul\":568:690   */\n    tag_174:\n        /* \"#utility.yul\":641:665   */\n      tag_231\n        /* \"#utility.yul\":659:664   */\n      dup2\n        /* \"#utility.yul\":641:665   */\n      tag_173\n      jump\t// in\n    tag_231:\n        /* \"#utility.yul\":634:639   */\n      dup2\n        /* \"#utility.yul\":631:666   */\n      eq\n        /* \"#utility.yul\":621:684   */\n      tag_232\n      jumpi\n        /* \"#utility.yul\":680:681   */\n      0x00\n        /* \"#utility.yul\":677:678   */\n      dup1\n        /* \"#utility.yul\":670:682   */\n      revert\n        /* \"#utility.yul\":621:684   */\n    tag_232:\n        /* \"#utility.yul\":568:690   */\n      pop\n      jump\t// out\n        /* \"#utility.yul\":696:835   */\n    tag_175:\n        /* \"#utility.yul\":742:747   */\n      0x00\n        /* \"#utility.yul\":780:786   */\n      dup2\n        /* \"#utility.yul\":767:787   */\n      calldataload\n        /* \"#utility.yul\":758:787   */\n      swap1\n      pop\n        /* \"#utility.yul\":796:829   */\n      tag_234\n        /* \"#utility.yul\":823:828   */\n      dup2\n        /* \"#utility.yul\":796:829   */\n      tag_174\n      jump\t// in\n    tag_234:\n        /* \"#utility.yul\":696:835   */\n      swap3\n      swap2\n      pop\n      pop\n      jump\t// out\n        /* \"#utility.yul\":841:918   */\n    tag_176:\n        /* \"#utility.yul\":878:885   */\n      0x00\n        /* \"#utility.yul\":907:912   */\n      dup2\n        /* \"#utility.yul\":896:912   */\n      swap1\n      pop\n        /* \"#utility.yul\":841:918   */\n      swap2\n      swap1\n      pop\n      jump\t// out\n        /* \"#utility.yul\":924:1046   */\n    tag_177:\n        /* \"#utility.yul\":997:1021   */\n      tag_237\n        /* \"#utility.yul\":1015:1020   */\n      dup2\n        /* \"#utility.yul\":997:1021   */\n      tag_176\n      jump\t// in\n    tag_237:\n        /* \"#utility.yul\":990:995   */\n      dup2\n        /* \"#utility.yul\":987:1022   */\n      eq\n        /* \"#utility.yul\":977:1040   */\n      tag_238\n      jumpi\n        /* \"#utility.yul\":1036:1037   */\n      0x00\n        /* \"#utility.yul\":1033:1034   */\n      dup1\n        /* \"#utility.yul\":1026:1038   */\n      revert\n        /* \"#utility.yul\":977:1040   */\n    tag_238:\n        /* \"#utility.yul\":924:1046   */\n      pop\n      jump\t// out\n        /* \"#utility.yul\":1052:1191   */\n    tag_178:\n        /* \"#utility.yul\":1098:1103   */\n      0x00\n        /* \"#utility.yul\":1136:1142   */\n      dup2\n        /* \"#utility.yul\":1123:1143   */\n      calldataload\n        /* \"#utility.yul\":1114:1143   */\n      swap1\n      pop\n        /* \"#utility.yul\":1152:1185   */\n      tag_240\n        /* \"#utility.yul\":1179:1184   */\n      dup2\n        /* \"#utility.yul\":1152:1185   */\n      tag_177\n      jump\t// in\n    tag_240:\n        /* \"#utility.yul\":1052:1191   */\n      swap3\n      swap2\n      pop\n      pop\n      jump\t// out\n        /* \"#utility.yul\":1197:1671   */\n    tag_11:\n        /* \"#utility.yul\":1265:1271   */\n      0x00\n        /* \"#utility.yul\":1273:1279   */\n      dup1\n        /* \"#utility.yul\":1322:1324   */\n      0x40\n        /* \"#utility.yul\":1310:1319   */\n      dup4\n        /* \"#utility.yul\":1301:1308   */\n      dup6\n        /* \"#utility.yul\":1297:1320   */\n      sub\n        /* \"#utility.yul\":1293:1325   */\n      slt\n        /* \"#utility.yul\":1290:1409   */\n      iszero\n      tag_242\n      jumpi\n        /* \"#utility.yul\":1328:1407   */\n      tag_243\n      tag_170\n      jump\t// in\n    tag_243:\n        /* \"#utility.yul\":1290:1409   */\n    tag_242:\n        /* \"#utility.yul\":1448:1449   */\n      0x00\n        /* \"#utility.yul\":1473:1526   */\n      tag_244\n        /* \"#utility.yul\":1518:1525   */\n      dup6\n        /* \"#utility.yul\":1509:1515   */\n      dup3\n        /* \"#utility.yul\":1498:1507   */\n      dup7\n        /* \"#utility.yul\":1494:1516   */\n      add\n        /* \"#utility.yul\":1473:1526   */\n      tag_175\n      jump\t// in\n    tag_244:\n        /* \"#utility.yul\":1463:1526   */\n      swap3\n      pop\n        /* \"#utility.yul\":1419:1536   */\n      pop\n        /* \"#utility.yul\":1575:1577   */\n      0x20\n        /* \"#utility.yul\":1601:1654   */\n      tag_245\n        /* \"#utility.yul\":1646:1653   */\n      dup6\n        /* \"#utility.yul\":1637:1643   */\n      dup3\n        /* \"#utility.yul\":1626:1635   */\n      dup7\n        /* \"#utility.yul\":1622:1644   */\n      add\n        /* \"#utility.yul\":1601:1654   */\n      tag_178\n      jump\t// in\n    tag_245:\n        /* \"#utility.yul\":1591:1654   */\n      swap2\n      pop\n        /* \"#utility.yul\":1546:1664   */\n      pop\n        /* \"#utility.yul\":1197:1671   */\n      swap3\n      pop\n      swap3\n      swap1\n      pop\n      jump\t// out\n        /* \"#utility.yul\":1677:1767   */\n    tag_179:\n        /* \"#utility.yul\":1711:1718   */\n      0x00\n        /* \"#utility.yul\":1754:1759   */\n      dup2\n        /* \"#utility.yul\":1747:1760   */\n      iszero\n        /* \"#utility.yul\":1740:1761   */\n      iszero\n        /* \"#utility.yul\":1729:1761   */\n      swap1\n      pop\n        /* \"#utility.yul\":1677:1767   */\n      swap2\n      swap1\n      pop\n      jump\t// out\n        /* \"#utility.yul\":1773:1882   */\n    tag_180:\n        /* \"#utility.yul\":1854:1875   */\n      tag_248\n        /* \"#utility.yul\":1869:1874   */\n      dup2\n        /* \"#utility.yul\":1854:1875   */\n      tag_179\n      jump\t// in\n    tag_248:\n        /* \"#utility.yul\":1849:1852   */\n      dup3\n        /* \"#utility.yul\":1842:1876   */\n      mstore\n        /* \"#utility.yul\":1773:1882   */\n      pop\n      pop\n      jump\t// out\n        /* \"#utility.yul\":1888:2098   */\n    tag_14:\n        /* \"#utility.yul\":1975:1979   */\n      0x00\n        /* \"#utility.yul\":2013:2015   */\n      0x20\n        /* \"#utility.yul\":2002:2011   */\n      dup3\n        /* \"#utility.yul\":1998:2016   */\n      add\n        /* \"#utility.yul\":1990:2016   */\n      swap1\n      pop\n        /* \"#utility.yul\":2026:2091   */\n      tag_250\n        /* \"#utility.yul\":2088:2089   */\n      0x00\n        /* \"#utility.yul\":2077:2086   */\n      dup4\n        /* \"#utility.yul\":2073:2090   */\n      add\n        /* \"#utility.yul\":2064:2070   */\n      dup5\n        /* \"#utility.yul\":2026:2091   */\n      tag_180\n      jump\t// in\n    tag_250:\n        /* \"#utility.yul\":1888:2098   */\n      swap3\n      swap2\n      pop\n      pop\n      jump\t// out\n        /* \"#utility.yul\":2104:2221   */\n    tag_181:\n        /* \"#utility.yul\":2213:2214   */\n      0x00\n        /* \"#utility.yul\":2210:2211   */\n      dup1\n        /* \"#utility.yul\":2203:2215   */\n      revert\n        /* \"#utility.yul\":2227:2344   */\n    tag_182:\n        /* \"#utility.yul\":2336:2337   */\n      0x00\n        /* \"#utility.yul\":2333:2334   */\n      dup1\n        /* \"#utility.yul\":2326:2338   */\n      revert\n        /* \"#utility.yul\":2350:2452   */\n    tag_183:\n        /* \"#utility.yul\":2391:2397   */\n      0x00\n        /* \"#utility.yul\":2442:2444   */\n      0x1f\n        /* \"#utility.yul\":2438:2445   */\n      not\n        /* \"#utility.yul\":2433:2435   */\n      0x1f\n        /* \"#utility.yul\":2426:2431   */\n      dup4\n        /* \"#utility.yul\":2422:2436   */\n      add\n        /* \"#utility.yul\":2418:2446   */\n      and\n        /* \"#utility.yul\":2408:2446   */\n      swap1\n      pop\n        /* \"#utility.yul\":2350:2452   */\n      swap2\n      swap1\n      pop\n      jump\t// out\n        /* \"#utility.yul\":2458:2638   */\n    tag_184:\n        /* \"#utility.yul\":2506:2583   */\n      0x4e487b7100000000000000000000000000000000000000000000000000000000\n        /* \"#utility.yul\":2503:2504   */\n      0x00\n        /* \"#utility.yul\":2496:2584   */\n      mstore\n        /* \"#utility.yul\":2603:2607   */\n      0x41\n        /* \"#utility.yul\":2600:2601   */\n      0x04\n        /* \"#utility.yul\":2593:2608   */\n      mstore\n        /* \"#utility.yul\":2627:2631   */\n      0x24\n        /* \"#utility.yul\":2624:2625   */\n      0x00\n        /* \"#utility.yul\":2617:2632   */\n      revert\n        /* \"#utility.yul\":2644:2925   */\n    tag_185:\n        /* \"#utility.yul\":2727:2754   */\n      tag_256\n        /* \"#utility.yul\":2749:2753   */\n      dup3\n        /* \"#utility.yul\":2727:2754   */\n      tag_183\n      jump\t// in\n    tag_256:\n        /* \"#utility.yul\":2719:2725   */\n      dup2\n        /* \"#utility.yul\":2715:2755   */\n      add\n        /* \"#utility.yul\":2857:2863   */\n      dup2\n        /* \"#utility.yul\":2845:2855   */\n      dup2\n        /* \"#utility.yul\":2842:2864   */\n      lt\n        /* \"#utility.yul\":2821:2839   */\n      0xffffffffffffffff\n        /* \"#utility.yul\":2809:2819   */\n      dup3\n        /* \"#utility.yul\":2806:2840   */\n      gt\n        /* \"#utility.yul\":2803:2865   */\n      or\n        /* \"#utility.yul\":2800:2888   */\n      iszero\n      tag_257\n      jumpi\n        /* \"#utility.yul\":2868:2886   */\n      tag_258\n      tag_184\n      jump\t// in\n    tag_258:\n        /* \"#utility.yul\":2800:2888   */\n    tag_257:\n        /* \"#utility.yul\":2908:2918   */\n      dup1\n        /* \"#utility.yul\":2904:2906   */\n      0x40\n        /* \"#utility.yul\":2897:2919   */\n      mstore\n        /* \"#utility.yul\":2687:2925   */\n      pop\n        /* \"#utility.yul\":2644:2925   */\n      pop\n      pop\n      jump\t// out\n        /* \"#utility.yul\":2931:3060   */\n    tag_186:\n        /* \"#utility.yul\":2965:2971   */\n      0x00\n        /* \"#utility.yul\":2992:3012   */\n      tag_260\n      tag_169\n      jump\t// in\n    tag_260:\n        /* \"#utility.yul\":2982:3012   */\n      swap1\n      pop\n        /* \"#utility.yul\":3021:3054   */\n      tag_261\n        /* \"#utility.yul\":3049:3053   */\n      dup3\n        /* \"#utility.yul\":3041:3047   */\n      dup3\n        /* \"#utility.yul\":3021:3054   */\n      tag_185\n      jump\t// in\n    tag_261:\n        /* \"#utility.yul\":2931:3060   */\n      swap2\n      swap1\n      pop\n      jump\t// out\n        /* \"#utility.yul\":3066:3374   */\n    tag_187:\n        /* \"#utility.yul\":3128:3132   */\n      0x00\n        /* \"#utility.yul\":3218:3236   */\n      0xffffffffffffffff\n        /* \"#utility.yul\":3210:3216   */\n      dup3\n        /* \"#utility.yul\":3207:3237   */\n      gt\n        /* \"#utility.yul\":3204:3260   */\n      iszero\n      tag_263\n      jumpi\n        /* \"#utility.yul\":3240:3258   */\n      tag_264\n      tag_184\n      jump\t// in\n    tag_264:\n        /* \"#utility.yul\":3204:3260   */\n    tag_263:\n        /* \"#utility.yul\":3278:3307   */\n      tag_265\n        /* \"#utility.yul\":3300:3306   */\n      dup3\n        /* \"#utility.yul\":3278:3307   */\n      tag_183\n      jump\t// in\n    tag_265:\n        /* \"#utility.yul\":3270:3307   */\n      swap1\n      pop\n        /* \"#utility.yul\":3362:3366   */\n      0x20\n        /* \"#utility.yul\":3356:3360   */\n      dup2\n        /* \"#utility.yul\":3352:3367   */\n      add\n        /* \"#utility.yul\":3344:3367   */\n      swap1\n      pop\n        /* \"#utility.yul\":3066:3374   */\n      swap2\n      swap1\n      pop\n      jump\t// out\n        /* \"#utility.yul\":3380:3526   */\n    tag_188:\n        /* \"#utility.yul\":3477:3483   */\n      dup3\n        /* \"#utility.yul\":3472:3475   */\n      dup2\n        /* \"#utility.yul\":3467:3470   */\n      dup4\n        /* \"#utility.yul\":3454:3484   */\n      calldatacopy\n        /* \"#utility.yul\":3518:3519   */\n      0x00\n        /* \"#utility.yul\":3509:3515   */\n      dup4\n        /* \"#utility.yul\":3504:3507   */\n      dup4\n        /* \"#utility.yul\":3500:3516   */\n      add\n        /* \"#utility.yul\":3493:3520   */\n      mstore\n        /* \"#utility.yul\":3380:3526   */\n      pop\n      pop\n      pop\n      jump\t// out\n        /* \"#utility.yul\":3532:3957   */\n    tag_189:\n        /* \"#utility.yul\":3610:3615   */\n      0x00\n        /* \"#utility.yul\":3635:3701   */\n      tag_268\n        /* \"#utility.yul\":3651:3700   */\n      tag_269\n        /* \"#utility.yul\":3693:3699   */\n      dup5\n        /* \"#utility.yul\":3651:3700   */\n      tag_187\n      jump\t// in\n    tag_269:\n        /* \"#utility.yul\":3635:3701   */\n      tag_186\n      jump\t// in\n    tag_268:\n        /* \"#utility.yul\":3626:3701   */\n      swap1\n      pop\n        /* \"#utility.yul\":3724:3730   */\n      dup3\n        /* \"#utility.yul\":3717:3722   */\n      dup2\n        /* \"#utility.yul\":3710:3731   */\n      mstore\n        /* \"#utility.yul\":3762:3766   */\n      0x20\n        /* \"#utility.yul\":3755:3760   */\n      dup2\n        /* \"#utility.yul\":3751:3767   */\n      add\n        /* \"#utility.yul\":3800:3803   */\n      dup5\n        /* \"#utility.yul\":3791:3797   */\n      dup5\n        /* \"#utility.yul\":3786:3789   */\n      dup5\n        /* \"#utility.yul\":3782:3798   */\n      add\n        /* \"#utility.yul\":3779:3804   */\n      gt\n        /* \"#utility.yul\":3776:3888   */\n      iszero\n      tag_270\n      jumpi\n        /* \"#utility.yul\":3807:3886   */\n      tag_271\n      tag_182\n      jump\t// in\n    tag_271:\n        /* \"#utility.yul\":3776:3888   */\n    tag_270:\n        /* \"#utility.yul\":3897:3951   */\n      tag_272\n        /* \"#utility.yul\":3944:3950   */\n      dup5\n        /* \"#utility.yul\":3939:3942   */\n      dup3\n        /* \"#utility.yul\":3934:3937   */\n      dup6\n        /* \"#utility.yul\":3897:3951   */\n      tag_188\n      jump\t// in\n    tag_272:\n        /* \"#utility.yul\":3616:3957   */\n      pop\n        /* \"#utility.yul\":3532:3957   */\n      swap4\n      swap3\n      pop\n      pop\n      pop\n      jump\t// out\n        /* \"#utility.yul\":3977:4317   */\n    tag_190:\n        /* \"#utility.yul\":4033:4038   */\n      0x00\n        /* \"#utility.yul\":4082:4085   */\n      dup3\n        /* \"#utility.yul\":4075:4079   */\n      0x1f\n        /* \"#utility.yul\":4067:4073   */\n      dup4\n        /* \"#utility.yul\":4063:4080   */\n      add\n        /* \"#utility.yul\":4059:4086   */\n      slt\n        /* \"#utility.yul\":4049:4171   */\n      tag_274\n      jumpi\n        /* \"#utility.yul\":4090:4169   */\n      tag_275\n      tag_181\n      jump\t// in\n    tag_275:\n        /* \"#utility.yul\":4049:4171   */\n    tag_274:\n        /* \"#utility.yul\":4207:4213   */\n      dup2\n        /* \"#utility.yul\":4194:4214   */\n      calldataload\n        /* \"#utility.yul\":4232:4311   */\n      tag_276\n        /* \"#utility.yul\":4307:4310   */\n      dup5\n        /* \"#utility.yul\":4299:4305   */\n      dup3\n        /* \"#utility.yul\":4292:4296   */\n      0x20\n        /* \"#utility.yul\":4284:4290   */\n      dup7\n        /* \"#utility.yul\":4280:4297   */\n      add\n        /* \"#utility.yul\":4232:4311   */\n      tag_189\n      jump\t// in\n    tag_276:\n        /* \"#utility.yul\":4223:4311   */\n      swap2\n      pop\n        /* \"#utility.yul\":4039:4317   */\n      pop\n        /* \"#utility.yul\":3977:4317   */\n      swap3\n      swap2\n      pop\n      pop\n      jump\t// out\n        /* \"#utility.yul\":4323:4977   */\n    tag_17:\n        /* \"#utility.yul\":4401:4407   */\n      0x00\n        /* \"#utility.yul\":4409:4415   */\n      dup1\n        /* \"#utility.yul\":4458:4460   */\n      0x40\n        /* \"#utility.yul\":4446:4455   */\n      dup4\n        /* \"#utility.yul\":4437:4444   */\n      dup6\n        /* \"#utility.yul\":4433:4456   */\n      sub\n        /* \"#utility.yul\":4429:4461   */\n      slt\n        /* \"#utility.yul\":4426:4545   */\n      iszero\n      tag_278\n      jumpi\n        /* \"#utility.yul\":4464:4543   */\n      tag_279\n      tag_170\n      jump\t// in\n    tag_279:\n        /* \"#utility.yul\":4426:4545   */\n    tag_278:\n        /* \"#utility.yul\":4612:4613   */\n      0x00\n        /* \"#utility.yul\":4601:4610   */\n      dup4\n        /* \"#utility.yul\":4597:4614   */\n      add\n        /* \"#utility.yul\":4584:4615   */\n      calldataload\n        /* \"#utility.yul\":4642:4660   */\n      0xffffffffffffffff\n        /* \"#utility.yul\":4634:4640   */\n      dup2\n        /* \"#utility.yul\":4631:4661   */\n      gt\n        /* \"#utility.yul\":4628:4745   */\n      iszero\n      tag_280\n      jumpi\n        /* \"#utility.yul\":4664:4743   */\n      tag_281\n      tag_171\n      jump\t// in\n    tag_281:\n        /* \"#utility.yul\":4628:4745   */\n    tag_280:\n        /* \"#utility.yul\":4769:4832   */\n      tag_282\n        /* \"#utility.yul\":4824:4831   */\n      dup6\n        /* \"#utility.yul\":4815:4821   */\n      dup3\n        /* \"#utility.yul\":4804:4813   */\n      dup7\n        /* \"#utility.yul\":4800:4822   */\n      add\n        /* \"#utility.yul\":4769:4832   */\n      tag_190\n      jump\t// in\n    tag_282:\n        /* \"#utility.yul\":4759:4832   */\n      swap3\n      pop\n        /* \"#utility.yul\":4555:4842   */\n      pop\n        /* \"#utility.yul\":4881:4883   */\n      0x20\n        /* \"#utility.yul\":4907:4960   */\n      tag_283\n        /* \"#utility.yul\":4952:4959   */\n      dup6\n        /* \"#utility.yul\":4943:4949   */\n      dup3\n        /* \"#utility.yul\":4932:4941   */\n      dup7\n        /* \"#utility.yul\":4928:4950   */\n      add\n        /* \"#utility.yul\":4907:4960   */\n      tag_175\n      jump\t// in\n    tag_283:\n        /* \"#utility.yul\":4897:4960   */\n      swap2\n      pop\n        /* \"#utility.yul\":4852:4970   */\n      pop\n        /* \"#utility.yul\":4323:4977   */\n      swap3\n      pop\n      swap3\n      swap1\n      pop\n      jump\t// out\n        /* \"#utility.yul\":4983:5492   */\n    tag_26:\n        /* \"#utility.yul\":5052:5058   */\n      0x00\n        /* \"#utility.yul\":5101:5103   */\n      0x20\n        /* \"#utility.yul\":5089:5098   */\n      dup3\n        /* \"#utility.yul\":5080:5087   */\n      dup5\n        /* \"#utility.yul\":5076:5099   */\n      sub\n        /* \"#utility.yul\":5072:5104   */\n      slt\n        /* \"#utility.yul\":5069:5188   */\n      iszero\n      tag_285\n      jumpi\n        /* \"#utility.yul\":5107:5186   */\n      tag_286\n      tag_170\n      jump\t// in\n    tag_286:\n        /* \"#utility.yul\":5069:5188   */\n    tag_285:\n        /* \"#utility.yul\":5255:5256   */\n      0x00\n        /* \"#utility.yul\":5244:5253   */\n      dup3\n        /* \"#utility.yul\":5240:5257   */\n      add\n        /* \"#utility.yul\":5227:5258   */\n      calldataload\n        /* \"#utility.yul\":5285:5303   */\n      0xffffffffffffffff\n        /* \"#utility.yul\":5277:5283   */\n      dup2\n        /* \"#utility.yul\":5274:5304   */\n      gt\n        /* \"#utility.yul\":5271:5388   */\n      iszero\n      tag_287\n      jumpi\n        /* \"#utility.yul\":5307:5386   */\n      tag_288\n      tag_171\n      jump\t// in\n    tag_288:\n        /* \"#utility.yul\":5271:5388   */\n    tag_287:\n        /* \"#utility.yul\":5412:5475   */\n      tag_289\n        /* \"#utility.yul\":5467:5474   */\n      dup5\n        /* \"#utility.yul\":5458:5464   */\n      dup3\n        /* \"#utility.yul\":5447:5456   */\n      dup6\n        /* \"#utility.yul\":5443:5465   */\n      add\n        /* \"#utility.yul\":5412:5475   */\n      tag_190\n      jump\t// in\n    tag_289:\n        /* \"#utility.yul\":5402:5475   */\n      swap2\n      pop\n        /* \"#utility.yul\":5198:5485   */\n      pop\n        /* \"#utility.yul\":4983:5492   */\n      swap3\n      swap2\n      pop\n      pop\n      jump\t// out\n        /* \"#utility.yul\":5498:5678   */\n    tag_191:\n        /* \"#utility.yul\":5546:5623   */\n      0x4e487b7100000000000000000000000000000000000000000000000000000000\n        /* \"#utility.yul\":5543:5544   */\n      0x00\n        /* \"#utility.yul\":5536:5624   */\n      mstore\n        /* \"#utility.yul\":5643:5647   */\n      0x11\n        /* \"#utility.yul\":5640:5641   */\n      0x04\n        /* \"#utility.yul\":5633:5648   */\n      mstore\n        /* \"#utility.yul\":5667:5671   */\n      0x24\n        /* \"#utility.yul\":5664:5665   */\n      0x00\n        /* \"#utility.yul\":5657:5672   */\n      revert\n        /* \"#utility.yul\":5684:5878   */\n    tag_76:\n        /* \"#utility.yul\":5724:5728   */\n      0x00\n        /* \"#utility.yul\":5744:5764   */\n      tag_292\n        /* \"#utility.yul\":5762:5763   */\n      dup3\n        /* \"#utility.yul\":5744:5764   */\n      tag_176\n      jump\t// in\n    tag_292:\n        /* \"#utility.yul\":5739:5764   */\n      swap2\n      pop\n        /* \"#utility.yul\":5778:5798   */\n      tag_293\n        /* \"#utility.yul\":5796:5797   */\n      dup4\n        /* \"#utility.yul\":5778:5798   */\n      tag_176\n      jump\t// in\n    tag_293:\n        /* \"#utility.yul\":5773:5798   */\n      swap3\n      pop\n        /* \"#utility.yul\":5822:5823   */\n      dup3\n        /* \"#utility.yul\":5819:5820   */\n      dup3\n        /* \"#utility.yul\":5815:5824   */\n      sub\n        /* \"#utility.yul\":5807:5824   */\n      swap1\n      pop\n        /* \"#utility.yul\":5846:5847   */\n      dup2\n        /* \"#utility.yul\":5840:5844   */\n      dup2\n        /* \"#utility.yul\":5837:5848   */\n      gt\n        /* \"#utility.yul\":5834:5871   */\n      iszero\n      tag_294\n      jumpi\n        /* \"#utility.yul\":5851:5869   */\n      tag_295\n      tag_191\n      jump\t// in\n    tag_295:\n        /* \"#utility.yul\":5834:5871   */\n    tag_294:\n        /* \"#utility.yul\":5684:5878   */\n      swap3\n      swap2\n      pop\n      pop\n      jump\t// out\n        /* \"#utility.yul\":5884:5983   */\n    tag_192:\n        /* \"#utility.yul\":5936:5942   */\n      0x00\n        /* \"#utility.yul\":5970:5975   */\n      dup2\n        /* \"#utility.yul\":5964:5976   */\n      mload\n        /* \"#utility.yul\":5954:5976   */\n      swap1\n      pop\n        /* \"#utility.yul\":5884:5983   */\n      swap2\n      swap1\n      pop\n      jump\t// out\n        /* \"#utility.yul\":5989:6169   */\n    tag_193:\n        /* \"#utility.yul\":6037:6114   */\n      0x4e487b7100000000000000000000000000000000000000000000000000000000\n        /* \"#utility.yul\":6034:6035   */\n      0x00\n        /* \"#utility.yul\":6027:6115   */\n      mstore\n        /* \"#utility.yul\":6134:6138   */\n      0x22\n        /* \"#utility.yul\":6131:6132   */\n      0x04\n        /* \"#utility.yul\":6124:6139   */\n      mstore\n        /* \"#utility.yul\":6158:6162   */\n      0x24\n        /* \"#utility.yul\":6155:6156   */\n      0x00\n        /* \"#utility.yul\":6148:6163   */\n      revert\n        /* \"#utility.yul\":6175:6495   */\n    tag_194:\n        /* \"#utility.yul\":6219:6225   */\n      0x00\n        /* \"#utility.yul\":6256:6257   */\n      0x02\n        /* \"#utility.yul\":6250:6254   */\n      dup3\n        /* \"#utility.yul\":6246:6258   */\n      div\n        /* \"#utility.yul\":6236:6258   */\n      swap1\n      pop\n        /* \"#utility.yul\":6303:6304   */\n      0x01\n        /* \"#utility.yul\":6297:6301   */\n      dup3\n        /* \"#utility.yul\":6293:6305   */\n      and\n        /* \"#utility.yul\":6324:6342   */\n      dup1\n        /* \"#utility.yul\":6314:6395   */\n      tag_299\n      jumpi\n        /* \"#utility.yul\":6380:6384   */\n      0x7f\n        /* \"#utility.yul\":6372:6378   */\n      dup3\n        /* \"#utility.yul\":6368:6385   */\n      and\n        /* \"#utility.yul\":6358:6385   */\n      swap2\n      pop\n        /* \"#utility.yul\":6314:6395   */\n    tag_299:\n        /* \"#utility.yul\":6442:6444   */\n      0x20\n        /* \"#utility.yul\":6434:6440   */\n      dup3\n        /* \"#utility.yul\":6431:6445   */\n      lt\n        /* \"#utility.yul\":6411:6429   */\n      dup2\n        /* \"#utility.yul\":6408:6446   */\n      sub\n        /* \"#utility.yul\":6405:6489   */\n      tag_300\n      jumpi\n        /* \"#utility.yul\":6461:6479   */\n      tag_301\n      tag_193\n      jump\t// in\n    tag_301:\n        /* \"#utility.yul\":6405:6489   */\n    tag_300:\n        /* \"#utility.yul\":6226:6495   */\n      pop\n        /* \"#utility.yul\":6175:6495   */\n      swap2\n      swap1\n      pop\n      jump\t// out\n        /* \"#utility.yul\":6501:6642   */\n    tag_195:\n        /* \"#utility.yul\":6550:6554   */\n      0x00\n        /* \"#utility.yul\":6573:6576   */\n      dup2\n        /* \"#utility.yul\":6565:6576   */\n      swap1\n      pop\n        /* \"#utility.yul\":6596:6599   */\n      dup2\n        /* \"#utility.yul\":6593:6594   */\n      0x00\n        /* \"#utility.yul\":6586:6600   */\n      mstore\n        /* \"#utility.yul\":6630:6634   */\n      0x20\n        /* \"#utility.yul\":6627:6628   */\n      0x00\n        /* \"#utility.yul\":6617:6635   */\n      keccak256\n        /* \"#utility.yul\":6609:6635   */\n      swap1\n      pop\n        /* \"#utility.yul\":6501:6642   */\n      swap2\n      swap1\n      pop\n      jump\t// out\n        /* \"#utility.yul\":6648:6741   */\n    tag_196:\n        /* \"#utility.yul\":6685:6691   */\n      0x00\n        /* \"#utility.yul\":6732:6734   */\n      0x20\n        /* \"#utility.yul\":6727:6729   */\n      0x1f\n        /* \"#utility.yul\":6720:6725   */\n      dup4\n        /* \"#utility.yul\":6716:6730   */\n      add\n        /* \"#utility.yul\":6712:6735   */\n      div\n        /* \"#utility.yul\":6702:6735   */\n      swap1\n      pop\n        /* \"#utility.yul\":6648:6741   */\n      swap2\n      swap1\n      pop\n      jump\t// out\n        /* \"#utility.yul\":6747:6854   */\n    tag_197:\n        /* \"#utility.yul\":6791:6799   */\n      0x00\n        /* \"#utility.yul\":6841:6846   */\n      dup3\n        /* \"#utility.yul\":6835:6839   */\n      dup3\n        /* \"#utility.yul\":6831:6847   */\n      shl\n        /* \"#utility.yul\":6810:6847   */\n      swap1\n      pop\n        /* \"#utility.yul\":6747:6854   */\n      swap3\n      swap2\n      pop\n      pop\n      jump\t// out\n        /* \"#utility.yul\":6860:7253   */\n    tag_198:\n        /* \"#utility.yul\":6929:6935   */\n      0x00\n        /* \"#utility.yul\":6979:6980   */\n      0x08\n        /* \"#utility.yul\":6967:6977   */\n      dup4\n        /* \"#utility.yul\":6963:6981   */\n      mul\n        /* \"#utility.yul\":7002:7099   */\n      tag_306\n        /* \"#utility.yul\":7032:7098   */\n      0xffffffffffffffffffffffffffffffffffffffffffffffffffffffffffffffff\n        /* \"#utility.yul\":7021:7030   */\n      dup3\n        /* \"#utility.yul\":7002:7099   */\n      tag_197\n      jump\t// in\n    tag_306:\n        /* \"#utility.yul\":7120:7159   */\n      tag_307\n        /* \"#utility.yul\":7150:7158   */\n      dup7\n        /* \"#utility.yul\":7139:7148   */\n      dup4\n        /* \"#utility.yul\":7120:7159   */\n      tag_197\n      jump\t// in\n    tag_307:\n        /* \"#utility.yul\":7108:7159   */\n      swap6\n      pop\n        /* \"#utility.yul\":7192:7196   */\n      dup1\n        /* \"#utility.yul\":7188:7197   */\n      not\n        /* \"#utility.yul\":7181:7186   */\n      dup5\n        /* \"#utility.yul\":7177:7198   */\n      and\n        /* \"#utility.yul\":7168:7198   */\n      swap4\n      pop\n        /* \"#utility.yul\":7241:7245   */\n      dup1\n        /* \"#utility.yul\":7231:7239   */\n      dup7\n        /* \"#utility.yul\":7227:7246   */\n      and\n        /* \"#utility.yul\":7220:7225   */\n      dup5\n        /* \"#utility.yul\":7217:7247   */\n      or\n        /* \"#utility.yul\":7207:7247   */\n      swap3\n      pop\n        /* \"#utility.yul\":6936:7253   */\n      pop\n      pop\n        /* \"#utility.yul\":6860:7253   */\n      swap4\n      swap3\n      pop\n      pop\n      pop\n      jump\t// out\n        /* \"#utility.yul\":7259:7319   */\n    tag_199:\n        /* \"#utility.yul\":7287:7290   */\n      0x00\n        /* \"#utility.yul\":7308:7313   */\n      dup2\n        /* \"#utility.yul\":7301:7313   */\n      swap1\n      pop\n        /* \"#utility.yul\":7259:7319   */\n      swap2\n      swap1\n      pop\n      jump\t// out\n        /* \"#utility.yul\":7325:7467   */\n    tag_200:\n        /* \"#utility.yul\":7375:7384   */\n      0x00\n        /* \"#utility.yul\":7408:7461   */\n      tag_310\n        /* \"#utility.yul\":7426:7460   */\n      tag_311\n        /* \"#utility.yul\":7435:7459   */\n      tag_312\n        /* \"#utility.yul\":7453:7458   */\n      dup5\n        /* \"#utility.yul\":7435:7459   */\n      tag_176\n      jump\t// in\n    tag_312:\n        /* \"#utility.yul\":7426:7460   */\n      tag_199\n      jump\t// in\n    tag_311:\n        /* \"#utility.yul\":7408:7461   */\n      tag_176\n      jump\t// in\n    tag_310:\n        /* \"#utility.yul\":7395:7461   */\n      swap1\n      pop\n        /* \"#utility.yul\":7325:7467   */\n      swap2\n      swap1\n      pop\n      jump\t// out\n        /* \"#utility.yul\":7473:7548   */\n    tag_201:\n        /* \"#utility.yul\":7516:7519   */\n      0x00\n        /* \"#utility.yul\":7537:7542   */\n      dup2\n        /* \"#utility.yul\":7530:7542   */\n      swap1\n      pop\n        /* \"#utility.yul\":7473:7548   */\n      swap2\n      swap1\n      pop\n      jump\t// out\n        /* \"#utility.yul\":7554:7823   */\n    tag_202:\n        /* \"#utility.yul\":7664:7703   */\n      tag_315\n        /* \"#utility.yul\":7695:7702   */\n      dup4\n        /* \"#utility.yul\":7664:7703   */\n      tag_200\n      jump\t// in\n    tag_315:\n        /* \"#utility.yul\":7725:7816   */\n      tag_316\n        /* \"#utility.yul\":7774:7815   */\n      tag_317\n        /* \"#utility.yul\":7798:7814   */\n      dup3\n        /* \"#utility.yul\":7774:7815   */\n      tag_201\n      jump\t// in\n    tag_317:\n        /* \"#utility.yul\":7766:7772   */\n      dup5\n        /* \"#utility.yul\":7759:7763   */\n      dup5\n        /* \"#utility.yul\":7753:7764   */\n      sload\n        /* \"#utility.yul\":7725:7816   */\n      tag_198\n      jump\t// in\n    tag_316:\n        /* \"#utility.yul\":7719:7723   */\n      dup3\n        /* \"#utility.yul\":7712:7817   */\n      sstore\n        /* \"#utility.yul\":7630:7823   */\n      pop\n        /* \"#utility.yul\":7554:7823   */\n      pop\n      pop\n      pop\n      jump\t// out\n        /* \"#utility.yul\":7829:7902   */\n    tag_203:\n        /* \"#utility.yul\":7874:7877   */\n      0x00\n        /* \"#utility.yul\":7829:7902   */\n      swap1\n      jump\t// out\n        /* \"#utility.yul\":7908:8097   */\n    tag_204:\n        /* \"#utility.yul\":7985:8017   */\n      tag_320\n      tag_203\n      jump\t// in\n    tag_320:\n        /* \"#utility.yul\":8026:8091   */\n      tag_321\n        /* \"#utility.yul\":8084:8090   */\n      dup2\n        /* \"#utility.yul\":8076:8082   */\n      dup5\n        /* \"#utility.yul\":8070:8074   */\n      dup5\n        /* \"#utility.yul\":8026:8091   */\n      tag_202\n      jump\t// in\n    tag_321:\n        /* \"#utility.yul\":7961:8097   */\n      pop\n        /* \"#utility.yul\":7908:8097   */\n      pop\n      pop\n      jump\t// out\n        /* \"#utility.yul\":8103:8289   */\n    tag_205:\n        /* \"#utility.yul\":8163:8283   */\n    tag_323:\n        /* \"#utility.yul\":8180:8183   */\n      dup2\n        /* \"#utility.yul\":8173:8178   */\n      dup2\n        /* \"#utility.yul\":8170:8184   */\n      lt\n        /* \"#utility.yul\":8163:8283   */\n      iszero\n      tag_325\n      jumpi\n        /* \"#utility.yul\":8234:8273   */\n      tag_326\n        /* \"#utility.yul\":8271:8272   */\n      0x00\n        /* \"#utility.yul\":8264:8269   */\n      dup3\n        /* \"#utility.yul\":8234:8273   */\n      tag_204\n      jump\t// in\n    tag_326:\n        /* \"#utility.yul\":8207:8208   */\n      0x01\n        /* \"#utility.yul\":8200:8205   */\n      dup2\n        /* \"#utility.yul\":8196:8209   */\n      add\n        /* \"#utility.yul\":8187:8209   */\n      swap1\n      pop\n        /* \"#utility.yul\":8163:8283   */\n      jump(tag_323)\n    tag_325:\n        /* \"#utility.yul\":8103:8289   */\n      pop\n      pop\n      jump\t// out\n        /* \"#utility.yul\":8295:8838   */\n    tag_206:\n        /* \"#utility.yul\":8396:8398   */\n      0x1f\n        /* \"#utility.yul\":8391:8394   */\n      dup3\n        /* \"#utility.yul\":8388:8399   */\n      gt\n        /* \"#utility.yul\":8385:8831   */\n      iszero\n      tag_328\n      jumpi\n        /* \"#utility.yul\":8430:8468   */\n      tag_329\n        /* \"#utility.yul\":8462:8467   */\n      dup2\n        /* \"#utility.yul\":8430:8468   */\n      tag_195\n      jump\t// in\n    tag_329:\n        /* \"#utility.yul\":8514:8543   */\n      tag_330\n        /* \"#utility.yul\":8532:8542   */\n      dup5\n        /* \"#utility.yul\":8514:8543   */\n      tag_196\n      jump\t// in\n    tag_330:\n        /* \"#utility.yul\":8504:8512   */\n      dup2\n        /* \"#utility.yul\":8500:8544   */\n      add\n        /* \"#utility.yul\":8697:8699   */\n      0x20\n        /* \"#utility.yul\":8685:8695   */\n      dup6\n        /* \"#utility.yul\":8682:8700   */\n      lt\n        /* \"#utility.yul\":8679:8728   */\n      iszero\n      tag_331\n      jumpi\n        /* \"#utility.yul\":8718:8726   */\n      dup2\n        /* \"#utility.yul\":8703:8726   */\n      swap1\n      pop\n        /* \"#utility.yul\":8679:8728   */\n    tag_331:\n        /* \"#utility.yul\":8741:8821   */\n      tag_332\n        /* \"#utility.yul\":8797:8819   */\n      tag_333\n        /* \"#utility.yul\":8815:8818   */\n      dup6\n        /* \"#utility.yul\":8797:8819   */\n      tag_196\n      jump\t// in\n    tag_333:\n        /* \"#utility.yul\":8787:8795   */\n      dup4\n        /* \"#utility.yul\":8783:8820   */\n      add\n        /* \"#utility.yul\":8770:8781   */\n      dup3\n        /* \"#utility.yul\":8741:8821   */\n      tag_205\n      jump\t// in\n    tag_332:\n        /* \"#utility.yul\":8400:8831   */\n      pop\n      pop\n        /* \"#utility.yul\":8385:8831   */\n    tag_328:\n        /* \"#utility.yul\":8295:8838   */\n      pop\n      pop\n      pop\n      jump\t// out\n        /* \"#utility.yul\":8844:8961   */\n    tag_207:\n        /* \"#utility.yul\":8898:8906   */\n      0x00\n        /* \"#utility.yul\":8948:8953   */\n      dup3\n        /* \"#utility.yul\":8942:8946   */\n      dup3\n        /* \"#utility.yul\":8938:8954   */\n      shr\n        /* \"#utility.yul\":8917:8954   */\n      swap1\n      pop\n        /* \"#utility.yul\":8844:8961   */\n      swap3\n      swap2\n      pop\n      pop\n      jump\t// out\n        /* \"#utility.yul\":8967:9136   */\n    tag_208:\n        /* \"#utility.yul\":9011:9017   */\n      0x00\n        /* \"#utility.yul\":9044:9095   */\n      tag_336\n        /* \"#utility.yul\":9092:9093   */\n      0x00\n        /* \"#utility.yul\":9088:9094   */\n      not\n        /* \"#utility.yul\":9080:9085   */\n      dup5\n        /* \"#utility.yul\":9077:9078   */\n      0x08\n        /* \"#utility.yul\":9073:9086   */\n      mul\n        /* \"#utility.yul\":9044:9095   */\n      tag_207\n      jump\t// in\n    tag_336:\n        /* \"#utility.yul\":9040:9096   */\n      not\n        /* \"#utility.yul\":9125:9129   */\n      dup1\n        /* \"#utility.yul\":9119:9123   */\n      dup4\n        /* \"#utility.yul\":9115:9130   */\n      and\n        /* \"#utility.yul\":9105:9130   */\n      swap2\n      pop\n        /* \"#utility.yul\":9018:9136   */\n      pop\n        /* \"#utility.yul\":8967:9136   */\n      swap3\n      swap2\n      pop\n      pop\n      jump\t// out\n        /* \"#utility.yul\":9141:9436   */\n    tag_209:\n        /* \"#utility.yul\":9217:9221   */\n      0x00\n        /* \"#utility.yul\":9363:9392   */\n      tag_338\n        /* \"#utility.yul\":9388:9391   */\n      dup4\n        /* \"#utility.yul\":9382:9386   */\n      dup4\n        /* \"#utility.yul\":9363:9392   */\n      tag_208\n      jump\t// in\n    tag_338:\n        /* \"#utility.yul\":9355:9392   */\n      swap2\n      pop\n        /* \"#utility.yul\":9425:9428   */\n      dup3\n        /* \"#utility.yul\":9422:9423   */\n      0x02\n        /* \"#utility.yul\":9418:9429   */\n      mul\n        /* \"#utility.yul\":9412:9416   */\n      dup3\n        /* \"#utility.yul\":9409:9430   */\n      or\n        /* \"#utility.yul\":9401:9430   */\n      swap1\n      pop\n        /* \"#utility.yul\":9141:9436   */\n      swap3\n      swap2\n      pop\n      pop\n      jump\t// out\n        /* \"#utility.yul\":9441:10836   */\n    tag_93:\n        /* \"#utility.yul\":9558:9595   */\n      tag_340\n        /* \"#utility.yul\":9591:9594   */\n      dup3\n        /* \"#utility.yul\":9558:9595   */\n      tag_192\n      jump\t// in\n    tag_340:\n        /* \"#utility.yul\":9660:9678   */\n      0xffffffffffffffff\n        /* \"#utility.yul\":9652:9658   */\n      dup2\n        /* \"#utility.yul\":9649:9679   */\n      gt\n        /* \"#utility.yul\":9646:9702   */\n      iszero\n      tag_341\n      jumpi\n        /* \"#utility.yul\":9682:9700   */\n      tag_342\n      tag_184\n      jump\t// in\n    tag_342:\n        /* \"#utility.yul\":9646:9702   */\n    tag_341:\n        /* \"#utility.yul\":9726:9764   */\n      tag_343\n        /* \"#utility.yul\":9758:9762   */\n      dup3\n        /* \"#utility.yul\":9752:9763   */\n      sload\n        /* \"#utility.yul\":9726:9764   */\n      tag_194\n      jump\t// in\n    tag_343:\n        /* \"#utility.yul\":9811:9878   */\n      tag_344\n        /* \"#utility.yul\":9871:9877   */\n      dup3\n        /* \"#utility.yul\":9863:9869   */\n      dup3\n        /* \"#utility.yul\":9857:9861   */\n      dup6\n        /* \"#utility.yul\":9811:9878   */\n      tag_206\n      jump\t// in\n    tag_344:\n        /* \"#utility.yul\":9905:9906   */\n      0x00\n        /* \"#utility.yul\":9929:9933   */\n      0x20\n        /* \"#utility.yul\":9916:9933   */\n      swap1\n      pop\n        /* \"#utility.yul\":9961:9963   */\n      0x1f\n        /* \"#utility.yul\":9953:9959   */\n      dup4\n        /* \"#utility.yul\":9950:9964   */\n      gt\n        /* \"#utility.yul\":9978:9979   */\n      0x01\n        /* \"#utility.yul\":9973:10591   */\n      dup2\n      eq\n      tag_346\n      jumpi\n        /* \"#utility.yul\":10635:10636   */\n      0x00\n        /* \"#utility.yul\":10652:10658   */\n      dup5\n        /* \"#utility.yul\":10649:10726   */\n      iszero\n      tag_347\n      jumpi\n        /* \"#utility.yul\":10701:10710   */\n      dup3\n        /* \"#utility.yul\":10696:10699   */\n      dup8\n        /* \"#utility.yul\":10692:10711   */\n      add\n        /* \"#utility.yul\":10686:10712   */\n      mload\n        /* \"#utility.yul\":10677:10712   */\n      swap1\n      pop\n        /* \"#utility.yul\":10649:10726   */\n    tag_347:\n        /* \"#utility.yul\":10752:10819   */\n      tag_348\n        /* \"#utility.yul\":10812:10818   */\n      dup6\n        /* \"#utility.yul\":10805:10810   */\n      dup3\n        /* \"#utility.yul\":10752:10819   */\n      tag_209\n      jump\t// in\n    tag_348:\n        /* \"#utility.yul\":10746:10750   */\n      dup7\n        /* \"#utility.yul\":10739:10820   */\n      sstore\n        /* \"#utility.yul\":10608:10830   */\n      pop\n        /* \"#utility.yul\":9943:10830   */\n      jump(tag_345)\n        /* \"#utility.yul\":9973:10591   */\n    tag_346:\n        /* \"#utility.yul\":10025:10029   */\n      0x1f\n        /* \"#utility.yul\":10021:10030   */\n      not\n        /* \"#utility.yul\":10013:10019   */\n      dup5\n        /* \"#utility.yul\":10009:10031   */\n      and\n        /* \"#utility.yul\":10059:10096   */\n      tag_349\n        /* \"#utility.yul\":10091:10095   */\n      dup7\n        /* \"#utility.yul\":10059:10096   */\n      tag_195\n      jump\t// in\n    tag_349:\n        /* \"#utility.yul\":10118:10119   */\n      0x00\n        /* \"#utility.yul\":10132:10340   */\n    tag_350:\n        /* \"#utility.yul\":10146:10153   */\n      dup3\n        /* \"#utility.yul\":10143:10144   */\n      dup2\n        /* \"#utility.yul\":10140:10154   */\n      lt\n        /* \"#utility.yul\":10132:10340   */\n      iszero\n      tag_352\n      jumpi\n        /* \"#utility.yul\":10225:10234   */\n      dup5\n        /* \"#utility.yul\":10220:10223   */\n      dup10\n        /* \"#utility.yul\":10216:10235   */\n      add\n        /* \"#utility.yul\":10210:10236   */\n      mload\n        /* \"#utility.yul\":10202:10208   */\n      dup3\n        /* \"#utility.yul\":10195:10237   */\n      sstore\n        /* \"#utility.yul\":10276:10277   */\n      0x01\n        /* \"#utility.yul\":10268:10274   */\n      dup3\n        /* \"#utility.yul\":10264:10278   */\n      add\n        /* \"#utility.yul\":10254:10278   */\n      swap2\n      pop\n        /* \"#utility.yul\":10323:10325   */\n      0x20\n        /* \"#utility.yul\":10312:10321   */\n      dup6\n        /* \"#utility.yul\":10308:10326   */\n      add\n        /* \"#utility.yul\":10295:10326   */\n      swap5\n      pop\n        /* \"#utility.yul\":10169:10173   */\n      0x20\n        /* \"#utility.yul\":10166:10167   */\n      dup2\n        /* \"#utility.yul\":10162:10174   */\n      add\n        /* \"#utility.yul\":10157:10174   */\n      swap1\n      pop\n        /* \"#utility.yul\":10132:10340   */\n      jump(tag_350)\n    tag_352:\n        /* \"#utility.yul\":10368:10374   */\n      dup7\n        /* \"#utility.yul\":10359:10366   */\n      dup4\n        /* \"#utility.yul\":10356:10375   */\n      lt\n        /* \"#utility.yul\":10353:10532   */\n      iszero\n      tag_353\n      jumpi\n        /* \"#utility.yul\":10426:10435   */\n      dup5\n        /* \"#utility.yul\":10421:10424   */\n      dup10\n        /* \"#utility.yul\":10417:10436   */\n      add\n        /* \"#utility.yul\":10411:10437   */\n      mload\n        /* \"#utility.yul\":10469:10517   */\n      tag_354\n        /* \"#utility.yul\":10511:10515   */\n      0x1f\n        /* \"#utility.yul\":10503:10509   */\n      dup10\n        /* \"#utility.yul\":10499:10516   */\n      and\n        /* \"#utility.yul\":10488:10497   */\n      dup3\n        /* \"#utility.yul\":10469:10517   */\n      tag_208\n      jump\t// in\n    tag_354:\n        /* \"#utility.yul\":10461:10467   */\n      dup4\n        /* \"#utility.yul\":10454:10518   */\n      sstore\n        /* \"#utility.yul\":10376:10532   */\n      pop\n        /* \"#utility.yul\":10353:10532   */\n    tag_353:\n        /* \"#utility.yul\":10578:10579   */\n      0x01\n        /* \"#utility.yul\":10574:10575   */\n      0x02\n        /* \"#utility.yul\":10566:10572   */\n      dup9\n        /* \"#utility.yul\":10562:10576   */\n      mul\n        /* \"#utility.yul\":10558:10580   */\n      add\n        /* \"#utility.yul\":10552:10556   */\n      dup9\n        /* \"#utility.yul\":10545:10581   */\n      sstore\n        /* \"#utility.yul\":9980:10591   */\n      pop\n      pop\n      pop\n        /* \"#utility.yul\":9943:10830   */\n    tag_345:\n      pop\n        /* \"#utility.yul\":9533:10836   */\n      pop\n      pop\n      pop\n        /* \"#utility.yul\":9441:10836   */\n      pop\n      pop\n      jump\t// out\n        /* \"#utility.yul\":10842:11011   */\n    tag_210:\n        /* \"#utility.yul\":10926:10937   */\n      0x00\n        /* \"#utility.yul\":10960:10966   */\n      dup3\n        /* \"#utility.yul\":10955:10958   */\n      dup3\n        /* \"#utility.yul\":10948:10967   */\n      mstore\n        /* \"#utility.yul\":11000:11004   */\n      0x20\n        /* \"#utility.yul\":10995:10998   */\n      dup3\n        /* \"#utility.yul\":10991:11005   */\n      add\n        /* \"#utility.yul\":10976:11005   */\n      swap1\n      pop\n        /* \"#utility.yul\":10842:11011   */\n      swap3\n      swap2\n      pop\n      pop\n      jump\t// out\n        /* \"#utility.yul\":11017:11263   */\n    tag_211:\n        /* \"#utility.yul\":11098:11099   */\n      0x00\n        /* \"#utility.yul\":11108:11221   */\n    tag_357:\n        /* \"#utility.yul\":11122:11128   */\n      dup4\n        /* \"#utility.yul\":11119:11120   */\n      dup2\n        /* \"#utility.yul\":11116:11129   */\n      lt\n        /* \"#utility.yul\":11108:11221   */\n      iszero\n      tag_359\n      jumpi\n        /* \"#utility.yul\":11207:11208   */\n      dup1\n        /* \"#utility.yul\":11202:11205   */\n      dup3\n        /* \"#utility.yul\":11198:11209   */\n      add\n        /* \"#utility.yul\":11192:11210   */\n      mload\n        /* \"#utility.yul\":11188:11189   */\n      dup2\n        /* \"#utility.yul\":11183:11186   */\n      dup5\n        /* \"#utility.yul\":11179:11190   */\n      add\n        /* \"#utility.yul\":11172:11211   */\n      mstore\n        /* \"#utility.yul\":11144:11146   */\n      0x20\n        /* \"#utility.yul\":11141:11142   */\n      dup2\n        /* \"#utility.yul\":11137:11147   */\n      add\n        /* \"#utility.yul\":11132:11147   */\n      swap1\n      pop\n        /* \"#utility.yul\":11108:11221   */\n      jump(tag_357)\n    tag_359:\n        /* \"#utility.yul\":11255:11256   */\n      0x00\n        /* \"#utility.yul\":11246:11252   */\n      dup5\n        /* \"#utility.yul\":11241:11244   */\n      dup5\n        /* \"#utility.yul\":11237:11253   */\n      add\n        /* \"#utility.yul\":11230:11257   */\n      mstore\n        /* \"#utility.yul\":11079:11263   */\n      pop\n        /* \"#utility.yul\":11017:11263   */\n      pop\n      pop\n      pop\n      jump\t// out\n        /* \"#utility.yul\":11269:11646   */\n    tag_212:\n        /* \"#utility.yul\":11357:11360   */\n      0x00\n        /* \"#utility.yul\":11385:11424   */\n      tag_361\n        /* \"#utility.yul\":11418:11423   */\n      dup3\n        /* \"#utility.yul\":11385:11424   */\n      tag_192\n      jump\t// in\n    tag_361:\n        /* \"#utility.yul\":11440:11511   */\n      tag_362\n        /* \"#utility.yul\":11504:11510   */\n      dup2\n        /* \"#utility.yul\":11499:11502   */\n      dup6\n        /* \"#utility.yul\":11440:11511   */\n      tag_210\n      jump\t// in\n    tag_362:\n        /* \"#utility.yul\":11433:11511   */\n      swap4\n      pop\n        /* \"#utility.yul\":11520:11585   */\n      tag_363\n        /* \"#utility.yul\":11578:11584   */\n      dup2\n        /* \"#utility.yul\":11573:11576   */\n      dup6\n        /* \"#utility.yul\":11566:11570   */\n      0x20\n        /* \"#utility.yul\":11559:11564   */\n      dup7\n        /* \"#utility.yul\":11555:11571   */\n      add\n        /* \"#utility.yul\":11520:11585   */\n      tag_211\n      jump\t// in\n    tag_363:\n        /* \"#utility.yul\":11610:11639   */\n      tag_364\n        /* \"#utility.yul\":11632:11638   */\n      dup2\n        /* \"#utility.yul\":11610:11639   */\n      tag_183\n      jump\t// in\n    tag_364:\n        /* \"#utility.yul\":11605:11608   */\n      dup5\n        /* \"#utility.yul\":11601:11640   */\n      add\n        /* \"#utility.yul\":11594:11640   */\n      swap2\n      pop\n        /* \"#utility.yul\":11361:11646   */\n      pop\n        /* \"#utility.yul\":11269:11646   */\n      swap3\n      swap2\n      pop\n      pop\n      jump\t// out\n        /* \"#utility.yul\":11652:11965   */\n    tag_95:\n        /* \"#utility.yul\":11765:11769   */\n      0x00\n        /* \"#utility.yul\":11803:11805   */\n      0x20\n        /* \"#utility.yul\":11792:11801   */\n      dup3\n        /* \"#utility.yul\":11788:11806   */\n      add\n        /* \"#utility.yul\":11780:11806   */\n      swap1\n      pop\n        /* \"#utility.yul\":11852:11861   */\n      dup2\n        /* \"#utility.yul\":11846:11850   */\n      dup2\n        /* \"#utility.yul\":11842:11862   */\n      sub\n        /* \"#utility.yul\":11838:11839   */\n      0x00\n        /* \"#utility.yul\":11827:11836   */\n      dup4\n        /* \"#utility.yul\":11823:11840   */\n      add\n        /* \"#utility.yul\":11816:11863   */\n      mstore\n        /* \"#utility.yul\":11880:11958   */\n      tag_366\n        /* \"#utility.yul\":11953:11957   */\n      dup2\n        /* \"#utility.yul\":11944:11950   */\n      dup5\n        /* \"#utility.yul\":11880:11958   */\n      tag_212\n      jump\t// in\n    tag_366:\n        /* \"#utility.yul\":11872:11958   */\n      swap1\n      pop\n        /* \"#utility.yul\":11652:11965   */\n      swap3\n      swap2\n      pop\n      pop\n      jump\t// out\n        /* \"#utility.yul\":11971:12119   */\n    tag_213:\n        /* \"#utility.yul\":12073:12084   */\n      0x00\n        /* \"#utility.yul\":12110:12113   */\n      dup2\n        /* \"#utility.yul\":12095:12113   */\n      swap1\n      pop\n        /* \"#utility.yul\":11971:12119   */\n      swap3\n      swap2\n      pop\n      pop\n      jump\t// out\n        /* \"#utility.yul\":12125:12515   */\n    tag_214:\n        /* \"#utility.yul\":12231:12234   */\n      0x00\n        /* \"#utility.yul\":12259:12298   */\n      tag_369\n        /* \"#utility.yul\":12292:12297   */\n      dup3\n        /* \"#utility.yul\":12259:12298   */\n      tag_192\n      jump\t// in\n    tag_369:\n        /* \"#utility.yul\":12314:12403   */\n      tag_370\n        /* \"#utility.yul\":12396:12402   */\n      dup2\n        /* \"#utility.yul\":12391:12394   */\n      dup6\n        /* \"#utility.yul\":12314:12403   */\n      tag_213\n      jump\t// in\n    tag_370:\n        /* \"#utility.yul\":12307:12403   */\n      swap4\n      pop\n        /* \"#utility.yul\":12412:12477   */\n      tag_371\n        /* \"#utility.yul\":12470:12476   */\n      dup2\n        /* \"#utility.yul\":12465:12468   */\n      dup6\n        /* \"#utility.yul\":12458:12462   */\n      0x20\n        /* \"#utility.yul\":12451:12456   */\n      dup7\n        /* \"#utility.yul\":12447:12463   */\n      add\n        /* \"#utility.yul\":12412:12477   */\n      tag_211\n      jump\t// in\n    tag_371:\n        /* \"#utility.yul\":12502:12508   */\n      dup1\n        /* \"#utility.yul\":12497:12500   */\n      dup5\n        /* \"#utility.yul\":12493:12509   */\n      add\n        /* \"#utility.yul\":12486:12509   */\n      swap2\n      pop\n        /* \"#utility.yul\":12235:12515   */\n      pop\n        /* \"#utility.yul\":12125:12515   */\n      swap3\n      swap2\n      pop\n      pop\n      jump\t// out\n        /* \"#utility.yul\":12521:12796   */\n    tag_99:\n        /* \"#utility.yul\":12653:12656   */\n      0x00\n        /* \"#utility.yul\":12675:12770   */\n      tag_373\n        /* \"#utility.yul\":12766:12769   */\n      dup3\n        /* \"#utility.yul\":12757:12763   */\n      dup5\n        /* \"#utility.yul\":12675:12770   */\n      tag_214\n      jump\t// in\n    tag_373:\n        /* \"#utility.yul\":12668:12770   */\n      swap2\n      pop\n        /* \"#utility.yul\":12787:12790   */\n      dup2\n        /* \"#utility.yul\":12780:12790   */\n      swap1\n      pop\n        /* \"#utility.yul\":12521:12796   */\n      swap3\n      swap2\n      pop\n      pop\n      jump\t// out\n        /* \"#utility.yul\":12802:12920   */\n    tag_215:\n        /* \"#utility.yul\":12889:12913   */\n      tag_375\n        /* \"#utility.yul\":12907:12912   */\n      dup2\n        /* \"#utility.yul\":12889:12913   */\n      tag_173\n      jump\t// in\n    tag_375:\n        /* \"#utility.yul\":12884:12887   */\n      dup3\n        /* \"#utility.yul\":12877:12914   */\n      mstore\n        /* \"#utility.yul\":12802:12920   */\n      pop\n      pop\n      jump\t// out\n        /* \"#utility.yul\":12926:13349   */\n    tag_102:\n        /* \"#utility.yul\":13067:13071   */\n      0x00\n        /* \"#utility.yul\":13105:13107   */\n      0x40\n        /* \"#utility.yul\":13094:13103   */\n      dup3\n        /* \"#utility.yul\":13090:13108   */\n      add\n        /* \"#utility.yul\":13082:13108   */\n      swap1\n      pop\n        /* \"#utility.yul\":13154:13163   */\n      dup2\n        /* \"#utility.yul\":13148:13152   */\n      dup2\n        /* \"#utility.yul\":13144:13164   */\n      sub\n        /* \"#utility.yul\":13140:13141   */\n      0x00\n        /* \"#utility.yul\":13129:13138   */\n      dup4\n        /* \"#utility.yul\":13125:13142   */\n      add\n        /* \"#utility.yul\":13118:13165   */\n      mstore\n        /* \"#utility.yul\":13182:13260   */\n      tag_377\n        /* \"#utility.yul\":13255:13259   */\n      dup2\n        /* \"#utility.yul\":13246:13252   */\n      dup6\n        /* \"#utility.yul\":13182:13260   */\n      tag_212\n      jump\t// in\n    tag_377:\n        /* \"#utility.yul\":13174:13260   */\n      swap1\n      pop\n        /* \"#utility.yul\":13270:13342   */\n      tag_378\n        /* \"#utility.yul\":13338:13340   */\n      0x20\n        /* \"#utility.yul\":13327:13336   */\n      dup4\n        /* \"#utility.yul\":13323:13341   */\n      add\n        /* \"#utility.yul\":13314:13320   */\n      dup5\n        /* \"#utility.yul\":13270:13342   */\n      tag_215\n      jump\t// in\n    tag_378:\n        /* \"#utility.yul\":12926:13349   */\n      swap4\n      swap3\n      pop\n      pop\n      pop\n      jump\t// out\n        /* \"#utility.yul\":13355:13778   */\n    tag_111:\n        /* \"#utility.yul\":13496:13500   */\n      0x00\n        /* \"#utility.yul\":13534:13536   */\n      0x40\n        /* \"#utility.yul\":13523:13532   */\n      dup3\n        /* \"#utility.yul\":13519:13537   */\n      add\n        /* \"#utility.yul\":13511:13537   */\n      swap1\n      pop\n        /* \"#utility.yul\":13547:13618   */\n      tag_380\n        /* \"#utility.yul\":13615:13616   */\n      0x00\n        /* \"#utility.yul\":13604:13613   */\n      dup4\n        /* \"#utility.yul\":13600:13617   */\n      add\n        /* \"#utility.yul\":13591:13597   */\n      dup6\n        /* \"#utility.yul\":13547:13618   */\n      tag_215\n      jump\t// in\n    tag_380:\n        /* \"#utility.yul\":13665:13674   */\n      dup2\n        /* \"#utility.yul\":13659:13663   */\n      dup2\n        /* \"#utility.yul\":13655:13675   */\n      sub\n        /* \"#utility.yul\":13650:13652   */\n      0x20\n        /* \"#utility.yul\":13639:13648   */\n      dup4\n        /* \"#utility.yul\":13635:13653   */\n      add\n        /* \"#utility.yul\":13628:13676   */\n      mstore\n        /* \"#utility.yul\":13693:13771   */\n      tag_381\n        /* \"#utility.yul\":13766:13770   */\n      dup2\n        /* \"#utility.yul\":13757:13763   */\n      dup5\n        /* \"#utility.yul\":13693:13771   */\n      tag_212\n      jump\t// in\n    tag_381:\n        /* \"#utility.yul\":13685:13771   */\n      swap1\n      pop\n        /* \"#utility.yul\":13355:13778   */\n      swap4\n      swap3\n      pop\n      pop\n      pop\n      jump\t// out\n        /* \"#utility.yul\":13784:14019   */\n    tag_216:\n        /* \"#utility.yul\":13924:13958   */\n      0x546f6b656e53746f726167654c6962726172793a2063616e6e6f74206d696e74\n        /* \"#utility.yul\":13920:13921   */\n      0x00\n        /* \"#utility.yul\":13912:13918   */\n      dup3\n        /* \"#utility.yul\":13908:13922   */\n      add\n        /* \"#utility.yul\":13901:13959   */\n      mstore\n        /* \"#utility.yul\":13993:14011   */\n      0x20746f2061646472657373207a65726f00000000000000000000000000000000\n        /* \"#utility.yul\":13988:13990   */\n      0x20\n        /* \"#utility.yul\":13980:13986   */\n      dup3\n        /* \"#utility.yul\":13976:13991   */\n      add\n        /* \"#utility.yul\":13969:14012   */\n      mstore\n        /* \"#utility.yul\":13784:14019   */\n      pop\n      jump\t// out\n        /* \"#utility.yul\":14025:14391   */\n    tag_217:\n        /* \"#utility.yul\":14167:14170   */\n      0x00\n        /* \"#utility.yul\":14188:14255   */\n      tag_384\n        /* \"#utility.yul\":14252:14254   */\n      0x30\n        /* \"#utility.yul\":14247:14250   */\n      dup4\n        /* \"#utility.yul\":14188:14255   */\n      tag_210\n      jump\t// in\n    tag_384:\n        /* \"#utility.yul\":14181:14255   */\n      swap2\n      pop\n        /* \"#utility.yul\":14264:14357   */\n      tag_385\n        /* \"#utility.yul\":14353:14356   */\n      dup3\n        /* \"#utility.yul\":14264:14357   */\n      tag_216\n      jump\t// in\n    tag_385:\n        /* \"#utility.yul\":14382:14384   */\n      0x40\n        /* \"#utility.yul\":14377:14380   */\n      dup3\n        /* \"#utility.yul\":14373:14385   */\n      add\n        /* \"#utility.yul\":14366:14385   */\n      swap1\n      pop\n        /* \"#utility.yul\":14025:14391   */\n      swap2\n      swap1\n      pop\n      jump\t// out\n        /* \"#utility.yul\":14397:14816   */\n    tag_115:\n        /* \"#utility.yul\":14563:14567   */\n      0x00\n        /* \"#utility.yul\":14601:14603   */\n      0x20\n        /* \"#utility.yul\":14590:14599   */\n      dup3\n        /* \"#utility.yul\":14586:14604   */\n      add\n        /* \"#utility.yul\":14578:14604   */\n      swap1\n      pop\n        /* \"#utility.yul\":14650:14659   */\n      dup2\n        /* \"#utility.yul\":14644:14648   */\n      dup2\n        /* \"#utility.yul\":14640:14660   */\n      sub\n        /* \"#utility.yul\":14636:14637   */\n      0x00\n        /* \"#utility.yul\":14625:14634   */\n      dup4\n        /* \"#utility.yul\":14621:14638   */\n      add\n        /* \"#utility.yul\":14614:14661   */\n      mstore\n        /* \"#utility.yul\":14678:14809   */\n      tag_387\n        /* \"#utility.yul\":14804:14808   */\n      dup2\n        /* \"#utility.yul\":14678:14809   */\n      tag_217\n      jump\t// in\n    tag_387:\n        /* \"#utility.yul\":14670:14809   */\n      swap1\n      pop\n        /* \"#utility.yul\":14397:14816   */\n      swap2\n      swap1\n      pop\n      jump\t// out\n        /* \"#utility.yul\":14822:15013   */\n    tag_117:\n        /* \"#utility.yul\":14862:14865   */\n      0x00\n        /* \"#utility.yul\":14881:14901   */\n      tag_389\n        /* \"#utility.yul\":14899:14900   */\n      dup3\n        /* \"#utility.yul\":14881:14901   */\n      tag_176\n      jump\t// in\n    tag_389:\n        /* \"#utility.yul\":14876:14901   */\n      swap2\n      pop\n        /* \"#utility.yul\":14915:14935   */\n      tag_390\n        /* \"#utility.yul\":14933:14934   */\n      dup4\n        /* \"#utility.yul\":14915:14935   */\n      tag_176\n      jump\t// in\n    tag_390:\n        /* \"#utility.yul\":14910:14935   */\n      swap3\n      pop\n        /* \"#utility.yul\":14958:14959   */\n      dup3\n        /* \"#utility.yul\":14955:14956   */\n      dup3\n        /* \"#utility.yul\":14951:14960   */\n      add\n        /* \"#utility.yul\":14944:14960   */\n      swap1\n      pop\n        /* \"#utility.yul\":14979:14982   */\n      dup1\n        /* \"#utility.yul\":14976:14977   */\n      dup3\n        /* \"#utility.yul\":14973:14983   */\n      gt\n        /* \"#utility.yul\":14970:15006   */\n      iszero\n      tag_391\n      jumpi\n        /* \"#utility.yul\":14986:15004   */\n      tag_392\n      tag_191\n      jump\t// in\n    tag_392:\n        /* \"#utility.yul\":14970:15006   */\n    tag_391:\n        /* \"#utility.yul\":14822:15013   */\n      swap3\n      swap2\n      pop\n      pop\n      jump\t// out\n        /* \"#utility.yul\":15019:15137   */\n    tag_218:\n        /* \"#utility.yul\":15106:15130   */\n      tag_394\n        /* \"#utility.yul\":15124:15129   */\n      dup2\n        /* \"#utility.yul\":15106:15130   */\n      tag_176\n      jump\t// in\n    tag_394:\n        /* \"#utility.yul\":15101:15104   */\n      dup3\n        /* \"#utility.yul\":15094:15131   */\n      mstore\n        /* \"#utility.yul\":15019:15137   */\n      pop\n      pop\n      jump\t// out\n        /* \"#utility.yul\":15143:15365   */\n    tag_119:\n        /* \"#utility.yul\":15236:15240   */\n      0x00\n        /* \"#utility.yul\":15274:15276   */\n      0x20\n        /* \"#utility.yul\":15263:15272   */\n      dup3\n        /* \"#utility.yul\":15259:15277   */\n      add\n        /* \"#utility.yul\":15251:15277   */\n      swap1\n      pop\n        /* \"#utility.yul\":15287:15358   */\n      tag_396\n        /* \"#utility.yul\":15355:15356   */\n      0x00\n        /* \"#utility.yul\":15344:15353   */\n      dup4\n        /* \"#utility.yul\":15340:15357   */\n      add\n        /* \"#utility.yul\":15331:15337   */\n      dup5\n        /* \"#utility.yul\":15287:15358   */\n      tag_218\n      jump\t// in\n    tag_396:\n        /* \"#utility.yul\":15143:15365   */\n      swap3\n      swap2\n      pop\n      pop\n      jump\t// out\n        /* \"#utility.yul\":15371:15608   */\n    tag_219:\n        /* \"#utility.yul\":15511:15545   */\n      0x546f6b656e53746f726167654c6962726172793a2063616e6e6f74206275726e\n        /* \"#utility.yul\":15507:15508   */\n      0x00\n        /* \"#utility.yul\":15499:15505   */\n      dup3\n        /* \"#utility.yul\":15495:15509   */\n      add\n        /* \"#utility.yul\":15488:15546   */\n      mstore\n        /* \"#utility.yul\":15580:15600   */\n      0x2066726f6d2061646472657373207a65726f0000000000000000000000000000\n        /* \"#utility.yul\":15575:15577   */\n      0x20\n        /* \"#utility.yul\":15567:15573   */\n      dup3\n        /* \"#utility.yul\":15563:15578   */\n      add\n        /* \"#utility.yul\":15556:15601   */\n      mstore\n        /* \"#utility.yul\":15371:15608   */\n      pop\n      jump\t// out\n        /* \"#utility.yul\":15614:15980   */\n    tag_220:\n        /* \"#utility.yul\":15756:15759   */\n      0x00\n        /* \"#utility.yul\":15777:15844   */\n      tag_399\n        /* \"#utility.yul\":15841:15843   */\n      0x32\n        /* \"#utility.yul\":15836:15839   */\n      dup4\n        /* \"#utility.yul\":15777:15844   */\n      tag_210\n      jump\t// in\n    tag_399:\n        /* \"#utility.yul\":15770:15844   */\n      swap2\n      pop\n        /* \"#utility.yul\":15853:15946   */\n      tag_400\n        /* \"#utility.yul\":15942:15945   */\n      dup3\n        /* \"#utility.yul\":15853:15946   */\n      tag_219\n      jump\t// in\n    tag_400:\n        /* \"#utility.yul\":15971:15973   */\n      0x40\n        /* \"#utility.yul\":15966:15969   */\n      dup3\n        /* \"#utility.yul\":15962:15974   */\n      add\n        /* \"#utility.yul\":15955:15974   */\n      swap1\n      pop\n        /* \"#utility.yul\":15614:15980   */\n      swap2\n      swap1\n      pop\n      jump\t// out\n        /* \"#utility.yul\":15986:16405   */\n    tag_128:\n        /* \"#utility.yul\":16152:16156   */\n      0x00\n        /* \"#utility.yul\":16190:16192   */\n      0x20\n        /* \"#utility.yul\":16179:16188   */\n      dup3\n        /* \"#utility.yul\":16175:16193   */\n      add\n        /* \"#utility.yul\":16167:16193   */\n      swap1\n      pop\n        /* \"#utility.yul\":16239:16248   */\n      dup2\n        /* \"#utility.yul\":16233:16237   */\n      dup2\n        /* \"#utility.yul\":16229:16249   */\n      sub\n        /* \"#utility.yul\":16225:16226   */\n      0x00\n        /* \"#utility.yul\":16214:16223   */\n      dup4\n        /* \"#utility.yul\":16210:16227   */\n      add\n        /* \"#utility.yul\":16203:16250   */\n      mstore\n        /* \"#utility.yul\":16267:16398   */\n      tag_402\n        /* \"#utility.yul\":16393:16397   */\n      dup2\n        /* \"#utility.yul\":16267:16398   */\n      tag_220\n      jump\t// in\n    tag_402:\n        /* \"#utility.yul\":16259:16398   */\n      swap1\n      pop\n        /* \"#utility.yul\":15986:16405   */\n      swap2\n      swap1\n      pop\n      jump\t// out\n        /* \"#utility.yul\":16411:16639   */\n    tag_221:\n        /* \"#utility.yul\":16551:16585   */\n      0x546f6b656e53746f726167654c6962726172793a20696e73756666696369656e\n        /* \"#utility.yul\":16547:16548   */\n      0x00\n        /* \"#utility.yul\":16539:16545   */\n      dup3\n        /* \"#utility.yul\":16535:16549   */\n      add\n        /* \"#utility.yul\":16528:16586   */\n      mstore\n        /* \"#utility.yul\":16620:16631   */\n      0x742062616c616e63650000000000000000000000000000000000000000000000\n        /* \"#utility.yul\":16615:16617   */\n      0x20\n        /* \"#utility.yul\":16607:16613   */\n      dup3\n        /* \"#utility.yul\":16603:16618   */\n      add\n        /* \"#utility.yul\":16596:16632   */\n      mstore\n        /* \"#utility.yul\":16411:16639   */\n      pop\n      jump\t// out\n        /* \"#utility.yul\":16645:17011   */\n    tag_222:\n        /* \"#utility.yul\":16787:16790   */\n      0x00\n        /* \"#utility.yul\":16808:16875   */\n      tag_405\n        /* \"#utility.yul\":16872:16874   */\n      0x29\n        /* \"#utility.yul\":16867:16870   */\n      dup4\n        /* \"#utility.yul\":16808:16875   */\n      tag_210\n      jump\t// in\n    tag_405:\n        /* \"#utility.yul\":16801:16875   */\n      swap2\n      pop\n        /* \"#utility.yul\":16884:16977   */\n      tag_406\n        /* \"#utility.yul\":16973:16976   */\n      dup3\n        /* \"#utility.yul\":16884:16977   */\n      tag_221\n      jump\t// in\n    tag_406:\n        /* \"#utility.yul\":17002:17004   */\n      0x40\n        /* \"#utility.yul\":16997:17000   */\n      dup3\n        /* \"#utility.yul\":16993:17005   */\n      add\n        /* \"#utility.yul\":16986:17005   */\n      swap1\n      pop\n        /* \"#utility.yul\":16645:17011   */\n      swap2\n      swap1\n      pop\n      jump\t// out\n        /* \"#utility.yul\":17017:17436   */\n    tag_131:\n        /* \"#utility.yul\":17183:17187   */\n      0x00\n        /* \"#utility.yul\":17221:17223   */\n      0x20\n        /* \"#utility.yul\":17210:17219   */\n      dup3\n        /* \"#utility.yul\":17206:17224   */\n      add\n        /* \"#utility.yul\":17198:17224   */\n      swap1\n      pop\n        /* \"#utility.yul\":17270:17279   */\n      dup2\n        /* \"#utility.yul\":17264:17268   */\n      dup2\n        /* \"#utility.yul\":17260:17280   */\n      sub\n        /* \"#utility.yul\":17256:17257   */\n      0x00\n        /* \"#utility.yul\":17245:17254   */\n      dup4\n        /* \"#utility.yul\":17241:17258   */\n      add\n        /* \"#utility.yul\":17234:17281   */\n      mstore\n        /* \"#utility.yul\":17298:17429   */\n      tag_408\n        /* \"#utility.yul\":17424:17428   */\n      dup2\n        /* \"#utility.yul\":17298:17429   */\n      tag_222\n      jump\t// in\n    tag_408:\n        /* \"#utility.yul\":17290:17429   */\n      swap1\n      pop\n        /* \"#utility.yul\":17017:17436   */\n      swap2\n      swap1\n      pop\n      jump\t// out\n        /* \"#utility.yul\":17442:17622   */\n    tag_150:\n        /* \"#utility.yul\":17490:17567   */\n      0x4e487b7100000000000000000000000000000000000000000000000000000000\n        /* \"#utility.yul\":17487:17488   */\n      0x00\n        /* \"#utility.yul\":17480:17568   */\n      mstore\n        /* \"#utility.yul\":17587:17591   */\n      0x32\n        /* \"#utility.yul\":17584:17585   */\n      0x04\n        /* \"#utility.yul\":17577:17592   */\n      mstore\n        /* \"#utility.yul\":17611:17615   */\n      0x24\n        /* \"#utility.yul\":17608:17609   */\n      0x00\n        /* \"#utility.yul\":17601:17616   */\n      revert\n        /* \"#utility.yul\":17628:17808   */\n    tag_157:\n        /* \"#utility.yul\":17676:17753   */\n      0x4e487b7100000000000000000000000000000000000000000000000000000000\n        /* \"#utility.yul\":17673:17674   */\n      0x00\n        /* \"#utility.yul\":17666:17754   */\n      mstore\n        /* \"#utility.yul\":17773:17777   */\n      0x31\n        /* \"#utility.yul\":17770:17771   */\n      0x04\n        /* \"#utility.yul\":17763:17778   */\n      mstore\n        /* \"#utility.yul\":17797:17801   */\n      0x24\n        /* \"#utility.yul\":17794:17795   */\n      0x00\n        /* \"#utility.yul\":17787:17802   */\n      revert\n\n    auxdata: 0xa2646970667358221220418bed3d0299ef3415f3910de65a03b39ecf911ce870221223a662eb11425bfa64736f6c63430008180033\n}\n",
				"bytecode": {
					"linkReferences": {},
					"object": "608060405234801561000f575f80fd5b506116448061001d5f395ff3fe608060405234801561000f575f80fd5b5060043610610060575f3560e01c806340c10f191461006457806392e73307146100945780639dc29fac146100c4578063b84c8246146100f4578063bb8a1aff14610124578063c47f002714610154575b5f80fd5b61007e60048036038101906100799190610ce3565b610184565b60405161008b9190610d3b565b60405180910390f35b6100ae60048036038101906100a99190610e90565b6101fc565b6040516100bb9190610d3b565b60405180910390f35b6100de60048036038101906100d99190610ce3565b610269565b6040516100eb9190610d3b565b60405180910390f35b61010e60048036038101906101099190610eea565b6102e1565b60405161011b9190610d3b565b60405180910390f35b61013e60048036038101906101399190610e90565b610356565b60405161014b9190610d3b565b60405180910390f35b61016e60048036038101906101699190610eea565b6103c5565b60405161017b9190610d3b565b60405180910390f35b5f6101d46040518060400160405280600181526020017f2a000000000000000000000000000000000000000000000000000000000000008152506101c661043a565b61047690919063ffffffff16565b506101f183836101e261048a565b6104c69092919063ffffffff16565b506001905092915050565b5f61025e836102506040518060400160405280600181526020017f2a0000000000000000000000000000000000000000000000000000000000000081525061024261043a565b61047690919063ffffffff16565b6104db90919063ffffffff16565b506001905092915050565b5f6102b96040518060400160405280600181526020017f2a000000000000000000000000000000000000000000000000000000000000008152506102ab61043a565b61047690919063ffffffff16565b506102d683836102c761048a565b6104ef9092919063ffffffff16565b506001905092915050565b5f6103316040518060400160405280600181526020017f2a0000000000000000000000000000000000000000000000000000000000000081525061032361043a565b61047690919063ffffffff16565b5061034c8261033e61048a565b61050490919063ffffffff16565b5060019050919050565b5f6103ba83836103ab6040518060400160405280600181526020017f2a0000000000000000000000000000000000000000000000000000000000000081525061039d61043a565b61047690919063ffffffff16565b6105599092919063ffffffff16565b506001905092915050565b5f6104156040518060400160405280600181526020017f2a0000000000000000000000000000000000000000000000000000000000000081525061040761043a565b61047690919063ffffffff16565b506104308261042261048a565b6105d190919063ffffffff16565b5060019050919050565b5f8060017f43ade7009d4d0d9029c7d898feccf8aa5851482f139fb4b86f5fad8ca63262915f1c61046b9190610f5e565b5f1b90508091505090565b5f610482838333610626565b905092915050565b5f8060017fd0074cb15c0b868f8c1336979ec91b91ec4d450a2ed3389290bfae4eabd9a07d5f1c6104bb9190610f5e565b5f1b90508091505090565b5f6104d284848461067f565b90509392505050565b5f6104e78383336107c6565b905092915050565b5f6104fb84848461083e565b90509392505050565b5f81835f0160040190816105189190611195565b507f4044d76b63f74bc919c427bb04c970e245db0db19e28dc92734b32b00dcd3c5d8260405161054891906112d4565b60405180910390a182905092915050565b5f61058d82855f015f0185604051610571919061132e565b90815260200160405180910390206109fe90919063ffffffff16565b507f8f38580e79103313da54f4abbf428dad197dac436a91f3baee207d9f6552626d83836040516105bf929190611353565b60405180910390a18390509392505050565b5f81835f0160030190816105e59190611195565b507fa30d5d88c4a00b505091610da337bdae8db8c519e88ab0a6c007b428179683808260405161061591906112d4565b60405180910390a182905092915050565b5f610632848484610a2b565b6106755781836040517fe76ed20900000000000000000000000000000000000000000000000000000000815260040161066c929190611381565b60405180910390fd5b8390509392505050565b5f8073ffffffffffffffffffffffffffffffffffffffff168373ffffffffffffffffffffffffffffffffffffffff16036106ee576040517f08c379a00000000000000000000000000000000000000000000000000000000081526004016106e59061141f565b60405180910390fd5b81845f016002015f828254610703919061143d565b9250508190555081845f015f015f8573ffffffffffffffffffffffffffffffffffffffff1673ffffffffffffffffffffffffffffffffffffffff1681526020019081526020015f205f82825401925050819055508273ffffffffffffffffffffffffffffffffffffffff165f73ffffffffffffffffffffffffffffffffffffffff167fddf252ad1be2c89b69c2b068fc378daa952ba7f163c4a11628f55a4df523b3ef846040516107b4919061147f565b60405180910390a38390509392505050565b5f6107fa82855f015f01856040516107de919061132e565b9081526020016040518091039020610a6890919063ffffffff16565b507f426257855659ac73f28deaf0574d8b1de5afe800ef2886221a2c5a9325c01c52838360405161082c929190611353565b60405180910390a18390509392505050565b5f8073ffffffffffffffffffffffffffffffffffffffff168373ffffffffffffffffffffffffffffffffffffffff16036108ad576040517f08c379a00000000000000000000000000000000000000000000000000000000081526004016108a490611508565b60405180910390fd5b5f845f015f015f8573ffffffffffffffffffffffffffffffffffffffff1673ffffffffffffffffffffffffffffffffffffffff1681526020019081526020015f2054905082811015610934576040517f08c379a000000000000000000000000000000000000000000000000000000000815260040161092b90611596565b60405180910390fd5b828103855f015f015f8673ffffffffffffffffffffffffffffffffffffffff1673ffffffffffffffffffffffffffffffffffffffff1681526020019081526020015f208190555082855f016002015f82825403925050819055505f73ffffffffffffffffffffffffffffffffffffffff168473ffffffffffffffffffffffffffffffffffffffff167fddf252ad1be2c89b69c2b068fc378daa952ba7f163c4a11628f55a4df523b3ef856040516109eb919061147f565b60405180910390a3849150509392505050565b5f610a23835f018373ffffffffffffffffffffffffffffffffffffffff165f1b610a95565b905092915050565b5f610a5f82855f015f0185604051610a43919061132e565b9081526020016040518091039020610b9190919063ffffffff16565b90509392505050565b5f610a8d835f018373ffffffffffffffffffffffffffffffffffffffff165f1b610bbe565b905092915050565b5f80836001015f8481526020019081526020015f205490505f8114610b86575f600182610ac29190610f5e565b90505f6001865f0180549050610ad89190610f5e565b9050818114610b3e575f865f018281548110610af757610af66115b4565b5b905f5260205f200154905080875f018481548110610b1857610b176115b4565b5b905f5260205f20018190555083876001015f8381526020019081526020015f2081905550505b855f01805480610b5157610b506115e1565b5b600190038181905f5260205f20015f90559055856001015f8681526020019081526020015f205f905560019350505050610b8b565b5f9150505b92915050565b5f610bb6835f018373ffffffffffffffffffffffffffffffffffffffff165f1b610c25565b905092915050565b5f610bc98383610c25565b610c1b57825f0182908060018154018082558091505060019003905f5260205f20015f9091909190915055825f0180549050836001015f8481526020019081526020015f208190555060019050610c1f565b5f90505b92915050565b5f80836001015f8481526020019081526020015f20541415905092915050565b5f604051905090565b5f80fd5b5f80fd5b5f73ffffffffffffffffffffffffffffffffffffffff82169050919050565b5f610c7f82610c56565b9050919050565b610c8f81610c75565b8114610c99575f80fd5b50565b5f81359050610caa81610c86565b92915050565b5f819050919050565b610cc281610cb0565b8114610ccc575f80fd5b50565b5f81359050610cdd81610cb9565b92915050565b5f8060408385031215610cf957610cf8610c4e565b5b5f610d0685828601610c9c565b9250506020610d1785828601610ccf565b9150509250929050565b5f8115159050919050565b610d3581610d21565b82525050565b5f602082019050610d4e5f830184610d2c565b92915050565b5f80fd5b5f80fd5b5f601f19601f8301169050919050565b7f4e487b71000000000000000000000000000000000000000000000000000000005f52604160045260245ffd5b610da282610d5c565b810181811067ffffffffffffffff82111715610dc157610dc0610d6c565b5b80604052505050565b5f610dd3610c45565b9050610ddf8282610d99565b919050565b5f67ffffffffffffffff821115610dfe57610dfd610d6c565b5b610e0782610d5c565b9050602081019050919050565b828183375f83830152505050565b5f610e34610e2f84610de4565b610dca565b905082815260208101848484011115610e5057610e4f610d58565b5b610e5b848285610e14565b509392505050565b5f82601f830112610e7757610e76610d54565b5b8135610e87848260208601610e22565b91505092915050565b5f8060408385031215610ea657610ea5610c4e565b5b5f83013567ffffffffffffffff811115610ec357610ec2610c52565b5b610ecf85828601610e63565b9250506020610ee085828601610c9c565b9150509250929050565b5f60208284031215610eff57610efe610c4e565b5b5f82013567ffffffffffffffff811115610f1c57610f1b610c52565b5b610f2884828501610e63565b91505092915050565b7f4e487b71000000000000000000000000000000000000000000000000000000005f52601160045260245ffd5b5f610f6882610cb0565b9150610f7383610cb0565b9250828203905081811115610f8b57610f8a610f31565b5b92915050565b5f81519050919050565b7f4e487b71000000000000000000000000000000000000000000000000000000005f52602260045260245ffd5b5f6002820490506001821680610fdf57607f821691505b602082108103610ff257610ff1610f9b565b5b50919050565b5f819050815f5260205f209050919050565b5f6020601f8301049050919050565b5f82821b905092915050565b5f600883026110547fffffffffffffffffffffffffffffffffffffffffffffffffffffffffffffffff82611019565b61105e8683611019565b95508019841693508086168417925050509392505050565b5f819050919050565b5f61109961109461108f84610cb0565b611076565b610cb0565b9050919050565b5f819050919050565b6110b28361107f565b6110c66110be826110a0565b848454611025565b825550505050565b5f90565b6110da6110ce565b6110e58184846110a9565b505050565b5b81811015611108576110fd5f826110d2565b6001810190506110eb565b5050565b601f82111561114d5761111e81610ff8565b6111278461100a565b81016020851015611136578190505b61114a6111428561100a565b8301826110ea565b50505b505050565b5f82821c905092915050565b5f61116d5f1984600802611152565b1980831691505092915050565b5f611185838361115e565b9150826002028217905092915050565b61119e82610f91565b67ffffffffffffffff8111156111b7576111b6610d6c565b5b6111c18254610fc8565b6111cc82828561110c565b5f60209050601f8311600181146111fd575f84156111eb578287015190505b6111f5858261117a565b86555061125c565b601f19841661120b86610ff8565b5f5b828110156112325784890151825560018201915060208501945060208101905061120d565b8683101561124f578489015161124b601f89168261115e565b8355505b6001600288020188555050505b505050505050565b5f82825260208201905092915050565b5f5b83811015611291578082015181840152602081019050611276565b5f8484015250505050565b5f6112a682610f91565b6112b08185611264565b93506112c0818560208601611274565b6112c981610d5c565b840191505092915050565b5f6020820190508181035f8301526112ec818461129c565b905092915050565b5f81905092915050565b5f61130882610f91565b61131281856112f4565b9350611322818560208601611274565b80840191505092915050565b5f61133982846112fe565b915081905092915050565b61134d81610c75565b82525050565b5f6040820190508181035f83015261136b818561129c565b905061137a6020830184611344565b9392505050565b5f6040820190506113945f830185611344565b81810360208301526113a6818461129c565b90509392505050565b7f546f6b656e53746f726167654c6962726172793a2063616e6e6f74206d696e745f8201527f20746f2061646472657373207a65726f00000000000000000000000000000000602082015250565b5f611409603083611264565b9150611414826113af565b604082019050919050565b5f6020820190508181035f830152611436816113fd565b9050919050565b5f61144782610cb0565b915061145283610cb0565b925082820190508082111561146a57611469610f31565b5b92915050565b61147981610cb0565b82525050565b5f6020820190506114925f830184611470565b92915050565b7f546f6b656e53746f726167654c6962726172793a2063616e6e6f74206275726e5f8201527f2066726f6d2061646472657373207a65726f0000000000000000000000000000602082015250565b5f6114f2603283611264565b91506114fd82611498565b604082019050919050565b5f6020820190508181035f83015261151f816114e6565b9050919050565b7f546f6b656e53746f726167654c6962726172793a20696e73756666696369656e5f8201527f742062616c616e63650000000000000000000000000000000000000000000000602082015250565b5f611580602983611264565b915061158b82611526565b604082019050919050565b5f6020820190508181035f8301526115ad81611574565b9050919050565b7f4e487b71000000000000000000000000000000000000000000000000000000005f52603260045260245ffd5b7f4e487b71000000000000000000000000000000000000000000000000000000005f52603160045260245ffdfea2646970667358221220418bed3d0299ef3415f3910de65a03b39ecf911ce870221223a662eb11425bfa64736f6c63430008180033",
					"opcodes": "PUSH1 0x80 PUSH1 0x40 MSTORE CALLVALUE DUP1 ISZERO PUSH2 0xF JUMPI PUSH0 DUP1 REVERT JUMPDEST POP PUSH2 0x1644 DUP1 PUSH2 0x1D PUSH0 CODECOPY PUSH0 RETURN INVALID PUSH1 0x80 PUSH1 0x40 MSTORE CALLVALUE DUP1 ISZERO PUSH2 0xF JUMPI PUSH0 DUP1 REVERT JUMPDEST POP PUSH1 0x4 CALLDATASIZE LT PUSH2 0x60 JUMPI PUSH0 CALLDATALOAD PUSH1 0xE0 SHR DUP1 PUSH4 0x40C10F19 EQ PUSH2 0x64 JUMPI DUP1 PUSH4 0x92E73307 EQ PUSH2 0x94 JUMPI DUP1 PUSH4 0x9DC29FAC EQ PUSH2 0xC4 JUMPI DUP1 PUSH4 0xB84C8246 EQ PUSH2 0xF4 JUMPI DUP1 PUSH4 0xBB8A1AFF EQ PUSH2 0x124 JUMPI DUP1 PUSH4 0xC47F0027 EQ PUSH2 0x154 JUMPI JUMPDEST PUSH0 DUP1 REVERT JUMPDEST PUSH2 0x7E PUSH1 0x4 DUP1 CALLDATASIZE SUB DUP2 ADD SWAP1 PUSH2 0x79 SWAP2 SWAP1 PUSH2 0xCE3 JUMP JUMPDEST PUSH2 0x184 JUMP JUMPDEST PUSH1 0x40 MLOAD PUSH2 0x8B SWAP2 SWAP1 PUSH2 0xD3B JUMP JUMPDEST PUSH1 0x40 MLOAD DUP1 SWAP2 SUB SWAP1 RETURN JUMPDEST PUSH2 0xAE PUSH1 0x4 DUP1 CALLDATASIZE SUB DUP2 ADD SWAP1 PUSH2 0xA9 SWAP2 SWAP1 PUSH2 0xE90 JUMP JUMPDEST PUSH2 0x1FC JUMP JUMPDEST PUSH1 0x40 MLOAD PUSH2 0xBB SWAP2 SWAP1 PUSH2 0xD3B JUMP JUMPDEST PUSH1 0x40 MLOAD DUP1 SWAP2 SUB SWAP1 RETURN JUMPDEST PUSH2 0xDE PUSH1 0x4 DUP1 CALLDATASIZE SUB DUP2 ADD SWAP1 PUSH2 0xD9 SWAP2 SWAP1 PUSH2 0xCE3 JUMP JUMPDEST PUSH2 0x269 JUMP JUMPDEST PUSH1 0x40 MLOAD PUSH2 0xEB SWAP2 SWAP1 PUSH2 0xD3B JUMP JUMPDEST PUSH1 0x40 MLOAD DUP1 SWAP2 SUB SWAP1 RETURN JUMPDEST PUSH2 0x10E PUSH1 0x4 DUP1 CALLDATASIZE SUB DUP2 ADD SWAP1 PUSH2 0x109 SWAP2 SWAP1 PUSH2 0xEEA JUMP JUMPDEST PUSH2 0x2E1 JUMP JUMPDEST PUSH1 0x40 MLOAD PUSH2 0x11B SWAP2 SWAP1 PUSH2 0xD3B JUMP JUMPDEST PUSH1 0x40 MLOAD DUP1 SWAP2 SUB SWAP1 RETURN JUMPDEST PUSH2 0x13E PUSH1 0x4 DUP1 CALLDATASIZE SUB DUP2 ADD SWAP1 PUSH2 0x139 SWAP2 SWAP1 PUSH2 0xE90 JUMP JUMPDEST PUSH2 0x356 JUMP JUMPDEST PUSH1 0x40 MLOAD PUSH2 0x14B SWAP2 SWAP1 PUSH2 0xD3B JUMP JUMPDEST PUSH1 0x40 MLOAD DUP1 SWAP2 SUB SWAP1 RETURN JUMPDEST PUSH2 0x16E PUSH1 0x4 DUP1 CALLDATASIZE SUB DUP2 ADD SWAP1 PUSH2 0x169 SWAP2 SWAP1 PUSH2 0xEEA JUMP JUMPDEST PUSH2 0x3C5 JUMP JUMPDEST PUSH1 0x40 MLOAD PUSH2 0x17B SWAP2 SWAP1 PUSH2 0xD3B JUMP JUMPDEST PUSH1 0x40 MLOAD DUP1 SWAP2 SUB SWAP1 RETURN JUMPDEST PUSH0 PUSH2 0x1D4 PUSH1 0x40 MLOAD DUP1 PUSH1 0x40 ADD PUSH1 0x40 MSTORE DUP1 PUSH1 0x1 DUP2 MSTORE PUSH1 0x20 ADD PUSH32 0x2A00000000000000000000000000000000000000000000000000000000000000 DUP2 MSTORE POP PUSH2 0x1C6 PUSH2 0x43A JUMP JUMPDEST PUSH2 0x476 SWAP1 SWAP2 SWAP1 PUSH4 0xFFFFFFFF AND JUMP JUMPDEST POP PUSH2 0x1F1 DUP4 DUP4 PUSH2 0x1E2 PUSH2 0x48A JUMP JUMPDEST PUSH2 0x4C6 SWAP1 SWAP3 SWAP2 SWAP1 PUSH4 0xFFFFFFFF AND JUMP JUMPDEST POP PUSH1 0x1 SWAP1 POP SWAP3 SWAP2 POP POP JUMP JUMPDEST PUSH0 PUSH2 0x25E DUP4 PUSH2 0x250 PUSH1 0x40 MLOAD DUP1 PUSH1 0x40 ADD PUSH1 0x40 MSTORE DUP1 PUSH1 0x1 DUP2 MSTORE PUSH1 0x20 ADD PUSH32 0x2A00000000000000000000000000000000000000000000000000000000000000 DUP2 MSTORE POP PUSH2 0x242 PUSH2 0x43A JUMP JUMPDEST PUSH2 0x476 SWAP1 SWAP2 SWAP1 PUSH4 0xFFFFFFFF AND JUMP JUMPDEST PUSH2 0x4DB SWAP1 SWAP2 SWAP1 PUSH4 0xFFFFFFFF AND JUMP JUMPDEST POP PUSH1 0x1 SWAP1 POP SWAP3 SWAP2 POP POP JUMP JUMPDEST PUSH0 PUSH2 0x2B9 PUSH1 0x40 MLOAD DUP1 PUSH1 0x40 ADD PUSH1 0x40 MSTORE DUP1 PUSH1 0x1 DUP2 MSTORE PUSH1 0x20 ADD PUSH32 0x2A00000000000000000000000000000000000000000000000000000000000000 DUP2 MSTORE POP PUSH2 0x2AB PUSH2 0x43A JUMP JUMPDEST PUSH2 0x476 SWAP1 SWAP2 SWAP1 PUSH4 0xFFFFFFFF AND JUMP JUMPDEST POP PUSH2 0x2D6 DUP4 DUP4 PUSH2 0x2C7 PUSH2 0x48A JUMP JUMPDEST PUSH2 0x4EF SWAP1 SWAP3 SWAP2 SWAP1 PUSH4 0xFFFFFFFF AND JUMP JUMPDEST POP PUSH1 0x1 SWAP1 POP SWAP3 SWAP2 POP POP JUMP JUMPDEST PUSH0 PUSH2 0x331 PUSH1 0x40 MLOAD DUP1 PUSH1 0x40 ADD PUSH1 0x40 MSTORE DUP1 PUSH1 0x1 DUP2 MSTORE PUSH1 0x20 ADD PUSH32 0x2A00000000000000000000000000000000000000000000000000000000000000 DUP2 MSTORE POP PUSH2 0x323 PUSH2 0x43A JUMP JUMPDEST PUSH2 0x476 SWAP1 SWAP2 SWAP1 PUSH4 0xFFFFFFFF AND JUMP JUMPDEST POP PUSH2 0x34C DUP3 PUSH2 0x33E PUSH2 0x48A JUMP JUMPDEST PUSH2 0x504 SWAP1 SWAP2 SWAP1 PUSH4 0xFFFFFFFF AND JUMP JUMPDEST POP PUSH1 0x1 SWAP1 POP SWAP2 SWAP1 POP JUMP JUMPDEST PUSH0 PUSH2 0x3BA DUP4 DUP4 PUSH2 0x3AB PUSH1 0x40 MLOAD DUP1 PUSH1 0x40 ADD PUSH1 0x40 MSTORE DUP1 PUSH1 0x1 DUP2 MSTORE PUSH1 0x20 ADD PUSH32 0x2A00000000000000000000000000000000000000000000000000000000000000 DUP2 MSTORE POP PUSH2 0x39D PUSH2 0x43A JUMP JUMPDEST PUSH2 0x476 SWAP1 SWAP2 SWAP1 PUSH4 0xFFFFFFFF AND JUMP JUMPDEST PUSH2 0x559 SWAP1 SWAP3 SWAP2 SWAP1 PUSH4 0xFFFFFFFF AND JUMP JUMPDEST POP PUSH1 0x1 SWAP1 POP SWAP3 SWAP2 POP POP JUMP JUMPDEST PUSH0 PUSH2 0x415 PUSH1 0x40 MLOAD DUP1 PUSH1 0x40 ADD PUSH1 0x40 MSTORE DUP1 PUSH1 0x1 DUP2 MSTORE PUSH1 0x20 ADD PUSH32 0x2A00000000000000000000000000000000000000000000000000000000000000 DUP2 MSTORE POP PUSH2 0x407 PUSH2 0x43A JUMP JUMPDEST PUSH2 0x476 SWAP1 SWAP2 SWAP1 PUSH4 0xFFFFFFFF AND JUMP JUMPDEST POP PUSH2 0x430 DUP3 PUSH2 0x422 PUSH2 0x48A JUMP JUMPDEST PUSH2 0x5D1 SWAP1 SWAP2 SWAP1 PUSH4 0xFFFFFFFF AND JUMP JUMPDEST POP PUSH1 0x1 SWAP1 POP SWAP2 SWAP1 POP JUMP JUMPDEST PUSH0 DUP1 PUSH1 0x1 PUSH32 0x43ADE7009D4D0D9029C7D898FECCF8AA5851482F139FB4B86F5FAD8CA6326291 PUSH0 SHR PUSH2 0x46B SWAP2 SWAP1 PUSH2 0xF5E JUMP JUMPDEST PUSH0 SHL SWAP1 POP DUP1 SWAP2 POP POP SWAP1 JUMP JUMPDEST PUSH0 PUSH2 0x482 DUP4 DUP4 CALLER PUSH2 0x626 JUMP JUMPDEST SWAP1 POP SWAP3 SWAP2 POP POP JUMP JUMPDEST PUSH0 DUP1 PUSH1 0x1 PUSH32 0xD0074CB15C0B868F8C1336979EC91B91EC4D450A2ED3389290BFAE4EABD9A07D PUSH0 SHR PUSH2 0x4BB SWAP2 SWAP1 PUSH2 0xF5E JUMP JUMPDEST PUSH0 SHL SWAP1 POP DUP1 SWAP2 POP POP SWAP1 JUMP JUMPDEST PUSH0 PUSH2 0x4D2 DUP5 DUP5 DUP5 PUSH2 0x67F JUMP JUMPDEST SWAP1 POP SWAP4 SWAP3 POP POP POP JUMP JUMPDEST PUSH0 PUSH2 0x4E7 DUP4 DUP4 CALLER PUSH2 0x7C6 JUMP JUMPDEST SWAP1 POP SWAP3 SWAP2 POP POP JUMP JUMPDEST PUSH0 PUSH2 0x4FB DUP5 DUP5 DUP5 PUSH2 0x83E JUMP JUMPDEST SWAP1 POP SWAP4 SWAP3 POP POP POP JUMP JUMPDEST PUSH0 DUP2 DUP4 PUSH0 ADD PUSH1 0x4 ADD SWAP1 DUP2 PUSH2 0x518 SWAP2 SWAP1 PUSH2 0x1195 JUMP JUMPDEST POP PUSH32 0x4044D76B63F74BC919C427BB04C970E245DB0DB19E28DC92734B32B00DCD3C5D DUP3 PUSH1 0x40 MLOAD PUSH2 0x548 SWAP2 SWAP1 PUSH2 0x12D4 JUMP JUMPDEST PUSH1 0x40 MLOAD DUP1 SWAP2 SUB SWAP1 LOG1 DUP3 SWAP1 POP SWAP3 SWAP2 POP POP JUMP JUMPDEST PUSH0 PUSH2 0x58D DUP3 DUP6 PUSH0 ADD PUSH0 ADD DUP6 PUSH1 0x40 MLOAD PUSH2 0x571 SWAP2 SWAP1 PUSH2 0x132E JUMP JUMPDEST SWAP1 DUP2 MSTORE PUSH1 0x20 ADD PUSH1 0x40 MLOAD DUP1 SWAP2 SUB SWAP1 KECCAK256 PUSH2 0x9FE SWAP1 SWAP2 SWAP1 PUSH4 0xFFFFFFFF AND JUMP JUMPDEST POP PUSH32 0x8F38580E79103313DA54F4ABBF428DAD197DAC436A91F3BAEE207D9F6552626D DUP4 DUP4 PUSH1 0x40 MLOAD PUSH2 0x5BF SWAP3 SWAP2 SWAP1 PUSH2 0x1353 JUMP JUMPDEST PUSH1 0x40 MLOAD DUP1 SWAP2 SUB SWAP1 LOG1 DUP4 SWAP1 POP SWAP4 SWAP3 POP POP POP JUMP JUMPDEST PUSH0 DUP2 DUP4 PUSH0 ADD PUSH1 0x3 ADD SWAP1 DUP2 PUSH2 0x5E5 SWAP2 SWAP1 PUSH2 0x1195 JUMP JUMPDEST POP PUSH32 0xA30D5D88C4A00B505091610DA337BDAE8DB8C519E88AB0A6C007B42817968380 DUP3 PUSH1 0x40 MLOAD PUSH2 0x615 SWAP2 SWAP1 PUSH2 0x12D4 JUMP JUMPDEST PUSH1 0x40 MLOAD DUP1 SWAP2 SUB SWAP1 LOG1 DUP3 SWAP1 POP SWAP3 SWAP2 POP POP JUMP JUMPDEST PUSH0 PUSH2 0x632 DUP5 DUP5 DUP5 PUSH2 0xA2B JUMP JUMPDEST PUSH2 0x675 JUMPI DUP2 DUP4 PUSH1 0x40 MLOAD PUSH32 0xE76ED20900000000000000000000000000000000000000000000000000000000 DUP2 MSTORE PUSH1 0x4 ADD PUSH2 0x66C SWAP3 SWAP2 SWAP1 PUSH2 0x1381 JUMP JUMPDEST PUSH1 0x40 MLOAD DUP1 SWAP2 SUB SWAP1 REVERT JUMPDEST DUP4 SWAP1 POP SWAP4 SWAP3 POP POP POP JUMP JUMPDEST PUSH0 DUP1 PUSH20 0xFFFFFFFFFFFFFFFFFFFFFFFFFFFFFFFFFFFFFFFF AND DUP4 PUSH20 0xFFFFFFFFFFFFFFFFFFFFFFFFFFFFFFFFFFFFFFFF AND SUB PUSH2 0x6EE JUMPI PUSH1 0x40 MLOAD PUSH32 0x8C379A000000000000000000000000000000000000000000000000000000000 DUP2 MSTORE PUSH1 0x4 ADD PUSH2 0x6E5 SWAP1 PUSH2 0x141F JUMP JUMPDEST PUSH1 0x40 MLOAD DUP1 SWAP2 SUB SWAP1 REVERT JUMPDEST DUP2 DUP5 PUSH0 ADD PUSH1 0x2 ADD PUSH0 DUP3 DUP3 SLOAD PUSH2 0x703 SWAP2 SWAP1 PUSH2 0x143D JUMP JUMPDEST SWAP3 POP POP DUP2 SWAP1 SSTORE POP DUP2 DUP5 PUSH0 ADD PUSH0 ADD PUSH0 DUP6 PUSH20 0xFFFFFFFFFFFFFFFFFFFFFFFFFFFFFFFFFFFFFFFF AND PUSH20 0xFFFFFFFFFFFFFFFFFFFFFFFFFFFFFFFFFFFFFFFF AND DUP2 MSTORE PUSH1 0x20 ADD SWAP1 DUP2 MSTORE PUSH1 0x20 ADD PUSH0 KECCAK256 PUSH0 DUP3 DUP3 SLOAD ADD SWAP3 POP POP DUP2 SWAP1 SSTORE POP DUP3 PUSH20 0xFFFFFFFFFFFFFFFFFFFFFFFFFFFFFFFFFFFFFFFF AND PUSH0 PUSH20 0xFFFFFFFFFFFFFFFFFFFFFFFFFFFFFFFFFFFFFFFF AND PUSH32 0xDDF252AD1BE2C89B69C2B068FC378DAA952BA7F163C4A11628F55A4DF523B3EF DUP5 PUSH1 0x40 MLOAD PUSH2 0x7B4 SWAP2 SWAP1 PUSH2 0x147F JUMP JUMPDEST PUSH1 0x40 MLOAD DUP1 SWAP2 SUB SWAP1 LOG3 DUP4 SWAP1 POP SWAP4 SWAP3 POP POP POP JUMP JUMPDEST PUSH0 PUSH2 0x7FA DUP3 DUP6 PUSH0 ADD PUSH0 ADD DUP6 PUSH1 0x40 MLOAD PUSH2 0x7DE SWAP2 SWAP1 PUSH2 0x132E JUMP JUMPDEST SWAP1 DUP2 MSTORE PUSH1 0x20 ADD PUSH1 0x40 MLOAD DUP1 SWAP2 SUB SWAP1 KECCAK256 PUSH2 0xA68 SWAP1 SWAP2 SWAP1 PUSH4 0xFFFFFFFF AND JUMP JUMPDEST POP PUSH32 0x426257855659AC73F28DEAF0574D8B1DE5AFE800EF2886221A2C5A9325C01C52 DUP4 DUP4 PUSH1 0x40 MLOAD PUSH2 0x82C SWAP3 SWAP2 SWAP1 PUSH2 0x1353 JUMP JUMPDEST PUSH1 0x40 MLOAD DUP1 SWAP2 SUB SWAP1 LOG1 DUP4 SWAP1 POP SWAP4 SWAP3 POP POP POP JUMP JUMPDEST PUSH0 DUP1 PUSH20 0xFFFFFFFFFFFFFFFFFFFFFFFFFFFFFFFFFFFFFFFF AND DUP4 PUSH20 0xFFFFFFFFFFFFFFFFFFFFFFFFFFFFFFFFFFFFFFFF AND SUB PUSH2 0x8AD JUMPI PUSH1 0x40 MLOAD PUSH32 0x8C379A000000000000000000000000000000000000000000000000000000000 DUP2 MSTORE PUSH1 0x4 ADD PUSH2 0x8A4 SWAP1 PUSH2 0x1508 JUMP JUMPDEST PUSH1 0x40 MLOAD DUP1 SWAP2 SUB SWAP1 REVERT JUMPDEST PUSH0 DUP5 PUSH0 ADD PUSH0 ADD PUSH0 DUP6 PUSH20 0xFFFFFFFFFFFFFFFFFFFFFFFFFFFFFFFFFFFFFFFF AND PUSH20 0xFFFFFFFFFFFFFFFFFFFFFFFFFFFFFFFFFFFFFFFF AND DUP2 MSTORE PUSH1 0x20 ADD SWAP1 DUP2 MSTORE PUSH1 0x20 ADD PUSH0 KECCAK256 SLOAD SWAP1 POP DUP3 DUP2 LT ISZERO PUSH2 0x934 JUMPI PUSH1 0x40 MLOAD PUSH32 0x8C379A000000000000000000000000000000000000000000000000000000000 DUP2 MSTORE PUSH1 0x4 ADD PUSH2 0x92B SWAP1 PUSH2 0x1596 JUMP JUMPDEST PUSH1 0x40 MLOAD DUP1 SWAP2 SUB SWAP1 REVERT JUMPDEST DUP3 DUP2 SUB DUP6 PUSH0 ADD PUSH0 ADD PUSH0 DUP7 PUSH20 0xFFFFFFFFFFFFFFFFFFFFFFFFFFFFFFFFFFFFFFFF AND PUSH20 0xFFFFFFFFFFFFFFFFFFFFFFFFFFFFFFFFFFFFFFFF AND DUP2 MSTORE PUSH1 0x20 ADD SWAP1 DUP2 MSTORE PUSH1 0x20 ADD PUSH0 KECCAK256 DUP2 SWAP1 SSTORE POP DUP3 DUP6 PUSH0 ADD PUSH1 0x2 ADD PUSH0 DUP3 DUP3 SLOAD SUB SWAP3 POP POP DUP2 SWAP1 SSTORE POP PUSH0 PUSH20 0xFFFFFFFFFFFFFFFFFFFFFFFFFFFFFFFFFFFFFFFF AND DUP5 PUSH20 0xFFFFFFFFFFFFFFFFFFFFFFFFFFFFFFFFFFFFFFFF AND PUSH32 0xDDF252AD1BE2C89B69C2B068FC378DAA952BA7F163C4A11628F55A4DF523B3EF DUP6 PUSH1 0x40 MLOAD PUSH2 0x9EB SWAP2 SWAP1 PUSH2 0x147F JUMP JUMPDEST PUSH1 0x40 MLOAD DUP1 SWAP2 SUB SWAP1 LOG3 DUP5 SWAP2 POP POP SWAP4 SWAP3 POP POP POP JUMP JUMPDEST PUSH0 PUSH2 0xA23 DUP4 PUSH0 ADD DUP4 PUSH20 0xFFFFFFFFFFFFFFFFFFFFFFFFFFFFFFFFFFFFFFFF AND PUSH0 SHL PUSH2 0xA95 JUMP JUMPDEST SWAP1 POP SWAP3 SWAP2 POP POP JUMP JUMPDEST PUSH0 PUSH2 0xA5F DUP3 DUP6 PUSH0 ADD PUSH0 ADD DUP6 PUSH1 0x40 MLOAD PUSH2 0xA43 SWAP2 SWAP1 PUSH2 0x132E JUMP JUMPDEST SWAP1 DUP2 MSTORE PUSH1 0x20 ADD PUSH1 0x40 MLOAD DUP1 SWAP2 SUB SWAP1 KECCAK256 PUSH2 0xB91 SWAP1 SWAP2 SWAP1 PUSH4 0xFFFFFFFF AND JUMP JUMPDEST SWAP1 POP SWAP4 SWAP3 POP POP POP JUMP JUMPDEST PUSH0 PUSH2 0xA8D DUP4 PUSH0 ADD DUP4 PUSH20 0xFFFFFFFFFFFFFFFFFFFFFFFFFFFFFFFFFFFFFFFF AND PUSH0 SHL PUSH2 0xBBE JUMP JUMPDEST SWAP1 POP SWAP3 SWAP2 POP POP JUMP JUMPDEST PUSH0 DUP1 DUP4 PUSH1 0x1 ADD PUSH0 DUP5 DUP2 MSTORE PUSH1 0x20 ADD SWAP1 DUP2 MSTORE PUSH1 0x20 ADD PUSH0 KECCAK256 SLOAD SWAP1 POP PUSH0 DUP2 EQ PUSH2 0xB86 JUMPI PUSH0 PUSH1 0x1 DUP3 PUSH2 0xAC2 SWAP2 SWAP1 PUSH2 0xF5E JUMP JUMPDEST SWAP1 POP PUSH0 PUSH1 0x1 DUP7 PUSH0 ADD DUP1 SLOAD SWAP1 POP PUSH2 0xAD8 SWAP2 SWAP1 PUSH2 0xF5E JUMP JUMPDEST SWAP1 POP DUP2 DUP2 EQ PUSH2 0xB3E JUMPI PUSH0 DUP7 PUSH0 ADD DUP3 DUP2 SLOAD DUP2 LT PUSH2 0xAF7 JUMPI PUSH2 0xAF6 PUSH2 0x15B4 JUMP JUMPDEST JUMPDEST SWAP1 PUSH0 MSTORE PUSH1 0x20 PUSH0 KECCAK256 ADD SLOAD SWAP1 POP DUP1 DUP8 PUSH0 ADD DUP5 DUP2 SLOAD DUP2 LT PUSH2 0xB18 JUMPI PUSH2 0xB17 PUSH2 0x15B4 JUMP JUMPDEST JUMPDEST SWAP1 PUSH0 MSTORE PUSH1 0x20 PUSH0 KECCAK256 ADD DUP2 SWAP1 SSTORE POP DUP4 DUP8 PUSH1 0x1 ADD PUSH0 DUP4 DUP2 MSTORE PUSH1 0x20 ADD SWAP1 DUP2 MSTORE PUSH1 0x20 ADD PUSH0 KECCAK256 DUP2 SWAP1 SSTORE POP POP JUMPDEST DUP6 PUSH0 ADD DUP1 SLOAD DUP1 PUSH2 0xB51 JUMPI PUSH2 0xB50 PUSH2 0x15E1 JUMP JUMPDEST JUMPDEST PUSH1 0x1 SWAP1 SUB DUP2 DUP2 SWAP1 PUSH0 MSTORE PUSH1 0x20 PUSH0 KECCAK256 ADD PUSH0 SWAP1 SSTORE SWAP1 SSTORE DUP6 PUSH1 0x1 ADD PUSH0 DUP7 DUP2 MSTORE PUSH1 0x20 ADD SWAP1 DUP2 MSTORE PUSH1 0x20 ADD PUSH0 KECCAK256 PUSH0 SWAP1 SSTORE PUSH1 0x1 SWAP4 POP POP POP POP PUSH2 0xB8B JUMP JUMPDEST PUSH0 SWAP2 POP POP JUMPDEST SWAP3 SWAP2 POP POP JUMP JUMPDEST PUSH0 PUSH2 0xBB6 DUP4 PUSH0 ADD DUP4 PUSH20 0xFFFFFFFFFFFFFFFFFFFFFFFFFFFFFFFFFFFFFFFF AND PUSH0 SHL PUSH2 0xC25 JUMP JUMPDEST SWAP1 POP SWAP3 SWAP2 POP POP JUMP JUMPDEST PUSH0 PUSH2 0xBC9 DUP4 DUP4 PUSH2 0xC25 JUMP JUMPDEST PUSH2 0xC1B JUMPI DUP3 PUSH0 ADD DUP3 SWAP1 DUP1 PUSH1 0x1 DUP2 SLOAD ADD DUP1 DUP3 SSTORE DUP1 SWAP2 POP POP PUSH1 0x1 SWAP1 SUB SWAP1 PUSH0 MSTORE PUSH1 0x20 PUSH0 KECCAK256 ADD PUSH0 SWAP1 SWAP2 SWAP1 SWAP2 SWAP1 SWAP2 POP SSTORE DUP3 PUSH0 ADD DUP1 SLOAD SWAP1 POP DUP4 PUSH1 0x1 ADD PUSH0 DUP5 DUP2 MSTORE PUSH1 0x20 ADD SWAP1 DUP2 MSTORE PUSH1 0x20 ADD PUSH0 KECCAK256 DUP2 SWAP1 SSTORE POP PUSH1 0x1 SWAP1 POP PUSH2 0xC1F JUMP JUMPDEST PUSH0 SWAP1 POP JUMPDEST SWAP3 SWAP2 POP POP JUMP JUMPDEST PUSH0 DUP1 DUP4 PUSH1 0x1 ADD PUSH0 DUP5 DUP2 MSTORE PUSH1 0x20 ADD SWAP1 DUP2 MSTORE PUSH1 0x20 ADD PUSH0 KECCAK256 SLOAD EQ ISZERO SWAP1 POP SWAP3 SWAP2 POP POP JUMP JUMPDEST PUSH0 PUSH1 0x40 MLOAD SWAP1 POP SWAP1 JUMP JUMPDEST PUSH0 DUP1 REVERT JUMPDEST PUSH0 DUP1 REVERT JUMPDEST PUSH0 PUSH20 0xFFFFFFFFFFFFFFFFFFFFFFFFFFFFFFFFFFFFFFFF DUP3 AND SWAP1 POP SWAP2 SWAP1 POP JUMP JUMPDEST PUSH0 PUSH2 0xC7F DUP3 PUSH2 0xC56 JUMP JUMPDEST SWAP1 POP SWAP2 SWAP1 POP JUMP JUMPDEST PUSH2 0xC8F DUP2 PUSH2 0xC75 JUMP JUMPDEST DUP2 EQ PUSH2 0xC99 JUMPI PUSH0 DUP1 REVERT JUMPDEST POP JUMP JUMPDEST PUSH0 DUP2 CALLDATALOAD SWAP1 POP PUSH2 0xCAA DUP2 PUSH2 0xC86 JUMP JUMPDEST SWAP3 SWAP2 POP POP JUMP JUMPDEST PUSH0 DUP2 SWAP1 POP SWAP2 SWAP1 POP JUMP JUMPDEST PUSH2 0xCC2 DUP2 PUSH2 0xCB0 JUMP JUMPDEST DUP2 EQ PUSH2 0xCCC JUMPI PUSH0 DUP1 REVERT JUMPDEST POP JUMP JUMPDEST PUSH0 DUP2 CALLDATALOAD SWAP1 POP PUSH2 0xCDD DUP2 PUSH2 0xCB9 JUMP JUMPDEST SWAP3 SWAP2 POP POP JUMP JUMPDEST PUSH0 DUP1 PUSH1 0x40 DUP4 DUP6 SUB SLT ISZERO PUSH2 0xCF9 JUMPI PUSH2 0xCF8 PUSH2 0xC4E JUMP JUMPDEST JUMPDEST PUSH0 PUSH2 0xD06 DUP6 DUP3 DUP7 ADD PUSH2 0xC9C JUMP JUMPDEST SWAP3 POP POP PUSH1 0x20 PUSH2 0xD17 DUP6 DUP3 DUP7 ADD PUSH2 0xCCF JUMP JUMPDEST SWAP2 POP POP SWAP3 POP SWAP3 SWAP1 POP JUMP JUMPDEST PUSH0 DUP2 ISZERO ISZERO SWAP1 POP SWAP2 SWAP1 POP JUMP JUMPDEST PUSH2 0xD35 DUP2 PUSH2 0xD21 JUMP JUMPDEST DUP3 MSTORE POP POP JUMP JUMPDEST PUSH0 PUSH1 0x20 DUP3 ADD SWAP1 POP PUSH2 0xD4E PUSH0 DUP4 ADD DUP5 PUSH2 0xD2C JUMP JUMPDEST SWAP3 SWAP2 POP POP JUMP JUMPDEST PUSH0 DUP1 REVERT JUMPDEST PUSH0 DUP1 REVERT JUMPDEST PUSH0 PUSH1 0x1F NOT PUSH1 0x1F DUP4 ADD AND SWAP1 POP SWAP2 SWAP1 POP JUMP JUMPDEST PUSH32 0x4E487B7100000000000000000000000000000000000000000000000000000000 PUSH0 MSTORE PUSH1 0x41 PUSH1 0x4 MSTORE PUSH1 0x24 PUSH0 REVERT JUMPDEST PUSH2 0xDA2 DUP3 PUSH2 0xD5C JUMP JUMPDEST DUP2 ADD DUP2 DUP2 LT PUSH8 0xFFFFFFFFFFFFFFFF DUP3 GT OR ISZERO PUSH2 0xDC1 JUMPI PUSH2 0xDC0 PUSH2 0xD6C JUMP JUMPDEST JUMPDEST DUP1 PUSH1 0x40 MSTORE POP POP POP JUMP JUMPDEST PUSH0 PUSH2 0xDD3 PUSH2 0xC45 JUMP JUMPDEST SWAP1 POP PUSH2 0xDDF DUP3 DUP3 PUSH2 0xD99 JUMP JUMPDEST SWAP2 SWAP1 POP JUMP JUMPDEST PUSH0 PUSH8 0xFFFFFFFFFFFFFFFF DUP3 GT ISZERO PUSH2 0xDFE JUMPI PUSH2 0xDFD PUSH2 0xD6C JUMP JUMPDEST JUMPDEST PUSH2 0xE07 DUP3 PUSH2 0xD5C JUMP JUMPDEST SWAP1 POP PUSH1 0x20 DUP2 ADD SWAP1 POP SWAP2 SWAP1 POP JUMP JUMPDEST DUP3 DUP2 DUP4 CALLDATACOPY PUSH0 DUP4 DUP4 ADD MSTORE POP POP POP JUMP JUMPDEST PUSH0 PUSH2 0xE34 PUSH2 0xE2F DUP5 PUSH2 0xDE4 JUMP JUMPDEST PUSH2 0xDCA JUMP JUMPDEST SWAP1 POP DUP3 DUP2 MSTORE PUSH1 0x20 DUP2 ADD DUP5 DUP5 DUP5 ADD GT ISZERO PUSH2 0xE50 JUMPI PUSH2 0xE4F PUSH2 0xD58 JUMP JUMPDEST JUMPDEST PUSH2 0xE5B DUP5 DUP3 DUP6 PUSH2 0xE14 JUMP JUMPDEST POP SWAP4 SWAP3 POP POP POP JUMP JUMPDEST PUSH0 DUP3 PUSH1 0x1F DUP4 ADD SLT PUSH2 0xE77 JUMPI PUSH2 0xE76 PUSH2 0xD54 JUMP JUMPDEST JUMPDEST DUP2 CALLDATALOAD PUSH2 0xE87 DUP5 DUP3 PUSH1 0x20 DUP7 ADD PUSH2 0xE22 JUMP JUMPDEST SWAP2 POP POP SWAP3 SWAP2 POP POP JUMP JUMPDEST PUSH0 DUP1 PUSH1 0x40 DUP4 DUP6 SUB SLT ISZERO PUSH2 0xEA6 JUMPI PUSH2 0xEA5 PUSH2 0xC4E JUMP JUMPDEST JUMPDEST PUSH0 DUP4 ADD CALLDATALOAD PUSH8 0xFFFFFFFFFFFFFFFF DUP2 GT ISZERO PUSH2 0xEC3 JUMPI PUSH2 0xEC2 PUSH2 0xC52 JUMP JUMPDEST JUMPDEST PUSH2 0xECF DUP6 DUP3 DUP7 ADD PUSH2 0xE63 JUMP JUMPDEST SWAP3 POP POP PUSH1 0x20 PUSH2 0xEE0 DUP6 DUP3 DUP7 ADD PUSH2 0xC9C JUMP JUMPDEST SWAP2 POP POP SWAP3 POP SWAP3 SWAP1 POP JUMP JUMPDEST PUSH0 PUSH1 0x20 DUP3 DUP5 SUB SLT ISZERO PUSH2 0xEFF JUMPI PUSH2 0xEFE PUSH2 0xC4E JUMP JUMPDEST JUMPDEST PUSH0 DUP3 ADD CALLDATALOAD PUSH8 0xFFFFFFFFFFFFFFFF DUP2 GT ISZERO PUSH2 0xF1C JUMPI PUSH2 0xF1B PUSH2 0xC52 JUMP JUMPDEST JUMPDEST PUSH2 0xF28 DUP5 DUP3 DUP6 ADD PUSH2 0xE63 JUMP JUMPDEST SWAP2 POP POP SWAP3 SWAP2 POP POP JUMP JUMPDEST PUSH32 0x4E487B7100000000000000000000000000000000000000000000000000000000 PUSH0 MSTORE PUSH1 0x11 PUSH1 0x4 MSTORE PUSH1 0x24 PUSH0 REVERT JUMPDEST PUSH0 PUSH2 0xF68 DUP3 PUSH2 0xCB0 JUMP JUMPDEST SWAP2 POP PUSH2 0xF73 DUP4 PUSH2 0xCB0 JUMP JUMPDEST SWAP3 POP DUP3 DUP3 SUB SWAP1 POP DUP2 DUP2 GT ISZERO PUSH2 0xF8B JUMPI PUSH2 0xF8A PUSH2 0xF31 JUMP JUMPDEST JUMPDEST SWAP3 SWAP2 POP POP JUMP JUMPDEST PUSH0 DUP2 MLOAD SWAP1 POP SWAP2 SWAP1 POP JUMP JUMPDEST PUSH32 0x4E487B7100000000000000000000000000000000000000000000000000000000 PUSH0 MSTORE PUSH1 0x22 PUSH1 0x4 MSTORE PUSH1 0x24 PUSH0 REVERT JUMPDEST PUSH0 PUSH1 0x2 DUP3 DIV SWAP1 POP PUSH1 0x1 DUP3 AND DUP1 PUSH2 0xFDF JUMPI PUSH1 0x7F DUP3 AND SWAP2 POP JUMPDEST PUSH1 0x20 DUP3 LT DUP2 SUB PUSH2 0xFF2 JUMPI PUSH2 0xFF1 PUSH2 0xF9B JUMP JUMPDEST JUMPDEST POP SWAP2 SWAP1 POP JUMP JUMPDEST PUSH0 DUP2 SWAP1 POP DUP2 PUSH0 MSTORE PUSH1 0x20 PUSH0 KECCAK256 SWAP1 POP SWAP2 SWAP1 POP JUMP JUMPDEST PUSH0 PUSH1 0x20 PUSH1 0x1F DUP4 ADD DIV SWAP1 POP SWAP2 SWAP1 POP JUMP JUMPDEST PUSH0 DUP3 DUP3 SHL SWAP1 POP SWAP3 SWAP2 POP POP JUMP JUMPDEST PUSH0 PUSH1 0x8 DUP4 MUL PUSH2 0x1054 PUSH32 0xFFFFFFFFFFFFFFFFFFFFFFFFFFFFFFFFFFFFFFFFFFFFFFFFFFFFFFFFFFFFFFFF DUP3 PUSH2 0x1019 JUMP JUMPDEST PUSH2 0x105E DUP7 DUP4 PUSH2 0x1019 JUMP JUMPDEST SWAP6 POP DUP1 NOT DUP5 AND SWAP4 POP DUP1 DUP7 AND DUP5 OR SWAP3 POP POP POP SWAP4 SWAP3 POP POP POP JUMP JUMPDEST PUSH0 DUP2 SWAP1 POP SWAP2 SWAP1 POP JUMP JUMPDEST PUSH0 PUSH2 0x1099 PUSH2 0x1094 PUSH2 0x108F DUP5 PUSH2 0xCB0 JUMP JUMPDEST PUSH2 0x1076 JUMP JUMPDEST PUSH2 0xCB0 JUMP JUMPDEST SWAP1 POP SWAP2 SWAP1 POP JUMP JUMPDEST PUSH0 DUP2 SWAP1 POP SWAP2 SWAP1 POP JUMP JUMPDEST PUSH2 0x10B2 DUP4 PUSH2 0x107F JUMP JUMPDEST PUSH2 0x10C6 PUSH2 0x10BE DUP3 PUSH2 0x10A0 JUMP JUMPDEST DUP5 DUP5 SLOAD PUSH2 0x1025 JUMP JUMPDEST DUP3 SSTORE POP POP POP POP JUMP JUMPDEST PUSH0 SWAP1 JUMP JUMPDEST PUSH2 0x10DA PUSH2 0x10CE JUMP JUMPDEST PUSH2 0x10E5 DUP2 DUP5 DUP5 PUSH2 0x10A9 JUMP JUMPDEST POP POP POP JUMP JUMPDEST JUMPDEST DUP2 DUP2 LT ISZERO PUSH2 0x1108 JUMPI PUSH2 0x10FD PUSH0 DUP3 PUSH2 0x10D2 JUMP JUMPDEST PUSH1 0x1 DUP2 ADD SWAP1 POP PUSH2 0x10EB JUMP JUMPDEST POP POP JUMP JUMPDEST PUSH1 0x1F DUP3 GT ISZERO PUSH2 0x114D JUMPI PUSH2 0x111E DUP2 PUSH2 0xFF8 JUMP JUMPDEST PUSH2 0x1127 DUP5 PUSH2 0x100A JUMP JUMPDEST DUP2 ADD PUSH1 0x20 DUP6 LT ISZERO PUSH2 0x1136 JUMPI DUP2 SWAP1 POP JUMPDEST PUSH2 0x114A PUSH2 0x1142 DUP6 PUSH2 0x100A JUMP JUMPDEST DUP4 ADD DUP3 PUSH2 0x10EA JUMP JUMPDEST POP POP JUMPDEST POP POP POP JUMP JUMPDEST PUSH0 DUP3 DUP3 SHR SWAP1 POP SWAP3 SWAP2 POP POP JUMP JUMPDEST PUSH0 PUSH2 0x116D PUSH0 NOT DUP5 PUSH1 0x8 MUL PUSH2 0x1152 JUMP JUMPDEST NOT DUP1 DUP4 AND SWAP2 POP POP SWAP3 SWAP2 POP POP JUMP JUMPDEST PUSH0 PUSH2 0x1185 DUP4 DUP4 PUSH2 0x115E JUMP JUMPDEST SWAP2 POP DUP3 PUSH1 0x2 MUL DUP3 OR SWAP1 POP SWAP3 SWAP2 POP POP JUMP JUMPDEST PUSH2 0x119E DUP3 PUSH2 0xF91 JUMP JUMPDEST PUSH8 0xFFFFFFFFFFFFFFFF DUP2 GT ISZERO PUSH2 0x11B7 JUMPI PUSH2 0x11B6 PUSH2 0xD6C JUMP JUMPDEST JUMPDEST PUSH2 0x11C1 DUP3 SLOAD PUSH2 0xFC8 JUMP JUMPDEST PUSH2 0x11CC DUP3 DUP3 DUP6 PUSH2 0x110C JUMP JUMPDEST PUSH0 PUSH1 0x20 SWAP1 POP PUSH1 0x1F DUP4 GT PUSH1 0x1 DUP2 EQ PUSH2 0x11FD JUMPI PUSH0 DUP5 ISZERO PUSH2 0x11EB JUMPI DUP3 DUP8 ADD MLOAD SWAP1 POP JUMPDEST PUSH2 0x11F5 DUP6 DUP3 PUSH2 0x117A JUMP JUMPDEST DUP7 SSTORE POP PUSH2 0x125C JUMP JUMPDEST PUSH1 0x1F NOT DUP5 AND PUSH2 0x120B DUP7 PUSH2 0xFF8 JUMP JUMPDEST PUSH0 JUMPDEST DUP3 DUP2 LT ISZERO PUSH2 0x1232 JUMPI DUP5 DUP10 ADD MLOAD DUP3 SSTORE PUSH1 0x1 DUP3 ADD SWAP2 POP PUSH1 0x20 DUP6 ADD SWAP5 POP PUSH1 0x20 DUP2 ADD SWAP1 POP PUSH2 0x120D JUMP JUMPDEST DUP7 DUP4 LT ISZERO PUSH2 0x124F JUMPI DUP5 DUP10 ADD MLOAD PUSH2 0x124B PUSH1 0x1F DUP10 AND DUP3 PUSH2 0x115E JUMP JUMPDEST DUP4 SSTORE POP JUMPDEST PUSH1 0x1 PUSH1 0x2 DUP9 MUL ADD DUP9 SSTORE POP POP POP JUMPDEST POP POP POP POP POP POP JUMP JUMPDEST PUSH0 DUP3 DUP3 MSTORE PUSH1 0x20 DUP3 ADD SWAP1 POP SWAP3 SWAP2 POP POP JUMP JUMPDEST PUSH0 JUMPDEST DUP4 DUP2 LT ISZERO PUSH2 0x1291 JUMPI DUP1 DUP3 ADD MLOAD DUP2 DUP5 ADD MSTORE PUSH1 0x20 DUP2 ADD SWAP1 POP PUSH2 0x1276 JUMP JUMPDEST PUSH0 DUP5 DUP5 ADD MSTORE POP POP POP POP JUMP JUMPDEST PUSH0 PUSH2 0x12A6 DUP3 PUSH2 0xF91 JUMP JUMPDEST PUSH2 0x12B0 DUP2 DUP6 PUSH2 0x1264 JUMP JUMPDEST SWAP4 POP PUSH2 0x12C0 DUP2 DUP6 PUSH1 0x20 DUP7 ADD PUSH2 0x1274 JUMP JUMPDEST PUSH2 0x12C9 DUP2 PUSH2 0xD5C JUMP JUMPDEST DUP5 ADD SWAP2 POP POP SWAP3 SWAP2 POP POP JUMP JUMPDEST PUSH0 PUSH1 0x20 DUP3 ADD SWAP1 POP DUP2 DUP2 SUB PUSH0 DUP4 ADD MSTORE PUSH2 0x12EC DUP2 DUP5 PUSH2 0x129C JUMP JUMPDEST SWAP1 POP SWAP3 SWAP2 POP POP JUMP JUMPDEST PUSH0 DUP2 SWAP1 POP SWAP3 SWAP2 POP POP JUMP JUMPDEST PUSH0 PUSH2 0x1308 DUP3 PUSH2 0xF91 JUMP JUMPDEST PUSH2 0x1312 DUP2 DUP6 PUSH2 0x12F4 JUMP JUMPDEST SWAP4 POP PUSH2 0x1322 DUP2 DUP6 PUSH1 0x20 DUP7 ADD PUSH2 0x1274 JUMP JUMPDEST DUP1 DUP5 ADD SWAP2 POP POP SWAP3 SWAP2 POP POP JUMP JUMPDEST PUSH0 PUSH2 0x1339 DUP3 DUP5 PUSH2 0x12FE JUMP JUMPDEST SWAP2 POP DUP2 SWAP1 POP SWAP3 SWAP2 POP POP JUMP JUMPDEST PUSH2 0x134D DUP2 PUSH2 0xC75 JUMP JUMPDEST DUP3 MSTORE POP POP JUMP JUMPDEST PUSH0 PUSH1 0x40 DUP3 ADD SWAP1 POP DUP2 DUP2 SUB PUSH0 DUP4 ADD MSTORE PUSH2 0x136B DUP2 DUP6 PUSH2 0x129C JUMP JUMPDEST SWAP1 POP PUSH2 0x137A PUSH1 0x20 DUP4 ADD DUP5 PUSH2 0x1344 JUMP JUMPDEST SWAP4 SWAP3 POP POP POP JUMP JUMPDEST PUSH0 PUSH1 0x40 DUP3 ADD SWAP1 POP PUSH2 0x1394 PUSH0 DUP4 ADD DUP6 PUSH2 0x1344 JUMP JUMPDEST DUP2 DUP2 SUB PUSH1 0x20 DUP4 ADD MSTORE PUSH2 0x13A6 DUP2 DUP5 PUSH2 0x129C JUMP JUMPDEST SWAP1 POP SWAP4 SWAP3 POP POP POP JUMP JUMPDEST PUSH32 0x546F6B656E53746F726167654C6962726172793A2063616E6E6F74206D696E74 PUSH0 DUP3 ADD MSTORE PUSH32 0x20746F2061646472657373207A65726F00000000000000000000000000000000 PUSH1 0x20 DUP3 ADD MSTORE POP JUMP JUMPDEST PUSH0 PUSH2 0x1409 PUSH1 0x30 DUP4 PUSH2 0x1264 JUMP JUMPDEST SWAP2 POP PUSH2 0x1414 DUP3 PUSH2 0x13AF JUMP JUMPDEST PUSH1 0x40 DUP3 ADD SWAP1 POP SWAP2 SWAP1 POP JUMP JUMPDEST PUSH0 PUSH1 0x20 DUP3 ADD SWAP1 POP DUP2 DUP2 SUB PUSH0 DUP4 ADD MSTORE PUSH2 0x1436 DUP2 PUSH2 0x13FD JUMP JUMPDEST SWAP1 POP SWAP2 SWAP1 POP JUMP JUMPDEST PUSH0 PUSH2 0x1447 DUP3 PUSH2 0xCB0 JUMP JUMPDEST SWAP2 POP PUSH2 0x1452 DUP4 PUSH2 0xCB0 JUMP JUMPDEST SWAP3 POP DUP3 DUP3 ADD SWAP1 POP DUP1 DUP3 GT ISZERO PUSH2 0x146A JUMPI PUSH2 0x1469 PUSH2 0xF31 JUMP JUMPDEST JUMPDEST SWAP3 SWAP2 POP POP JUMP JUMPDEST PUSH2 0x1479 DUP2 PUSH2 0xCB0 JUMP JUMPDEST DUP3 MSTORE POP POP JUMP JUMPDEST PUSH0 PUSH1 0x20 DUP3 ADD SWAP1 POP PUSH2 0x1492 PUSH0 DUP4 ADD DUP5 PUSH2 0x1470 JUMP JUMPDEST SWAP3 SWAP2 POP POP JUMP JUMPDEST PUSH32 0x546F6B656E53746F726167654C6962726172793A2063616E6E6F74206275726E PUSH0 DUP3 ADD MSTORE PUSH32 0x2066726F6D2061646472657373207A65726F0000000000000000000000000000 PUSH1 0x20 DUP3 ADD MSTORE POP JUMP JUMPDEST PUSH0 PUSH2 0x14F2 PUSH1 0x32 DUP4 PUSH2 0x1264 JUMP JUMPDEST SWAP2 POP PUSH2 0x14FD DUP3 PUSH2 0x1498 JUMP JUMPDEST PUSH1 0x40 DUP3 ADD SWAP1 POP SWAP2 SWAP1 POP JUMP JUMPDEST PUSH0 PUSH1 0x20 DUP3 ADD SWAP1 POP DUP2 DUP2 SUB PUSH0 DUP4 ADD MSTORE PUSH2 0x151F DUP2 PUSH2 0x14E6 JUMP JUMPDEST SWAP1 POP SWAP2 SWAP1 POP JUMP JUMPDEST PUSH32 0x546F6B656E53746F726167654C6962726172793A20696E73756666696369656E PUSH0 DUP3 ADD MSTORE PUSH32 0x742062616C616E63650000000000000000000000000000000000000000000000 PUSH1 0x20 DUP3 ADD MSTORE POP JUMP JUMPDEST PUSH0 PUSH2 0x1580 PUSH1 0x29 DUP4 PUSH2 0x1264 JUMP JUMPDEST SWAP2 POP PUSH2 0x158B DUP3 PUSH2 0x1526 JUMP JUMPDEST PUSH1 0x40 DUP3 ADD SWAP1 POP SWAP2 SWAP1 POP JUMP JUMPDEST PUSH0 PUSH1 0x20 DUP3 ADD SWAP1 POP DUP2 DUP2 SUB PUSH0 DUP4 ADD MSTORE PUSH2 0x15AD DUP2 PUSH2 0x1574 JUMP JUMPDEST SWAP1 POP SWAP2 SWAP1 POP JUMP JUMPDEST PUSH32 0x4E487B7100000000000000000000000000000000000000000000000000000000 PUSH0 MSTORE PUSH1 0x32 PUSH1 0x4 MSTORE PUSH1 0x24 PUSH0 REVERT JUMPDEST PUSH32 0x4E487B7100000000000000000000000000000000000000000000000000000000 PUSH0 MSTORE PUSH1 0x31 PUSH1 0x4 MSTORE PUSH1 0x24 PUSH0 REVERT INVALID LOG2 PUSH5 0x6970667358 0x22 SLT KECCAK256 COINBASE DUP12 0xED RETURNDATASIZE MUL SWAP10 0xEF CALLVALUE ISZERO RETURN SWAP2 0xD 0xE6 GAS SUB 0xB3 SWAP15 0xCF SWAP2 SHR 0xE8 PUSH17 0x221223A662EB11425BFA64736F6C634300 ADDMOD XOR STOP CALLER "
				},
				"gasEstimates": {
					"creation": {
						"codeDepositCost": "1140000",
						"executionCost": "1185",
						"totalCost": "1141185"
					},
					"external": {
						"burn(address,uint256)": "infinite",
						"grantRoleTo(string,address)": "infinite",
						"mint(address,uint256)": "infinite",
						"revokeRoleFrom(string,address)": "infinite",
						"setName(string)": "infinite",
						"setSymbol(string)": "infinite"
					}
				},
				"methodIdentifiers": {
					"burn(address,uint256)": "9dc29fac",
					"grantRoleTo(string,address)": "92e73307",
					"mint(address,uint256)": "40c10f19",
					"revokeRoleFrom(string,address)": "bb8a1aff",
					"setName(string)": "c47f0027",
					"setSymbol(string)": "b84c8246"
				}
			},
			"storageLayout": {
				"storage": [],
				"types": null
			},
			"userdoc": {
				"kind": "user",
				"methods": {},
				"version": 1
			}
		}
	}
}