{
	"code/contract/sol/native/utils/math/FixedPointMath.sol": {
		"FixedPointMath": {
			"abi": [
				{
					"inputs": [
						{
							"internalType": "uint8",
							"name": "decimals0",
							"type": "uint8"
						},
						{
							"internalType": "uint8",
							"name": "decimals1",
							"type": "uint8"
						}
					],
					"name": "IncompatibleDecimals",
					"type": "error"
				},
				{
					"inputs": [
						{
							"components": [
								{
									"internalType": "uint256",
									"name": "value",
									"type": "uint256"
								},
								{
									"internalType": "uint8",
									"name": "decimals",
									"type": "uint8"
								}
							],
							"internalType": "struct FixedPointValue",
							"name": "num0",
							"type": "tuple"
						},
						{
							"components": [
								{
									"internalType": "uint256",
									"name": "value",
									"type": "uint256"
								},
								{
									"internalType": "uint8",
									"name": "decimals",
									"type": "uint8"
								}
							],
							"internalType": "struct FixedPointValue",
							"name": "num1",
							"type": "tuple"
						}
					],
					"name": "add",
					"outputs": [
						{
							"components": [
								{
									"internalType": "uint256",
									"name": "value",
									"type": "uint256"
								},
								{
									"internalType": "uint8",
									"name": "decimals",
									"type": "uint8"
								}
							],
							"internalType": "struct FixedPointValue",
							"name": "",
							"type": "tuple"
						}
					],
					"stateMutability": "pure",
					"type": "function"
				},
				{
					"inputs": [
						{
							"components": [
								{
									"internalType": "uint256",
									"name": "value",
									"type": "uint256"
								},
								{
									"internalType": "uint8",
									"name": "decimals",
									"type": "uint8"
								}
							],
							"internalType": "struct FixedPointValue",
							"name": "num",
							"type": "tuple"
						}
					],
					"name": "asEther",
					"outputs": [
						{
							"components": [
								{
									"internalType": "uint256",
									"name": "value",
									"type": "uint256"
								},
								{
									"internalType": "uint8",
									"name": "decimals",
									"type": "uint8"
								}
							],
							"internalType": "struct FixedPointValue",
							"name": "",
							"type": "tuple"
						}
					],
					"stateMutability": "pure",
					"type": "function"
				},
				{
					"inputs": [
						{
							"components": [
								{
									"internalType": "uint256",
									"name": "value",
									"type": "uint256"
								},
								{
									"internalType": "uint8",
									"name": "decimals",
									"type": "uint8"
								}
							],
							"internalType": "struct FixedPointValue",
							"name": "num",
							"type": "tuple"
						},
						{
							"internalType": "uint8",
							"name": "decimals",
							"type": "uint8"
						}
					],
					"name": "asNewDecimals",
					"outputs": [
						{
							"components": [
								{
									"internalType": "uint256",
									"name": "value",
									"type": "uint256"
								},
								{
									"internalType": "uint8",
									"name": "decimals",
									"type": "uint8"
								}
							],
							"internalType": "struct FixedPointValue",
							"name": "",
							"type": "tuple"
						}
					],
					"stateMutability": "pure",
					"type": "function"
				},
				{
					"inputs": [
						{
							"components": [
								{
									"internalType": "uint256",
									"name": "value",
									"type": "uint256"
								},
								{
									"internalType": "uint8",
									"name": "decimals",
									"type": "uint8"
								}
							],
							"internalType": "struct FixedPointValue",
							"name": "num0",
							"type": "tuple"
						},
						{
							"components": [
								{
									"internalType": "uint256",
									"name": "value",
									"type": "uint256"
								},
								{
									"internalType": "uint8",
									"name": "decimals",
									"type": "uint8"
								}
							],
							"internalType": "struct FixedPointValue",
							"name": "num1",
							"type": "tuple"
						}
					],
					"name": "div",
					"outputs": [
						{
							"components": [
								{
									"internalType": "uint256",
									"name": "value",
									"type": "uint256"
								},
								{
									"internalType": "uint8",
									"name": "decimals",
									"type": "uint8"
								}
							],
							"internalType": "struct FixedPointValue",
							"name": "",
							"type": "tuple"
						}
					],
					"stateMutability": "pure",
					"type": "function"
				},
				{
					"inputs": [
						{
							"components": [
								{
									"internalType": "uint256",
									"name": "value",
									"type": "uint256"
								},
								{
									"internalType": "uint8",
									"name": "decimals",
									"type": "uint8"
								}
							],
							"internalType": "struct FixedPointValue",
							"name": "num0",
							"type": "tuple"
						},
						{
							"components": [
								{
									"internalType": "uint256",
									"name": "value",
									"type": "uint256"
								},
								{
									"internalType": "uint8",
									"name": "decimals",
									"type": "uint8"
								}
							],
							"internalType": "struct FixedPointValue",
							"name": "num1",
							"type": "tuple"
						}
					],
					"name": "mul",
					"outputs": [
						{
							"components": [
								{
									"internalType": "uint256",
									"name": "value",
									"type": "uint256"
								},
								{
									"internalType": "uint8",
									"name": "decimals",
									"type": "uint8"
								}
							],
							"internalType": "struct FixedPointValue",
							"name": "",
							"type": "tuple"
						}
					],
					"stateMutability": "pure",
					"type": "function"
				},
				{
					"inputs": [
						{
							"components": [
								{
									"internalType": "uint256",
									"name": "value",
									"type": "uint256"
								},
								{
									"internalType": "uint8",
									"name": "decimals",
									"type": "uint8"
								}
							],
							"internalType": "struct FixedPointValue",
							"name": "num0",
							"type": "tuple"
						},
						{
							"components": [
								{
									"internalType": "uint256",
									"name": "value",
									"type": "uint256"
								},
								{
									"internalType": "uint8",
									"name": "decimals",
									"type": "uint8"
								}
							],
							"internalType": "struct FixedPointValue",
							"name": "num1",
							"type": "tuple"
						}
					],
					"name": "scale",
					"outputs": [
						{
							"components": [
								{
									"internalType": "uint256",
									"name": "value",
									"type": "uint256"
								},
								{
									"internalType": "uint8",
									"name": "decimals",
									"type": "uint8"
								}
							],
							"internalType": "struct FixedPointValue",
							"name": "basisPoints",
							"type": "tuple"
						}
					],
					"stateMutability": "pure",
					"type": "function"
				},
				{
					"inputs": [
						{
							"components": [
								{
									"internalType": "uint256",
									"name": "value",
									"type": "uint256"
								},
								{
									"internalType": "uint8",
									"name": "decimals",
									"type": "uint8"
								}
							],
							"internalType": "struct FixedPointValue",
							"name": "num",
							"type": "tuple"
						},
						{
							"components": [
								{
									"internalType": "uint256",
									"name": "value",
									"type": "uint256"
								},
								{
									"internalType": "uint8",
									"name": "decimals",
									"type": "uint8"
								}
							],
							"internalType": "struct FixedPointValue",
							"name": "sliceBasisPoints",
							"type": "tuple"
						}
					],
					"name": "slice",
					"outputs": [
						{
							"components": [
								{
									"internalType": "uint256",
									"name": "value",
									"type": "uint256"
								},
								{
									"internalType": "uint8",
									"name": "decimals",
									"type": "uint8"
								}
							],
							"internalType": "struct FixedPointValue",
							"name": "",
							"type": "tuple"
						}
					],
					"stateMutability": "pure",
					"type": "function"
				},
				{
					"inputs": [
						{
							"components": [
								{
									"internalType": "uint256",
									"name": "value",
									"type": "uint256"
								},
								{
									"internalType": "uint8",
									"name": "decimals",
									"type": "uint8"
								}
							],
							"internalType": "struct FixedPointValue",
							"name": "num0",
							"type": "tuple"
						},
						{
							"components": [
								{
									"internalType": "uint256",
									"name": "value",
									"type": "uint256"
								},
								{
									"internalType": "uint8",
									"name": "decimals",
									"type": "uint8"
								}
							],
							"internalType": "struct FixedPointValue",
							"name": "num1",
							"type": "tuple"
						}
					],
					"name": "sub",
					"outputs": [
						{
							"components": [
								{
									"internalType": "uint256",
									"name": "value",
									"type": "uint256"
								},
								{
									"internalType": "uint8",
									"name": "decimals",
									"type": "uint8"
								}
							],
							"internalType": "struct FixedPointValue",
							"name": "",
							"type": "tuple"
						}
					],
					"stateMutability": "pure",
					"type": "function"
				}
			],
			"devdoc": {
				"kind": "dev",
				"methods": {},
				"version": 1
			},
			"evm": {
				"assembly": "    /* \"code/contract/sol/native/utils/math/FixedPointMath.sol\":1212:6008  contract FixedPointMath {... */\n  mstore(0x40, 0x80)\n  callvalue\n  dup1\n  iszero\n  tag_1\n  jumpi\n  0x00\n  dup1\n  revert\ntag_1:\n  pop\n  dataSize(sub_0)\n  dup1\n  dataOffset(sub_0)\n  0x00\n  codecopy\n  0x00\n  return\nstop\n\nsub_0: assembly {\n        /* \"code/contract/sol/native/utils/math/FixedPointMath.sol\":1212:6008  contract FixedPointMath {... */\n      mstore(0x40, 0x80)\n      callvalue\n      dup1\n      iszero\n      tag_1\n      jumpi\n      0x00\n      dup1\n      revert\n    tag_1:\n      pop\n      jumpi(tag_2, lt(calldatasize, 0x04))\n      shr(0xe0, calldataload(0x00))\n      dup1\n      0x7d02ebf4\n      gt\n      tag_11\n      jumpi\n      dup1\n      0x7d02ebf4\n      eq\n      tag_7\n      jumpi\n      dup1\n      0x8444b813\n      eq\n      tag_8\n      jumpi\n      dup1\n      0xa7e7c9f9\n      eq\n      tag_9\n      jumpi\n      dup1\n      0xe51356e8\n      eq\n      tag_10\n      jumpi\n      jump(tag_2)\n    tag_11:\n      dup1\n      0x2833d1f0\n      eq\n      tag_3\n      jumpi\n      dup1\n      0x3e60d8e0\n      eq\n      tag_4\n      jumpi\n      dup1\n      0x4b602c6d\n      eq\n      tag_5\n      jumpi\n      dup1\n      0x58633635\n      eq\n      tag_6\n      jumpi\n    tag_2:\n      0x00\n      dup1\n      revert\n        /* \"code/contract/sol/native/utils/math/FixedPointMath.sol\":3300:3758  function sub(FixedPointValue memory num0, FixedPointValue memory num1) public pure onlyMatchingFixedPointValueType(num0, num1) returns (FixedPointValue memory) {... */\n    tag_3:\n      tag_12\n      0x04\n      dup1\n      calldatasize\n      sub\n      dup2\n      add\n      swap1\n      tag_13\n      swap2\n      swap1\n      tag_14\n      jump\t// in\n    tag_13:\n      tag_15\n      jump\t// in\n    tag_12:\n      mload(0x40)\n      tag_16\n      swap2\n      swap1\n      tag_17\n      jump\t// in\n    tag_16:\n      mload(0x40)\n      dup1\n      swap2\n      sub\n      swap1\n      return\n        /* \"code/contract/sol/native/utils/math/FixedPointMath.sol\":5616:6006  function asEther(FixedPointValue memory num) public pure returns (FixedPointValue memory) {... */\n    tag_4:\n      tag_18\n      0x04\n      dup1\n      calldatasize\n      sub\n      dup2\n      add\n      swap1\n      tag_19\n      swap2\n      swap1\n      tag_20\n      jump\t// in\n    tag_19:\n      tag_21\n      jump\t// in\n    tag_18:\n      mload(0x40)\n      tag_22\n      swap2\n      swap1\n      tag_17\n      jump\t// in\n    tag_22:\n      mload(0x40)\n      dup1\n      swap2\n      sub\n      swap1\n      return\n        /* \"code/contract/sol/native/utils/math/FixedPointMath.sol\":2242:2830  function slice(FixedPointValue memory num, FixedPointValue memory sliceBasisPoints) public pure onlyMatchingFixedPointValueType(num, sliceBasisPoints) returns (FixedPointValue memory) {... */\n    tag_5:\n      tag_23\n      0x04\n      dup1\n      calldatasize\n      sub\n      dup2\n      add\n      swap1\n      tag_24\n      swap2\n      swap1\n      tag_14\n      jump\t// in\n    tag_24:\n      tag_25\n      jump\t// in\n    tag_23:\n      mload(0x40)\n      tag_26\n      swap2\n      swap1\n      tag_17\n      jump\t// in\n    tag_26:\n      mload(0x40)\n      dup1\n      swap2\n      sub\n      swap1\n      return\n        /* \"code/contract/sol/native/utils/math/FixedPointMath.sol\":2836:3294  function add(FixedPointValue memory num0, FixedPointValue memory num1) public pure onlyMatchingFixedPointValueType(num0, num1) returns (FixedPointValue memory) {... */\n    tag_6:\n      tag_27\n      0x04\n      dup1\n      calldatasize\n      sub\n      dup2\n      add\n      swap1\n      tag_28\n      swap2\n      swap1\n      tag_14\n      jump\t// in\n    tag_28:\n      tag_29\n      jump\t// in\n    tag_27:\n      mload(0x40)\n      tag_30\n      swap2\n      swap1\n      tag_17\n      jump\t// in\n    tag_30:\n      mload(0x40)\n      dup1\n      swap2\n      sub\n      swap1\n      return\n        /* \"code/contract/sol/native/utils/math/FixedPointMath.sol\":5028:5610  function asNewDecimals(FixedPointValue memory num, uint8 decimals) public pure returns (FixedPointValue memory) {... */\n    tag_7:\n      tag_31\n      0x04\n      dup1\n      calldatasize\n      sub\n      dup2\n      add\n      swap1\n      tag_32\n      swap2\n      swap1\n      tag_33\n      jump\t// in\n    tag_32:\n      tag_34\n      jump\t// in\n    tag_31:\n      mload(0x40)\n      tag_35\n      swap2\n      swap1\n      tag_17\n      jump\t// in\n    tag_35:\n      mload(0x40)\n      dup1\n      swap2\n      sub\n      swap1\n      return\n        /* \"code/contract/sol/native/utils/math/FixedPointMath.sol\":4471:5022  function div(FixedPointValue memory num0, FixedPointValue memory num1) public pure onlyMatchingFixedPointValueType(num0, num1) returns (FixedPointValue memory) {... */\n    tag_8:\n      tag_36\n      0x04\n      dup1\n      calldatasize\n      sub\n      dup2\n      add\n      swap1\n      tag_37\n      swap2\n      swap1\n      tag_14\n      jump\t// in\n    tag_37:\n      tag_38\n      jump\t// in\n    tag_36:\n      mload(0x40)\n      tag_39\n      swap2\n      swap1\n      tag_17\n      jump\t// in\n    tag_39:\n      mload(0x40)\n      dup1\n      swap2\n      sub\n      swap1\n      return\n        /* \"code/contract/sol/native/utils/math/FixedPointMath.sol\":3764:4465  function mul(FixedPointValue memory num0, FixedPointValue memory num1) public pure onlyMatchingFixedPointValueType(num0, num1) returns (FixedPointValue memory) {... */\n    tag_9:\n      tag_40\n      0x04\n      dup1\n      calldatasize\n      sub\n      dup2\n      add\n      swap1\n      tag_41\n      swap2\n      swap1\n      tag_14\n      jump\t// in\n    tag_41:\n      tag_42\n      jump\t// in\n    tag_40:\n      mload(0x40)\n      tag_43\n      swap2\n      swap1\n      tag_17\n      jump\t// in\n    tag_43:\n      mload(0x40)\n      dup1\n      swap2\n      sub\n      swap1\n      return\n        /* \"code/contract/sol/native/utils/math/FixedPointMath.sol\":1668:2236  function scale(FixedPointValue memory num0, FixedPointValue memory num1) public pure onlyMatchingFixedPointValueType(num0, num1) returns (FixedPointValue memory basisPoints) {... */\n    tag_10:\n      tag_44\n      0x04\n      dup1\n      calldatasize\n      sub\n      dup2\n      add\n      swap1\n      tag_45\n      swap2\n      swap1\n      tag_14\n      jump\t// in\n    tag_45:\n      tag_46\n      jump\t// in\n    tag_44:\n      mload(0x40)\n      tag_47\n      swap2\n      swap1\n      tag_17\n      jump\t// in\n    tag_47:\n      mload(0x40)\n      dup1\n      swap2\n      sub\n      swap1\n      return\n        /* \"code/contract/sol/native/utils/math/FixedPointMath.sol\":3300:3758  function sub(FixedPointValue memory num0, FixedPointValue memory num1) public pure onlyMatchingFixedPointValueType(num0, num1) returns (FixedPointValue memory) {... */\n    tag_15:\n        /* \"code/contract/sol/native/utils/math/FixedPointMath.sol\":3436:3458  FixedPointValue memory */\n      tag_48\n      tag_49\n      jump\t// in\n    tag_48:\n        /* \"code/contract/sol/native/utils/math/FixedPointMath.sol\":3415:3419  num0 */\n      dup3\n        /* \"code/contract/sol/native/utils/math/FixedPointMath.sol\":3421:3425  num1 */\n      dup3\n        /* \"code/contract/sol/native/utils/math/FixedPointMath.sol\":1447:1462  uint8 decimals0 */\n      0x00\n        /* \"code/contract/sol/native/utils/math/FixedPointMath.sol\":1472:1487  uint8 decimals1 */\n      dup1\n        /* \"code/contract/sol/native/utils/math/FixedPointMath.sol\":1509:1513  num0 */\n      dup4\n        /* \"code/contract/sol/native/utils/math/FixedPointMath.sol\":1509:1522  num0.decimals */\n      0x20\n      add\n      mload\n        /* \"code/contract/sol/native/utils/math/FixedPointMath.sol\":1497:1522  decimals0 = num0.decimals */\n      swap2\n      pop\n        /* \"code/contract/sol/native/utils/math/FixedPointMath.sol\":1544:1548  num1 */\n      dup3\n        /* \"code/contract/sol/native/utils/math/FixedPointMath.sol\":1544:1557  num1.decimals */\n      0x20\n      add\n      mload\n        /* \"code/contract/sol/native/utils/math/FixedPointMath.sol\":1532:1557  decimals1 = num1.decimals */\n      swap1\n      pop\n        /* \"code/contract/sol/native/utils/math/FixedPointMath.sol\":1584:1593  decimals1 */\n      dup1\n        /* \"code/contract/sol/native/utils/math/FixedPointMath.sol\":1571:1593  decimals0 != decimals1 */\n      0xff\n      and\n        /* \"code/contract/sol/native/utils/math/FixedPointMath.sol\":1571:1580  decimals0 */\n      dup3\n        /* \"code/contract/sol/native/utils/math/FixedPointMath.sol\":1571:1593  decimals0 != decimals1 */\n      0xff\n      and\n      eq\n        /* \"code/contract/sol/native/utils/math/FixedPointMath.sol\":1567:1644  if (decimals0 != decimals1) revert IncompatibleDecimals(decimals0, decimals1) */\n      tag_51\n      jumpi\n        /* \"code/contract/sol/native/utils/math/FixedPointMath.sol\":1623:1632  decimals0 */\n      dup2\n        /* \"code/contract/sol/native/utils/math/FixedPointMath.sol\":1634:1643  decimals1 */\n      dup2\n        /* \"code/contract/sol/native/utils/math/FixedPointMath.sol\":1602:1644  IncompatibleDecimals(decimals0, decimals1) */\n      mload(0x40)\n      0x5bc4748600000000000000000000000000000000000000000000000000000000\n      dup2\n      mstore\n      0x04\n      add\n      tag_52\n      swap3\n      swap2\n      swap1\n      tag_53\n      jump\t// in\n    tag_52:\n      mload(0x40)\n      dup1\n      swap2\n      sub\n      swap1\n      revert\n        /* \"code/contract/sol/native/utils/math/FixedPointMath.sol\":1567:1644  if (decimals0 != decimals1) revert IncompatibleDecimals(decimals0, decimals1) */\n    tag_51:\n        /* \"code/contract/sol/native/utils/math/FixedPointMath.sol\":3470:3484  uint8 decimals */\n      0x00\n        /* \"code/contract/sol/native/utils/math/FixedPointMath.sol\":3494:3508  uint256 value0 */\n      dup1\n        /* \"code/contract/sol/native/utils/math/FixedPointMath.sol\":3518:3532  uint256 value1 */\n      0x00\n        /* \"code/contract/sol/native/utils/math/FixedPointMath.sol\":3542:3556  uint256 result */\n      dup1\n        /* \"code/contract/sol/native/utils/math/FixedPointMath.sol\":3577:3581  num0 */\n      dup11\n        /* \"code/contract/sol/native/utils/math/FixedPointMath.sol\":3577:3590  num0.decimals */\n      0x20\n      add\n      mload\n        /* \"code/contract/sol/native/utils/math/FixedPointMath.sol\":3566:3590  decimals = num0.decimals */\n      swap4\n      pop\n        /* \"code/contract/sol/native/utils/math/FixedPointMath.sol\":3609:3613  num0 */\n      dup11\n        /* \"code/contract/sol/native/utils/math/FixedPointMath.sol\":3609:3619  num0.value */\n      0x00\n      add\n      mload\n        /* \"code/contract/sol/native/utils/math/FixedPointMath.sol\":3600:3619  value0 = num0.value */\n      swap3\n      pop\n        /* \"code/contract/sol/native/utils/math/FixedPointMath.sol\":3638:3642  num1 */\n      dup10\n        /* \"code/contract/sol/native/utils/math/FixedPointMath.sol\":3638:3648  num1.value */\n      0x00\n      add\n      mload\n        /* \"code/contract/sol/native/utils/math/FixedPointMath.sol\":3629:3648  value1 = num1.value */\n      swap2\n      pop\n        /* \"code/contract/sol/native/utils/math/FixedPointMath.sol\":3676:3682  value1 */\n      dup2\n        /* \"code/contract/sol/native/utils/math/FixedPointMath.sol\":3667:3673  value0 */\n      dup4\n        /* \"code/contract/sol/native/utils/math/FixedPointMath.sol\":3667:3682  value0 - value1 */\n      tag_55\n      swap2\n      swap1\n      tag_56\n      jump\t// in\n    tag_55:\n        /* \"code/contract/sol/native/utils/math/FixedPointMath.sol\":3658:3682  result = value0 - value1 */\n      swap1\n      pop\n        /* \"code/contract/sol/native/utils/math/FixedPointMath.sol\":3699:3751  FixedPointValue({value: result, decimals: decimals}) */\n      mload(0x40)\n      dup1\n      0x40\n      add\n      0x40\n      mstore\n      dup1\n        /* \"code/contract/sol/native/utils/math/FixedPointMath.sol\":3723:3729  result */\n      dup3\n        /* \"code/contract/sol/native/utils/math/FixedPointMath.sol\":3699:3751  FixedPointValue({value: result, decimals: decimals}) */\n      dup2\n      mstore\n      0x20\n      add\n        /* \"code/contract/sol/native/utils/math/FixedPointMath.sol\":3741:3749  decimals */\n      dup6\n        /* \"code/contract/sol/native/utils/math/FixedPointMath.sol\":3699:3751  FixedPointValue({value: result, decimals: decimals}) */\n      0xff\n      and\n      dup2\n      mstore\n      pop\n        /* \"code/contract/sol/native/utils/math/FixedPointMath.sol\":3692:3751  return FixedPointValue({value: result, decimals: decimals}) */\n      swap9\n      pop\n      pop\n      pop\n      pop\n      pop\n        /* \"code/contract/sol/native/utils/math/FixedPointMath.sol\":1437:1662  {... */\n      pop\n      pop\n        /* \"code/contract/sol/native/utils/math/FixedPointMath.sol\":3300:3758  function sub(FixedPointValue memory num0, FixedPointValue memory num1) public pure onlyMatchingFixedPointValueType(num0, num1) returns (FixedPointValue memory) {... */\n      pop\n      pop\n      swap3\n      swap2\n      pop\n      pop\n      jump\t// out\n        /* \"code/contract/sol/native/utils/math/FixedPointMath.sol\":5616:6006  function asEther(FixedPointValue memory num) public pure returns (FixedPointValue memory) {... */\n    tag_21:\n        /* \"code/contract/sol/native/utils/math/FixedPointMath.sol\":5682:5704  FixedPointValue memory */\n      tag_57\n      tag_49\n      jump\t// in\n    tag_57:\n        /* \"code/contract/sol/native/utils/math/FixedPointMath.sol\":5716:5737  uint8 currentDecimals */\n      0x00\n        /* \"code/contract/sol/native/utils/math/FixedPointMath.sol\":5747:5760  uint256 value */\n      dup1\n        /* \"code/contract/sol/native/utils/math/FixedPointMath.sol\":5770:5784  uint256 result */\n      0x00\n        /* \"code/contract/sol/native/utils/math/FixedPointMath.sol\":5812:5815  num */\n      dup5\n        /* \"code/contract/sol/native/utils/math/FixedPointMath.sol\":5812:5824  num.decimals */\n      0x20\n      add\n      mload\n        /* \"code/contract/sol/native/utils/math/FixedPointMath.sol\":5794:5824  currentDecimals = num.decimals */\n      swap3\n      pop\n        /* \"code/contract/sol/native/utils/math/FixedPointMath.sol\":5842:5845  num */\n      dup5\n        /* \"code/contract/sol/native/utils/math/FixedPointMath.sol\":5842:5851  num.value */\n      0x00\n      add\n      mload\n        /* \"code/contract/sol/native/utils/math/FixedPointMath.sol\":5834:5851  value = num.value */\n      swap2\n      pop\n        /* \"code/contract/sol/native/utils/math/FixedPointMath.sol\":5929:5935  10**18 */\n      0x0de0b6b3a7640000\n        /* \"code/contract/sol/native/utils/math/FixedPointMath.sol\":5917:5923  10**18 */\n      dup1\n        /* \"code/contract/sol/native/utils/math/FixedPointMath.sol\":5896:5911  currentDecimals */\n      dup5\n        /* \"code/contract/sol/native/utils/math/FixedPointMath.sol\":5892:5894  10 */\n      0x0a\n        /* \"code/contract/sol/native/utils/math/FixedPointMath.sol\":5892:5911  10**currentDecimals */\n      tag_59\n      swap2\n      swap1\n      tag_60\n      jump\t// in\n    tag_59:\n        /* \"code/contract/sol/native/utils/math/FixedPointMath.sol\":5881:5887  10**18 */\n      0x0de0b6b3a7640000\n        /* \"code/contract/sol/native/utils/math/FixedPointMath.sol\":5872:5877  value */\n      dup6\n        /* \"code/contract/sol/native/utils/math/FixedPointMath.sol\":5872:5888  value * (10**18) */\n      tag_61\n      swap2\n      swap1\n      tag_62\n      jump\t// in\n    tag_61:\n        /* \"code/contract/sol/native/utils/math/FixedPointMath.sol\":5872:5912  value * (10**18) / (10**currentDecimals) */\n      tag_63\n      swap2\n      swap1\n      tag_64\n      jump\t// in\n    tag_63:\n        /* \"code/contract/sol/native/utils/math/FixedPointMath.sol\":5871:5924  (value * (10**18) / (10**currentDecimals)) * (10**18) */\n      tag_65\n      swap2\n      swap1\n      tag_62\n      jump\t// in\n    tag_65:\n        /* \"code/contract/sol/native/utils/math/FixedPointMath.sol\":5870:5936  ((value * (10**18) / (10**currentDecimals)) * (10**18)) / (10**18) */\n      tag_66\n      swap2\n      swap1\n      tag_64\n      jump\t// in\n    tag_66:\n        /* \"code/contract/sol/native/utils/math/FixedPointMath.sol\":5861:5936  result = ((value * (10**18) / (10**currentDecimals)) * (10**18)) / (10**18) */\n      swap1\n      pop\n        /* \"code/contract/sol/native/utils/math/FixedPointMath.sol\":5953:5999  FixedPointValue({value: result, decimals: 18}) */\n      mload(0x40)\n      dup1\n      0x40\n      add\n      0x40\n      mstore\n      dup1\n        /* \"code/contract/sol/native/utils/math/FixedPointMath.sol\":5977:5983  result */\n      dup3\n        /* \"code/contract/sol/native/utils/math/FixedPointMath.sol\":5953:5999  FixedPointValue({value: result, decimals: 18}) */\n      dup2\n      mstore\n      0x20\n      add\n        /* \"code/contract/sol/native/utils/math/FixedPointMath.sol\":5995:5997  18 */\n      0x12\n        /* \"code/contract/sol/native/utils/math/FixedPointMath.sol\":5953:5999  FixedPointValue({value: result, decimals: 18}) */\n      0xff\n      and\n      dup2\n      mstore\n      pop\n        /* \"code/contract/sol/native/utils/math/FixedPointMath.sol\":5946:5999  return FixedPointValue({value: result, decimals: 18}) */\n      swap4\n      pop\n      pop\n      pop\n      pop\n        /* \"code/contract/sol/native/utils/math/FixedPointMath.sol\":5616:6006  function asEther(FixedPointValue memory num) public pure returns (FixedPointValue memory) {... */\n      swap2\n      swap1\n      pop\n      jump\t// out\n        /* \"code/contract/sol/native/utils/math/FixedPointMath.sol\":2242:2830  function slice(FixedPointValue memory num, FixedPointValue memory sliceBasisPoints) public pure onlyMatchingFixedPointValueType(num, sliceBasisPoints) returns (FixedPointValue memory) {... */\n    tag_25:\n        /* \"code/contract/sol/native/utils/math/FixedPointMath.sol\":2402:2424  FixedPointValue memory */\n      tag_67\n      tag_49\n      jump\t// in\n    tag_67:\n        /* \"code/contract/sol/native/utils/math/FixedPointMath.sol\":2370:2373  num */\n      dup3\n        /* \"code/contract/sol/native/utils/math/FixedPointMath.sol\":2375:2391  sliceBasisPoints */\n      dup3\n        /* \"code/contract/sol/native/utils/math/FixedPointMath.sol\":1447:1462  uint8 decimals0 */\n      0x00\n        /* \"code/contract/sol/native/utils/math/FixedPointMath.sol\":1472:1487  uint8 decimals1 */\n      dup1\n        /* \"code/contract/sol/native/utils/math/FixedPointMath.sol\":1509:1513  num0 */\n      dup4\n        /* \"code/contract/sol/native/utils/math/FixedPointMath.sol\":1509:1522  num0.decimals */\n      0x20\n      add\n      mload\n        /* \"code/contract/sol/native/utils/math/FixedPointMath.sol\":1497:1522  decimals0 = num0.decimals */\n      swap2\n      pop\n        /* \"code/contract/sol/native/utils/math/FixedPointMath.sol\":1544:1548  num1 */\n      dup3\n        /* \"code/contract/sol/native/utils/math/FixedPointMath.sol\":1544:1557  num1.decimals */\n      0x20\n      add\n      mload\n        /* \"code/contract/sol/native/utils/math/FixedPointMath.sol\":1532:1557  decimals1 = num1.decimals */\n      swap1\n      pop\n        /* \"code/contract/sol/native/utils/math/FixedPointMath.sol\":1584:1593  decimals1 */\n      dup1\n        /* \"code/contract/sol/native/utils/math/FixedPointMath.sol\":1571:1593  decimals0 != decimals1 */\n      0xff\n      and\n        /* \"code/contract/sol/native/utils/math/FixedPointMath.sol\":1571:1580  decimals0 */\n      dup3\n        /* \"code/contract/sol/native/utils/math/FixedPointMath.sol\":1571:1593  decimals0 != decimals1 */\n      0xff\n      and\n      eq\n        /* \"code/contract/sol/native/utils/math/FixedPointMath.sol\":1567:1644  if (decimals0 != decimals1) revert IncompatibleDecimals(decimals0, decimals1) */\n      tag_69\n      jumpi\n        /* \"code/contract/sol/native/utils/math/FixedPointMath.sol\":1623:1632  decimals0 */\n      dup2\n        /* \"code/contract/sol/native/utils/math/FixedPointMath.sol\":1634:1643  decimals1 */\n      dup2\n        /* \"code/contract/sol/native/utils/math/FixedPointMath.sol\":1602:1644  IncompatibleDecimals(decimals0, decimals1) */\n      mload(0x40)\n      0x5bc4748600000000000000000000000000000000000000000000000000000000\n      dup2\n      mstore\n      0x04\n      add\n      tag_70\n      swap3\n      swap2\n      swap1\n      tag_53\n      jump\t// in\n    tag_70:\n      mload(0x40)\n      dup1\n      swap2\n      sub\n      swap1\n      revert\n        /* \"code/contract/sol/native/utils/math/FixedPointMath.sol\":1567:1644  if (decimals0 != decimals1) revert IncompatibleDecimals(decimals0, decimals1) */\n    tag_69:\n        /* \"code/contract/sol/native/utils/math/FixedPointMath.sol\":2436:2450  uint8 decimals */\n      0x00\n        /* \"code/contract/sol/native/utils/math/FixedPointMath.sol\":2460:2482  uint256 representation */\n      dup1\n        /* \"code/contract/sol/native/utils/math/FixedPointMath.sol\":2492:2521  FixedPointValue memory result */\n      tag_72\n      tag_49\n      jump\t// in\n    tag_72:\n        /* \"code/contract/sol/native/utils/math/FixedPointMath.sol\":2531:2559  FixedPointValue memory scale */\n      tag_73\n      tag_49\n      jump\t// in\n    tag_73:\n        /* \"code/contract/sol/native/utils/math/FixedPointMath.sol\":2580:2583  num */\n      dup11\n        /* \"code/contract/sol/native/utils/math/FixedPointMath.sol\":2580:2592  num.decimals */\n      0x20\n      add\n      mload\n        /* \"code/contract/sol/native/utils/math/FixedPointMath.sol\":2569:2592  decimals = num.decimals */\n      swap4\n      pop\n        /* \"code/contract/sol/native/utils/math/FixedPointMath.sol\":2623:2631  decimals */\n      dup4\n        /* \"code/contract/sol/native/utils/math/FixedPointMath.sol\":2619:2621  10 */\n      0x0a\n        /* \"code/contract/sol/native/utils/math/FixedPointMath.sol\":2619:2631  10**decimals */\n      tag_74\n      swap2\n      swap1\n      tag_60\n      jump\t// in\n    tag_74:\n        /* \"code/contract/sol/native/utils/math/FixedPointMath.sol\":2602:2631  representation = 10**decimals */\n      swap3\n      pop\n        /* \"code/contract/sol/native/utils/math/FixedPointMath.sol\":2649:2718  FixedPointValue({value: 10_000 * representation, decimals: decimals}) */\n      mload(0x40)\n      dup1\n      0x40\n      add\n      0x40\n      mstore\n      dup1\n        /* \"code/contract/sol/native/utils/math/FixedPointMath.sol\":2682:2696  representation */\n      dup5\n        /* \"code/contract/sol/native/utils/math/FixedPointMath.sol\":2673:2679  10_000 */\n      0x2710\n        /* \"code/contract/sol/native/utils/math/FixedPointMath.sol\":2673:2696  10_000 * representation */\n      tag_75\n      swap2\n      swap1\n      tag_62\n      jump\t// in\n    tag_75:\n        /* \"code/contract/sol/native/utils/math/FixedPointMath.sol\":2649:2718  FixedPointValue({value: 10_000 * representation, decimals: decimals}) */\n      dup2\n      mstore\n      0x20\n      add\n        /* \"code/contract/sol/native/utils/math/FixedPointMath.sol\":2708:2716  decimals */\n      dup6\n        /* \"code/contract/sol/native/utils/math/FixedPointMath.sol\":2649:2718  FixedPointValue({value: 10_000 * representation, decimals: decimals}) */\n      0xff\n      and\n      dup2\n      mstore\n      pop\n        /* \"code/contract/sol/native/utils/math/FixedPointMath.sol\":2641:2718  scale = FixedPointValue({value: 10_000 * representation, decimals: decimals}) */\n      swap1\n      pop\n        /* \"code/contract/sol/native/utils/math/FixedPointMath.sol\":2737:2752  div(num, scale) */\n      tag_76\n        /* \"code/contract/sol/native/utils/math/FixedPointMath.sol\":2741:2744  num */\n      dup12\n        /* \"code/contract/sol/native/utils/math/FixedPointMath.sol\":2746:2751  scale */\n      dup3\n        /* \"code/contract/sol/native/utils/math/FixedPointMath.sol\":2737:2740  div */\n      tag_38\n        /* \"code/contract/sol/native/utils/math/FixedPointMath.sol\":2737:2752  div(num, scale) */\n      jump\t// in\n    tag_76:\n        /* \"code/contract/sol/native/utils/math/FixedPointMath.sol\":2728:2752  result = div(num, scale) */\n      swap2\n      pop\n        /* \"code/contract/sol/native/utils/math/FixedPointMath.sol\":2771:2800  mul(result, sliceBasisPoints) */\n      tag_77\n        /* \"code/contract/sol/native/utils/math/FixedPointMath.sol\":2775:2781  result */\n      dup3\n        /* \"code/contract/sol/native/utils/math/FixedPointMath.sol\":2783:2799  sliceBasisPoints */\n      dup12\n        /* \"code/contract/sol/native/utils/math/FixedPointMath.sol\":2771:2774  mul */\n      tag_42\n        /* \"code/contract/sol/native/utils/math/FixedPointMath.sol\":2771:2800  mul(result, sliceBasisPoints) */\n      jump\t// in\n    tag_77:\n        /* \"code/contract/sol/native/utils/math/FixedPointMath.sol\":2762:2800  result = mul(result, sliceBasisPoints) */\n      swap2\n      pop\n        /* \"code/contract/sol/native/utils/math/FixedPointMath.sol\":2817:2823  result */\n      dup2\n        /* \"code/contract/sol/native/utils/math/FixedPointMath.sol\":2810:2823  return result */\n      swap9\n      pop\n      pop\n      pop\n      pop\n      pop\n        /* \"code/contract/sol/native/utils/math/FixedPointMath.sol\":1437:1662  {... */\n      pop\n      pop\n        /* \"code/contract/sol/native/utils/math/FixedPointMath.sol\":2242:2830  function slice(FixedPointValue memory num, FixedPointValue memory sliceBasisPoints) public pure onlyMatchingFixedPointValueType(num, sliceBasisPoints) returns (FixedPointValue memory) {... */\n      pop\n      pop\n      swap3\n      swap2\n      pop\n      pop\n      jump\t// out\n        /* \"code/contract/sol/native/utils/math/FixedPointMath.sol\":2836:3294  function add(FixedPointValue memory num0, FixedPointValue memory num1) public pure onlyMatchingFixedPointValueType(num0, num1) returns (FixedPointValue memory) {... */\n    tag_29:\n        /* \"code/contract/sol/native/utils/math/FixedPointMath.sol\":2972:2994  FixedPointValue memory */\n      tag_78\n      tag_49\n      jump\t// in\n    tag_78:\n        /* \"code/contract/sol/native/utils/math/FixedPointMath.sol\":2951:2955  num0 */\n      dup3\n        /* \"code/contract/sol/native/utils/math/FixedPointMath.sol\":2957:2961  num1 */\n      dup3\n        /* \"code/contract/sol/native/utils/math/FixedPointMath.sol\":1447:1462  uint8 decimals0 */\n      0x00\n        /* \"code/contract/sol/native/utils/math/FixedPointMath.sol\":1472:1487  uint8 decimals1 */\n      dup1\n        /* \"code/contract/sol/native/utils/math/FixedPointMath.sol\":1509:1513  num0 */\n      dup4\n        /* \"code/contract/sol/native/utils/math/FixedPointMath.sol\":1509:1522  num0.decimals */\n      0x20\n      add\n      mload\n        /* \"code/contract/sol/native/utils/math/FixedPointMath.sol\":1497:1522  decimals0 = num0.decimals */\n      swap2\n      pop\n        /* \"code/contract/sol/native/utils/math/FixedPointMath.sol\":1544:1548  num1 */\n      dup3\n        /* \"code/contract/sol/native/utils/math/FixedPointMath.sol\":1544:1557  num1.decimals */\n      0x20\n      add\n      mload\n        /* \"code/contract/sol/native/utils/math/FixedPointMath.sol\":1532:1557  decimals1 = num1.decimals */\n      swap1\n      pop\n        /* \"code/contract/sol/native/utils/math/FixedPointMath.sol\":1584:1593  decimals1 */\n      dup1\n        /* \"code/contract/sol/native/utils/math/FixedPointMath.sol\":1571:1593  decimals0 != decimals1 */\n      0xff\n      and\n        /* \"code/contract/sol/native/utils/math/FixedPointMath.sol\":1571:1580  decimals0 */\n      dup3\n        /* \"code/contract/sol/native/utils/math/FixedPointMath.sol\":1571:1593  decimals0 != decimals1 */\n      0xff\n      and\n      eq\n        /* \"code/contract/sol/native/utils/math/FixedPointMath.sol\":1567:1644  if (decimals0 != decimals1) revert IncompatibleDecimals(decimals0, decimals1) */\n      tag_80\n      jumpi\n        /* \"code/contract/sol/native/utils/math/FixedPointMath.sol\":1623:1632  decimals0 */\n      dup2\n        /* \"code/contract/sol/native/utils/math/FixedPointMath.sol\":1634:1643  decimals1 */\n      dup2\n        /* \"code/contract/sol/native/utils/math/FixedPointMath.sol\":1602:1644  IncompatibleDecimals(decimals0, decimals1) */\n      mload(0x40)\n      0x5bc4748600000000000000000000000000000000000000000000000000000000\n      dup2\n      mstore\n      0x04\n      add\n      tag_81\n      swap3\n      swap2\n      swap1\n      tag_53\n      jump\t// in\n    tag_81:\n      mload(0x40)\n      dup1\n      swap2\n      sub\n      swap1\n      revert\n        /* \"code/contract/sol/native/utils/math/FixedPointMath.sol\":1567:1644  if (decimals0 != decimals1) revert IncompatibleDecimals(decimals0, decimals1) */\n    tag_80:\n        /* \"code/contract/sol/native/utils/math/FixedPointMath.sol\":3006:3020  uint8 decimals */\n      0x00\n        /* \"code/contract/sol/native/utils/math/FixedPointMath.sol\":3030:3044  uint256 value0 */\n      dup1\n        /* \"code/contract/sol/native/utils/math/FixedPointMath.sol\":3054:3068  uint256 value1 */\n      0x00\n        /* \"code/contract/sol/native/utils/math/FixedPointMath.sol\":3078:3092  uint256 result */\n      dup1\n        /* \"code/contract/sol/native/utils/math/FixedPointMath.sol\":3113:3117  num0 */\n      dup11\n        /* \"code/contract/sol/native/utils/math/FixedPointMath.sol\":3113:3126  num0.decimals */\n      0x20\n      add\n      mload\n        /* \"code/contract/sol/native/utils/math/FixedPointMath.sol\":3102:3126  decimals = num0.decimals */\n      swap4\n      pop\n        /* \"code/contract/sol/native/utils/math/FixedPointMath.sol\":3145:3149  num0 */\n      dup11\n        /* \"code/contract/sol/native/utils/math/FixedPointMath.sol\":3145:3155  num0.value */\n      0x00\n      add\n      mload\n        /* \"code/contract/sol/native/utils/math/FixedPointMath.sol\":3136:3155  value0 = num0.value */\n      swap3\n      pop\n        /* \"code/contract/sol/native/utils/math/FixedPointMath.sol\":3174:3178  num1 */\n      dup10\n        /* \"code/contract/sol/native/utils/math/FixedPointMath.sol\":3174:3184  num1.value */\n      0x00\n      add\n      mload\n        /* \"code/contract/sol/native/utils/math/FixedPointMath.sol\":3165:3184  value1 = num1.value */\n      swap2\n      pop\n        /* \"code/contract/sol/native/utils/math/FixedPointMath.sol\":3212:3218  value1 */\n      dup2\n        /* \"code/contract/sol/native/utils/math/FixedPointMath.sol\":3203:3209  value0 */\n      dup4\n        /* \"code/contract/sol/native/utils/math/FixedPointMath.sol\":3203:3218  value0 + value1 */\n      tag_83\n      swap2\n      swap1\n      tag_84\n      jump\t// in\n    tag_83:\n        /* \"code/contract/sol/native/utils/math/FixedPointMath.sol\":3194:3218  result = value0 + value1 */\n      swap1\n      pop\n        /* \"code/contract/sol/native/utils/math/FixedPointMath.sol\":3235:3287  FixedPointValue({value: result, decimals: decimals}) */\n      mload(0x40)\n      dup1\n      0x40\n      add\n      0x40\n      mstore\n      dup1\n        /* \"code/contract/sol/native/utils/math/FixedPointMath.sol\":3259:3265  result */\n      dup3\n        /* \"code/contract/sol/native/utils/math/FixedPointMath.sol\":3235:3287  FixedPointValue({value: result, decimals: decimals}) */\n      dup2\n      mstore\n      0x20\n      add\n        /* \"code/contract/sol/native/utils/math/FixedPointMath.sol\":3277:3285  decimals */\n      dup6\n        /* \"code/contract/sol/native/utils/math/FixedPointMath.sol\":3235:3287  FixedPointValue({value: result, decimals: decimals}) */\n      0xff\n      and\n      dup2\n      mstore\n      pop\n        /* \"code/contract/sol/native/utils/math/FixedPointMath.sol\":3228:3287  return FixedPointValue({value: result, decimals: decimals}) */\n      swap9\n      pop\n      pop\n      pop\n      pop\n      pop\n        /* \"code/contract/sol/native/utils/math/FixedPointMath.sol\":1437:1662  {... */\n      pop\n      pop\n        /* \"code/contract/sol/native/utils/math/FixedPointMath.sol\":2836:3294  function add(FixedPointValue memory num0, FixedPointValue memory num1) public pure onlyMatchingFixedPointValueType(num0, num1) returns (FixedPointValue memory) {... */\n      pop\n      pop\n      swap3\n      swap2\n      pop\n      pop\n      jump\t// out\n        /* \"code/contract/sol/native/utils/math/FixedPointMath.sol\":5028:5610  function asNewDecimals(FixedPointValue memory num, uint8 decimals) public pure returns (FixedPointValue memory) {... */\n    tag_34:\n        /* \"code/contract/sol/native/utils/math/FixedPointMath.sol\":5116:5138  FixedPointValue memory */\n      tag_85\n      tag_49\n      jump\t// in\n    tag_85:\n        /* \"code/contract/sol/native/utils/math/FixedPointMath.sol\":5150:5171  uint8 currentDecimals */\n      0x00\n        /* \"code/contract/sol/native/utils/math/FixedPointMath.sol\":5181:5194  uint256 value */\n      dup1\n        /* \"code/contract/sol/native/utils/math/FixedPointMath.sol\":5204:5218  uint256 result */\n      0x00\n        /* \"code/contract/sol/native/utils/math/FixedPointMath.sol\":5246:5249  num */\n      dup6\n        /* \"code/contract/sol/native/utils/math/FixedPointMath.sol\":5246:5258  num.decimals */\n      0x20\n      add\n      mload\n        /* \"code/contract/sol/native/utils/math/FixedPointMath.sol\":5228:5258  currentDecimals = num.decimals */\n      swap3\n      pop\n        /* \"code/contract/sol/native/utils/math/FixedPointMath.sol\":5276:5279  num */\n      dup6\n        /* \"code/contract/sol/native/utils/math/FixedPointMath.sol\":5276:5285  num.value */\n      0x00\n      add\n      mload\n        /* \"code/contract/sol/native/utils/math/FixedPointMath.sol\":5268:5285  value = num.value */\n      swap2\n      pop\n        /* \"code/contract/sol/native/utils/math/FixedPointMath.sol\":5318:5320  18 */\n      0x12\n        /* \"code/contract/sol/native/utils/math/FixedPointMath.sol\":5299:5314  currentDecimals */\n      dup4\n        /* \"code/contract/sol/native/utils/math/FixedPointMath.sol\":5299:5320  currentDecimals != 18 */\n      0xff\n      and\n      eq\n        /* \"code/contract/sol/native/utils/math/FixedPointMath.sol\":5295:5457  if (currentDecimals != 18) {... */\n      tag_87\n      jumpi\n        /* \"code/contract/sol/native/utils/math/FixedPointMath.sol\":5336:5369  FixedPointValue memory numAsEther */\n      tag_88\n      tag_49\n      jump\t// in\n    tag_88:\n        /* \"code/contract/sol/native/utils/math/FixedPointMath.sol\":5396:5408  asEther(num) */\n      tag_89\n        /* \"code/contract/sol/native/utils/math/FixedPointMath.sol\":5404:5407  num */\n      dup8\n        /* \"code/contract/sol/native/utils/math/FixedPointMath.sol\":5396:5403  asEther */\n      tag_21\n        /* \"code/contract/sol/native/utils/math/FixedPointMath.sol\":5396:5408  asEther(num) */\n      jump\t// in\n    tag_89:\n        /* \"code/contract/sol/native/utils/math/FixedPointMath.sol\":5383:5408  numAsEther = asEther(num) */\n      swap1\n      pop\n        /* \"code/contract/sol/native/utils/math/FixedPointMath.sol\":5430:5440  numAsEther */\n      dup1\n        /* \"code/contract/sol/native/utils/math/FixedPointMath.sol\":5430:5446  numAsEther.value */\n      0x00\n      add\n      mload\n        /* \"code/contract/sol/native/utils/math/FixedPointMath.sol\":5422:5446  value = numAsEther.value */\n      swap3\n      pop\n        /* \"code/contract/sol/native/utils/math/FixedPointMath.sol\":5322:5457  {... */\n      pop\n        /* \"code/contract/sol/native/utils/math/FixedPointMath.sol\":5295:5457  if (currentDecimals != 18) {... */\n    tag_87:\n        /* \"code/contract/sol/native/utils/math/FixedPointMath.sol\":5527:5533  10**18 */\n      0x0de0b6b3a7640000\n        /* \"code/contract/sol/native/utils/math/FixedPointMath.sol\":5513:5521  decimals */\n      dup6\n        /* \"code/contract/sol/native/utils/math/FixedPointMath.sol\":5509:5511  10 */\n      0x0a\n        /* \"code/contract/sol/native/utils/math/FixedPointMath.sol\":5509:5521  10**decimals */\n      tag_90\n      swap2\n      swap1\n      tag_60\n      jump\t// in\n    tag_90:\n        /* \"code/contract/sol/native/utils/math/FixedPointMath.sol\":5497:5503  10**18 */\n      0x0de0b6b3a7640000\n        /* \"code/contract/sol/native/utils/math/FixedPointMath.sol\":5486:5492  10**18 */\n      dup1\n        /* \"code/contract/sol/native/utils/math/FixedPointMath.sol\":5477:5482  value */\n      dup6\n        /* \"code/contract/sol/native/utils/math/FixedPointMath.sol\":5477:5493  value * (10**18) */\n      tag_91\n      swap2\n      swap1\n      tag_62\n      jump\t// in\n    tag_91:\n        /* \"code/contract/sol/native/utils/math/FixedPointMath.sol\":5477:5504  value * (10**18) / (10**18) */\n      tag_92\n      swap2\n      swap1\n      tag_64\n      jump\t// in\n    tag_92:\n        /* \"code/contract/sol/native/utils/math/FixedPointMath.sol\":5476:5522  (value * (10**18) / (10**18)) * (10**decimals) */\n      tag_93\n      swap2\n      swap1\n      tag_62\n      jump\t// in\n    tag_93:\n        /* \"code/contract/sol/native/utils/math/FixedPointMath.sol\":5475:5534  ((value * (10**18) / (10**18)) * (10**decimals)) / (10**18) */\n      tag_94\n      swap2\n      swap1\n      tag_64\n      jump\t// in\n    tag_94:\n        /* \"code/contract/sol/native/utils/math/FixedPointMath.sol\":5466:5534  result = ((value * (10**18) / (10**18)) * (10**decimals)) / (10**18) */\n      swap1\n      pop\n        /* \"code/contract/sol/native/utils/math/FixedPointMath.sol\":5551:5603  FixedPointValue({value: result, decimals: decimals}) */\n      mload(0x40)\n      dup1\n      0x40\n      add\n      0x40\n      mstore\n      dup1\n        /* \"code/contract/sol/native/utils/math/FixedPointMath.sol\":5575:5581  result */\n      dup3\n        /* \"code/contract/sol/native/utils/math/FixedPointMath.sol\":5551:5603  FixedPointValue({value: result, decimals: decimals}) */\n      dup2\n      mstore\n      0x20\n      add\n        /* \"code/contract/sol/native/utils/math/FixedPointMath.sol\":5593:5601  decimals */\n      dup7\n        /* \"code/contract/sol/native/utils/math/FixedPointMath.sol\":5551:5603  FixedPointValue({value: result, decimals: decimals}) */\n      0xff\n      and\n      dup2\n      mstore\n      pop\n        /* \"code/contract/sol/native/utils/math/FixedPointMath.sol\":5544:5603  return FixedPointValue({value: result, decimals: decimals}) */\n      swap4\n      pop\n      pop\n      pop\n      pop\n        /* \"code/contract/sol/native/utils/math/FixedPointMath.sol\":5028:5610  function asNewDecimals(FixedPointValue memory num, uint8 decimals) public pure returns (FixedPointValue memory) {... */\n      swap3\n      swap2\n      pop\n      pop\n      jump\t// out\n        /* \"code/contract/sol/native/utils/math/FixedPointMath.sol\":4471:5022  function div(FixedPointValue memory num0, FixedPointValue memory num1) public pure onlyMatchingFixedPointValueType(num0, num1) returns (FixedPointValue memory) {... */\n    tag_38:\n        /* \"code/contract/sol/native/utils/math/FixedPointMath.sol\":4607:4629  FixedPointValue memory */\n      tag_95\n      tag_49\n      jump\t// in\n    tag_95:\n        /* \"code/contract/sol/native/utils/math/FixedPointMath.sol\":4586:4590  num0 */\n      dup3\n        /* \"code/contract/sol/native/utils/math/FixedPointMath.sol\":4592:4596  num1 */\n      dup3\n        /* \"code/contract/sol/native/utils/math/FixedPointMath.sol\":1447:1462  uint8 decimals0 */\n      0x00\n        /* \"code/contract/sol/native/utils/math/FixedPointMath.sol\":1472:1487  uint8 decimals1 */\n      dup1\n        /* \"code/contract/sol/native/utils/math/FixedPointMath.sol\":1509:1513  num0 */\n      dup4\n        /* \"code/contract/sol/native/utils/math/FixedPointMath.sol\":1509:1522  num0.decimals */\n      0x20\n      add\n      mload\n        /* \"code/contract/sol/native/utils/math/FixedPointMath.sol\":1497:1522  decimals0 = num0.decimals */\n      swap2\n      pop\n        /* \"code/contract/sol/native/utils/math/FixedPointMath.sol\":1544:1548  num1 */\n      dup3\n        /* \"code/contract/sol/native/utils/math/FixedPointMath.sol\":1544:1557  num1.decimals */\n      0x20\n      add\n      mload\n        /* \"code/contract/sol/native/utils/math/FixedPointMath.sol\":1532:1557  decimals1 = num1.decimals */\n      swap1\n      pop\n        /* \"code/contract/sol/native/utils/math/FixedPointMath.sol\":1584:1593  decimals1 */\n      dup1\n        /* \"code/contract/sol/native/utils/math/FixedPointMath.sol\":1571:1593  decimals0 != decimals1 */\n      0xff\n      and\n        /* \"code/contract/sol/native/utils/math/FixedPointMath.sol\":1571:1580  decimals0 */\n      dup3\n        /* \"code/contract/sol/native/utils/math/FixedPointMath.sol\":1571:1593  decimals0 != decimals1 */\n      0xff\n      and\n      eq\n        /* \"code/contract/sol/native/utils/math/FixedPointMath.sol\":1567:1644  if (decimals0 != decimals1) revert IncompatibleDecimals(decimals0, decimals1) */\n      tag_97\n      jumpi\n        /* \"code/contract/sol/native/utils/math/FixedPointMath.sol\":1623:1632  decimals0 */\n      dup2\n        /* \"code/contract/sol/native/utils/math/FixedPointMath.sol\":1634:1643  decimals1 */\n      dup2\n        /* \"code/contract/sol/native/utils/math/FixedPointMath.sol\":1602:1644  IncompatibleDecimals(decimals0, decimals1) */\n      mload(0x40)\n      0x5bc4748600000000000000000000000000000000000000000000000000000000\n      dup2\n      mstore\n      0x04\n      add\n      tag_98\n      swap3\n      swap2\n      swap1\n      tag_53\n      jump\t// in\n    tag_98:\n      mload(0x40)\n      dup1\n      swap2\n      sub\n      swap1\n      revert\n        /* \"code/contract/sol/native/utils/math/FixedPointMath.sol\":1567:1644  if (decimals0 != decimals1) revert IncompatibleDecimals(decimals0, decimals1) */\n    tag_97:\n        /* \"code/contract/sol/native/utils/math/FixedPointMath.sol\":4641:4655  uint8 decimals */\n      0x00\n        /* \"code/contract/sol/native/utils/math/FixedPointMath.sol\":4665:4679  uint256 value0 */\n      dup1\n        /* \"code/contract/sol/native/utils/math/FixedPointMath.sol\":4689:4703  uint256 value1 */\n      0x00\n        /* \"code/contract/sol/native/utils/math/FixedPointMath.sol\":4713:4727  uint256 result */\n      dup1\n        /* \"code/contract/sol/native/utils/math/FixedPointMath.sol\":4737:4759  uint256 representation */\n      0x00\n        /* \"code/contract/sol/native/utils/math/FixedPointMath.sol\":4780:4784  num0 */\n      dup12\n        /* \"code/contract/sol/native/utils/math/FixedPointMath.sol\":4780:4793  num0.decimals */\n      0x20\n      add\n      mload\n        /* \"code/contract/sol/native/utils/math/FixedPointMath.sol\":4769:4793  decimals = num0.decimals */\n      swap5\n      pop\n        /* \"code/contract/sol/native/utils/math/FixedPointMath.sol\":4812:4816  num0 */\n      dup12\n        /* \"code/contract/sol/native/utils/math/FixedPointMath.sol\":4812:4822  num0.value */\n      0x00\n      add\n      mload\n        /* \"code/contract/sol/native/utils/math/FixedPointMath.sol\":4803:4822  value0 = num0.value */\n      swap4\n      pop\n        /* \"code/contract/sol/native/utils/math/FixedPointMath.sol\":4841:4845  num1 */\n      dup11\n        /* \"code/contract/sol/native/utils/math/FixedPointMath.sol\":4841:4851  num1.value */\n      0x00\n      add\n      mload\n        /* \"code/contract/sol/native/utils/math/FixedPointMath.sol\":4832:4851  value1 = num1.value */\n      swap3\n      pop\n        /* \"code/contract/sol/native/utils/math/FixedPointMath.sol\":4882:4890  decimals */\n      dup5\n        /* \"code/contract/sol/native/utils/math/FixedPointMath.sol\":4878:4880  10 */\n      0x0a\n        /* \"code/contract/sol/native/utils/math/FixedPointMath.sol\":4878:4890  10**decimals */\n      tag_100\n      swap2\n      swap1\n      tag_60\n      jump\t// in\n    tag_100:\n        /* \"code/contract/sol/native/utils/math/FixedPointMath.sol\":4861:4890  representation = 10**decimals */\n      swap1\n      pop\n        /* \"code/contract/sol/native/utils/math/FixedPointMath.sol\":4909:4946  value0.mulDiv(representation, value1) */\n      tag_101\n        /* \"code/contract/sol/native/utils/math/FixedPointMath.sol\":4923:4937  representation */\n      dup2\n        /* \"code/contract/sol/native/utils/math/FixedPointMath.sol\":4939:4945  value1 */\n      dup5\n        /* \"code/contract/sol/native/utils/math/FixedPointMath.sol\":4909:4915  value0 */\n      dup7\n        /* \"code/contract/sol/native/utils/math/FixedPointMath.sol\":4909:4922  value0.mulDiv */\n      tag_102\n      swap1\n        /* \"code/contract/sol/native/utils/math/FixedPointMath.sol\":4909:4946  value0.mulDiv(representation, value1) */\n      swap3\n      swap2\n      swap1\n      0xffffffff\n      and\n      jump\t// in\n    tag_101:\n        /* \"code/contract/sol/native/utils/math/FixedPointMath.sol\":4900:4946  result = value0.mulDiv(representation, value1) */\n      swap2\n      pop\n        /* \"code/contract/sol/native/utils/math/FixedPointMath.sol\":4963:5015  FixedPointValue({value: result, decimals: decimals}) */\n      mload(0x40)\n      dup1\n      0x40\n      add\n      0x40\n      mstore\n      dup1\n        /* \"code/contract/sol/native/utils/math/FixedPointMath.sol\":4987:4993  result */\n      dup4\n        /* \"code/contract/sol/native/utils/math/FixedPointMath.sol\":4963:5015  FixedPointValue({value: result, decimals: decimals}) */\n      dup2\n      mstore\n      0x20\n      add\n        /* \"code/contract/sol/native/utils/math/FixedPointMath.sol\":5005:5013  decimals */\n      dup7\n        /* \"code/contract/sol/native/utils/math/FixedPointMath.sol\":4963:5015  FixedPointValue({value: result, decimals: decimals}) */\n      0xff\n      and\n      dup2\n      mstore\n      pop\n        /* \"code/contract/sol/native/utils/math/FixedPointMath.sol\":4956:5015  return FixedPointValue({value: result, decimals: decimals}) */\n      swap10\n      pop\n      pop\n      pop\n      pop\n      pop\n      pop\n        /* \"code/contract/sol/native/utils/math/FixedPointMath.sol\":1437:1662  {... */\n      pop\n      pop\n        /* \"code/contract/sol/native/utils/math/FixedPointMath.sol\":4471:5022  function div(FixedPointValue memory num0, FixedPointValue memory num1) public pure onlyMatchingFixedPointValueType(num0, num1) returns (FixedPointValue memory) {... */\n      pop\n      pop\n      swap3\n      swap2\n      pop\n      pop\n      jump\t// out\n        /* \"code/contract/sol/native/utils/math/FixedPointMath.sol\":3764:4465  function mul(FixedPointValue memory num0, FixedPointValue memory num1) public pure onlyMatchingFixedPointValueType(num0, num1) returns (FixedPointValue memory) {... */\n    tag_42:\n        /* \"code/contract/sol/native/utils/math/FixedPointMath.sol\":3900:3922  FixedPointValue memory */\n      tag_103\n      tag_49\n      jump\t// in\n    tag_103:\n        /* \"code/contract/sol/native/utils/math/FixedPointMath.sol\":3879:3883  num0 */\n      dup3\n        /* \"code/contract/sol/native/utils/math/FixedPointMath.sol\":3885:3889  num1 */\n      dup3\n        /* \"code/contract/sol/native/utils/math/FixedPointMath.sol\":1447:1462  uint8 decimals0 */\n      0x00\n        /* \"code/contract/sol/native/utils/math/FixedPointMath.sol\":1472:1487  uint8 decimals1 */\n      dup1\n        /* \"code/contract/sol/native/utils/math/FixedPointMath.sol\":1509:1513  num0 */\n      dup4\n        /* \"code/contract/sol/native/utils/math/FixedPointMath.sol\":1509:1522  num0.decimals */\n      0x20\n      add\n      mload\n        /* \"code/contract/sol/native/utils/math/FixedPointMath.sol\":1497:1522  decimals0 = num0.decimals */\n      swap2\n      pop\n        /* \"code/contract/sol/native/utils/math/FixedPointMath.sol\":1544:1548  num1 */\n      dup3\n        /* \"code/contract/sol/native/utils/math/FixedPointMath.sol\":1544:1557  num1.decimals */\n      0x20\n      add\n      mload\n        /* \"code/contract/sol/native/utils/math/FixedPointMath.sol\":1532:1557  decimals1 = num1.decimals */\n      swap1\n      pop\n        /* \"code/contract/sol/native/utils/math/FixedPointMath.sol\":1584:1593  decimals1 */\n      dup1\n        /* \"code/contract/sol/native/utils/math/FixedPointMath.sol\":1571:1593  decimals0 != decimals1 */\n      0xff\n      and\n        /* \"code/contract/sol/native/utils/math/FixedPointMath.sol\":1571:1580  decimals0 */\n      dup3\n        /* \"code/contract/sol/native/utils/math/FixedPointMath.sol\":1571:1593  decimals0 != decimals1 */\n      0xff\n      and\n      eq\n        /* \"code/contract/sol/native/utils/math/FixedPointMath.sol\":1567:1644  if (decimals0 != decimals1) revert IncompatibleDecimals(decimals0, decimals1) */\n      tag_105\n      jumpi\n        /* \"code/contract/sol/native/utils/math/FixedPointMath.sol\":1623:1632  decimals0 */\n      dup2\n        /* \"code/contract/sol/native/utils/math/FixedPointMath.sol\":1634:1643  decimals1 */\n      dup2\n        /* \"code/contract/sol/native/utils/math/FixedPointMath.sol\":1602:1644  IncompatibleDecimals(decimals0, decimals1) */\n      mload(0x40)\n      0x5bc4748600000000000000000000000000000000000000000000000000000000\n      dup2\n      mstore\n      0x04\n      add\n      tag_106\n      swap3\n      swap2\n      swap1\n      tag_53\n      jump\t// in\n    tag_106:\n      mload(0x40)\n      dup1\n      swap2\n      sub\n      swap1\n      revert\n        /* \"code/contract/sol/native/utils/math/FixedPointMath.sol\":1567:1644  if (decimals0 != decimals1) revert IncompatibleDecimals(decimals0, decimals1) */\n    tag_105:\n        /* \"code/contract/sol/native/utils/math/FixedPointMath.sol\":3934:3948  uint8 decimals */\n      0x00\n        /* \"code/contract/sol/native/utils/math/FixedPointMath.sol\":3958:3972  uint256 value0 */\n      dup1\n        /* \"code/contract/sol/native/utils/math/FixedPointMath.sol\":3982:3996  uint256 value1 */\n      0x00\n        /* \"code/contract/sol/native/utils/math/FixedPointMath.sol\":4006:4020  uint256 result */\n      dup1\n        /* \"code/contract/sol/native/utils/math/FixedPointMath.sol\":4030:4052  uint256 representation */\n      0x00\n        /* \"code/contract/sol/native/utils/math/FixedPointMath.sol\":4073:4077  num0 */\n      dup12\n        /* \"code/contract/sol/native/utils/math/FixedPointMath.sol\":4073:4086  num0.decimals */\n      0x20\n      add\n      mload\n        /* \"code/contract/sol/native/utils/math/FixedPointMath.sol\":4062:4086  decimals = num0.decimals */\n      swap5\n      pop\n        /* \"code/contract/sol/native/utils/math/FixedPointMath.sol\":4105:4109  num0 */\n      dup12\n        /* \"code/contract/sol/native/utils/math/FixedPointMath.sol\":4105:4115  num0.value */\n      0x00\n      add\n      mload\n        /* \"code/contract/sol/native/utils/math/FixedPointMath.sol\":4096:4115  value0 = num0.value */\n      swap4\n      pop\n        /* \"code/contract/sol/native/utils/math/FixedPointMath.sol\":4134:4138  num1 */\n      dup11\n        /* \"code/contract/sol/native/utils/math/FixedPointMath.sol\":4134:4144  num1.value */\n      0x00\n      add\n      mload\n        /* \"code/contract/sol/native/utils/math/FixedPointMath.sol\":4125:4144  value1 = num1.value */\n      swap3\n      pop\n        /* \"code/contract/sol/native/utils/math/FixedPointMath.sol\":4175:4183  decimals */\n      dup5\n        /* \"code/contract/sol/native/utils/math/FixedPointMath.sol\":4171:4173  10 */\n      0x0a\n        /* \"code/contract/sol/native/utils/math/FixedPointMath.sol\":4171:4183  10**decimals */\n      tag_108\n      swap2\n      swap1\n      tag_60\n      jump\t// in\n    tag_108:\n        /* \"code/contract/sol/native/utils/math/FixedPointMath.sol\":4154:4183  representation = 10**decimals */\n      swap1\n      pop\n        /* \"code/contract/sol/native/utils/math/FixedPointMath.sol\":4209:4210  0 */\n      0x00\n        /* \"code/contract/sol/native/utils/math/FixedPointMath.sol\":4197:4205  decimals */\n      dup6\n        /* \"code/contract/sol/native/utils/math/FixedPointMath.sol\":4197:4210  decimals == 0 */\n      0xff\n      and\n      sub\n        /* \"code/contract/sol/native/utils/math/FixedPointMath.sol\":4193:4334  if (decimals == 0) {... */\n      tag_109\n      jumpi\n        /* \"code/contract/sol/native/utils/math/FixedPointMath.sol\":4244:4250  value1 */\n      dup3\n        /* \"code/contract/sol/native/utils/math/FixedPointMath.sol\":4235:4241  value0 */\n      dup5\n        /* \"code/contract/sol/native/utils/math/FixedPointMath.sol\":4235:4250  value0 * value1 */\n      tag_110\n      swap2\n      swap1\n      tag_62\n      jump\t// in\n    tag_110:\n        /* \"code/contract/sol/native/utils/math/FixedPointMath.sol\":4226:4250  result = value0 * value1 */\n      swap2\n      pop\n        /* \"code/contract/sol/native/utils/math/FixedPointMath.sol\":4271:4323  FixedPointValue({value: result, decimals: decimals}) */\n      mload(0x40)\n      dup1\n      0x40\n      add\n      0x40\n      mstore\n      dup1\n        /* \"code/contract/sol/native/utils/math/FixedPointMath.sol\":4295:4301  result */\n      dup4\n        /* \"code/contract/sol/native/utils/math/FixedPointMath.sol\":4271:4323  FixedPointValue({value: result, decimals: decimals}) */\n      dup2\n      mstore\n      0x20\n      add\n        /* \"code/contract/sol/native/utils/math/FixedPointMath.sol\":4313:4321  decimals */\n      dup7\n        /* \"code/contract/sol/native/utils/math/FixedPointMath.sol\":4271:4323  FixedPointValue({value: result, decimals: decimals}) */\n      0xff\n      and\n      dup2\n      mstore\n      pop\n        /* \"code/contract/sol/native/utils/math/FixedPointMath.sol\":4264:4323  return FixedPointValue({value: result, decimals: decimals}) */\n      swap10\n      pop\n      pop\n      pop\n      pop\n      pop\n      pop\n      jump(tag_107)\n        /* \"code/contract/sol/native/utils/math/FixedPointMath.sol\":4193:4334  if (decimals == 0) {... */\n    tag_109:\n        /* \"code/contract/sol/native/utils/math/FixedPointMath.sol\":4352:4389  value0.mulDiv(value1, representation) */\n      tag_111\n        /* \"code/contract/sol/native/utils/math/FixedPointMath.sol\":4366:4372  value1 */\n      dup4\n        /* \"code/contract/sol/native/utils/math/FixedPointMath.sol\":4374:4388  representation */\n      dup3\n        /* \"code/contract/sol/native/utils/math/FixedPointMath.sol\":4352:4358  value0 */\n      dup7\n        /* \"code/contract/sol/native/utils/math/FixedPointMath.sol\":4352:4365  value0.mulDiv */\n      tag_102\n      swap1\n        /* \"code/contract/sol/native/utils/math/FixedPointMath.sol\":4352:4389  value0.mulDiv(value1, representation) */\n      swap3\n      swap2\n      swap1\n      0xffffffff\n      and\n      jump\t// in\n    tag_111:\n        /* \"code/contract/sol/native/utils/math/FixedPointMath.sol\":4343:4389  result = value0.mulDiv(value1, representation) */\n      swap2\n      pop\n        /* \"code/contract/sol/native/utils/math/FixedPointMath.sol\":4406:4458  FixedPointValue({value: result, decimals: decimals}) */\n      mload(0x40)\n      dup1\n      0x40\n      add\n      0x40\n      mstore\n      dup1\n        /* \"code/contract/sol/native/utils/math/FixedPointMath.sol\":4430:4436  result */\n      dup4\n        /* \"code/contract/sol/native/utils/math/FixedPointMath.sol\":4406:4458  FixedPointValue({value: result, decimals: decimals}) */\n      dup2\n      mstore\n      0x20\n      add\n        /* \"code/contract/sol/native/utils/math/FixedPointMath.sol\":4448:4456  decimals */\n      dup7\n        /* \"code/contract/sol/native/utils/math/FixedPointMath.sol\":4406:4458  FixedPointValue({value: result, decimals: decimals}) */\n      0xff\n      and\n      dup2\n      mstore\n      pop\n        /* \"code/contract/sol/native/utils/math/FixedPointMath.sol\":4399:4458  return FixedPointValue({value: result, decimals: decimals}) */\n      swap10\n      pop\n      pop\n      pop\n      pop\n      pop\n      pop\n        /* \"code/contract/sol/native/utils/math/FixedPointMath.sol\":1654:1655  _ */\n    tag_107:\n        /* \"code/contract/sol/native/utils/math/FixedPointMath.sol\":1437:1662  {... */\n      pop\n      pop\n        /* \"code/contract/sol/native/utils/math/FixedPointMath.sol\":3764:4465  function mul(FixedPointValue memory num0, FixedPointValue memory num1) public pure onlyMatchingFixedPointValueType(num0, num1) returns (FixedPointValue memory) {... */\n      pop\n      pop\n      swap3\n      swap2\n      pop\n      pop\n      jump\t// out\n        /* \"code/contract/sol/native/utils/math/FixedPointMath.sol\":1668:2236  function scale(FixedPointValue memory num0, FixedPointValue memory num1) public pure onlyMatchingFixedPointValueType(num0, num1) returns (FixedPointValue memory basisPoints) {... */\n    tag_46:\n        /* \"code/contract/sol/native/utils/math/FixedPointMath.sol\":1806:1840  FixedPointValue memory basisPoints */\n      tag_112\n      tag_49\n      jump\t// in\n    tag_112:\n        /* \"code/contract/sol/native/utils/math/FixedPointMath.sol\":1785:1789  num0 */\n      dup3\n        /* \"code/contract/sol/native/utils/math/FixedPointMath.sol\":1791:1795  num1 */\n      dup3\n        /* \"code/contract/sol/native/utils/math/FixedPointMath.sol\":1447:1462  uint8 decimals0 */\n      0x00\n        /* \"code/contract/sol/native/utils/math/FixedPointMath.sol\":1472:1487  uint8 decimals1 */\n      dup1\n        /* \"code/contract/sol/native/utils/math/FixedPointMath.sol\":1509:1513  num0 */\n      dup4\n        /* \"code/contract/sol/native/utils/math/FixedPointMath.sol\":1509:1522  num0.decimals */\n      0x20\n      add\n      mload\n        /* \"code/contract/sol/native/utils/math/FixedPointMath.sol\":1497:1522  decimals0 = num0.decimals */\n      swap2\n      pop\n        /* \"code/contract/sol/native/utils/math/FixedPointMath.sol\":1544:1548  num1 */\n      dup3\n        /* \"code/contract/sol/native/utils/math/FixedPointMath.sol\":1544:1557  num1.decimals */\n      0x20\n      add\n      mload\n        /* \"code/contract/sol/native/utils/math/FixedPointMath.sol\":1532:1557  decimals1 = num1.decimals */\n      swap1\n      pop\n        /* \"code/contract/sol/native/utils/math/FixedPointMath.sol\":1584:1593  decimals1 */\n      dup1\n        /* \"code/contract/sol/native/utils/math/FixedPointMath.sol\":1571:1593  decimals0 != decimals1 */\n      0xff\n      and\n        /* \"code/contract/sol/native/utils/math/FixedPointMath.sol\":1571:1580  decimals0 */\n      dup3\n        /* \"code/contract/sol/native/utils/math/FixedPointMath.sol\":1571:1593  decimals0 != decimals1 */\n      0xff\n      and\n      eq\n        /* \"code/contract/sol/native/utils/math/FixedPointMath.sol\":1567:1644  if (decimals0 != decimals1) revert IncompatibleDecimals(decimals0, decimals1) */\n      tag_114\n      jumpi\n        /* \"code/contract/sol/native/utils/math/FixedPointMath.sol\":1623:1632  decimals0 */\n      dup2\n        /* \"code/contract/sol/native/utils/math/FixedPointMath.sol\":1634:1643  decimals1 */\n      dup2\n        /* \"code/contract/sol/native/utils/math/FixedPointMath.sol\":1602:1644  IncompatibleDecimals(decimals0, decimals1) */\n      mload(0x40)\n      0x5bc4748600000000000000000000000000000000000000000000000000000000\n      dup2\n      mstore\n      0x04\n      add\n      tag_115\n      swap3\n      swap2\n      swap1\n      tag_53\n      jump\t// in\n    tag_115:\n      mload(0x40)\n      dup1\n      swap2\n      sub\n      swap1\n      revert\n        /* \"code/contract/sol/native/utils/math/FixedPointMath.sol\":1567:1644  if (decimals0 != decimals1) revert IncompatibleDecimals(decimals0, decimals1) */\n    tag_114:\n        /* \"code/contract/sol/native/utils/math/FixedPointMath.sol\":1852:1866  uint8 decimals */\n      0x00\n        /* \"code/contract/sol/native/utils/math/FixedPointMath.sol\":1876:1898  uint256 representation */\n      dup1\n        /* \"code/contract/sol/native/utils/math/FixedPointMath.sol\":1908:1937  FixedPointValue memory result */\n      tag_117\n      tag_49\n      jump\t// in\n    tag_117:\n        /* \"code/contract/sol/native/utils/math/FixedPointMath.sol\":1947:1975  FixedPointValue memory scale */\n      tag_118\n      tag_49\n      jump\t// in\n    tag_118:\n        /* \"code/contract/sol/native/utils/math/FixedPointMath.sol\":1996:2000  num0 */\n      dup11\n        /* \"code/contract/sol/native/utils/math/FixedPointMath.sol\":1996:2009  num0.decimals */\n      0x20\n      add\n      mload\n        /* \"code/contract/sol/native/utils/math/FixedPointMath.sol\":1985:2009  decimals = num0.decimals */\n      swap4\n      pop\n        /* \"code/contract/sol/native/utils/math/FixedPointMath.sol\":2040:2048  decimals */\n      dup4\n        /* \"code/contract/sol/native/utils/math/FixedPointMath.sol\":2036:2038  10 */\n      0x0a\n        /* \"code/contract/sol/native/utils/math/FixedPointMath.sol\":2036:2048  10**decimals */\n      tag_119\n      swap2\n      swap1\n      tag_60\n      jump\t// in\n    tag_119:\n        /* \"code/contract/sol/native/utils/math/FixedPointMath.sol\":2019:2048  representation = 10**decimals */\n      swap3\n      pop\n        /* \"code/contract/sol/native/utils/math/FixedPointMath.sol\":2066:2135  FixedPointValue({value: 10_000 * representation, decimals: decimals}) */\n      mload(0x40)\n      dup1\n      0x40\n      add\n      0x40\n      mstore\n      dup1\n        /* \"code/contract/sol/native/utils/math/FixedPointMath.sol\":2099:2113  representation */\n      dup5\n        /* \"code/contract/sol/native/utils/math/FixedPointMath.sol\":2090:2096  10_000 */\n      0x2710\n        /* \"code/contract/sol/native/utils/math/FixedPointMath.sol\":2090:2113  10_000 * representation */\n      tag_120\n      swap2\n      swap1\n      tag_62\n      jump\t// in\n    tag_120:\n        /* \"code/contract/sol/native/utils/math/FixedPointMath.sol\":2066:2135  FixedPointValue({value: 10_000 * representation, decimals: decimals}) */\n      dup2\n      mstore\n      0x20\n      add\n        /* \"code/contract/sol/native/utils/math/FixedPointMath.sol\":2125:2133  decimals */\n      dup6\n        /* \"code/contract/sol/native/utils/math/FixedPointMath.sol\":2066:2135  FixedPointValue({value: 10_000 * representation, decimals: decimals}) */\n      0xff\n      and\n      dup2\n      mstore\n      pop\n        /* \"code/contract/sol/native/utils/math/FixedPointMath.sol\":2058:2135  scale = FixedPointValue({value: 10_000 * representation, decimals: decimals}) */\n      swap1\n      pop\n        /* \"code/contract/sol/native/utils/math/FixedPointMath.sol\":2154:2169  div(num0, num1) */\n      tag_121\n        /* \"code/contract/sol/native/utils/math/FixedPointMath.sol\":2158:2162  num0 */\n      dup12\n        /* \"code/contract/sol/native/utils/math/FixedPointMath.sol\":2164:2168  num1 */\n      dup12\n        /* \"code/contract/sol/native/utils/math/FixedPointMath.sol\":2154:2157  div */\n      tag_38\n        /* \"code/contract/sol/native/utils/math/FixedPointMath.sol\":2154:2169  div(num0, num1) */\n      jump\t// in\n    tag_121:\n        /* \"code/contract/sol/native/utils/math/FixedPointMath.sol\":2145:2169  result = div(num0, num1) */\n      swap2\n      pop\n        /* \"code/contract/sol/native/utils/math/FixedPointMath.sol\":2188:2206  mul(result, scale) */\n      tag_122\n        /* \"code/contract/sol/native/utils/math/FixedPointMath.sol\":2192:2198  result */\n      dup3\n        /* \"code/contract/sol/native/utils/math/FixedPointMath.sol\":2200:2205  scale */\n      dup3\n        /* \"code/contract/sol/native/utils/math/FixedPointMath.sol\":2188:2191  mul */\n      tag_42\n        /* \"code/contract/sol/native/utils/math/FixedPointMath.sol\":2188:2206  mul(result, scale) */\n      jump\t// in\n    tag_122:\n        /* \"code/contract/sol/native/utils/math/FixedPointMath.sol\":2179:2206  result = mul(result, scale) */\n      swap2\n      pop\n        /* \"code/contract/sol/native/utils/math/FixedPointMath.sol\":2223:2229  result */\n      dup2\n        /* \"code/contract/sol/native/utils/math/FixedPointMath.sol\":2216:2229  return result */\n      swap9\n      pop\n      pop\n      pop\n      pop\n      pop\n        /* \"code/contract/sol/native/utils/math/FixedPointMath.sol\":1437:1662  {... */\n      pop\n      pop\n        /* \"code/contract/sol/native/utils/math/FixedPointMath.sol\":1668:2236  function scale(FixedPointValue memory num0, FixedPointValue memory num1) public pure onlyMatchingFixedPointValueType(num0, num1) returns (FixedPointValue memory basisPoints) {... */\n      pop\n      pop\n      swap3\n      swap2\n      pop\n      pop\n      jump\t// out\n        /* \"code/contract/sol/non-native/openzeppelin/utils/math/Math.sol\":3689:7902  function mulDiv(uint256 x, uint256 y, uint256 denominator) internal pure returns (uint256 result) {... */\n    tag_102:\n        /* \"code/contract/sol/non-native/openzeppelin/utils/math/Math.sol\":3771:3785  uint256 result */\n      0x00\n        /* \"code/contract/sol/non-native/openzeppelin/utils/math/Math.sol\":4118:4131  uint256 prod0 */\n      dup1\n        /* \"code/contract/sol/non-native/openzeppelin/utils/math/Math.sol\":4190:4203  uint256 prod1 */\n      0x00\n        /* \"code/contract/sol/non-native/openzeppelin/utils/math/Math.sol\":4315:4316  0 */\n      dup1\n        /* \"code/contract/sol/non-native/openzeppelin/utils/math/Math.sol\":4311:4317  not(0) */\n      not\n        /* \"code/contract/sol/non-native/openzeppelin/utils/math/Math.sol\":4308:4309  y */\n      dup6\n        /* \"code/contract/sol/non-native/openzeppelin/utils/math/Math.sol\":4305:4306  x */\n      dup8\n        /* \"code/contract/sol/non-native/openzeppelin/utils/math/Math.sol\":4298:4318  mulmod(x, y, not(0)) */\n      mulmod\n        /* \"code/contract/sol/non-native/openzeppelin/utils/math/Math.sol\":4351:4352  y */\n      dup6\n        /* \"code/contract/sol/non-native/openzeppelin/utils/math/Math.sol\":4348:4349  x */\n      dup8\n        /* \"code/contract/sol/non-native/openzeppelin/utils/math/Math.sol\":4344:4353  mul(x, y) */\n      mul\n        /* \"code/contract/sol/non-native/openzeppelin/utils/math/Math.sol\":4335:4353  prod0 := mul(x, y) */\n      swap3\n      pop\n        /* \"code/contract/sol/non-native/openzeppelin/utils/math/Math.sol\":4406:4411  prod0 */\n      dup3\n        /* \"code/contract/sol/non-native/openzeppelin/utils/math/Math.sol\":4402:4404  mm */\n      dup2\n        /* \"code/contract/sol/non-native/openzeppelin/utils/math/Math.sol\":4399:4412  lt(mm, prod0) */\n      lt\n        /* \"code/contract/sol/non-native/openzeppelin/utils/math/Math.sol\":4391:4396  prod0 */\n      dup4\n        /* \"code/contract/sol/non-native/openzeppelin/utils/math/Math.sol\":4387:4389  mm */\n      dup3\n        /* \"code/contract/sol/non-native/openzeppelin/utils/math/Math.sol\":4383:4397  sub(mm, prod0) */\n      sub\n        /* \"code/contract/sol/non-native/openzeppelin/utils/math/Math.sol\":4379:4413  sub(sub(mm, prod0), lt(mm, prod0)) */\n      sub\n        /* \"code/contract/sol/non-native/openzeppelin/utils/math/Math.sol\":4370:4413  prod1 := sub(sub(mm, prod0), lt(mm, prod0)) */\n      swap2\n      pop\n        /* \"code/contract/sol/non-native/openzeppelin/utils/math/Math.sol\":4270:4427  {... */\n      pop\n        /* \"code/contract/sol/non-native/openzeppelin/utils/math/Math.sol\":4517:4518  0 */\n      0x00\n        /* \"code/contract/sol/non-native/openzeppelin/utils/math/Math.sol\":4508:4513  prod1 */\n      dup2\n        /* \"code/contract/sol/non-native/openzeppelin/utils/math/Math.sol\":4508:4518  prod1 == 0 */\n      sub\n        /* \"code/contract/sol/non-native/openzeppelin/utils/math/Math.sol\":4504:4872  if (prod1 == 0) {... */\n      tag_124\n      jumpi\n        /* \"code/contract/sol/non-native/openzeppelin/utils/math/Math.sol\":4846:4857  denominator */\n      dup4\n        /* \"code/contract/sol/non-native/openzeppelin/utils/math/Math.sol\":4838:4843  prod0 */\n      dup3\n        /* \"code/contract/sol/non-native/openzeppelin/utils/math/Math.sol\":4838:4857  prod0 / denominator */\n      dup2\n      tag_125\n      jumpi\n      tag_126\n      tag_127\n      jump\t// in\n    tag_126:\n    tag_125:\n      div\n        /* \"code/contract/sol/non-native/openzeppelin/utils/math/Math.sol\":4831:4857  return prod0 / denominator */\n      swap3\n      pop\n      pop\n      pop\n      jump(tag_123)\n        /* \"code/contract/sol/non-native/openzeppelin/utils/math/Math.sol\":4504:4872  if (prod1 == 0) {... */\n    tag_124:\n        /* \"code/contract/sol/non-native/openzeppelin/utils/math/Math.sol\":4996:5001  prod1 */\n      dup1\n        /* \"code/contract/sol/non-native/openzeppelin/utils/math/Math.sol\":4982:4993  denominator */\n      dup5\n        /* \"code/contract/sol/non-native/openzeppelin/utils/math/Math.sol\":4982:5001  denominator > prod1 */\n      gt\n        /* \"code/contract/sol/non-native/openzeppelin/utils/math/Math.sol\":4974:5027  require(denominator > prod1, \"Math: mulDiv overflow\") */\n      tag_128\n      jumpi\n      mload(0x40)\n      0x08c379a000000000000000000000000000000000000000000000000000000000\n      dup2\n      mstore\n      0x04\n      add\n      tag_129\n      swap1\n      tag_130\n      jump\t// in\n    tag_129:\n      mload(0x40)\n      dup1\n      swap2\n      sub\n      swap1\n      revert\n    tag_128:\n        /* \"code/contract/sol/non-native/openzeppelin/utils/math/Math.sol\":5283:5300  uint256 remainder */\n      0x00\n        /* \"code/contract/sol/non-native/openzeppelin/utils/math/Math.sol\":5418:5429  denominator */\n      dup5\n        /* \"code/contract/sol/non-native/openzeppelin/utils/math/Math.sol\":5415:5416  y */\n      dup7\n        /* \"code/contract/sol/non-native/openzeppelin/utils/math/Math.sol\":5412:5413  x */\n      dup9\n        /* \"code/contract/sol/non-native/openzeppelin/utils/math/Math.sol\":5405:5430  mulmod(x, y, denominator) */\n      mulmod\n        /* \"code/contract/sol/non-native/openzeppelin/utils/math/Math.sol\":5392:5430  remainder := mulmod(x, y, denominator) */\n      swap1\n      pop\n        /* \"code/contract/sol/non-native/openzeppelin/utils/math/Math.sol\":5546:5551  prod0 */\n      dup3\n        /* \"code/contract/sol/non-native/openzeppelin/utils/math/Math.sol\":5535:5544  remainder */\n      dup2\n        /* \"code/contract/sol/non-native/openzeppelin/utils/math/Math.sol\":5532:5552  gt(remainder, prod0) */\n      gt\n        /* \"code/contract/sol/non-native/openzeppelin/utils/math/Math.sol\":5525:5530  prod1 */\n      dup3\n        /* \"code/contract/sol/non-native/openzeppelin/utils/math/Math.sol\":5521:5553  sub(prod1, gt(remainder, prod0)) */\n      sub\n        /* \"code/contract/sol/non-native/openzeppelin/utils/math/Math.sol\":5512:5553  prod1 := sub(prod1, gt(remainder, prod0)) */\n      swap2\n      pop\n        /* \"code/contract/sol/non-native/openzeppelin/utils/math/Math.sol\":5590:5599  remainder */\n      dup1\n        /* \"code/contract/sol/non-native/openzeppelin/utils/math/Math.sol\":5583:5588  prod0 */\n      dup4\n        /* \"code/contract/sol/non-native/openzeppelin/utils/math/Math.sol\":5579:5600  sub(prod0, remainder) */\n      sub\n        /* \"code/contract/sol/non-native/openzeppelin/utils/math/Math.sol\":5570:5600  prod0 := sub(prod0, remainder) */\n      swap3\n      pop\n        /* \"code/contract/sol/non-native/openzeppelin/utils/math/Math.sol\":5921:5933  uint256 twos */\n      0x00\n        /* \"code/contract/sol/non-native/openzeppelin/utils/math/Math.sol\":5966:5967  1 */\n      0x01\n        /* \"code/contract/sol/non-native/openzeppelin/utils/math/Math.sol\":5952:5963  denominator */\n      dup7\n        /* \"code/contract/sol/non-native/openzeppelin/utils/math/Math.sol\":5951:5963  ~denominator */\n      not\n        /* \"code/contract/sol/non-native/openzeppelin/utils/math/Math.sol\":5951:5967  ~denominator + 1 */\n      add\n        /* \"code/contract/sol/non-native/openzeppelin/utils/math/Math.sol\":5936:5947  denominator */\n      dup7\n        /* \"code/contract/sol/non-native/openzeppelin/utils/math/Math.sol\":5936:5968  denominator & (~denominator + 1) */\n      and\n        /* \"code/contract/sol/non-native/openzeppelin/utils/math/Math.sol\":5921:5968  uint256 twos = denominator & (~denominator + 1) */\n      swap1\n      pop\n        /* \"code/contract/sol/non-native/openzeppelin/utils/math/Math.sol\":6088:6092  twos */\n      dup1\n        /* \"code/contract/sol/non-native/openzeppelin/utils/math/Math.sol\":6075:6086  denominator */\n      dup7\n        /* \"code/contract/sol/non-native/openzeppelin/utils/math/Math.sol\":6071:6093  div(denominator, twos) */\n      div\n        /* \"code/contract/sol/non-native/openzeppelin/utils/math/Math.sol\":6056:6093  denominator := div(denominator, twos) */\n      swap6\n      pop\n        /* \"code/contract/sol/non-native/openzeppelin/utils/math/Math.sol\":6180:6184  twos */\n      dup1\n        /* \"code/contract/sol/non-native/openzeppelin/utils/math/Math.sol\":6173:6178  prod0 */\n      dup5\n        /* \"code/contract/sol/non-native/openzeppelin/utils/math/Math.sol\":6169:6185  div(prod0, twos) */\n      div\n        /* \"code/contract/sol/non-native/openzeppelin/utils/math/Math.sol\":6160:6185  prod0 := div(prod0, twos) */\n      swap4\n      pop\n        /* \"code/contract/sol/non-native/openzeppelin/utils/math/Math.sol\":6337:6338  1 */\n      0x01\n        /* \"code/contract/sol/non-native/openzeppelin/utils/math/Math.sol\":6330:6334  twos */\n      dup2\n        /* \"code/contract/sol/non-native/openzeppelin/utils/math/Math.sol\":6323:6327  twos */\n      dup3\n        /* \"code/contract/sol/non-native/openzeppelin/utils/math/Math.sol\":6320:6321  0 */\n      0x00\n        /* \"code/contract/sol/non-native/openzeppelin/utils/math/Math.sol\":6316:6328  sub(0, twos) */\n      sub\n        /* \"code/contract/sol/non-native/openzeppelin/utils/math/Math.sol\":6312:6335  div(sub(0, twos), twos) */\n      div\n        /* \"code/contract/sol/non-native/openzeppelin/utils/math/Math.sol\":6308:6339  add(div(sub(0, twos), twos), 1) */\n      add\n        /* \"code/contract/sol/non-native/openzeppelin/utils/math/Math.sol\":6300:6339  twos := add(div(sub(0, twos), twos), 1) */\n      swap1\n      pop\n        /* \"code/contract/sol/non-native/openzeppelin/utils/math/Math.sol\":6436:6440  twos */\n      dup1\n        /* \"code/contract/sol/non-native/openzeppelin/utils/math/Math.sol\":6428:6433  prod1 */\n      dup4\n        /* \"code/contract/sol/non-native/openzeppelin/utils/math/Math.sol\":6428:6440  prod1 * twos */\n      mul\n        /* \"code/contract/sol/non-native/openzeppelin/utils/math/Math.sol\":6419:6440  prod0 |= prod1 * twos */\n      dup5\n      or\n      swap4\n      pop\n        /* \"code/contract/sol/non-native/openzeppelin/utils/math/Math.sol\":6758:6773  uint256 inverse */\n      0x00\n        /* \"code/contract/sol/non-native/openzeppelin/utils/math/Math.sol\":6796:6797  2 */\n      0x02\n        /* \"code/contract/sol/non-native/openzeppelin/utils/math/Math.sol\":6781:6792  denominator */\n      dup8\n        /* \"code/contract/sol/non-native/openzeppelin/utils/math/Math.sol\":6777:6778  3 */\n      0x03\n        /* \"code/contract/sol/non-native/openzeppelin/utils/math/Math.sol\":6777:6792  3 * denominator */\n      mul\n        /* \"code/contract/sol/non-native/openzeppelin/utils/math/Math.sol\":6776:6797  (3 * denominator) ^ 2 */\n      xor\n        /* \"code/contract/sol/non-native/openzeppelin/utils/math/Math.sol\":6758:6797  uint256 inverse = (3 * denominator) ^ 2 */\n      swap1\n      pop\n        /* \"code/contract/sol/non-native/openzeppelin/utils/math/Math.sol\":7043:7050  inverse */\n      dup1\n        /* \"code/contract/sol/non-native/openzeppelin/utils/math/Math.sol\":7029:7040  denominator */\n      dup8\n        /* \"code/contract/sol/non-native/openzeppelin/utils/math/Math.sol\":7029:7050  denominator * inverse */\n      mul\n        /* \"code/contract/sol/non-native/openzeppelin/utils/math/Math.sol\":7025:7026  2 */\n      0x02\n        /* \"code/contract/sol/non-native/openzeppelin/utils/math/Math.sol\":7025:7050  2 - denominator * inverse */\n      sub\n        /* \"code/contract/sol/non-native/openzeppelin/utils/math/Math.sol\":7014:7050  inverse *= 2 - denominator * inverse */\n      dup2\n      mul\n      swap1\n      pop\n        /* \"code/contract/sol/non-native/openzeppelin/utils/math/Math.sol\":7112:7119  inverse */\n      dup1\n        /* \"code/contract/sol/non-native/openzeppelin/utils/math/Math.sol\":7098:7109  denominator */\n      dup8\n        /* \"code/contract/sol/non-native/openzeppelin/utils/math/Math.sol\":7098:7119  denominator * inverse */\n      mul\n        /* \"code/contract/sol/non-native/openzeppelin/utils/math/Math.sol\":7094:7095  2 */\n      0x02\n        /* \"code/contract/sol/non-native/openzeppelin/utils/math/Math.sol\":7094:7119  2 - denominator * inverse */\n      sub\n        /* \"code/contract/sol/non-native/openzeppelin/utils/math/Math.sol\":7083:7119  inverse *= 2 - denominator * inverse */\n      dup2\n      mul\n      swap1\n      pop\n        /* \"code/contract/sol/non-native/openzeppelin/utils/math/Math.sol\":7182:7189  inverse */\n      dup1\n        /* \"code/contract/sol/non-native/openzeppelin/utils/math/Math.sol\":7168:7179  denominator */\n      dup8\n        /* \"code/contract/sol/non-native/openzeppelin/utils/math/Math.sol\":7168:7189  denominator * inverse */\n      mul\n        /* \"code/contract/sol/non-native/openzeppelin/utils/math/Math.sol\":7164:7165  2 */\n      0x02\n        /* \"code/contract/sol/non-native/openzeppelin/utils/math/Math.sol\":7164:7189  2 - denominator * inverse */\n      sub\n        /* \"code/contract/sol/non-native/openzeppelin/utils/math/Math.sol\":7153:7189  inverse *= 2 - denominator * inverse */\n      dup2\n      mul\n      swap1\n      pop\n        /* \"code/contract/sol/non-native/openzeppelin/utils/math/Math.sol\":7252:7259  inverse */\n      dup1\n        /* \"code/contract/sol/non-native/openzeppelin/utils/math/Math.sol\":7238:7249  denominator */\n      dup8\n        /* \"code/contract/sol/non-native/openzeppelin/utils/math/Math.sol\":7238:7259  denominator * inverse */\n      mul\n        /* \"code/contract/sol/non-native/openzeppelin/utils/math/Math.sol\":7234:7235  2 */\n      0x02\n        /* \"code/contract/sol/non-native/openzeppelin/utils/math/Math.sol\":7234:7259  2 - denominator * inverse */\n      sub\n        /* \"code/contract/sol/non-native/openzeppelin/utils/math/Math.sol\":7223:7259  inverse *= 2 - denominator * inverse */\n      dup2\n      mul\n      swap1\n      pop\n        /* \"code/contract/sol/non-native/openzeppelin/utils/math/Math.sol\":7322:7329  inverse */\n      dup1\n        /* \"code/contract/sol/non-native/openzeppelin/utils/math/Math.sol\":7308:7319  denominator */\n      dup8\n        /* \"code/contract/sol/non-native/openzeppelin/utils/math/Math.sol\":7308:7329  denominator * inverse */\n      mul\n        /* \"code/contract/sol/non-native/openzeppelin/utils/math/Math.sol\":7304:7305  2 */\n      0x02\n        /* \"code/contract/sol/non-native/openzeppelin/utils/math/Math.sol\":7304:7329  2 - denominator * inverse */\n      sub\n        /* \"code/contract/sol/non-native/openzeppelin/utils/math/Math.sol\":7293:7329  inverse *= 2 - denominator * inverse */\n      dup2\n      mul\n      swap1\n      pop\n        /* \"code/contract/sol/non-native/openzeppelin/utils/math/Math.sol\":7393:7400  inverse */\n      dup1\n        /* \"code/contract/sol/non-native/openzeppelin/utils/math/Math.sol\":7379:7390  denominator */\n      dup8\n        /* \"code/contract/sol/non-native/openzeppelin/utils/math/Math.sol\":7379:7400  denominator * inverse */\n      mul\n        /* \"code/contract/sol/non-native/openzeppelin/utils/math/Math.sol\":7375:7376  2 */\n      0x02\n        /* \"code/contract/sol/non-native/openzeppelin/utils/math/Math.sol\":7375:7400  2 - denominator * inverse */\n      sub\n        /* \"code/contract/sol/non-native/openzeppelin/utils/math/Math.sol\":7364:7400  inverse *= 2 - denominator * inverse */\n      dup2\n      mul\n      swap1\n      pop\n        /* \"code/contract/sol/non-native/openzeppelin/utils/math/Math.sol\":7851:7858  inverse */\n      dup1\n        /* \"code/contract/sol/non-native/openzeppelin/utils/math/Math.sol\":7843:7848  prod0 */\n      dup6\n        /* \"code/contract/sol/non-native/openzeppelin/utils/math/Math.sol\":7843:7858  prod0 * inverse */\n      mul\n        /* \"code/contract/sol/non-native/openzeppelin/utils/math/Math.sol\":7834:7858  result = prod0 * inverse */\n      swap6\n      pop\n        /* \"code/contract/sol/non-native/openzeppelin/utils/math/Math.sol\":7872:7885  return result */\n      pop\n      pop\n      pop\n      pop\n      pop\n        /* \"code/contract/sol/non-native/openzeppelin/utils/math/Math.sol\":3689:7902  function mulDiv(uint256 x, uint256 y, uint256 denominator) internal pure returns (uint256 result) {... */\n    tag_123:\n      swap4\n      swap3\n      pop\n      pop\n      pop\n      jump\t// out\n    tag_49:\n      mload(0x40)\n      dup1\n      0x40\n      add\n      0x40\n      mstore\n      dup1\n      0x00\n      dup2\n      mstore\n      0x20\n      add\n      and(0xff, 0x00)\n      dup2\n      mstore\n      pop\n      swap1\n      jump\t// out\n        /* \"#utility.yul\":7:82   */\n    tag_131:\n        /* \"#utility.yul\":40:46   */\n      0x00\n        /* \"#utility.yul\":73:75   */\n      0x40\n        /* \"#utility.yul\":67:76   */\n      mload\n        /* \"#utility.yul\":57:76   */\n      swap1\n      pop\n        /* \"#utility.yul\":7:82   */\n      swap1\n      jump\t// out\n        /* \"#utility.yul\":88:205   */\n    tag_132:\n        /* \"#utility.yul\":197:198   */\n      0x00\n        /* \"#utility.yul\":194:195   */\n      dup1\n        /* \"#utility.yul\":187:199   */\n      revert\n        /* \"#utility.yul\":334:451   */\n    tag_134:\n        /* \"#utility.yul\":443:444   */\n      0x00\n        /* \"#utility.yul\":440:441   */\n      dup1\n        /* \"#utility.yul\":433:445   */\n      revert\n        /* \"#utility.yul\":457:559   */\n    tag_135:\n        /* \"#utility.yul\":498:504   */\n      0x00\n        /* \"#utility.yul\":549:551   */\n      0x1f\n        /* \"#utility.yul\":545:552   */\n      not\n        /* \"#utility.yul\":540:542   */\n      0x1f\n        /* \"#utility.yul\":533:538   */\n      dup4\n        /* \"#utility.yul\":529:543   */\n      add\n        /* \"#utility.yul\":525:553   */\n      and\n        /* \"#utility.yul\":515:553   */\n      swap1\n      pop\n        /* \"#utility.yul\":457:559   */\n      swap2\n      swap1\n      pop\n      jump\t// out\n        /* \"#utility.yul\":565:745   */\n    tag_136:\n        /* \"#utility.yul\":613:690   */\n      0x4e487b7100000000000000000000000000000000000000000000000000000000\n        /* \"#utility.yul\":610:611   */\n      0x00\n        /* \"#utility.yul\":603:691   */\n      mstore\n        /* \"#utility.yul\":710:714   */\n      0x41\n        /* \"#utility.yul\":707:708   */\n      0x04\n        /* \"#utility.yul\":700:715   */\n      mstore\n        /* \"#utility.yul\":734:738   */\n      0x24\n        /* \"#utility.yul\":731:732   */\n      0x00\n        /* \"#utility.yul\":724:739   */\n      revert\n        /* \"#utility.yul\":751:1032   */\n    tag_137:\n        /* \"#utility.yul\":834:861   */\n      tag_166\n        /* \"#utility.yul\":856:860   */\n      dup3\n        /* \"#utility.yul\":834:861   */\n      tag_135\n      jump\t// in\n    tag_166:\n        /* \"#utility.yul\":826:832   */\n      dup2\n        /* \"#utility.yul\":822:862   */\n      add\n        /* \"#utility.yul\":964:970   */\n      dup2\n        /* \"#utility.yul\":952:962   */\n      dup2\n        /* \"#utility.yul\":949:971   */\n      lt\n        /* \"#utility.yul\":928:946   */\n      0xffffffffffffffff\n        /* \"#utility.yul\":916:926   */\n      dup3\n        /* \"#utility.yul\":913:947   */\n      gt\n        /* \"#utility.yul\":910:972   */\n      or\n        /* \"#utility.yul\":907:995   */\n      iszero\n      tag_167\n      jumpi\n        /* \"#utility.yul\":975:993   */\n      tag_168\n      tag_136\n      jump\t// in\n    tag_168:\n        /* \"#utility.yul\":907:995   */\n    tag_167:\n        /* \"#utility.yul\":1015:1025   */\n      dup1\n        /* \"#utility.yul\":1011:1013   */\n      0x40\n        /* \"#utility.yul\":1004:1026   */\n      mstore\n        /* \"#utility.yul\":794:1032   */\n      pop\n        /* \"#utility.yul\":751:1032   */\n      pop\n      pop\n      jump\t// out\n        /* \"#utility.yul\":1038:1167   */\n    tag_138:\n        /* \"#utility.yul\":1072:1078   */\n      0x00\n        /* \"#utility.yul\":1099:1119   */\n      tag_170\n      tag_131\n      jump\t// in\n    tag_170:\n        /* \"#utility.yul\":1089:1119   */\n      swap1\n      pop\n        /* \"#utility.yul\":1128:1161   */\n      tag_171\n        /* \"#utility.yul\":1156:1160   */\n      dup3\n        /* \"#utility.yul\":1148:1154   */\n      dup3\n        /* \"#utility.yul\":1128:1161   */\n      tag_137\n      jump\t// in\n    tag_171:\n        /* \"#utility.yul\":1038:1167   */\n      swap2\n      swap1\n      pop\n      jump\t// out\n        /* \"#utility.yul\":1296:1373   */\n    tag_140:\n        /* \"#utility.yul\":1333:1340   */\n      0x00\n        /* \"#utility.yul\":1362:1367   */\n      dup2\n        /* \"#utility.yul\":1351:1367   */\n      swap1\n      pop\n        /* \"#utility.yul\":1296:1373   */\n      swap2\n      swap1\n      pop\n      jump\t// out\n        /* \"#utility.yul\":1379:1501   */\n    tag_141:\n        /* \"#utility.yul\":1452:1476   */\n      tag_175\n        /* \"#utility.yul\":1470:1475   */\n      dup2\n        /* \"#utility.yul\":1452:1476   */\n      tag_140\n      jump\t// in\n    tag_175:\n        /* \"#utility.yul\":1445:1450   */\n      dup2\n        /* \"#utility.yul\":1442:1477   */\n      eq\n        /* \"#utility.yul\":1432:1495   */\n      tag_176\n      jumpi\n        /* \"#utility.yul\":1491:1492   */\n      0x00\n        /* \"#utility.yul\":1488:1489   */\n      dup1\n        /* \"#utility.yul\":1481:1493   */\n      revert\n        /* \"#utility.yul\":1432:1495   */\n    tag_176:\n        /* \"#utility.yul\":1379:1501   */\n      pop\n      jump\t// out\n        /* \"#utility.yul\":1507:1646   */\n    tag_142:\n        /* \"#utility.yul\":1553:1558   */\n      0x00\n        /* \"#utility.yul\":1591:1597   */\n      dup2\n        /* \"#utility.yul\":1578:1598   */\n      calldataload\n        /* \"#utility.yul\":1569:1598   */\n      swap1\n      pop\n        /* \"#utility.yul\":1607:1640   */\n      tag_178\n        /* \"#utility.yul\":1634:1639   */\n      dup2\n        /* \"#utility.yul\":1607:1640   */\n      tag_141\n      jump\t// in\n    tag_178:\n        /* \"#utility.yul\":1507:1646   */\n      swap3\n      swap2\n      pop\n      pop\n      jump\t// out\n        /* \"#utility.yul\":1652:1738   */\n    tag_143:\n        /* \"#utility.yul\":1687:1694   */\n      0x00\n        /* \"#utility.yul\":1727:1731   */\n      0xff\n        /* \"#utility.yul\":1720:1725   */\n      dup3\n        /* \"#utility.yul\":1716:1732   */\n      and\n        /* \"#utility.yul\":1705:1732   */\n      swap1\n      pop\n        /* \"#utility.yul\":1652:1738   */\n      swap2\n      swap1\n      pop\n      jump\t// out\n        /* \"#utility.yul\":1744:1862   */\n    tag_144:\n        /* \"#utility.yul\":1815:1837   */\n      tag_181\n        /* \"#utility.yul\":1831:1836   */\n      dup2\n        /* \"#utility.yul\":1815:1837   */\n      tag_143\n      jump\t// in\n    tag_181:\n        /* \"#utility.yul\":1808:1813   */\n      dup2\n        /* \"#utility.yul\":1805:1838   */\n      eq\n        /* \"#utility.yul\":1795:1856   */\n      tag_182\n      jumpi\n        /* \"#utility.yul\":1852:1853   */\n      0x00\n        /* \"#utility.yul\":1849:1850   */\n      dup1\n        /* \"#utility.yul\":1842:1854   */\n      revert\n        /* \"#utility.yul\":1795:1856   */\n    tag_182:\n        /* \"#utility.yul\":1744:1862   */\n      pop\n      jump\t// out\n        /* \"#utility.yul\":1868:2003   */\n    tag_145:\n        /* \"#utility.yul\":1912:1917   */\n      0x00\n        /* \"#utility.yul\":1950:1956   */\n      dup2\n        /* \"#utility.yul\":1937:1957   */\n      calldataload\n        /* \"#utility.yul\":1928:1957   */\n      swap1\n      pop\n        /* \"#utility.yul\":1966:1997   */\n      tag_184\n        /* \"#utility.yul\":1991:1996   */\n      dup2\n        /* \"#utility.yul\":1966:1997   */\n      tag_144\n      jump\t// in\n    tag_184:\n        /* \"#utility.yul\":1868:2003   */\n      swap3\n      swap2\n      pop\n      pop\n      jump\t// out\n        /* \"#utility.yul\":2039:2621   */\n    tag_146:\n        /* \"#utility.yul\":2118:2123   */\n      0x00\n        /* \"#utility.yul\":2162:2166   */\n      0x40\n        /* \"#utility.yul\":2150:2159   */\n      dup3\n        /* \"#utility.yul\":2145:2148   */\n      dup5\n        /* \"#utility.yul\":2141:2160   */\n      sub\n        /* \"#utility.yul\":2137:2167   */\n      slt\n        /* \"#utility.yul\":2134:2251   */\n      iszero\n      tag_186\n      jumpi\n        /* \"#utility.yul\":2170:2249   */\n      tag_187\n      tag_134\n      jump\t// in\n    tag_187:\n        /* \"#utility.yul\":2134:2251   */\n    tag_186:\n        /* \"#utility.yul\":2269:2290   */\n      tag_188\n        /* \"#utility.yul\":2285:2289   */\n      0x40\n        /* \"#utility.yul\":2269:2290   */\n      tag_138\n      jump\t// in\n    tag_188:\n        /* \"#utility.yul\":2260:2290   */\n      swap1\n      pop\n        /* \"#utility.yul\":2350:2351   */\n      0x00\n        /* \"#utility.yul\":2390:2439   */\n      tag_189\n        /* \"#utility.yul\":2435:2438   */\n      dup5\n        /* \"#utility.yul\":2426:2432   */\n      dup3\n        /* \"#utility.yul\":2415:2424   */\n      dup6\n        /* \"#utility.yul\":2411:2433   */\n      add\n        /* \"#utility.yul\":2390:2439   */\n      tag_142\n      jump\t// in\n    tag_189:\n        /* \"#utility.yul\":2383:2387   */\n      0x00\n        /* \"#utility.yul\":2376:2381   */\n      dup4\n        /* \"#utility.yul\":2372:2388   */\n      add\n        /* \"#utility.yul\":2365:2440   */\n      mstore\n        /* \"#utility.yul\":2300:2451   */\n      pop\n        /* \"#utility.yul\":2514:2516   */\n      0x20\n        /* \"#utility.yul\":2555:2602   */\n      tag_190\n        /* \"#utility.yul\":2598:2601   */\n      dup5\n        /* \"#utility.yul\":2589:2595   */\n      dup3\n        /* \"#utility.yul\":2578:2587   */\n      dup6\n        /* \"#utility.yul\":2574:2596   */\n      add\n        /* \"#utility.yul\":2555:2602   */\n      tag_145\n      jump\t// in\n    tag_190:\n        /* \"#utility.yul\":2548:2552   */\n      0x20\n        /* \"#utility.yul\":2541:2546   */\n      dup4\n        /* \"#utility.yul\":2537:2553   */\n      add\n        /* \"#utility.yul\":2530:2603   */\n      mstore\n        /* \"#utility.yul\":2461:2614   */\n      pop\n        /* \"#utility.yul\":2039:2621   */\n      swap3\n      swap2\n      pop\n      pop\n      jump\t// out\n        /* \"#utility.yul\":2627:3222   */\n    tag_14:\n        /* \"#utility.yul\":2755:2761   */\n      0x00\n        /* \"#utility.yul\":2763:2769   */\n      dup1\n        /* \"#utility.yul\":2812:2815   */\n      0x80\n        /* \"#utility.yul\":2800:2809   */\n      dup4\n        /* \"#utility.yul\":2791:2798   */\n      dup6\n        /* \"#utility.yul\":2787:2810   */\n      sub\n        /* \"#utility.yul\":2783:2816   */\n      slt\n        /* \"#utility.yul\":2780:2900   */\n      iszero\n      tag_192\n      jumpi\n        /* \"#utility.yul\":2819:2898   */\n      tag_193\n      tag_132\n      jump\t// in\n    tag_193:\n        /* \"#utility.yul\":2780:2900   */\n    tag_192:\n        /* \"#utility.yul\":2939:2940   */\n      0x00\n        /* \"#utility.yul\":2964:3047   */\n      tag_194\n        /* \"#utility.yul\":3039:3046   */\n      dup6\n        /* \"#utility.yul\":3030:3036   */\n      dup3\n        /* \"#utility.yul\":3019:3028   */\n      dup7\n        /* \"#utility.yul\":3015:3037   */\n      add\n        /* \"#utility.yul\":2964:3047   */\n      tag_146\n      jump\t// in\n    tag_194:\n        /* \"#utility.yul\":2954:3047   */\n      swap3\n      pop\n        /* \"#utility.yul\":2910:3057   */\n      pop\n        /* \"#utility.yul\":3096:3098   */\n      0x40\n        /* \"#utility.yul\":3122:3205   */\n      tag_195\n        /* \"#utility.yul\":3197:3204   */\n      dup6\n        /* \"#utility.yul\":3188:3194   */\n      dup3\n        /* \"#utility.yul\":3177:3186   */\n      dup7\n        /* \"#utility.yul\":3173:3195   */\n      add\n        /* \"#utility.yul\":3122:3205   */\n      tag_146\n      jump\t// in\n    tag_195:\n        /* \"#utility.yul\":3112:3205   */\n      swap2\n      pop\n        /* \"#utility.yul\":3067:3215   */\n      pop\n        /* \"#utility.yul\":2627:3222   */\n      swap3\n      pop\n      swap3\n      swap1\n      pop\n      jump\t// out\n        /* \"#utility.yul\":3228:3336   */\n    tag_147:\n        /* \"#utility.yul\":3305:3329   */\n      tag_197\n        /* \"#utility.yul\":3323:3328   */\n      dup2\n        /* \"#utility.yul\":3305:3329   */\n      tag_140\n      jump\t// in\n    tag_197:\n        /* \"#utility.yul\":3300:3303   */\n      dup3\n        /* \"#utility.yul\":3293:3330   */\n      mstore\n        /* \"#utility.yul\":3228:3336   */\n      pop\n      pop\n      jump\t// out\n        /* \"#utility.yul\":3342:3444   */\n    tag_148:\n        /* \"#utility.yul\":3415:3437   */\n      tag_199\n        /* \"#utility.yul\":3431:3436   */\n      dup2\n        /* \"#utility.yul\":3415:3437   */\n      tag_143\n      jump\t// in\n    tag_199:\n        /* \"#utility.yul\":3410:3413   */\n      dup3\n        /* \"#utility.yul\":3403:3438   */\n      mstore\n        /* \"#utility.yul\":3342:3444   */\n      pop\n      pop\n      jump\t// out\n        /* \"#utility.yul\":3506:4024   */\n    tag_149:\n        /* \"#utility.yul\":3663:3667   */\n      0x40\n        /* \"#utility.yul\":3658:3661   */\n      dup3\n        /* \"#utility.yul\":3654:3668   */\n      add\n        /* \"#utility.yul\":3751:3755   */\n      0x00\n        /* \"#utility.yul\":3744:3749   */\n      dup3\n        /* \"#utility.yul\":3740:3756   */\n      add\n        /* \"#utility.yul\":3734:3757   */\n      mload\n        /* \"#utility.yul\":3770:3833   */\n      tag_201\n        /* \"#utility.yul\":3827:3831   */\n      0x00\n        /* \"#utility.yul\":3822:3825   */\n      dup6\n        /* \"#utility.yul\":3818:3832   */\n      add\n        /* \"#utility.yul\":3804:3816   */\n      dup3\n        /* \"#utility.yul\":3770:3833   */\n      tag_147\n      jump\t// in\n    tag_201:\n        /* \"#utility.yul\":3678:3843   */\n      pop\n        /* \"#utility.yul\":3929:3933   */\n      0x20\n        /* \"#utility.yul\":3922:3927   */\n      dup3\n        /* \"#utility.yul\":3918:3934   */\n      add\n        /* \"#utility.yul\":3912:3935   */\n      mload\n        /* \"#utility.yul\":3948:4007   */\n      tag_202\n        /* \"#utility.yul\":4001:4005   */\n      0x20\n        /* \"#utility.yul\":3996:3999   */\n      dup6\n        /* \"#utility.yul\":3992:4006   */\n      add\n        /* \"#utility.yul\":3978:3990   */\n      dup3\n        /* \"#utility.yul\":3948:4007   */\n      tag_148\n      jump\t// in\n    tag_202:\n        /* \"#utility.yul\":3853:4017   */\n      pop\n        /* \"#utility.yul\":3632:4024   */\n      pop\n        /* \"#utility.yul\":3506:4024   */\n      pop\n      pop\n      jump\t// out\n        /* \"#utility.yul\":4030:4372   */\n    tag_17:\n        /* \"#utility.yul\":4183:4187   */\n      0x00\n        /* \"#utility.yul\":4221:4223   */\n      0x40\n        /* \"#utility.yul\":4210:4219   */\n      dup3\n        /* \"#utility.yul\":4206:4224   */\n      add\n        /* \"#utility.yul\":4198:4224   */\n      swap1\n      pop\n        /* \"#utility.yul\":4234:4365   */\n      tag_204\n        /* \"#utility.yul\":4362:4363   */\n      0x00\n        /* \"#utility.yul\":4351:4360   */\n      dup4\n        /* \"#utility.yul\":4347:4364   */\n      add\n        /* \"#utility.yul\":4338:4344   */\n      dup5\n        /* \"#utility.yul\":4234:4365   */\n      tag_149\n      jump\t// in\n    tag_204:\n        /* \"#utility.yul\":4030:4372   */\n      swap3\n      swap2\n      pop\n      pop\n      jump\t// out\n        /* \"#utility.yul\":4378:4767   */\n    tag_20:\n        /* \"#utility.yul\":4467:4473   */\n      0x00\n        /* \"#utility.yul\":4516:4518   */\n      0x40\n        /* \"#utility.yul\":4504:4513   */\n      dup3\n        /* \"#utility.yul\":4495:4502   */\n      dup5\n        /* \"#utility.yul\":4491:4514   */\n      sub\n        /* \"#utility.yul\":4487:4519   */\n      slt\n        /* \"#utility.yul\":4484:4603   */\n      iszero\n      tag_206\n      jumpi\n        /* \"#utility.yul\":4522:4601   */\n      tag_207\n      tag_132\n      jump\t// in\n    tag_207:\n        /* \"#utility.yul\":4484:4603   */\n    tag_206:\n        /* \"#utility.yul\":4642:4643   */\n      0x00\n        /* \"#utility.yul\":4667:4750   */\n      tag_208\n        /* \"#utility.yul\":4742:4749   */\n      dup5\n        /* \"#utility.yul\":4733:4739   */\n      dup3\n        /* \"#utility.yul\":4722:4731   */\n      dup6\n        /* \"#utility.yul\":4718:4740   */\n      add\n        /* \"#utility.yul\":4667:4750   */\n      tag_146\n      jump\t// in\n    tag_208:\n        /* \"#utility.yul\":4657:4750   */\n      swap2\n      pop\n        /* \"#utility.yul\":4613:4760   */\n      pop\n        /* \"#utility.yul\":4378:4767   */\n      swap3\n      swap2\n      pop\n      pop\n      jump\t// out\n        /* \"#utility.yul\":4773:5303   */\n    tag_33:\n        /* \"#utility.yul\":4869:4875   */\n      0x00\n        /* \"#utility.yul\":4877:4883   */\n      dup1\n        /* \"#utility.yul\":4926:4928   */\n      0x60\n        /* \"#utility.yul\":4914:4923   */\n      dup4\n        /* \"#utility.yul\":4905:4912   */\n      dup6\n        /* \"#utility.yul\":4901:4924   */\n      sub\n        /* \"#utility.yul\":4897:4929   */\n      slt\n        /* \"#utility.yul\":4894:5013   */\n      iszero\n      tag_210\n      jumpi\n        /* \"#utility.yul\":4932:5011   */\n      tag_211\n      tag_132\n      jump\t// in\n    tag_211:\n        /* \"#utility.yul\":4894:5013   */\n    tag_210:\n        /* \"#utility.yul\":5052:5053   */\n      0x00\n        /* \"#utility.yul\":5077:5160   */\n      tag_212\n        /* \"#utility.yul\":5152:5159   */\n      dup6\n        /* \"#utility.yul\":5143:5149   */\n      dup3\n        /* \"#utility.yul\":5132:5141   */\n      dup7\n        /* \"#utility.yul\":5128:5150   */\n      add\n        /* \"#utility.yul\":5077:5160   */\n      tag_146\n      jump\t// in\n    tag_212:\n        /* \"#utility.yul\":5067:5160   */\n      swap3\n      pop\n        /* \"#utility.yul\":5023:5170   */\n      pop\n        /* \"#utility.yul\":5209:5211   */\n      0x40\n        /* \"#utility.yul\":5235:5286   */\n      tag_213\n        /* \"#utility.yul\":5278:5285   */\n      dup6\n        /* \"#utility.yul\":5269:5275   */\n      dup3\n        /* \"#utility.yul\":5258:5267   */\n      dup7\n        /* \"#utility.yul\":5254:5276   */\n      add\n        /* \"#utility.yul\":5235:5286   */\n      tag_145\n      jump\t// in\n    tag_213:\n        /* \"#utility.yul\":5225:5286   */\n      swap2\n      pop\n        /* \"#utility.yul\":5180:5296   */\n      pop\n        /* \"#utility.yul\":4773:5303   */\n      swap3\n      pop\n      swap3\n      swap1\n      pop\n      jump\t// out\n        /* \"#utility.yul\":5309:5421   */\n    tag_150:\n        /* \"#utility.yul\":5392:5414   */\n      tag_215\n        /* \"#utility.yul\":5408:5413   */\n      dup2\n        /* \"#utility.yul\":5392:5414   */\n      tag_143\n      jump\t// in\n    tag_215:\n        /* \"#utility.yul\":5387:5390   */\n      dup3\n        /* \"#utility.yul\":5380:5415   */\n      mstore\n        /* \"#utility.yul\":5309:5421   */\n      pop\n      pop\n      jump\t// out\n        /* \"#utility.yul\":5427:5743   */\n    tag_53:\n        /* \"#utility.yul\":5540:5544   */\n      0x00\n        /* \"#utility.yul\":5578:5580   */\n      0x40\n        /* \"#utility.yul\":5567:5576   */\n      dup3\n        /* \"#utility.yul\":5563:5581   */\n      add\n        /* \"#utility.yul\":5555:5581   */\n      swap1\n      pop\n        /* \"#utility.yul\":5591:5658   */\n      tag_217\n        /* \"#utility.yul\":5655:5656   */\n      0x00\n        /* \"#utility.yul\":5644:5653   */\n      dup4\n        /* \"#utility.yul\":5640:5657   */\n      add\n        /* \"#utility.yul\":5631:5637   */\n      dup6\n        /* \"#utility.yul\":5591:5658   */\n      tag_150\n      jump\t// in\n    tag_217:\n        /* \"#utility.yul\":5668:5736   */\n      tag_218\n        /* \"#utility.yul\":5732:5734   */\n      0x20\n        /* \"#utility.yul\":5721:5730   */\n      dup4\n        /* \"#utility.yul\":5717:5735   */\n      add\n        /* \"#utility.yul\":5708:5714   */\n      dup5\n        /* \"#utility.yul\":5668:5736   */\n      tag_150\n      jump\t// in\n    tag_218:\n        /* \"#utility.yul\":5427:5743   */\n      swap4\n      swap3\n      pop\n      pop\n      pop\n      jump\t// out\n        /* \"#utility.yul\":5749:5929   */\n    tag_151:\n        /* \"#utility.yul\":5797:5874   */\n      0x4e487b7100000000000000000000000000000000000000000000000000000000\n        /* \"#utility.yul\":5794:5795   */\n      0x00\n        /* \"#utility.yul\":5787:5875   */\n      mstore\n        /* \"#utility.yul\":5894:5898   */\n      0x11\n        /* \"#utility.yul\":5891:5892   */\n      0x04\n        /* \"#utility.yul\":5884:5899   */\n      mstore\n        /* \"#utility.yul\":5918:5922   */\n      0x24\n        /* \"#utility.yul\":5915:5916   */\n      0x00\n        /* \"#utility.yul\":5908:5923   */\n      revert\n        /* \"#utility.yul\":5935:6129   */\n    tag_56:\n        /* \"#utility.yul\":5975:5979   */\n      0x00\n        /* \"#utility.yul\":5995:6015   */\n      tag_221\n        /* \"#utility.yul\":6013:6014   */\n      dup3\n        /* \"#utility.yul\":5995:6015   */\n      tag_140\n      jump\t// in\n    tag_221:\n        /* \"#utility.yul\":5990:6015   */\n      swap2\n      pop\n        /* \"#utility.yul\":6029:6049   */\n      tag_222\n        /* \"#utility.yul\":6047:6048   */\n      dup4\n        /* \"#utility.yul\":6029:6049   */\n      tag_140\n      jump\t// in\n    tag_222:\n        /* \"#utility.yul\":6024:6049   */\n      swap3\n      pop\n        /* \"#utility.yul\":6073:6074   */\n      dup3\n        /* \"#utility.yul\":6070:6071   */\n      dup3\n        /* \"#utility.yul\":6066:6075   */\n      sub\n        /* \"#utility.yul\":6058:6075   */\n      swap1\n      pop\n        /* \"#utility.yul\":6097:6098   */\n      dup2\n        /* \"#utility.yul\":6091:6095   */\n      dup2\n        /* \"#utility.yul\":6088:6099   */\n      gt\n        /* \"#utility.yul\":6085:6122   */\n      iszero\n      tag_223\n      jumpi\n        /* \"#utility.yul\":6102:6120   */\n      tag_224\n      tag_151\n      jump\t// in\n    tag_224:\n        /* \"#utility.yul\":6085:6122   */\n    tag_223:\n        /* \"#utility.yul\":5935:6129   */\n      swap3\n      swap2\n      pop\n      pop\n      jump\t// out\n        /* \"#utility.yul\":6135:6237   */\n    tag_152:\n        /* \"#utility.yul\":6177:6185   */\n      0x00\n        /* \"#utility.yul\":6224:6229   */\n      dup2\n        /* \"#utility.yul\":6221:6222   */\n      0x01\n        /* \"#utility.yul\":6217:6230   */\n      shr\n        /* \"#utility.yul\":6196:6230   */\n      swap1\n      pop\n        /* \"#utility.yul\":6135:6237   */\n      swap2\n      swap1\n      pop\n      jump\t// out\n        /* \"#utility.yul\":6243:7091   */\n    tag_153:\n        /* \"#utility.yul\":6304:6309   */\n      0x00\n        /* \"#utility.yul\":6311:6315   */\n      dup1\n        /* \"#utility.yul\":6335:6341   */\n      dup3\n        /* \"#utility.yul\":6326:6341   */\n      swap2\n      pop\n        /* \"#utility.yul\":6359:6364   */\n      dup4\n        /* \"#utility.yul\":6350:6364   */\n      swap1\n      pop\n        /* \"#utility.yul\":6373:7085   */\n    tag_227:\n        /* \"#utility.yul\":6394:6395   */\n      0x01\n        /* \"#utility.yul\":6384:6392   */\n      dup6\n        /* \"#utility.yul\":6381:6396   */\n      gt\n        /* \"#utility.yul\":6373:7085   */\n      iszero\n      tag_229\n      jumpi\n        /* \"#utility.yul\":6489:6493   */\n      dup1\n        /* \"#utility.yul\":6484:6487   */\n      dup7\n        /* \"#utility.yul\":6480:6494   */\n      div\n        /* \"#utility.yul\":6474:6478   */\n      dup2\n        /* \"#utility.yul\":6471:6495   */\n      gt\n        /* \"#utility.yul\":6468:6518   */\n      iszero\n      tag_230\n      jumpi\n        /* \"#utility.yul\":6498:6516   */\n      tag_231\n      tag_151\n      jump\t// in\n    tag_231:\n        /* \"#utility.yul\":6468:6518   */\n    tag_230:\n        /* \"#utility.yul\":6548:6549   */\n      0x01\n        /* \"#utility.yul\":6538:6546   */\n      dup6\n        /* \"#utility.yul\":6534:6550   */\n      and\n        /* \"#utility.yul\":6531:6982   */\n      iszero\n      tag_232\n      jumpi\n        /* \"#utility.yul\":6963:6967   */\n      dup1\n        /* \"#utility.yul\":6956:6961   */\n      dup3\n        /* \"#utility.yul\":6952:6968   */\n      mul\n        /* \"#utility.yul\":6943:6968   */\n      swap2\n      pop\n        /* \"#utility.yul\":6531:6982   */\n    tag_232:\n        /* \"#utility.yul\":7013:7017   */\n      dup1\n        /* \"#utility.yul\":7007:7011   */\n      dup2\n        /* \"#utility.yul\":7003:7018   */\n      mul\n        /* \"#utility.yul\":6995:7018   */\n      swap1\n      pop\n        /* \"#utility.yul\":7043:7075   */\n      tag_233\n        /* \"#utility.yul\":7066:7074   */\n      dup6\n        /* \"#utility.yul\":7043:7075   */\n      tag_152\n      jump\t// in\n    tag_233:\n        /* \"#utility.yul\":7031:7075   */\n      swap5\n      pop\n        /* \"#utility.yul\":6373:7085   */\n      jump(tag_227)\n    tag_229:\n        /* \"#utility.yul\":6243:7091   */\n      swap5\n      pop\n      swap5\n      swap3\n      pop\n      pop\n      pop\n      jump\t// out\n        /* \"#utility.yul\":7097:8170   */\n    tag_154:\n        /* \"#utility.yul\":7151:7156   */\n      0x00\n        /* \"#utility.yul\":7342:7350   */\n      dup3\n        /* \"#utility.yul\":7332:7372   */\n      tag_235\n      jumpi\n        /* \"#utility.yul\":7363:7364   */\n      0x01\n        /* \"#utility.yul\":7354:7364   */\n      swap1\n      pop\n        /* \"#utility.yul\":7365:7370   */\n      jump(tag_234)\n        /* \"#utility.yul\":7332:7372   */\n    tag_235:\n        /* \"#utility.yul\":7391:7395   */\n      dup2\n        /* \"#utility.yul\":7381:7417   */\n      tag_236\n      jumpi\n        /* \"#utility.yul\":7408:7409   */\n      0x00\n        /* \"#utility.yul\":7399:7409   */\n      swap1\n      pop\n        /* \"#utility.yul\":7410:7415   */\n      jump(tag_234)\n        /* \"#utility.yul\":7381:7417   */\n    tag_236:\n        /* \"#utility.yul\":7477:7481   */\n      dup2\n        /* \"#utility.yul\":7525:7526   */\n      0x01\n        /* \"#utility.yul\":7520:7547   */\n      dup2\n      eq\n      tag_238\n      jumpi\n        /* \"#utility.yul\":7561:7562   */\n      0x02\n        /* \"#utility.yul\":7556:7747   */\n      dup2\n      eq\n      tag_239\n      jumpi\n        /* \"#utility.yul\":7470:7747   */\n      jump(tag_237)\n        /* \"#utility.yul\":7520:7547   */\n    tag_238:\n        /* \"#utility.yul\":7538:7539   */\n      0x01\n        /* \"#utility.yul\":7529:7539   */\n      swap2\n      pop\n        /* \"#utility.yul\":7540:7545   */\n      pop\n      jump(tag_234)\n        /* \"#utility.yul\":7556:7747   */\n    tag_239:\n        /* \"#utility.yul\":7601:7604   */\n      0xff\n        /* \"#utility.yul\":7591:7599   */\n      dup5\n        /* \"#utility.yul\":7588:7605   */\n      gt\n        /* \"#utility.yul\":7585:7628   */\n      iszero\n      tag_240\n      jumpi\n        /* \"#utility.yul\":7608:7626   */\n      tag_241\n      tag_151\n      jump\t// in\n    tag_241:\n        /* \"#utility.yul\":7585:7628   */\n    tag_240:\n        /* \"#utility.yul\":7657:7665   */\n      dup4\n        /* \"#utility.yul\":7654:7655   */\n      0x02\n        /* \"#utility.yul\":7650:7666   */\n      exp\n        /* \"#utility.yul\":7641:7666   */\n      swap2\n      pop\n        /* \"#utility.yul\":7692:7695   */\n      dup5\n        /* \"#utility.yul\":7685:7690   */\n      dup3\n        /* \"#utility.yul\":7682:7696   */\n      gt\n        /* \"#utility.yul\":7679:7719   */\n      iszero\n      tag_242\n      jumpi\n        /* \"#utility.yul\":7699:7717   */\n      tag_243\n      tag_151\n      jump\t// in\n    tag_243:\n        /* \"#utility.yul\":7679:7719   */\n    tag_242:\n        /* \"#utility.yul\":7732:7737   */\n      pop\n      jump(tag_234)\n        /* \"#utility.yul\":7470:7747   */\n    tag_237:\n      pop\n        /* \"#utility.yul\":7856:7858   */\n      0x20\n        /* \"#utility.yul\":7846:7854   */\n      dup4\n        /* \"#utility.yul\":7843:7859   */\n      lt\n        /* \"#utility.yul\":7837:7840   */\n      0x0133\n        /* \"#utility.yul\":7831:7835   */\n      dup4\n        /* \"#utility.yul\":7828:7841   */\n      lt\n        /* \"#utility.yul\":7824:7860   */\n      and\n        /* \"#utility.yul\":7806:7808   */\n      0x4e\n        /* \"#utility.yul\":7796:7804   */\n      dup5\n        /* \"#utility.yul\":7793:7809   */\n      lt\n        /* \"#utility.yul\":7788:7790   */\n      0x0b\n        /* \"#utility.yul\":7782:7786   */\n      dup5\n        /* \"#utility.yul\":7779:7791   */\n      lt\n        /* \"#utility.yul\":7775:7810   */\n      and\n        /* \"#utility.yul\":7759:7870   */\n      or\n        /* \"#utility.yul\":7756:8002   */\n      iszero\n      tag_244\n      jumpi\n        /* \"#utility.yul\":7912:7920   */\n      dup3\n        /* \"#utility.yul\":7906:7910   */\n      dup3\n        /* \"#utility.yul\":7902:7921   */\n      exp\n        /* \"#utility.yul\":7893:7921   */\n      swap1\n      pop\n        /* \"#utility.yul\":7947:7950   */\n      dup4\n        /* \"#utility.yul\":7940:7945   */\n      dup2\n        /* \"#utility.yul\":7937:7951   */\n      gt\n        /* \"#utility.yul\":7934:7974   */\n      iszero\n      tag_245\n      jumpi\n        /* \"#utility.yul\":7954:7972   */\n      tag_246\n      tag_151\n      jump\t// in\n    tag_246:\n        /* \"#utility.yul\":7934:7974   */\n    tag_245:\n        /* \"#utility.yul\":7987:7992   */\n      jump(tag_234)\n        /* \"#utility.yul\":7756:8002   */\n    tag_244:\n        /* \"#utility.yul\":8027:8069   */\n      tag_247\n        /* \"#utility.yul\":8065:8068   */\n      dup5\n        /* \"#utility.yul\":8055:8063   */\n      dup5\n        /* \"#utility.yul\":8049:8053   */\n      dup5\n        /* \"#utility.yul\":8046:8047   */\n      0x01\n        /* \"#utility.yul\":8027:8069   */\n      tag_153\n      jump\t// in\n    tag_247:\n        /* \"#utility.yul\":8012:8069   */\n      swap3\n      pop\n      swap1\n      pop\n        /* \"#utility.yul\":8101:8105   */\n      dup2\n        /* \"#utility.yul\":8096:8099   */\n      dup5\n        /* \"#utility.yul\":8092:8106   */\n      div\n        /* \"#utility.yul\":8085:8090   */\n      dup2\n        /* \"#utility.yul\":8082:8107   */\n      gt\n        /* \"#utility.yul\":8079:8130   */\n      iszero\n      tag_248\n      jumpi\n        /* \"#utility.yul\":8110:8128   */\n      tag_249\n      tag_151\n      jump\t// in\n    tag_249:\n        /* \"#utility.yul\":8079:8130   */\n    tag_248:\n        /* \"#utility.yul\":8159:8163   */\n      dup2\n        /* \"#utility.yul\":8152:8157   */\n      dup2\n        /* \"#utility.yul\":8148:8164   */\n      mul\n        /* \"#utility.yul\":8139:8164   */\n      swap1\n      pop\n        /* \"#utility.yul\":7097:8170   */\n    tag_234:\n      swap4\n      swap3\n      pop\n      pop\n      pop\n      jump\t// out\n        /* \"#utility.yul\":8176:8457   */\n    tag_60:\n        /* \"#utility.yul\":8234:8239   */\n      0x00\n        /* \"#utility.yul\":8258:8281   */\n      tag_251\n        /* \"#utility.yul\":8276:8280   */\n      dup3\n        /* \"#utility.yul\":8258:8281   */\n      tag_140\n      jump\t// in\n    tag_251:\n        /* \"#utility.yul\":8250:8281   */\n      swap2\n      pop\n        /* \"#utility.yul\":8302:8327   */\n      tag_252\n        /* \"#utility.yul\":8318:8326   */\n      dup4\n        /* \"#utility.yul\":8302:8327   */\n      tag_143\n      jump\t// in\n    tag_252:\n        /* \"#utility.yul\":8290:8327   */\n      swap3\n      pop\n        /* \"#utility.yul\":8346:8450   */\n      tag_253\n        /* \"#utility.yul\":8383:8449   */\n      0xffffffffffffffffffffffffffffffffffffffffffffffffffffffffffffffff\n        /* \"#utility.yul\":8373:8381   */\n      dup5\n        /* \"#utility.yul\":8367:8371   */\n      dup5\n        /* \"#utility.yul\":8346:8450   */\n      tag_154\n      jump\t// in\n    tag_253:\n        /* \"#utility.yul\":8337:8450   */\n      swap1\n      pop\n        /* \"#utility.yul\":8176:8457   */\n      swap3\n      swap2\n      pop\n      pop\n      jump\t// out\n        /* \"#utility.yul\":8463:8873   */\n    tag_62:\n        /* \"#utility.yul\":8503:8510   */\n      0x00\n        /* \"#utility.yul\":8526:8546   */\n      tag_255\n        /* \"#utility.yul\":8544:8545   */\n      dup3\n        /* \"#utility.yul\":8526:8546   */\n      tag_140\n      jump\t// in\n    tag_255:\n        /* \"#utility.yul\":8521:8546   */\n      swap2\n      pop\n        /* \"#utility.yul\":8560:8580   */\n      tag_256\n        /* \"#utility.yul\":8578:8579   */\n      dup4\n        /* \"#utility.yul\":8560:8580   */\n      tag_140\n      jump\t// in\n    tag_256:\n        /* \"#utility.yul\":8555:8580   */\n      swap3\n      pop\n        /* \"#utility.yul\":8615:8616   */\n      dup3\n        /* \"#utility.yul\":8612:8613   */\n      dup3\n        /* \"#utility.yul\":8608:8617   */\n      mul\n        /* \"#utility.yul\":8637:8667   */\n      tag_257\n        /* \"#utility.yul\":8655:8666   */\n      dup2\n        /* \"#utility.yul\":8637:8667   */\n      tag_140\n      jump\t// in\n    tag_257:\n        /* \"#utility.yul\":8626:8667   */\n      swap2\n      pop\n        /* \"#utility.yul\":8816:8817   */\n      dup3\n        /* \"#utility.yul\":8807:8814   */\n      dup3\n        /* \"#utility.yul\":8803:8818   */\n      div\n        /* \"#utility.yul\":8800:8801   */\n      dup5\n        /* \"#utility.yul\":8797:8819   */\n      eq\n        /* \"#utility.yul\":8777:8778   */\n      dup4\n        /* \"#utility.yul\":8770:8779   */\n      iszero\n        /* \"#utility.yul\":8750:8833   */\n      or\n        /* \"#utility.yul\":8727:8866   */\n      tag_258\n      jumpi\n        /* \"#utility.yul\":8846:8864   */\n      tag_259\n      tag_151\n      jump\t// in\n    tag_259:\n        /* \"#utility.yul\":8727:8866   */\n    tag_258:\n        /* \"#utility.yul\":8511:8873   */\n      pop\n        /* \"#utility.yul\":8463:8873   */\n      swap3\n      swap2\n      pop\n      pop\n      jump\t// out\n        /* \"#utility.yul\":8879:9059   */\n    tag_127:\n        /* \"#utility.yul\":8927:9004   */\n      0x4e487b7100000000000000000000000000000000000000000000000000000000\n        /* \"#utility.yul\":8924:8925   */\n      0x00\n        /* \"#utility.yul\":8917:9005   */\n      mstore\n        /* \"#utility.yul\":9024:9028   */\n      0x12\n        /* \"#utility.yul\":9021:9022   */\n      0x04\n        /* \"#utility.yul\":9014:9029   */\n      mstore\n        /* \"#utility.yul\":9048:9052   */\n      0x24\n        /* \"#utility.yul\":9045:9046   */\n      0x00\n        /* \"#utility.yul\":9038:9053   */\n      revert\n        /* \"#utility.yul\":9065:9250   */\n    tag_64:\n        /* \"#utility.yul\":9105:9106   */\n      0x00\n        /* \"#utility.yul\":9122:9142   */\n      tag_262\n        /* \"#utility.yul\":9140:9141   */\n      dup3\n        /* \"#utility.yul\":9122:9142   */\n      tag_140\n      jump\t// in\n    tag_262:\n        /* \"#utility.yul\":9117:9142   */\n      swap2\n      pop\n        /* \"#utility.yul\":9156:9176   */\n      tag_263\n        /* \"#utility.yul\":9174:9175   */\n      dup4\n        /* \"#utility.yul\":9156:9176   */\n      tag_140\n      jump\t// in\n    tag_263:\n        /* \"#utility.yul\":9151:9176   */\n      swap3\n      pop\n        /* \"#utility.yul\":9195:9196   */\n      dup3\n        /* \"#utility.yul\":9185:9220   */\n      tag_264\n      jumpi\n        /* \"#utility.yul\":9200:9218   */\n      tag_265\n      tag_127\n      jump\t// in\n    tag_265:\n        /* \"#utility.yul\":9185:9220   */\n    tag_264:\n        /* \"#utility.yul\":9242:9243   */\n      dup3\n        /* \"#utility.yul\":9239:9240   */\n      dup3\n        /* \"#utility.yul\":9235:9244   */\n      div\n        /* \"#utility.yul\":9230:9244   */\n      swap1\n      pop\n        /* \"#utility.yul\":9065:9250   */\n      swap3\n      swap2\n      pop\n      pop\n      jump\t// out\n        /* \"#utility.yul\":9256:9447   */\n    tag_84:\n        /* \"#utility.yul\":9296:9299   */\n      0x00\n        /* \"#utility.yul\":9315:9335   */\n      tag_267\n        /* \"#utility.yul\":9333:9334   */\n      dup3\n        /* \"#utility.yul\":9315:9335   */\n      tag_140\n      jump\t// in\n    tag_267:\n        /* \"#utility.yul\":9310:9335   */\n      swap2\n      pop\n        /* \"#utility.yul\":9349:9369   */\n      tag_268\n        /* \"#utility.yul\":9367:9368   */\n      dup4\n        /* \"#utility.yul\":9349:9369   */\n      tag_140\n      jump\t// in\n    tag_268:\n        /* \"#utility.yul\":9344:9369   */\n      swap3\n      pop\n        /* \"#utility.yul\":9392:9393   */\n      dup3\n        /* \"#utility.yul\":9389:9390   */\n      dup3\n        /* \"#utility.yul\":9385:9394   */\n      add\n        /* \"#utility.yul\":9378:9394   */\n      swap1\n      pop\n        /* \"#utility.yul\":9413:9416   */\n      dup1\n        /* \"#utility.yul\":9410:9411   */\n      dup3\n        /* \"#utility.yul\":9407:9417   */\n      gt\n        /* \"#utility.yul\":9404:9440   */\n      iszero\n      tag_269\n      jumpi\n        /* \"#utility.yul\":9420:9438   */\n      tag_270\n      tag_151\n      jump\t// in\n    tag_270:\n        /* \"#utility.yul\":9404:9440   */\n    tag_269:\n        /* \"#utility.yul\":9256:9447   */\n      swap3\n      swap2\n      pop\n      pop\n      jump\t// out\n        /* \"#utility.yul\":9453:9622   */\n    tag_155:\n        /* \"#utility.yul\":9537:9548   */\n      0x00\n        /* \"#utility.yul\":9571:9577   */\n      dup3\n        /* \"#utility.yul\":9566:9569   */\n      dup3\n        /* \"#utility.yul\":9559:9578   */\n      mstore\n        /* \"#utility.yul\":9611:9615   */\n      0x20\n        /* \"#utility.yul\":9606:9609   */\n      dup3\n        /* \"#utility.yul\":9602:9616   */\n      add\n        /* \"#utility.yul\":9587:9616   */\n      swap1\n      pop\n        /* \"#utility.yul\":9453:9622   */\n      swap3\n      swap2\n      pop\n      pop\n      jump\t// out\n        /* \"#utility.yul\":9628:9799   */\n    tag_156:\n        /* \"#utility.yul\":9768:9791   */\n      0x4d6174683a206d756c446976206f766572666c6f770000000000000000000000\n        /* \"#utility.yul\":9764:9765   */\n      0x00\n        /* \"#utility.yul\":9756:9762   */\n      dup3\n        /* \"#utility.yul\":9752:9766   */\n      add\n        /* \"#utility.yul\":9745:9792   */\n      mstore\n        /* \"#utility.yul\":9628:9799   */\n      pop\n      jump\t// out\n        /* \"#utility.yul\":9805:10171   */\n    tag_157:\n        /* \"#utility.yul\":9947:9950   */\n      0x00\n        /* \"#utility.yul\":9968:10035   */\n      tag_274\n        /* \"#utility.yul\":10032:10034   */\n      0x15\n        /* \"#utility.yul\":10027:10030   */\n      dup4\n        /* \"#utility.yul\":9968:10035   */\n      tag_155\n      jump\t// in\n    tag_274:\n        /* \"#utility.yul\":9961:10035   */\n      swap2\n      pop\n        /* \"#utility.yul\":10044:10137   */\n      tag_275\n        /* \"#utility.yul\":10133:10136   */\n      dup3\n        /* \"#utility.yul\":10044:10137   */\n      tag_156\n      jump\t// in\n    tag_275:\n        /* \"#utility.yul\":10162:10164   */\n      0x20\n        /* \"#utility.yul\":10157:10160   */\n      dup3\n        /* \"#utility.yul\":10153:10165   */\n      add\n        /* \"#utility.yul\":10146:10165   */\n      swap1\n      pop\n        /* \"#utility.yul\":9805:10171   */\n      swap2\n      swap1\n      pop\n      jump\t// out\n        /* \"#utility.yul\":10177:10596   */\n    tag_130:\n        /* \"#utility.yul\":10343:10347   */\n      0x00\n        /* \"#utility.yul\":10381:10383   */\n      0x20\n        /* \"#utility.yul\":10370:10379   */\n      dup3\n        /* \"#utility.yul\":10366:10384   */\n      add\n        /* \"#utility.yul\":10358:10384   */\n      swap1\n      pop\n        /* \"#utility.yul\":10430:10439   */\n      dup2\n        /* \"#utility.yul\":10424:10428   */\n      dup2\n        /* \"#utility.yul\":10420:10440   */\n      sub\n        /* \"#utility.yul\":10416:10417   */\n      0x00\n        /* \"#utility.yul\":10405:10414   */\n      dup4\n        /* \"#utility.yul\":10401:10418   */\n      add\n        /* \"#utility.yul\":10394:10441   */\n      mstore\n        /* \"#utility.yul\":10458:10589   */\n      tag_277\n        /* \"#utility.yul\":10584:10588   */\n      dup2\n        /* \"#utility.yul\":10458:10589   */\n      tag_157\n      jump\t// in\n    tag_277:\n        /* \"#utility.yul\":10450:10589   */\n      swap1\n      pop\n        /* \"#utility.yul\":10177:10596   */\n      swap2\n      swap1\n      pop\n      jump\t// out\n\n    auxdata: 0xa264697066735822122048185644a88b525690311361ff88e89d79227c1ed2f6dd26a7d5520297f1350864736f6c63430008130033\n}\n",
				"bytecode": {
					"linkReferences": {},
					"object": "608060405234801561001057600080fd5b50610f9e806100206000396000f3fe608060405234801561001057600080fd5b50600436106100885760003560e01c80637d02ebf41161005b5780637d02ebf41461014d5780638444b8131461017d578063a7e7c9f9146101ad578063e51356e8146101dd57610088565b80632833d1f01461008d5780633e60d8e0146100bd5780634b602c6d146100ed578063586336351461011d575b600080fd5b6100a760048036038101906100a29190610ae7565b61020d565b6040516100b49190610b74565b60405180910390f35b6100d760048036038101906100d29190610b8f565b6102c5565b6040516100e49190610b74565b60405180910390f35b61010760048036038101906101029190610ae7565b61034e565b6040516101149190610b74565b60405180910390f35b61013760048036038101906101329190610ae7565b61042e565b6040516101449190610b74565b60405180910390f35b61016760048036038101906101629190610bbc565b6104e6565b6040516101749190610b74565b60405180910390f35b61019760048036038101906101929190610ae7565b610596565b6040516101a49190610b74565b60405180910390f35b6101c760048036038101906101c29190610ae7565b610669565b6040516101d49190610b74565b60405180910390f35b6101f760048036038101906101f29190610ae7565b61077a565b6040516102049190610b74565b60405180910390f35b61021561096b565b828260008083602001519150826020015190508060ff168260ff16146102745781816040517f5bc4748600000000000000000000000000000000000000000000000000000000815260040161026b929190610c0b565b60405180910390fd5b6000806000808a6020015193508a60000151925089600001519150818361029b9190610c63565b905060405180604001604052808281526020018560ff168152509850505050505050505092915050565b6102cd61096b565b60008060008460200151925084600001519150670de0b6b3a76400008084600a6102f79190610dca565b670de0b6b3a76400008561030b9190610e15565b6103159190610e86565b61031f9190610e15565b6103299190610e86565b90506040518060400160405280828152602001601260ff168152509350505050919050565b61035661096b565b828260008083602001519150826020015190508060ff168260ff16146103b55781816040517f5bc474860000000000000000000000000000000000000000000000000000000081526004016103ac929190610c0b565b60405180910390fd5b6000806103c061096b565b6103c861096b565b8a60200151935083600a6103dc9190610dca565b92506040518060400160405280846127106103f79190610e15565b81526020018560ff16815250905061040f8b82610596565b915061041b828b610669565b9150819850505050505050505092915050565b61043661096b565b828260008083602001519150826020015190508060ff168260ff16146104955781816040517f5bc4748600000000000000000000000000000000000000000000000000000000815260040161048c929190610c0b565b60405180910390fd5b6000806000808a6020015193508a6000015192508960000151915081836104bc9190610eb7565b905060405180604001604052808281526020018560ff168152509850505050505050505092915050565b6104ee61096b565b6000806000856020015192508560000151915060128360ff16146105285761051461096b565b61051d876102c5565b905080600001519250505b670de0b6b3a764000085600a61053e9190610dca565b670de0b6b3a764000080856105539190610e15565b61055d9190610e86565b6105679190610e15565b6105719190610e86565b905060405180604001604052808281526020018660ff16815250935050505092915050565b61059e61096b565b828260008083602001519150826020015190508060ff168260ff16146105fd5781816040517f5bc474860000000000000000000000000000000000000000000000000000000081526004016105f4929190610c0b565b60405180910390fd5b60008060008060008b6020015194508b6000015193508a60000151925084600a6106279190610dca565b905061063e81848661085a9092919063ffffffff16565b915060405180604001604052808381526020018660ff16815250995050505050505050505092915050565b61067161096b565b828260008083602001519150826020015190508060ff168260ff16146106d05781816040517f5bc474860000000000000000000000000000000000000000000000000000000081526004016106c7929190610c0b565b60405180910390fd5b60008060008060008b6020015194508b6000015193508a60000151925084600a6106fa9190610dca565b905060008560ff16036107395782846107139190610e15565b915060405180604001604052808381526020018660ff1681525099505050505050610770565b61074e83828661085a9092919063ffffffff16565b915060405180604001604052808381526020018660ff16815250995050505050505b5050505092915050565b61078261096b565b828260008083602001519150826020015190508060ff168260ff16146107e15781816040517f5bc474860000000000000000000000000000000000000000000000000000000081526004016107d8929190610c0b565b60405180910390fd5b6000806107ec61096b565b6107f461096b565b8a60200151935083600a6108089190610dca565b92506040518060400160405280846127106108239190610e15565b81526020018560ff16815250905061083b8b8b610596565b91506108478282610669565b9150819850505050505050505092915050565b60008060008019858709858702925082811083820303915050600081036108955783828161088b5761088a610e57565b5b0492505050610964565b8084116108d7576040517f08c379a00000000000000000000000000000000000000000000000000000000081526004016108ce90610f48565b60405180910390fd5b60008486880990508281118203915080830392506000600186190186169050808604955080840493506001818260000304019050808302841793506000600287600302189050808702600203810290508087026002038102905080870260020381029050808702600203810290508087026002038102905080870260020381029050808502955050505050505b9392505050565b604051806040016040528060008152602001600060ff1681525090565b6000604051905090565b600080fd5b600080fd5b6000601f19601f8301169050919050565b7f4e487b7100000000000000000000000000000000000000000000000000000000600052604160045260246000fd5b6109e58261099c565b810181811067ffffffffffffffff82111715610a0457610a036109ad565b5b80604052505050565b6000610a17610988565b9050610a2382826109dc565b919050565b6000819050919050565b610a3b81610a28565b8114610a4657600080fd5b50565b600081359050610a5881610a32565b92915050565b600060ff82169050919050565b610a7481610a5e565b8114610a7f57600080fd5b50565b600081359050610a9181610a6b565b92915050565b600060408284031215610aad57610aac610997565b5b610ab76040610a0d565b90506000610ac784828501610a49565b6000830152506020610adb84828501610a82565b60208301525092915050565b60008060808385031215610afe57610afd610992565b5b6000610b0c85828601610a97565b9250506040610b1d85828601610a97565b9150509250929050565b610b3081610a28565b82525050565b610b3f81610a5e565b82525050565b604082016000820151610b5b6000850182610b27565b506020820151610b6e6020850182610b36565b50505050565b6000604082019050610b896000830184610b45565b92915050565b600060408284031215610ba557610ba4610992565b5b6000610bb384828501610a97565b91505092915050565b60008060608385031215610bd357610bd2610992565b5b6000610be185828601610a97565b9250506040610bf285828601610a82565b9150509250929050565b610c0581610a5e565b82525050565b6000604082019050610c206000830185610bfc565b610c2d6020830184610bfc565b9392505050565b7f4e487b7100000000000000000000000000000000000000000000000000000000600052601160045260246000fd5b6000610c6e82610a28565b9150610c7983610a28565b9250828203905081811115610c9157610c90610c34565b5b92915050565b60008160011c9050919050565b6000808291508390505b6001851115610cee57808604811115610cca57610cc9610c34565b5b6001851615610cd95780820291505b8081029050610ce785610c97565b9450610cae565b94509492505050565b600082610d075760019050610dc3565b81610d155760009050610dc3565b8160018114610d2b5760028114610d3557610d64565b6001915050610dc3565b60ff841115610d4757610d46610c34565b5b8360020a915084821115610d5e57610d5d610c34565b5b50610dc3565b5060208310610133831016604e8410600b8410161715610d995782820a905083811115610d9457610d93610c34565b5b610dc3565b610da68484846001610ca4565b92509050818404811115610dbd57610dbc610c34565b5b81810290505b9392505050565b6000610dd582610a28565b9150610de083610a5e565b9250610e0d7fffffffffffffffffffffffffffffffffffffffffffffffffffffffffffffffff8484610cf7565b905092915050565b6000610e2082610a28565b9150610e2b83610a28565b9250828202610e3981610a28565b91508282048414831517610e5057610e4f610c34565b5b5092915050565b7f4e487b7100000000000000000000000000000000000000000000000000000000600052601260045260246000fd5b6000610e9182610a28565b9150610e9c83610a28565b925082610eac57610eab610e57565b5b828204905092915050565b6000610ec282610a28565b9150610ecd83610a28565b9250828201905080821115610ee557610ee4610c34565b5b92915050565b600082825260208201905092915050565b7f4d6174683a206d756c446976206f766572666c6f770000000000000000000000600082015250565b6000610f32601583610eeb565b9150610f3d82610efc565b602082019050919050565b60006020820190508181036000830152610f6181610f25565b905091905056fea264697066735822122048185644a88b525690311361ff88e89d79227c1ed2f6dd26a7d5520297f1350864736f6c63430008130033",
					"opcodes": "PUSH1 0x80 PUSH1 0x40 MSTORE CALLVALUE DUP1 ISZERO PUSH2 0x10 JUMPI PUSH1 0x0 DUP1 REVERT JUMPDEST POP PUSH2 0xF9E DUP1 PUSH2 0x20 PUSH1 0x0 CODECOPY PUSH1 0x0 RETURN INVALID PUSH1 0x80 PUSH1 0x40 MSTORE CALLVALUE DUP1 ISZERO PUSH2 0x10 JUMPI PUSH1 0x0 DUP1 REVERT JUMPDEST POP PUSH1 0x4 CALLDATASIZE LT PUSH2 0x88 JUMPI PUSH1 0x0 CALLDATALOAD PUSH1 0xE0 SHR DUP1 PUSH4 0x7D02EBF4 GT PUSH2 0x5B JUMPI DUP1 PUSH4 0x7D02EBF4 EQ PUSH2 0x14D JUMPI DUP1 PUSH4 0x8444B813 EQ PUSH2 0x17D JUMPI DUP1 PUSH4 0xA7E7C9F9 EQ PUSH2 0x1AD JUMPI DUP1 PUSH4 0xE51356E8 EQ PUSH2 0x1DD JUMPI PUSH2 0x88 JUMP JUMPDEST DUP1 PUSH4 0x2833D1F0 EQ PUSH2 0x8D JUMPI DUP1 PUSH4 0x3E60D8E0 EQ PUSH2 0xBD JUMPI DUP1 PUSH4 0x4B602C6D EQ PUSH2 0xED JUMPI DUP1 PUSH4 0x58633635 EQ PUSH2 0x11D JUMPI JUMPDEST PUSH1 0x0 DUP1 REVERT JUMPDEST PUSH2 0xA7 PUSH1 0x4 DUP1 CALLDATASIZE SUB DUP2 ADD SWAP1 PUSH2 0xA2 SWAP2 SWAP1 PUSH2 0xAE7 JUMP JUMPDEST PUSH2 0x20D JUMP JUMPDEST PUSH1 0x40 MLOAD PUSH2 0xB4 SWAP2 SWAP1 PUSH2 0xB74 JUMP JUMPDEST PUSH1 0x40 MLOAD DUP1 SWAP2 SUB SWAP1 RETURN JUMPDEST PUSH2 0xD7 PUSH1 0x4 DUP1 CALLDATASIZE SUB DUP2 ADD SWAP1 PUSH2 0xD2 SWAP2 SWAP1 PUSH2 0xB8F JUMP JUMPDEST PUSH2 0x2C5 JUMP JUMPDEST PUSH1 0x40 MLOAD PUSH2 0xE4 SWAP2 SWAP1 PUSH2 0xB74 JUMP JUMPDEST PUSH1 0x40 MLOAD DUP1 SWAP2 SUB SWAP1 RETURN JUMPDEST PUSH2 0x107 PUSH1 0x4 DUP1 CALLDATASIZE SUB DUP2 ADD SWAP1 PUSH2 0x102 SWAP2 SWAP1 PUSH2 0xAE7 JUMP JUMPDEST PUSH2 0x34E JUMP JUMPDEST PUSH1 0x40 MLOAD PUSH2 0x114 SWAP2 SWAP1 PUSH2 0xB74 JUMP JUMPDEST PUSH1 0x40 MLOAD DUP1 SWAP2 SUB SWAP1 RETURN JUMPDEST PUSH2 0x137 PUSH1 0x4 DUP1 CALLDATASIZE SUB DUP2 ADD SWAP1 PUSH2 0x132 SWAP2 SWAP1 PUSH2 0xAE7 JUMP JUMPDEST PUSH2 0x42E JUMP JUMPDEST PUSH1 0x40 MLOAD PUSH2 0x144 SWAP2 SWAP1 PUSH2 0xB74 JUMP JUMPDEST PUSH1 0x40 MLOAD DUP1 SWAP2 SUB SWAP1 RETURN JUMPDEST PUSH2 0x167 PUSH1 0x4 DUP1 CALLDATASIZE SUB DUP2 ADD SWAP1 PUSH2 0x162 SWAP2 SWAP1 PUSH2 0xBBC JUMP JUMPDEST PUSH2 0x4E6 JUMP JUMPDEST PUSH1 0x40 MLOAD PUSH2 0x174 SWAP2 SWAP1 PUSH2 0xB74 JUMP JUMPDEST PUSH1 0x40 MLOAD DUP1 SWAP2 SUB SWAP1 RETURN JUMPDEST PUSH2 0x197 PUSH1 0x4 DUP1 CALLDATASIZE SUB DUP2 ADD SWAP1 PUSH2 0x192 SWAP2 SWAP1 PUSH2 0xAE7 JUMP JUMPDEST PUSH2 0x596 JUMP JUMPDEST PUSH1 0x40 MLOAD PUSH2 0x1A4 SWAP2 SWAP1 PUSH2 0xB74 JUMP JUMPDEST PUSH1 0x40 MLOAD DUP1 SWAP2 SUB SWAP1 RETURN JUMPDEST PUSH2 0x1C7 PUSH1 0x4 DUP1 CALLDATASIZE SUB DUP2 ADD SWAP1 PUSH2 0x1C2 SWAP2 SWAP1 PUSH2 0xAE7 JUMP JUMPDEST PUSH2 0x669 JUMP JUMPDEST PUSH1 0x40 MLOAD PUSH2 0x1D4 SWAP2 SWAP1 PUSH2 0xB74 JUMP JUMPDEST PUSH1 0x40 MLOAD DUP1 SWAP2 SUB SWAP1 RETURN JUMPDEST PUSH2 0x1F7 PUSH1 0x4 DUP1 CALLDATASIZE SUB DUP2 ADD SWAP1 PUSH2 0x1F2 SWAP2 SWAP1 PUSH2 0xAE7 JUMP JUMPDEST PUSH2 0x77A JUMP JUMPDEST PUSH1 0x40 MLOAD PUSH2 0x204 SWAP2 SWAP1 PUSH2 0xB74 JUMP JUMPDEST PUSH1 0x40 MLOAD DUP1 SWAP2 SUB SWAP1 RETURN JUMPDEST PUSH2 0x215 PUSH2 0x96B JUMP JUMPDEST DUP3 DUP3 PUSH1 0x0 DUP1 DUP4 PUSH1 0x20 ADD MLOAD SWAP2 POP DUP3 PUSH1 0x20 ADD MLOAD SWAP1 POP DUP1 PUSH1 0xFF AND DUP3 PUSH1 0xFF AND EQ PUSH2 0x274 JUMPI DUP2 DUP2 PUSH1 0x40 MLOAD PUSH32 0x5BC4748600000000000000000000000000000000000000000000000000000000 DUP2 MSTORE PUSH1 0x4 ADD PUSH2 0x26B SWAP3 SWAP2 SWAP1 PUSH2 0xC0B JUMP JUMPDEST PUSH1 0x40 MLOAD DUP1 SWAP2 SUB SWAP1 REVERT JUMPDEST PUSH1 0x0 DUP1 PUSH1 0x0 DUP1 DUP11 PUSH1 0x20 ADD MLOAD SWAP4 POP DUP11 PUSH1 0x0 ADD MLOAD SWAP3 POP DUP10 PUSH1 0x0 ADD MLOAD SWAP2 POP DUP2 DUP4 PUSH2 0x29B SWAP2 SWAP1 PUSH2 0xC63 JUMP JUMPDEST SWAP1 POP PUSH1 0x40 MLOAD DUP1 PUSH1 0x40 ADD PUSH1 0x40 MSTORE DUP1 DUP3 DUP2 MSTORE PUSH1 0x20 ADD DUP6 PUSH1 0xFF AND DUP2 MSTORE POP SWAP9 POP POP POP POP POP POP POP POP POP SWAP3 SWAP2 POP POP JUMP JUMPDEST PUSH2 0x2CD PUSH2 0x96B JUMP JUMPDEST PUSH1 0x0 DUP1 PUSH1 0x0 DUP5 PUSH1 0x20 ADD MLOAD SWAP3 POP DUP5 PUSH1 0x0 ADD MLOAD SWAP2 POP PUSH8 0xDE0B6B3A7640000 DUP1 DUP5 PUSH1 0xA PUSH2 0x2F7 SWAP2 SWAP1 PUSH2 0xDCA JUMP JUMPDEST PUSH8 0xDE0B6B3A7640000 DUP6 PUSH2 0x30B SWAP2 SWAP1 PUSH2 0xE15 JUMP JUMPDEST PUSH2 0x315 SWAP2 SWAP1 PUSH2 0xE86 JUMP JUMPDEST PUSH2 0x31F SWAP2 SWAP1 PUSH2 0xE15 JUMP JUMPDEST PUSH2 0x329 SWAP2 SWAP1 PUSH2 0xE86 JUMP JUMPDEST SWAP1 POP PUSH1 0x40 MLOAD DUP1 PUSH1 0x40 ADD PUSH1 0x40 MSTORE DUP1 DUP3 DUP2 MSTORE PUSH1 0x20 ADD PUSH1 0x12 PUSH1 0xFF AND DUP2 MSTORE POP SWAP4 POP POP POP POP SWAP2 SWAP1 POP JUMP JUMPDEST PUSH2 0x356 PUSH2 0x96B JUMP JUMPDEST DUP3 DUP3 PUSH1 0x0 DUP1 DUP4 PUSH1 0x20 ADD MLOAD SWAP2 POP DUP3 PUSH1 0x20 ADD MLOAD SWAP1 POP DUP1 PUSH1 0xFF AND DUP3 PUSH1 0xFF AND EQ PUSH2 0x3B5 JUMPI DUP2 DUP2 PUSH1 0x40 MLOAD PUSH32 0x5BC4748600000000000000000000000000000000000000000000000000000000 DUP2 MSTORE PUSH1 0x4 ADD PUSH2 0x3AC SWAP3 SWAP2 SWAP1 PUSH2 0xC0B JUMP JUMPDEST PUSH1 0x40 MLOAD DUP1 SWAP2 SUB SWAP1 REVERT JUMPDEST PUSH1 0x0 DUP1 PUSH2 0x3C0 PUSH2 0x96B JUMP JUMPDEST PUSH2 0x3C8 PUSH2 0x96B JUMP JUMPDEST DUP11 PUSH1 0x20 ADD MLOAD SWAP4 POP DUP4 PUSH1 0xA PUSH2 0x3DC SWAP2 SWAP1 PUSH2 0xDCA JUMP JUMPDEST SWAP3 POP PUSH1 0x40 MLOAD DUP1 PUSH1 0x40 ADD PUSH1 0x40 MSTORE DUP1 DUP5 PUSH2 0x2710 PUSH2 0x3F7 SWAP2 SWAP1 PUSH2 0xE15 JUMP JUMPDEST DUP2 MSTORE PUSH1 0x20 ADD DUP6 PUSH1 0xFF AND DUP2 MSTORE POP SWAP1 POP PUSH2 0x40F DUP12 DUP3 PUSH2 0x596 JUMP JUMPDEST SWAP2 POP PUSH2 0x41B DUP3 DUP12 PUSH2 0x669 JUMP JUMPDEST SWAP2 POP DUP2 SWAP9 POP POP POP POP POP POP POP POP POP SWAP3 SWAP2 POP POP JUMP JUMPDEST PUSH2 0x436 PUSH2 0x96B JUMP JUMPDEST DUP3 DUP3 PUSH1 0x0 DUP1 DUP4 PUSH1 0x20 ADD MLOAD SWAP2 POP DUP3 PUSH1 0x20 ADD MLOAD SWAP1 POP DUP1 PUSH1 0xFF AND DUP3 PUSH1 0xFF AND EQ PUSH2 0x495 JUMPI DUP2 DUP2 PUSH1 0x40 MLOAD PUSH32 0x5BC4748600000000000000000000000000000000000000000000000000000000 DUP2 MSTORE PUSH1 0x4 ADD PUSH2 0x48C SWAP3 SWAP2 SWAP1 PUSH2 0xC0B JUMP JUMPDEST PUSH1 0x40 MLOAD DUP1 SWAP2 SUB SWAP1 REVERT JUMPDEST PUSH1 0x0 DUP1 PUSH1 0x0 DUP1 DUP11 PUSH1 0x20 ADD MLOAD SWAP4 POP DUP11 PUSH1 0x0 ADD MLOAD SWAP3 POP DUP10 PUSH1 0x0 ADD MLOAD SWAP2 POP DUP2 DUP4 PUSH2 0x4BC SWAP2 SWAP1 PUSH2 0xEB7 JUMP JUMPDEST SWAP1 POP PUSH1 0x40 MLOAD DUP1 PUSH1 0x40 ADD PUSH1 0x40 MSTORE DUP1 DUP3 DUP2 MSTORE PUSH1 0x20 ADD DUP6 PUSH1 0xFF AND DUP2 MSTORE POP SWAP9 POP POP POP POP POP POP POP POP POP SWAP3 SWAP2 POP POP JUMP JUMPDEST PUSH2 0x4EE PUSH2 0x96B JUMP JUMPDEST PUSH1 0x0 DUP1 PUSH1 0x0 DUP6 PUSH1 0x20 ADD MLOAD SWAP3 POP DUP6 PUSH1 0x0 ADD MLOAD SWAP2 POP PUSH1 0x12 DUP4 PUSH1 0xFF AND EQ PUSH2 0x528 JUMPI PUSH2 0x514 PUSH2 0x96B JUMP JUMPDEST PUSH2 0x51D DUP8 PUSH2 0x2C5 JUMP JUMPDEST SWAP1 POP DUP1 PUSH1 0x0 ADD MLOAD SWAP3 POP POP JUMPDEST PUSH8 0xDE0B6B3A7640000 DUP6 PUSH1 0xA PUSH2 0x53E SWAP2 SWAP1 PUSH2 0xDCA JUMP JUMPDEST PUSH8 0xDE0B6B3A7640000 DUP1 DUP6 PUSH2 0x553 SWAP2 SWAP1 PUSH2 0xE15 JUMP JUMPDEST PUSH2 0x55D SWAP2 SWAP1 PUSH2 0xE86 JUMP JUMPDEST PUSH2 0x567 SWAP2 SWAP1 PUSH2 0xE15 JUMP JUMPDEST PUSH2 0x571 SWAP2 SWAP1 PUSH2 0xE86 JUMP JUMPDEST SWAP1 POP PUSH1 0x40 MLOAD DUP1 PUSH1 0x40 ADD PUSH1 0x40 MSTORE DUP1 DUP3 DUP2 MSTORE PUSH1 0x20 ADD DUP7 PUSH1 0xFF AND DUP2 MSTORE POP SWAP4 POP POP POP POP SWAP3 SWAP2 POP POP JUMP JUMPDEST PUSH2 0x59E PUSH2 0x96B JUMP JUMPDEST DUP3 DUP3 PUSH1 0x0 DUP1 DUP4 PUSH1 0x20 ADD MLOAD SWAP2 POP DUP3 PUSH1 0x20 ADD MLOAD SWAP1 POP DUP1 PUSH1 0xFF AND DUP3 PUSH1 0xFF AND EQ PUSH2 0x5FD JUMPI DUP2 DUP2 PUSH1 0x40 MLOAD PUSH32 0x5BC4748600000000000000000000000000000000000000000000000000000000 DUP2 MSTORE PUSH1 0x4 ADD PUSH2 0x5F4 SWAP3 SWAP2 SWAP1 PUSH2 0xC0B JUMP JUMPDEST PUSH1 0x40 MLOAD DUP1 SWAP2 SUB SWAP1 REVERT JUMPDEST PUSH1 0x0 DUP1 PUSH1 0x0 DUP1 PUSH1 0x0 DUP12 PUSH1 0x20 ADD MLOAD SWAP5 POP DUP12 PUSH1 0x0 ADD MLOAD SWAP4 POP DUP11 PUSH1 0x0 ADD MLOAD SWAP3 POP DUP5 PUSH1 0xA PUSH2 0x627 SWAP2 SWAP1 PUSH2 0xDCA JUMP JUMPDEST SWAP1 POP PUSH2 0x63E DUP2 DUP5 DUP7 PUSH2 0x85A SWAP1 SWAP3 SWAP2 SWAP1 PUSH4 0xFFFFFFFF AND JUMP JUMPDEST SWAP2 POP PUSH1 0x40 MLOAD DUP1 PUSH1 0x40 ADD PUSH1 0x40 MSTORE DUP1 DUP4 DUP2 MSTORE PUSH1 0x20 ADD DUP7 PUSH1 0xFF AND DUP2 MSTORE POP SWAP10 POP POP POP POP POP POP POP POP POP POP SWAP3 SWAP2 POP POP JUMP JUMPDEST PUSH2 0x671 PUSH2 0x96B JUMP JUMPDEST DUP3 DUP3 PUSH1 0x0 DUP1 DUP4 PUSH1 0x20 ADD MLOAD SWAP2 POP DUP3 PUSH1 0x20 ADD MLOAD SWAP1 POP DUP1 PUSH1 0xFF AND DUP3 PUSH1 0xFF AND EQ PUSH2 0x6D0 JUMPI DUP2 DUP2 PUSH1 0x40 MLOAD PUSH32 0x5BC4748600000000000000000000000000000000000000000000000000000000 DUP2 MSTORE PUSH1 0x4 ADD PUSH2 0x6C7 SWAP3 SWAP2 SWAP1 PUSH2 0xC0B JUMP JUMPDEST PUSH1 0x40 MLOAD DUP1 SWAP2 SUB SWAP1 REVERT JUMPDEST PUSH1 0x0 DUP1 PUSH1 0x0 DUP1 PUSH1 0x0 DUP12 PUSH1 0x20 ADD MLOAD SWAP5 POP DUP12 PUSH1 0x0 ADD MLOAD SWAP4 POP DUP11 PUSH1 0x0 ADD MLOAD SWAP3 POP DUP5 PUSH1 0xA PUSH2 0x6FA SWAP2 SWAP1 PUSH2 0xDCA JUMP JUMPDEST SWAP1 POP PUSH1 0x0 DUP6 PUSH1 0xFF AND SUB PUSH2 0x739 JUMPI DUP3 DUP5 PUSH2 0x713 SWAP2 SWAP1 PUSH2 0xE15 JUMP JUMPDEST SWAP2 POP PUSH1 0x40 MLOAD DUP1 PUSH1 0x40 ADD PUSH1 0x40 MSTORE DUP1 DUP4 DUP2 MSTORE PUSH1 0x20 ADD DUP7 PUSH1 0xFF AND DUP2 MSTORE POP SWAP10 POP POP POP POP POP POP PUSH2 0x770 JUMP JUMPDEST PUSH2 0x74E DUP4 DUP3 DUP7 PUSH2 0x85A SWAP1 SWAP3 SWAP2 SWAP1 PUSH4 0xFFFFFFFF AND JUMP JUMPDEST SWAP2 POP PUSH1 0x40 MLOAD DUP1 PUSH1 0x40 ADD PUSH1 0x40 MSTORE DUP1 DUP4 DUP2 MSTORE PUSH1 0x20 ADD DUP7 PUSH1 0xFF AND DUP2 MSTORE POP SWAP10 POP POP POP POP POP POP JUMPDEST POP POP POP POP SWAP3 SWAP2 POP POP JUMP JUMPDEST PUSH2 0x782 PUSH2 0x96B JUMP JUMPDEST DUP3 DUP3 PUSH1 0x0 DUP1 DUP4 PUSH1 0x20 ADD MLOAD SWAP2 POP DUP3 PUSH1 0x20 ADD MLOAD SWAP1 POP DUP1 PUSH1 0xFF AND DUP3 PUSH1 0xFF AND EQ PUSH2 0x7E1 JUMPI DUP2 DUP2 PUSH1 0x40 MLOAD PUSH32 0x5BC4748600000000000000000000000000000000000000000000000000000000 DUP2 MSTORE PUSH1 0x4 ADD PUSH2 0x7D8 SWAP3 SWAP2 SWAP1 PUSH2 0xC0B JUMP JUMPDEST PUSH1 0x40 MLOAD DUP1 SWAP2 SUB SWAP1 REVERT JUMPDEST PUSH1 0x0 DUP1 PUSH2 0x7EC PUSH2 0x96B JUMP JUMPDEST PUSH2 0x7F4 PUSH2 0x96B JUMP JUMPDEST DUP11 PUSH1 0x20 ADD MLOAD SWAP4 POP DUP4 PUSH1 0xA PUSH2 0x808 SWAP2 SWAP1 PUSH2 0xDCA JUMP JUMPDEST SWAP3 POP PUSH1 0x40 MLOAD DUP1 PUSH1 0x40 ADD PUSH1 0x40 MSTORE DUP1 DUP5 PUSH2 0x2710 PUSH2 0x823 SWAP2 SWAP1 PUSH2 0xE15 JUMP JUMPDEST DUP2 MSTORE PUSH1 0x20 ADD DUP6 PUSH1 0xFF AND DUP2 MSTORE POP SWAP1 POP PUSH2 0x83B DUP12 DUP12 PUSH2 0x596 JUMP JUMPDEST SWAP2 POP PUSH2 0x847 DUP3 DUP3 PUSH2 0x669 JUMP JUMPDEST SWAP2 POP DUP2 SWAP9 POP POP POP POP POP POP POP POP POP SWAP3 SWAP2 POP POP JUMP JUMPDEST PUSH1 0x0 DUP1 PUSH1 0x0 DUP1 NOT DUP6 DUP8 MULMOD DUP6 DUP8 MUL SWAP3 POP DUP3 DUP2 LT DUP4 DUP3 SUB SUB SWAP2 POP POP PUSH1 0x0 DUP2 SUB PUSH2 0x895 JUMPI DUP4 DUP3 DUP2 PUSH2 0x88B JUMPI PUSH2 0x88A PUSH2 0xE57 JUMP JUMPDEST JUMPDEST DIV SWAP3 POP POP POP PUSH2 0x964 JUMP JUMPDEST DUP1 DUP5 GT PUSH2 0x8D7 JUMPI PUSH1 0x40 MLOAD PUSH32 0x8C379A000000000000000000000000000000000000000000000000000000000 DUP2 MSTORE PUSH1 0x4 ADD PUSH2 0x8CE SWAP1 PUSH2 0xF48 JUMP JUMPDEST PUSH1 0x40 MLOAD DUP1 SWAP2 SUB SWAP1 REVERT JUMPDEST PUSH1 0x0 DUP5 DUP7 DUP9 MULMOD SWAP1 POP DUP3 DUP2 GT DUP3 SUB SWAP2 POP DUP1 DUP4 SUB SWAP3 POP PUSH1 0x0 PUSH1 0x1 DUP7 NOT ADD DUP7 AND SWAP1 POP DUP1 DUP7 DIV SWAP6 POP DUP1 DUP5 DIV SWAP4 POP PUSH1 0x1 DUP2 DUP3 PUSH1 0x0 SUB DIV ADD SWAP1 POP DUP1 DUP4 MUL DUP5 OR SWAP4 POP PUSH1 0x0 PUSH1 0x2 DUP8 PUSH1 0x3 MUL XOR SWAP1 POP DUP1 DUP8 MUL PUSH1 0x2 SUB DUP2 MUL SWAP1 POP DUP1 DUP8 MUL PUSH1 0x2 SUB DUP2 MUL SWAP1 POP DUP1 DUP8 MUL PUSH1 0x2 SUB DUP2 MUL SWAP1 POP DUP1 DUP8 MUL PUSH1 0x2 SUB DUP2 MUL SWAP1 POP DUP1 DUP8 MUL PUSH1 0x2 SUB DUP2 MUL SWAP1 POP DUP1 DUP8 MUL PUSH1 0x2 SUB DUP2 MUL SWAP1 POP DUP1 DUP6 MUL SWAP6 POP POP POP POP POP POP JUMPDEST SWAP4 SWAP3 POP POP POP JUMP JUMPDEST PUSH1 0x40 MLOAD DUP1 PUSH1 0x40 ADD PUSH1 0x40 MSTORE DUP1 PUSH1 0x0 DUP2 MSTORE PUSH1 0x20 ADD PUSH1 0x0 PUSH1 0xFF AND DUP2 MSTORE POP SWAP1 JUMP JUMPDEST PUSH1 0x0 PUSH1 0x40 MLOAD SWAP1 POP SWAP1 JUMP JUMPDEST PUSH1 0x0 DUP1 REVERT JUMPDEST PUSH1 0x0 DUP1 REVERT JUMPDEST PUSH1 0x0 PUSH1 0x1F NOT PUSH1 0x1F DUP4 ADD AND SWAP1 POP SWAP2 SWAP1 POP JUMP JUMPDEST PUSH32 0x4E487B7100000000000000000000000000000000000000000000000000000000 PUSH1 0x0 MSTORE PUSH1 0x41 PUSH1 0x4 MSTORE PUSH1 0x24 PUSH1 0x0 REVERT JUMPDEST PUSH2 0x9E5 DUP3 PUSH2 0x99C JUMP JUMPDEST DUP2 ADD DUP2 DUP2 LT PUSH8 0xFFFFFFFFFFFFFFFF DUP3 GT OR ISZERO PUSH2 0xA04 JUMPI PUSH2 0xA03 PUSH2 0x9AD JUMP JUMPDEST JUMPDEST DUP1 PUSH1 0x40 MSTORE POP POP POP JUMP JUMPDEST PUSH1 0x0 PUSH2 0xA17 PUSH2 0x988 JUMP JUMPDEST SWAP1 POP PUSH2 0xA23 DUP3 DUP3 PUSH2 0x9DC JUMP JUMPDEST SWAP2 SWAP1 POP JUMP JUMPDEST PUSH1 0x0 DUP2 SWAP1 POP SWAP2 SWAP1 POP JUMP JUMPDEST PUSH2 0xA3B DUP2 PUSH2 0xA28 JUMP JUMPDEST DUP2 EQ PUSH2 0xA46 JUMPI PUSH1 0x0 DUP1 REVERT JUMPDEST POP JUMP JUMPDEST PUSH1 0x0 DUP2 CALLDATALOAD SWAP1 POP PUSH2 0xA58 DUP2 PUSH2 0xA32 JUMP JUMPDEST SWAP3 SWAP2 POP POP JUMP JUMPDEST PUSH1 0x0 PUSH1 0xFF DUP3 AND SWAP1 POP SWAP2 SWAP1 POP JUMP JUMPDEST PUSH2 0xA74 DUP2 PUSH2 0xA5E JUMP JUMPDEST DUP2 EQ PUSH2 0xA7F JUMPI PUSH1 0x0 DUP1 REVERT JUMPDEST POP JUMP JUMPDEST PUSH1 0x0 DUP2 CALLDATALOAD SWAP1 POP PUSH2 0xA91 DUP2 PUSH2 0xA6B JUMP JUMPDEST SWAP3 SWAP2 POP POP JUMP JUMPDEST PUSH1 0x0 PUSH1 0x40 DUP3 DUP5 SUB SLT ISZERO PUSH2 0xAAD JUMPI PUSH2 0xAAC PUSH2 0x997 JUMP JUMPDEST JUMPDEST PUSH2 0xAB7 PUSH1 0x40 PUSH2 0xA0D JUMP JUMPDEST SWAP1 POP PUSH1 0x0 PUSH2 0xAC7 DUP5 DUP3 DUP6 ADD PUSH2 0xA49 JUMP JUMPDEST PUSH1 0x0 DUP4 ADD MSTORE POP PUSH1 0x20 PUSH2 0xADB DUP5 DUP3 DUP6 ADD PUSH2 0xA82 JUMP JUMPDEST PUSH1 0x20 DUP4 ADD MSTORE POP SWAP3 SWAP2 POP POP JUMP JUMPDEST PUSH1 0x0 DUP1 PUSH1 0x80 DUP4 DUP6 SUB SLT ISZERO PUSH2 0xAFE JUMPI PUSH2 0xAFD PUSH2 0x992 JUMP JUMPDEST JUMPDEST PUSH1 0x0 PUSH2 0xB0C DUP6 DUP3 DUP7 ADD PUSH2 0xA97 JUMP JUMPDEST SWAP3 POP POP PUSH1 0x40 PUSH2 0xB1D DUP6 DUP3 DUP7 ADD PUSH2 0xA97 JUMP JUMPDEST SWAP2 POP POP SWAP3 POP SWAP3 SWAP1 POP JUMP JUMPDEST PUSH2 0xB30 DUP2 PUSH2 0xA28 JUMP JUMPDEST DUP3 MSTORE POP POP JUMP JUMPDEST PUSH2 0xB3F DUP2 PUSH2 0xA5E JUMP JUMPDEST DUP3 MSTORE POP POP JUMP JUMPDEST PUSH1 0x40 DUP3 ADD PUSH1 0x0 DUP3 ADD MLOAD PUSH2 0xB5B PUSH1 0x0 DUP6 ADD DUP3 PUSH2 0xB27 JUMP JUMPDEST POP PUSH1 0x20 DUP3 ADD MLOAD PUSH2 0xB6E PUSH1 0x20 DUP6 ADD DUP3 PUSH2 0xB36 JUMP JUMPDEST POP POP POP POP JUMP JUMPDEST PUSH1 0x0 PUSH1 0x40 DUP3 ADD SWAP1 POP PUSH2 0xB89 PUSH1 0x0 DUP4 ADD DUP5 PUSH2 0xB45 JUMP JUMPDEST SWAP3 SWAP2 POP POP JUMP JUMPDEST PUSH1 0x0 PUSH1 0x40 DUP3 DUP5 SUB SLT ISZERO PUSH2 0xBA5 JUMPI PUSH2 0xBA4 PUSH2 0x992 JUMP JUMPDEST JUMPDEST PUSH1 0x0 PUSH2 0xBB3 DUP5 DUP3 DUP6 ADD PUSH2 0xA97 JUMP JUMPDEST SWAP2 POP POP SWAP3 SWAP2 POP POP JUMP JUMPDEST PUSH1 0x0 DUP1 PUSH1 0x60 DUP4 DUP6 SUB SLT ISZERO PUSH2 0xBD3 JUMPI PUSH2 0xBD2 PUSH2 0x992 JUMP JUMPDEST JUMPDEST PUSH1 0x0 PUSH2 0xBE1 DUP6 DUP3 DUP7 ADD PUSH2 0xA97 JUMP JUMPDEST SWAP3 POP POP PUSH1 0x40 PUSH2 0xBF2 DUP6 DUP3 DUP7 ADD PUSH2 0xA82 JUMP JUMPDEST SWAP2 POP POP SWAP3 POP SWAP3 SWAP1 POP JUMP JUMPDEST PUSH2 0xC05 DUP2 PUSH2 0xA5E JUMP JUMPDEST DUP3 MSTORE POP POP JUMP JUMPDEST PUSH1 0x0 PUSH1 0x40 DUP3 ADD SWAP1 POP PUSH2 0xC20 PUSH1 0x0 DUP4 ADD DUP6 PUSH2 0xBFC JUMP JUMPDEST PUSH2 0xC2D PUSH1 0x20 DUP4 ADD DUP5 PUSH2 0xBFC JUMP JUMPDEST SWAP4 SWAP3 POP POP POP JUMP JUMPDEST PUSH32 0x4E487B7100000000000000000000000000000000000000000000000000000000 PUSH1 0x0 MSTORE PUSH1 0x11 PUSH1 0x4 MSTORE PUSH1 0x24 PUSH1 0x0 REVERT JUMPDEST PUSH1 0x0 PUSH2 0xC6E DUP3 PUSH2 0xA28 JUMP JUMPDEST SWAP2 POP PUSH2 0xC79 DUP4 PUSH2 0xA28 JUMP JUMPDEST SWAP3 POP DUP3 DUP3 SUB SWAP1 POP DUP2 DUP2 GT ISZERO PUSH2 0xC91 JUMPI PUSH2 0xC90 PUSH2 0xC34 JUMP JUMPDEST JUMPDEST SWAP3 SWAP2 POP POP JUMP JUMPDEST PUSH1 0x0 DUP2 PUSH1 0x1 SHR SWAP1 POP SWAP2 SWAP1 POP JUMP JUMPDEST PUSH1 0x0 DUP1 DUP3 SWAP2 POP DUP4 SWAP1 POP JUMPDEST PUSH1 0x1 DUP6 GT ISZERO PUSH2 0xCEE JUMPI DUP1 DUP7 DIV DUP2 GT ISZERO PUSH2 0xCCA JUMPI PUSH2 0xCC9 PUSH2 0xC34 JUMP JUMPDEST JUMPDEST PUSH1 0x1 DUP6 AND ISZERO PUSH2 0xCD9 JUMPI DUP1 DUP3 MUL SWAP2 POP JUMPDEST DUP1 DUP2 MUL SWAP1 POP PUSH2 0xCE7 DUP6 PUSH2 0xC97 JUMP JUMPDEST SWAP5 POP PUSH2 0xCAE JUMP JUMPDEST SWAP5 POP SWAP5 SWAP3 POP POP POP JUMP JUMPDEST PUSH1 0x0 DUP3 PUSH2 0xD07 JUMPI PUSH1 0x1 SWAP1 POP PUSH2 0xDC3 JUMP JUMPDEST DUP2 PUSH2 0xD15 JUMPI PUSH1 0x0 SWAP1 POP PUSH2 0xDC3 JUMP JUMPDEST DUP2 PUSH1 0x1 DUP2 EQ PUSH2 0xD2B JUMPI PUSH1 0x2 DUP2 EQ PUSH2 0xD35 JUMPI PUSH2 0xD64 JUMP JUMPDEST PUSH1 0x1 SWAP2 POP POP PUSH2 0xDC3 JUMP JUMPDEST PUSH1 0xFF DUP5 GT ISZERO PUSH2 0xD47 JUMPI PUSH2 0xD46 PUSH2 0xC34 JUMP JUMPDEST JUMPDEST DUP4 PUSH1 0x2 EXP SWAP2 POP DUP5 DUP3 GT ISZERO PUSH2 0xD5E JUMPI PUSH2 0xD5D PUSH2 0xC34 JUMP JUMPDEST JUMPDEST POP PUSH2 0xDC3 JUMP JUMPDEST POP PUSH1 0x20 DUP4 LT PUSH2 0x133 DUP4 LT AND PUSH1 0x4E DUP5 LT PUSH1 0xB DUP5 LT AND OR ISZERO PUSH2 0xD99 JUMPI DUP3 DUP3 EXP SWAP1 POP DUP4 DUP2 GT ISZERO PUSH2 0xD94 JUMPI PUSH2 0xD93 PUSH2 0xC34 JUMP JUMPDEST JUMPDEST PUSH2 0xDC3 JUMP JUMPDEST PUSH2 0xDA6 DUP5 DUP5 DUP5 PUSH1 0x1 PUSH2 0xCA4 JUMP JUMPDEST SWAP3 POP SWAP1 POP DUP2 DUP5 DIV DUP2 GT ISZERO PUSH2 0xDBD JUMPI PUSH2 0xDBC PUSH2 0xC34 JUMP JUMPDEST JUMPDEST DUP2 DUP2 MUL SWAP1 POP JUMPDEST SWAP4 SWAP3 POP POP POP JUMP JUMPDEST PUSH1 0x0 PUSH2 0xDD5 DUP3 PUSH2 0xA28 JUMP JUMPDEST SWAP2 POP PUSH2 0xDE0 DUP4 PUSH2 0xA5E JUMP JUMPDEST SWAP3 POP PUSH2 0xE0D PUSH32 0xFFFFFFFFFFFFFFFFFFFFFFFFFFFFFFFFFFFFFFFFFFFFFFFFFFFFFFFFFFFFFFFF DUP5 DUP5 PUSH2 0xCF7 JUMP JUMPDEST SWAP1 POP SWAP3 SWAP2 POP POP JUMP JUMPDEST PUSH1 0x0 PUSH2 0xE20 DUP3 PUSH2 0xA28 JUMP JUMPDEST SWAP2 POP PUSH2 0xE2B DUP4 PUSH2 0xA28 JUMP JUMPDEST SWAP3 POP DUP3 DUP3 MUL PUSH2 0xE39 DUP2 PUSH2 0xA28 JUMP JUMPDEST SWAP2 POP DUP3 DUP3 DIV DUP5 EQ DUP4 ISZERO OR PUSH2 0xE50 JUMPI PUSH2 0xE4F PUSH2 0xC34 JUMP JUMPDEST JUMPDEST POP SWAP3 SWAP2 POP POP JUMP JUMPDEST PUSH32 0x4E487B7100000000000000000000000000000000000000000000000000000000 PUSH1 0x0 MSTORE PUSH1 0x12 PUSH1 0x4 MSTORE PUSH1 0x24 PUSH1 0x0 REVERT JUMPDEST PUSH1 0x0 PUSH2 0xE91 DUP3 PUSH2 0xA28 JUMP JUMPDEST SWAP2 POP PUSH2 0xE9C DUP4 PUSH2 0xA28 JUMP JUMPDEST SWAP3 POP DUP3 PUSH2 0xEAC JUMPI PUSH2 0xEAB PUSH2 0xE57 JUMP JUMPDEST JUMPDEST DUP3 DUP3 DIV SWAP1 POP SWAP3 SWAP2 POP POP JUMP JUMPDEST PUSH1 0x0 PUSH2 0xEC2 DUP3 PUSH2 0xA28 JUMP JUMPDEST SWAP2 POP PUSH2 0xECD DUP4 PUSH2 0xA28 JUMP JUMPDEST SWAP3 POP DUP3 DUP3 ADD SWAP1 POP DUP1 DUP3 GT ISZERO PUSH2 0xEE5 JUMPI PUSH2 0xEE4 PUSH2 0xC34 JUMP JUMPDEST JUMPDEST SWAP3 SWAP2 POP POP JUMP JUMPDEST PUSH1 0x0 DUP3 DUP3 MSTORE PUSH1 0x20 DUP3 ADD SWAP1 POP SWAP3 SWAP2 POP POP JUMP JUMPDEST PUSH32 0x4D6174683A206D756C446976206F766572666C6F770000000000000000000000 PUSH1 0x0 DUP3 ADD MSTORE POP JUMP JUMPDEST PUSH1 0x0 PUSH2 0xF32 PUSH1 0x15 DUP4 PUSH2 0xEEB JUMP JUMPDEST SWAP2 POP PUSH2 0xF3D DUP3 PUSH2 0xEFC JUMP JUMPDEST PUSH1 0x20 DUP3 ADD SWAP1 POP SWAP2 SWAP1 POP JUMP JUMPDEST PUSH1 0x0 PUSH1 0x20 DUP3 ADD SWAP1 POP DUP2 DUP2 SUB PUSH1 0x0 DUP4 ADD MSTORE PUSH2 0xF61 DUP2 PUSH2 0xF25 JUMP JUMPDEST SWAP1 POP SWAP2 SWAP1 POP JUMP INVALID LOG2 PUSH5 0x6970667358 0x22 SLT KECCAK256 BASEFEE XOR JUMP PREVRANDAO 0xA8 DUP12 MSTORE JUMP SWAP1 BALANCE SGT PUSH2 0xFF88 0xE8 SWAP14 PUSH26 0x227C1ED2F6DD26A7D5520297F1350864736F6C63430008130033 "
				},
				"gasEstimates": {
					"creation": {
						"codeDepositCost": "799600",
						"executionCost": "831",
						"totalCost": "800431"
					},
					"external": {
						"add((uint256,uint8),(uint256,uint8))": "infinite",
						"asEther((uint256,uint8))": "infinite",
						"asNewDecimals((uint256,uint8),uint8)": "infinite",
						"div((uint256,uint8),(uint256,uint8))": "infinite",
						"mul((uint256,uint8),(uint256,uint8))": "infinite",
						"scale((uint256,uint8),(uint256,uint8))": "infinite",
						"slice((uint256,uint8),(uint256,uint8))": "infinite",
						"sub((uint256,uint8),(uint256,uint8))": "infinite"
					}
				},
				"methodIdentifiers": {
					"add((uint256,uint8),(uint256,uint8))": "58633635",
					"asEther((uint256,uint8))": "3e60d8e0",
					"asNewDecimals((uint256,uint8),uint8)": "7d02ebf4",
					"div((uint256,uint8),(uint256,uint8))": "8444b813",
					"mul((uint256,uint8),(uint256,uint8))": "a7e7c9f9",
					"scale((uint256,uint8),(uint256,uint8))": "e51356e8",
					"slice((uint256,uint8),(uint256,uint8))": "4b602c6d",
					"sub((uint256,uint8),(uint256,uint8))": "2833d1f0"
				}
			},
			"storageLayout": {
				"storage": [],
				"types": null
			},
			"userdoc": {
				"kind": "user",
				"methods": {},
				"version": 1
			}
		}
	}
}