{
	"code/contract/sol/native/utils/adaptor/UniswapV2Adaptor.sol": {
		"UniswapV2Adaptor": {
			"abi": [
				{
					"inputs": [
						{
							"internalType": "address",
							"name": "fixedPointMath",
							"type": "address"
						},
						{
							"internalType": "address",
							"name": "factory",
							"type": "address"
						},
						{
							"internalType": "address",
							"name": "router",
							"type": "address"
						}
					],
					"stateMutability": "nonpayable",
					"type": "constructor"
				},
				{
					"inputs": [
						{
							"internalType": "address[]",
							"name": "path",
							"type": "address[]"
						},
						{
							"components": [
								{
									"internalType": "uint256",
									"name": "value",
									"type": "uint256"
								},
								{
									"internalType": "uint8",
									"name": "decimals",
									"type": "uint8"
								}
							],
							"internalType": "struct FixedPointValue",
							"name": "amountIn",
							"type": "tuple"
						}
					],
					"name": "amountOut",
					"outputs": [
						{
							"components": [
								{
									"internalType": "uint256",
									"name": "value",
									"type": "uint256"
								},
								{
									"internalType": "uint8",
									"name": "decimals",
									"type": "uint8"
								}
							],
							"internalType": "struct FixedPointValue",
							"name": "",
							"type": "tuple"
						}
					],
					"stateMutability": "view",
					"type": "function"
				},
				{
					"inputs": [],
					"name": "factory",
					"outputs": [
						{
							"internalType": "contract IUniswapV2Factory",
							"name": "",
							"type": "address"
						}
					],
					"stateMutability": "view",
					"type": "function"
				},
				{
					"inputs": [],
					"name": "fixedPointMath",
					"outputs": [
						{
							"internalType": "contract IFixedPointMath",
							"name": "",
							"type": "address"
						}
					],
					"stateMutability": "view",
					"type": "function"
				},
				{
					"inputs": [
						{
							"internalType": "address",
							"name": "token0",
							"type": "address"
						},
						{
							"internalType": "address",
							"name": "token1",
							"type": "address"
						}
					],
					"name": "pairAddress",
					"outputs": [
						{
							"internalType": "address",
							"name": "",
							"type": "address"
						}
					],
					"stateMutability": "view",
					"type": "function"
				},
				{
					"inputs": [
						{
							"internalType": "address",
							"name": "token0",
							"type": "address"
						},
						{
							"internalType": "address",
							"name": "token1",
							"type": "address"
						}
					],
					"name": "pairInterface",
					"outputs": [
						{
							"internalType": "contract IUniswapV2Pair",
							"name": "",
							"type": "address"
						}
					],
					"stateMutability": "view",
					"type": "function"
				},
				{
					"inputs": [
						{
							"internalType": "address",
							"name": "token0",
							"type": "address"
						},
						{
							"internalType": "address",
							"name": "token1",
							"type": "address"
						}
					],
					"name": "pairIsSameLayoutAsGivenTokens",
					"outputs": [
						{
							"internalType": "bool",
							"name": "",
							"type": "bool"
						}
					],
					"stateMutability": "view",
					"type": "function"
				},
				{
					"inputs": [
						{
							"internalType": "address",
							"name": "token0",
							"type": "address"
						},
						{
							"internalType": "address",
							"name": "token1",
							"type": "address"
						}
					],
					"name": "pairIsZeroAddress",
					"outputs": [
						{
							"internalType": "bool",
							"name": "",
							"type": "bool"
						}
					],
					"stateMutability": "view",
					"type": "function"
				},
				{
					"inputs": [
						{
							"internalType": "address",
							"name": "token0",
							"type": "address"
						},
						{
							"internalType": "address",
							"name": "token1",
							"type": "address"
						}
					],
					"name": "pairReserves",
					"outputs": [
						{
							"internalType": "uint256[]",
							"name": "",
							"type": "uint256[]"
						}
					],
					"stateMutability": "view",
					"type": "function"
				},
				{
					"inputs": [
						{
							"internalType": "address",
							"name": "token0",
							"type": "address"
						},
						{
							"internalType": "address",
							"name": "token1",
							"type": "address"
						}
					],
					"name": "price",
					"outputs": [
						{
							"components": [
								{
									"internalType": "uint256",
									"name": "value",
									"type": "uint256"
								},
								{
									"internalType": "uint8",
									"name": "decimals",
									"type": "uint8"
								}
							],
							"internalType": "struct FixedPointValue",
							"name": "",
							"type": "tuple"
						}
					],
					"stateMutability": "view",
					"type": "function"
				},
				{
					"inputs": [],
					"name": "router",
					"outputs": [
						{
							"internalType": "contract IUniswapV2Router02",
							"name": "",
							"type": "address"
						}
					],
					"stateMutability": "view",
					"type": "function"
				},
				{
					"inputs": [
						{
							"internalType": "address[]",
							"name": "path",
							"type": "address[]"
						},
						{
							"components": [
								{
									"internalType": "uint256",
									"name": "value",
									"type": "uint256"
								},
								{
									"internalType": "uint8",
									"name": "decimals",
									"type": "uint8"
								}
							],
							"internalType": "struct FixedPointValue",
							"name": "amountIn",
							"type": "tuple"
						}
					],
					"name": "yield",
					"outputs": [
						{
							"components": [
								{
									"internalType": "uint256",
									"name": "value",
									"type": "uint256"
								},
								{
									"internalType": "uint8",
									"name": "decimals",
									"type": "uint8"
								}
							],
							"internalType": "struct FixedPointValue",
							"name": "basisPoints",
							"type": "tuple"
						}
					],
					"stateMutability": "view",
					"type": "function"
				}
			],
			"devdoc": {
				"kind": "dev",
				"methods": {},
				"version": 1
			},
			"evm": {
				"assembly": "    /* \"code/contract/sol/native/utils/adaptor/UniswapV2Adaptor.sol\":677:5211  contract UniswapV2Adaptor {... */\n  mstore(0x40, 0x80)\n    /* \"code/contract/sol/native/utils/adaptor/UniswapV2Adaptor.sol\":835:1063  constructor(address fixedPointMath, address factory, address router) {... */\n  callvalue\n  dup1\n  iszero\n  tag_1\n  jumpi\n  0x00\n  dup1\n  revert\ntag_1:\n  pop\n  mload(0x40)\n  sub(codesize, bytecodeSize)\n  dup1\n  bytecodeSize\n  dup4\n  codecopy\n  dup2\n  dup2\n  add\n  0x40\n  mstore\n  dup2\n  add\n  swap1\n  tag_2\n  swap2\n  swap1\n  tag_3\n  jump\t// in\ntag_2:\n    /* \"code/contract/sol/native/utils/adaptor/UniswapV2Adaptor.sol\":948:962  fixedPointMath */\n  dup3\n    /* \"code/contract/sol/native/utils/adaptor/UniswapV2Adaptor.sol\":914:929  fixedPointMath_ */\n  0x00\n  dup1\n    /* \"code/contract/sol/native/utils/adaptor/UniswapV2Adaptor.sol\":914:963  fixedPointMath_ = IFixedPointMath(fixedPointMath) */\n  0x0100\n  exp\n  dup2\n  sload\n  dup2\n  0xffffffffffffffffffffffffffffffffffffffff\n  mul\n  not\n  and\n  swap1\n  dup4\n  0xffffffffffffffffffffffffffffffffffffffff\n  and\n  mul\n  or\n  swap1\n  sstore\n  pop\n    /* \"code/contract/sol/native/utils/adaptor/UniswapV2Adaptor.sol\":1002:1009  factory */\n  dup2\n    /* \"code/contract/sol/native/utils/adaptor/UniswapV2Adaptor.sol\":973:981  factory_ */\n  0x01\n  0x00\n    /* \"code/contract/sol/native/utils/adaptor/UniswapV2Adaptor.sol\":973:1010  factory_ = IUniswapV2Factory(factory) */\n  0x0100\n  exp\n  dup2\n  sload\n  dup2\n  0xffffffffffffffffffffffffffffffffffffffff\n  mul\n  not\n  and\n  swap1\n  dup4\n  0xffffffffffffffffffffffffffffffffffffffff\n  and\n  mul\n  or\n  swap1\n  sstore\n  pop\n    /* \"code/contract/sol/native/utils/adaptor/UniswapV2Adaptor.sol\":1049:1055  router */\n  dup1\n    /* \"code/contract/sol/native/utils/adaptor/UniswapV2Adaptor.sol\":1020:1027  router_ */\n  0x02\n  0x00\n    /* \"code/contract/sol/native/utils/adaptor/UniswapV2Adaptor.sol\":1020:1056  router_ = IUniswapV2Router02(router) */\n  0x0100\n  exp\n  dup2\n  sload\n  dup2\n  0xffffffffffffffffffffffffffffffffffffffff\n  mul\n  not\n  and\n  swap1\n  dup4\n  0xffffffffffffffffffffffffffffffffffffffff\n  and\n  mul\n  or\n  swap1\n  sstore\n  pop\n    /* \"code/contract/sol/native/utils/adaptor/UniswapV2Adaptor.sol\":835:1063  constructor(address fixedPointMath, address factory, address router) {... */\n  pop\n  pop\n  pop\n    /* \"code/contract/sol/native/utils/adaptor/UniswapV2Adaptor.sol\":677:5211  contract UniswapV2Adaptor {... */\n  jump(tag_6)\n    /* \"#utility.yul\":88:205   */\ntag_8:\n    /* \"#utility.yul\":197:198   */\n  0x00\n    /* \"#utility.yul\":194:195   */\n  dup1\n    /* \"#utility.yul\":187:199   */\n  revert\n    /* \"#utility.yul\":334:460   */\ntag_10:\n    /* \"#utility.yul\":371:378   */\n  0x00\n    /* \"#utility.yul\":411:453   */\n  0xffffffffffffffffffffffffffffffffffffffff\n    /* \"#utility.yul\":404:409   */\n  dup3\n    /* \"#utility.yul\":400:454   */\n  and\n    /* \"#utility.yul\":389:454   */\n  swap1\n  pop\n    /* \"#utility.yul\":334:460   */\n  swap2\n  swap1\n  pop\n  jump\t// out\n    /* \"#utility.yul\":466:562   */\ntag_11:\n    /* \"#utility.yul\":503:510   */\n  0x00\n    /* \"#utility.yul\":532:556   */\n  tag_20\n    /* \"#utility.yul\":550:555   */\n  dup3\n    /* \"#utility.yul\":532:556   */\n  tag_10\n  jump\t// in\ntag_20:\n    /* \"#utility.yul\":521:556   */\n  swap1\n  pop\n    /* \"#utility.yul\":466:562   */\n  swap2\n  swap1\n  pop\n  jump\t// out\n    /* \"#utility.yul\":568:690   */\ntag_12:\n    /* \"#utility.yul\":641:665   */\n  tag_22\n    /* \"#utility.yul\":659:664   */\n  dup2\n    /* \"#utility.yul\":641:665   */\n  tag_11\n  jump\t// in\ntag_22:\n    /* \"#utility.yul\":634:639   */\n  dup2\n    /* \"#utility.yul\":631:666   */\n  eq\n    /* \"#utility.yul\":621:684   */\n  tag_23\n  jumpi\n    /* \"#utility.yul\":680:681   */\n  0x00\n    /* \"#utility.yul\":677:678   */\n  dup1\n    /* \"#utility.yul\":670:682   */\n  revert\n    /* \"#utility.yul\":621:684   */\ntag_23:\n    /* \"#utility.yul\":568:690   */\n  pop\n  jump\t// out\n    /* \"#utility.yul\":696:839   */\ntag_13:\n    /* \"#utility.yul\":753:758   */\n  0x00\n    /* \"#utility.yul\":784:790   */\n  dup2\n    /* \"#utility.yul\":778:791   */\n  mload\n    /* \"#utility.yul\":769:791   */\n  swap1\n  pop\n    /* \"#utility.yul\":800:833   */\n  tag_25\n    /* \"#utility.yul\":827:832   */\n  dup2\n    /* \"#utility.yul\":800:833   */\n  tag_12\n  jump\t// in\ntag_25:\n    /* \"#utility.yul\":696:839   */\n  swap3\n  swap2\n  pop\n  pop\n  jump\t// out\n    /* \"#utility.yul\":845:1508   */\ntag_3:\n    /* \"#utility.yul\":933:939   */\n  0x00\n    /* \"#utility.yul\":941:947   */\n  dup1\n    /* \"#utility.yul\":949:955   */\n  0x00\n    /* \"#utility.yul\":998:1000   */\n  0x60\n    /* \"#utility.yul\":986:995   */\n  dup5\n    /* \"#utility.yul\":977:984   */\n  dup7\n    /* \"#utility.yul\":973:996   */\n  sub\n    /* \"#utility.yul\":969:1001   */\n  slt\n    /* \"#utility.yul\":966:1085   */\n  iszero\n  tag_27\n  jumpi\n    /* \"#utility.yul\":1004:1083   */\n  tag_28\n  tag_8\n  jump\t// in\ntag_28:\n    /* \"#utility.yul\":966:1085   */\ntag_27:\n    /* \"#utility.yul\":1124:1125   */\n  0x00\n    /* \"#utility.yul\":1149:1213   */\n  tag_29\n    /* \"#utility.yul\":1205:1212   */\n  dup7\n    /* \"#utility.yul\":1196:1202   */\n  dup3\n    /* \"#utility.yul\":1185:1194   */\n  dup8\n    /* \"#utility.yul\":1181:1203   */\n  add\n    /* \"#utility.yul\":1149:1213   */\n  tag_13\n  jump\t// in\ntag_29:\n    /* \"#utility.yul\":1139:1213   */\n  swap4\n  pop\n    /* \"#utility.yul\":1095:1223   */\n  pop\n    /* \"#utility.yul\":1262:1264   */\n  0x20\n    /* \"#utility.yul\":1288:1352   */\n  tag_30\n    /* \"#utility.yul\":1344:1351   */\n  dup7\n    /* \"#utility.yul\":1335:1341   */\n  dup3\n    /* \"#utility.yul\":1324:1333   */\n  dup8\n    /* \"#utility.yul\":1320:1342   */\n  add\n    /* \"#utility.yul\":1288:1352   */\n  tag_13\n  jump\t// in\ntag_30:\n    /* \"#utility.yul\":1278:1352   */\n  swap3\n  pop\n    /* \"#utility.yul\":1233:1362   */\n  pop\n    /* \"#utility.yul\":1401:1403   */\n  0x40\n    /* \"#utility.yul\":1427:1491   */\n  tag_31\n    /* \"#utility.yul\":1483:1490   */\n  dup7\n    /* \"#utility.yul\":1474:1480   */\n  dup3\n    /* \"#utility.yul\":1463:1472   */\n  dup8\n    /* \"#utility.yul\":1459:1481   */\n  add\n    /* \"#utility.yul\":1427:1491   */\n  tag_13\n  jump\t// in\ntag_31:\n    /* \"#utility.yul\":1417:1491   */\n  swap2\n  pop\n    /* \"#utility.yul\":1372:1501   */\n  pop\n    /* \"#utility.yul\":845:1508   */\n  swap3\n  pop\n  swap3\n  pop\n  swap3\n  jump\t// out\n    /* \"code/contract/sol/native/utils/adaptor/UniswapV2Adaptor.sol\":677:5211  contract UniswapV2Adaptor {... */\ntag_6:\n  dataSize(sub_0)\n  dup1\n  dataOffset(sub_0)\n  0x00\n  codecopy\n  0x00\n  return\nstop\n\nsub_0: assembly {\n        /* \"code/contract/sol/native/utils/adaptor/UniswapV2Adaptor.sol\":677:5211  contract UniswapV2Adaptor {... */\n      mstore(0x40, 0x80)\n      callvalue\n      dup1\n      iszero\n      tag_1\n      jumpi\n      0x00\n      dup1\n      revert\n    tag_1:\n      pop\n      jumpi(tag_2, lt(calldatasize, 0x04))\n      shr(0xe0, calldataload(0x00))\n      dup1\n      0xb09cd0c3\n      gt\n      tag_14\n      jumpi\n      dup1\n      0xb09cd0c3\n      eq\n      tag_8\n      jumpi\n      dup1\n      0xbe83cb79\n      eq\n      tag_9\n      jumpi\n      dup1\n      0xc45a0155\n      eq\n      tag_10\n      jumpi\n      dup1\n      0xceca05ab\n      eq\n      tag_11\n      jumpi\n      dup1\n      0xf6162317\n      eq\n      tag_12\n      jumpi\n      dup1\n      0xf887ea40\n      eq\n      tag_13\n      jumpi\n      jump(tag_2)\n    tag_14:\n      dup1\n      0x0d186819\n      eq\n      tag_3\n      jumpi\n      dup1\n      0x14c758d9\n      eq\n      tag_4\n      jumpi\n      dup1\n      0x2b00490d\n      eq\n      tag_5\n      jumpi\n      dup1\n      0x41b29895\n      eq\n      tag_6\n      jumpi\n      dup1\n      0x7dd92787\n      eq\n      tag_7\n      jumpi\n    tag_2:\n      0x00\n      dup1\n      revert\n        /* \"code/contract/sol/native/utils/adaptor/UniswapV2Adaptor.sol\":4305:5209  function yield(address[] memory path, FixedPointValue memory amountIn) public view returns (FixedPointValue memory basisPoints) {... */\n    tag_3:\n      tag_15\n      0x04\n      dup1\n      calldatasize\n      sub\n      dup2\n      add\n      swap1\n      tag_16\n      swap2\n      swap1\n      tag_17\n      jump\t// in\n    tag_16:\n      tag_18\n      jump\t// in\n    tag_15:\n      mload(0x40)\n      tag_19\n      swap2\n      swap1\n      tag_20\n      jump\t// in\n    tag_19:\n      mload(0x40)\n      dup1\n      swap2\n      sub\n      swap1\n      return\n        /* \"code/contract/sol/native/utils/adaptor/UniswapV2Adaptor.sol\":1069:1172  function fixedPointMath() public view returns (IFixedPointMath) {... */\n    tag_4:\n      tag_21\n      tag_22\n      jump\t// in\n    tag_21:\n      mload(0x40)\n      tag_23\n      swap2\n      swap1\n      tag_24\n      jump\t// in\n    tag_23:\n      mload(0x40)\n      dup1\n      swap2\n      sub\n      swap1\n      return\n        /* \"code/contract/sol/native/utils/adaptor/UniswapV2Adaptor.sol\":2334:3455  function price(address token0, address token1) public view returns (FixedPointValue memory) {... */\n    tag_5:\n      tag_25\n      0x04\n      dup1\n      calldatasize\n      sub\n      dup2\n      add\n      swap1\n      tag_26\n      swap2\n      swap1\n      tag_27\n      jump\t// in\n    tag_26:\n      tag_28\n      jump\t// in\n    tag_25:\n      mload(0x40)\n      tag_29\n      swap2\n      swap1\n      tag_20\n      jump\t// in\n    tag_29:\n      mload(0x40)\n      dup1\n      swap2\n      sub\n      swap1\n      return\n        /* \"code/contract/sol/native/utils/adaptor/UniswapV2Adaptor.sol\":2158:2328  function pairIsSameLayoutAsGivenTokens(address token0, address token1) public view returns (bool) {... */\n    tag_6:\n      tag_30\n      0x04\n      dup1\n      calldatasize\n      sub\n      dup2\n      add\n      swap1\n      tag_31\n      swap2\n      swap1\n      tag_27\n      jump\t// in\n    tag_31:\n      tag_32\n      jump\t// in\n    tag_30:\n      mload(0x40)\n      tag_33\n      swap2\n      swap1\n      tag_34\n      jump\t// in\n    tag_33:\n      mload(0x40)\n      dup1\n      swap2\n      sub\n      swap1\n      return\n        /* \"code/contract/sol/native/utils/adaptor/UniswapV2Adaptor.sol\":1681:1995  function pairReserves(address token0, address token1) public view returns (uint256[] memory) {... */\n    tag_7:\n      tag_35\n      0x04\n      dup1\n      calldatasize\n      sub\n      dup2\n      add\n      swap1\n      tag_36\n      swap2\n      swap1\n      tag_27\n      jump\t// in\n    tag_36:\n      tag_37\n      jump\t// in\n    tag_35:\n      mload(0x40)\n      tag_38\n      swap2\n      swap1\n      tag_39\n      jump\t// in\n    tag_38:\n      mload(0x40)\n      dup1\n      swap2\n      sub\n      swap1\n      return\n        /* \"code/contract/sol/native/utils/adaptor/UniswapV2Adaptor.sol\":2001:2152  function pairIsZeroAddress(address token0, address token1) public view returns (bool) {... */\n    tag_8:\n      tag_40\n      0x04\n      dup1\n      calldatasize\n      sub\n      dup2\n      add\n      swap1\n      tag_41\n      swap2\n      swap1\n      tag_27\n      jump\t// in\n    tag_41:\n      tag_42\n      jump\t// in\n    tag_40:\n      mload(0x40)\n      tag_43\n      swap2\n      swap1\n      tag_34\n      jump\t// in\n    tag_43:\n      mload(0x40)\n      dup1\n      swap2\n      sub\n      swap1\n      return\n        /* \"code/contract/sol/native/utils/adaptor/UniswapV2Adaptor.sol\":1516:1675  function pairInterface(address token0, address token1) public view returns (IUniswapV2Pair) {... */\n    tag_9:\n      tag_44\n      0x04\n      dup1\n      calldatasize\n      sub\n      dup2\n      add\n      swap1\n      tag_45\n      swap2\n      swap1\n      tag_27\n      jump\t// in\n    tag_45:\n      tag_46\n      jump\t// in\n    tag_44:\n      mload(0x40)\n      tag_47\n      swap2\n      swap1\n      tag_48\n      jump\t// in\n    tag_47:\n      mload(0x40)\n      dup1\n      swap2\n      sub\n      swap1\n      return\n        /* \"code/contract/sol/native/utils/adaptor/UniswapV2Adaptor.sol\":1178:1269  function factory() public view returns (IUniswapV2Factory) {... */\n    tag_10:\n      tag_49\n      tag_50\n      jump\t// in\n    tag_49:\n      mload(0x40)\n      tag_51\n      swap2\n      swap1\n      tag_52\n      jump\t// in\n    tag_51:\n      mload(0x40)\n      dup1\n      swap2\n      sub\n      swap1\n      return\n        /* \"code/contract/sol/native/utils/adaptor/UniswapV2Adaptor.sol\":1371:1510  function pairAddress(address token0, address token1) public view returns (address) {... */\n    tag_11:\n      tag_53\n      0x04\n      dup1\n      calldatasize\n      sub\n      dup2\n      add\n      swap1\n      tag_54\n      swap2\n      swap1\n      tag_27\n      jump\t// in\n    tag_54:\n      tag_55\n      jump\t// in\n    tag_53:\n      mload(0x40)\n      tag_56\n      swap2\n      swap1\n      tag_57\n      jump\t// in\n    tag_56:\n      mload(0x40)\n      dup1\n      swap2\n      sub\n      swap1\n      return\n        /* \"code/contract/sol/native/utils/adaptor/UniswapV2Adaptor.sol\":3461:4299  function amountOut(address[] memory path, FixedPointValue memory amountIn) public view returns (FixedPointValue memory) {... */\n    tag_12:\n      tag_58\n      0x04\n      dup1\n      calldatasize\n      sub\n      dup2\n      add\n      swap1\n      tag_59\n      swap2\n      swap1\n      tag_17\n      jump\t// in\n    tag_59:\n      tag_60\n      jump\t// in\n    tag_58:\n      mload(0x40)\n      tag_61\n      swap2\n      swap1\n      tag_20\n      jump\t// in\n    tag_61:\n      mload(0x40)\n      dup1\n      swap2\n      sub\n      swap1\n      return\n        /* \"code/contract/sol/native/utils/adaptor/UniswapV2Adaptor.sol\":1275:1365  function router() public view returns (IUniswapV2Router02) {... */\n    tag_13:\n      tag_62\n      tag_63\n      jump\t// in\n    tag_62:\n      mload(0x40)\n      tag_64\n      swap2\n      swap1\n      tag_65\n      jump\t// in\n    tag_64:\n      mload(0x40)\n      dup1\n      swap2\n      sub\n      swap1\n      return\n        /* \"code/contract/sol/native/utils/adaptor/UniswapV2Adaptor.sol\":4305:5209  function yield(address[] memory path, FixedPointValue memory amountIn) public view returns (FixedPointValue memory basisPoints) {... */\n    tag_18:\n        /* \"code/contract/sol/native/utils/adaptor/UniswapV2Adaptor.sol\":4397:4431  FixedPointValue memory basisPoints */\n      tag_66\n      tag_67\n      jump\t// in\n    tag_66:\n        /* \"code/contract/sol/native/utils/adaptor/UniswapV2Adaptor.sol\":4443:4457  address token0 */\n      0x00\n        /* \"code/contract/sol/native/utils/adaptor/UniswapV2Adaptor.sol\":4467:4481  address token1 */\n      dup1\n        /* \"code/contract/sol/native/utils/adaptor/UniswapV2Adaptor.sol\":4491:4527  FixedPointValue memory bestAmountOut */\n      tag_69\n      tag_67\n      jump\t// in\n    tag_69:\n        /* \"code/contract/sol/native/utils/adaptor/UniswapV2Adaptor.sol\":4537:4573  FixedPointValue memory realAmountOut */\n      tag_70\n      tag_67\n      jump\t// in\n    tag_70:\n        /* \"code/contract/sol/native/utils/adaptor/UniswapV2Adaptor.sol\":4583:4611  FixedPointValue memory scale */\n      tag_71\n      tag_67\n      jump\t// in\n    tag_71:\n        /* \"code/contract/sol/native/utils/adaptor/UniswapV2Adaptor.sol\":4630:4634  path */\n      dup8\n        /* \"code/contract/sol/native/utils/adaptor/UniswapV2Adaptor.sol\":4635:4636  0 */\n      0x00\n        /* \"code/contract/sol/native/utils/adaptor/UniswapV2Adaptor.sol\":4630:4637  path[0] */\n      dup2\n      mload\n      dup2\n      lt\n      tag_72\n      jumpi\n      tag_73\n      tag_74\n      jump\t// in\n    tag_73:\n    tag_72:\n      0x20\n      mul\n      0x20\n      add\n      add\n      mload\n        /* \"code/contract/sol/native/utils/adaptor/UniswapV2Adaptor.sol\":4621:4637  token0 = path[0] */\n      swap5\n      pop\n        /* \"code/contract/sol/native/utils/adaptor/UniswapV2Adaptor.sol\":4656:4660  path */\n      dup8\n        /* \"code/contract/sol/native/utils/adaptor/UniswapV2Adaptor.sol\":4675:4676  1 */\n      0x01\n        /* \"code/contract/sol/native/utils/adaptor/UniswapV2Adaptor.sol\":4661:4665  path */\n      dup10\n        /* \"code/contract/sol/native/utils/adaptor/UniswapV2Adaptor.sol\":4661:4672  path.length */\n      mload\n        /* \"code/contract/sol/native/utils/adaptor/UniswapV2Adaptor.sol\":4661:4676  path.length - 1 */\n      tag_75\n      swap2\n      swap1\n      tag_76\n      jump\t// in\n    tag_75:\n        /* \"code/contract/sol/native/utils/adaptor/UniswapV2Adaptor.sol\":4656:4677  path[path.length - 1] */\n      dup2\n      mload\n      dup2\n      lt\n      tag_77\n      jumpi\n      tag_78\n      tag_74\n      jump\t// in\n    tag_78:\n    tag_77:\n      0x20\n      mul\n      0x20\n      add\n      add\n      mload\n        /* \"code/contract/sol/native/utils/adaptor/UniswapV2Adaptor.sol\":4647:4677  token1 = path[path.length - 1] */\n      swap4\n      pop\n        /* \"code/contract/sol/native/utils/adaptor/UniswapV2Adaptor.sol\":4698:4713  fixedPointMath_ */\n      0x00\n      dup1\n      sload\n      swap1\n      0x0100\n      exp\n      swap1\n      div\n      0xffffffffffffffffffffffffffffffffffffffff\n      and\n        /* \"code/contract/sol/native/utils/adaptor/UniswapV2Adaptor.sol\":4698:4721  fixedPointMath_.asEther */\n      0xffffffffffffffffffffffffffffffffffffffff\n      and\n      0x3e60d8e0\n        /* \"code/contract/sol/native/utils/adaptor/UniswapV2Adaptor.sol\":4722:4730  amountIn */\n      dup9\n        /* \"code/contract/sol/native/utils/adaptor/UniswapV2Adaptor.sol\":4698:4731  fixedPointMath_.asEther(amountIn) */\n      mload(0x40)\n      dup3\n      0xffffffff\n      and\n      0xe0\n      shl\n      dup2\n      mstore\n      0x04\n      add\n      tag_79\n      swap2\n      swap1\n      tag_20\n      jump\t// in\n    tag_79:\n      0x40\n      dup1\n      mload\n      dup1\n      dup4\n      sub\n      dup2\n      dup7\n      gas\n      staticcall\n      iszero\n      dup1\n      iszero\n      tag_81\n      jumpi\n      returndatasize\n      0x00\n      dup1\n      returndatacopy\n      revert(0x00, returndatasize)\n    tag_81:\n      pop\n      pop\n      pop\n      pop\n      mload(0x40)\n      returndatasize\n      not(0x1f)\n      0x1f\n      dup3\n      add\n      and\n      dup3\n      add\n      dup1\n      0x40\n      mstore\n      pop\n      dup2\n      add\n      swap1\n      tag_82\n      swap2\n      swap1\n      tag_83\n      jump\t// in\n    tag_82:\n        /* \"code/contract/sol/native/utils/adaptor/UniswapV2Adaptor.sol\":4687:4731  amountIn = fixedPointMath_.asEther(amountIn) */\n      swap7\n      pop\n        /* \"code/contract/sol/native/utils/adaptor/UniswapV2Adaptor.sol\":4757:4772  fixedPointMath_ */\n      0x00\n      dup1\n      sload\n      swap1\n      0x0100\n      exp\n      swap1\n      div\n      0xffffffffffffffffffffffffffffffffffffffff\n      and\n        /* \"code/contract/sol/native/utils/adaptor/UniswapV2Adaptor.sol\":4757:4776  fixedPointMath_.mul */\n      0xffffffffffffffffffffffffffffffffffffffff\n      and\n      0xa7e7c9f9\n        /* \"code/contract/sol/native/utils/adaptor/UniswapV2Adaptor.sol\":4777:4785  amountIn */\n      dup9\n        /* \"code/contract/sol/native/utils/adaptor/UniswapV2Adaptor.sol\":4787:4808  price(token0, token1) */\n      tag_84\n        /* \"code/contract/sol/native/utils/adaptor/UniswapV2Adaptor.sol\":4793:4799  token0 */\n      dup9\n        /* \"code/contract/sol/native/utils/adaptor/UniswapV2Adaptor.sol\":4801:4807  token1 */\n      dup9\n        /* \"code/contract/sol/native/utils/adaptor/UniswapV2Adaptor.sol\":4787:4792  price */\n      tag_28\n        /* \"code/contract/sol/native/utils/adaptor/UniswapV2Adaptor.sol\":4787:4808  price(token0, token1) */\n      jump\t// in\n    tag_84:\n        /* \"code/contract/sol/native/utils/adaptor/UniswapV2Adaptor.sol\":4757:4809  fixedPointMath_.mul(amountIn, price(token0, token1)) */\n      mload(0x40)\n      dup4\n      0xffffffff\n      and\n      0xe0\n      shl\n      dup2\n      mstore\n      0x04\n      add\n      tag_85\n      swap3\n      swap2\n      swap1\n      tag_86\n      jump\t// in\n    tag_85:\n      0x40\n      dup1\n      mload\n      dup1\n      dup4\n      sub\n      dup2\n      dup7\n      gas\n      staticcall\n      iszero\n      dup1\n      iszero\n      tag_88\n      jumpi\n      returndatasize\n      0x00\n      dup1\n      returndatacopy\n      revert(0x00, returndatasize)\n    tag_88:\n      pop\n      pop\n      pop\n      pop\n      mload(0x40)\n      returndatasize\n      not(0x1f)\n      0x1f\n      dup3\n      add\n      and\n      dup3\n      add\n      dup1\n      0x40\n      mstore\n      pop\n      dup2\n      add\n      swap1\n      tag_89\n      swap2\n      swap1\n      tag_83\n      jump\t// in\n    tag_89:\n        /* \"code/contract/sol/native/utils/adaptor/UniswapV2Adaptor.sol\":4741:4809  bestAmountOut = fixedPointMath_.mul(amountIn, price(token0, token1)) */\n      swap3\n      pop\n        /* \"code/contract/sol/native/utils/adaptor/UniswapV2Adaptor.sol\":4835:4860  amountOut(path, amountIn) */\n      tag_90\n        /* \"code/contract/sol/native/utils/adaptor/UniswapV2Adaptor.sol\":4845:4849  path */\n      dup9\n        /* \"code/contract/sol/native/utils/adaptor/UniswapV2Adaptor.sol\":4851:4859  amountIn */\n      dup9\n        /* \"code/contract/sol/native/utils/adaptor/UniswapV2Adaptor.sol\":4835:4844  amountOut */\n      tag_60\n        /* \"code/contract/sol/native/utils/adaptor/UniswapV2Adaptor.sol\":4835:4860  amountOut(path, amountIn) */\n      jump\t// in\n    tag_90:\n        /* \"code/contract/sol/native/utils/adaptor/UniswapV2Adaptor.sol\":4819:4860  realAmountOut = amountOut(path, amountIn) */\n      swap2\n      pop\n        /* \"code/contract/sol/native/utils/adaptor/UniswapV2Adaptor.sol\":4897:4898  0 */\n      0x00\n        /* \"code/contract/sol/native/utils/adaptor/UniswapV2Adaptor.sol\":4874:4887  bestAmountOut */\n      dup4\n        /* \"code/contract/sol/native/utils/adaptor/UniswapV2Adaptor.sol\":4874:4893  bestAmountOut.value */\n      0x00\n      add\n      mload\n        /* \"code/contract/sol/native/utils/adaptor/UniswapV2Adaptor.sol\":4874:4898  bestAmountOut.value == 0 */\n      eq\n        /* \"code/contract/sol/native/utils/adaptor/UniswapV2Adaptor.sol\":4874:4926  bestAmountOut.value == 0 || realAmountOut.value == 0 */\n      dup1\n      tag_91\n      jumpi\n      pop\n        /* \"code/contract/sol/native/utils/adaptor/UniswapV2Adaptor.sol\":4925:4926  0 */\n      0x00\n        /* \"code/contract/sol/native/utils/adaptor/UniswapV2Adaptor.sol\":4902:4915  realAmountOut */\n      dup3\n        /* \"code/contract/sol/native/utils/adaptor/UniswapV2Adaptor.sol\":4902:4921  realAmountOut.value */\n      0x00\n      add\n      mload\n        /* \"code/contract/sol/native/utils/adaptor/UniswapV2Adaptor.sol\":4902:4926  realAmountOut.value == 0 */\n      eq\n        /* \"code/contract/sol/native/utils/adaptor/UniswapV2Adaptor.sol\":4874:4926  bestAmountOut.value == 0 || realAmountOut.value == 0 */\n    tag_91:\n        /* \"code/contract/sol/native/utils/adaptor/UniswapV2Adaptor.sol\":4870:4976  if (bestAmountOut.value == 0 || realAmountOut.value == 0) return FixedPointValue({value: 0, decimals: 18}) */\n      iszero\n      tag_92\n      jumpi\n        /* \"code/contract/sol/native/utils/adaptor/UniswapV2Adaptor.sol\":4935:4976  FixedPointValue({value: 0, decimals: 18}) */\n      mload(0x40)\n      dup1\n      0x40\n      add\n      0x40\n      mstore\n      dup1\n        /* \"code/contract/sol/native/utils/adaptor/UniswapV2Adaptor.sol\":4959:4960  0 */\n      0x00\n        /* \"code/contract/sol/native/utils/adaptor/UniswapV2Adaptor.sol\":4935:4976  FixedPointValue({value: 0, decimals: 18}) */\n      dup2\n      mstore\n      0x20\n      add\n        /* \"code/contract/sol/native/utils/adaptor/UniswapV2Adaptor.sol\":4972:4974  18 */\n      0x12\n        /* \"code/contract/sol/native/utils/adaptor/UniswapV2Adaptor.sol\":4935:4976  FixedPointValue({value: 0, decimals: 18}) */\n      0xff\n      and\n      dup2\n      mstore\n      pop\n        /* \"code/contract/sol/native/utils/adaptor/UniswapV2Adaptor.sol\":4928:4976  return FixedPointValue({value: 0, decimals: 18}) */\n      swap6\n      pop\n      pop\n      pop\n      pop\n      pop\n      pop\n      jump(tag_68)\n        /* \"code/contract/sol/native/utils/adaptor/UniswapV2Adaptor.sol\":4870:4976  if (bestAmountOut.value == 0 || realAmountOut.value == 0) return FixedPointValue({value: 0, decimals: 18}) */\n    tag_92:\n        /* \"code/contract/sol/native/utils/adaptor/UniswapV2Adaptor.sol\":5013:5026  bestAmountOut */\n      dup3\n        /* \"code/contract/sol/native/utils/adaptor/UniswapV2Adaptor.sol\":5013:5032  bestAmountOut.value */\n      0x00\n      add\n      mload\n        /* \"code/contract/sol/native/utils/adaptor/UniswapV2Adaptor.sol\":4990:5003  realAmountOut */\n      dup3\n        /* \"code/contract/sol/native/utils/adaptor/UniswapV2Adaptor.sol\":4990:5009  realAmountOut.value */\n      0x00\n      add\n      mload\n        /* \"code/contract/sol/native/utils/adaptor/UniswapV2Adaptor.sol\":4990:5032  realAmountOut.value >= bestAmountOut.value */\n      lt\n        /* \"code/contract/sol/native/utils/adaptor/UniswapV2Adaptor.sol\":4986:5111  if (realAmountOut.value >= bestAmountOut.value) return fixedPointMath_.asEther(FixedPointValue({value: 10_000, decimals: 0})) */\n      tag_93\n      jumpi\n        /* \"code/contract/sol/native/utils/adaptor/UniswapV2Adaptor.sol\":5041:5056  fixedPointMath_ */\n      0x00\n      dup1\n      sload\n      swap1\n      0x0100\n      exp\n      swap1\n      div\n      0xffffffffffffffffffffffffffffffffffffffff\n      and\n        /* \"code/contract/sol/native/utils/adaptor/UniswapV2Adaptor.sol\":5041:5064  fixedPointMath_.asEther */\n      0xffffffffffffffffffffffffffffffffffffffff\n      and\n      0x3e60d8e0\n        /* \"code/contract/sol/native/utils/adaptor/UniswapV2Adaptor.sol\":5065:5110  FixedPointValue({value: 10_000, decimals: 0}) */\n      mload(0x40)\n      dup1\n      0x40\n      add\n      0x40\n      mstore\n      dup1\n        /* \"code/contract/sol/native/utils/adaptor/UniswapV2Adaptor.sol\":5089:5095  10_000 */\n      0x2710\n        /* \"code/contract/sol/native/utils/adaptor/UniswapV2Adaptor.sol\":5065:5110  FixedPointValue({value: 10_000, decimals: 0}) */\n      dup2\n      mstore\n      0x20\n      add\n        /* \"code/contract/sol/native/utils/adaptor/UniswapV2Adaptor.sol\":5107:5108  0 */\n      0x00\n        /* \"code/contract/sol/native/utils/adaptor/UniswapV2Adaptor.sol\":5065:5110  FixedPointValue({value: 10_000, decimals: 0}) */\n      0xff\n      and\n      dup2\n      mstore\n      pop\n        /* \"code/contract/sol/native/utils/adaptor/UniswapV2Adaptor.sol\":5041:5111  fixedPointMath_.asEther(FixedPointValue({value: 10_000, decimals: 0})) */\n      mload(0x40)\n      dup3\n      0xffffffff\n      and\n      0xe0\n      shl\n      dup2\n      mstore\n      0x04\n      add\n      tag_94\n      swap2\n      swap1\n      tag_20\n      jump\t// in\n    tag_94:\n      0x40\n      dup1\n      mload\n      dup1\n      dup4\n      sub\n      dup2\n      dup7\n      gas\n      staticcall\n      iszero\n      dup1\n      iszero\n      tag_96\n      jumpi\n      returndatasize\n      0x00\n      dup1\n      returndatacopy\n      revert(0x00, returndatasize)\n    tag_96:\n      pop\n      pop\n      pop\n      pop\n      mload(0x40)\n      returndatasize\n      not(0x1f)\n      0x1f\n      dup3\n      add\n      and\n      dup3\n      add\n      dup1\n      0x40\n      mstore\n      pop\n      dup2\n      add\n      swap1\n      tag_97\n      swap2\n      swap1\n      tag_83\n      jump\t// in\n    tag_97:\n        /* \"code/contract/sol/native/utils/adaptor/UniswapV2Adaptor.sol\":5034:5111  return fixedPointMath_.asEther(FixedPointValue({value: 10_000, decimals: 0})) */\n      swap6\n      pop\n      pop\n      pop\n      pop\n      pop\n      pop\n      jump(tag_68)\n        /* \"code/contract/sol/native/utils/adaptor/UniswapV2Adaptor.sol\":4986:5111  if (realAmountOut.value >= bestAmountOut.value) return fixedPointMath_.asEther(FixedPointValue({value: 10_000, decimals: 0})) */\n    tag_93:\n        /* \"code/contract/sol/native/utils/adaptor/UniswapV2Adaptor.sol\":5129:5144  fixedPointMath_ */\n      0x00\n      dup1\n      sload\n      swap1\n      0x0100\n      exp\n      swap1\n      div\n      0xffffffffffffffffffffffffffffffffffffffff\n      and\n        /* \"code/contract/sol/native/utils/adaptor/UniswapV2Adaptor.sol\":5129:5150  fixedPointMath_.scale */\n      0xffffffffffffffffffffffffffffffffffffffff\n      and\n      0xe51356e8\n        /* \"code/contract/sol/native/utils/adaptor/UniswapV2Adaptor.sol\":5151:5164  realAmountOut */\n      dup4\n        /* \"code/contract/sol/native/utils/adaptor/UniswapV2Adaptor.sol\":5166:5179  bestAmountOut */\n      dup6\n        /* \"code/contract/sol/native/utils/adaptor/UniswapV2Adaptor.sol\":5129:5180  fixedPointMath_.scale(realAmountOut, bestAmountOut) */\n      mload(0x40)\n      dup4\n      0xffffffff\n      and\n      0xe0\n      shl\n      dup2\n      mstore\n      0x04\n      add\n      tag_98\n      swap3\n      swap2\n      swap1\n      tag_86\n      jump\t// in\n    tag_98:\n      0x40\n      dup1\n      mload\n      dup1\n      dup4\n      sub\n      dup2\n      dup7\n      gas\n      staticcall\n      iszero\n      dup1\n      iszero\n      tag_100\n      jumpi\n      returndatasize\n      0x00\n      dup1\n      returndatacopy\n      revert(0x00, returndatasize)\n    tag_100:\n      pop\n      pop\n      pop\n      pop\n      mload(0x40)\n      returndatasize\n      not(0x1f)\n      0x1f\n      dup3\n      add\n      and\n      dup3\n      add\n      dup1\n      0x40\n      mstore\n      pop\n      dup2\n      add\n      swap1\n      tag_101\n      swap2\n      swap1\n      tag_83\n      jump\t// in\n    tag_101:\n        /* \"code/contract/sol/native/utils/adaptor/UniswapV2Adaptor.sol\":5121:5180  scale = fixedPointMath_.scale(realAmountOut, bestAmountOut) */\n      swap1\n      pop\n        /* \"code/contract/sol/native/utils/adaptor/UniswapV2Adaptor.sol\":5197:5202  scale */\n      dup1\n        /* \"code/contract/sol/native/utils/adaptor/UniswapV2Adaptor.sol\":5190:5202  return scale */\n      swap6\n      pop\n      pop\n      pop\n      pop\n      pop\n      pop\n        /* \"code/contract/sol/native/utils/adaptor/UniswapV2Adaptor.sol\":4305:5209  function yield(address[] memory path, FixedPointValue memory amountIn) public view returns (FixedPointValue memory basisPoints) {... */\n    tag_68:\n      swap3\n      swap2\n      pop\n      pop\n      jump\t// out\n        /* \"code/contract/sol/native/utils/adaptor/UniswapV2Adaptor.sol\":1069:1172  function fixedPointMath() public view returns (IFixedPointMath) {... */\n    tag_22:\n        /* \"code/contract/sol/native/utils/adaptor/UniswapV2Adaptor.sol\":1116:1131  IFixedPointMath */\n      0x00\n        /* \"code/contract/sol/native/utils/adaptor/UniswapV2Adaptor.sol\":1150:1165  fixedPointMath_ */\n      dup1\n      0x00\n      swap1\n      sload\n      swap1\n      0x0100\n      exp\n      swap1\n      div\n      0xffffffffffffffffffffffffffffffffffffffff\n      and\n        /* \"code/contract/sol/native/utils/adaptor/UniswapV2Adaptor.sol\":1143:1165  return fixedPointMath_ */\n      swap1\n      pop\n        /* \"code/contract/sol/native/utils/adaptor/UniswapV2Adaptor.sol\":1069:1172  function fixedPointMath() public view returns (IFixedPointMath) {... */\n      swap1\n      jump\t// out\n        /* \"code/contract/sol/native/utils/adaptor/UniswapV2Adaptor.sol\":2334:3455  function price(address token0, address token1) public view returns (FixedPointValue memory) {... */\n    tag_28:\n        /* \"code/contract/sol/native/utils/adaptor/UniswapV2Adaptor.sol\":2402:2424  FixedPointValue memory */\n      tag_103\n      tag_67\n      jump\t// in\n    tag_103:\n        /* \"code/contract/sol/native/utils/adaptor/UniswapV2Adaptor.sol\":2436:2451  uint8 decimals0 */\n      0x00\n        /* \"code/contract/sol/native/utils/adaptor/UniswapV2Adaptor.sol\":2461:2476  uint8 decimals1 */\n      dup1\n        /* \"code/contract/sol/native/utils/adaptor/UniswapV2Adaptor.sol\":2486:2500  uint256 result */\n      0x00\n        /* \"code/contract/sol/native/utils/adaptor/UniswapV2Adaptor.sol\":2510:2538  FixedPointValue memory quote */\n      tag_105\n      tag_67\n      jump\t// in\n    tag_105:\n        /* \"code/contract/sol/native/utils/adaptor/UniswapV2Adaptor.sol\":2575:2581  token0 */\n      dup7\n        /* \"code/contract/sol/native/utils/adaptor/UniswapV2Adaptor.sol\":2560:2591  IERC20Metadata(token0).decimals */\n      0xffffffffffffffffffffffffffffffffffffffff\n      and\n      0x313ce567\n        /* \"code/contract/sol/native/utils/adaptor/UniswapV2Adaptor.sol\":2560:2593  IERC20Metadata(token0).decimals() */\n      mload(0x40)\n      dup2\n      0xffffffff\n      and\n      0xe0\n      shl\n      dup2\n      mstore\n      0x04\n      add\n      0x20\n      mload(0x40)\n      dup1\n      dup4\n      sub\n      dup2\n      dup7\n      gas\n      staticcall\n      iszero\n      dup1\n      iszero\n      tag_107\n      jumpi\n      returndatasize\n      0x00\n      dup1\n      returndatacopy\n      revert(0x00, returndatasize)\n    tag_107:\n      pop\n      pop\n      pop\n      pop\n      mload(0x40)\n      returndatasize\n      not(0x1f)\n      0x1f\n      dup3\n      add\n      and\n      dup3\n      add\n      dup1\n      0x40\n      mstore\n      pop\n      dup2\n      add\n      swap1\n      tag_108\n      swap2\n      swap1\n      tag_109\n      jump\t// in\n    tag_108:\n        /* \"code/contract/sol/native/utils/adaptor/UniswapV2Adaptor.sol\":2548:2593  decimals0 = IERC20Metadata(token0).decimals() */\n      swap4\n      pop\n        /* \"code/contract/sol/native/utils/adaptor/UniswapV2Adaptor.sol\":2630:2636  token1 */\n      dup6\n        /* \"code/contract/sol/native/utils/adaptor/UniswapV2Adaptor.sol\":2615:2646  IERC20Metadata(token1).decimals */\n      0xffffffffffffffffffffffffffffffffffffffff\n      and\n      0x313ce567\n        /* \"code/contract/sol/native/utils/adaptor/UniswapV2Adaptor.sol\":2615:2648  IERC20Metadata(token1).decimals() */\n      mload(0x40)\n      dup2\n      0xffffffff\n      and\n      0xe0\n      shl\n      dup2\n      mstore\n      0x04\n      add\n      0x20\n      mload(0x40)\n      dup1\n      dup4\n      sub\n      dup2\n      dup7\n      gas\n      staticcall\n      iszero\n      dup1\n      iszero\n      tag_111\n      jumpi\n      returndatasize\n      0x00\n      dup1\n      returndatacopy\n      revert(0x00, returndatasize)\n    tag_111:\n      pop\n      pop\n      pop\n      pop\n      mload(0x40)\n      returndatasize\n      not(0x1f)\n      0x1f\n      dup3\n      add\n      and\n      dup3\n      add\n      dup1\n      0x40\n      mstore\n      pop\n      dup2\n      add\n      swap1\n      tag_112\n      swap2\n      swap1\n      tag_109\n      jump\t// in\n    tag_112:\n        /* \"code/contract/sol/native/utils/adaptor/UniswapV2Adaptor.sol\":2603:2648  decimals1 = IERC20Metadata(token1).decimals() */\n      swap3\n      pop\n        /* \"code/contract/sol/native/utils/adaptor/UniswapV2Adaptor.sol\":2662:2695  pairIsZeroAddress(token0, token1) */\n      tag_113\n        /* \"code/contract/sol/native/utils/adaptor/UniswapV2Adaptor.sol\":2680:2686  token0 */\n      dup8\n        /* \"code/contract/sol/native/utils/adaptor/UniswapV2Adaptor.sol\":2688:2694  token1 */\n      dup8\n        /* \"code/contract/sol/native/utils/adaptor/UniswapV2Adaptor.sol\":2662:2679  pairIsZeroAddress */\n      tag_42\n        /* \"code/contract/sol/native/utils/adaptor/UniswapV2Adaptor.sol\":2662:2695  pairIsZeroAddress(token0, token1) */\n      jump\t// in\n    tag_113:\n        /* \"code/contract/sol/native/utils/adaptor/UniswapV2Adaptor.sol\":2658:2745  if (pairIsZeroAddress(token0, token1)) return FixedPointValue({value: 0, decimals: 18}) */\n      iszero\n      tag_114\n      jumpi\n        /* \"code/contract/sol/native/utils/adaptor/UniswapV2Adaptor.sol\":2704:2745  FixedPointValue({value: 0, decimals: 18}) */\n      mload(0x40)\n      dup1\n      0x40\n      add\n      0x40\n      mstore\n      dup1\n        /* \"code/contract/sol/native/utils/adaptor/UniswapV2Adaptor.sol\":2728:2729  0 */\n      0x00\n        /* \"code/contract/sol/native/utils/adaptor/UniswapV2Adaptor.sol\":2704:2745  FixedPointValue({value: 0, decimals: 18}) */\n      dup2\n      mstore\n      0x20\n      add\n        /* \"code/contract/sol/native/utils/adaptor/UniswapV2Adaptor.sol\":2741:2743  18 */\n      0x12\n        /* \"code/contract/sol/native/utils/adaptor/UniswapV2Adaptor.sol\":2704:2745  FixedPointValue({value: 0, decimals: 18}) */\n      0xff\n      and\n      dup2\n      mstore\n      pop\n        /* \"code/contract/sol/native/utils/adaptor/UniswapV2Adaptor.sol\":2697:2745  return FixedPointValue({value: 0, decimals: 18}) */\n      swap5\n      pop\n      pop\n      pop\n      pop\n      pop\n      jump(tag_104)\n        /* \"code/contract/sol/native/utils/adaptor/UniswapV2Adaptor.sol\":2658:2745  if (pairIsZeroAddress(token0, token1)) return FixedPointValue({value: 0, decimals: 18}) */\n    tag_114:\n        /* \"code/contract/sol/native/utils/adaptor/UniswapV2Adaptor.sol\":2759:2804  pairIsSameLayoutAsGivenTokens(token0, token1) */\n      tag_115\n        /* \"code/contract/sol/native/utils/adaptor/UniswapV2Adaptor.sol\":2789:2795  token0 */\n      dup8\n        /* \"code/contract/sol/native/utils/adaptor/UniswapV2Adaptor.sol\":2797:2803  token1 */\n      dup8\n        /* \"code/contract/sol/native/utils/adaptor/UniswapV2Adaptor.sol\":2759:2788  pairIsSameLayoutAsGivenTokens */\n      tag_32\n        /* \"code/contract/sol/native/utils/adaptor/UniswapV2Adaptor.sol\":2759:2804  pairIsSameLayoutAsGivenTokens(token0, token1) */\n      jump\t// in\n    tag_115:\n        /* \"code/contract/sol/native/utils/adaptor/UniswapV2Adaptor.sol\":2755:3149  if (pairIsSameLayoutAsGivenTokens(token0, token1)) {... */\n      iszero\n      tag_116\n      jumpi\n        /* \"code/contract/sol/native/utils/adaptor/UniswapV2Adaptor.sol\":2829:2836  router_ */\n      0x02\n      0x00\n      swap1\n      sload\n      swap1\n      0x0100\n      exp\n      swap1\n      div\n      0xffffffffffffffffffffffffffffffffffffffff\n      and\n        /* \"code/contract/sol/native/utils/adaptor/UniswapV2Adaptor.sol\":2829:2842  router_.quote */\n      0xffffffffffffffffffffffffffffffffffffffff\n      and\n      0xad615dec\n        /* \"code/contract/sol/native/utils/adaptor/UniswapV2Adaptor.sol\":2864:2873  decimals0 */\n      dup6\n        /* \"code/contract/sol/native/utils/adaptor/UniswapV2Adaptor.sol\":2860:2862  10 */\n      0x0a\n        /* \"code/contract/sol/native/utils/adaptor/UniswapV2Adaptor.sol\":2860:2873  10**decimals0 */\n      tag_117\n      swap2\n      swap1\n      tag_118\n      jump\t// in\n    tag_117:\n        /* \"code/contract/sol/native/utils/adaptor/UniswapV2Adaptor.sol\":2891:2919  pairReserves(token0, token1) */\n      tag_119\n        /* \"code/contract/sol/native/utils/adaptor/UniswapV2Adaptor.sol\":2904:2910  token0 */\n      dup11\n        /* \"code/contract/sol/native/utils/adaptor/UniswapV2Adaptor.sol\":2912:2918  token1 */\n      dup11\n        /* \"code/contract/sol/native/utils/adaptor/UniswapV2Adaptor.sol\":2891:2903  pairReserves */\n      tag_37\n        /* \"code/contract/sol/native/utils/adaptor/UniswapV2Adaptor.sol\":2891:2919  pairReserves(token0, token1) */\n      jump\t// in\n    tag_119:\n        /* \"code/contract/sol/native/utils/adaptor/UniswapV2Adaptor.sol\":2920:2921  0 */\n      0x00\n        /* \"code/contract/sol/native/utils/adaptor/UniswapV2Adaptor.sol\":2891:2922  pairReserves(token0, token1)[0] */\n      dup2\n      mload\n      dup2\n      lt\n      tag_120\n      jumpi\n      tag_121\n      tag_74\n      jump\t// in\n    tag_121:\n    tag_120:\n      0x20\n      mul\n      0x20\n      add\n      add\n      mload\n        /* \"code/contract/sol/native/utils/adaptor/UniswapV2Adaptor.sol\":2940:2968  pairReserves(token0, token1) */\n      tag_122\n        /* \"code/contract/sol/native/utils/adaptor/UniswapV2Adaptor.sol\":2953:2959  token0 */\n      dup12\n        /* \"code/contract/sol/native/utils/adaptor/UniswapV2Adaptor.sol\":2961:2967  token1 */\n      dup12\n        /* \"code/contract/sol/native/utils/adaptor/UniswapV2Adaptor.sol\":2940:2952  pairReserves */\n      tag_37\n        /* \"code/contract/sol/native/utils/adaptor/UniswapV2Adaptor.sol\":2940:2968  pairReserves(token0, token1) */\n      jump\t// in\n    tag_122:\n        /* \"code/contract/sol/native/utils/adaptor/UniswapV2Adaptor.sol\":2969:2970  1 */\n      0x01\n        /* \"code/contract/sol/native/utils/adaptor/UniswapV2Adaptor.sol\":2940:2971  pairReserves(token0, token1)[1] */\n      dup2\n      mload\n      dup2\n      lt\n      tag_123\n      jumpi\n      tag_124\n      tag_74\n      jump\t// in\n    tag_124:\n    tag_123:\n      0x20\n      mul\n      0x20\n      add\n      add\n      mload\n        /* \"code/contract/sol/native/utils/adaptor/UniswapV2Adaptor.sol\":2829:2985  router_.quote(... */\n      mload(0x40)\n      dup5\n      0xffffffff\n      and\n      0xe0\n      shl\n      dup2\n      mstore\n      0x04\n      add\n      tag_125\n      swap4\n      swap3\n      swap2\n      swap1\n      tag_126\n      jump\t// in\n    tag_125:\n      0x20\n      mload(0x40)\n      dup1\n      dup4\n      sub\n      dup2\n      dup7\n      gas\n      staticcall\n      iszero\n      dup1\n      iszero\n      tag_128\n      jumpi\n      returndatasize\n      0x00\n      dup1\n      returndatacopy\n      revert(0x00, returndatasize)\n    tag_128:\n      pop\n      pop\n      pop\n      pop\n      mload(0x40)\n      returndatasize\n      not(0x1f)\n      0x1f\n      dup3\n      add\n      and\n      dup3\n      add\n      dup1\n      0x40\n      mstore\n      pop\n      dup2\n      add\n      swap1\n      tag_129\n      swap2\n      swap1\n      tag_130\n      jump\t// in\n    tag_129:\n        /* \"code/contract/sol/native/utils/adaptor/UniswapV2Adaptor.sol\":2820:2985  result = router_.quote(... */\n      swap2\n      pop\n        /* \"code/contract/sol/native/utils/adaptor/UniswapV2Adaptor.sol\":3007:3060  FixedPointValue({value: result, decimals: decimals1}) */\n      mload(0x40)\n      dup1\n      0x40\n      add\n      0x40\n      mstore\n      dup1\n        /* \"code/contract/sol/native/utils/adaptor/UniswapV2Adaptor.sol\":3031:3037  result */\n      dup4\n        /* \"code/contract/sol/native/utils/adaptor/UniswapV2Adaptor.sol\":3007:3060  FixedPointValue({value: result, decimals: decimals1}) */\n      dup2\n      mstore\n      0x20\n      add\n        /* \"code/contract/sol/native/utils/adaptor/UniswapV2Adaptor.sol\":3049:3058  decimals1 */\n      dup5\n        /* \"code/contract/sol/native/utils/adaptor/UniswapV2Adaptor.sol\":3007:3060  FixedPointValue({value: result, decimals: decimals1}) */\n      0xff\n      and\n      dup2\n      mstore\n      pop\n        /* \"code/contract/sol/native/utils/adaptor/UniswapV2Adaptor.sol\":2999:3060  quote = FixedPointValue({value: result, decimals: decimals1}) */\n      swap1\n      pop\n        /* \"code/contract/sol/native/utils/adaptor/UniswapV2Adaptor.sol\":3082:3097  fixedPointMath_ */\n      0x00\n      dup1\n      sload\n      swap1\n      0x0100\n      exp\n      swap1\n      div\n      0xffffffffffffffffffffffffffffffffffffffff\n      and\n        /* \"code/contract/sol/native/utils/adaptor/UniswapV2Adaptor.sol\":3082:3105  fixedPointMath_.asEther */\n      0xffffffffffffffffffffffffffffffffffffffff\n      and\n      0x3e60d8e0\n        /* \"code/contract/sol/native/utils/adaptor/UniswapV2Adaptor.sol\":3106:3111  quote */\n      dup3\n        /* \"code/contract/sol/native/utils/adaptor/UniswapV2Adaptor.sol\":3082:3112  fixedPointMath_.asEther(quote) */\n      mload(0x40)\n      dup3\n      0xffffffff\n      and\n      0xe0\n      shl\n      dup2\n      mstore\n      0x04\n      add\n      tag_131\n      swap2\n      swap1\n      tag_20\n      jump\t// in\n    tag_131:\n      0x40\n      dup1\n      mload\n      dup1\n      dup4\n      sub\n      dup2\n      dup7\n      gas\n      staticcall\n      iszero\n      dup1\n      iszero\n      tag_133\n      jumpi\n      returndatasize\n      0x00\n      dup1\n      returndatacopy\n      revert(0x00, returndatasize)\n    tag_133:\n      pop\n      pop\n      pop\n      pop\n      mload(0x40)\n      returndatasize\n      not(0x1f)\n      0x1f\n      dup3\n      add\n      and\n      dup3\n      add\n      dup1\n      0x40\n      mstore\n      pop\n      dup2\n      add\n      swap1\n      tag_134\n      swap2\n      swap1\n      tag_83\n      jump\t// in\n    tag_134:\n        /* \"code/contract/sol/native/utils/adaptor/UniswapV2Adaptor.sol\":3074:3112  quote = fixedPointMath_.asEther(quote) */\n      swap1\n      pop\n        /* \"code/contract/sol/native/utils/adaptor/UniswapV2Adaptor.sol\":3133:3138  quote */\n      dup1\n        /* \"code/contract/sol/native/utils/adaptor/UniswapV2Adaptor.sol\":3126:3138  return quote */\n      swap5\n      pop\n      pop\n      pop\n      pop\n      pop\n      jump(tag_104)\n        /* \"code/contract/sol/native/utils/adaptor/UniswapV2Adaptor.sol\":2755:3149  if (pairIsSameLayoutAsGivenTokens(token0, token1)) {... */\n    tag_116:\n        /* \"code/contract/sol/native/utils/adaptor/UniswapV2Adaptor.sol\":3167:3174  router_ */\n      0x02\n      0x00\n      swap1\n      sload\n      swap1\n      0x0100\n      exp\n      swap1\n      div\n      0xffffffffffffffffffffffffffffffffffffffff\n      and\n        /* \"code/contract/sol/native/utils/adaptor/UniswapV2Adaptor.sol\":3167:3180  router_.quote */\n      0xffffffffffffffffffffffffffffffffffffffff\n      and\n      0xad615dec\n        /* \"code/contract/sol/native/utils/adaptor/UniswapV2Adaptor.sol\":3198:3207  decimals1 */\n      dup5\n        /* \"code/contract/sol/native/utils/adaptor/UniswapV2Adaptor.sol\":3194:3196  10 */\n      0x0a\n        /* \"code/contract/sol/native/utils/adaptor/UniswapV2Adaptor.sol\":3194:3207  10**decimals1 */\n      tag_135\n      swap2\n      swap1\n      tag_118\n      jump\t// in\n    tag_135:\n        /* \"code/contract/sol/native/utils/adaptor/UniswapV2Adaptor.sol\":3221:3249  pairReserves(token0, token1) */\n      tag_136\n        /* \"code/contract/sol/native/utils/adaptor/UniswapV2Adaptor.sol\":3234:3240  token0 */\n      dup11\n        /* \"code/contract/sol/native/utils/adaptor/UniswapV2Adaptor.sol\":3242:3248  token1 */\n      dup11\n        /* \"code/contract/sol/native/utils/adaptor/UniswapV2Adaptor.sol\":3221:3233  pairReserves */\n      tag_37\n        /* \"code/contract/sol/native/utils/adaptor/UniswapV2Adaptor.sol\":3221:3249  pairReserves(token0, token1) */\n      jump\t// in\n    tag_136:\n        /* \"code/contract/sol/native/utils/adaptor/UniswapV2Adaptor.sol\":3250:3251  1 */\n      0x01\n        /* \"code/contract/sol/native/utils/adaptor/UniswapV2Adaptor.sol\":3221:3252  pairReserves(token0, token1)[1] */\n      dup2\n      mload\n      dup2\n      lt\n      tag_137\n      jumpi\n      tag_138\n      tag_74\n      jump\t// in\n    tag_138:\n    tag_137:\n      0x20\n      mul\n      0x20\n      add\n      add\n      mload\n        /* \"code/contract/sol/native/utils/adaptor/UniswapV2Adaptor.sol\":3266:3294  pairReserves(token0, token1) */\n      tag_139\n        /* \"code/contract/sol/native/utils/adaptor/UniswapV2Adaptor.sol\":3279:3285  token0 */\n      dup12\n        /* \"code/contract/sol/native/utils/adaptor/UniswapV2Adaptor.sol\":3287:3293  token1 */\n      dup12\n        /* \"code/contract/sol/native/utils/adaptor/UniswapV2Adaptor.sol\":3266:3278  pairReserves */\n      tag_37\n        /* \"code/contract/sol/native/utils/adaptor/UniswapV2Adaptor.sol\":3266:3294  pairReserves(token0, token1) */\n      jump\t// in\n    tag_139:\n        /* \"code/contract/sol/native/utils/adaptor/UniswapV2Adaptor.sol\":3295:3296  0 */\n      0x00\n        /* \"code/contract/sol/native/utils/adaptor/UniswapV2Adaptor.sol\":3266:3297  pairReserves(token0, token1)[0] */\n      dup2\n      mload\n      dup2\n      lt\n      tag_140\n      jumpi\n      tag_141\n      tag_74\n      jump\t// in\n    tag_141:\n    tag_140:\n      0x20\n      mul\n      0x20\n      add\n      add\n      mload\n        /* \"code/contract/sol/native/utils/adaptor/UniswapV2Adaptor.sol\":3167:3307  router_.quote(... */\n      mload(0x40)\n      dup5\n      0xffffffff\n      and\n      0xe0\n      shl\n      dup2\n      mstore\n      0x04\n      add\n      tag_142\n      swap4\n      swap3\n      swap2\n      swap1\n      tag_126\n      jump\t// in\n    tag_142:\n      0x20\n      mload(0x40)\n      dup1\n      dup4\n      sub\n      dup2\n      dup7\n      gas\n      staticcall\n      iszero\n      dup1\n      iszero\n      tag_144\n      jumpi\n      returndatasize\n      0x00\n      dup1\n      returndatacopy\n      revert(0x00, returndatasize)\n    tag_144:\n      pop\n      pop\n      pop\n      pop\n      mload(0x40)\n      returndatasize\n      not(0x1f)\n      0x1f\n      dup3\n      add\n      and\n      dup3\n      add\n      dup1\n      0x40\n      mstore\n      pop\n      dup2\n      add\n      swap1\n      tag_145\n      swap2\n      swap1\n      tag_130\n      jump\t// in\n    tag_145:\n        /* \"code/contract/sol/native/utils/adaptor/UniswapV2Adaptor.sol\":3158:3307  result = router_.quote(... */\n      swap2\n      pop\n        /* \"code/contract/sol/native/utils/adaptor/UniswapV2Adaptor.sol\":3325:3378  FixedPointValue({value: result, decimals: decimals1}) */\n      mload(0x40)\n      dup1\n      0x40\n      add\n      0x40\n      mstore\n      dup1\n        /* \"code/contract/sol/native/utils/adaptor/UniswapV2Adaptor.sol\":3349:3355  result */\n      dup4\n        /* \"code/contract/sol/native/utils/adaptor/UniswapV2Adaptor.sol\":3325:3378  FixedPointValue({value: result, decimals: decimals1}) */\n      dup2\n      mstore\n      0x20\n      add\n        /* \"code/contract/sol/native/utils/adaptor/UniswapV2Adaptor.sol\":3367:3376  decimals1 */\n      dup5\n        /* \"code/contract/sol/native/utils/adaptor/UniswapV2Adaptor.sol\":3325:3378  FixedPointValue({value: result, decimals: decimals1}) */\n      0xff\n      and\n      dup2\n      mstore\n      pop\n        /* \"code/contract/sol/native/utils/adaptor/UniswapV2Adaptor.sol\":3317:3378  quote = FixedPointValue({value: result, decimals: decimals1}) */\n      swap1\n      pop\n        /* \"code/contract/sol/native/utils/adaptor/UniswapV2Adaptor.sol\":3396:3411  fixedPointMath_ */\n      0x00\n      dup1\n      sload\n      swap1\n      0x0100\n      exp\n      swap1\n      div\n      0xffffffffffffffffffffffffffffffffffffffff\n      and\n        /* \"code/contract/sol/native/utils/adaptor/UniswapV2Adaptor.sol\":3396:3419  fixedPointMath_.asEther */\n      0xffffffffffffffffffffffffffffffffffffffff\n      and\n      0x3e60d8e0\n        /* \"code/contract/sol/native/utils/adaptor/UniswapV2Adaptor.sol\":3420:3425  quote */\n      dup3\n        /* \"code/contract/sol/native/utils/adaptor/UniswapV2Adaptor.sol\":3396:3426  fixedPointMath_.asEther(quote) */\n      mload(0x40)\n      dup3\n      0xffffffff\n      and\n      0xe0\n      shl\n      dup2\n      mstore\n      0x04\n      add\n      tag_146\n      swap2\n      swap1\n      tag_20\n      jump\t// in\n    tag_146:\n      0x40\n      dup1\n      mload\n      dup1\n      dup4\n      sub\n      dup2\n      dup7\n      gas\n      staticcall\n      iszero\n      dup1\n      iszero\n      tag_148\n      jumpi\n      returndatasize\n      0x00\n      dup1\n      returndatacopy\n      revert(0x00, returndatasize)\n    tag_148:\n      pop\n      pop\n      pop\n      pop\n      mload(0x40)\n      returndatasize\n      not(0x1f)\n      0x1f\n      dup3\n      add\n      and\n      dup3\n      add\n      dup1\n      0x40\n      mstore\n      pop\n      dup2\n      add\n      swap1\n      tag_149\n      swap2\n      swap1\n      tag_83\n      jump\t// in\n    tag_149:\n        /* \"code/contract/sol/native/utils/adaptor/UniswapV2Adaptor.sol\":3388:3426  quote = fixedPointMath_.asEther(quote) */\n      swap1\n      pop\n        /* \"code/contract/sol/native/utils/adaptor/UniswapV2Adaptor.sol\":3443:3448  quote */\n      dup1\n        /* \"code/contract/sol/native/utils/adaptor/UniswapV2Adaptor.sol\":3436:3448  return quote */\n      swap5\n      pop\n      pop\n      pop\n      pop\n      pop\n        /* \"code/contract/sol/native/utils/adaptor/UniswapV2Adaptor.sol\":2334:3455  function price(address token0, address token1) public view returns (FixedPointValue memory) {... */\n    tag_104:\n      swap3\n      swap2\n      pop\n      pop\n      jump\t// out\n        /* \"code/contract/sol/native/utils/adaptor/UniswapV2Adaptor.sol\":2158:2328  function pairIsSameLayoutAsGivenTokens(address token0, address token1) public view returns (bool) {... */\n    tag_32:\n        /* \"code/contract/sol/native/utils/adaptor/UniswapV2Adaptor.sol\":2250:2254  bool */\n      0x00\n        /* \"code/contract/sol/native/utils/adaptor/UniswapV2Adaptor.sol\":2283:2312  pairInterface(token0, token1) */\n      tag_151\n        /* \"code/contract/sol/native/utils/adaptor/UniswapV2Adaptor.sol\":2297:2303  token0 */\n      dup4\n        /* \"code/contract/sol/native/utils/adaptor/UniswapV2Adaptor.sol\":2305:2311  token1 */\n      dup4\n        /* \"code/contract/sol/native/utils/adaptor/UniswapV2Adaptor.sol\":2283:2296  pairInterface */\n      tag_46\n        /* \"code/contract/sol/native/utils/adaptor/UniswapV2Adaptor.sol\":2283:2312  pairInterface(token0, token1) */\n      jump\t// in\n    tag_151:\n        /* \"code/contract/sol/native/utils/adaptor/UniswapV2Adaptor.sol\":2283:2319  pairInterface(token0, token1).token0 */\n      0xffffffffffffffffffffffffffffffffffffffff\n      and\n      0x0dfe1681\n        /* \"code/contract/sol/native/utils/adaptor/UniswapV2Adaptor.sol\":2283:2321  pairInterface(token0, token1).token0() */\n      mload(0x40)\n      dup2\n      0xffffffff\n      and\n      0xe0\n      shl\n      dup2\n      mstore\n      0x04\n      add\n      0x20\n      mload(0x40)\n      dup1\n      dup4\n      sub\n      dup2\n      dup7\n      gas\n      staticcall\n      iszero\n      dup1\n      iszero\n      tag_153\n      jumpi\n      returndatasize\n      0x00\n      dup1\n      returndatacopy\n      revert(0x00, returndatasize)\n    tag_153:\n      pop\n      pop\n      pop\n      pop\n      mload(0x40)\n      returndatasize\n      not(0x1f)\n      0x1f\n      dup3\n      add\n      and\n      dup3\n      add\n      dup1\n      0x40\n      mstore\n      pop\n      dup2\n      add\n      swap1\n      tag_154\n      swap2\n      swap1\n      tag_155\n      jump\t// in\n    tag_154:\n        /* \"code/contract/sol/native/utils/adaptor/UniswapV2Adaptor.sol\":2273:2321  token0 == pairInterface(token0, token1).token0() */\n      0xffffffffffffffffffffffffffffffffffffffff\n      and\n        /* \"code/contract/sol/native/utils/adaptor/UniswapV2Adaptor.sol\":2273:2279  token0 */\n      dup4\n        /* \"code/contract/sol/native/utils/adaptor/UniswapV2Adaptor.sol\":2273:2321  token0 == pairInterface(token0, token1).token0() */\n      0xffffffffffffffffffffffffffffffffffffffff\n      and\n      eq\n        /* \"code/contract/sol/native/utils/adaptor/UniswapV2Adaptor.sol\":2266:2321  return token0 == pairInterface(token0, token1).token0() */\n      swap1\n      pop\n        /* \"code/contract/sol/native/utils/adaptor/UniswapV2Adaptor.sol\":2158:2328  function pairIsSameLayoutAsGivenTokens(address token0, address token1) public view returns (bool) {... */\n      swap3\n      swap2\n      pop\n      pop\n      jump\t// out\n        /* \"code/contract/sol/native/utils/adaptor/UniswapV2Adaptor.sol\":1681:1995  function pairReserves(address token0, address token1) public view returns (uint256[] memory) {... */\n    tag_37:\n        /* \"code/contract/sol/native/utils/adaptor/UniswapV2Adaptor.sol\":1756:1772  uint256[] memory */\n      0x60\n        /* \"code/contract/sol/native/utils/adaptor/UniswapV2Adaptor.sol\":1784:1809  uint256[] memory reserves */\n      dup1\n        /* \"code/contract/sol/native/utils/adaptor/UniswapV2Adaptor.sol\":1844:1845  2 */\n      0x02\n        /* \"code/contract/sol/native/utils/adaptor/UniswapV2Adaptor.sol\":1830:1846  new uint256[](2) */\n      0xffffffffffffffff\n      dup2\n      gt\n      iszero\n      tag_157\n      jumpi\n      tag_158\n      tag_159\n      jump\t// in\n    tag_158:\n    tag_157:\n      mload(0x40)\n      swap1\n      dup1\n      dup3\n      mstore\n      dup1\n      0x20\n      mul\n      0x20\n      add\n      dup3\n      add\n      0x40\n      mstore\n      dup1\n      iszero\n      tag_160\n      jumpi\n      dup2\n      0x20\n      add\n      0x20\n      dup3\n      mul\n      dup1\n      calldatasize\n      dup4\n      calldatacopy\n      dup1\n      dup3\n      add\n      swap2\n      pop\n      pop\n      swap1\n      pop\n    tag_160:\n      pop\n        /* \"code/contract/sol/native/utils/adaptor/UniswapV2Adaptor.sol\":1819:1846  reserves = new uint256[](2) */\n      swap1\n      pop\n        /* \"code/contract/sol/native/utils/adaptor/UniswapV2Adaptor.sol\":1920:1949  pairInterface(token0, token1) */\n      tag_161\n        /* \"code/contract/sol/native/utils/adaptor/UniswapV2Adaptor.sol\":1934:1940  token0 */\n      dup5\n        /* \"code/contract/sol/native/utils/adaptor/UniswapV2Adaptor.sol\":1942:1948  token1 */\n      dup5\n        /* \"code/contract/sol/native/utils/adaptor/UniswapV2Adaptor.sol\":1920:1933  pairInterface */\n      tag_46\n        /* \"code/contract/sol/native/utils/adaptor/UniswapV2Adaptor.sol\":1920:1949  pairInterface(token0, token1) */\n      jump\t// in\n    tag_161:\n        /* \"code/contract/sol/native/utils/adaptor/UniswapV2Adaptor.sol\":1920:1961  pairInterface(token0, token1).getReserves */\n      0xffffffffffffffffffffffffffffffffffffffff\n      and\n      0x0902f1ac\n        /* \"code/contract/sol/native/utils/adaptor/UniswapV2Adaptor.sol\":1920:1963  pairInterface(token0, token1).getReserves() */\n      mload(0x40)\n      dup2\n      0xffffffff\n      and\n      0xe0\n      shl\n      dup2\n      mstore\n      0x04\n      add\n      0x60\n      mload(0x40)\n      dup1\n      dup4\n      sub\n      dup2\n      dup7\n      gas\n      staticcall\n      iszero\n      dup1\n      iszero\n      tag_163\n      jumpi\n      returndatasize\n      0x00\n      dup1\n      returndatacopy\n      revert(0x00, returndatasize)\n    tag_163:\n      pop\n      pop\n      pop\n      pop\n      mload(0x40)\n      returndatasize\n      not(0x1f)\n      0x1f\n      dup3\n      add\n      and\n      dup3\n      add\n      dup1\n      0x40\n      mstore\n      pop\n      dup2\n      add\n      swap1\n      tag_164\n      swap2\n      swap1\n      tag_165\n      jump\t// in\n    tag_164:\n        /* \"code/contract/sol/native/utils/adaptor/UniswapV2Adaptor.sol\":1856:1963  (... */\n      dup3\n      0xffffffffffffffffffffffffffff\n      and\n      swap3\n      pop\n      dup2\n      0xffffffffffffffffffffffffffff\n      and\n      swap2\n      pop\n      pop\n        /* \"code/contract/sol/native/utils/adaptor/UniswapV2Adaptor.sol\":1870:1878  reserves */\n      dup3\n        /* \"code/contract/sol/native/utils/adaptor/UniswapV2Adaptor.sol\":1879:1880  0 */\n      0x00\n        /* \"code/contract/sol/native/utils/adaptor/UniswapV2Adaptor.sol\":1870:1881  reserves[0] */\n      dup2\n      mload\n      dup2\n      lt\n      tag_166\n      jumpi\n      tag_167\n      tag_74\n      jump\t// in\n    tag_167:\n    tag_166:\n      0x20\n      mul\n      0x20\n      add\n      add\n        /* \"code/contract/sol/native/utils/adaptor/UniswapV2Adaptor.sol\":1895:1903  reserves */\n      dup4\n        /* \"code/contract/sol/native/utils/adaptor/UniswapV2Adaptor.sol\":1904:1905  1 */\n      0x01\n        /* \"code/contract/sol/native/utils/adaptor/UniswapV2Adaptor.sol\":1895:1906  reserves[1] */\n      dup2\n      mload\n      dup2\n      lt\n      tag_168\n      jumpi\n      tag_169\n      tag_74\n      jump\t// in\n    tag_169:\n    tag_168:\n      0x20\n      mul\n      0x20\n      add\n      add\n        /* \"code/contract/sol/native/utils/adaptor/UniswapV2Adaptor.sol\":1856:1963  (... */\n      dup3\n      dup2\n      mstore\n      pop\n      dup3\n      dup2\n      mstore\n      pop\n      pop\n      pop\n        /* \"code/contract/sol/native/utils/adaptor/UniswapV2Adaptor.sol\":1980:1988  reserves */\n      dup1\n        /* \"code/contract/sol/native/utils/adaptor/UniswapV2Adaptor.sol\":1973:1988  return reserves */\n      swap2\n      pop\n      pop\n        /* \"code/contract/sol/native/utils/adaptor/UniswapV2Adaptor.sol\":1681:1995  function pairReserves(address token0, address token1) public view returns (uint256[] memory) {... */\n      swap3\n      swap2\n      pop\n      pop\n      jump\t// out\n        /* \"code/contract/sol/native/utils/adaptor/UniswapV2Adaptor.sol\":2001:2152  function pairIsZeroAddress(address token0, address token1) public view returns (bool) {... */\n    tag_42:\n        /* \"code/contract/sol/native/utils/adaptor/UniswapV2Adaptor.sol\":2081:2085  bool */\n      0x00\n        /* \"code/contract/sol/native/utils/adaptor/UniswapV2Adaptor.sol\":2143:2144  0 */\n      dup1\n        /* \"code/contract/sol/native/utils/adaptor/UniswapV2Adaptor.sol\":2104:2145  pairAddress(token0, token1) == address(0) */\n      0xffffffffffffffffffffffffffffffffffffffff\n      and\n        /* \"code/contract/sol/native/utils/adaptor/UniswapV2Adaptor.sol\":2104:2131  pairAddress(token0, token1) */\n      tag_171\n        /* \"code/contract/sol/native/utils/adaptor/UniswapV2Adaptor.sol\":2116:2122  token0 */\n      dup5\n        /* \"code/contract/sol/native/utils/adaptor/UniswapV2Adaptor.sol\":2124:2130  token1 */\n      dup5\n        /* \"code/contract/sol/native/utils/adaptor/UniswapV2Adaptor.sol\":2104:2115  pairAddress */\n      tag_55\n        /* \"code/contract/sol/native/utils/adaptor/UniswapV2Adaptor.sol\":2104:2131  pairAddress(token0, token1) */\n      jump\t// in\n    tag_171:\n        /* \"code/contract/sol/native/utils/adaptor/UniswapV2Adaptor.sol\":2104:2145  pairAddress(token0, token1) == address(0) */\n      0xffffffffffffffffffffffffffffffffffffffff\n      and\n      eq\n        /* \"code/contract/sol/native/utils/adaptor/UniswapV2Adaptor.sol\":2097:2145  return pairAddress(token0, token1) == address(0) */\n      swap1\n      pop\n        /* \"code/contract/sol/native/utils/adaptor/UniswapV2Adaptor.sol\":2001:2152  function pairIsZeroAddress(address token0, address token1) public view returns (bool) {... */\n      swap3\n      swap2\n      pop\n      pop\n      jump\t// out\n        /* \"code/contract/sol/native/utils/adaptor/UniswapV2Adaptor.sol\":1516:1675  function pairInterface(address token0, address token1) public view returns (IUniswapV2Pair) {... */\n    tag_46:\n        /* \"code/contract/sol/native/utils/adaptor/UniswapV2Adaptor.sol\":1592:1606  IUniswapV2Pair */\n      0x00\n        /* \"code/contract/sol/native/utils/adaptor/UniswapV2Adaptor.sol\":1640:1667  pairAddress(token0, token1) */\n      tag_173\n        /* \"code/contract/sol/native/utils/adaptor/UniswapV2Adaptor.sol\":1652:1658  token0 */\n      dup4\n        /* \"code/contract/sol/native/utils/adaptor/UniswapV2Adaptor.sol\":1660:1666  token1 */\n      dup4\n        /* \"code/contract/sol/native/utils/adaptor/UniswapV2Adaptor.sol\":1640:1651  pairAddress */\n      tag_55\n        /* \"code/contract/sol/native/utils/adaptor/UniswapV2Adaptor.sol\":1640:1667  pairAddress(token0, token1) */\n      jump\t// in\n    tag_173:\n        /* \"code/contract/sol/native/utils/adaptor/UniswapV2Adaptor.sol\":1618:1668  return IUniswapV2Pair(pairAddress(token0, token1)) */\n      swap1\n      pop\n        /* \"code/contract/sol/native/utils/adaptor/UniswapV2Adaptor.sol\":1516:1675  function pairInterface(address token0, address token1) public view returns (IUniswapV2Pair) {... */\n      swap3\n      swap2\n      pop\n      pop\n      jump\t// out\n        /* \"code/contract/sol/native/utils/adaptor/UniswapV2Adaptor.sol\":1178:1269  function factory() public view returns (IUniswapV2Factory) {... */\n    tag_50:\n        /* \"code/contract/sol/native/utils/adaptor/UniswapV2Adaptor.sol\":1218:1235  IUniswapV2Factory */\n      0x00\n        /* \"code/contract/sol/native/utils/adaptor/UniswapV2Adaptor.sol\":1254:1262  factory_ */\n      0x01\n      0x00\n      swap1\n      sload\n      swap1\n      0x0100\n      exp\n      swap1\n      div\n      0xffffffffffffffffffffffffffffffffffffffff\n      and\n        /* \"code/contract/sol/native/utils/adaptor/UniswapV2Adaptor.sol\":1247:1262  return factory_ */\n      swap1\n      pop\n        /* \"code/contract/sol/native/utils/adaptor/UniswapV2Adaptor.sol\":1178:1269  function factory() public view returns (IUniswapV2Factory) {... */\n      swap1\n      jump\t// out\n        /* \"code/contract/sol/native/utils/adaptor/UniswapV2Adaptor.sol\":1371:1510  function pairAddress(address token0, address token1) public view returns (address) {... */\n    tag_55:\n        /* \"code/contract/sol/native/utils/adaptor/UniswapV2Adaptor.sol\":1445:1452  address */\n      0x00\n        /* \"code/contract/sol/native/utils/adaptor/UniswapV2Adaptor.sol\":1471:1479  factory_ */\n      0x01\n      0x00\n      swap1\n      sload\n      swap1\n      0x0100\n      exp\n      swap1\n      div\n      0xffffffffffffffffffffffffffffffffffffffff\n      and\n        /* \"code/contract/sol/native/utils/adaptor/UniswapV2Adaptor.sol\":1471:1487  factory_.getPair */\n      0xffffffffffffffffffffffffffffffffffffffff\n      and\n      0xe6a43905\n        /* \"code/contract/sol/native/utils/adaptor/UniswapV2Adaptor.sol\":1488:1494  token0 */\n      dup5\n        /* \"code/contract/sol/native/utils/adaptor/UniswapV2Adaptor.sol\":1496:1502  token1 */\n      dup5\n        /* \"code/contract/sol/native/utils/adaptor/UniswapV2Adaptor.sol\":1471:1503  factory_.getPair(token0, token1) */\n      mload(0x40)\n      dup4\n      0xffffffff\n      and\n      0xe0\n      shl\n      dup2\n      mstore\n      0x04\n      add\n      tag_176\n      swap3\n      swap2\n      swap1\n      tag_177\n      jump\t// in\n    tag_176:\n      0x20\n      mload(0x40)\n      dup1\n      dup4\n      sub\n      dup2\n      dup7\n      gas\n      staticcall\n      iszero\n      dup1\n      iszero\n      tag_179\n      jumpi\n      returndatasize\n      0x00\n      dup1\n      returndatacopy\n      revert(0x00, returndatasize)\n    tag_179:\n      pop\n      pop\n      pop\n      pop\n      mload(0x40)\n      returndatasize\n      not(0x1f)\n      0x1f\n      dup3\n      add\n      and\n      dup3\n      add\n      dup1\n      0x40\n      mstore\n      pop\n      dup2\n      add\n      swap1\n      tag_180\n      swap2\n      swap1\n      tag_155\n      jump\t// in\n    tag_180:\n        /* \"code/contract/sol/native/utils/adaptor/UniswapV2Adaptor.sol\":1464:1503  return factory_.getPair(token0, token1) */\n      swap1\n      pop\n        /* \"code/contract/sol/native/utils/adaptor/UniswapV2Adaptor.sol\":1371:1510  function pairAddress(address token0, address token1) public view returns (address) {... */\n      swap3\n      swap2\n      pop\n      pop\n      jump\t// out\n        /* \"code/contract/sol/native/utils/adaptor/UniswapV2Adaptor.sol\":3461:4299  function amountOut(address[] memory path, FixedPointValue memory amountIn) public view returns (FixedPointValue memory) {... */\n    tag_60:\n        /* \"code/contract/sol/native/utils/adaptor/UniswapV2Adaptor.sol\":3557:3579  FixedPointValue memory */\n      tag_181\n      tag_67\n      jump\t// in\n    tag_181:\n        /* \"code/contract/sol/native/utils/adaptor/UniswapV2Adaptor.sol\":3591:3605  address token0 */\n      0x00\n        /* \"code/contract/sol/native/utils/adaptor/UniswapV2Adaptor.sol\":3615:3629  address token1 */\n      dup1\n        /* \"code/contract/sol/native/utils/adaptor/UniswapV2Adaptor.sol\":3639:3654  uint8 decimals0 */\n      0x00\n        /* \"code/contract/sol/native/utils/adaptor/UniswapV2Adaptor.sol\":3664:3679  uint8 decimals1 */\n      dup1\n        /* \"code/contract/sol/native/utils/adaptor/UniswapV2Adaptor.sol\":3689:3713  uint256[] memory amounts */\n      0x60\n        /* \"code/contract/sol/native/utils/adaptor/UniswapV2Adaptor.sol\":3723:3737  uint256 amount */\n      0x00\n        /* \"code/contract/sol/native/utils/adaptor/UniswapV2Adaptor.sol\":3747:3779  FixedPointValue memory amountOut */\n      tag_183\n      tag_67\n      jump\t// in\n    tag_183:\n        /* \"code/contract/sol/native/utils/adaptor/UniswapV2Adaptor.sol\":3798:3802  path */\n      dup10\n        /* \"code/contract/sol/native/utils/adaptor/UniswapV2Adaptor.sol\":3803:3804  0 */\n      0x00\n        /* \"code/contract/sol/native/utils/adaptor/UniswapV2Adaptor.sol\":3798:3805  path[0] */\n      dup2\n      mload\n      dup2\n      lt\n      tag_184\n      jumpi\n      tag_185\n      tag_74\n      jump\t// in\n    tag_185:\n    tag_184:\n      0x20\n      mul\n      0x20\n      add\n      add\n      mload\n        /* \"code/contract/sol/native/utils/adaptor/UniswapV2Adaptor.sol\":3789:3805  token0 = path[0] */\n      swap7\n      pop\n        /* \"code/contract/sol/native/utils/adaptor/UniswapV2Adaptor.sol\":3824:3828  path */\n      dup10\n        /* \"code/contract/sol/native/utils/adaptor/UniswapV2Adaptor.sol\":3843:3844  1 */\n      0x01\n        /* \"code/contract/sol/native/utils/adaptor/UniswapV2Adaptor.sol\":3829:3833  path */\n      dup12\n        /* \"code/contract/sol/native/utils/adaptor/UniswapV2Adaptor.sol\":3829:3840  path.length */\n      mload\n        /* \"code/contract/sol/native/utils/adaptor/UniswapV2Adaptor.sol\":3829:3844  path.length - 1 */\n      tag_186\n      swap2\n      swap1\n      tag_76\n      jump\t// in\n    tag_186:\n        /* \"code/contract/sol/native/utils/adaptor/UniswapV2Adaptor.sol\":3824:3845  path[path.length - 1] */\n      dup2\n      mload\n      dup2\n      lt\n      tag_187\n      jumpi\n      tag_188\n      tag_74\n      jump\t// in\n    tag_188:\n    tag_187:\n      0x20\n      mul\n      0x20\n      add\n      add\n      mload\n        /* \"code/contract/sol/native/utils/adaptor/UniswapV2Adaptor.sol\":3815:3845  token1 = path[path.length - 1] */\n      swap6\n      pop\n        /* \"code/contract/sol/native/utils/adaptor/UniswapV2Adaptor.sol\":3882:3888  token0 */\n      dup7\n        /* \"code/contract/sol/native/utils/adaptor/UniswapV2Adaptor.sol\":3867:3898  IERC20Metadata(token0).decimals */\n      0xffffffffffffffffffffffffffffffffffffffff\n      and\n      0x313ce567\n        /* \"code/contract/sol/native/utils/adaptor/UniswapV2Adaptor.sol\":3867:3900  IERC20Metadata(token0).decimals() */\n      mload(0x40)\n      dup2\n      0xffffffff\n      and\n      0xe0\n      shl\n      dup2\n      mstore\n      0x04\n      add\n      0x20\n      mload(0x40)\n      dup1\n      dup4\n      sub\n      dup2\n      dup7\n      gas\n      staticcall\n      iszero\n      dup1\n      iszero\n      tag_190\n      jumpi\n      returndatasize\n      0x00\n      dup1\n      returndatacopy\n      revert(0x00, returndatasize)\n    tag_190:\n      pop\n      pop\n      pop\n      pop\n      mload(0x40)\n      returndatasize\n      not(0x1f)\n      0x1f\n      dup3\n      add\n      and\n      dup3\n      add\n      dup1\n      0x40\n      mstore\n      pop\n      dup2\n      add\n      swap1\n      tag_191\n      swap2\n      swap1\n      tag_109\n      jump\t// in\n    tag_191:\n        /* \"code/contract/sol/native/utils/adaptor/UniswapV2Adaptor.sol\":3855:3900  decimals0 = IERC20Metadata(token0).decimals() */\n      swap5\n      pop\n        /* \"code/contract/sol/native/utils/adaptor/UniswapV2Adaptor.sol\":3937:3943  token1 */\n      dup6\n        /* \"code/contract/sol/native/utils/adaptor/UniswapV2Adaptor.sol\":3922:3953  IERC20Metadata(token1).decimals */\n      0xffffffffffffffffffffffffffffffffffffffff\n      and\n      0x313ce567\n        /* \"code/contract/sol/native/utils/adaptor/UniswapV2Adaptor.sol\":3922:3955  IERC20Metadata(token1).decimals() */\n      mload(0x40)\n      dup2\n      0xffffffff\n      and\n      0xe0\n      shl\n      dup2\n      mstore\n      0x04\n      add\n      0x20\n      mload(0x40)\n      dup1\n      dup4\n      sub\n      dup2\n      dup7\n      gas\n      staticcall\n      iszero\n      dup1\n      iszero\n      tag_193\n      jumpi\n      returndatasize\n      0x00\n      dup1\n      returndatacopy\n      revert(0x00, returndatasize)\n    tag_193:\n      pop\n      pop\n      pop\n      pop\n      mload(0x40)\n      returndatasize\n      not(0x1f)\n      0x1f\n      dup3\n      add\n      and\n      dup3\n      add\n      dup1\n      0x40\n      mstore\n      pop\n      dup2\n      add\n      swap1\n      tag_194\n      swap2\n      swap1\n      tag_109\n      jump\t// in\n    tag_194:\n        /* \"code/contract/sol/native/utils/adaptor/UniswapV2Adaptor.sol\":3910:3955  decimals1 = IERC20Metadata(token1).decimals() */\n      swap4\n      pop\n        /* \"code/contract/sol/native/utils/adaptor/UniswapV2Adaptor.sol\":3976:3991  fixedPointMath_ */\n      0x00\n      dup1\n      sload\n      swap1\n      0x0100\n      exp\n      swap1\n      div\n      0xffffffffffffffffffffffffffffffffffffffff\n      and\n        /* \"code/contract/sol/native/utils/adaptor/UniswapV2Adaptor.sol\":3976:4005  fixedPointMath_.asNewDecimals */\n      0xffffffffffffffffffffffffffffffffffffffff\n      and\n      0x7d02ebf4\n        /* \"code/contract/sol/native/utils/adaptor/UniswapV2Adaptor.sol\":4006:4014  amountIn */\n      dup11\n        /* \"code/contract/sol/native/utils/adaptor/UniswapV2Adaptor.sol\":4016:4025  decimals0 */\n      dup8\n        /* \"code/contract/sol/native/utils/adaptor/UniswapV2Adaptor.sol\":3976:4026  fixedPointMath_.asNewDecimals(amountIn, decimals0) */\n      mload(0x40)\n      dup4\n      0xffffffff\n      and\n      0xe0\n      shl\n      dup2\n      mstore\n      0x04\n      add\n      tag_195\n      swap3\n      swap2\n      swap1\n      tag_196\n      jump\t// in\n    tag_195:\n      0x40\n      dup1\n      mload\n      dup1\n      dup4\n      sub\n      dup2\n      dup7\n      gas\n      staticcall\n      iszero\n      dup1\n      iszero\n      tag_198\n      jumpi\n      returndatasize\n      0x00\n      dup1\n      returndatacopy\n      revert(0x00, returndatasize)\n    tag_198:\n      pop\n      pop\n      pop\n      pop\n      mload(0x40)\n      returndatasize\n      not(0x1f)\n      0x1f\n      dup3\n      add\n      and\n      dup3\n      add\n      dup1\n      0x40\n      mstore\n      pop\n      dup2\n      add\n      swap1\n      tag_199\n      swap2\n      swap1\n      tag_83\n      jump\t// in\n    tag_199:\n        /* \"code/contract/sol/native/utils/adaptor/UniswapV2Adaptor.sol\":3965:4026  amountIn = fixedPointMath_.asNewDecimals(amountIn, decimals0) */\n      swap9\n      pop\n        /* \"code/contract/sol/native/utils/adaptor/UniswapV2Adaptor.sol\":4046:4053  router_ */\n      0x02\n      0x00\n      swap1\n      sload\n      swap1\n      0x0100\n      exp\n      swap1\n      div\n      0xffffffffffffffffffffffffffffffffffffffff\n      and\n        /* \"code/contract/sol/native/utils/adaptor/UniswapV2Adaptor.sol\":4046:4067  router_.getAmountsOut */\n      0xffffffffffffffffffffffffffffffffffffffff\n      and\n      0xd06ca61f\n        /* \"code/contract/sol/native/utils/adaptor/UniswapV2Adaptor.sol\":4068:4076  amountIn */\n      dup11\n        /* \"code/contract/sol/native/utils/adaptor/UniswapV2Adaptor.sol\":4068:4082  amountIn.value */\n      0x00\n      add\n      mload\n        /* \"code/contract/sol/native/utils/adaptor/UniswapV2Adaptor.sol\":4084:4088  path */\n      dup13\n        /* \"code/contract/sol/native/utils/adaptor/UniswapV2Adaptor.sol\":4046:4089  router_.getAmountsOut(amountIn.value, path) */\n      mload(0x40)\n      dup4\n      0xffffffff\n      and\n      0xe0\n      shl\n      dup2\n      mstore\n      0x04\n      add\n      tag_200\n      swap3\n      swap2\n      swap1\n      tag_201\n      jump\t// in\n    tag_200:\n      0x00\n      mload(0x40)\n      dup1\n      dup4\n      sub\n      dup2\n      dup7\n      gas\n      staticcall\n      iszero\n      dup1\n      iszero\n      tag_203\n      jumpi\n      returndatasize\n      0x00\n      dup1\n      returndatacopy\n      revert(0x00, returndatasize)\n    tag_203:\n      pop\n      pop\n      pop\n      pop\n      mload(0x40)\n      returndatasize\n      0x00\n      dup3\n      returndatacopy\n      returndatasize\n      not(0x1f)\n      0x1f\n      dup3\n      add\n      and\n      dup3\n      add\n      dup1\n      0x40\n      mstore\n      pop\n      dup2\n      add\n      swap1\n      tag_204\n      swap2\n      swap1\n      tag_205\n      jump\t// in\n    tag_204:\n        /* \"code/contract/sol/native/utils/adaptor/UniswapV2Adaptor.sol\":4036:4089  amounts = router_.getAmountsOut(amountIn.value, path) */\n      swap3\n      pop\n        /* \"code/contract/sol/native/utils/adaptor/UniswapV2Adaptor.sol\":4108:4115  amounts */\n      dup3\n        /* \"code/contract/sol/native/utils/adaptor/UniswapV2Adaptor.sol\":4133:4134  1 */\n      0x01\n        /* \"code/contract/sol/native/utils/adaptor/UniswapV2Adaptor.sol\":4116:4123  amounts */\n      dup5\n        /* \"code/contract/sol/native/utils/adaptor/UniswapV2Adaptor.sol\":4116:4130  amounts.length */\n      mload\n        /* \"code/contract/sol/native/utils/adaptor/UniswapV2Adaptor.sol\":4116:4134  amounts.length - 1 */\n      tag_206\n      swap2\n      swap1\n      tag_76\n      jump\t// in\n    tag_206:\n        /* \"code/contract/sol/native/utils/adaptor/UniswapV2Adaptor.sol\":4108:4135  amounts[amounts.length - 1] */\n      dup2\n      mload\n      dup2\n      lt\n      tag_207\n      jumpi\n      tag_208\n      tag_74\n      jump\t// in\n    tag_208:\n    tag_207:\n      0x20\n      mul\n      0x20\n      add\n      add\n      mload\n        /* \"code/contract/sol/native/utils/adaptor/UniswapV2Adaptor.sol\":4099:4135  amount = amounts[amounts.length - 1] */\n      swap2\n      pop\n        /* \"code/contract/sol/native/utils/adaptor/UniswapV2Adaptor.sol\":4157:4210  FixedPointValue({value: amount, decimals: decimals1}) */\n      mload(0x40)\n      dup1\n      0x40\n      add\n      0x40\n      mstore\n      dup1\n        /* \"code/contract/sol/native/utils/adaptor/UniswapV2Adaptor.sol\":4181:4187  amount */\n      dup4\n        /* \"code/contract/sol/native/utils/adaptor/UniswapV2Adaptor.sol\":4157:4210  FixedPointValue({value: amount, decimals: decimals1}) */\n      dup2\n      mstore\n      0x20\n      add\n        /* \"code/contract/sol/native/utils/adaptor/UniswapV2Adaptor.sol\":4199:4208  decimals1 */\n      dup6\n        /* \"code/contract/sol/native/utils/adaptor/UniswapV2Adaptor.sol\":4157:4210  FixedPointValue({value: amount, decimals: decimals1}) */\n      0xff\n      and\n      dup2\n      mstore\n      pop\n        /* \"code/contract/sol/native/utils/adaptor/UniswapV2Adaptor.sol\":4145:4210  amountOut = FixedPointValue({value: amount, decimals: decimals1}) */\n      swap1\n      pop\n        /* \"code/contract/sol/native/utils/adaptor/UniswapV2Adaptor.sol\":4232:4247  fixedPointMath_ */\n      0x00\n      dup1\n      sload\n      swap1\n      0x0100\n      exp\n      swap1\n      div\n      0xffffffffffffffffffffffffffffffffffffffff\n      and\n        /* \"code/contract/sol/native/utils/adaptor/UniswapV2Adaptor.sol\":4232:4255  fixedPointMath_.asEther */\n      0xffffffffffffffffffffffffffffffffffffffff\n      and\n      0x3e60d8e0\n        /* \"code/contract/sol/native/utils/adaptor/UniswapV2Adaptor.sol\":4256:4265  amountOut */\n      dup3\n        /* \"code/contract/sol/native/utils/adaptor/UniswapV2Adaptor.sol\":4232:4266  fixedPointMath_.asEther(amountOut) */\n      mload(0x40)\n      dup3\n      0xffffffff\n      and\n      0xe0\n      shl\n      dup2\n      mstore\n      0x04\n      add\n      tag_209\n      swap2\n      swap1\n      tag_20\n      jump\t// in\n    tag_209:\n      0x40\n      dup1\n      mload\n      dup1\n      dup4\n      sub\n      dup2\n      dup7\n      gas\n      staticcall\n      iszero\n      dup1\n      iszero\n      tag_211\n      jumpi\n      returndatasize\n      0x00\n      dup1\n      returndatacopy\n      revert(0x00, returndatasize)\n    tag_211:\n      pop\n      pop\n      pop\n      pop\n      mload(0x40)\n      returndatasize\n      not(0x1f)\n      0x1f\n      dup3\n      add\n      and\n      dup3\n      add\n      dup1\n      0x40\n      mstore\n      pop\n      dup2\n      add\n      swap1\n      tag_212\n      swap2\n      swap1\n      tag_83\n      jump\t// in\n    tag_212:\n        /* \"code/contract/sol/native/utils/adaptor/UniswapV2Adaptor.sol\":4220:4266  amountOut = fixedPointMath_.asEther(amountOut) */\n      swap1\n      pop\n        /* \"code/contract/sol/native/utils/adaptor/UniswapV2Adaptor.sol\":4283:4292  amountOut */\n      dup1\n        /* \"code/contract/sol/native/utils/adaptor/UniswapV2Adaptor.sol\":4276:4292  return amountOut */\n      swap8\n      pop\n      pop\n      pop\n      pop\n      pop\n      pop\n      pop\n      pop\n        /* \"code/contract/sol/native/utils/adaptor/UniswapV2Adaptor.sol\":3461:4299  function amountOut(address[] memory path, FixedPointValue memory amountIn) public view returns (FixedPointValue memory) {... */\n      swap3\n      swap2\n      pop\n      pop\n      jump\t// out\n        /* \"code/contract/sol/native/utils/adaptor/UniswapV2Adaptor.sol\":1275:1365  function router() public view returns (IUniswapV2Router02) {... */\n    tag_63:\n        /* \"code/contract/sol/native/utils/adaptor/UniswapV2Adaptor.sol\":1314:1332  IUniswapV2Router02 */\n      0x00\n        /* \"code/contract/sol/native/utils/adaptor/UniswapV2Adaptor.sol\":1351:1358  router_ */\n      0x02\n      0x00\n      swap1\n      sload\n      swap1\n      0x0100\n      exp\n      swap1\n      div\n      0xffffffffffffffffffffffffffffffffffffffff\n      and\n        /* \"code/contract/sol/native/utils/adaptor/UniswapV2Adaptor.sol\":1344:1358  return router_ */\n      swap1\n      pop\n        /* \"code/contract/sol/native/utils/adaptor/UniswapV2Adaptor.sol\":1275:1365  function router() public view returns (IUniswapV2Router02) {... */\n      swap1\n      jump\t// out\n    tag_67:\n      mload(0x40)\n      dup1\n      0x40\n      add\n      0x40\n      mstore\n      dup1\n      0x00\n      dup2\n      mstore\n      0x20\n      add\n      and(0xff, 0x00)\n      dup2\n      mstore\n      pop\n      swap1\n      jump\t// out\n        /* \"#utility.yul\":7:82   */\n    tag_214:\n        /* \"#utility.yul\":40:46   */\n      0x00\n        /* \"#utility.yul\":73:75   */\n      0x40\n        /* \"#utility.yul\":67:76   */\n      mload\n        /* \"#utility.yul\":57:76   */\n      swap1\n      pop\n        /* \"#utility.yul\":7:82   */\n      swap1\n      jump\t// out\n        /* \"#utility.yul\":88:205   */\n    tag_215:\n        /* \"#utility.yul\":197:198   */\n      0x00\n        /* \"#utility.yul\":194:195   */\n      dup1\n        /* \"#utility.yul\":187:199   */\n      revert\n        /* \"#utility.yul\":211:328   */\n    tag_216:\n        /* \"#utility.yul\":320:321   */\n      0x00\n        /* \"#utility.yul\":317:318   */\n      dup1\n        /* \"#utility.yul\":310:322   */\n      revert\n        /* \"#utility.yul\":334:451   */\n    tag_217:\n        /* \"#utility.yul\":443:444   */\n      0x00\n        /* \"#utility.yul\":440:441   */\n      dup1\n        /* \"#utility.yul\":433:445   */\n      revert\n        /* \"#utility.yul\":457:559   */\n    tag_218:\n        /* \"#utility.yul\":498:504   */\n      0x00\n        /* \"#utility.yul\":549:551   */\n      0x1f\n        /* \"#utility.yul\":545:552   */\n      not\n        /* \"#utility.yul\":540:542   */\n      0x1f\n        /* \"#utility.yul\":533:538   */\n      dup4\n        /* \"#utility.yul\":529:543   */\n      add\n        /* \"#utility.yul\":525:553   */\n      and\n        /* \"#utility.yul\":515:553   */\n      swap1\n      pop\n        /* \"#utility.yul\":457:559   */\n      swap2\n      swap1\n      pop\n      jump\t// out\n        /* \"#utility.yul\":565:745   */\n    tag_159:\n        /* \"#utility.yul\":613:690   */\n      0x4e487b7100000000000000000000000000000000000000000000000000000000\n        /* \"#utility.yul\":610:611   */\n      0x00\n        /* \"#utility.yul\":603:691   */\n      mstore\n        /* \"#utility.yul\":710:714   */\n      0x41\n        /* \"#utility.yul\":707:708   */\n      0x04\n        /* \"#utility.yul\":700:715   */\n      mstore\n        /* \"#utility.yul\":734:738   */\n      0x24\n        /* \"#utility.yul\":731:732   */\n      0x00\n        /* \"#utility.yul\":724:739   */\n      revert\n        /* \"#utility.yul\":751:1032   */\n    tag_219:\n        /* \"#utility.yul\":834:861   */\n      tag_295\n        /* \"#utility.yul\":856:860   */\n      dup3\n        /* \"#utility.yul\":834:861   */\n      tag_218\n      jump\t// in\n    tag_295:\n        /* \"#utility.yul\":826:832   */\n      dup2\n        /* \"#utility.yul\":822:862   */\n      add\n        /* \"#utility.yul\":964:970   */\n      dup2\n        /* \"#utility.yul\":952:962   */\n      dup2\n        /* \"#utility.yul\":949:971   */\n      lt\n        /* \"#utility.yul\":928:946   */\n      0xffffffffffffffff\n        /* \"#utility.yul\":916:926   */\n      dup3\n        /* \"#utility.yul\":913:947   */\n      gt\n        /* \"#utility.yul\":910:972   */\n      or\n        /* \"#utility.yul\":907:995   */\n      iszero\n      tag_296\n      jumpi\n        /* \"#utility.yul\":975:993   */\n      tag_297\n      tag_159\n      jump\t// in\n    tag_297:\n        /* \"#utility.yul\":907:995   */\n    tag_296:\n        /* \"#utility.yul\":1015:1025   */\n      dup1\n        /* \"#utility.yul\":1011:1013   */\n      0x40\n        /* \"#utility.yul\":1004:1026   */\n      mstore\n        /* \"#utility.yul\":794:1032   */\n      pop\n        /* \"#utility.yul\":751:1032   */\n      pop\n      pop\n      jump\t// out\n        /* \"#utility.yul\":1038:1167   */\n    tag_220:\n        /* \"#utility.yul\":1072:1078   */\n      0x00\n        /* \"#utility.yul\":1099:1119   */\n      tag_299\n      tag_214\n      jump\t// in\n    tag_299:\n        /* \"#utility.yul\":1089:1119   */\n      swap1\n      pop\n        /* \"#utility.yul\":1128:1161   */\n      tag_300\n        /* \"#utility.yul\":1156:1160   */\n      dup3\n        /* \"#utility.yul\":1148:1154   */\n      dup3\n        /* \"#utility.yul\":1128:1161   */\n      tag_219\n      jump\t// in\n    tag_300:\n        /* \"#utility.yul\":1038:1167   */\n      swap2\n      swap1\n      pop\n      jump\t// out\n        /* \"#utility.yul\":1173:1484   */\n    tag_221:\n        /* \"#utility.yul\":1250:1254   */\n      0x00\n        /* \"#utility.yul\":1340:1358   */\n      0xffffffffffffffff\n        /* \"#utility.yul\":1332:1338   */\n      dup3\n        /* \"#utility.yul\":1329:1359   */\n      gt\n        /* \"#utility.yul\":1326:1382   */\n      iszero\n      tag_302\n      jumpi\n        /* \"#utility.yul\":1362:1380   */\n      tag_303\n      tag_159\n      jump\t// in\n    tag_303:\n        /* \"#utility.yul\":1326:1382   */\n    tag_302:\n        /* \"#utility.yul\":1412:1416   */\n      0x20\n        /* \"#utility.yul\":1404:1410   */\n      dup3\n        /* \"#utility.yul\":1400:1417   */\n      mul\n        /* \"#utility.yul\":1392:1417   */\n      swap1\n      pop\n        /* \"#utility.yul\":1472:1476   */\n      0x20\n        /* \"#utility.yul\":1466:1470   */\n      dup2\n        /* \"#utility.yul\":1462:1477   */\n      add\n        /* \"#utility.yul\":1454:1477   */\n      swap1\n      pop\n        /* \"#utility.yul\":1173:1484   */\n      swap2\n      swap1\n      pop\n      jump\t// out\n        /* \"#utility.yul\":1490:1607   */\n    tag_222:\n        /* \"#utility.yul\":1599:1600   */\n      0x00\n        /* \"#utility.yul\":1596:1597   */\n      dup1\n        /* \"#utility.yul\":1589:1601   */\n      revert\n        /* \"#utility.yul\":1613:1739   */\n    tag_223:\n        /* \"#utility.yul\":1650:1657   */\n      0x00\n        /* \"#utility.yul\":1690:1732   */\n      0xffffffffffffffffffffffffffffffffffffffff\n        /* \"#utility.yul\":1683:1688   */\n      dup3\n        /* \"#utility.yul\":1679:1733   */\n      and\n        /* \"#utility.yul\":1668:1733   */\n      swap1\n      pop\n        /* \"#utility.yul\":1613:1739   */\n      swap2\n      swap1\n      pop\n      jump\t// out\n        /* \"#utility.yul\":1745:1841   */\n    tag_224:\n        /* \"#utility.yul\":1782:1789   */\n      0x00\n        /* \"#utility.yul\":1811:1835   */\n      tag_307\n        /* \"#utility.yul\":1829:1834   */\n      dup3\n        /* \"#utility.yul\":1811:1835   */\n      tag_223\n      jump\t// in\n    tag_307:\n        /* \"#utility.yul\":1800:1835   */\n      swap1\n      pop\n        /* \"#utility.yul\":1745:1841   */\n      swap2\n      swap1\n      pop\n      jump\t// out\n        /* \"#utility.yul\":1847:1969   */\n    tag_225:\n        /* \"#utility.yul\":1920:1944   */\n      tag_309\n        /* \"#utility.yul\":1938:1943   */\n      dup2\n        /* \"#utility.yul\":1920:1944   */\n      tag_224\n      jump\t// in\n    tag_309:\n        /* \"#utility.yul\":1913:1918   */\n      dup2\n        /* \"#utility.yul\":1910:1945   */\n      eq\n        /* \"#utility.yul\":1900:1963   */\n      tag_310\n      jumpi\n        /* \"#utility.yul\":1959:1960   */\n      0x00\n        /* \"#utility.yul\":1956:1957   */\n      dup1\n        /* \"#utility.yul\":1949:1961   */\n      revert\n        /* \"#utility.yul\":1900:1963   */\n    tag_310:\n        /* \"#utility.yul\":1847:1969   */\n      pop\n      jump\t// out\n        /* \"#utility.yul\":1975:2114   */\n    tag_226:\n        /* \"#utility.yul\":2021:2026   */\n      0x00\n        /* \"#utility.yul\":2059:2065   */\n      dup2\n        /* \"#utility.yul\":2046:2066   */\n      calldataload\n        /* \"#utility.yul\":2037:2066   */\n      swap1\n      pop\n        /* \"#utility.yul\":2075:2108   */\n      tag_312\n        /* \"#utility.yul\":2102:2107   */\n      dup2\n        /* \"#utility.yul\":2075:2108   */\n      tag_225\n      jump\t// in\n    tag_312:\n        /* \"#utility.yul\":1975:2114   */\n      swap3\n      swap2\n      pop\n      pop\n      jump\t// out\n        /* \"#utility.yul\":2137:2847   */\n    tag_227:\n        /* \"#utility.yul\":2233:2238   */\n      0x00\n        /* \"#utility.yul\":2258:2339   */\n      tag_314\n        /* \"#utility.yul\":2274:2338   */\n      tag_315\n        /* \"#utility.yul\":2331:2337   */\n      dup5\n        /* \"#utility.yul\":2274:2338   */\n      tag_221\n      jump\t// in\n    tag_315:\n        /* \"#utility.yul\":2258:2339   */\n      tag_220\n      jump\t// in\n    tag_314:\n        /* \"#utility.yul\":2249:2339   */\n      swap1\n      pop\n        /* \"#utility.yul\":2359:2364   */\n      dup1\n        /* \"#utility.yul\":2388:2394   */\n      dup4\n        /* \"#utility.yul\":2381:2386   */\n      dup3\n        /* \"#utility.yul\":2374:2395   */\n      mstore\n        /* \"#utility.yul\":2422:2426   */\n      0x20\n        /* \"#utility.yul\":2415:2420   */\n      dup3\n        /* \"#utility.yul\":2411:2427   */\n      add\n        /* \"#utility.yul\":2404:2427   */\n      swap1\n      pop\n        /* \"#utility.yul\":2475:2479   */\n      0x20\n        /* \"#utility.yul\":2467:2473   */\n      dup5\n        /* \"#utility.yul\":2463:2480   */\n      mul\n        /* \"#utility.yul\":2455:2461   */\n      dup4\n        /* \"#utility.yul\":2451:2481   */\n      add\n        /* \"#utility.yul\":2504:2507   */\n      dup6\n        /* \"#utility.yul\":2496:2502   */\n      dup2\n        /* \"#utility.yul\":2493:2508   */\n      gt\n        /* \"#utility.yul\":2490:2612   */\n      iszero\n      tag_316\n      jumpi\n        /* \"#utility.yul\":2523:2602   */\n      tag_317\n      tag_222\n      jump\t// in\n    tag_317:\n        /* \"#utility.yul\":2490:2612   */\n    tag_316:\n        /* \"#utility.yul\":2638:2644   */\n      dup4\n        /* \"#utility.yul\":2621:2841   */\n    tag_318:\n        /* \"#utility.yul\":2655:2661   */\n      dup2\n        /* \"#utility.yul\":2650:2653   */\n      dup2\n        /* \"#utility.yul\":2647:2662   */\n      lt\n        /* \"#utility.yul\":2621:2841   */\n      iszero\n      tag_320\n      jumpi\n        /* \"#utility.yul\":2730:2733   */\n      dup1\n        /* \"#utility.yul\":2759:2796   */\n      tag_321\n        /* \"#utility.yul\":2792:2795   */\n      dup9\n        /* \"#utility.yul\":2780:2790   */\n      dup3\n        /* \"#utility.yul\":2759:2796   */\n      tag_226\n      jump\t// in\n    tag_321:\n        /* \"#utility.yul\":2754:2757   */\n      dup5\n        /* \"#utility.yul\":2747:2797   */\n      mstore\n        /* \"#utility.yul\":2826:2830   */\n      0x20\n        /* \"#utility.yul\":2821:2824   */\n      dup5\n        /* \"#utility.yul\":2817:2831   */\n      add\n        /* \"#utility.yul\":2810:2831   */\n      swap4\n      pop\n        /* \"#utility.yul\":2697:2841   */\n      pop\n        /* \"#utility.yul\":2681:2685   */\n      0x20\n        /* \"#utility.yul\":2676:2679   */\n      dup2\n        /* \"#utility.yul\":2672:2686   */\n      add\n        /* \"#utility.yul\":2665:2686   */\n      swap1\n      pop\n        /* \"#utility.yul\":2621:2841   */\n      jump(tag_318)\n    tag_320:\n        /* \"#utility.yul\":2625:2646   */\n      pop\n        /* \"#utility.yul\":2239:2847   */\n      pop\n      pop\n        /* \"#utility.yul\":2137:2847   */\n      swap4\n      swap3\n      pop\n      pop\n      pop\n      jump\t// out\n        /* \"#utility.yul\":2870:3240   */\n    tag_228:\n        /* \"#utility.yul\":2941:2946   */\n      0x00\n        /* \"#utility.yul\":2990:2993   */\n      dup3\n        /* \"#utility.yul\":2983:2987   */\n      0x1f\n        /* \"#utility.yul\":2975:2981   */\n      dup4\n        /* \"#utility.yul\":2971:2988   */\n      add\n        /* \"#utility.yul\":2967:2994   */\n      slt\n        /* \"#utility.yul\":2957:3079   */\n      tag_323\n      jumpi\n        /* \"#utility.yul\":2998:3077   */\n      tag_324\n      tag_217\n      jump\t// in\n    tag_324:\n        /* \"#utility.yul\":2957:3079   */\n    tag_323:\n        /* \"#utility.yul\":3115:3121   */\n      dup2\n        /* \"#utility.yul\":3102:3122   */\n      calldataload\n        /* \"#utility.yul\":3140:3234   */\n      tag_325\n        /* \"#utility.yul\":3230:3233   */\n      dup5\n        /* \"#utility.yul\":3222:3228   */\n      dup3\n        /* \"#utility.yul\":3215:3219   */\n      0x20\n        /* \"#utility.yul\":3207:3213   */\n      dup7\n        /* \"#utility.yul\":3203:3220   */\n      add\n        /* \"#utility.yul\":3140:3234   */\n      tag_227\n      jump\t// in\n    tag_325:\n        /* \"#utility.yul\":3131:3234   */\n      swap2\n      pop\n        /* \"#utility.yul\":2947:3240   */\n      pop\n        /* \"#utility.yul\":2870:3240   */\n      swap3\n      swap2\n      pop\n      pop\n      jump\t// out\n        /* \"#utility.yul\":3246:3363   */\n    tag_229:\n        /* \"#utility.yul\":3355:3356   */\n      0x00\n        /* \"#utility.yul\":3352:3353   */\n      dup1\n        /* \"#utility.yul\":3345:3357   */\n      revert\n        /* \"#utility.yul\":3492:3569   */\n    tag_231:\n        /* \"#utility.yul\":3529:3536   */\n      0x00\n        /* \"#utility.yul\":3558:3563   */\n      dup2\n        /* \"#utility.yul\":3547:3563   */\n      swap1\n      pop\n        /* \"#utility.yul\":3492:3569   */\n      swap2\n      swap1\n      pop\n      jump\t// out\n        /* \"#utility.yul\":3575:3697   */\n    tag_232:\n        /* \"#utility.yul\":3648:3672   */\n      tag_330\n        /* \"#utility.yul\":3666:3671   */\n      dup2\n        /* \"#utility.yul\":3648:3672   */\n      tag_231\n      jump\t// in\n    tag_330:\n        /* \"#utility.yul\":3641:3646   */\n      dup2\n        /* \"#utility.yul\":3638:3673   */\n      eq\n        /* \"#utility.yul\":3628:3691   */\n      tag_331\n      jumpi\n        /* \"#utility.yul\":3687:3688   */\n      0x00\n        /* \"#utility.yul\":3684:3685   */\n      dup1\n        /* \"#utility.yul\":3677:3689   */\n      revert\n        /* \"#utility.yul\":3628:3691   */\n    tag_331:\n        /* \"#utility.yul\":3575:3697   */\n      pop\n      jump\t// out\n        /* \"#utility.yul\":3703:3842   */\n    tag_233:\n        /* \"#utility.yul\":3749:3754   */\n      0x00\n        /* \"#utility.yul\":3787:3793   */\n      dup2\n        /* \"#utility.yul\":3774:3794   */\n      calldataload\n        /* \"#utility.yul\":3765:3794   */\n      swap1\n      pop\n        /* \"#utility.yul\":3803:3836   */\n      tag_333\n        /* \"#utility.yul\":3830:3835   */\n      dup2\n        /* \"#utility.yul\":3803:3836   */\n      tag_232\n      jump\t// in\n    tag_333:\n        /* \"#utility.yul\":3703:3842   */\n      swap3\n      swap2\n      pop\n      pop\n      jump\t// out\n        /* \"#utility.yul\":3848:3934   */\n    tag_234:\n        /* \"#utility.yul\":3883:3890   */\n      0x00\n        /* \"#utility.yul\":3923:3927   */\n      0xff\n        /* \"#utility.yul\":3916:3921   */\n      dup3\n        /* \"#utility.yul\":3912:3928   */\n      and\n        /* \"#utility.yul\":3901:3928   */\n      swap1\n      pop\n        /* \"#utility.yul\":3848:3934   */\n      swap2\n      swap1\n      pop\n      jump\t// out\n        /* \"#utility.yul\":3940:4058   */\n    tag_235:\n        /* \"#utility.yul\":4011:4033   */\n      tag_336\n        /* \"#utility.yul\":4027:4032   */\n      dup2\n        /* \"#utility.yul\":4011:4033   */\n      tag_234\n      jump\t// in\n    tag_336:\n        /* \"#utility.yul\":4004:4009   */\n      dup2\n        /* \"#utility.yul\":4001:4034   */\n      eq\n        /* \"#utility.yul\":3991:4052   */\n      tag_337\n      jumpi\n        /* \"#utility.yul\":4048:4049   */\n      0x00\n        /* \"#utility.yul\":4045:4046   */\n      dup1\n        /* \"#utility.yul\":4038:4050   */\n      revert\n        /* \"#utility.yul\":3991:4052   */\n    tag_337:\n        /* \"#utility.yul\":3940:4058   */\n      pop\n      jump\t// out\n        /* \"#utility.yul\":4064:4199   */\n    tag_236:\n        /* \"#utility.yul\":4108:4113   */\n      0x00\n        /* \"#utility.yul\":4146:4152   */\n      dup2\n        /* \"#utility.yul\":4133:4153   */\n      calldataload\n        /* \"#utility.yul\":4124:4153   */\n      swap1\n      pop\n        /* \"#utility.yul\":4162:4193   */\n      tag_339\n        /* \"#utility.yul\":4187:4192   */\n      dup2\n        /* \"#utility.yul\":4162:4193   */\n      tag_235\n      jump\t// in\n    tag_339:\n        /* \"#utility.yul\":4064:4199   */\n      swap3\n      swap2\n      pop\n      pop\n      jump\t// out\n        /* \"#utility.yul\":4235:4817   */\n    tag_237:\n        /* \"#utility.yul\":4314:4319   */\n      0x00\n        /* \"#utility.yul\":4358:4362   */\n      0x40\n        /* \"#utility.yul\":4346:4355   */\n      dup3\n        /* \"#utility.yul\":4341:4344   */\n      dup5\n        /* \"#utility.yul\":4337:4356   */\n      sub\n        /* \"#utility.yul\":4333:4363   */\n      slt\n        /* \"#utility.yul\":4330:4447   */\n      iszero\n      tag_341\n      jumpi\n        /* \"#utility.yul\":4366:4445   */\n      tag_342\n      tag_229\n      jump\t// in\n    tag_342:\n        /* \"#utility.yul\":4330:4447   */\n    tag_341:\n        /* \"#utility.yul\":4465:4486   */\n      tag_343\n        /* \"#utility.yul\":4481:4485   */\n      0x40\n        /* \"#utility.yul\":4465:4486   */\n      tag_220\n      jump\t// in\n    tag_343:\n        /* \"#utility.yul\":4456:4486   */\n      swap1\n      pop\n        /* \"#utility.yul\":4546:4547   */\n      0x00\n        /* \"#utility.yul\":4586:4635   */\n      tag_344\n        /* \"#utility.yul\":4631:4634   */\n      dup5\n        /* \"#utility.yul\":4622:4628   */\n      dup3\n        /* \"#utility.yul\":4611:4620   */\n      dup6\n        /* \"#utility.yul\":4607:4629   */\n      add\n        /* \"#utility.yul\":4586:4635   */\n      tag_233\n      jump\t// in\n    tag_344:\n        /* \"#utility.yul\":4579:4583   */\n      0x00\n        /* \"#utility.yul\":4572:4577   */\n      dup4\n        /* \"#utility.yul\":4568:4584   */\n      add\n        /* \"#utility.yul\":4561:4636   */\n      mstore\n        /* \"#utility.yul\":4496:4647   */\n      pop\n        /* \"#utility.yul\":4710:4712   */\n      0x20\n        /* \"#utility.yul\":4751:4798   */\n      tag_345\n        /* \"#utility.yul\":4794:4797   */\n      dup5\n        /* \"#utility.yul\":4785:4791   */\n      dup3\n        /* \"#utility.yul\":4774:4783   */\n      dup6\n        /* \"#utility.yul\":4770:4792   */\n      add\n        /* \"#utility.yul\":4751:4798   */\n      tag_236\n      jump\t// in\n    tag_345:\n        /* \"#utility.yul\":4744:4748   */\n      0x20\n        /* \"#utility.yul\":4737:4742   */\n      dup4\n        /* \"#utility.yul\":4733:4749   */\n      add\n        /* \"#utility.yul\":4726:4799   */\n      mstore\n        /* \"#utility.yul\":4657:4810   */\n      pop\n        /* \"#utility.yul\":4235:4817   */\n      swap3\n      swap2\n      pop\n      pop\n      jump\t// out\n        /* \"#utility.yul\":4823:5567   */\n    tag_17:\n        /* \"#utility.yul\":4946:4952   */\n      0x00\n        /* \"#utility.yul\":4954:4960   */\n      dup1\n        /* \"#utility.yul\":5003:5005   */\n      0x60\n        /* \"#utility.yul\":4991:5000   */\n      dup4\n        /* \"#utility.yul\":4982:4989   */\n      dup6\n        /* \"#utility.yul\":4978:5001   */\n      sub\n        /* \"#utility.yul\":4974:5006   */\n      slt\n        /* \"#utility.yul\":4971:5090   */\n      iszero\n      tag_347\n      jumpi\n        /* \"#utility.yul\":5009:5088   */\n      tag_348\n      tag_215\n      jump\t// in\n    tag_348:\n        /* \"#utility.yul\":4971:5090   */\n    tag_347:\n        /* \"#utility.yul\":5157:5158   */\n      0x00\n        /* \"#utility.yul\":5146:5155   */\n      dup4\n        /* \"#utility.yul\":5142:5159   */\n      add\n        /* \"#utility.yul\":5129:5160   */\n      calldataload\n        /* \"#utility.yul\":5187:5205   */\n      0xffffffffffffffff\n        /* \"#utility.yul\":5179:5185   */\n      dup2\n        /* \"#utility.yul\":5176:5206   */\n      gt\n        /* \"#utility.yul\":5173:5290   */\n      iszero\n      tag_349\n      jumpi\n        /* \"#utility.yul\":5209:5288   */\n      tag_350\n      tag_216\n      jump\t// in\n    tag_350:\n        /* \"#utility.yul\":5173:5290   */\n    tag_349:\n        /* \"#utility.yul\":5314:5392   */\n      tag_351\n        /* \"#utility.yul\":5384:5391   */\n      dup6\n        /* \"#utility.yul\":5375:5381   */\n      dup3\n        /* \"#utility.yul\":5364:5373   */\n      dup7\n        /* \"#utility.yul\":5360:5382   */\n      add\n        /* \"#utility.yul\":5314:5392   */\n      tag_228\n      jump\t// in\n    tag_351:\n        /* \"#utility.yul\":5304:5392   */\n      swap3\n      pop\n        /* \"#utility.yul\":5100:5402   */\n      pop\n        /* \"#utility.yul\":5441:5443   */\n      0x20\n        /* \"#utility.yul\":5467:5550   */\n      tag_352\n        /* \"#utility.yul\":5542:5549   */\n      dup6\n        /* \"#utility.yul\":5533:5539   */\n      dup3\n        /* \"#utility.yul\":5522:5531   */\n      dup7\n        /* \"#utility.yul\":5518:5540   */\n      add\n        /* \"#utility.yul\":5467:5550   */\n      tag_237\n      jump\t// in\n    tag_352:\n        /* \"#utility.yul\":5457:5550   */\n      swap2\n      pop\n        /* \"#utility.yul\":5412:5560   */\n      pop\n        /* \"#utility.yul\":4823:5567   */\n      swap3\n      pop\n      swap3\n      swap1\n      pop\n      jump\t// out\n        /* \"#utility.yul\":5573:5681   */\n    tag_238:\n        /* \"#utility.yul\":5650:5674   */\n      tag_354\n        /* \"#utility.yul\":5668:5673   */\n      dup2\n        /* \"#utility.yul\":5650:5674   */\n      tag_231\n      jump\t// in\n    tag_354:\n        /* \"#utility.yul\":5645:5648   */\n      dup3\n        /* \"#utility.yul\":5638:5675   */\n      mstore\n        /* \"#utility.yul\":5573:5681   */\n      pop\n      pop\n      jump\t// out\n        /* \"#utility.yul\":5687:5789   */\n    tag_239:\n        /* \"#utility.yul\":5760:5782   */\n      tag_356\n        /* \"#utility.yul\":5776:5781   */\n      dup2\n        /* \"#utility.yul\":5760:5782   */\n      tag_234\n      jump\t// in\n    tag_356:\n        /* \"#utility.yul\":5755:5758   */\n      dup3\n        /* \"#utility.yul\":5748:5783   */\n      mstore\n        /* \"#utility.yul\":5687:5789   */\n      pop\n      pop\n      jump\t// out\n        /* \"#utility.yul\":5851:6369   */\n    tag_240:\n        /* \"#utility.yul\":6008:6012   */\n      0x40\n        /* \"#utility.yul\":6003:6006   */\n      dup3\n        /* \"#utility.yul\":5999:6013   */\n      add\n        /* \"#utility.yul\":6096:6100   */\n      0x00\n        /* \"#utility.yul\":6089:6094   */\n      dup3\n        /* \"#utility.yul\":6085:6101   */\n      add\n        /* \"#utility.yul\":6079:6102   */\n      mload\n        /* \"#utility.yul\":6115:6178   */\n      tag_358\n        /* \"#utility.yul\":6172:6176   */\n      0x00\n        /* \"#utility.yul\":6167:6170   */\n      dup6\n        /* \"#utility.yul\":6163:6177   */\n      add\n        /* \"#utility.yul\":6149:6161   */\n      dup3\n        /* \"#utility.yul\":6115:6178   */\n      tag_238\n      jump\t// in\n    tag_358:\n        /* \"#utility.yul\":6023:6188   */\n      pop\n        /* \"#utility.yul\":6274:6278   */\n      0x20\n        /* \"#utility.yul\":6267:6272   */\n      dup3\n        /* \"#utility.yul\":6263:6279   */\n      add\n        /* \"#utility.yul\":6257:6280   */\n      mload\n        /* \"#utility.yul\":6293:6352   */\n      tag_359\n        /* \"#utility.yul\":6346:6350   */\n      0x20\n        /* \"#utility.yul\":6341:6344   */\n      dup6\n        /* \"#utility.yul\":6337:6351   */\n      add\n        /* \"#utility.yul\":6323:6335   */\n      dup3\n        /* \"#utility.yul\":6293:6352   */\n      tag_239\n      jump\t// in\n    tag_359:\n        /* \"#utility.yul\":6198:6362   */\n      pop\n        /* \"#utility.yul\":5977:6369   */\n      pop\n        /* \"#utility.yul\":5851:6369   */\n      pop\n      pop\n      jump\t// out\n        /* \"#utility.yul\":6375:6717   */\n    tag_20:\n        /* \"#utility.yul\":6528:6532   */\n      0x00\n        /* \"#utility.yul\":6566:6568   */\n      0x40\n        /* \"#utility.yul\":6555:6564   */\n      dup3\n        /* \"#utility.yul\":6551:6569   */\n      add\n        /* \"#utility.yul\":6543:6569   */\n      swap1\n      pop\n        /* \"#utility.yul\":6579:6710   */\n      tag_361\n        /* \"#utility.yul\":6707:6708   */\n      0x00\n        /* \"#utility.yul\":6696:6705   */\n      dup4\n        /* \"#utility.yul\":6692:6709   */\n      add\n        /* \"#utility.yul\":6683:6689   */\n      dup5\n        /* \"#utility.yul\":6579:6710   */\n      tag_240\n      jump\t// in\n    tag_361:\n        /* \"#utility.yul\":6375:6717   */\n      swap3\n      swap2\n      pop\n      pop\n      jump\t// out\n        /* \"#utility.yul\":6723:6783   */\n    tag_241:\n        /* \"#utility.yul\":6751:6754   */\n      0x00\n        /* \"#utility.yul\":6772:6777   */\n      dup2\n        /* \"#utility.yul\":6765:6777   */\n      swap1\n      pop\n        /* \"#utility.yul\":6723:6783   */\n      swap2\n      swap1\n      pop\n      jump\t// out\n        /* \"#utility.yul\":6789:6931   */\n    tag_242:\n        /* \"#utility.yul\":6839:6848   */\n      0x00\n        /* \"#utility.yul\":6872:6925   */\n      tag_364\n        /* \"#utility.yul\":6890:6924   */\n      tag_365\n        /* \"#utility.yul\":6899:6923   */\n      tag_366\n        /* \"#utility.yul\":6917:6922   */\n      dup5\n        /* \"#utility.yul\":6899:6923   */\n      tag_223\n      jump\t// in\n    tag_366:\n        /* \"#utility.yul\":6890:6924   */\n      tag_241\n      jump\t// in\n    tag_365:\n        /* \"#utility.yul\":6872:6925   */\n      tag_223\n      jump\t// in\n    tag_364:\n        /* \"#utility.yul\":6859:6925   */\n      swap1\n      pop\n        /* \"#utility.yul\":6789:6931   */\n      swap2\n      swap1\n      pop\n      jump\t// out\n        /* \"#utility.yul\":6937:7063   */\n    tag_243:\n        /* \"#utility.yul\":6987:6996   */\n      0x00\n        /* \"#utility.yul\":7020:7057   */\n      tag_368\n        /* \"#utility.yul\":7051:7056   */\n      dup3\n        /* \"#utility.yul\":7020:7057   */\n      tag_242\n      jump\t// in\n    tag_368:\n        /* \"#utility.yul\":7007:7057   */\n      swap1\n      pop\n        /* \"#utility.yul\":6937:7063   */\n      swap2\n      swap1\n      pop\n      jump\t// out\n        /* \"#utility.yul\":7069:7218   */\n    tag_244:\n        /* \"#utility.yul\":7142:7151   */\n      0x00\n        /* \"#utility.yul\":7175:7212   */\n      tag_370\n        /* \"#utility.yul\":7206:7211   */\n      dup3\n        /* \"#utility.yul\":7175:7212   */\n      tag_243\n      jump\t// in\n    tag_370:\n        /* \"#utility.yul\":7162:7212   */\n      swap1\n      pop\n        /* \"#utility.yul\":7069:7218   */\n      swap2\n      swap1\n      pop\n      jump\t// out\n        /* \"#utility.yul\":7224:7401   */\n    tag_245:\n        /* \"#utility.yul\":7334:7394   */\n      tag_372\n        /* \"#utility.yul\":7388:7393   */\n      dup2\n        /* \"#utility.yul\":7334:7394   */\n      tag_244\n      jump\t// in\n    tag_372:\n        /* \"#utility.yul\":7329:7332   */\n      dup3\n        /* \"#utility.yul\":7322:7395   */\n      mstore\n        /* \"#utility.yul\":7224:7401   */\n      pop\n      pop\n      jump\t// out\n        /* \"#utility.yul\":7407:7675   */\n    tag_24:\n        /* \"#utility.yul\":7523:7527   */\n      0x00\n        /* \"#utility.yul\":7561:7563   */\n      0x20\n        /* \"#utility.yul\":7550:7559   */\n      dup3\n        /* \"#utility.yul\":7546:7564   */\n      add\n        /* \"#utility.yul\":7538:7564   */\n      swap1\n      pop\n        /* \"#utility.yul\":7574:7668   */\n      tag_374\n        /* \"#utility.yul\":7665:7666   */\n      0x00\n        /* \"#utility.yul\":7654:7663   */\n      dup4\n        /* \"#utility.yul\":7650:7667   */\n      add\n        /* \"#utility.yul\":7641:7647   */\n      dup5\n        /* \"#utility.yul\":7574:7668   */\n      tag_245\n      jump\t// in\n    tag_374:\n        /* \"#utility.yul\":7407:7675   */\n      swap3\n      swap2\n      pop\n      pop\n      jump\t// out\n        /* \"#utility.yul\":7681:8155   */\n    tag_27:\n        /* \"#utility.yul\":7749:7755   */\n      0x00\n        /* \"#utility.yul\":7757:7763   */\n      dup1\n        /* \"#utility.yul\":7806:7808   */\n      0x40\n        /* \"#utility.yul\":7794:7803   */\n      dup4\n        /* \"#utility.yul\":7785:7792   */\n      dup6\n        /* \"#utility.yul\":7781:7804   */\n      sub\n        /* \"#utility.yul\":7777:7809   */\n      slt\n        /* \"#utility.yul\":7774:7893   */\n      iszero\n      tag_376\n      jumpi\n        /* \"#utility.yul\":7812:7891   */\n      tag_377\n      tag_215\n      jump\t// in\n    tag_377:\n        /* \"#utility.yul\":7774:7893   */\n    tag_376:\n        /* \"#utility.yul\":7932:7933   */\n      0x00\n        /* \"#utility.yul\":7957:8010   */\n      tag_378\n        /* \"#utility.yul\":8002:8009   */\n      dup6\n        /* \"#utility.yul\":7993:7999   */\n      dup3\n        /* \"#utility.yul\":7982:7991   */\n      dup7\n        /* \"#utility.yul\":7978:8000   */\n      add\n        /* \"#utility.yul\":7957:8010   */\n      tag_226\n      jump\t// in\n    tag_378:\n        /* \"#utility.yul\":7947:8010   */\n      swap3\n      pop\n        /* \"#utility.yul\":7903:8020   */\n      pop\n        /* \"#utility.yul\":8059:8061   */\n      0x20\n        /* \"#utility.yul\":8085:8138   */\n      tag_379\n        /* \"#utility.yul\":8130:8137   */\n      dup6\n        /* \"#utility.yul\":8121:8127   */\n      dup3\n        /* \"#utility.yul\":8110:8119   */\n      dup7\n        /* \"#utility.yul\":8106:8128   */\n      add\n        /* \"#utility.yul\":8085:8138   */\n      tag_226\n      jump\t// in\n    tag_379:\n        /* \"#utility.yul\":8075:8138   */\n      swap2\n      pop\n        /* \"#utility.yul\":8030:8148   */\n      pop\n        /* \"#utility.yul\":7681:8155   */\n      swap3\n      pop\n      swap3\n      swap1\n      pop\n      jump\t// out\n        /* \"#utility.yul\":8161:8251   */\n    tag_246:\n        /* \"#utility.yul\":8195:8202   */\n      0x00\n        /* \"#utility.yul\":8238:8243   */\n      dup2\n        /* \"#utility.yul\":8231:8244   */\n      iszero\n        /* \"#utility.yul\":8224:8245   */\n      iszero\n        /* \"#utility.yul\":8213:8245   */\n      swap1\n      pop\n        /* \"#utility.yul\":8161:8251   */\n      swap2\n      swap1\n      pop\n      jump\t// out\n        /* \"#utility.yul\":8257:8366   */\n    tag_247:\n        /* \"#utility.yul\":8338:8359   */\n      tag_382\n        /* \"#utility.yul\":8353:8358   */\n      dup2\n        /* \"#utility.yul\":8338:8359   */\n      tag_246\n      jump\t// in\n    tag_382:\n        /* \"#utility.yul\":8333:8336   */\n      dup3\n        /* \"#utility.yul\":8326:8360   */\n      mstore\n        /* \"#utility.yul\":8257:8366   */\n      pop\n      pop\n      jump\t// out\n        /* \"#utility.yul\":8372:8582   */\n    tag_34:\n        /* \"#utility.yul\":8459:8463   */\n      0x00\n        /* \"#utility.yul\":8497:8499   */\n      0x20\n        /* \"#utility.yul\":8486:8495   */\n      dup3\n        /* \"#utility.yul\":8482:8500   */\n      add\n        /* \"#utility.yul\":8474:8500   */\n      swap1\n      pop\n        /* \"#utility.yul\":8510:8575   */\n      tag_384\n        /* \"#utility.yul\":8572:8573   */\n      0x00\n        /* \"#utility.yul\":8561:8570   */\n      dup4\n        /* \"#utility.yul\":8557:8574   */\n      add\n        /* \"#utility.yul\":8548:8554   */\n      dup5\n        /* \"#utility.yul\":8510:8575   */\n      tag_247\n      jump\t// in\n    tag_384:\n        /* \"#utility.yul\":8372:8582   */\n      swap3\n      swap2\n      pop\n      pop\n      jump\t// out\n        /* \"#utility.yul\":8588:8702   */\n    tag_248:\n        /* \"#utility.yul\":8655:8661   */\n      0x00\n        /* \"#utility.yul\":8689:8694   */\n      dup2\n        /* \"#utility.yul\":8683:8695   */\n      mload\n        /* \"#utility.yul\":8673:8695   */\n      swap1\n      pop\n        /* \"#utility.yul\":8588:8702   */\n      swap2\n      swap1\n      pop\n      jump\t// out\n        /* \"#utility.yul\":8708:8892   */\n    tag_249:\n        /* \"#utility.yul\":8807:8818   */\n      0x00\n        /* \"#utility.yul\":8841:8847   */\n      dup3\n        /* \"#utility.yul\":8836:8839   */\n      dup3\n        /* \"#utility.yul\":8829:8848   */\n      mstore\n        /* \"#utility.yul\":8881:8885   */\n      0x20\n        /* \"#utility.yul\":8876:8879   */\n      dup3\n        /* \"#utility.yul\":8872:8886   */\n      add\n        /* \"#utility.yul\":8857:8886   */\n      swap1\n      pop\n        /* \"#utility.yul\":8708:8892   */\n      swap3\n      swap2\n      pop\n      pop\n      jump\t// out\n        /* \"#utility.yul\":8898:9030   */\n    tag_250:\n        /* \"#utility.yul\":8965:8969   */\n      0x00\n        /* \"#utility.yul\":8988:8991   */\n      dup2\n        /* \"#utility.yul\":8980:8991   */\n      swap1\n      pop\n        /* \"#utility.yul\":9018:9022   */\n      0x20\n        /* \"#utility.yul\":9013:9016   */\n      dup3\n        /* \"#utility.yul\":9009:9023   */\n      add\n        /* \"#utility.yul\":9001:9023   */\n      swap1\n      pop\n        /* \"#utility.yul\":8898:9030   */\n      swap2\n      swap1\n      pop\n      jump\t// out\n        /* \"#utility.yul\":9036:9215   */\n    tag_251:\n        /* \"#utility.yul\":9105:9115   */\n      0x00\n        /* \"#utility.yul\":9126:9172   */\n      tag_389\n        /* \"#utility.yul\":9168:9171   */\n      dup4\n        /* \"#utility.yul\":9160:9166   */\n      dup4\n        /* \"#utility.yul\":9126:9172   */\n      tag_238\n      jump\t// in\n    tag_389:\n        /* \"#utility.yul\":9204:9208   */\n      0x20\n        /* \"#utility.yul\":9199:9202   */\n      dup4\n        /* \"#utility.yul\":9195:9209   */\n      add\n        /* \"#utility.yul\":9181:9209   */\n      swap1\n      pop\n        /* \"#utility.yul\":9036:9215   */\n      swap3\n      swap2\n      pop\n      pop\n      jump\t// out\n        /* \"#utility.yul\":9221:9334   */\n    tag_252:\n        /* \"#utility.yul\":9291:9295   */\n      0x00\n        /* \"#utility.yul\":9323:9327   */\n      0x20\n        /* \"#utility.yul\":9318:9321   */\n      dup3\n        /* \"#utility.yul\":9314:9328   */\n      add\n        /* \"#utility.yul\":9306:9328   */\n      swap1\n      pop\n        /* \"#utility.yul\":9221:9334   */\n      swap2\n      swap1\n      pop\n      jump\t// out\n        /* \"#utility.yul\":9370:10102   */\n    tag_253:\n        /* \"#utility.yul\":9489:9492   */\n      0x00\n        /* \"#utility.yul\":9518:9572   */\n      tag_392\n        /* \"#utility.yul\":9566:9571   */\n      dup3\n        /* \"#utility.yul\":9518:9572   */\n      tag_248\n      jump\t// in\n    tag_392:\n        /* \"#utility.yul\":9588:9674   */\n      tag_393\n        /* \"#utility.yul\":9667:9673   */\n      dup2\n        /* \"#utility.yul\":9662:9665   */\n      dup6\n        /* \"#utility.yul\":9588:9674   */\n      tag_249\n      jump\t// in\n    tag_393:\n        /* \"#utility.yul\":9581:9674   */\n      swap4\n      pop\n        /* \"#utility.yul\":9698:9754   */\n      tag_394\n        /* \"#utility.yul\":9748:9753   */\n      dup4\n        /* \"#utility.yul\":9698:9754   */\n      tag_250\n      jump\t// in\n    tag_394:\n        /* \"#utility.yul\":9777:9784   */\n      dup1\n        /* \"#utility.yul\":9808:9809   */\n      0x00\n        /* \"#utility.yul\":9793:10077   */\n    tag_395:\n        /* \"#utility.yul\":9818:9824   */\n      dup4\n        /* \"#utility.yul\":9815:9816   */\n      dup2\n        /* \"#utility.yul\":9812:9825   */\n      lt\n        /* \"#utility.yul\":9793:10077   */\n      iszero\n      tag_397\n      jumpi\n        /* \"#utility.yul\":9894:9900   */\n      dup2\n        /* \"#utility.yul\":9888:9901   */\n      mload\n        /* \"#utility.yul\":9921:9984   */\n      tag_398\n        /* \"#utility.yul\":9980:9983   */\n      dup9\n        /* \"#utility.yul\":9965:9978   */\n      dup3\n        /* \"#utility.yul\":9921:9984   */\n      tag_251\n      jump\t// in\n    tag_398:\n        /* \"#utility.yul\":9914:9984   */\n      swap8\n      pop\n        /* \"#utility.yul\":10007:10067   */\n      tag_399\n        /* \"#utility.yul\":10060:10066   */\n      dup4\n        /* \"#utility.yul\":10007:10067   */\n      tag_252\n      jump\t// in\n    tag_399:\n        /* \"#utility.yul\":9997:10067   */\n      swap3\n      pop\n        /* \"#utility.yul\":9853:10077   */\n      pop\n        /* \"#utility.yul\":9840:9841   */\n      0x01\n        /* \"#utility.yul\":9837:9838   */\n      dup2\n        /* \"#utility.yul\":9833:9842   */\n      add\n        /* \"#utility.yul\":9828:9842   */\n      swap1\n      pop\n        /* \"#utility.yul\":9793:10077   */\n      jump(tag_395)\n    tag_397:\n        /* \"#utility.yul\":9797:9811   */\n      pop\n        /* \"#utility.yul\":10093:10096   */\n      dup6\n        /* \"#utility.yul\":10086:10096   */\n      swap4\n      pop\n        /* \"#utility.yul\":9494:10102   */\n      pop\n      pop\n      pop\n        /* \"#utility.yul\":9370:10102   */\n      swap3\n      swap2\n      pop\n      pop\n      jump\t// out\n        /* \"#utility.yul\":10108:10481   */\n    tag_39:\n        /* \"#utility.yul\":10251:10255   */\n      0x00\n        /* \"#utility.yul\":10289:10291   */\n      0x20\n        /* \"#utility.yul\":10278:10287   */\n      dup3\n        /* \"#utility.yul\":10274:10292   */\n      add\n        /* \"#utility.yul\":10266:10292   */\n      swap1\n      pop\n        /* \"#utility.yul\":10338:10347   */\n      dup2\n        /* \"#utility.yul\":10332:10336   */\n      dup2\n        /* \"#utility.yul\":10328:10348   */\n      sub\n        /* \"#utility.yul\":10324:10325   */\n      0x00\n        /* \"#utility.yul\":10313:10322   */\n      dup4\n        /* \"#utility.yul\":10309:10326   */\n      add\n        /* \"#utility.yul\":10302:10349   */\n      mstore\n        /* \"#utility.yul\":10366:10474   */\n      tag_401\n        /* \"#utility.yul\":10469:10473   */\n      dup2\n        /* \"#utility.yul\":10460:10466   */\n      dup5\n        /* \"#utility.yul\":10366:10474   */\n      tag_253\n      jump\t// in\n    tag_401:\n        /* \"#utility.yul\":10358:10474   */\n      swap1\n      pop\n        /* \"#utility.yul\":10108:10481   */\n      swap3\n      swap2\n      pop\n      pop\n      jump\t// out\n        /* \"#utility.yul\":10487:10636   */\n    tag_254:\n        /* \"#utility.yul\":10560:10569   */\n      0x00\n        /* \"#utility.yul\":10593:10630   */\n      tag_403\n        /* \"#utility.yul\":10624:10629   */\n      dup3\n        /* \"#utility.yul\":10593:10630   */\n      tag_243\n      jump\t// in\n    tag_403:\n        /* \"#utility.yul\":10580:10630   */\n      swap1\n      pop\n        /* \"#utility.yul\":10487:10636   */\n      swap2\n      swap1\n      pop\n      jump\t// out\n        /* \"#utility.yul\":10642:10819   */\n    tag_255:\n        /* \"#utility.yul\":10752:10812   */\n      tag_405\n        /* \"#utility.yul\":10806:10811   */\n      dup2\n        /* \"#utility.yul\":10752:10812   */\n      tag_254\n      jump\t// in\n    tag_405:\n        /* \"#utility.yul\":10747:10750   */\n      dup3\n        /* \"#utility.yul\":10740:10813   */\n      mstore\n        /* \"#utility.yul\":10642:10819   */\n      pop\n      pop\n      jump\t// out\n        /* \"#utility.yul\":10825:11093   */\n    tag_48:\n        /* \"#utility.yul\":10941:10945   */\n      0x00\n        /* \"#utility.yul\":10979:10981   */\n      0x20\n        /* \"#utility.yul\":10968:10977   */\n      dup3\n        /* \"#utility.yul\":10964:10982   */\n      add\n        /* \"#utility.yul\":10956:10982   */\n      swap1\n      pop\n        /* \"#utility.yul\":10992:11086   */\n      tag_407\n        /* \"#utility.yul\":11083:11084   */\n      0x00\n        /* \"#utility.yul\":11072:11081   */\n      dup4\n        /* \"#utility.yul\":11068:11085   */\n      add\n        /* \"#utility.yul\":11059:11065   */\n      dup5\n        /* \"#utility.yul\":10992:11086   */\n      tag_255\n      jump\t// in\n    tag_407:\n        /* \"#utility.yul\":10825:11093   */\n      swap3\n      swap2\n      pop\n      pop\n      jump\t// out\n        /* \"#utility.yul\":11099:11251   */\n    tag_256:\n        /* \"#utility.yul\":11175:11184   */\n      0x00\n        /* \"#utility.yul\":11208:11245   */\n      tag_409\n        /* \"#utility.yul\":11239:11244   */\n      dup3\n        /* \"#utility.yul\":11208:11245   */\n      tag_243\n      jump\t// in\n    tag_409:\n        /* \"#utility.yul\":11195:11245   */\n      swap1\n      pop\n        /* \"#utility.yul\":11099:11251   */\n      swap2\n      swap1\n      pop\n      jump\t// out\n        /* \"#utility.yul\":11257:11440   */\n    tag_257:\n        /* \"#utility.yul\":11370:11433   */\n      tag_411\n        /* \"#utility.yul\":11427:11432   */\n      dup2\n        /* \"#utility.yul\":11370:11433   */\n      tag_256\n      jump\t// in\n    tag_411:\n        /* \"#utility.yul\":11365:11368   */\n      dup3\n        /* \"#utility.yul\":11358:11434   */\n      mstore\n        /* \"#utility.yul\":11257:11440   */\n      pop\n      pop\n      jump\t// out\n        /* \"#utility.yul\":11446:11720   */\n    tag_52:\n        /* \"#utility.yul\":11565:11569   */\n      0x00\n        /* \"#utility.yul\":11603:11605   */\n      0x20\n        /* \"#utility.yul\":11592:11601   */\n      dup3\n        /* \"#utility.yul\":11588:11606   */\n      add\n        /* \"#utility.yul\":11580:11606   */\n      swap1\n      pop\n        /* \"#utility.yul\":11616:11713   */\n      tag_413\n        /* \"#utility.yul\":11710:11711   */\n      0x00\n        /* \"#utility.yul\":11699:11708   */\n      dup4\n        /* \"#utility.yul\":11695:11712   */\n      add\n        /* \"#utility.yul\":11686:11692   */\n      dup5\n        /* \"#utility.yul\":11616:11713   */\n      tag_257\n      jump\t// in\n    tag_413:\n        /* \"#utility.yul\":11446:11720   */\n      swap3\n      swap2\n      pop\n      pop\n      jump\t// out\n        /* \"#utility.yul\":11726:11844   */\n    tag_258:\n        /* \"#utility.yul\":11813:11837   */\n      tag_415\n        /* \"#utility.yul\":11831:11836   */\n      dup2\n        /* \"#utility.yul\":11813:11837   */\n      tag_224\n      jump\t// in\n    tag_415:\n        /* \"#utility.yul\":11808:11811   */\n      dup3\n        /* \"#utility.yul\":11801:11838   */\n      mstore\n        /* \"#utility.yul\":11726:11844   */\n      pop\n      pop\n      jump\t// out\n        /* \"#utility.yul\":11850:12072   */\n    tag_57:\n        /* \"#utility.yul\":11943:11947   */\n      0x00\n        /* \"#utility.yul\":11981:11983   */\n      0x20\n        /* \"#utility.yul\":11970:11979   */\n      dup3\n        /* \"#utility.yul\":11966:11984   */\n      add\n        /* \"#utility.yul\":11958:11984   */\n      swap1\n      pop\n        /* \"#utility.yul\":11994:12065   */\n      tag_417\n        /* \"#utility.yul\":12062:12063   */\n      0x00\n        /* \"#utility.yul\":12051:12060   */\n      dup4\n        /* \"#utility.yul\":12047:12064   */\n      add\n        /* \"#utility.yul\":12038:12044   */\n      dup5\n        /* \"#utility.yul\":11994:12065   */\n      tag_258\n      jump\t// in\n    tag_417:\n        /* \"#utility.yul\":11850:12072   */\n      swap3\n      swap2\n      pop\n      pop\n      jump\t// out\n        /* \"#utility.yul\":12078:12231   */\n    tag_259:\n        /* \"#utility.yul\":12155:12164   */\n      0x00\n        /* \"#utility.yul\":12188:12225   */\n      tag_419\n        /* \"#utility.yul\":12219:12224   */\n      dup3\n        /* \"#utility.yul\":12188:12225   */\n      tag_243\n      jump\t// in\n    tag_419:\n        /* \"#utility.yul\":12175:12225   */\n      swap1\n      pop\n        /* \"#utility.yul\":12078:12231   */\n      swap2\n      swap1\n      pop\n      jump\t// out\n        /* \"#utility.yul\":12237:12422   */\n    tag_260:\n        /* \"#utility.yul\":12351:12415   */\n      tag_421\n        /* \"#utility.yul\":12409:12414   */\n      dup2\n        /* \"#utility.yul\":12351:12415   */\n      tag_259\n      jump\t// in\n    tag_421:\n        /* \"#utility.yul\":12346:12349   */\n      dup3\n        /* \"#utility.yul\":12339:12416   */\n      mstore\n        /* \"#utility.yul\":12237:12422   */\n      pop\n      pop\n      jump\t// out\n        /* \"#utility.yul\":12428:12704   */\n    tag_65:\n        /* \"#utility.yul\":12548:12552   */\n      0x00\n        /* \"#utility.yul\":12586:12588   */\n      0x20\n        /* \"#utility.yul\":12575:12584   */\n      dup3\n        /* \"#utility.yul\":12571:12589   */\n      add\n        /* \"#utility.yul\":12563:12589   */\n      swap1\n      pop\n        /* \"#utility.yul\":12599:12697   */\n      tag_423\n        /* \"#utility.yul\":12694:12695   */\n      0x00\n        /* \"#utility.yul\":12683:12692   */\n      dup4\n        /* \"#utility.yul\":12679:12696   */\n      add\n        /* \"#utility.yul\":12670:12676   */\n      dup5\n        /* \"#utility.yul\":12599:12697   */\n      tag_260\n      jump\t// in\n    tag_423:\n        /* \"#utility.yul\":12428:12704   */\n      swap3\n      swap2\n      pop\n      pop\n      jump\t// out\n        /* \"#utility.yul\":12710:12890   */\n    tag_74:\n        /* \"#utility.yul\":12758:12835   */\n      0x4e487b7100000000000000000000000000000000000000000000000000000000\n        /* \"#utility.yul\":12755:12756   */\n      0x00\n        /* \"#utility.yul\":12748:12836   */\n      mstore\n        /* \"#utility.yul\":12855:12859   */\n      0x32\n        /* \"#utility.yul\":12852:12853   */\n      0x04\n        /* \"#utility.yul\":12845:12860   */\n      mstore\n        /* \"#utility.yul\":12879:12883   */\n      0x24\n        /* \"#utility.yul\":12876:12877   */\n      0x00\n        /* \"#utility.yul\":12869:12884   */\n      revert\n        /* \"#utility.yul\":12896:13076   */\n    tag_261:\n        /* \"#utility.yul\":12944:13021   */\n      0x4e487b7100000000000000000000000000000000000000000000000000000000\n        /* \"#utility.yul\":12941:12942   */\n      0x00\n        /* \"#utility.yul\":12934:13022   */\n      mstore\n        /* \"#utility.yul\":13041:13045   */\n      0x11\n        /* \"#utility.yul\":13038:13039   */\n      0x04\n        /* \"#utility.yul\":13031:13046   */\n      mstore\n        /* \"#utility.yul\":13065:13069   */\n      0x24\n        /* \"#utility.yul\":13062:13063   */\n      0x00\n        /* \"#utility.yul\":13055:13070   */\n      revert\n        /* \"#utility.yul\":13082:13276   */\n    tag_76:\n        /* \"#utility.yul\":13122:13126   */\n      0x00\n        /* \"#utility.yul\":13142:13162   */\n      tag_427\n        /* \"#utility.yul\":13160:13161   */\n      dup3\n        /* \"#utility.yul\":13142:13162   */\n      tag_231\n      jump\t// in\n    tag_427:\n        /* \"#utility.yul\":13137:13162   */\n      swap2\n      pop\n        /* \"#utility.yul\":13176:13196   */\n      tag_428\n        /* \"#utility.yul\":13194:13195   */\n      dup4\n        /* \"#utility.yul\":13176:13196   */\n      tag_231\n      jump\t// in\n    tag_428:\n        /* \"#utility.yul\":13171:13196   */\n      swap3\n      pop\n        /* \"#utility.yul\":13220:13221   */\n      dup3\n        /* \"#utility.yul\":13217:13218   */\n      dup3\n        /* \"#utility.yul\":13213:13222   */\n      sub\n        /* \"#utility.yul\":13205:13222   */\n      swap1\n      pop\n        /* \"#utility.yul\":13244:13245   */\n      dup2\n        /* \"#utility.yul\":13238:13242   */\n      dup2\n        /* \"#utility.yul\":13235:13246   */\n      gt\n        /* \"#utility.yul\":13232:13269   */\n      iszero\n      tag_429\n      jumpi\n        /* \"#utility.yul\":13249:13267   */\n      tag_430\n      tag_261\n      jump\t// in\n    tag_430:\n        /* \"#utility.yul\":13232:13269   */\n    tag_429:\n        /* \"#utility.yul\":13082:13276   */\n      swap3\n      swap2\n      pop\n      pop\n      jump\t// out\n        /* \"#utility.yul\":13282:13425   */\n    tag_262:\n        /* \"#utility.yul\":13339:13344   */\n      0x00\n        /* \"#utility.yul\":13370:13376   */\n      dup2\n        /* \"#utility.yul\":13364:13377   */\n      mload\n        /* \"#utility.yul\":13355:13377   */\n      swap1\n      pop\n        /* \"#utility.yul\":13386:13419   */\n      tag_432\n        /* \"#utility.yul\":13413:13418   */\n      dup2\n        /* \"#utility.yul\":13386:13419   */\n      tag_232\n      jump\t// in\n    tag_432:\n        /* \"#utility.yul\":13282:13425   */\n      swap3\n      swap2\n      pop\n      pop\n      jump\t// out\n        /* \"#utility.yul\":13431:13570   */\n    tag_263:\n        /* \"#utility.yul\":13486:13491   */\n      0x00\n        /* \"#utility.yul\":13517:13523   */\n      dup2\n        /* \"#utility.yul\":13511:13524   */\n      mload\n        /* \"#utility.yul\":13502:13524   */\n      swap1\n      pop\n        /* \"#utility.yul\":13533:13564   */\n      tag_434\n        /* \"#utility.yul\":13558:13563   */\n      dup2\n        /* \"#utility.yul\":13533:13564   */\n      tag_235\n      jump\t// in\n    tag_434:\n        /* \"#utility.yul\":13431:13570   */\n      swap3\n      swap2\n      pop\n      pop\n      jump\t// out\n        /* \"#utility.yul\":13606:14221   */\n    tag_264:\n        /* \"#utility.yul\":13696:13701   */\n      0x00\n        /* \"#utility.yul\":13740:13744   */\n      0x40\n        /* \"#utility.yul\":13728:13737   */\n      dup3\n        /* \"#utility.yul\":13723:13726   */\n      dup5\n        /* \"#utility.yul\":13719:13738   */\n      sub\n        /* \"#utility.yul\":13715:13745   */\n      slt\n        /* \"#utility.yul\":13712:13829   */\n      iszero\n      tag_436\n      jumpi\n        /* \"#utility.yul\":13748:13827   */\n      tag_437\n      tag_229\n      jump\t// in\n    tag_437:\n        /* \"#utility.yul\":13712:13829   */\n    tag_436:\n        /* \"#utility.yul\":13847:13868   */\n      tag_438\n        /* \"#utility.yul\":13863:13867   */\n      0x40\n        /* \"#utility.yul\":13847:13868   */\n      tag_220\n      jump\t// in\n    tag_438:\n        /* \"#utility.yul\":13838:13868   */\n      swap1\n      pop\n        /* \"#utility.yul\":13928:13929   */\n      0x00\n        /* \"#utility.yul\":13968:14028   */\n      tag_439\n        /* \"#utility.yul\":14024:14027   */\n      dup5\n        /* \"#utility.yul\":14015:14021   */\n      dup3\n        /* \"#utility.yul\":14004:14013   */\n      dup6\n        /* \"#utility.yul\":14000:14022   */\n      add\n        /* \"#utility.yul\":13968:14028   */\n      tag_262\n      jump\t// in\n    tag_439:\n        /* \"#utility.yul\":13961:13965   */\n      0x00\n        /* \"#utility.yul\":13954:13959   */\n      dup4\n        /* \"#utility.yul\":13950:13966   */\n      add\n        /* \"#utility.yul\":13943:14029   */\n      mstore\n        /* \"#utility.yul\":13878:14040   */\n      pop\n        /* \"#utility.yul\":14103:14105   */\n      0x20\n        /* \"#utility.yul\":14144:14202   */\n      tag_440\n        /* \"#utility.yul\":14198:14201   */\n      dup5\n        /* \"#utility.yul\":14189:14195   */\n      dup3\n        /* \"#utility.yul\":14178:14187   */\n      dup6\n        /* \"#utility.yul\":14174:14196   */\n      add\n        /* \"#utility.yul\":14144:14202   */\n      tag_263\n      jump\t// in\n    tag_440:\n        /* \"#utility.yul\":14137:14141   */\n      0x20\n        /* \"#utility.yul\":14130:14135   */\n      dup4\n        /* \"#utility.yul\":14126:14142   */\n      add\n        /* \"#utility.yul\":14119:14203   */\n      mstore\n        /* \"#utility.yul\":14050:14214   */\n      pop\n        /* \"#utility.yul\":13606:14221   */\n      swap3\n      swap2\n      pop\n      pop\n      jump\t// out\n        /* \"#utility.yul\":14227:14638   */\n    tag_83:\n        /* \"#utility.yul\":14327:14333   */\n      0x00\n        /* \"#utility.yul\":14376:14378   */\n      0x40\n        /* \"#utility.yul\":14364:14373   */\n      dup3\n        /* \"#utility.yul\":14355:14362   */\n      dup5\n        /* \"#utility.yul\":14351:14374   */\n      sub\n        /* \"#utility.yul\":14347:14379   */\n      slt\n        /* \"#utility.yul\":14344:14463   */\n      iszero\n      tag_442\n      jumpi\n        /* \"#utility.yul\":14382:14461   */\n      tag_443\n      tag_215\n      jump\t// in\n    tag_443:\n        /* \"#utility.yul\":14344:14463   */\n    tag_442:\n        /* \"#utility.yul\":14502:14503   */\n      0x00\n        /* \"#utility.yul\":14527:14621   */\n      tag_444\n        /* \"#utility.yul\":14613:14620   */\n      dup5\n        /* \"#utility.yul\":14604:14610   */\n      dup3\n        /* \"#utility.yul\":14593:14602   */\n      dup6\n        /* \"#utility.yul\":14589:14611   */\n      add\n        /* \"#utility.yul\":14527:14621   */\n      tag_264\n      jump\t// in\n    tag_444:\n        /* \"#utility.yul\":14517:14621   */\n      swap2\n      pop\n        /* \"#utility.yul\":14473:14631   */\n      pop\n        /* \"#utility.yul\":14227:14638   */\n      swap3\n      swap2\n      pop\n      pop\n      jump\t// out\n        /* \"#utility.yul\":14644:15217   */\n    tag_86:\n        /* \"#utility.yul\":14885:14889   */\n      0x00\n        /* \"#utility.yul\":14923:14926   */\n      0x80\n        /* \"#utility.yul\":14912:14921   */\n      dup3\n        /* \"#utility.yul\":14908:14927   */\n      add\n        /* \"#utility.yul\":14900:14927   */\n      swap1\n      pop\n        /* \"#utility.yul\":14937:15068   */\n      tag_446\n        /* \"#utility.yul\":15065:15066   */\n      0x00\n        /* \"#utility.yul\":15054:15063   */\n      dup4\n        /* \"#utility.yul\":15050:15067   */\n      add\n        /* \"#utility.yul\":15041:15047   */\n      dup6\n        /* \"#utility.yul\":14937:15068   */\n      tag_240\n      jump\t// in\n    tag_446:\n        /* \"#utility.yul\":15078:15210   */\n      tag_447\n        /* \"#utility.yul\":15206:15208   */\n      0x40\n        /* \"#utility.yul\":15195:15204   */\n      dup4\n        /* \"#utility.yul\":15191:15209   */\n      add\n        /* \"#utility.yul\":15182:15188   */\n      dup5\n        /* \"#utility.yul\":15078:15210   */\n      tag_240\n      jump\t// in\n    tag_447:\n        /* \"#utility.yul\":14644:15217   */\n      swap4\n      swap3\n      pop\n      pop\n      pop\n      jump\t// out\n        /* \"#utility.yul\":15223:15570   */\n    tag_109:\n        /* \"#utility.yul\":15291:15297   */\n      0x00\n        /* \"#utility.yul\":15340:15342   */\n      0x20\n        /* \"#utility.yul\":15328:15337   */\n      dup3\n        /* \"#utility.yul\":15319:15326   */\n      dup5\n        /* \"#utility.yul\":15315:15338   */\n      sub\n        /* \"#utility.yul\":15311:15343   */\n      slt\n        /* \"#utility.yul\":15308:15427   */\n      iszero\n      tag_449\n      jumpi\n        /* \"#utility.yul\":15346:15425   */\n      tag_450\n      tag_215\n      jump\t// in\n    tag_450:\n        /* \"#utility.yul\":15308:15427   */\n    tag_449:\n        /* \"#utility.yul\":15466:15467   */\n      0x00\n        /* \"#utility.yul\":15491:15553   */\n      tag_451\n        /* \"#utility.yul\":15545:15552   */\n      dup5\n        /* \"#utility.yul\":15536:15542   */\n      dup3\n        /* \"#utility.yul\":15525:15534   */\n      dup6\n        /* \"#utility.yul\":15521:15543   */\n      add\n        /* \"#utility.yul\":15491:15553   */\n      tag_263\n      jump\t// in\n    tag_451:\n        /* \"#utility.yul\":15481:15553   */\n      swap2\n      pop\n        /* \"#utility.yul\":15437:15563   */\n      pop\n        /* \"#utility.yul\":15223:15570   */\n      swap3\n      swap2\n      pop\n      pop\n      jump\t// out\n        /* \"#utility.yul\":15576:15678   */\n    tag_265:\n        /* \"#utility.yul\":15618:15626   */\n      0x00\n        /* \"#utility.yul\":15665:15670   */\n      dup2\n        /* \"#utility.yul\":15662:15663   */\n      0x01\n        /* \"#utility.yul\":15658:15671   */\n      shr\n        /* \"#utility.yul\":15637:15671   */\n      swap1\n      pop\n        /* \"#utility.yul\":15576:15678   */\n      swap2\n      swap1\n      pop\n      jump\t// out\n        /* \"#utility.yul\":15684:16532   */\n    tag_266:\n        /* \"#utility.yul\":15745:15750   */\n      0x00\n        /* \"#utility.yul\":15752:15756   */\n      dup1\n        /* \"#utility.yul\":15776:15782   */\n      dup3\n        /* \"#utility.yul\":15767:15782   */\n      swap2\n      pop\n        /* \"#utility.yul\":15800:15805   */\n      dup4\n        /* \"#utility.yul\":15791:15805   */\n      swap1\n      pop\n        /* \"#utility.yul\":15814:16526   */\n    tag_454:\n        /* \"#utility.yul\":15835:15836   */\n      0x01\n        /* \"#utility.yul\":15825:15833   */\n      dup6\n        /* \"#utility.yul\":15822:15837   */\n      gt\n        /* \"#utility.yul\":15814:16526   */\n      iszero\n      tag_456\n      jumpi\n        /* \"#utility.yul\":15930:15934   */\n      dup1\n        /* \"#utility.yul\":15925:15928   */\n      dup7\n        /* \"#utility.yul\":15921:15935   */\n      div\n        /* \"#utility.yul\":15915:15919   */\n      dup2\n        /* \"#utility.yul\":15912:15936   */\n      gt\n        /* \"#utility.yul\":15909:15959   */\n      iszero\n      tag_457\n      jumpi\n        /* \"#utility.yul\":15939:15957   */\n      tag_458\n      tag_261\n      jump\t// in\n    tag_458:\n        /* \"#utility.yul\":15909:15959   */\n    tag_457:\n        /* \"#utility.yul\":15989:15990   */\n      0x01\n        /* \"#utility.yul\":15979:15987   */\n      dup6\n        /* \"#utility.yul\":15975:15991   */\n      and\n        /* \"#utility.yul\":15972:16423   */\n      iszero\n      tag_459\n      jumpi\n        /* \"#utility.yul\":16404:16408   */\n      dup1\n        /* \"#utility.yul\":16397:16402   */\n      dup3\n        /* \"#utility.yul\":16393:16409   */\n      mul\n        /* \"#utility.yul\":16384:16409   */\n      swap2\n      pop\n        /* \"#utility.yul\":15972:16423   */\n    tag_459:\n        /* \"#utility.yul\":16454:16458   */\n      dup1\n        /* \"#utility.yul\":16448:16452   */\n      dup2\n        /* \"#utility.yul\":16444:16459   */\n      mul\n        /* \"#utility.yul\":16436:16459   */\n      swap1\n      pop\n        /* \"#utility.yul\":16484:16516   */\n      tag_460\n        /* \"#utility.yul\":16507:16515   */\n      dup6\n        /* \"#utility.yul\":16484:16516   */\n      tag_265\n      jump\t// in\n    tag_460:\n        /* \"#utility.yul\":16472:16516   */\n      swap5\n      pop\n        /* \"#utility.yul\":15814:16526   */\n      jump(tag_454)\n    tag_456:\n        /* \"#utility.yul\":15684:16532   */\n      swap5\n      pop\n      swap5\n      swap3\n      pop\n      pop\n      pop\n      jump\t// out\n        /* \"#utility.yul\":16538:17611   */\n    tag_267:\n        /* \"#utility.yul\":16592:16597   */\n      0x00\n        /* \"#utility.yul\":16783:16791   */\n      dup3\n        /* \"#utility.yul\":16773:16813   */\n      tag_462\n      jumpi\n        /* \"#utility.yul\":16804:16805   */\n      0x01\n        /* \"#utility.yul\":16795:16805   */\n      swap1\n      pop\n        /* \"#utility.yul\":16806:16811   */\n      jump(tag_461)\n        /* \"#utility.yul\":16773:16813   */\n    tag_462:\n        /* \"#utility.yul\":16832:16836   */\n      dup2\n        /* \"#utility.yul\":16822:16858   */\n      tag_463\n      jumpi\n        /* \"#utility.yul\":16849:16850   */\n      0x00\n        /* \"#utility.yul\":16840:16850   */\n      swap1\n      pop\n        /* \"#utility.yul\":16851:16856   */\n      jump(tag_461)\n        /* \"#utility.yul\":16822:16858   */\n    tag_463:\n        /* \"#utility.yul\":16918:16922   */\n      dup2\n        /* \"#utility.yul\":16966:16967   */\n      0x01\n        /* \"#utility.yul\":16961:16988   */\n      dup2\n      eq\n      tag_465\n      jumpi\n        /* \"#utility.yul\":17002:17003   */\n      0x02\n        /* \"#utility.yul\":16997:17188   */\n      dup2\n      eq\n      tag_466\n      jumpi\n        /* \"#utility.yul\":16911:17188   */\n      jump(tag_464)\n        /* \"#utility.yul\":16961:16988   */\n    tag_465:\n        /* \"#utility.yul\":16979:16980   */\n      0x01\n        /* \"#utility.yul\":16970:16980   */\n      swap2\n      pop\n        /* \"#utility.yul\":16981:16986   */\n      pop\n      jump(tag_461)\n        /* \"#utility.yul\":16997:17188   */\n    tag_466:\n        /* \"#utility.yul\":17042:17045   */\n      0xff\n        /* \"#utility.yul\":17032:17040   */\n      dup5\n        /* \"#utility.yul\":17029:17046   */\n      gt\n        /* \"#utility.yul\":17026:17069   */\n      iszero\n      tag_467\n      jumpi\n        /* \"#utility.yul\":17049:17067   */\n      tag_468\n      tag_261\n      jump\t// in\n    tag_468:\n        /* \"#utility.yul\":17026:17069   */\n    tag_467:\n        /* \"#utility.yul\":17098:17106   */\n      dup4\n        /* \"#utility.yul\":17095:17096   */\n      0x02\n        /* \"#utility.yul\":17091:17107   */\n      exp\n        /* \"#utility.yul\":17082:17107   */\n      swap2\n      pop\n        /* \"#utility.yul\":17133:17136   */\n      dup5\n        /* \"#utility.yul\":17126:17131   */\n      dup3\n        /* \"#utility.yul\":17123:17137   */\n      gt\n        /* \"#utility.yul\":17120:17160   */\n      iszero\n      tag_469\n      jumpi\n        /* \"#utility.yul\":17140:17158   */\n      tag_470\n      tag_261\n      jump\t// in\n    tag_470:\n        /* \"#utility.yul\":17120:17160   */\n    tag_469:\n        /* \"#utility.yul\":17173:17178   */\n      pop\n      jump(tag_461)\n        /* \"#utility.yul\":16911:17188   */\n    tag_464:\n      pop\n        /* \"#utility.yul\":17297:17299   */\n      0x20\n        /* \"#utility.yul\":17287:17295   */\n      dup4\n        /* \"#utility.yul\":17284:17300   */\n      lt\n        /* \"#utility.yul\":17278:17281   */\n      0x0133\n        /* \"#utility.yul\":17272:17276   */\n      dup4\n        /* \"#utility.yul\":17269:17282   */\n      lt\n        /* \"#utility.yul\":17265:17301   */\n      and\n        /* \"#utility.yul\":17247:17249   */\n      0x4e\n        /* \"#utility.yul\":17237:17245   */\n      dup5\n        /* \"#utility.yul\":17234:17250   */\n      lt\n        /* \"#utility.yul\":17229:17231   */\n      0x0b\n        /* \"#utility.yul\":17223:17227   */\n      dup5\n        /* \"#utility.yul\":17220:17232   */\n      lt\n        /* \"#utility.yul\":17216:17251   */\n      and\n        /* \"#utility.yul\":17200:17311   */\n      or\n        /* \"#utility.yul\":17197:17443   */\n      iszero\n      tag_471\n      jumpi\n        /* \"#utility.yul\":17353:17361   */\n      dup3\n        /* \"#utility.yul\":17347:17351   */\n      dup3\n        /* \"#utility.yul\":17343:17362   */\n      exp\n        /* \"#utility.yul\":17334:17362   */\n      swap1\n      pop\n        /* \"#utility.yul\":17388:17391   */\n      dup4\n        /* \"#utility.yul\":17381:17386   */\n      dup2\n        /* \"#utility.yul\":17378:17392   */\n      gt\n        /* \"#utility.yul\":17375:17415   */\n      iszero\n      tag_472\n      jumpi\n        /* \"#utility.yul\":17395:17413   */\n      tag_473\n      tag_261\n      jump\t// in\n    tag_473:\n        /* \"#utility.yul\":17375:17415   */\n    tag_472:\n        /* \"#utility.yul\":17428:17433   */\n      jump(tag_461)\n        /* \"#utility.yul\":17197:17443   */\n    tag_471:\n        /* \"#utility.yul\":17468:17510   */\n      tag_474\n        /* \"#utility.yul\":17506:17509   */\n      dup5\n        /* \"#utility.yul\":17496:17504   */\n      dup5\n        /* \"#utility.yul\":17490:17494   */\n      dup5\n        /* \"#utility.yul\":17487:17488   */\n      0x01\n        /* \"#utility.yul\":17468:17510   */\n      tag_266\n      jump\t// in\n    tag_474:\n        /* \"#utility.yul\":17453:17510   */\n      swap3\n      pop\n      swap1\n      pop\n        /* \"#utility.yul\":17542:17546   */\n      dup2\n        /* \"#utility.yul\":17537:17540   */\n      dup5\n        /* \"#utility.yul\":17533:17547   */\n      div\n        /* \"#utility.yul\":17526:17531   */\n      dup2\n        /* \"#utility.yul\":17523:17548   */\n      gt\n        /* \"#utility.yul\":17520:17571   */\n      iszero\n      tag_475\n      jumpi\n        /* \"#utility.yul\":17551:17569   */\n      tag_476\n      tag_261\n      jump\t// in\n    tag_476:\n        /* \"#utility.yul\":17520:17571   */\n    tag_475:\n        /* \"#utility.yul\":17600:17604   */\n      dup2\n        /* \"#utility.yul\":17593:17598   */\n      dup2\n        /* \"#utility.yul\":17589:17605   */\n      mul\n        /* \"#utility.yul\":17580:17605   */\n      swap1\n      pop\n        /* \"#utility.yul\":16538:17611   */\n    tag_461:\n      swap4\n      swap3\n      pop\n      pop\n      pop\n      jump\t// out\n        /* \"#utility.yul\":17617:17898   */\n    tag_118:\n        /* \"#utility.yul\":17675:17680   */\n      0x00\n        /* \"#utility.yul\":17699:17722   */\n      tag_478\n        /* \"#utility.yul\":17717:17721   */\n      dup3\n        /* \"#utility.yul\":17699:17722   */\n      tag_231\n      jump\t// in\n    tag_478:\n        /* \"#utility.yul\":17691:17722   */\n      swap2\n      pop\n        /* \"#utility.yul\":17743:17768   */\n      tag_479\n        /* \"#utility.yul\":17759:17767   */\n      dup4\n        /* \"#utility.yul\":17743:17768   */\n      tag_234\n      jump\t// in\n    tag_479:\n        /* \"#utility.yul\":17731:17768   */\n      swap3\n      pop\n        /* \"#utility.yul\":17787:17891   */\n      tag_480\n        /* \"#utility.yul\":17824:17890   */\n      0xffffffffffffffffffffffffffffffffffffffffffffffffffffffffffffffff\n        /* \"#utility.yul\":17814:17822   */\n      dup5\n        /* \"#utility.yul\":17808:17812   */\n      dup5\n        /* \"#utility.yul\":17787:17891   */\n      tag_267\n      jump\t// in\n    tag_480:\n        /* \"#utility.yul\":17778:17891   */\n      swap1\n      pop\n        /* \"#utility.yul\":17617:17898   */\n      swap3\n      swap2\n      pop\n      pop\n      jump\t// out\n        /* \"#utility.yul\":17904:18022   */\n    tag_268:\n        /* \"#utility.yul\":17991:18015   */\n      tag_482\n        /* \"#utility.yul\":18009:18014   */\n      dup2\n        /* \"#utility.yul\":17991:18015   */\n      tag_231\n      jump\t// in\n    tag_482:\n        /* \"#utility.yul\":17986:17989   */\n      dup3\n        /* \"#utility.yul\":17979:18016   */\n      mstore\n        /* \"#utility.yul\":17904:18022   */\n      pop\n      pop\n      jump\t// out\n        /* \"#utility.yul\":18028:18470   */\n    tag_126:\n        /* \"#utility.yul\":18177:18181   */\n      0x00\n        /* \"#utility.yul\":18215:18217   */\n      0x60\n        /* \"#utility.yul\":18204:18213   */\n      dup3\n        /* \"#utility.yul\":18200:18218   */\n      add\n        /* \"#utility.yul\":18192:18218   */\n      swap1\n      pop\n        /* \"#utility.yul\":18228:18299   */\n      tag_484\n        /* \"#utility.yul\":18296:18297   */\n      0x00\n        /* \"#utility.yul\":18285:18294   */\n      dup4\n        /* \"#utility.yul\":18281:18298   */\n      add\n        /* \"#utility.yul\":18272:18278   */\n      dup7\n        /* \"#utility.yul\":18228:18299   */\n      tag_268\n      jump\t// in\n    tag_484:\n        /* \"#utility.yul\":18309:18381   */\n      tag_485\n        /* \"#utility.yul\":18377:18379   */\n      0x20\n        /* \"#utility.yul\":18366:18375   */\n      dup4\n        /* \"#utility.yul\":18362:18380   */\n      add\n        /* \"#utility.yul\":18353:18359   */\n      dup6\n        /* \"#utility.yul\":18309:18381   */\n      tag_268\n      jump\t// in\n    tag_485:\n        /* \"#utility.yul\":18391:18463   */\n      tag_486\n        /* \"#utility.yul\":18459:18461   */\n      0x40\n        /* \"#utility.yul\":18448:18457   */\n      dup4\n        /* \"#utility.yul\":18444:18462   */\n      add\n        /* \"#utility.yul\":18435:18441   */\n      dup5\n        /* \"#utility.yul\":18391:18463   */\n      tag_268\n      jump\t// in\n    tag_486:\n        /* \"#utility.yul\":18028:18470   */\n      swap5\n      swap4\n      pop\n      pop\n      pop\n      pop\n      jump\t// out\n        /* \"#utility.yul\":18476:18827   */\n    tag_130:\n        /* \"#utility.yul\":18546:18552   */\n      0x00\n        /* \"#utility.yul\":18595:18597   */\n      0x20\n        /* \"#utility.yul\":18583:18592   */\n      dup3\n        /* \"#utility.yul\":18574:18581   */\n      dup5\n        /* \"#utility.yul\":18570:18593   */\n      sub\n        /* \"#utility.yul\":18566:18598   */\n      slt\n        /* \"#utility.yul\":18563:18682   */\n      iszero\n      tag_488\n      jumpi\n        /* \"#utility.yul\":18601:18680   */\n      tag_489\n      tag_215\n      jump\t// in\n    tag_489:\n        /* \"#utility.yul\":18563:18682   */\n    tag_488:\n        /* \"#utility.yul\":18721:18722   */\n      0x00\n        /* \"#utility.yul\":18746:18810   */\n      tag_490\n        /* \"#utility.yul\":18802:18809   */\n      dup5\n        /* \"#utility.yul\":18793:18799   */\n      dup3\n        /* \"#utility.yul\":18782:18791   */\n      dup6\n        /* \"#utility.yul\":18778:18800   */\n      add\n        /* \"#utility.yul\":18746:18810   */\n      tag_262\n      jump\t// in\n    tag_490:\n        /* \"#utility.yul\":18736:18810   */\n      swap2\n      pop\n        /* \"#utility.yul\":18692:18820   */\n      pop\n        /* \"#utility.yul\":18476:18827   */\n      swap3\n      swap2\n      pop\n      pop\n      jump\t// out\n        /* \"#utility.yul\":18833:18976   */\n    tag_269:\n        /* \"#utility.yul\":18890:18895   */\n      0x00\n        /* \"#utility.yul\":18921:18927   */\n      dup2\n        /* \"#utility.yul\":18915:18928   */\n      mload\n        /* \"#utility.yul\":18906:18928   */\n      swap1\n      pop\n        /* \"#utility.yul\":18937:18970   */\n      tag_492\n        /* \"#utility.yul\":18964:18969   */\n      dup2\n        /* \"#utility.yul\":18937:18970   */\n      tag_225\n      jump\t// in\n    tag_492:\n        /* \"#utility.yul\":18833:18976   */\n      swap3\n      swap2\n      pop\n      pop\n      jump\t// out\n        /* \"#utility.yul\":18982:19333   */\n    tag_155:\n        /* \"#utility.yul\":19052:19058   */\n      0x00\n        /* \"#utility.yul\":19101:19103   */\n      0x20\n        /* \"#utility.yul\":19089:19098   */\n      dup3\n        /* \"#utility.yul\":19080:19087   */\n      dup5\n        /* \"#utility.yul\":19076:19099   */\n      sub\n        /* \"#utility.yul\":19072:19104   */\n      slt\n        /* \"#utility.yul\":19069:19188   */\n      iszero\n      tag_494\n      jumpi\n        /* \"#utility.yul\":19107:19186   */\n      tag_495\n      tag_215\n      jump\t// in\n    tag_495:\n        /* \"#utility.yul\":19069:19188   */\n    tag_494:\n        /* \"#utility.yul\":19227:19228   */\n      0x00\n        /* \"#utility.yul\":19252:19316   */\n      tag_496\n        /* \"#utility.yul\":19308:19315   */\n      dup5\n        /* \"#utility.yul\":19299:19305   */\n      dup3\n        /* \"#utility.yul\":19288:19297   */\n      dup6\n        /* \"#utility.yul\":19284:19306   */\n      add\n        /* \"#utility.yul\":19252:19316   */\n      tag_269\n      jump\t// in\n    tag_496:\n        /* \"#utility.yul\":19242:19316   */\n      swap2\n      pop\n        /* \"#utility.yul\":19198:19326   */\n      pop\n        /* \"#utility.yul\":18982:19333   */\n      swap3\n      swap2\n      pop\n      pop\n      jump\t// out\n        /* \"#utility.yul\":19339:19453   */\n    tag_270:\n        /* \"#utility.yul\":19376:19383   */\n      0x00\n        /* \"#utility.yul\":19416:19446   */\n      0xffffffffffffffffffffffffffff\n        /* \"#utility.yul\":19409:19414   */\n      dup3\n        /* \"#utility.yul\":19405:19447   */\n      and\n        /* \"#utility.yul\":19394:19447   */\n      swap1\n      pop\n        /* \"#utility.yul\":19339:19453   */\n      swap2\n      swap1\n      pop\n      jump\t// out\n        /* \"#utility.yul\":19459:19581   */\n    tag_271:\n        /* \"#utility.yul\":19532:19556   */\n      tag_499\n        /* \"#utility.yul\":19550:19555   */\n      dup2\n        /* \"#utility.yul\":19532:19556   */\n      tag_270\n      jump\t// in\n    tag_499:\n        /* \"#utility.yul\":19525:19530   */\n      dup2\n        /* \"#utility.yul\":19522:19557   */\n      eq\n        /* \"#utility.yul\":19512:19575   */\n      tag_500\n      jumpi\n        /* \"#utility.yul\":19571:19572   */\n      0x00\n        /* \"#utility.yul\":19568:19569   */\n      dup1\n        /* \"#utility.yul\":19561:19573   */\n      revert\n        /* \"#utility.yul\":19512:19575   */\n    tag_500:\n        /* \"#utility.yul\":19459:19581   */\n      pop\n      jump\t// out\n        /* \"#utility.yul\":19587:19730   */\n    tag_272:\n        /* \"#utility.yul\":19644:19649   */\n      0x00\n        /* \"#utility.yul\":19675:19681   */\n      dup2\n        /* \"#utility.yul\":19669:19682   */\n      mload\n        /* \"#utility.yul\":19660:19682   */\n      swap1\n      pop\n        /* \"#utility.yul\":19691:19724   */\n      tag_502\n        /* \"#utility.yul\":19718:19723   */\n      dup2\n        /* \"#utility.yul\":19691:19724   */\n      tag_271\n      jump\t// in\n    tag_502:\n        /* \"#utility.yul\":19587:19730   */\n      swap3\n      swap2\n      pop\n      pop\n      jump\t// out\n        /* \"#utility.yul\":19736:19829   */\n    tag_273:\n        /* \"#utility.yul\":19772:19779   */\n      0x00\n        /* \"#utility.yul\":19812:19822   */\n      0xffffffff\n        /* \"#utility.yul\":19805:19810   */\n      dup3\n        /* \"#utility.yul\":19801:19823   */\n      and\n        /* \"#utility.yul\":19790:19823   */\n      swap1\n      pop\n        /* \"#utility.yul\":19736:19829   */\n      swap2\n      swap1\n      pop\n      jump\t// out\n        /* \"#utility.yul\":19835:19955   */\n    tag_274:\n        /* \"#utility.yul\":19907:19930   */\n      tag_505\n        /* \"#utility.yul\":19924:19929   */\n      dup2\n        /* \"#utility.yul\":19907:19930   */\n      tag_273\n      jump\t// in\n    tag_505:\n        /* \"#utility.yul\":19900:19905   */\n      dup2\n        /* \"#utility.yul\":19897:19931   */\n      eq\n        /* \"#utility.yul\":19887:19949   */\n      tag_506\n      jumpi\n        /* \"#utility.yul\":19945:19946   */\n      0x00\n        /* \"#utility.yul\":19942:19943   */\n      dup1\n        /* \"#utility.yul\":19935:19947   */\n      revert\n        /* \"#utility.yul\":19887:19949   */\n    tag_506:\n        /* \"#utility.yul\":19835:19955   */\n      pop\n      jump\t// out\n        /* \"#utility.yul\":19961:20102   */\n    tag_275:\n        /* \"#utility.yul\":20017:20022   */\n      0x00\n        /* \"#utility.yul\":20048:20054   */\n      dup2\n        /* \"#utility.yul\":20042:20055   */\n      mload\n        /* \"#utility.yul\":20033:20055   */\n      swap1\n      pop\n        /* \"#utility.yul\":20064:20096   */\n      tag_508\n        /* \"#utility.yul\":20090:20095   */\n      dup2\n        /* \"#utility.yul\":20064:20096   */\n      tag_274\n      jump\t// in\n    tag_508:\n        /* \"#utility.yul\":19961:20102   */\n      swap3\n      swap2\n      pop\n      pop\n      jump\t// out\n        /* \"#utility.yul\":20108:20769   */\n    tag_165:\n        /* \"#utility.yul\":20195:20201   */\n      0x00\n        /* \"#utility.yul\":20203:20209   */\n      dup1\n        /* \"#utility.yul\":20211:20217   */\n      0x00\n        /* \"#utility.yul\":20260:20262   */\n      0x60\n        /* \"#utility.yul\":20248:20257   */\n      dup5\n        /* \"#utility.yul\":20239:20246   */\n      dup7\n        /* \"#utility.yul\":20235:20258   */\n      sub\n        /* \"#utility.yul\":20231:20263   */\n      slt\n        /* \"#utility.yul\":20228:20347   */\n      iszero\n      tag_510\n      jumpi\n        /* \"#utility.yul\":20266:20345   */\n      tag_511\n      tag_215\n      jump\t// in\n    tag_511:\n        /* \"#utility.yul\":20228:20347   */\n    tag_510:\n        /* \"#utility.yul\":20386:20387   */\n      0x00\n        /* \"#utility.yul\":20411:20475   */\n      tag_512\n        /* \"#utility.yul\":20467:20474   */\n      dup7\n        /* \"#utility.yul\":20458:20464   */\n      dup3\n        /* \"#utility.yul\":20447:20456   */\n      dup8\n        /* \"#utility.yul\":20443:20465   */\n      add\n        /* \"#utility.yul\":20411:20475   */\n      tag_272\n      jump\t// in\n    tag_512:\n        /* \"#utility.yul\":20401:20475   */\n      swap4\n      pop\n        /* \"#utility.yul\":20357:20485   */\n      pop\n        /* \"#utility.yul\":20524:20526   */\n      0x20\n        /* \"#utility.yul\":20550:20614   */\n      tag_513\n        /* \"#utility.yul\":20606:20613   */\n      dup7\n        /* \"#utility.yul\":20597:20603   */\n      dup3\n        /* \"#utility.yul\":20586:20595   */\n      dup8\n        /* \"#utility.yul\":20582:20604   */\n      add\n        /* \"#utility.yul\":20550:20614   */\n      tag_272\n      jump\t// in\n    tag_513:\n        /* \"#utility.yul\":20540:20614   */\n      swap3\n      pop\n        /* \"#utility.yul\":20495:20624   */\n      pop\n        /* \"#utility.yul\":20663:20665   */\n      0x40\n        /* \"#utility.yul\":20689:20752   */\n      tag_514\n        /* \"#utility.yul\":20744:20751   */\n      dup7\n        /* \"#utility.yul\":20735:20741   */\n      dup3\n        /* \"#utility.yul\":20724:20733   */\n      dup8\n        /* \"#utility.yul\":20720:20742   */\n      add\n        /* \"#utility.yul\":20689:20752   */\n      tag_275\n      jump\t// in\n    tag_514:\n        /* \"#utility.yul\":20679:20752   */\n      swap2\n      pop\n        /* \"#utility.yul\":20634:20762   */\n      pop\n        /* \"#utility.yul\":20108:20769   */\n      swap3\n      pop\n      swap3\n      pop\n      swap3\n      jump\t// out\n        /* \"#utility.yul\":20775:21107   */\n    tag_177:\n        /* \"#utility.yul\":20896:20900   */\n      0x00\n        /* \"#utility.yul\":20934:20936   */\n      0x40\n        /* \"#utility.yul\":20923:20932   */\n      dup3\n        /* \"#utility.yul\":20919:20937   */\n      add\n        /* \"#utility.yul\":20911:20937   */\n      swap1\n      pop\n        /* \"#utility.yul\":20947:21018   */\n      tag_516\n        /* \"#utility.yul\":21015:21016   */\n      0x00\n        /* \"#utility.yul\":21004:21013   */\n      dup4\n        /* \"#utility.yul\":21000:21017   */\n      add\n        /* \"#utility.yul\":20991:20997   */\n      dup6\n        /* \"#utility.yul\":20947:21018   */\n      tag_258\n      jump\t// in\n    tag_516:\n        /* \"#utility.yul\":21028:21100   */\n      tag_517\n        /* \"#utility.yul\":21096:21098   */\n      0x20\n        /* \"#utility.yul\":21085:21094   */\n      dup4\n        /* \"#utility.yul\":21081:21099   */\n      add\n        /* \"#utility.yul\":21072:21078   */\n      dup5\n        /* \"#utility.yul\":21028:21100   */\n      tag_258\n      jump\t// in\n    tag_517:\n        /* \"#utility.yul\":20775:21107   */\n      swap4\n      swap3\n      pop\n      pop\n      pop\n      jump\t// out\n        /* \"#utility.yul\":21113:21225   */\n    tag_276:\n        /* \"#utility.yul\":21196:21218   */\n      tag_519\n        /* \"#utility.yul\":21212:21217   */\n      dup2\n        /* \"#utility.yul\":21196:21218   */\n      tag_234\n      jump\t// in\n    tag_519:\n        /* \"#utility.yul\":21191:21194   */\n      dup3\n        /* \"#utility.yul\":21184:21219   */\n      mstore\n        /* \"#utility.yul\":21113:21225   */\n      pop\n      pop\n      jump\t// out\n        /* \"#utility.yul\":21231:21675   */\n    tag_196:\n        /* \"#utility.yul\":21408:21412   */\n      0x00\n        /* \"#utility.yul\":21446:21448   */\n      0x60\n        /* \"#utility.yul\":21435:21444   */\n      dup3\n        /* \"#utility.yul\":21431:21449   */\n      add\n        /* \"#utility.yul\":21423:21449   */\n      swap1\n      pop\n        /* \"#utility.yul\":21459:21590   */\n      tag_521\n        /* \"#utility.yul\":21587:21588   */\n      0x00\n        /* \"#utility.yul\":21576:21585   */\n      dup4\n        /* \"#utility.yul\":21572:21589   */\n      add\n        /* \"#utility.yul\":21563:21569   */\n      dup6\n        /* \"#utility.yul\":21459:21590   */\n      tag_240\n      jump\t// in\n    tag_521:\n        /* \"#utility.yul\":21600:21668   */\n      tag_522\n        /* \"#utility.yul\":21664:21666   */\n      0x40\n        /* \"#utility.yul\":21653:21662   */\n      dup4\n        /* \"#utility.yul\":21649:21667   */\n      add\n        /* \"#utility.yul\":21640:21646   */\n      dup5\n        /* \"#utility.yul\":21600:21668   */\n      tag_276\n      jump\t// in\n    tag_522:\n        /* \"#utility.yul\":21231:21675   */\n      swap4\n      swap3\n      pop\n      pop\n      pop\n      jump\t// out\n        /* \"#utility.yul\":21681:21795   */\n    tag_277:\n        /* \"#utility.yul\":21748:21754   */\n      0x00\n        /* \"#utility.yul\":21782:21787   */\n      dup2\n        /* \"#utility.yul\":21776:21788   */\n      mload\n        /* \"#utility.yul\":21766:21788   */\n      swap1\n      pop\n        /* \"#utility.yul\":21681:21795   */\n      swap2\n      swap1\n      pop\n      jump\t// out\n        /* \"#utility.yul\":21801:21985   */\n    tag_278:\n        /* \"#utility.yul\":21900:21911   */\n      0x00\n        /* \"#utility.yul\":21934:21940   */\n      dup3\n        /* \"#utility.yul\":21929:21932   */\n      dup3\n        /* \"#utility.yul\":21922:21941   */\n      mstore\n        /* \"#utility.yul\":21974:21978   */\n      0x20\n        /* \"#utility.yul\":21969:21972   */\n      dup3\n        /* \"#utility.yul\":21965:21979   */\n      add\n        /* \"#utility.yul\":21950:21979   */\n      swap1\n      pop\n        /* \"#utility.yul\":21801:21985   */\n      swap3\n      swap2\n      pop\n      pop\n      jump\t// out\n        /* \"#utility.yul\":21991:22123   */\n    tag_279:\n        /* \"#utility.yul\":22058:22062   */\n      0x00\n        /* \"#utility.yul\":22081:22084   */\n      dup2\n        /* \"#utility.yul\":22073:22084   */\n      swap1\n      pop\n        /* \"#utility.yul\":22111:22115   */\n      0x20\n        /* \"#utility.yul\":22106:22109   */\n      dup3\n        /* \"#utility.yul\":22102:22116   */\n      add\n        /* \"#utility.yul\":22094:22116   */\n      swap1\n      pop\n        /* \"#utility.yul\":21991:22123   */\n      swap2\n      swap1\n      pop\n      jump\t// out\n        /* \"#utility.yul\":22129:22237   */\n    tag_280:\n        /* \"#utility.yul\":22206:22230   */\n      tag_527\n        /* \"#utility.yul\":22224:22229   */\n      dup2\n        /* \"#utility.yul\":22206:22230   */\n      tag_224\n      jump\t// in\n    tag_527:\n        /* \"#utility.yul\":22201:22204   */\n      dup3\n        /* \"#utility.yul\":22194:22231   */\n      mstore\n        /* \"#utility.yul\":22129:22237   */\n      pop\n      pop\n      jump\t// out\n        /* \"#utility.yul\":22243:22422   */\n    tag_281:\n        /* \"#utility.yul\":22312:22322   */\n      0x00\n        /* \"#utility.yul\":22333:22379   */\n      tag_529\n        /* \"#utility.yul\":22375:22378   */\n      dup4\n        /* \"#utility.yul\":22367:22373   */\n      dup4\n        /* \"#utility.yul\":22333:22379   */\n      tag_280\n      jump\t// in\n    tag_529:\n        /* \"#utility.yul\":22411:22415   */\n      0x20\n        /* \"#utility.yul\":22406:22409   */\n      dup4\n        /* \"#utility.yul\":22402:22416   */\n      add\n        /* \"#utility.yul\":22388:22416   */\n      swap1\n      pop\n        /* \"#utility.yul\":22243:22422   */\n      swap3\n      swap2\n      pop\n      pop\n      jump\t// out\n        /* \"#utility.yul\":22428:22541   */\n    tag_282:\n        /* \"#utility.yul\":22498:22502   */\n      0x00\n        /* \"#utility.yul\":22530:22534   */\n      0x20\n        /* \"#utility.yul\":22525:22528   */\n      dup3\n        /* \"#utility.yul\":22521:22535   */\n      add\n        /* \"#utility.yul\":22513:22535   */\n      swap1\n      pop\n        /* \"#utility.yul\":22428:22541   */\n      swap2\n      swap1\n      pop\n      jump\t// out\n        /* \"#utility.yul\":22577:23309   */\n    tag_283:\n        /* \"#utility.yul\":22696:22699   */\n      0x00\n        /* \"#utility.yul\":22725:22779   */\n      tag_532\n        /* \"#utility.yul\":22773:22778   */\n      dup3\n        /* \"#utility.yul\":22725:22779   */\n      tag_277\n      jump\t// in\n    tag_532:\n        /* \"#utility.yul\":22795:22881   */\n      tag_533\n        /* \"#utility.yul\":22874:22880   */\n      dup2\n        /* \"#utility.yul\":22869:22872   */\n      dup6\n        /* \"#utility.yul\":22795:22881   */\n      tag_278\n      jump\t// in\n    tag_533:\n        /* \"#utility.yul\":22788:22881   */\n      swap4\n      pop\n        /* \"#utility.yul\":22905:22961   */\n      tag_534\n        /* \"#utility.yul\":22955:22960   */\n      dup4\n        /* \"#utility.yul\":22905:22961   */\n      tag_279\n      jump\t// in\n    tag_534:\n        /* \"#utility.yul\":22984:22991   */\n      dup1\n        /* \"#utility.yul\":23015:23016   */\n      0x00\n        /* \"#utility.yul\":23000:23284   */\n    tag_535:\n        /* \"#utility.yul\":23025:23031   */\n      dup4\n        /* \"#utility.yul\":23022:23023   */\n      dup2\n        /* \"#utility.yul\":23019:23032   */\n      lt\n        /* \"#utility.yul\":23000:23284   */\n      iszero\n      tag_537\n      jumpi\n        /* \"#utility.yul\":23101:23107   */\n      dup2\n        /* \"#utility.yul\":23095:23108   */\n      mload\n        /* \"#utility.yul\":23128:23191   */\n      tag_538\n        /* \"#utility.yul\":23187:23190   */\n      dup9\n        /* \"#utility.yul\":23172:23185   */\n      dup3\n        /* \"#utility.yul\":23128:23191   */\n      tag_281\n      jump\t// in\n    tag_538:\n        /* \"#utility.yul\":23121:23191   */\n      swap8\n      pop\n        /* \"#utility.yul\":23214:23274   */\n      tag_539\n        /* \"#utility.yul\":23267:23273   */\n      dup4\n        /* \"#utility.yul\":23214:23274   */\n      tag_282\n      jump\t// in\n    tag_539:\n        /* \"#utility.yul\":23204:23274   */\n      swap3\n      pop\n        /* \"#utility.yul\":23060:23284   */\n      pop\n        /* \"#utility.yul\":23047:23048   */\n      0x01\n        /* \"#utility.yul\":23044:23045   */\n      dup2\n        /* \"#utility.yul\":23040:23049   */\n      add\n        /* \"#utility.yul\":23035:23049   */\n      swap1\n      pop\n        /* \"#utility.yul\":23000:23284   */\n      jump(tag_535)\n    tag_537:\n        /* \"#utility.yul\":23004:23018   */\n      pop\n        /* \"#utility.yul\":23300:23303   */\n      dup6\n        /* \"#utility.yul\":23293:23303   */\n      swap4\n      pop\n        /* \"#utility.yul\":22701:23309   */\n      pop\n      pop\n      pop\n        /* \"#utility.yul\":22577:23309   */\n      swap3\n      swap2\n      pop\n      pop\n      jump\t// out\n        /* \"#utility.yul\":23315:23798   */\n    tag_201:\n        /* \"#utility.yul\":23486:23490   */\n      0x00\n        /* \"#utility.yul\":23524:23526   */\n      0x40\n        /* \"#utility.yul\":23513:23522   */\n      dup3\n        /* \"#utility.yul\":23509:23527   */\n      add\n        /* \"#utility.yul\":23501:23527   */\n      swap1\n      pop\n        /* \"#utility.yul\":23537:23608   */\n      tag_541\n        /* \"#utility.yul\":23605:23606   */\n      0x00\n        /* \"#utility.yul\":23594:23603   */\n      dup4\n        /* \"#utility.yul\":23590:23607   */\n      add\n        /* \"#utility.yul\":23581:23587   */\n      dup6\n        /* \"#utility.yul\":23537:23608   */\n      tag_268\n      jump\t// in\n    tag_541:\n        /* \"#utility.yul\":23655:23664   */\n      dup2\n        /* \"#utility.yul\":23649:23653   */\n      dup2\n        /* \"#utility.yul\":23645:23665   */\n      sub\n        /* \"#utility.yul\":23640:23642   */\n      0x20\n        /* \"#utility.yul\":23629:23638   */\n      dup4\n        /* \"#utility.yul\":23625:23643   */\n      add\n        /* \"#utility.yul\":23618:23666   */\n      mstore\n        /* \"#utility.yul\":23683:23791   */\n      tag_542\n        /* \"#utility.yul\":23786:23790   */\n      dup2\n        /* \"#utility.yul\":23777:23783   */\n      dup5\n        /* \"#utility.yul\":23683:23791   */\n      tag_283\n      jump\t// in\n    tag_542:\n        /* \"#utility.yul\":23675:23791   */\n      swap1\n      pop\n        /* \"#utility.yul\":23315:23798   */\n      swap4\n      swap3\n      pop\n      pop\n      pop\n      jump\t// out\n        /* \"#utility.yul\":23804:24115   */\n    tag_284:\n        /* \"#utility.yul\":23881:23885   */\n      0x00\n        /* \"#utility.yul\":23971:23989   */\n      0xffffffffffffffff\n        /* \"#utility.yul\":23963:23969   */\n      dup3\n        /* \"#utility.yul\":23960:23990   */\n      gt\n        /* \"#utility.yul\":23957:24013   */\n      iszero\n      tag_544\n      jumpi\n        /* \"#utility.yul\":23993:24011   */\n      tag_545\n      tag_159\n      jump\t// in\n    tag_545:\n        /* \"#utility.yul\":23957:24013   */\n    tag_544:\n        /* \"#utility.yul\":24043:24047   */\n      0x20\n        /* \"#utility.yul\":24035:24041   */\n      dup3\n        /* \"#utility.yul\":24031:24048   */\n      mul\n        /* \"#utility.yul\":24023:24048   */\n      swap1\n      pop\n        /* \"#utility.yul\":24103:24107   */\n      0x20\n        /* \"#utility.yul\":24097:24101   */\n      dup2\n        /* \"#utility.yul\":24093:24108   */\n      add\n        /* \"#utility.yul\":24085:24108   */\n      swap1\n      pop\n        /* \"#utility.yul\":23804:24115   */\n      swap2\n      swap1\n      pop\n      jump\t// out\n        /* \"#utility.yul\":24138:24870   */\n    tag_285:\n        /* \"#utility.yul\":24245:24250   */\n      0x00\n        /* \"#utility.yul\":24270:24351   */\n      tag_547\n        /* \"#utility.yul\":24286:24350   */\n      tag_548\n        /* \"#utility.yul\":24343:24349   */\n      dup5\n        /* \"#utility.yul\":24286:24350   */\n      tag_284\n      jump\t// in\n    tag_548:\n        /* \"#utility.yul\":24270:24351   */\n      tag_220\n      jump\t// in\n    tag_547:\n        /* \"#utility.yul\":24261:24351   */\n      swap1\n      pop\n        /* \"#utility.yul\":24371:24376   */\n      dup1\n        /* \"#utility.yul\":24400:24406   */\n      dup4\n        /* \"#utility.yul\":24393:24398   */\n      dup3\n        /* \"#utility.yul\":24386:24407   */\n      mstore\n        /* \"#utility.yul\":24434:24438   */\n      0x20\n        /* \"#utility.yul\":24427:24432   */\n      dup3\n        /* \"#utility.yul\":24423:24439   */\n      add\n        /* \"#utility.yul\":24416:24439   */\n      swap1\n      pop\n        /* \"#utility.yul\":24487:24491   */\n      0x20\n        /* \"#utility.yul\":24479:24485   */\n      dup5\n        /* \"#utility.yul\":24475:24492   */\n      mul\n        /* \"#utility.yul\":24467:24473   */\n      dup4\n        /* \"#utility.yul\":24463:24493   */\n      add\n        /* \"#utility.yul\":24516:24519   */\n      dup6\n        /* \"#utility.yul\":24508:24514   */\n      dup2\n        /* \"#utility.yul\":24505:24520   */\n      gt\n        /* \"#utility.yul\":24502:24624   */\n      iszero\n      tag_549\n      jumpi\n        /* \"#utility.yul\":24535:24614   */\n      tag_550\n      tag_222\n      jump\t// in\n    tag_550:\n        /* \"#utility.yul\":24502:24624   */\n    tag_549:\n        /* \"#utility.yul\":24650:24656   */\n      dup4\n        /* \"#utility.yul\":24633:24864   */\n    tag_551:\n        /* \"#utility.yul\":24667:24673   */\n      dup2\n        /* \"#utility.yul\":24662:24665   */\n      dup2\n        /* \"#utility.yul\":24659:24674   */\n      lt\n        /* \"#utility.yul\":24633:24864   */\n      iszero\n      tag_553\n      jumpi\n        /* \"#utility.yul\":24742:24745   */\n      dup1\n        /* \"#utility.yul\":24771:24819   */\n      tag_554\n        /* \"#utility.yul\":24815:24818   */\n      dup9\n        /* \"#utility.yul\":24803:24813   */\n      dup3\n        /* \"#utility.yul\":24771:24819   */\n      tag_262\n      jump\t// in\n    tag_554:\n        /* \"#utility.yul\":24766:24769   */\n      dup5\n        /* \"#utility.yul\":24759:24820   */\n      mstore\n        /* \"#utility.yul\":24849:24853   */\n      0x20\n        /* \"#utility.yul\":24844:24847   */\n      dup5\n        /* \"#utility.yul\":24840:24854   */\n      add\n        /* \"#utility.yul\":24833:24854   */\n      swap4\n      pop\n        /* \"#utility.yul\":24709:24864   */\n      pop\n        /* \"#utility.yul\":24693:24697   */\n      0x20\n        /* \"#utility.yul\":24688:24691   */\n      dup2\n        /* \"#utility.yul\":24684:24698   */\n      add\n        /* \"#utility.yul\":24677:24698   */\n      swap1\n      pop\n        /* \"#utility.yul\":24633:24864   */\n      jump(tag_551)\n    tag_553:\n        /* \"#utility.yul\":24637:24658   */\n      pop\n        /* \"#utility.yul\":24251:24870   */\n      pop\n      pop\n        /* \"#utility.yul\":24138:24870   */\n      swap4\n      swap3\n      pop\n      pop\n      pop\n      jump\t// out\n        /* \"#utility.yul\":24893:25278   */\n    tag_286:\n        /* \"#utility.yul\":24975:24980   */\n      0x00\n        /* \"#utility.yul\":25024:25027   */\n      dup3\n        /* \"#utility.yul\":25017:25021   */\n      0x1f\n        /* \"#utility.yul\":25009:25015   */\n      dup4\n        /* \"#utility.yul\":25005:25022   */\n      add\n        /* \"#utility.yul\":25001:25028   */\n      slt\n        /* \"#utility.yul\":24991:25113   */\n      tag_556\n      jumpi\n        /* \"#utility.yul\":25032:25111   */\n      tag_557\n      tag_217\n      jump\t// in\n    tag_557:\n        /* \"#utility.yul\":24991:25113   */\n    tag_556:\n        /* \"#utility.yul\":25142:25148   */\n      dup2\n        /* \"#utility.yul\":25136:25149   */\n      mload\n        /* \"#utility.yul\":25167:25272   */\n      tag_558\n        /* \"#utility.yul\":25268:25271   */\n      dup5\n        /* \"#utility.yul\":25260:25266   */\n      dup3\n        /* \"#utility.yul\":25253:25257   */\n      0x20\n        /* \"#utility.yul\":25245:25251   */\n      dup7\n        /* \"#utility.yul\":25241:25258   */\n      add\n        /* \"#utility.yul\":25167:25272   */\n      tag_285\n      jump\t// in\n    tag_558:\n        /* \"#utility.yul\":25158:25272   */\n      swap2\n      pop\n        /* \"#utility.yul\":24981:25278   */\n      pop\n        /* \"#utility.yul\":24893:25278   */\n      swap3\n      swap2\n      pop\n      pop\n      jump\t// out\n        /* \"#utility.yul\":25284:25838   */\n    tag_205:\n        /* \"#utility.yul\":25379:25385   */\n      0x00\n        /* \"#utility.yul\":25428:25430   */\n      0x20\n        /* \"#utility.yul\":25416:25425   */\n      dup3\n        /* \"#utility.yul\":25407:25414   */\n      dup5\n        /* \"#utility.yul\":25403:25426   */\n      sub\n        /* \"#utility.yul\":25399:25431   */\n      slt\n        /* \"#utility.yul\":25396:25515   */\n      iszero\n      tag_560\n      jumpi\n        /* \"#utility.yul\":25434:25513   */\n      tag_561\n      tag_215\n      jump\t// in\n    tag_561:\n        /* \"#utility.yul\":25396:25515   */\n    tag_560:\n        /* \"#utility.yul\":25575:25576   */\n      0x00\n        /* \"#utility.yul\":25564:25573   */\n      dup3\n        /* \"#utility.yul\":25560:25577   */\n      add\n        /* \"#utility.yul\":25554:25578   */\n      mload\n        /* \"#utility.yul\":25605:25623   */\n      0xffffffffffffffff\n        /* \"#utility.yul\":25597:25603   */\n      dup2\n        /* \"#utility.yul\":25594:25624   */\n      gt\n        /* \"#utility.yul\":25591:25708   */\n      iszero\n      tag_562\n      jumpi\n        /* \"#utility.yul\":25627:25706   */\n      tag_563\n      tag_216\n      jump\t// in\n    tag_563:\n        /* \"#utility.yul\":25591:25708   */\n    tag_562:\n        /* \"#utility.yul\":25732:25821   */\n      tag_564\n        /* \"#utility.yul\":25813:25820   */\n      dup5\n        /* \"#utility.yul\":25804:25810   */\n      dup3\n        /* \"#utility.yul\":25793:25802   */\n      dup6\n        /* \"#utility.yul\":25789:25811   */\n      add\n        /* \"#utility.yul\":25732:25821   */\n      tag_286\n      jump\t// in\n    tag_564:\n        /* \"#utility.yul\":25722:25821   */\n      swap2\n      pop\n        /* \"#utility.yul\":25525:25831   */\n      pop\n        /* \"#utility.yul\":25284:25838   */\n      swap3\n      swap2\n      pop\n      pop\n      jump\t// out\n\n    auxdata: 0xa2646970667358221220f72a3fac39326b4525c178d3afdec557073cfb97bf9e58007b65c6f097bbeb2664736f6c63430008130033\n}\n",
				"bytecode": {
					"linkReferences": {},
					"object": "60806040523480156200001157600080fd5b50604051620020913803806200209183398181016040528101906200003791906200016c565b826000806101000a81548173ffffffffffffffffffffffffffffffffffffffff021916908373ffffffffffffffffffffffffffffffffffffffff16021790555081600160006101000a81548173ffffffffffffffffffffffffffffffffffffffff021916908373ffffffffffffffffffffffffffffffffffffffff16021790555080600260006101000a81548173ffffffffffffffffffffffffffffffffffffffff021916908373ffffffffffffffffffffffffffffffffffffffff160217905550505050620001c8565b600080fd5b600073ffffffffffffffffffffffffffffffffffffffff82169050919050565b6000620001348262000107565b9050919050565b620001468162000127565b81146200015257600080fd5b50565b60008151905062000166816200013b565b92915050565b60008060006060848603121562000188576200018762000102565b5b6000620001988682870162000155565b9350506020620001ab8682870162000155565b9250506040620001be8682870162000155565b9150509250925092565b611eb980620001d86000396000f3fe608060405234801561001057600080fd5b50600436106100a95760003560e01c8063b09cd0c311610071578063b09cd0c31461018c578063be83cb79146101bc578063c45a0155146101ec578063ceca05ab1461020a578063f61623171461023a578063f887ea401461026a576100a9565b80630d186819146100ae57806314c758d9146100de5780632b00490d146100fc57806341b298951461012c5780637dd927871461015c575b600080fd5b6100c860048036038101906100c3919061142e565b610288565b6040516100d591906114d7565b60405180910390f35b6100e66105fc565b6040516100f39190611551565b60405180910390f35b6101166004803603810190610111919061156c565b610625565b60405161012391906114d7565b60405180910390f35b6101466004803603810190610141919061156c565b610acf565b60405161015391906115c7565b60405180910390f35b6101766004803603810190610171919061156c565b610b7f565b6040516101839190611691565b60405180910390f35b6101a660048036038101906101a1919061156c565b610cb7565b6040516101b391906115c7565b60405180910390f35b6101d660048036038101906101d1919061156c565b610cf9565b6040516101e391906116d4565b60405180910390f35b6101f4610d0d565b6040516102019190611710565b60405180910390f35b610224600480360381019061021f919061156c565b610d37565b604051610231919061173a565b60405180910390f35b610254600480360381019061024f919061142e565b610ddf565b60405161026191906114d7565b60405180910390f35b610272611158565b60405161027f9190611776565b60405180910390f35b610290611182565b60008061029b611182565b6102a3611182565b6102ab611182565b876000815181106102bf576102be611791565b5b6020026020010151945087600189516102d891906117ef565b815181106102e9576102e8611791565b5b6020026020010151935060008054906101000a900473ffffffffffffffffffffffffffffffffffffffff1673ffffffffffffffffffffffffffffffffffffffff16633e60d8e0886040518263ffffffff1660e01b815260040161034c91906114d7565b6040805180830381865afa158015610368573d6000803e3d6000fd5b505050506040513d601f19601f8201168201806040525081019061038c919061189d565b965060008054906101000a900473ffffffffffffffffffffffffffffffffffffffff1673ffffffffffffffffffffffffffffffffffffffff1663a7e7c9f9886103d58888610625565b6040518363ffffffff1660e01b81526004016103f29291906118ca565b6040805180830381865afa15801561040e573d6000803e3d6000fd5b505050506040513d601f19601f82011682018060405250810190610432919061189d565b925061043e8888610ddf565b9150600083600001511480610457575060008260000151145b1561048257604051806040016040528060008152602001601260ff16815250955050505050506105f6565b82600001518260000151106105505760008054906101000a900473ffffffffffffffffffffffffffffffffffffffff1673ffffffffffffffffffffffffffffffffffffffff16633e60d8e060405180604001604052806127108152602001600060ff168152506040518263ffffffff1660e01b815260040161050491906114d7565b6040805180830381865afa158015610520573d6000803e3d6000fd5b505050506040513d601f19601f82011682018060405250810190610544919061189d565b955050505050506105f6565b60008054906101000a900473ffffffffffffffffffffffffffffffffffffffff1673ffffffffffffffffffffffffffffffffffffffff1663e51356e883856040518363ffffffff1660e01b81526004016105ab9291906118ca565b6040805180830381865afa1580156105c7573d6000803e3d6000fd5b505050506040513d601f19601f820116820180604052508101906105eb919061189d565b905080955050505050505b92915050565b60008060009054906101000a900473ffffffffffffffffffffffffffffffffffffffff16905090565b61062d611182565b600080600061063a611182565b8673ffffffffffffffffffffffffffffffffffffffff1663313ce5676040518163ffffffff1660e01b8152600401602060405180830381865afa158015610685573d6000803e3d6000fd5b505050506040513d601f19601f820116820180604052508101906106a991906118f3565b93508573ffffffffffffffffffffffffffffffffffffffff1663313ce5676040518163ffffffff1660e01b8152600401602060405180830381865afa1580156106f6573d6000803e3d6000fd5b505050506040513d601f19601f8201168201806040525081019061071a91906118f3565b92506107268787610cb7565b1561075057604051806040016040528060008152602001601260ff16815250945050505050610ac9565b61075a8787610acf565b1561091657600260009054906101000a900473ffffffffffffffffffffffffffffffffffffffff1673ffffffffffffffffffffffffffffffffffffffff1663ad615dec85600a6107aa9190611a53565b6107b48a8a610b7f565b6000815181106107c7576107c6611791565b5b60200260200101516107d98b8b610b7f565b6001815181106107ec576107eb611791565b5b60200260200101516040518463ffffffff1660e01b815260040161081293929190611aad565b602060405180830381865afa15801561082f573d6000803e3d6000fd5b505050506040513d601f19601f820116820180604052508101906108539190611ae4565b915060405180604001604052808381526020018460ff16815250905060008054906101000a900473ffffffffffffffffffffffffffffffffffffffff1673ffffffffffffffffffffffffffffffffffffffff16633e60d8e0826040518263ffffffff1660e01b81526004016108c891906114d7565b6040805180830381865afa1580156108e4573d6000803e3d6000fd5b505050506040513d601f19601f82011682018060405250810190610908919061189d565b905080945050505050610ac9565b600260009054906101000a900473ffffffffffffffffffffffffffffffffffffffff1673ffffffffffffffffffffffffffffffffffffffff1663ad615dec84600a6109619190611a53565b61096b8a8a610b7f565b60018151811061097e5761097d611791565b5b60200260200101516109908b8b610b7f565b6000815181106109a3576109a2611791565b5b60200260200101516040518463ffffffff1660e01b81526004016109c993929190611aad565b602060405180830381865afa1580156109e6573d6000803e3d6000fd5b505050506040513d601f19601f82011682018060405250810190610a0a9190611ae4565b915060405180604001604052808381526020018460ff16815250905060008054906101000a900473ffffffffffffffffffffffffffffffffffffffff1673ffffffffffffffffffffffffffffffffffffffff16633e60d8e0826040518263ffffffff1660e01b8152600401610a7f91906114d7565b6040805180830381865afa158015610a9b573d6000803e3d6000fd5b505050506040513d601f19601f82011682018060405250810190610abf919061189d565b9050809450505050505b92915050565b6000610adb8383610cf9565b73ffffffffffffffffffffffffffffffffffffffff16630dfe16816040518163ffffffff1660e01b8152600401602060405180830381865afa158015610b25573d6000803e3d6000fd5b505050506040513d601f19601f82011682018060405250810190610b499190611b26565b73ffffffffffffffffffffffffffffffffffffffff168373ffffffffffffffffffffffffffffffffffffffff1614905092915050565b606080600267ffffffffffffffff811115610b9d57610b9c6111c9565b5b604051908082528060200260200182016040528015610bcb5781602001602082028036833780820191505090505b509050610bd88484610cf9565b73ffffffffffffffffffffffffffffffffffffffff16630902f1ac6040518163ffffffff1660e01b8152600401606060405180830381865afa158015610c22573d6000803e3d6000fd5b505050506040513d601f19601f82011682018060405250810190610c469190611bd5565b826dffffffffffffffffffffffffffff169250816dffffffffffffffffffffffffffff1691505082600081518110610c8157610c80611791565b5b6020026020010183600181518110610c9c57610c9b611791565b5b60200260200101828152508281525050508091505092915050565b60008073ffffffffffffffffffffffffffffffffffffffff16610cda8484610d37565b73ffffffffffffffffffffffffffffffffffffffff1614905092915050565b6000610d058383610d37565b905092915050565b6000600160009054906101000a900473ffffffffffffffffffffffffffffffffffffffff16905090565b6000600160009054906101000a900473ffffffffffffffffffffffffffffffffffffffff1673ffffffffffffffffffffffffffffffffffffffff1663e6a4390584846040518363ffffffff1660e01b8152600401610d96929190611c28565b602060405180830381865afa158015610db3573d6000803e3d6000fd5b505050506040513d601f19601f82011682018060405250810190610dd79190611b26565b905092915050565b610de7611182565b60008060008060606000610df9611182565b89600081518110610e0d57610e0c611791565b5b602002602001015196508960018b51610e2691906117ef565b81518110610e3757610e36611791565b5b602002602001015195508673ffffffffffffffffffffffffffffffffffffffff1663313ce5676040518163ffffffff1660e01b8152600401602060405180830381865afa158015610e8c573d6000803e3d6000fd5b505050506040513d601f19601f82011682018060405250810190610eb091906118f3565b94508573ffffffffffffffffffffffffffffffffffffffff1663313ce5676040518163ffffffff1660e01b8152600401602060405180830381865afa158015610efd573d6000803e3d6000fd5b505050506040513d601f19601f82011682018060405250810190610f2191906118f3565b935060008054906101000a900473ffffffffffffffffffffffffffffffffffffffff1673ffffffffffffffffffffffffffffffffffffffff16637d02ebf48a876040518363ffffffff1660e01b8152600401610f7e929190611c60565b6040805180830381865afa158015610f9a573d6000803e3d6000fd5b505050506040513d601f19601f82011682018060405250810190610fbe919061189d565b9850600260009054906101000a900473ffffffffffffffffffffffffffffffffffffffff1673ffffffffffffffffffffffffffffffffffffffff1663d06ca61f8a600001518c6040518363ffffffff1660e01b8152600401611021929190611d47565b600060405180830381865afa15801561103e573d6000803e3d6000fd5b505050506040513d6000823e3d601f19601f820116820180604052508101906110679190611e3a565b9250826001845161107891906117ef565b8151811061108957611088611791565b5b6020026020010151915060405180604001604052808381526020018560ff16815250905060008054906101000a900473ffffffffffffffffffffffffffffffffffffffff1673ffffffffffffffffffffffffffffffffffffffff16633e60d8e0826040518263ffffffff1660e01b815260040161110691906114d7565b6040805180830381865afa158015611122573d6000803e3d6000fd5b505050506040513d601f19601f82011682018060405250810190611146919061189d565b90508097505050505050505092915050565b6000600260009054906101000a900473ffffffffffffffffffffffffffffffffffffffff16905090565b604051806040016040528060008152602001600060ff1681525090565b6000604051905090565b600080fd5b600080fd5b600080fd5b6000601f19601f8301169050919050565b7f4e487b7100000000000000000000000000000000000000000000000000000000600052604160045260246000fd5b611201826111b8565b810181811067ffffffffffffffff821117156112205761121f6111c9565b5b80604052505050565b600061123361119f565b905061123f82826111f8565b919050565b600067ffffffffffffffff82111561125f5761125e6111c9565b5b602082029050602081019050919050565b600080fd5b600073ffffffffffffffffffffffffffffffffffffffff82169050919050565b60006112a082611275565b9050919050565b6112b081611295565b81146112bb57600080fd5b50565b6000813590506112cd816112a7565b92915050565b60006112e66112e184611244565b611229565b9050808382526020820190506020840283018581111561130957611308611270565b5b835b81811015611332578061131e88826112be565b84526020840193505060208101905061130b565b5050509392505050565b600082601f830112611351576113506111b3565b5b81356113618482602086016112d3565b91505092915050565b600080fd5b6000819050919050565b6113828161136f565b811461138d57600080fd5b50565b60008135905061139f81611379565b92915050565b600060ff82169050919050565b6113bb816113a5565b81146113c657600080fd5b50565b6000813590506113d8816113b2565b92915050565b6000604082840312156113f4576113f361136a565b5b6113fe6040611229565b9050600061140e84828501611390565b6000830152506020611422848285016113c9565b60208301525092915050565b60008060608385031215611445576114446111a9565b5b600083013567ffffffffffffffff811115611463576114626111ae565b5b61146f8582860161133c565b9250506020611480858286016113de565b9150509250929050565b6114938161136f565b82525050565b6114a2816113a5565b82525050565b6040820160008201516114be600085018261148a565b5060208201516114d16020850182611499565b50505050565b60006040820190506114ec60008301846114a8565b92915050565b6000819050919050565b600061151761151261150d84611275565b6114f2565b611275565b9050919050565b6000611529826114fc565b9050919050565b600061153b8261151e565b9050919050565b61154b81611530565b82525050565b60006020820190506115666000830184611542565b92915050565b60008060408385031215611583576115826111a9565b5b6000611591858286016112be565b92505060206115a2858286016112be565b9150509250929050565b60008115159050919050565b6115c1816115ac565b82525050565b60006020820190506115dc60008301846115b8565b92915050565b600081519050919050565b600082825260208201905092915050565b6000819050602082019050919050565b600061161a838361148a565b60208301905092915050565b6000602082019050919050565b600061163e826115e2565b61164881856115ed565b9350611653836115fe565b8060005b8381101561168457815161166b888261160e565b975061167683611626565b925050600181019050611657565b5085935050505092915050565b600060208201905081810360008301526116ab8184611633565b905092915050565b60006116be8261151e565b9050919050565b6116ce816116b3565b82525050565b60006020820190506116e960008301846116c5565b92915050565b60006116fa8261151e565b9050919050565b61170a816116ef565b82525050565b60006020820190506117256000830184611701565b92915050565b61173481611295565b82525050565b600060208201905061174f600083018461172b565b92915050565b60006117608261151e565b9050919050565b61177081611755565b82525050565b600060208201905061178b6000830184611767565b92915050565b7f4e487b7100000000000000000000000000000000000000000000000000000000600052603260045260246000fd5b7f4e487b7100000000000000000000000000000000000000000000000000000000600052601160045260246000fd5b60006117fa8261136f565b91506118058361136f565b925082820390508181111561181d5761181c6117c0565b5b92915050565b60008151905061183281611379565b92915050565b600081519050611847816113b2565b92915050565b6000604082840312156118635761186261136a565b5b61186d6040611229565b9050600061187d84828501611823565b600083015250602061189184828501611838565b60208301525092915050565b6000604082840312156118b3576118b26111a9565b5b60006118c18482850161184d565b91505092915050565b60006080820190506118df60008301856114a8565b6118ec60408301846114a8565b9392505050565b600060208284031215611909576119086111a9565b5b600061191784828501611838565b91505092915050565b60008160011c9050919050565b6000808291508390505b600185111561197757808604811115611953576119526117c0565b5b60018516156119625780820291505b808102905061197085611920565b9450611937565b94509492505050565b6000826119905760019050611a4c565b8161199e5760009050611a4c565b81600181146119b457600281146119be576119ed565b6001915050611a4c565b60ff8411156119d0576119cf6117c0565b5b8360020a9150848211156119e7576119e66117c0565b5b50611a4c565b5060208310610133831016604e8410600b8410161715611a225782820a905083811115611a1d57611a1c6117c0565b5b611a4c565b611a2f848484600161192d565b92509050818404811115611a4657611a456117c0565b5b81810290505b9392505050565b6000611a5e8261136f565b9150611a69836113a5565b9250611a967fffffffffffffffffffffffffffffffffffffffffffffffffffffffffffffffff8484611980565b905092915050565b611aa78161136f565b82525050565b6000606082019050611ac26000830186611a9e565b611acf6020830185611a9e565b611adc6040830184611a9e565b949350505050565b600060208284031215611afa57611af96111a9565b5b6000611b0884828501611823565b91505092915050565b600081519050611b20816112a7565b92915050565b600060208284031215611b3c57611b3b6111a9565b5b6000611b4a84828501611b11565b91505092915050565b60006dffffffffffffffffffffffffffff82169050919050565b611b7681611b53565b8114611b8157600080fd5b50565b600081519050611b9381611b6d565b92915050565b600063ffffffff82169050919050565b611bb281611b99565b8114611bbd57600080fd5b50565b600081519050611bcf81611ba9565b92915050565b600080600060608486031215611bee57611bed6111a9565b5b6000611bfc86828701611b84565b9350506020611c0d86828701611b84565b9250506040611c1e86828701611bc0565b9150509250925092565b6000604082019050611c3d600083018561172b565b611c4a602083018461172b565b9392505050565b611c5a816113a5565b82525050565b6000606082019050611c7560008301856114a8565b611c826040830184611c51565b9392505050565b600081519050919050565b600082825260208201905092915050565b6000819050602082019050919050565b611cbe81611295565b82525050565b6000611cd08383611cb5565b60208301905092915050565b6000602082019050919050565b6000611cf482611c89565b611cfe8185611c94565b9350611d0983611ca5565b8060005b83811015611d3a578151611d218882611cc4565b9750611d2c83611cdc565b925050600181019050611d0d565b5085935050505092915050565b6000604082019050611d5c6000830185611a9e565b8181036020830152611d6e8184611ce9565b90509392505050565b600067ffffffffffffffff821115611d9257611d916111c9565b5b602082029050602081019050919050565b6000611db6611db184611d77565b611229565b90508083825260208201905060208402830185811115611dd957611dd8611270565b5b835b81811015611e025780611dee8882611823565b845260208401935050602081019050611ddb565b5050509392505050565b600082601f830112611e2157611e206111b3565b5b8151611e31848260208601611da3565b91505092915050565b600060208284031215611e5057611e4f6111a9565b5b600082015167ffffffffffffffff811115611e6e57611e6d6111ae565b5b611e7a84828501611e0c565b9150509291505056fea2646970667358221220f72a3fac39326b4525c178d3afdec557073cfb97bf9e58007b65c6f097bbeb2664736f6c63430008130033",
					"opcodes": "PUSH1 0x80 PUSH1 0x40 MSTORE CALLVALUE DUP1 ISZERO PUSH3 0x11 JUMPI PUSH1 0x0 DUP1 REVERT JUMPDEST POP PUSH1 0x40 MLOAD PUSH3 0x2091 CODESIZE SUB DUP1 PUSH3 0x2091 DUP4 CODECOPY DUP2 DUP2 ADD PUSH1 0x40 MSTORE DUP2 ADD SWAP1 PUSH3 0x37 SWAP2 SWAP1 PUSH3 0x16C JUMP JUMPDEST DUP3 PUSH1 0x0 DUP1 PUSH2 0x100 EXP DUP2 SLOAD DUP2 PUSH20 0xFFFFFFFFFFFFFFFFFFFFFFFFFFFFFFFFFFFFFFFF MUL NOT AND SWAP1 DUP4 PUSH20 0xFFFFFFFFFFFFFFFFFFFFFFFFFFFFFFFFFFFFFFFF AND MUL OR SWAP1 SSTORE POP DUP2 PUSH1 0x1 PUSH1 0x0 PUSH2 0x100 EXP DUP2 SLOAD DUP2 PUSH20 0xFFFFFFFFFFFFFFFFFFFFFFFFFFFFFFFFFFFFFFFF MUL NOT AND SWAP1 DUP4 PUSH20 0xFFFFFFFFFFFFFFFFFFFFFFFFFFFFFFFFFFFFFFFF AND MUL OR SWAP1 SSTORE POP DUP1 PUSH1 0x2 PUSH1 0x0 PUSH2 0x100 EXP DUP2 SLOAD DUP2 PUSH20 0xFFFFFFFFFFFFFFFFFFFFFFFFFFFFFFFFFFFFFFFF MUL NOT AND SWAP1 DUP4 PUSH20 0xFFFFFFFFFFFFFFFFFFFFFFFFFFFFFFFFFFFFFFFF AND MUL OR SWAP1 SSTORE POP POP POP POP PUSH3 0x1C8 JUMP JUMPDEST PUSH1 0x0 DUP1 REVERT JUMPDEST PUSH1 0x0 PUSH20 0xFFFFFFFFFFFFFFFFFFFFFFFFFFFFFFFFFFFFFFFF DUP3 AND SWAP1 POP SWAP2 SWAP1 POP JUMP JUMPDEST PUSH1 0x0 PUSH3 0x134 DUP3 PUSH3 0x107 JUMP JUMPDEST SWAP1 POP SWAP2 SWAP1 POP JUMP JUMPDEST PUSH3 0x146 DUP2 PUSH3 0x127 JUMP JUMPDEST DUP2 EQ PUSH3 0x152 JUMPI PUSH1 0x0 DUP1 REVERT JUMPDEST POP JUMP JUMPDEST PUSH1 0x0 DUP2 MLOAD SWAP1 POP PUSH3 0x166 DUP2 PUSH3 0x13B JUMP JUMPDEST SWAP3 SWAP2 POP POP JUMP JUMPDEST PUSH1 0x0 DUP1 PUSH1 0x0 PUSH1 0x60 DUP5 DUP7 SUB SLT ISZERO PUSH3 0x188 JUMPI PUSH3 0x187 PUSH3 0x102 JUMP JUMPDEST JUMPDEST PUSH1 0x0 PUSH3 0x198 DUP7 DUP3 DUP8 ADD PUSH3 0x155 JUMP JUMPDEST SWAP4 POP POP PUSH1 0x20 PUSH3 0x1AB DUP7 DUP3 DUP8 ADD PUSH3 0x155 JUMP JUMPDEST SWAP3 POP POP PUSH1 0x40 PUSH3 0x1BE DUP7 DUP3 DUP8 ADD PUSH3 0x155 JUMP JUMPDEST SWAP2 POP POP SWAP3 POP SWAP3 POP SWAP3 JUMP JUMPDEST PUSH2 0x1EB9 DUP1 PUSH3 0x1D8 PUSH1 0x0 CODECOPY PUSH1 0x0 RETURN INVALID PUSH1 0x80 PUSH1 0x40 MSTORE CALLVALUE DUP1 ISZERO PUSH2 0x10 JUMPI PUSH1 0x0 DUP1 REVERT JUMPDEST POP PUSH1 0x4 CALLDATASIZE LT PUSH2 0xA9 JUMPI PUSH1 0x0 CALLDATALOAD PUSH1 0xE0 SHR DUP1 PUSH4 0xB09CD0C3 GT PUSH2 0x71 JUMPI DUP1 PUSH4 0xB09CD0C3 EQ PUSH2 0x18C JUMPI DUP1 PUSH4 0xBE83CB79 EQ PUSH2 0x1BC JUMPI DUP1 PUSH4 0xC45A0155 EQ PUSH2 0x1EC JUMPI DUP1 PUSH4 0xCECA05AB EQ PUSH2 0x20A JUMPI DUP1 PUSH4 0xF6162317 EQ PUSH2 0x23A JUMPI DUP1 PUSH4 0xF887EA40 EQ PUSH2 0x26A JUMPI PUSH2 0xA9 JUMP JUMPDEST DUP1 PUSH4 0xD186819 EQ PUSH2 0xAE JUMPI DUP1 PUSH4 0x14C758D9 EQ PUSH2 0xDE JUMPI DUP1 PUSH4 0x2B00490D EQ PUSH2 0xFC JUMPI DUP1 PUSH4 0x41B29895 EQ PUSH2 0x12C JUMPI DUP1 PUSH4 0x7DD92787 EQ PUSH2 0x15C JUMPI JUMPDEST PUSH1 0x0 DUP1 REVERT JUMPDEST PUSH2 0xC8 PUSH1 0x4 DUP1 CALLDATASIZE SUB DUP2 ADD SWAP1 PUSH2 0xC3 SWAP2 SWAP1 PUSH2 0x142E JUMP JUMPDEST PUSH2 0x288 JUMP JUMPDEST PUSH1 0x40 MLOAD PUSH2 0xD5 SWAP2 SWAP1 PUSH2 0x14D7 JUMP JUMPDEST PUSH1 0x40 MLOAD DUP1 SWAP2 SUB SWAP1 RETURN JUMPDEST PUSH2 0xE6 PUSH2 0x5FC JUMP JUMPDEST PUSH1 0x40 MLOAD PUSH2 0xF3 SWAP2 SWAP1 PUSH2 0x1551 JUMP JUMPDEST PUSH1 0x40 MLOAD DUP1 SWAP2 SUB SWAP1 RETURN JUMPDEST PUSH2 0x116 PUSH1 0x4 DUP1 CALLDATASIZE SUB DUP2 ADD SWAP1 PUSH2 0x111 SWAP2 SWAP1 PUSH2 0x156C JUMP JUMPDEST PUSH2 0x625 JUMP JUMPDEST PUSH1 0x40 MLOAD PUSH2 0x123 SWAP2 SWAP1 PUSH2 0x14D7 JUMP JUMPDEST PUSH1 0x40 MLOAD DUP1 SWAP2 SUB SWAP1 RETURN JUMPDEST PUSH2 0x146 PUSH1 0x4 DUP1 CALLDATASIZE SUB DUP2 ADD SWAP1 PUSH2 0x141 SWAP2 SWAP1 PUSH2 0x156C JUMP JUMPDEST PUSH2 0xACF JUMP JUMPDEST PUSH1 0x40 MLOAD PUSH2 0x153 SWAP2 SWAP1 PUSH2 0x15C7 JUMP JUMPDEST PUSH1 0x40 MLOAD DUP1 SWAP2 SUB SWAP1 RETURN JUMPDEST PUSH2 0x176 PUSH1 0x4 DUP1 CALLDATASIZE SUB DUP2 ADD SWAP1 PUSH2 0x171 SWAP2 SWAP1 PUSH2 0x156C JUMP JUMPDEST PUSH2 0xB7F JUMP JUMPDEST PUSH1 0x40 MLOAD PUSH2 0x183 SWAP2 SWAP1 PUSH2 0x1691 JUMP JUMPDEST PUSH1 0x40 MLOAD DUP1 SWAP2 SUB SWAP1 RETURN JUMPDEST PUSH2 0x1A6 PUSH1 0x4 DUP1 CALLDATASIZE SUB DUP2 ADD SWAP1 PUSH2 0x1A1 SWAP2 SWAP1 PUSH2 0x156C JUMP JUMPDEST PUSH2 0xCB7 JUMP JUMPDEST PUSH1 0x40 MLOAD PUSH2 0x1B3 SWAP2 SWAP1 PUSH2 0x15C7 JUMP JUMPDEST PUSH1 0x40 MLOAD DUP1 SWAP2 SUB SWAP1 RETURN JUMPDEST PUSH2 0x1D6 PUSH1 0x4 DUP1 CALLDATASIZE SUB DUP2 ADD SWAP1 PUSH2 0x1D1 SWAP2 SWAP1 PUSH2 0x156C JUMP JUMPDEST PUSH2 0xCF9 JUMP JUMPDEST PUSH1 0x40 MLOAD PUSH2 0x1E3 SWAP2 SWAP1 PUSH2 0x16D4 JUMP JUMPDEST PUSH1 0x40 MLOAD DUP1 SWAP2 SUB SWAP1 RETURN JUMPDEST PUSH2 0x1F4 PUSH2 0xD0D JUMP JUMPDEST PUSH1 0x40 MLOAD PUSH2 0x201 SWAP2 SWAP1 PUSH2 0x1710 JUMP JUMPDEST PUSH1 0x40 MLOAD DUP1 SWAP2 SUB SWAP1 RETURN JUMPDEST PUSH2 0x224 PUSH1 0x4 DUP1 CALLDATASIZE SUB DUP2 ADD SWAP1 PUSH2 0x21F SWAP2 SWAP1 PUSH2 0x156C JUMP JUMPDEST PUSH2 0xD37 JUMP JUMPDEST PUSH1 0x40 MLOAD PUSH2 0x231 SWAP2 SWAP1 PUSH2 0x173A JUMP JUMPDEST PUSH1 0x40 MLOAD DUP1 SWAP2 SUB SWAP1 RETURN JUMPDEST PUSH2 0x254 PUSH1 0x4 DUP1 CALLDATASIZE SUB DUP2 ADD SWAP1 PUSH2 0x24F SWAP2 SWAP1 PUSH2 0x142E JUMP JUMPDEST PUSH2 0xDDF JUMP JUMPDEST PUSH1 0x40 MLOAD PUSH2 0x261 SWAP2 SWAP1 PUSH2 0x14D7 JUMP JUMPDEST PUSH1 0x40 MLOAD DUP1 SWAP2 SUB SWAP1 RETURN JUMPDEST PUSH2 0x272 PUSH2 0x1158 JUMP JUMPDEST PUSH1 0x40 MLOAD PUSH2 0x27F SWAP2 SWAP1 PUSH2 0x1776 JUMP JUMPDEST PUSH1 0x40 MLOAD DUP1 SWAP2 SUB SWAP1 RETURN JUMPDEST PUSH2 0x290 PUSH2 0x1182 JUMP JUMPDEST PUSH1 0x0 DUP1 PUSH2 0x29B PUSH2 0x1182 JUMP JUMPDEST PUSH2 0x2A3 PUSH2 0x1182 JUMP JUMPDEST PUSH2 0x2AB PUSH2 0x1182 JUMP JUMPDEST DUP8 PUSH1 0x0 DUP2 MLOAD DUP2 LT PUSH2 0x2BF JUMPI PUSH2 0x2BE PUSH2 0x1791 JUMP JUMPDEST JUMPDEST PUSH1 0x20 MUL PUSH1 0x20 ADD ADD MLOAD SWAP5 POP DUP8 PUSH1 0x1 DUP10 MLOAD PUSH2 0x2D8 SWAP2 SWAP1 PUSH2 0x17EF JUMP JUMPDEST DUP2 MLOAD DUP2 LT PUSH2 0x2E9 JUMPI PUSH2 0x2E8 PUSH2 0x1791 JUMP JUMPDEST JUMPDEST PUSH1 0x20 MUL PUSH1 0x20 ADD ADD MLOAD SWAP4 POP PUSH1 0x0 DUP1 SLOAD SWAP1 PUSH2 0x100 EXP SWAP1 DIV PUSH20 0xFFFFFFFFFFFFFFFFFFFFFFFFFFFFFFFFFFFFFFFF AND PUSH20 0xFFFFFFFFFFFFFFFFFFFFFFFFFFFFFFFFFFFFFFFF AND PUSH4 0x3E60D8E0 DUP9 PUSH1 0x40 MLOAD DUP3 PUSH4 0xFFFFFFFF AND PUSH1 0xE0 SHL DUP2 MSTORE PUSH1 0x4 ADD PUSH2 0x34C SWAP2 SWAP1 PUSH2 0x14D7 JUMP JUMPDEST PUSH1 0x40 DUP1 MLOAD DUP1 DUP4 SUB DUP2 DUP7 GAS STATICCALL ISZERO DUP1 ISZERO PUSH2 0x368 JUMPI RETURNDATASIZE PUSH1 0x0 DUP1 RETURNDATACOPY RETURNDATASIZE PUSH1 0x0 REVERT JUMPDEST POP POP POP POP PUSH1 0x40 MLOAD RETURNDATASIZE PUSH1 0x1F NOT PUSH1 0x1F DUP3 ADD AND DUP3 ADD DUP1 PUSH1 0x40 MSTORE POP DUP2 ADD SWAP1 PUSH2 0x38C SWAP2 SWAP1 PUSH2 0x189D JUMP JUMPDEST SWAP7 POP PUSH1 0x0 DUP1 SLOAD SWAP1 PUSH2 0x100 EXP SWAP1 DIV PUSH20 0xFFFFFFFFFFFFFFFFFFFFFFFFFFFFFFFFFFFFFFFF AND PUSH20 0xFFFFFFFFFFFFFFFFFFFFFFFFFFFFFFFFFFFFFFFF AND PUSH4 0xA7E7C9F9 DUP9 PUSH2 0x3D5 DUP9 DUP9 PUSH2 0x625 JUMP JUMPDEST PUSH1 0x40 MLOAD DUP4 PUSH4 0xFFFFFFFF AND PUSH1 0xE0 SHL DUP2 MSTORE PUSH1 0x4 ADD PUSH2 0x3F2 SWAP3 SWAP2 SWAP1 PUSH2 0x18CA JUMP JUMPDEST PUSH1 0x40 DUP1 MLOAD DUP1 DUP4 SUB DUP2 DUP7 GAS STATICCALL ISZERO DUP1 ISZERO PUSH2 0x40E JUMPI RETURNDATASIZE PUSH1 0x0 DUP1 RETURNDATACOPY RETURNDATASIZE PUSH1 0x0 REVERT JUMPDEST POP POP POP POP PUSH1 0x40 MLOAD RETURNDATASIZE PUSH1 0x1F NOT PUSH1 0x1F DUP3 ADD AND DUP3 ADD DUP1 PUSH1 0x40 MSTORE POP DUP2 ADD SWAP1 PUSH2 0x432 SWAP2 SWAP1 PUSH2 0x189D JUMP JUMPDEST SWAP3 POP PUSH2 0x43E DUP9 DUP9 PUSH2 0xDDF JUMP JUMPDEST SWAP2 POP PUSH1 0x0 DUP4 PUSH1 0x0 ADD MLOAD EQ DUP1 PUSH2 0x457 JUMPI POP PUSH1 0x0 DUP3 PUSH1 0x0 ADD MLOAD EQ JUMPDEST ISZERO PUSH2 0x482 JUMPI PUSH1 0x40 MLOAD DUP1 PUSH1 0x40 ADD PUSH1 0x40 MSTORE DUP1 PUSH1 0x0 DUP2 MSTORE PUSH1 0x20 ADD PUSH1 0x12 PUSH1 0xFF AND DUP2 MSTORE POP SWAP6 POP POP POP POP POP POP PUSH2 0x5F6 JUMP JUMPDEST DUP3 PUSH1 0x0 ADD MLOAD DUP3 PUSH1 0x0 ADD MLOAD LT PUSH2 0x550 JUMPI PUSH1 0x0 DUP1 SLOAD SWAP1 PUSH2 0x100 EXP SWAP1 DIV PUSH20 0xFFFFFFFFFFFFFFFFFFFFFFFFFFFFFFFFFFFFFFFF AND PUSH20 0xFFFFFFFFFFFFFFFFFFFFFFFFFFFFFFFFFFFFFFFF AND PUSH4 0x3E60D8E0 PUSH1 0x40 MLOAD DUP1 PUSH1 0x40 ADD PUSH1 0x40 MSTORE DUP1 PUSH2 0x2710 DUP2 MSTORE PUSH1 0x20 ADD PUSH1 0x0 PUSH1 0xFF AND DUP2 MSTORE POP PUSH1 0x40 MLOAD DUP3 PUSH4 0xFFFFFFFF AND PUSH1 0xE0 SHL DUP2 MSTORE PUSH1 0x4 ADD PUSH2 0x504 SWAP2 SWAP1 PUSH2 0x14D7 JUMP JUMPDEST PUSH1 0x40 DUP1 MLOAD DUP1 DUP4 SUB DUP2 DUP7 GAS STATICCALL ISZERO DUP1 ISZERO PUSH2 0x520 JUMPI RETURNDATASIZE PUSH1 0x0 DUP1 RETURNDATACOPY RETURNDATASIZE PUSH1 0x0 REVERT JUMPDEST POP POP POP POP PUSH1 0x40 MLOAD RETURNDATASIZE PUSH1 0x1F NOT PUSH1 0x1F DUP3 ADD AND DUP3 ADD DUP1 PUSH1 0x40 MSTORE POP DUP2 ADD SWAP1 PUSH2 0x544 SWAP2 SWAP1 PUSH2 0x189D JUMP JUMPDEST SWAP6 POP POP POP POP POP POP PUSH2 0x5F6 JUMP JUMPDEST PUSH1 0x0 DUP1 SLOAD SWAP1 PUSH2 0x100 EXP SWAP1 DIV PUSH20 0xFFFFFFFFFFFFFFFFFFFFFFFFFFFFFFFFFFFFFFFF AND PUSH20 0xFFFFFFFFFFFFFFFFFFFFFFFFFFFFFFFFFFFFFFFF AND PUSH4 0xE51356E8 DUP4 DUP6 PUSH1 0x40 MLOAD DUP4 PUSH4 0xFFFFFFFF AND PUSH1 0xE0 SHL DUP2 MSTORE PUSH1 0x4 ADD PUSH2 0x5AB SWAP3 SWAP2 SWAP1 PUSH2 0x18CA JUMP JUMPDEST PUSH1 0x40 DUP1 MLOAD DUP1 DUP4 SUB DUP2 DUP7 GAS STATICCALL ISZERO DUP1 ISZERO PUSH2 0x5C7 JUMPI RETURNDATASIZE PUSH1 0x0 DUP1 RETURNDATACOPY RETURNDATASIZE PUSH1 0x0 REVERT JUMPDEST POP POP POP POP PUSH1 0x40 MLOAD RETURNDATASIZE PUSH1 0x1F NOT PUSH1 0x1F DUP3 ADD AND DUP3 ADD DUP1 PUSH1 0x40 MSTORE POP DUP2 ADD SWAP1 PUSH2 0x5EB SWAP2 SWAP1 PUSH2 0x189D JUMP JUMPDEST SWAP1 POP DUP1 SWAP6 POP POP POP POP POP POP JUMPDEST SWAP3 SWAP2 POP POP JUMP JUMPDEST PUSH1 0x0 DUP1 PUSH1 0x0 SWAP1 SLOAD SWAP1 PUSH2 0x100 EXP SWAP1 DIV PUSH20 0xFFFFFFFFFFFFFFFFFFFFFFFFFFFFFFFFFFFFFFFF AND SWAP1 POP SWAP1 JUMP JUMPDEST PUSH2 0x62D PUSH2 0x1182 JUMP JUMPDEST PUSH1 0x0 DUP1 PUSH1 0x0 PUSH2 0x63A PUSH2 0x1182 JUMP JUMPDEST DUP7 PUSH20 0xFFFFFFFFFFFFFFFFFFFFFFFFFFFFFFFFFFFFFFFF AND PUSH4 0x313CE567 PUSH1 0x40 MLOAD DUP2 PUSH4 0xFFFFFFFF AND PUSH1 0xE0 SHL DUP2 MSTORE PUSH1 0x4 ADD PUSH1 0x20 PUSH1 0x40 MLOAD DUP1 DUP4 SUB DUP2 DUP7 GAS STATICCALL ISZERO DUP1 ISZERO PUSH2 0x685 JUMPI RETURNDATASIZE PUSH1 0x0 DUP1 RETURNDATACOPY RETURNDATASIZE PUSH1 0x0 REVERT JUMPDEST POP POP POP POP PUSH1 0x40 MLOAD RETURNDATASIZE PUSH1 0x1F NOT PUSH1 0x1F DUP3 ADD AND DUP3 ADD DUP1 PUSH1 0x40 MSTORE POP DUP2 ADD SWAP1 PUSH2 0x6A9 SWAP2 SWAP1 PUSH2 0x18F3 JUMP JUMPDEST SWAP4 POP DUP6 PUSH20 0xFFFFFFFFFFFFFFFFFFFFFFFFFFFFFFFFFFFFFFFF AND PUSH4 0x313CE567 PUSH1 0x40 MLOAD DUP2 PUSH4 0xFFFFFFFF AND PUSH1 0xE0 SHL DUP2 MSTORE PUSH1 0x4 ADD PUSH1 0x20 PUSH1 0x40 MLOAD DUP1 DUP4 SUB DUP2 DUP7 GAS STATICCALL ISZERO DUP1 ISZERO PUSH2 0x6F6 JUMPI RETURNDATASIZE PUSH1 0x0 DUP1 RETURNDATACOPY RETURNDATASIZE PUSH1 0x0 REVERT JUMPDEST POP POP POP POP PUSH1 0x40 MLOAD RETURNDATASIZE PUSH1 0x1F NOT PUSH1 0x1F DUP3 ADD AND DUP3 ADD DUP1 PUSH1 0x40 MSTORE POP DUP2 ADD SWAP1 PUSH2 0x71A SWAP2 SWAP1 PUSH2 0x18F3 JUMP JUMPDEST SWAP3 POP PUSH2 0x726 DUP8 DUP8 PUSH2 0xCB7 JUMP JUMPDEST ISZERO PUSH2 0x750 JUMPI PUSH1 0x40 MLOAD DUP1 PUSH1 0x40 ADD PUSH1 0x40 MSTORE DUP1 PUSH1 0x0 DUP2 MSTORE PUSH1 0x20 ADD PUSH1 0x12 PUSH1 0xFF AND DUP2 MSTORE POP SWAP5 POP POP POP POP POP PUSH2 0xAC9 JUMP JUMPDEST PUSH2 0x75A DUP8 DUP8 PUSH2 0xACF JUMP JUMPDEST ISZERO PUSH2 0x916 JUMPI PUSH1 0x2 PUSH1 0x0 SWAP1 SLOAD SWAP1 PUSH2 0x100 EXP SWAP1 DIV PUSH20 0xFFFFFFFFFFFFFFFFFFFFFFFFFFFFFFFFFFFFFFFF AND PUSH20 0xFFFFFFFFFFFFFFFFFFFFFFFFFFFFFFFFFFFFFFFF AND PUSH4 0xAD615DEC DUP6 PUSH1 0xA PUSH2 0x7AA SWAP2 SWAP1 PUSH2 0x1A53 JUMP JUMPDEST PUSH2 0x7B4 DUP11 DUP11 PUSH2 0xB7F JUMP JUMPDEST PUSH1 0x0 DUP2 MLOAD DUP2 LT PUSH2 0x7C7 JUMPI PUSH2 0x7C6 PUSH2 0x1791 JUMP JUMPDEST JUMPDEST PUSH1 0x20 MUL PUSH1 0x20 ADD ADD MLOAD PUSH2 0x7D9 DUP12 DUP12 PUSH2 0xB7F JUMP JUMPDEST PUSH1 0x1 DUP2 MLOAD DUP2 LT PUSH2 0x7EC JUMPI PUSH2 0x7EB PUSH2 0x1791 JUMP JUMPDEST JUMPDEST PUSH1 0x20 MUL PUSH1 0x20 ADD ADD MLOAD PUSH1 0x40 MLOAD DUP5 PUSH4 0xFFFFFFFF AND PUSH1 0xE0 SHL DUP2 MSTORE PUSH1 0x4 ADD PUSH2 0x812 SWAP4 SWAP3 SWAP2 SWAP1 PUSH2 0x1AAD JUMP JUMPDEST PUSH1 0x20 PUSH1 0x40 MLOAD DUP1 DUP4 SUB DUP2 DUP7 GAS STATICCALL ISZERO DUP1 ISZERO PUSH2 0x82F JUMPI RETURNDATASIZE PUSH1 0x0 DUP1 RETURNDATACOPY RETURNDATASIZE PUSH1 0x0 REVERT JUMPDEST POP POP POP POP PUSH1 0x40 MLOAD RETURNDATASIZE PUSH1 0x1F NOT PUSH1 0x1F DUP3 ADD AND DUP3 ADD DUP1 PUSH1 0x40 MSTORE POP DUP2 ADD SWAP1 PUSH2 0x853 SWAP2 SWAP1 PUSH2 0x1AE4 JUMP JUMPDEST SWAP2 POP PUSH1 0x40 MLOAD DUP1 PUSH1 0x40 ADD PUSH1 0x40 MSTORE DUP1 DUP4 DUP2 MSTORE PUSH1 0x20 ADD DUP5 PUSH1 0xFF AND DUP2 MSTORE POP SWAP1 POP PUSH1 0x0 DUP1 SLOAD SWAP1 PUSH2 0x100 EXP SWAP1 DIV PUSH20 0xFFFFFFFFFFFFFFFFFFFFFFFFFFFFFFFFFFFFFFFF AND PUSH20 0xFFFFFFFFFFFFFFFFFFFFFFFFFFFFFFFFFFFFFFFF AND PUSH4 0x3E60D8E0 DUP3 PUSH1 0x40 MLOAD DUP3 PUSH4 0xFFFFFFFF AND PUSH1 0xE0 SHL DUP2 MSTORE PUSH1 0x4 ADD PUSH2 0x8C8 SWAP2 SWAP1 PUSH2 0x14D7 JUMP JUMPDEST PUSH1 0x40 DUP1 MLOAD DUP1 DUP4 SUB DUP2 DUP7 GAS STATICCALL ISZERO DUP1 ISZERO PUSH2 0x8E4 JUMPI RETURNDATASIZE PUSH1 0x0 DUP1 RETURNDATACOPY RETURNDATASIZE PUSH1 0x0 REVERT JUMPDEST POP POP POP POP PUSH1 0x40 MLOAD RETURNDATASIZE PUSH1 0x1F NOT PUSH1 0x1F DUP3 ADD AND DUP3 ADD DUP1 PUSH1 0x40 MSTORE POP DUP2 ADD SWAP1 PUSH2 0x908 SWAP2 SWAP1 PUSH2 0x189D JUMP JUMPDEST SWAP1 POP DUP1 SWAP5 POP POP POP POP POP PUSH2 0xAC9 JUMP JUMPDEST PUSH1 0x2 PUSH1 0x0 SWAP1 SLOAD SWAP1 PUSH2 0x100 EXP SWAP1 DIV PUSH20 0xFFFFFFFFFFFFFFFFFFFFFFFFFFFFFFFFFFFFFFFF AND PUSH20 0xFFFFFFFFFFFFFFFFFFFFFFFFFFFFFFFFFFFFFFFF AND PUSH4 0xAD615DEC DUP5 PUSH1 0xA PUSH2 0x961 SWAP2 SWAP1 PUSH2 0x1A53 JUMP JUMPDEST PUSH2 0x96B DUP11 DUP11 PUSH2 0xB7F JUMP JUMPDEST PUSH1 0x1 DUP2 MLOAD DUP2 LT PUSH2 0x97E JUMPI PUSH2 0x97D PUSH2 0x1791 JUMP JUMPDEST JUMPDEST PUSH1 0x20 MUL PUSH1 0x20 ADD ADD MLOAD PUSH2 0x990 DUP12 DUP12 PUSH2 0xB7F JUMP JUMPDEST PUSH1 0x0 DUP2 MLOAD DUP2 LT PUSH2 0x9A3 JUMPI PUSH2 0x9A2 PUSH2 0x1791 JUMP JUMPDEST JUMPDEST PUSH1 0x20 MUL PUSH1 0x20 ADD ADD MLOAD PUSH1 0x40 MLOAD DUP5 PUSH4 0xFFFFFFFF AND PUSH1 0xE0 SHL DUP2 MSTORE PUSH1 0x4 ADD PUSH2 0x9C9 SWAP4 SWAP3 SWAP2 SWAP1 PUSH2 0x1AAD JUMP JUMPDEST PUSH1 0x20 PUSH1 0x40 MLOAD DUP1 DUP4 SUB DUP2 DUP7 GAS STATICCALL ISZERO DUP1 ISZERO PUSH2 0x9E6 JUMPI RETURNDATASIZE PUSH1 0x0 DUP1 RETURNDATACOPY RETURNDATASIZE PUSH1 0x0 REVERT JUMPDEST POP POP POP POP PUSH1 0x40 MLOAD RETURNDATASIZE PUSH1 0x1F NOT PUSH1 0x1F DUP3 ADD AND DUP3 ADD DUP1 PUSH1 0x40 MSTORE POP DUP2 ADD SWAP1 PUSH2 0xA0A SWAP2 SWAP1 PUSH2 0x1AE4 JUMP JUMPDEST SWAP2 POP PUSH1 0x40 MLOAD DUP1 PUSH1 0x40 ADD PUSH1 0x40 MSTORE DUP1 DUP4 DUP2 MSTORE PUSH1 0x20 ADD DUP5 PUSH1 0xFF AND DUP2 MSTORE POP SWAP1 POP PUSH1 0x0 DUP1 SLOAD SWAP1 PUSH2 0x100 EXP SWAP1 DIV PUSH20 0xFFFFFFFFFFFFFFFFFFFFFFFFFFFFFFFFFFFFFFFF AND PUSH20 0xFFFFFFFFFFFFFFFFFFFFFFFFFFFFFFFFFFFFFFFF AND PUSH4 0x3E60D8E0 DUP3 PUSH1 0x40 MLOAD DUP3 PUSH4 0xFFFFFFFF AND PUSH1 0xE0 SHL DUP2 MSTORE PUSH1 0x4 ADD PUSH2 0xA7F SWAP2 SWAP1 PUSH2 0x14D7 JUMP JUMPDEST PUSH1 0x40 DUP1 MLOAD DUP1 DUP4 SUB DUP2 DUP7 GAS STATICCALL ISZERO DUP1 ISZERO PUSH2 0xA9B JUMPI RETURNDATASIZE PUSH1 0x0 DUP1 RETURNDATACOPY RETURNDATASIZE PUSH1 0x0 REVERT JUMPDEST POP POP POP POP PUSH1 0x40 MLOAD RETURNDATASIZE PUSH1 0x1F NOT PUSH1 0x1F DUP3 ADD AND DUP3 ADD DUP1 PUSH1 0x40 MSTORE POP DUP2 ADD SWAP1 PUSH2 0xABF SWAP2 SWAP1 PUSH2 0x189D JUMP JUMPDEST SWAP1 POP DUP1 SWAP5 POP POP POP POP POP JUMPDEST SWAP3 SWAP2 POP POP JUMP JUMPDEST PUSH1 0x0 PUSH2 0xADB DUP4 DUP4 PUSH2 0xCF9 JUMP JUMPDEST PUSH20 0xFFFFFFFFFFFFFFFFFFFFFFFFFFFFFFFFFFFFFFFF AND PUSH4 0xDFE1681 PUSH1 0x40 MLOAD DUP2 PUSH4 0xFFFFFFFF AND PUSH1 0xE0 SHL DUP2 MSTORE PUSH1 0x4 ADD PUSH1 0x20 PUSH1 0x40 MLOAD DUP1 DUP4 SUB DUP2 DUP7 GAS STATICCALL ISZERO DUP1 ISZERO PUSH2 0xB25 JUMPI RETURNDATASIZE PUSH1 0x0 DUP1 RETURNDATACOPY RETURNDATASIZE PUSH1 0x0 REVERT JUMPDEST POP POP POP POP PUSH1 0x40 MLOAD RETURNDATASIZE PUSH1 0x1F NOT PUSH1 0x1F DUP3 ADD AND DUP3 ADD DUP1 PUSH1 0x40 MSTORE POP DUP2 ADD SWAP1 PUSH2 0xB49 SWAP2 SWAP1 PUSH2 0x1B26 JUMP JUMPDEST PUSH20 0xFFFFFFFFFFFFFFFFFFFFFFFFFFFFFFFFFFFFFFFF AND DUP4 PUSH20 0xFFFFFFFFFFFFFFFFFFFFFFFFFFFFFFFFFFFFFFFF AND EQ SWAP1 POP SWAP3 SWAP2 POP POP JUMP JUMPDEST PUSH1 0x60 DUP1 PUSH1 0x2 PUSH8 0xFFFFFFFFFFFFFFFF DUP2 GT ISZERO PUSH2 0xB9D JUMPI PUSH2 0xB9C PUSH2 0x11C9 JUMP JUMPDEST JUMPDEST PUSH1 0x40 MLOAD SWAP1 DUP1 DUP3 MSTORE DUP1 PUSH1 0x20 MUL PUSH1 0x20 ADD DUP3 ADD PUSH1 0x40 MSTORE DUP1 ISZERO PUSH2 0xBCB JUMPI DUP2 PUSH1 0x20 ADD PUSH1 0x20 DUP3 MUL DUP1 CALLDATASIZE DUP4 CALLDATACOPY DUP1 DUP3 ADD SWAP2 POP POP SWAP1 POP JUMPDEST POP SWAP1 POP PUSH2 0xBD8 DUP5 DUP5 PUSH2 0xCF9 JUMP JUMPDEST PUSH20 0xFFFFFFFFFFFFFFFFFFFFFFFFFFFFFFFFFFFFFFFF AND PUSH4 0x902F1AC PUSH1 0x40 MLOAD DUP2 PUSH4 0xFFFFFFFF AND PUSH1 0xE0 SHL DUP2 MSTORE PUSH1 0x4 ADD PUSH1 0x60 PUSH1 0x40 MLOAD DUP1 DUP4 SUB DUP2 DUP7 GAS STATICCALL ISZERO DUP1 ISZERO PUSH2 0xC22 JUMPI RETURNDATASIZE PUSH1 0x0 DUP1 RETURNDATACOPY RETURNDATASIZE PUSH1 0x0 REVERT JUMPDEST POP POP POP POP PUSH1 0x40 MLOAD RETURNDATASIZE PUSH1 0x1F NOT PUSH1 0x1F DUP3 ADD AND DUP3 ADD DUP1 PUSH1 0x40 MSTORE POP DUP2 ADD SWAP1 PUSH2 0xC46 SWAP2 SWAP1 PUSH2 0x1BD5 JUMP JUMPDEST DUP3 PUSH14 0xFFFFFFFFFFFFFFFFFFFFFFFFFFFF AND SWAP3 POP DUP2 PUSH14 0xFFFFFFFFFFFFFFFFFFFFFFFFFFFF AND SWAP2 POP POP DUP3 PUSH1 0x0 DUP2 MLOAD DUP2 LT PUSH2 0xC81 JUMPI PUSH2 0xC80 PUSH2 0x1791 JUMP JUMPDEST JUMPDEST PUSH1 0x20 MUL PUSH1 0x20 ADD ADD DUP4 PUSH1 0x1 DUP2 MLOAD DUP2 LT PUSH2 0xC9C JUMPI PUSH2 0xC9B PUSH2 0x1791 JUMP JUMPDEST JUMPDEST PUSH1 0x20 MUL PUSH1 0x20 ADD ADD DUP3 DUP2 MSTORE POP DUP3 DUP2 MSTORE POP POP POP DUP1 SWAP2 POP POP SWAP3 SWAP2 POP POP JUMP JUMPDEST PUSH1 0x0 DUP1 PUSH20 0xFFFFFFFFFFFFFFFFFFFFFFFFFFFFFFFFFFFFFFFF AND PUSH2 0xCDA DUP5 DUP5 PUSH2 0xD37 JUMP JUMPDEST PUSH20 0xFFFFFFFFFFFFFFFFFFFFFFFFFFFFFFFFFFFFFFFF AND EQ SWAP1 POP SWAP3 SWAP2 POP POP JUMP JUMPDEST PUSH1 0x0 PUSH2 0xD05 DUP4 DUP4 PUSH2 0xD37 JUMP JUMPDEST SWAP1 POP SWAP3 SWAP2 POP POP JUMP JUMPDEST PUSH1 0x0 PUSH1 0x1 PUSH1 0x0 SWAP1 SLOAD SWAP1 PUSH2 0x100 EXP SWAP1 DIV PUSH20 0xFFFFFFFFFFFFFFFFFFFFFFFFFFFFFFFFFFFFFFFF AND SWAP1 POP SWAP1 JUMP JUMPDEST PUSH1 0x0 PUSH1 0x1 PUSH1 0x0 SWAP1 SLOAD SWAP1 PUSH2 0x100 EXP SWAP1 DIV PUSH20 0xFFFFFFFFFFFFFFFFFFFFFFFFFFFFFFFFFFFFFFFF AND PUSH20 0xFFFFFFFFFFFFFFFFFFFFFFFFFFFFFFFFFFFFFFFF AND PUSH4 0xE6A43905 DUP5 DUP5 PUSH1 0x40 MLOAD DUP4 PUSH4 0xFFFFFFFF AND PUSH1 0xE0 SHL DUP2 MSTORE PUSH1 0x4 ADD PUSH2 0xD96 SWAP3 SWAP2 SWAP1 PUSH2 0x1C28 JUMP JUMPDEST PUSH1 0x20 PUSH1 0x40 MLOAD DUP1 DUP4 SUB DUP2 DUP7 GAS STATICCALL ISZERO DUP1 ISZERO PUSH2 0xDB3 JUMPI RETURNDATASIZE PUSH1 0x0 DUP1 RETURNDATACOPY RETURNDATASIZE PUSH1 0x0 REVERT JUMPDEST POP POP POP POP PUSH1 0x40 MLOAD RETURNDATASIZE PUSH1 0x1F NOT PUSH1 0x1F DUP3 ADD AND DUP3 ADD DUP1 PUSH1 0x40 MSTORE POP DUP2 ADD SWAP1 PUSH2 0xDD7 SWAP2 SWAP1 PUSH2 0x1B26 JUMP JUMPDEST SWAP1 POP SWAP3 SWAP2 POP POP JUMP JUMPDEST PUSH2 0xDE7 PUSH2 0x1182 JUMP JUMPDEST PUSH1 0x0 DUP1 PUSH1 0x0 DUP1 PUSH1 0x60 PUSH1 0x0 PUSH2 0xDF9 PUSH2 0x1182 JUMP JUMPDEST DUP10 PUSH1 0x0 DUP2 MLOAD DUP2 LT PUSH2 0xE0D JUMPI PUSH2 0xE0C PUSH2 0x1791 JUMP JUMPDEST JUMPDEST PUSH1 0x20 MUL PUSH1 0x20 ADD ADD MLOAD SWAP7 POP DUP10 PUSH1 0x1 DUP12 MLOAD PUSH2 0xE26 SWAP2 SWAP1 PUSH2 0x17EF JUMP JUMPDEST DUP2 MLOAD DUP2 LT PUSH2 0xE37 JUMPI PUSH2 0xE36 PUSH2 0x1791 JUMP JUMPDEST JUMPDEST PUSH1 0x20 MUL PUSH1 0x20 ADD ADD MLOAD SWAP6 POP DUP7 PUSH20 0xFFFFFFFFFFFFFFFFFFFFFFFFFFFFFFFFFFFFFFFF AND PUSH4 0x313CE567 PUSH1 0x40 MLOAD DUP2 PUSH4 0xFFFFFFFF AND PUSH1 0xE0 SHL DUP2 MSTORE PUSH1 0x4 ADD PUSH1 0x20 PUSH1 0x40 MLOAD DUP1 DUP4 SUB DUP2 DUP7 GAS STATICCALL ISZERO DUP1 ISZERO PUSH2 0xE8C JUMPI RETURNDATASIZE PUSH1 0x0 DUP1 RETURNDATACOPY RETURNDATASIZE PUSH1 0x0 REVERT JUMPDEST POP POP POP POP PUSH1 0x40 MLOAD RETURNDATASIZE PUSH1 0x1F NOT PUSH1 0x1F DUP3 ADD AND DUP3 ADD DUP1 PUSH1 0x40 MSTORE POP DUP2 ADD SWAP1 PUSH2 0xEB0 SWAP2 SWAP1 PUSH2 0x18F3 JUMP JUMPDEST SWAP5 POP DUP6 PUSH20 0xFFFFFFFFFFFFFFFFFFFFFFFFFFFFFFFFFFFFFFFF AND PUSH4 0x313CE567 PUSH1 0x40 MLOAD DUP2 PUSH4 0xFFFFFFFF AND PUSH1 0xE0 SHL DUP2 MSTORE PUSH1 0x4 ADD PUSH1 0x20 PUSH1 0x40 MLOAD DUP1 DUP4 SUB DUP2 DUP7 GAS STATICCALL ISZERO DUP1 ISZERO PUSH2 0xEFD JUMPI RETURNDATASIZE PUSH1 0x0 DUP1 RETURNDATACOPY RETURNDATASIZE PUSH1 0x0 REVERT JUMPDEST POP POP POP POP PUSH1 0x40 MLOAD RETURNDATASIZE PUSH1 0x1F NOT PUSH1 0x1F DUP3 ADD AND DUP3 ADD DUP1 PUSH1 0x40 MSTORE POP DUP2 ADD SWAP1 PUSH2 0xF21 SWAP2 SWAP1 PUSH2 0x18F3 JUMP JUMPDEST SWAP4 POP PUSH1 0x0 DUP1 SLOAD SWAP1 PUSH2 0x100 EXP SWAP1 DIV PUSH20 0xFFFFFFFFFFFFFFFFFFFFFFFFFFFFFFFFFFFFFFFF AND PUSH20 0xFFFFFFFFFFFFFFFFFFFFFFFFFFFFFFFFFFFFFFFF AND PUSH4 0x7D02EBF4 DUP11 DUP8 PUSH1 0x40 MLOAD DUP4 PUSH4 0xFFFFFFFF AND PUSH1 0xE0 SHL DUP2 MSTORE PUSH1 0x4 ADD PUSH2 0xF7E SWAP3 SWAP2 SWAP1 PUSH2 0x1C60 JUMP JUMPDEST PUSH1 0x40 DUP1 MLOAD DUP1 DUP4 SUB DUP2 DUP7 GAS STATICCALL ISZERO DUP1 ISZERO PUSH2 0xF9A JUMPI RETURNDATASIZE PUSH1 0x0 DUP1 RETURNDATACOPY RETURNDATASIZE PUSH1 0x0 REVERT JUMPDEST POP POP POP POP PUSH1 0x40 MLOAD RETURNDATASIZE PUSH1 0x1F NOT PUSH1 0x1F DUP3 ADD AND DUP3 ADD DUP1 PUSH1 0x40 MSTORE POP DUP2 ADD SWAP1 PUSH2 0xFBE SWAP2 SWAP1 PUSH2 0x189D JUMP JUMPDEST SWAP9 POP PUSH1 0x2 PUSH1 0x0 SWAP1 SLOAD SWAP1 PUSH2 0x100 EXP SWAP1 DIV PUSH20 0xFFFFFFFFFFFFFFFFFFFFFFFFFFFFFFFFFFFFFFFF AND PUSH20 0xFFFFFFFFFFFFFFFFFFFFFFFFFFFFFFFFFFFFFFFF AND PUSH4 0xD06CA61F DUP11 PUSH1 0x0 ADD MLOAD DUP13 PUSH1 0x40 MLOAD DUP4 PUSH4 0xFFFFFFFF AND PUSH1 0xE0 SHL DUP2 MSTORE PUSH1 0x4 ADD PUSH2 0x1021 SWAP3 SWAP2 SWAP1 PUSH2 0x1D47 JUMP JUMPDEST PUSH1 0x0 PUSH1 0x40 MLOAD DUP1 DUP4 SUB DUP2 DUP7 GAS STATICCALL ISZERO DUP1 ISZERO PUSH2 0x103E JUMPI RETURNDATASIZE PUSH1 0x0 DUP1 RETURNDATACOPY RETURNDATASIZE PUSH1 0x0 REVERT JUMPDEST POP POP POP POP PUSH1 0x40 MLOAD RETURNDATASIZE PUSH1 0x0 DUP3 RETURNDATACOPY RETURNDATASIZE PUSH1 0x1F NOT PUSH1 0x1F DUP3 ADD AND DUP3 ADD DUP1 PUSH1 0x40 MSTORE POP DUP2 ADD SWAP1 PUSH2 0x1067 SWAP2 SWAP1 PUSH2 0x1E3A JUMP JUMPDEST SWAP3 POP DUP3 PUSH1 0x1 DUP5 MLOAD PUSH2 0x1078 SWAP2 SWAP1 PUSH2 0x17EF JUMP JUMPDEST DUP2 MLOAD DUP2 LT PUSH2 0x1089 JUMPI PUSH2 0x1088 PUSH2 0x1791 JUMP JUMPDEST JUMPDEST PUSH1 0x20 MUL PUSH1 0x20 ADD ADD MLOAD SWAP2 POP PUSH1 0x40 MLOAD DUP1 PUSH1 0x40 ADD PUSH1 0x40 MSTORE DUP1 DUP4 DUP2 MSTORE PUSH1 0x20 ADD DUP6 PUSH1 0xFF AND DUP2 MSTORE POP SWAP1 POP PUSH1 0x0 DUP1 SLOAD SWAP1 PUSH2 0x100 EXP SWAP1 DIV PUSH20 0xFFFFFFFFFFFFFFFFFFFFFFFFFFFFFFFFFFFFFFFF AND PUSH20 0xFFFFFFFFFFFFFFFFFFFFFFFFFFFFFFFFFFFFFFFF AND PUSH4 0x3E60D8E0 DUP3 PUSH1 0x40 MLOAD DUP3 PUSH4 0xFFFFFFFF AND PUSH1 0xE0 SHL DUP2 MSTORE PUSH1 0x4 ADD PUSH2 0x1106 SWAP2 SWAP1 PUSH2 0x14D7 JUMP JUMPDEST PUSH1 0x40 DUP1 MLOAD DUP1 DUP4 SUB DUP2 DUP7 GAS STATICCALL ISZERO DUP1 ISZERO PUSH2 0x1122 JUMPI RETURNDATASIZE PUSH1 0x0 DUP1 RETURNDATACOPY RETURNDATASIZE PUSH1 0x0 REVERT JUMPDEST POP POP POP POP PUSH1 0x40 MLOAD RETURNDATASIZE PUSH1 0x1F NOT PUSH1 0x1F DUP3 ADD AND DUP3 ADD DUP1 PUSH1 0x40 MSTORE POP DUP2 ADD SWAP1 PUSH2 0x1146 SWAP2 SWAP1 PUSH2 0x189D JUMP JUMPDEST SWAP1 POP DUP1 SWAP8 POP POP POP POP POP POP POP POP SWAP3 SWAP2 POP POP JUMP JUMPDEST PUSH1 0x0 PUSH1 0x2 PUSH1 0x0 SWAP1 SLOAD SWAP1 PUSH2 0x100 EXP SWAP1 DIV PUSH20 0xFFFFFFFFFFFFFFFFFFFFFFFFFFFFFFFFFFFFFFFF AND SWAP1 POP SWAP1 JUMP JUMPDEST PUSH1 0x40 MLOAD DUP1 PUSH1 0x40 ADD PUSH1 0x40 MSTORE DUP1 PUSH1 0x0 DUP2 MSTORE PUSH1 0x20 ADD PUSH1 0x0 PUSH1 0xFF AND DUP2 MSTORE POP SWAP1 JUMP JUMPDEST PUSH1 0x0 PUSH1 0x40 MLOAD SWAP1 POP SWAP1 JUMP JUMPDEST PUSH1 0x0 DUP1 REVERT JUMPDEST PUSH1 0x0 DUP1 REVERT JUMPDEST PUSH1 0x0 DUP1 REVERT JUMPDEST PUSH1 0x0 PUSH1 0x1F NOT PUSH1 0x1F DUP4 ADD AND SWAP1 POP SWAP2 SWAP1 POP JUMP JUMPDEST PUSH32 0x4E487B7100000000000000000000000000000000000000000000000000000000 PUSH1 0x0 MSTORE PUSH1 0x41 PUSH1 0x4 MSTORE PUSH1 0x24 PUSH1 0x0 REVERT JUMPDEST PUSH2 0x1201 DUP3 PUSH2 0x11B8 JUMP JUMPDEST DUP2 ADD DUP2 DUP2 LT PUSH8 0xFFFFFFFFFFFFFFFF DUP3 GT OR ISZERO PUSH2 0x1220 JUMPI PUSH2 0x121F PUSH2 0x11C9 JUMP JUMPDEST JUMPDEST DUP1 PUSH1 0x40 MSTORE POP POP POP JUMP JUMPDEST PUSH1 0x0 PUSH2 0x1233 PUSH2 0x119F JUMP JUMPDEST SWAP1 POP PUSH2 0x123F DUP3 DUP3 PUSH2 0x11F8 JUMP JUMPDEST SWAP2 SWAP1 POP JUMP JUMPDEST PUSH1 0x0 PUSH8 0xFFFFFFFFFFFFFFFF DUP3 GT ISZERO PUSH2 0x125F JUMPI PUSH2 0x125E PUSH2 0x11C9 JUMP JUMPDEST JUMPDEST PUSH1 0x20 DUP3 MUL SWAP1 POP PUSH1 0x20 DUP2 ADD SWAP1 POP SWAP2 SWAP1 POP JUMP JUMPDEST PUSH1 0x0 DUP1 REVERT JUMPDEST PUSH1 0x0 PUSH20 0xFFFFFFFFFFFFFFFFFFFFFFFFFFFFFFFFFFFFFFFF DUP3 AND SWAP1 POP SWAP2 SWAP1 POP JUMP JUMPDEST PUSH1 0x0 PUSH2 0x12A0 DUP3 PUSH2 0x1275 JUMP JUMPDEST SWAP1 POP SWAP2 SWAP1 POP JUMP JUMPDEST PUSH2 0x12B0 DUP2 PUSH2 0x1295 JUMP JUMPDEST DUP2 EQ PUSH2 0x12BB JUMPI PUSH1 0x0 DUP1 REVERT JUMPDEST POP JUMP JUMPDEST PUSH1 0x0 DUP2 CALLDATALOAD SWAP1 POP PUSH2 0x12CD DUP2 PUSH2 0x12A7 JUMP JUMPDEST SWAP3 SWAP2 POP POP JUMP JUMPDEST PUSH1 0x0 PUSH2 0x12E6 PUSH2 0x12E1 DUP5 PUSH2 0x1244 JUMP JUMPDEST PUSH2 0x1229 JUMP JUMPDEST SWAP1 POP DUP1 DUP4 DUP3 MSTORE PUSH1 0x20 DUP3 ADD SWAP1 POP PUSH1 0x20 DUP5 MUL DUP4 ADD DUP6 DUP2 GT ISZERO PUSH2 0x1309 JUMPI PUSH2 0x1308 PUSH2 0x1270 JUMP JUMPDEST JUMPDEST DUP4 JUMPDEST DUP2 DUP2 LT ISZERO PUSH2 0x1332 JUMPI DUP1 PUSH2 0x131E DUP9 DUP3 PUSH2 0x12BE JUMP JUMPDEST DUP5 MSTORE PUSH1 0x20 DUP5 ADD SWAP4 POP POP PUSH1 0x20 DUP2 ADD SWAP1 POP PUSH2 0x130B JUMP JUMPDEST POP POP POP SWAP4 SWAP3 POP POP POP JUMP JUMPDEST PUSH1 0x0 DUP3 PUSH1 0x1F DUP4 ADD SLT PUSH2 0x1351 JUMPI PUSH2 0x1350 PUSH2 0x11B3 JUMP JUMPDEST JUMPDEST DUP2 CALLDATALOAD PUSH2 0x1361 DUP5 DUP3 PUSH1 0x20 DUP7 ADD PUSH2 0x12D3 JUMP JUMPDEST SWAP2 POP POP SWAP3 SWAP2 POP POP JUMP JUMPDEST PUSH1 0x0 DUP1 REVERT JUMPDEST PUSH1 0x0 DUP2 SWAP1 POP SWAP2 SWAP1 POP JUMP JUMPDEST PUSH2 0x1382 DUP2 PUSH2 0x136F JUMP JUMPDEST DUP2 EQ PUSH2 0x138D JUMPI PUSH1 0x0 DUP1 REVERT JUMPDEST POP JUMP JUMPDEST PUSH1 0x0 DUP2 CALLDATALOAD SWAP1 POP PUSH2 0x139F DUP2 PUSH2 0x1379 JUMP JUMPDEST SWAP3 SWAP2 POP POP JUMP JUMPDEST PUSH1 0x0 PUSH1 0xFF DUP3 AND SWAP1 POP SWAP2 SWAP1 POP JUMP JUMPDEST PUSH2 0x13BB DUP2 PUSH2 0x13A5 JUMP JUMPDEST DUP2 EQ PUSH2 0x13C6 JUMPI PUSH1 0x0 DUP1 REVERT JUMPDEST POP JUMP JUMPDEST PUSH1 0x0 DUP2 CALLDATALOAD SWAP1 POP PUSH2 0x13D8 DUP2 PUSH2 0x13B2 JUMP JUMPDEST SWAP3 SWAP2 POP POP JUMP JUMPDEST PUSH1 0x0 PUSH1 0x40 DUP3 DUP5 SUB SLT ISZERO PUSH2 0x13F4 JUMPI PUSH2 0x13F3 PUSH2 0x136A JUMP JUMPDEST JUMPDEST PUSH2 0x13FE PUSH1 0x40 PUSH2 0x1229 JUMP JUMPDEST SWAP1 POP PUSH1 0x0 PUSH2 0x140E DUP5 DUP3 DUP6 ADD PUSH2 0x1390 JUMP JUMPDEST PUSH1 0x0 DUP4 ADD MSTORE POP PUSH1 0x20 PUSH2 0x1422 DUP5 DUP3 DUP6 ADD PUSH2 0x13C9 JUMP JUMPDEST PUSH1 0x20 DUP4 ADD MSTORE POP SWAP3 SWAP2 POP POP JUMP JUMPDEST PUSH1 0x0 DUP1 PUSH1 0x60 DUP4 DUP6 SUB SLT ISZERO PUSH2 0x1445 JUMPI PUSH2 0x1444 PUSH2 0x11A9 JUMP JUMPDEST JUMPDEST PUSH1 0x0 DUP4 ADD CALLDATALOAD PUSH8 0xFFFFFFFFFFFFFFFF DUP2 GT ISZERO PUSH2 0x1463 JUMPI PUSH2 0x1462 PUSH2 0x11AE JUMP JUMPDEST JUMPDEST PUSH2 0x146F DUP6 DUP3 DUP7 ADD PUSH2 0x133C JUMP JUMPDEST SWAP3 POP POP PUSH1 0x20 PUSH2 0x1480 DUP6 DUP3 DUP7 ADD PUSH2 0x13DE JUMP JUMPDEST SWAP2 POP POP SWAP3 POP SWAP3 SWAP1 POP JUMP JUMPDEST PUSH2 0x1493 DUP2 PUSH2 0x136F JUMP JUMPDEST DUP3 MSTORE POP POP JUMP JUMPDEST PUSH2 0x14A2 DUP2 PUSH2 0x13A5 JUMP JUMPDEST DUP3 MSTORE POP POP JUMP JUMPDEST PUSH1 0x40 DUP3 ADD PUSH1 0x0 DUP3 ADD MLOAD PUSH2 0x14BE PUSH1 0x0 DUP6 ADD DUP3 PUSH2 0x148A JUMP JUMPDEST POP PUSH1 0x20 DUP3 ADD MLOAD PUSH2 0x14D1 PUSH1 0x20 DUP6 ADD DUP3 PUSH2 0x1499 JUMP JUMPDEST POP POP POP POP JUMP JUMPDEST PUSH1 0x0 PUSH1 0x40 DUP3 ADD SWAP1 POP PUSH2 0x14EC PUSH1 0x0 DUP4 ADD DUP5 PUSH2 0x14A8 JUMP JUMPDEST SWAP3 SWAP2 POP POP JUMP JUMPDEST PUSH1 0x0 DUP2 SWAP1 POP SWAP2 SWAP1 POP JUMP JUMPDEST PUSH1 0x0 PUSH2 0x1517 PUSH2 0x1512 PUSH2 0x150D DUP5 PUSH2 0x1275 JUMP JUMPDEST PUSH2 0x14F2 JUMP JUMPDEST PUSH2 0x1275 JUMP JUMPDEST SWAP1 POP SWAP2 SWAP1 POP JUMP JUMPDEST PUSH1 0x0 PUSH2 0x1529 DUP3 PUSH2 0x14FC JUMP JUMPDEST SWAP1 POP SWAP2 SWAP1 POP JUMP JUMPDEST PUSH1 0x0 PUSH2 0x153B DUP3 PUSH2 0x151E JUMP JUMPDEST SWAP1 POP SWAP2 SWAP1 POP JUMP JUMPDEST PUSH2 0x154B DUP2 PUSH2 0x1530 JUMP JUMPDEST DUP3 MSTORE POP POP JUMP JUMPDEST PUSH1 0x0 PUSH1 0x20 DUP3 ADD SWAP1 POP PUSH2 0x1566 PUSH1 0x0 DUP4 ADD DUP5 PUSH2 0x1542 JUMP JUMPDEST SWAP3 SWAP2 POP POP JUMP JUMPDEST PUSH1 0x0 DUP1 PUSH1 0x40 DUP4 DUP6 SUB SLT ISZERO PUSH2 0x1583 JUMPI PUSH2 0x1582 PUSH2 0x11A9 JUMP JUMPDEST JUMPDEST PUSH1 0x0 PUSH2 0x1591 DUP6 DUP3 DUP7 ADD PUSH2 0x12BE JUMP JUMPDEST SWAP3 POP POP PUSH1 0x20 PUSH2 0x15A2 DUP6 DUP3 DUP7 ADD PUSH2 0x12BE JUMP JUMPDEST SWAP2 POP POP SWAP3 POP SWAP3 SWAP1 POP JUMP JUMPDEST PUSH1 0x0 DUP2 ISZERO ISZERO SWAP1 POP SWAP2 SWAP1 POP JUMP JUMPDEST PUSH2 0x15C1 DUP2 PUSH2 0x15AC JUMP JUMPDEST DUP3 MSTORE POP POP JUMP JUMPDEST PUSH1 0x0 PUSH1 0x20 DUP3 ADD SWAP1 POP PUSH2 0x15DC PUSH1 0x0 DUP4 ADD DUP5 PUSH2 0x15B8 JUMP JUMPDEST SWAP3 SWAP2 POP POP JUMP JUMPDEST PUSH1 0x0 DUP2 MLOAD SWAP1 POP SWAP2 SWAP1 POP JUMP JUMPDEST PUSH1 0x0 DUP3 DUP3 MSTORE PUSH1 0x20 DUP3 ADD SWAP1 POP SWAP3 SWAP2 POP POP JUMP JUMPDEST PUSH1 0x0 DUP2 SWAP1 POP PUSH1 0x20 DUP3 ADD SWAP1 POP SWAP2 SWAP1 POP JUMP JUMPDEST PUSH1 0x0 PUSH2 0x161A DUP4 DUP4 PUSH2 0x148A JUMP JUMPDEST PUSH1 0x20 DUP4 ADD SWAP1 POP SWAP3 SWAP2 POP POP JUMP JUMPDEST PUSH1 0x0 PUSH1 0x20 DUP3 ADD SWAP1 POP SWAP2 SWAP1 POP JUMP JUMPDEST PUSH1 0x0 PUSH2 0x163E DUP3 PUSH2 0x15E2 JUMP JUMPDEST PUSH2 0x1648 DUP2 DUP6 PUSH2 0x15ED JUMP JUMPDEST SWAP4 POP PUSH2 0x1653 DUP4 PUSH2 0x15FE JUMP JUMPDEST DUP1 PUSH1 0x0 JUMPDEST DUP4 DUP2 LT ISZERO PUSH2 0x1684 JUMPI DUP2 MLOAD PUSH2 0x166B DUP9 DUP3 PUSH2 0x160E JUMP JUMPDEST SWAP8 POP PUSH2 0x1676 DUP4 PUSH2 0x1626 JUMP JUMPDEST SWAP3 POP POP PUSH1 0x1 DUP2 ADD SWAP1 POP PUSH2 0x1657 JUMP JUMPDEST POP DUP6 SWAP4 POP POP POP POP SWAP3 SWAP2 POP POP JUMP JUMPDEST PUSH1 0x0 PUSH1 0x20 DUP3 ADD SWAP1 POP DUP2 DUP2 SUB PUSH1 0x0 DUP4 ADD MSTORE PUSH2 0x16AB DUP2 DUP5 PUSH2 0x1633 JUMP JUMPDEST SWAP1 POP SWAP3 SWAP2 POP POP JUMP JUMPDEST PUSH1 0x0 PUSH2 0x16BE DUP3 PUSH2 0x151E JUMP JUMPDEST SWAP1 POP SWAP2 SWAP1 POP JUMP JUMPDEST PUSH2 0x16CE DUP2 PUSH2 0x16B3 JUMP JUMPDEST DUP3 MSTORE POP POP JUMP JUMPDEST PUSH1 0x0 PUSH1 0x20 DUP3 ADD SWAP1 POP PUSH2 0x16E9 PUSH1 0x0 DUP4 ADD DUP5 PUSH2 0x16C5 JUMP JUMPDEST SWAP3 SWAP2 POP POP JUMP JUMPDEST PUSH1 0x0 PUSH2 0x16FA DUP3 PUSH2 0x151E JUMP JUMPDEST SWAP1 POP SWAP2 SWAP1 POP JUMP JUMPDEST PUSH2 0x170A DUP2 PUSH2 0x16EF JUMP JUMPDEST DUP3 MSTORE POP POP JUMP JUMPDEST PUSH1 0x0 PUSH1 0x20 DUP3 ADD SWAP1 POP PUSH2 0x1725 PUSH1 0x0 DUP4 ADD DUP5 PUSH2 0x1701 JUMP JUMPDEST SWAP3 SWAP2 POP POP JUMP JUMPDEST PUSH2 0x1734 DUP2 PUSH2 0x1295 JUMP JUMPDEST DUP3 MSTORE POP POP JUMP JUMPDEST PUSH1 0x0 PUSH1 0x20 DUP3 ADD SWAP1 POP PUSH2 0x174F PUSH1 0x0 DUP4 ADD DUP5 PUSH2 0x172B JUMP JUMPDEST SWAP3 SWAP2 POP POP JUMP JUMPDEST PUSH1 0x0 PUSH2 0x1760 DUP3 PUSH2 0x151E JUMP JUMPDEST SWAP1 POP SWAP2 SWAP1 POP JUMP JUMPDEST PUSH2 0x1770 DUP2 PUSH2 0x1755 JUMP JUMPDEST DUP3 MSTORE POP POP JUMP JUMPDEST PUSH1 0x0 PUSH1 0x20 DUP3 ADD SWAP1 POP PUSH2 0x178B PUSH1 0x0 DUP4 ADD DUP5 PUSH2 0x1767 JUMP JUMPDEST SWAP3 SWAP2 POP POP JUMP JUMPDEST PUSH32 0x4E487B7100000000000000000000000000000000000000000000000000000000 PUSH1 0x0 MSTORE PUSH1 0x32 PUSH1 0x4 MSTORE PUSH1 0x24 PUSH1 0x0 REVERT JUMPDEST PUSH32 0x4E487B7100000000000000000000000000000000000000000000000000000000 PUSH1 0x0 MSTORE PUSH1 0x11 PUSH1 0x4 MSTORE PUSH1 0x24 PUSH1 0x0 REVERT JUMPDEST PUSH1 0x0 PUSH2 0x17FA DUP3 PUSH2 0x136F JUMP JUMPDEST SWAP2 POP PUSH2 0x1805 DUP4 PUSH2 0x136F JUMP JUMPDEST SWAP3 POP DUP3 DUP3 SUB SWAP1 POP DUP2 DUP2 GT ISZERO PUSH2 0x181D JUMPI PUSH2 0x181C PUSH2 0x17C0 JUMP JUMPDEST JUMPDEST SWAP3 SWAP2 POP POP JUMP JUMPDEST PUSH1 0x0 DUP2 MLOAD SWAP1 POP PUSH2 0x1832 DUP2 PUSH2 0x1379 JUMP JUMPDEST SWAP3 SWAP2 POP POP JUMP JUMPDEST PUSH1 0x0 DUP2 MLOAD SWAP1 POP PUSH2 0x1847 DUP2 PUSH2 0x13B2 JUMP JUMPDEST SWAP3 SWAP2 POP POP JUMP JUMPDEST PUSH1 0x0 PUSH1 0x40 DUP3 DUP5 SUB SLT ISZERO PUSH2 0x1863 JUMPI PUSH2 0x1862 PUSH2 0x136A JUMP JUMPDEST JUMPDEST PUSH2 0x186D PUSH1 0x40 PUSH2 0x1229 JUMP JUMPDEST SWAP1 POP PUSH1 0x0 PUSH2 0x187D DUP5 DUP3 DUP6 ADD PUSH2 0x1823 JUMP JUMPDEST PUSH1 0x0 DUP4 ADD MSTORE POP PUSH1 0x20 PUSH2 0x1891 DUP5 DUP3 DUP6 ADD PUSH2 0x1838 JUMP JUMPDEST PUSH1 0x20 DUP4 ADD MSTORE POP SWAP3 SWAP2 POP POP JUMP JUMPDEST PUSH1 0x0 PUSH1 0x40 DUP3 DUP5 SUB SLT ISZERO PUSH2 0x18B3 JUMPI PUSH2 0x18B2 PUSH2 0x11A9 JUMP JUMPDEST JUMPDEST PUSH1 0x0 PUSH2 0x18C1 DUP5 DUP3 DUP6 ADD PUSH2 0x184D JUMP JUMPDEST SWAP2 POP POP SWAP3 SWAP2 POP POP JUMP JUMPDEST PUSH1 0x0 PUSH1 0x80 DUP3 ADD SWAP1 POP PUSH2 0x18DF PUSH1 0x0 DUP4 ADD DUP6 PUSH2 0x14A8 JUMP JUMPDEST PUSH2 0x18EC PUSH1 0x40 DUP4 ADD DUP5 PUSH2 0x14A8 JUMP JUMPDEST SWAP4 SWAP3 POP POP POP JUMP JUMPDEST PUSH1 0x0 PUSH1 0x20 DUP3 DUP5 SUB SLT ISZERO PUSH2 0x1909 JUMPI PUSH2 0x1908 PUSH2 0x11A9 JUMP JUMPDEST JUMPDEST PUSH1 0x0 PUSH2 0x1917 DUP5 DUP3 DUP6 ADD PUSH2 0x1838 JUMP JUMPDEST SWAP2 POP POP SWAP3 SWAP2 POP POP JUMP JUMPDEST PUSH1 0x0 DUP2 PUSH1 0x1 SHR SWAP1 POP SWAP2 SWAP1 POP JUMP JUMPDEST PUSH1 0x0 DUP1 DUP3 SWAP2 POP DUP4 SWAP1 POP JUMPDEST PUSH1 0x1 DUP6 GT ISZERO PUSH2 0x1977 JUMPI DUP1 DUP7 DIV DUP2 GT ISZERO PUSH2 0x1953 JUMPI PUSH2 0x1952 PUSH2 0x17C0 JUMP JUMPDEST JUMPDEST PUSH1 0x1 DUP6 AND ISZERO PUSH2 0x1962 JUMPI DUP1 DUP3 MUL SWAP2 POP JUMPDEST DUP1 DUP2 MUL SWAP1 POP PUSH2 0x1970 DUP6 PUSH2 0x1920 JUMP JUMPDEST SWAP5 POP PUSH2 0x1937 JUMP JUMPDEST SWAP5 POP SWAP5 SWAP3 POP POP POP JUMP JUMPDEST PUSH1 0x0 DUP3 PUSH2 0x1990 JUMPI PUSH1 0x1 SWAP1 POP PUSH2 0x1A4C JUMP JUMPDEST DUP2 PUSH2 0x199E JUMPI PUSH1 0x0 SWAP1 POP PUSH2 0x1A4C JUMP JUMPDEST DUP2 PUSH1 0x1 DUP2 EQ PUSH2 0x19B4 JUMPI PUSH1 0x2 DUP2 EQ PUSH2 0x19BE JUMPI PUSH2 0x19ED JUMP JUMPDEST PUSH1 0x1 SWAP2 POP POP PUSH2 0x1A4C JUMP JUMPDEST PUSH1 0xFF DUP5 GT ISZERO PUSH2 0x19D0 JUMPI PUSH2 0x19CF PUSH2 0x17C0 JUMP JUMPDEST JUMPDEST DUP4 PUSH1 0x2 EXP SWAP2 POP DUP5 DUP3 GT ISZERO PUSH2 0x19E7 JUMPI PUSH2 0x19E6 PUSH2 0x17C0 JUMP JUMPDEST JUMPDEST POP PUSH2 0x1A4C JUMP JUMPDEST POP PUSH1 0x20 DUP4 LT PUSH2 0x133 DUP4 LT AND PUSH1 0x4E DUP5 LT PUSH1 0xB DUP5 LT AND OR ISZERO PUSH2 0x1A22 JUMPI DUP3 DUP3 EXP SWAP1 POP DUP4 DUP2 GT ISZERO PUSH2 0x1A1D JUMPI PUSH2 0x1A1C PUSH2 0x17C0 JUMP JUMPDEST JUMPDEST PUSH2 0x1A4C JUMP JUMPDEST PUSH2 0x1A2F DUP5 DUP5 DUP5 PUSH1 0x1 PUSH2 0x192D JUMP JUMPDEST SWAP3 POP SWAP1 POP DUP2 DUP5 DIV DUP2 GT ISZERO PUSH2 0x1A46 JUMPI PUSH2 0x1A45 PUSH2 0x17C0 JUMP JUMPDEST JUMPDEST DUP2 DUP2 MUL SWAP1 POP JUMPDEST SWAP4 SWAP3 POP POP POP JUMP JUMPDEST PUSH1 0x0 PUSH2 0x1A5E DUP3 PUSH2 0x136F JUMP JUMPDEST SWAP2 POP PUSH2 0x1A69 DUP4 PUSH2 0x13A5 JUMP JUMPDEST SWAP3 POP PUSH2 0x1A96 PUSH32 0xFFFFFFFFFFFFFFFFFFFFFFFFFFFFFFFFFFFFFFFFFFFFFFFFFFFFFFFFFFFFFFFF DUP5 DUP5 PUSH2 0x1980 JUMP JUMPDEST SWAP1 POP SWAP3 SWAP2 POP POP JUMP JUMPDEST PUSH2 0x1AA7 DUP2 PUSH2 0x136F JUMP JUMPDEST DUP3 MSTORE POP POP JUMP JUMPDEST PUSH1 0x0 PUSH1 0x60 DUP3 ADD SWAP1 POP PUSH2 0x1AC2 PUSH1 0x0 DUP4 ADD DUP7 PUSH2 0x1A9E JUMP JUMPDEST PUSH2 0x1ACF PUSH1 0x20 DUP4 ADD DUP6 PUSH2 0x1A9E JUMP JUMPDEST PUSH2 0x1ADC PUSH1 0x40 DUP4 ADD DUP5 PUSH2 0x1A9E JUMP JUMPDEST SWAP5 SWAP4 POP POP POP POP JUMP JUMPDEST PUSH1 0x0 PUSH1 0x20 DUP3 DUP5 SUB SLT ISZERO PUSH2 0x1AFA JUMPI PUSH2 0x1AF9 PUSH2 0x11A9 JUMP JUMPDEST JUMPDEST PUSH1 0x0 PUSH2 0x1B08 DUP5 DUP3 DUP6 ADD PUSH2 0x1823 JUMP JUMPDEST SWAP2 POP POP SWAP3 SWAP2 POP POP JUMP JUMPDEST PUSH1 0x0 DUP2 MLOAD SWAP1 POP PUSH2 0x1B20 DUP2 PUSH2 0x12A7 JUMP JUMPDEST SWAP3 SWAP2 POP POP JUMP JUMPDEST PUSH1 0x0 PUSH1 0x20 DUP3 DUP5 SUB SLT ISZERO PUSH2 0x1B3C JUMPI PUSH2 0x1B3B PUSH2 0x11A9 JUMP JUMPDEST JUMPDEST PUSH1 0x0 PUSH2 0x1B4A DUP5 DUP3 DUP6 ADD PUSH2 0x1B11 JUMP JUMPDEST SWAP2 POP POP SWAP3 SWAP2 POP POP JUMP JUMPDEST PUSH1 0x0 PUSH14 0xFFFFFFFFFFFFFFFFFFFFFFFFFFFF DUP3 AND SWAP1 POP SWAP2 SWAP1 POP JUMP JUMPDEST PUSH2 0x1B76 DUP2 PUSH2 0x1B53 JUMP JUMPDEST DUP2 EQ PUSH2 0x1B81 JUMPI PUSH1 0x0 DUP1 REVERT JUMPDEST POP JUMP JUMPDEST PUSH1 0x0 DUP2 MLOAD SWAP1 POP PUSH2 0x1B93 DUP2 PUSH2 0x1B6D JUMP JUMPDEST SWAP3 SWAP2 POP POP JUMP JUMPDEST PUSH1 0x0 PUSH4 0xFFFFFFFF DUP3 AND SWAP1 POP SWAP2 SWAP1 POP JUMP JUMPDEST PUSH2 0x1BB2 DUP2 PUSH2 0x1B99 JUMP JUMPDEST DUP2 EQ PUSH2 0x1BBD JUMPI PUSH1 0x0 DUP1 REVERT JUMPDEST POP JUMP JUMPDEST PUSH1 0x0 DUP2 MLOAD SWAP1 POP PUSH2 0x1BCF DUP2 PUSH2 0x1BA9 JUMP JUMPDEST SWAP3 SWAP2 POP POP JUMP JUMPDEST PUSH1 0x0 DUP1 PUSH1 0x0 PUSH1 0x60 DUP5 DUP7 SUB SLT ISZERO PUSH2 0x1BEE JUMPI PUSH2 0x1BED PUSH2 0x11A9 JUMP JUMPDEST JUMPDEST PUSH1 0x0 PUSH2 0x1BFC DUP7 DUP3 DUP8 ADD PUSH2 0x1B84 JUMP JUMPDEST SWAP4 POP POP PUSH1 0x20 PUSH2 0x1C0D DUP7 DUP3 DUP8 ADD PUSH2 0x1B84 JUMP JUMPDEST SWAP3 POP POP PUSH1 0x40 PUSH2 0x1C1E DUP7 DUP3 DUP8 ADD PUSH2 0x1BC0 JUMP JUMPDEST SWAP2 POP POP SWAP3 POP SWAP3 POP SWAP3 JUMP JUMPDEST PUSH1 0x0 PUSH1 0x40 DUP3 ADD SWAP1 POP PUSH2 0x1C3D PUSH1 0x0 DUP4 ADD DUP6 PUSH2 0x172B JUMP JUMPDEST PUSH2 0x1C4A PUSH1 0x20 DUP4 ADD DUP5 PUSH2 0x172B JUMP JUMPDEST SWAP4 SWAP3 POP POP POP JUMP JUMPDEST PUSH2 0x1C5A DUP2 PUSH2 0x13A5 JUMP JUMPDEST DUP3 MSTORE POP POP JUMP JUMPDEST PUSH1 0x0 PUSH1 0x60 DUP3 ADD SWAP1 POP PUSH2 0x1C75 PUSH1 0x0 DUP4 ADD DUP6 PUSH2 0x14A8 JUMP JUMPDEST PUSH2 0x1C82 PUSH1 0x40 DUP4 ADD DUP5 PUSH2 0x1C51 JUMP JUMPDEST SWAP4 SWAP3 POP POP POP JUMP JUMPDEST PUSH1 0x0 DUP2 MLOAD SWAP1 POP SWAP2 SWAP1 POP JUMP JUMPDEST PUSH1 0x0 DUP3 DUP3 MSTORE PUSH1 0x20 DUP3 ADD SWAP1 POP SWAP3 SWAP2 POP POP JUMP JUMPDEST PUSH1 0x0 DUP2 SWAP1 POP PUSH1 0x20 DUP3 ADD SWAP1 POP SWAP2 SWAP1 POP JUMP JUMPDEST PUSH2 0x1CBE DUP2 PUSH2 0x1295 JUMP JUMPDEST DUP3 MSTORE POP POP JUMP JUMPDEST PUSH1 0x0 PUSH2 0x1CD0 DUP4 DUP4 PUSH2 0x1CB5 JUMP JUMPDEST PUSH1 0x20 DUP4 ADD SWAP1 POP SWAP3 SWAP2 POP POP JUMP JUMPDEST PUSH1 0x0 PUSH1 0x20 DUP3 ADD SWAP1 POP SWAP2 SWAP1 POP JUMP JUMPDEST PUSH1 0x0 PUSH2 0x1CF4 DUP3 PUSH2 0x1C89 JUMP JUMPDEST PUSH2 0x1CFE DUP2 DUP6 PUSH2 0x1C94 JUMP JUMPDEST SWAP4 POP PUSH2 0x1D09 DUP4 PUSH2 0x1CA5 JUMP JUMPDEST DUP1 PUSH1 0x0 JUMPDEST DUP4 DUP2 LT ISZERO PUSH2 0x1D3A JUMPI DUP2 MLOAD PUSH2 0x1D21 DUP9 DUP3 PUSH2 0x1CC4 JUMP JUMPDEST SWAP8 POP PUSH2 0x1D2C DUP4 PUSH2 0x1CDC JUMP JUMPDEST SWAP3 POP POP PUSH1 0x1 DUP2 ADD SWAP1 POP PUSH2 0x1D0D JUMP JUMPDEST POP DUP6 SWAP4 POP POP POP POP SWAP3 SWAP2 POP POP JUMP JUMPDEST PUSH1 0x0 PUSH1 0x40 DUP3 ADD SWAP1 POP PUSH2 0x1D5C PUSH1 0x0 DUP4 ADD DUP6 PUSH2 0x1A9E JUMP JUMPDEST DUP2 DUP2 SUB PUSH1 0x20 DUP4 ADD MSTORE PUSH2 0x1D6E DUP2 DUP5 PUSH2 0x1CE9 JUMP JUMPDEST SWAP1 POP SWAP4 SWAP3 POP POP POP JUMP JUMPDEST PUSH1 0x0 PUSH8 0xFFFFFFFFFFFFFFFF DUP3 GT ISZERO PUSH2 0x1D92 JUMPI PUSH2 0x1D91 PUSH2 0x11C9 JUMP JUMPDEST JUMPDEST PUSH1 0x20 DUP3 MUL SWAP1 POP PUSH1 0x20 DUP2 ADD SWAP1 POP SWAP2 SWAP1 POP JUMP JUMPDEST PUSH1 0x0 PUSH2 0x1DB6 PUSH2 0x1DB1 DUP5 PUSH2 0x1D77 JUMP JUMPDEST PUSH2 0x1229 JUMP JUMPDEST SWAP1 POP DUP1 DUP4 DUP3 MSTORE PUSH1 0x20 DUP3 ADD SWAP1 POP PUSH1 0x20 DUP5 MUL DUP4 ADD DUP6 DUP2 GT ISZERO PUSH2 0x1DD9 JUMPI PUSH2 0x1DD8 PUSH2 0x1270 JUMP JUMPDEST JUMPDEST DUP4 JUMPDEST DUP2 DUP2 LT ISZERO PUSH2 0x1E02 JUMPI DUP1 PUSH2 0x1DEE DUP9 DUP3 PUSH2 0x1823 JUMP JUMPDEST DUP5 MSTORE PUSH1 0x20 DUP5 ADD SWAP4 POP POP PUSH1 0x20 DUP2 ADD SWAP1 POP PUSH2 0x1DDB JUMP JUMPDEST POP POP POP SWAP4 SWAP3 POP POP POP JUMP JUMPDEST PUSH1 0x0 DUP3 PUSH1 0x1F DUP4 ADD SLT PUSH2 0x1E21 JUMPI PUSH2 0x1E20 PUSH2 0x11B3 JUMP JUMPDEST JUMPDEST DUP2 MLOAD PUSH2 0x1E31 DUP5 DUP3 PUSH1 0x20 DUP7 ADD PUSH2 0x1DA3 JUMP JUMPDEST SWAP2 POP POP SWAP3 SWAP2 POP POP JUMP JUMPDEST PUSH1 0x0 PUSH1 0x20 DUP3 DUP5 SUB SLT ISZERO PUSH2 0x1E50 JUMPI PUSH2 0x1E4F PUSH2 0x11A9 JUMP JUMPDEST JUMPDEST PUSH1 0x0 DUP3 ADD MLOAD PUSH8 0xFFFFFFFFFFFFFFFF DUP2 GT ISZERO PUSH2 0x1E6E JUMPI PUSH2 0x1E6D PUSH2 0x11AE JUMP JUMPDEST JUMPDEST PUSH2 0x1E7A DUP5 DUP3 DUP6 ADD PUSH2 0x1E0C JUMP JUMPDEST SWAP2 POP POP SWAP3 SWAP2 POP POP JUMP INVALID LOG2 PUSH5 0x6970667358 0x22 SLT KECCAK256 0xF7 0x2A EXTCODEHASH 0xAC CODECOPY ORIGIN PUSH12 0x4525C178D3AFDEC557073CFB SWAP8 0xBF SWAP15 PC STOP PUSH28 0x65C6F097BBEB2664736F6C6343000813003300000000000000000000 "
				},
				"gasEstimates": {
					"creation": {
						"codeDepositCost": "1573000",
						"executionCost": "infinite",
						"totalCost": "infinite"
					},
					"external": {
						"amountOut(address[],(uint256,uint8))": "infinite",
						"factory()": "infinite",
						"fixedPointMath()": "infinite",
						"pairAddress(address,address)": "infinite",
						"pairInterface(address,address)": "infinite",
						"pairIsSameLayoutAsGivenTokens(address,address)": "infinite",
						"pairIsZeroAddress(address,address)": "infinite",
						"pairReserves(address,address)": "infinite",
						"price(address,address)": "infinite",
						"router()": "infinite",
						"yield(address[],(uint256,uint8))": "infinite"
					}
				},
				"methodIdentifiers": {
					"amountOut(address[],(uint256,uint8))": "f6162317",
					"factory()": "c45a0155",
					"fixedPointMath()": "14c758d9",
					"pairAddress(address,address)": "ceca05ab",
					"pairInterface(address,address)": "be83cb79",
					"pairIsSameLayoutAsGivenTokens(address,address)": "41b29895",
					"pairIsZeroAddress(address,address)": "b09cd0c3",
					"pairReserves(address,address)": "7dd92787",
					"price(address,address)": "2b00490d",
					"router()": "f887ea40",
					"yield(address[],(uint256,uint8))": "0d186819"
				}
			},
			"storageLayout": {
				"storage": [
					{
						"astId": 25,
						"contract": "code/contract/sol/native/utils/adaptor/UniswapV2Adaptor.sol:UniswapV2Adaptor",
						"label": "fixedPointMath_",
						"offset": 0,
						"slot": "0",
						"type": "t_contract(IFixedPointMath)652"
					},
					{
						"astId": 28,
						"contract": "code/contract/sol/native/utils/adaptor/UniswapV2Adaptor.sol:UniswapV2Adaptor",
						"label": "factory_",
						"offset": 0,
						"slot": "1",
						"type": "t_contract(IUniswapV2Factory)2421"
					},
					{
						"astId": 31,
						"contract": "code/contract/sol/native/utils/adaptor/UniswapV2Adaptor.sol:UniswapV2Adaptor",
						"label": "router_",
						"offset": 0,
						"slot": "2",
						"type": "t_contract(IUniswapV2Router02)3059"
					}
				],
				"types": {
					"t_contract(IFixedPointMath)652": {
						"encoding": "inplace",
						"label": "contract IFixedPointMath",
						"numberOfBytes": "20"
					},
					"t_contract(IUniswapV2Factory)2421": {
						"encoding": "inplace",
						"label": "contract IUniswapV2Factory",
						"numberOfBytes": "20"
					},
					"t_contract(IUniswapV2Router02)3059": {
						"encoding": "inplace",
						"label": "contract IUniswapV2Router02",
						"numberOfBytes": "20"
					}
				}
			},
			"userdoc": {
				"kind": "user",
				"methods": {},
				"version": 1
			}
		}
	}
}