{
	"data": {
		"bytecode": {
			"linkReferences": {},
			"object": "608060405234801561001057600080fd5b50611a82806100206000396000f3fe6080604052600436106102135760003560e01c80638456cb5911610118578063b949048b116100a0578063d52f80241161006f578063d52f802414610594578063d547741f146105b4578063f2fde38b146105d4578063f4358896146105f4578063fdb165401461060957610222565b8063b949048b1461051f578063bccf0e5e14610534578063bfda4a4914610554578063d09a20c51461057457610222565b8063985fcf9c116100e7578063985fcf9c146104a05780639db80bf0146104b55780639dce27ae146104ca578063a657a47e146104df578063b411ee94146104ff57610222565b80638456cb59146104365780638da5cb5b1461044b57806391d148541461046057806392beb2a11461048057610222565b80633f4ba83a1161019b5780636676e9261161016a5780636676e926146103c2578063667d4359146103d7578063715018a6146103ec578063780e9368146104015780638129fc1c1461042157610222565b80633f4ba83a146103565780635c60da1b1461036b5780635c975abb1461039857806365ea2aa6146103ad57610222565b80631e4e0091116101e25780631e4e0091146102b45780632145b31a146102d4578063248a9ca3146102e95780632f2ff15d1461030957806334c11fbc1461032957610222565b80630717f3e61461022a5780630900f01014610254578063158ef93e146102745780631e18f5c91461028957610222565b3661022257610220610629565b005b610220610629565b34801561023657600080fd5b5061023f61063b565b60405190151581526020015b60405180910390f35b34801561026057600080fd5b5061022061026f36600461179f565b610662565b34801561028057600080fd5b5061023f6106b0565b34801561029557600080fd5b50600080516020611a2d8339815191525b60405190815260200161024b565b3480156102c057600080fd5b506102206102cf3660046117ba565b6106be565b3480156102e057600080fd5b506102a66106d4565b3480156102f557600080fd5b506102a66103043660046117dc565b61073e565b34801561031557600080fd5b506102206103243660046117f5565b610763565b34801561033557600080fd5b506103496103443660046118ad565b610776565b60405161024b919061195f565b34801561036257600080fd5b506102206107c7565b34801561037757600080fd5b50610380610802565b6040516001600160a01b03909116815260200161024b565b3480156103a457600080fd5b5061023f610811565b3480156103b957600080fd5b506102a6610828565b3480156103ce57600080fd5b506102a6610865565b3480156103e357600080fd5b506102a6610896565b3480156103f857600080fd5b506102206108d9565b34801561040d57600080fd5b5061038061041c3660046117dc565b6108eb565b34801561042d57600080fd5b50610220610933565b34801561044257600080fd5b5061022061093b565b34801561045757600080fd5b50610380610975565b34801561046c57600080fd5b5061023f61047b3660046117f5565b6109a2565b34801561048c57600080fd5b5061038061049b3660046117ba565b6109d1565b3480156104ac57600080fd5b506102a6610a00565b3480156104c157600080fd5b506102a6610a24565b3480156104d657600080fd5b506102a6610a4f565b3480156104eb57600080fd5b506102a66104fa3660046117dc565b610a73565b34801561050b57600080fd5b506102a661051a366004611972565b610ac4565b34801561052b57600080fd5b506102a6610ad7565b34801561054057600080fd5b506102a661054f3660046117dc565b610b02565b34801561056057600080fd5b506102a661056f3660046117dc565b610b39565b34801561058057600080fd5b5061022061058f3660046117f5565b610b4b565b3480156105a057600080fd5b506102a66105af3660046117dc565b610ba6565b3480156105c057600080fd5b506102206105cf3660046117f5565b610bb8565b3480156105e057600080fd5b506102206105ef36600461179f565b610bcb565b34801561060057600080fd5b506102a6610bdc565b34801561061557600080fd5b5061022061062436600461179f565b610c10565b610639610634610c19565b610c27565b565b6000600560006106496106d4565b815260208101919091526040016000205460ff16919050565b61066a610c4b565b6106a461069e6104fa6040518060400160405280600d81526020016c55504752414445525f524f4c4560981b815250610ac4565b33610b4b565b6106ad81610c95565b50565b600060056000610649610865565b6106c6610d14565b6106d08282610d77565b5050565b60006040516020016107239060208082526023908201527f494e495449414c5f494d504c454d454e544154494f4e5f4841535f4245454e5f60408201526214d15560ea1b606082015260800190565b60405160208183030381529060405280519060200120905090565b60006006600061074d84610b02565b8152602001908152602001600020549050919050565b61076c82610e42565b6106d08282610ea8565b60606107b461069e6104fa604051806040016040528060158152602001744c4f575f4c4556454c5f43414c4c45525f524f4c4560581b815250610ac4565b6107be8383610f6b565b90505b92915050565b6107fa61069e6104fa6040518060400160405280600c81526020016b554e50415553455f524f4c4560a01b815250610ac4565b61063961108f565b600061080c610c19565b905090565b60006005600061081f610828565b81526020015290565b60006040516020016108549060208082526006908201526514105554d15160d21b604082015260600190565b60408051601f198184030190525290565b6000604051602001610723906020808252600b908201526a125392551250531256915160aa1b604082015260600190565b60006040516020016107239060208082526017908201527f494d504c454d454e544154494f4e5f54494d454c494e45000000000000000000604082015260600190565b6108e16110f0565b6106396000611147565b6000600b60006108f9610896565b81526020019081526020016000208281548110610918576109186119c3565b6000918252602090912001546001600160a01b031692915050565b6106396111be565b61096d61069e6104fa6040518060400160405280600b81526020016a5041555345525f524f4c4560a81b815250610ac4565b610639611256565b600060046000610983610ad7565b81526020810191909152604001600020546001600160a01b0316919050565b60006107be82601660006109b587610a73565b81526020019081526020016000206112b790919063ffffffff16565b60006107be82601660006109e487610a73565b81526020019081526020016000206112d990919063ffffffff16565b6000600b6000610a0e610896565b8152602081019190915260400160002054919050565b600060405160200161072390602080825260059082015264524f4c455360d81b604082015260600190565b600061080c60176000610a60610a24565b81526020019081526020016000206112e5565b600081604051602001610aa7918152604060208201819052600790820152664d454d4245525360c81b606082015260800190565b604051602081830303815290604052805190602001209050919050565b600081604051602001610aa7919061195f565b60006040516020016107239060208082526005908201526427aba722a960d91b604082015260600190565b600081604051602001610aa7918152604060208201819052600a90820152692927a622afa0a226a4a760b11b606082015260800190565b60006107c182601760006109e4610a24565b610b64600080516020611a2d8339815191525b336109a2565b6106d057610b7282826109a2565b6106d05760405163122994e360e11b81526001600160a01b0382166004820152602481018390526044015b60405180910390fd5b60006107c160166000610a6085610a73565b610bc182610e42565b6106d082826112ef565b610bd36110f0565b6106ad81611147565b6000604051602001610723906020808252600e908201526d24a6a82622a6a2a72a20aa24a7a760911b604082015260600190565b6106a4816113b8565b600060046000610983610bdc565b3660008037600080366000845af43d6000803e808015610c46573d6000f35b3d6000fd5b610c53610811565b6106395760405162461bcd60e51b81526020600482015260136024820152725061757361626c653a2021706175736564282960681b6044820152606401610b9d565b8060046000610ca2610bdc565b815260200190815260200160002060006101000a8154816001600160a01b0302191690836001600160a01b03160217905550610cdd8161144d565b6040516001600160a01b038216907fbc7cd75a20ee27fd9adebab32041f755214dbc6bffa90cc0225b39da2e5c2d3b90600090a250565b610d2b600080516020611a2d833981519152610b5e565b6106395760405162461bcd60e51b815260206004820152601a60248201527f526f6c653a206973206e6f742064656661756c742061646d696e0000000000006044820152606401610b9d565b80610d818361073e565b03610dce5760405162461bcd60e51b815260206004820152601b60248201527f526f6c653a20697320616c726561647920726f6c652061646d696e00000000006044820152606401610b9d565b600060066000610ddd85610b02565b81526020019081526020016000205490508160066000610dfc86610b02565b8152602001908152602001600020819055508181847fbd79b86ffe0ab8e8776151514217cd7cacd52c909f66475c3af44e129f0b00ff60405160405180910390a4505050565b610e59600080516020611a2d833981519152610b5e565b6106ad57610e69610b5e8261073e565b6106ad5760405162461bcd60e51b815260206004820152601060248201526f526f6c653a2021686173526f6c65282960801b6044820152606401610b9d565b610eb282826109a2565b15610ef85760405162461bcd60e51b8152602060048201526016602482015275526f6c653a20616c72656164792068617320726f6c6560501b6044820152606401610b9d565b610f258160166000610f0986610a73565b815260200190815260200160002061149b90919063ffffffff16565b50610f2f826114b0565b60405133906001600160a01b0383169084907f2f8788117e7eff1d82e926ec794901d17c78024a50270940304540a733656f0d90600090a45050565b6060600080846001600160a01b031684604051610f8891906119d9565b6000604051808303816000865af19150503d8060008114610fc5576040519150601f19603f3d011682016040523d82523d6000602084013e610fca565b606091505b5091509150816110285760405162461bcd60e51b815260206004820152602360248201527f4c6f774c6576656c43616c6c3a206661696c6564206c6f77206c6576656c2063604482015262185b1b60ea1b6064820152608401610b9d565b8060405161103691906119d9565b60405180910390208460405161104c91906119d9565b604051908190038120906001600160a01b038816907f2bbbbbf24d2d80cec39de7a4633cf4c5e30a805731376b32927d93fd29cec14390600090a4949350505050565b611097610c4b565b6000600560006110a5610828565b8152602081019190915260409081016000908120805460ff191693151593909317909255517fa45f47fdea8a1efdd9029a5691c7f759c32b7c698632b563573e155625d169339190a1565b336110f9610975565b6001600160a01b0316146106395760405162461bcd60e51b815260206004820152601560248201527437bbb732b9141490109e9036b9b39739b2b73232b960591b6044820152606401610b9d565b6000611151610975565b90508160046000611160610ad7565b815260208101919091526040908101600090812080546001600160a01b0319166001600160a01b039485161790559051848316928416917f8be0079c531659141344cd1fd0a4f28419497f9722a3daafe3b4186f6b6457e091a35050565b6111c66106b0565b1561121f5760405162461bcd60e51b8152602060048201526024808201527f44656661756c74496d706c656d656e746174696f6e3a20696e697469616c697a6044820152636564282960e01b6064820152608401610b9d565b6112276114ec565b600160056000611235610865565b81526020810191909152604001600020805460ff1916911515919091179055565b61125e61151c565b60016005600061126c610828565b8152602081019190915260409081016000908120805460ff191693151593909317909255517f9e87fac88ff661f02d44f95383c817fece4bce600a3dab7a54406878b965e7529190a1565b6001600160a01b038116600090815260018301602052604081205415156107be565b60006107be8383611566565b60006107c1825490565b6112f982826109a2565b6113455760405162461bcd60e51b815260206004820152601860248201527f526f6c653a20646f6573206e6f74206861766520726f6c6500000000000000006044820152606401610b9d565b611372816016600061135686610a73565b815260200190815260200160002061159090919063ffffffff16565b5061137c826115a5565b60405133906001600160a01b0383169084907ff6391f5c32d9c69d2a47ea670b442974b53935d1edc7fd64eb21e047a839171b90600090a45050565b6113c061063b565b1561141d5760405162461bcd60e51b815260206004820152602760248201527f426173653a20696e697469616c496d706c656d656e746174696f6e4861734265604482015266656e536574282960c81b6064820152608401610b9d565b60016005600061142b6106d4565b81526020810191909152604001600020805460ff191691151591909117905550565b600b6000611459610896565b8152602080820192909252604001600090812080546001810182559082529190200180546001600160a01b0319166001600160a01b0392909216919091179055565b60006107be836001600160a01b0384166115e1565b60016114bb82610ba6565b106106ad576106d081601760006114d0610a24565b815260200190815260200160002061163090919063ffffffff16565b6114f461163c565b6114fc611645565b6107fa611516600080516020611a2d833981519152610a73565b30610ea8565b611524610811565b156106395760405162461bcd60e51b81526020600482015260126024820152715061757361626c653a20706175736564282960701b6044820152606401610b9d565b600082600001828154811061157d5761157d6119c3565b9060005260206000200154905092915050565b60006107be836001600160a01b038416611684565b6115ae81610ba6565b6000036106ad576106d081601760006115c5610a24565b815260200190815260200160002061177790919063ffffffff16565b6000818152600183016020526040812054611628575081546001818101845560008481526020808220909301849055845484825282860190935260409020919091556107c1565b5060006107c1565b60006107be83836115e1565b61063933611147565b61063961167e6104fa6040518060400160405280601281526020017144454641554c545f41444d494e5f524f4c4560701b815250610ac4565b33610ea8565b6000818152600183016020526040812054801561176d5760006116a86001836119f5565b85549091506000906116bc906001906119f5565b90508181146117215760008660000182815481106116dc576116dc6119c3565b90600052602060002001549050808760000184815481106116ff576116ff6119c3565b6000918252602080832090910192909255918252600188019052604090208390555b855486908061173257611732611a16565b6001900381819060005260206000200160009055905585600101600086815260200190815260200160002060009055600193505050506107c1565b60009150506107c1565b60006107be8383611684565b80356001600160a01b038116811461179a57600080fd5b919050565b6000602082840312156117b157600080fd5b6107be82611783565b600080604083850312156117cd57600080fd5b50508035926020909101359150565b6000602082840312156117ee57600080fd5b5035919050565b6000806040838503121561180857600080fd5b8235915061181860208401611783565b90509250929050565b634e487b7160e01b600052604160045260246000fd5b600067ffffffffffffffff8084111561185257611852611821565b604051601f8501601f19908116603f0116810190828211818310171561187a5761187a611821565b8160405280935085815286868601111561189357600080fd5b858560208301376000602087830101525050509392505050565b600080604083850312156118c057600080fd5b6118c983611783565b9150602083013567ffffffffffffffff8111156118e557600080fd5b8301601f810185136118f657600080fd5b61190585823560208401611837565b9150509250929050565b60005b8381101561192a578181015183820152602001611912565b50506000910152565b6000815180845261194b81602086016020860161190f565b601f01601f19169290920160200192915050565b6020815260006107be6020830184611933565b60006020828403121561198457600080fd5b813567ffffffffffffffff81111561199b57600080fd5b8201601f810184136119ac57600080fd5b6119bb84823560208401611837565b949350505050565b634e487b7160e01b600052603260045260246000fd5b600082516119eb81846020870161190f565b9190910192915050565b818103818111156107c157634e487b7160e01b600052601160045260246000fd5b634e487b7160e01b600052603160045260246000fdfeb4dd7b07910623c7c742febfbc4566bdec285f874faa2742c472acd10e26be29a26469706673582212204e27d7558f8a3fee7486ffab84d04f33015a4636db0c2d3603fdebc2a62527e864736f6c63430008130033",
			"opcodes": "PUSH1 0x80 PUSH1 0x40 MSTORE CALLVALUE DUP1 ISZERO PUSH2 0x10 JUMPI PUSH1 0x0 DUP1 REVERT JUMPDEST POP PUSH2 0x1A82 DUP1 PUSH2 0x20 PUSH1 0x0 CODECOPY PUSH1 0x0 RETURN INVALID PUSH1 0x80 PUSH1 0x40 MSTORE PUSH1 0x4 CALLDATASIZE LT PUSH2 0x213 JUMPI PUSH1 0x0 CALLDATALOAD PUSH1 0xE0 SHR DUP1 PUSH4 0x8456CB59 GT PUSH2 0x118 JUMPI DUP1 PUSH4 0xB949048B GT PUSH2 0xA0 JUMPI DUP1 PUSH4 0xD52F8024 GT PUSH2 0x6F JUMPI DUP1 PUSH4 0xD52F8024 EQ PUSH2 0x594 JUMPI DUP1 PUSH4 0xD547741F EQ PUSH2 0x5B4 JUMPI DUP1 PUSH4 0xF2FDE38B EQ PUSH2 0x5D4 JUMPI DUP1 PUSH4 0xF4358896 EQ PUSH2 0x5F4 JUMPI DUP1 PUSH4 0xFDB16540 EQ PUSH2 0x609 JUMPI PUSH2 0x222 JUMP JUMPDEST DUP1 PUSH4 0xB949048B EQ PUSH2 0x51F JUMPI DUP1 PUSH4 0xBCCF0E5E EQ PUSH2 0x534 JUMPI DUP1 PUSH4 0xBFDA4A49 EQ PUSH2 0x554 JUMPI DUP1 PUSH4 0xD09A20C5 EQ PUSH2 0x574 JUMPI PUSH2 0x222 JUMP JUMPDEST DUP1 PUSH4 0x985FCF9C GT PUSH2 0xE7 JUMPI DUP1 PUSH4 0x985FCF9C EQ PUSH2 0x4A0 JUMPI DUP1 PUSH4 0x9DB80BF0 EQ PUSH2 0x4B5 JUMPI DUP1 PUSH4 0x9DCE27AE EQ PUSH2 0x4CA JUMPI DUP1 PUSH4 0xA657A47E EQ PUSH2 0x4DF JUMPI DUP1 PUSH4 0xB411EE94 EQ PUSH2 0x4FF JUMPI PUSH2 0x222 JUMP JUMPDEST DUP1 PUSH4 0x8456CB59 EQ PUSH2 0x436 JUMPI DUP1 PUSH4 0x8DA5CB5B EQ PUSH2 0x44B JUMPI DUP1 PUSH4 0x91D14854 EQ PUSH2 0x460 JUMPI DUP1 PUSH4 0x92BEB2A1 EQ PUSH2 0x480 JUMPI PUSH2 0x222 JUMP JUMPDEST DUP1 PUSH4 0x3F4BA83A GT PUSH2 0x19B JUMPI DUP1 PUSH4 0x6676E926 GT PUSH2 0x16A JUMPI DUP1 PUSH4 0x6676E926 EQ PUSH2 0x3C2 JUMPI DUP1 PUSH4 0x667D4359 EQ PUSH2 0x3D7 JUMPI DUP1 PUSH4 0x715018A6 EQ PUSH2 0x3EC JUMPI DUP1 PUSH4 0x780E9368 EQ PUSH2 0x401 JUMPI DUP1 PUSH4 0x8129FC1C EQ PUSH2 0x421 JUMPI PUSH2 0x222 JUMP JUMPDEST DUP1 PUSH4 0x3F4BA83A EQ PUSH2 0x356 JUMPI DUP1 PUSH4 0x5C60DA1B EQ PUSH2 0x36B JUMPI DUP1 PUSH4 0x5C975ABB EQ PUSH2 0x398 JUMPI DUP1 PUSH4 0x65EA2AA6 EQ PUSH2 0x3AD JUMPI PUSH2 0x222 JUMP JUMPDEST DUP1 PUSH4 0x1E4E0091 GT PUSH2 0x1E2 JUMPI DUP1 PUSH4 0x1E4E0091 EQ PUSH2 0x2B4 JUMPI DUP1 PUSH4 0x2145B31A EQ PUSH2 0x2D4 JUMPI DUP1 PUSH4 0x248A9CA3 EQ PUSH2 0x2E9 JUMPI DUP1 PUSH4 0x2F2FF15D EQ PUSH2 0x309 JUMPI DUP1 PUSH4 0x34C11FBC EQ PUSH2 0x329 JUMPI PUSH2 0x222 JUMP JUMPDEST DUP1 PUSH4 0x717F3E6 EQ PUSH2 0x22A JUMPI DUP1 PUSH4 0x900F010 EQ PUSH2 0x254 JUMPI DUP1 PUSH4 0x158EF93E EQ PUSH2 0x274 JUMPI DUP1 PUSH4 0x1E18F5C9 EQ PUSH2 0x289 JUMPI PUSH2 0x222 JUMP JUMPDEST CALLDATASIZE PUSH2 0x222 JUMPI PUSH2 0x220 PUSH2 0x629 JUMP JUMPDEST STOP JUMPDEST PUSH2 0x220 PUSH2 0x629 JUMP JUMPDEST CALLVALUE DUP1 ISZERO PUSH2 0x236 JUMPI PUSH1 0x0 DUP1 REVERT JUMPDEST POP PUSH2 0x23F PUSH2 0x63B JUMP JUMPDEST PUSH1 0x40 MLOAD SWAP1 ISZERO ISZERO DUP2 MSTORE PUSH1 0x20 ADD JUMPDEST PUSH1 0x40 MLOAD DUP1 SWAP2 SUB SWAP1 RETURN JUMPDEST CALLVALUE DUP1 ISZERO PUSH2 0x260 JUMPI PUSH1 0x0 DUP1 REVERT JUMPDEST POP PUSH2 0x220 PUSH2 0x26F CALLDATASIZE PUSH1 0x4 PUSH2 0x179F JUMP JUMPDEST PUSH2 0x662 JUMP JUMPDEST CALLVALUE DUP1 ISZERO PUSH2 0x280 JUMPI PUSH1 0x0 DUP1 REVERT JUMPDEST POP PUSH2 0x23F PUSH2 0x6B0 JUMP JUMPDEST CALLVALUE DUP1 ISZERO PUSH2 0x295 JUMPI PUSH1 0x0 DUP1 REVERT JUMPDEST POP PUSH1 0x0 DUP1 MLOAD PUSH1 0x20 PUSH2 0x1A2D DUP4 CODECOPY DUP2 MLOAD SWAP2 MSTORE JUMPDEST PUSH1 0x40 MLOAD SWAP1 DUP2 MSTORE PUSH1 0x20 ADD PUSH2 0x24B JUMP JUMPDEST CALLVALUE DUP1 ISZERO PUSH2 0x2C0 JUMPI PUSH1 0x0 DUP1 REVERT JUMPDEST POP PUSH2 0x220 PUSH2 0x2CF CALLDATASIZE PUSH1 0x4 PUSH2 0x17BA JUMP JUMPDEST PUSH2 0x6BE JUMP JUMPDEST CALLVALUE DUP1 ISZERO PUSH2 0x2E0 JUMPI PUSH1 0x0 DUP1 REVERT JUMPDEST POP PUSH2 0x2A6 PUSH2 0x6D4 JUMP JUMPDEST CALLVALUE DUP1 ISZERO PUSH2 0x2F5 JUMPI PUSH1 0x0 DUP1 REVERT JUMPDEST POP PUSH2 0x2A6 PUSH2 0x304 CALLDATASIZE PUSH1 0x4 PUSH2 0x17DC JUMP JUMPDEST PUSH2 0x73E JUMP JUMPDEST CALLVALUE DUP1 ISZERO PUSH2 0x315 JUMPI PUSH1 0x0 DUP1 REVERT JUMPDEST POP PUSH2 0x220 PUSH2 0x324 CALLDATASIZE PUSH1 0x4 PUSH2 0x17F5 JUMP JUMPDEST PUSH2 0x763 JUMP JUMPDEST CALLVALUE DUP1 ISZERO PUSH2 0x335 JUMPI PUSH1 0x0 DUP1 REVERT JUMPDEST POP PUSH2 0x349 PUSH2 0x344 CALLDATASIZE PUSH1 0x4 PUSH2 0x18AD JUMP JUMPDEST PUSH2 0x776 JUMP JUMPDEST PUSH1 0x40 MLOAD PUSH2 0x24B SWAP2 SWAP1 PUSH2 0x195F JUMP JUMPDEST CALLVALUE DUP1 ISZERO PUSH2 0x362 JUMPI PUSH1 0x0 DUP1 REVERT JUMPDEST POP PUSH2 0x220 PUSH2 0x7C7 JUMP JUMPDEST CALLVALUE DUP1 ISZERO PUSH2 0x377 JUMPI PUSH1 0x0 DUP1 REVERT JUMPDEST POP PUSH2 0x380 PUSH2 0x802 JUMP JUMPDEST PUSH1 0x40 MLOAD PUSH1 0x1 PUSH1 0x1 PUSH1 0xA0 SHL SUB SWAP1 SWAP2 AND DUP2 MSTORE PUSH1 0x20 ADD PUSH2 0x24B JUMP JUMPDEST CALLVALUE DUP1 ISZERO PUSH2 0x3A4 JUMPI PUSH1 0x0 DUP1 REVERT JUMPDEST POP PUSH2 0x23F PUSH2 0x811 JUMP JUMPDEST CALLVALUE DUP1 ISZERO PUSH2 0x3B9 JUMPI PUSH1 0x0 DUP1 REVERT JUMPDEST POP PUSH2 0x2A6 PUSH2 0x828 JUMP JUMPDEST CALLVALUE DUP1 ISZERO PUSH2 0x3CE JUMPI PUSH1 0x0 DUP1 REVERT JUMPDEST POP PUSH2 0x2A6 PUSH2 0x865 JUMP JUMPDEST CALLVALUE DUP1 ISZERO PUSH2 0x3E3 JUMPI PUSH1 0x0 DUP1 REVERT JUMPDEST POP PUSH2 0x2A6 PUSH2 0x896 JUMP JUMPDEST CALLVALUE DUP1 ISZERO PUSH2 0x3F8 JUMPI PUSH1 0x0 DUP1 REVERT JUMPDEST POP PUSH2 0x220 PUSH2 0x8D9 JUMP JUMPDEST CALLVALUE DUP1 ISZERO PUSH2 0x40D JUMPI PUSH1 0x0 DUP1 REVERT JUMPDEST POP PUSH2 0x380 PUSH2 0x41C CALLDATASIZE PUSH1 0x4 PUSH2 0x17DC JUMP JUMPDEST PUSH2 0x8EB JUMP JUMPDEST CALLVALUE DUP1 ISZERO PUSH2 0x42D JUMPI PUSH1 0x0 DUP1 REVERT JUMPDEST POP PUSH2 0x220 PUSH2 0x933 JUMP JUMPDEST CALLVALUE DUP1 ISZERO PUSH2 0x442 JUMPI PUSH1 0x0 DUP1 REVERT JUMPDEST POP PUSH2 0x220 PUSH2 0x93B JUMP JUMPDEST CALLVALUE DUP1 ISZERO PUSH2 0x457 JUMPI PUSH1 0x0 DUP1 REVERT JUMPDEST POP PUSH2 0x380 PUSH2 0x975 JUMP JUMPDEST CALLVALUE DUP1 ISZERO PUSH2 0x46C JUMPI PUSH1 0x0 DUP1 REVERT JUMPDEST POP PUSH2 0x23F PUSH2 0x47B CALLDATASIZE PUSH1 0x4 PUSH2 0x17F5 JUMP JUMPDEST PUSH2 0x9A2 JUMP JUMPDEST CALLVALUE DUP1 ISZERO PUSH2 0x48C JUMPI PUSH1 0x0 DUP1 REVERT JUMPDEST POP PUSH2 0x380 PUSH2 0x49B CALLDATASIZE PUSH1 0x4 PUSH2 0x17BA JUMP JUMPDEST PUSH2 0x9D1 JUMP JUMPDEST CALLVALUE DUP1 ISZERO PUSH2 0x4AC JUMPI PUSH1 0x0 DUP1 REVERT JUMPDEST POP PUSH2 0x2A6 PUSH2 0xA00 JUMP JUMPDEST CALLVALUE DUP1 ISZERO PUSH2 0x4C1 JUMPI PUSH1 0x0 DUP1 REVERT JUMPDEST POP PUSH2 0x2A6 PUSH2 0xA24 JUMP JUMPDEST CALLVALUE DUP1 ISZERO PUSH2 0x4D6 JUMPI PUSH1 0x0 DUP1 REVERT JUMPDEST POP PUSH2 0x2A6 PUSH2 0xA4F JUMP JUMPDEST CALLVALUE DUP1 ISZERO PUSH2 0x4EB JUMPI PUSH1 0x0 DUP1 REVERT JUMPDEST POP PUSH2 0x2A6 PUSH2 0x4FA CALLDATASIZE PUSH1 0x4 PUSH2 0x17DC JUMP JUMPDEST PUSH2 0xA73 JUMP JUMPDEST CALLVALUE DUP1 ISZERO PUSH2 0x50B JUMPI PUSH1 0x0 DUP1 REVERT JUMPDEST POP PUSH2 0x2A6 PUSH2 0x51A CALLDATASIZE PUSH1 0x4 PUSH2 0x1972 JUMP JUMPDEST PUSH2 0xAC4 JUMP JUMPDEST CALLVALUE DUP1 ISZERO PUSH2 0x52B JUMPI PUSH1 0x0 DUP1 REVERT JUMPDEST POP PUSH2 0x2A6 PUSH2 0xAD7 JUMP JUMPDEST CALLVALUE DUP1 ISZERO PUSH2 0x540 JUMPI PUSH1 0x0 DUP1 REVERT JUMPDEST POP PUSH2 0x2A6 PUSH2 0x54F CALLDATASIZE PUSH1 0x4 PUSH2 0x17DC JUMP JUMPDEST PUSH2 0xB02 JUMP JUMPDEST CALLVALUE DUP1 ISZERO PUSH2 0x560 JUMPI PUSH1 0x0 DUP1 REVERT JUMPDEST POP PUSH2 0x2A6 PUSH2 0x56F CALLDATASIZE PUSH1 0x4 PUSH2 0x17DC JUMP JUMPDEST PUSH2 0xB39 JUMP JUMPDEST CALLVALUE DUP1 ISZERO PUSH2 0x580 JUMPI PUSH1 0x0 DUP1 REVERT JUMPDEST POP PUSH2 0x220 PUSH2 0x58F CALLDATASIZE PUSH1 0x4 PUSH2 0x17F5 JUMP JUMPDEST PUSH2 0xB4B JUMP JUMPDEST CALLVALUE DUP1 ISZERO PUSH2 0x5A0 JUMPI PUSH1 0x0 DUP1 REVERT JUMPDEST POP PUSH2 0x2A6 PUSH2 0x5AF CALLDATASIZE PUSH1 0x4 PUSH2 0x17DC JUMP JUMPDEST PUSH2 0xBA6 JUMP JUMPDEST CALLVALUE DUP1 ISZERO PUSH2 0x5C0 JUMPI PUSH1 0x0 DUP1 REVERT JUMPDEST POP PUSH2 0x220 PUSH2 0x5CF CALLDATASIZE PUSH1 0x4 PUSH2 0x17F5 JUMP JUMPDEST PUSH2 0xBB8 JUMP JUMPDEST CALLVALUE DUP1 ISZERO PUSH2 0x5E0 JUMPI PUSH1 0x0 DUP1 REVERT JUMPDEST POP PUSH2 0x220 PUSH2 0x5EF CALLDATASIZE PUSH1 0x4 PUSH2 0x179F JUMP JUMPDEST PUSH2 0xBCB JUMP JUMPDEST CALLVALUE DUP1 ISZERO PUSH2 0x600 JUMPI PUSH1 0x0 DUP1 REVERT JUMPDEST POP PUSH2 0x2A6 PUSH2 0xBDC JUMP JUMPDEST CALLVALUE DUP1 ISZERO PUSH2 0x615 JUMPI PUSH1 0x0 DUP1 REVERT JUMPDEST POP PUSH2 0x220 PUSH2 0x624 CALLDATASIZE PUSH1 0x4 PUSH2 0x179F JUMP JUMPDEST PUSH2 0xC10 JUMP JUMPDEST PUSH2 0x639 PUSH2 0x634 PUSH2 0xC19 JUMP JUMPDEST PUSH2 0xC27 JUMP JUMPDEST JUMP JUMPDEST PUSH1 0x0 PUSH1 0x5 PUSH1 0x0 PUSH2 0x649 PUSH2 0x6D4 JUMP JUMPDEST DUP2 MSTORE PUSH1 0x20 DUP2 ADD SWAP2 SWAP1 SWAP2 MSTORE PUSH1 0x40 ADD PUSH1 0x0 KECCAK256 SLOAD PUSH1 0xFF AND SWAP2 SWAP1 POP JUMP JUMPDEST PUSH2 0x66A PUSH2 0xC4B JUMP JUMPDEST PUSH2 0x6A4 PUSH2 0x69E PUSH2 0x4FA PUSH1 0x40 MLOAD DUP1 PUSH1 0x40 ADD PUSH1 0x40 MSTORE DUP1 PUSH1 0xD DUP2 MSTORE PUSH1 0x20 ADD PUSH13 0x55504752414445525F524F4C45 PUSH1 0x98 SHL DUP2 MSTORE POP PUSH2 0xAC4 JUMP JUMPDEST CALLER PUSH2 0xB4B JUMP JUMPDEST PUSH2 0x6AD DUP2 PUSH2 0xC95 JUMP JUMPDEST POP JUMP JUMPDEST PUSH1 0x0 PUSH1 0x5 PUSH1 0x0 PUSH2 0x649 PUSH2 0x865 JUMP JUMPDEST PUSH2 0x6C6 PUSH2 0xD14 JUMP JUMPDEST PUSH2 0x6D0 DUP3 DUP3 PUSH2 0xD77 JUMP JUMPDEST POP POP JUMP JUMPDEST PUSH1 0x0 PUSH1 0x40 MLOAD PUSH1 0x20 ADD PUSH2 0x723 SWAP1 PUSH1 0x20 DUP1 DUP3 MSTORE PUSH1 0x23 SWAP1 DUP3 ADD MSTORE PUSH32 0x494E495449414C5F494D504C454D454E544154494F4E5F4841535F4245454E5F PUSH1 0x40 DUP3 ADD MSTORE PUSH3 0x14D155 PUSH1 0xEA SHL PUSH1 0x60 DUP3 ADD MSTORE PUSH1 0x80 ADD SWAP1 JUMP JUMPDEST PUSH1 0x40 MLOAD PUSH1 0x20 DUP2 DUP4 SUB SUB DUP2 MSTORE SWAP1 PUSH1 0x40 MSTORE DUP1 MLOAD SWAP1 PUSH1 0x20 ADD KECCAK256 SWAP1 POP SWAP1 JUMP JUMPDEST PUSH1 0x0 PUSH1 0x6 PUSH1 0x0 PUSH2 0x74D DUP5 PUSH2 0xB02 JUMP JUMPDEST DUP2 MSTORE PUSH1 0x20 ADD SWAP1 DUP2 MSTORE PUSH1 0x20 ADD PUSH1 0x0 KECCAK256 SLOAD SWAP1 POP SWAP2 SWAP1 POP JUMP JUMPDEST PUSH2 0x76C DUP3 PUSH2 0xE42 JUMP JUMPDEST PUSH2 0x6D0 DUP3 DUP3 PUSH2 0xEA8 JUMP JUMPDEST PUSH1 0x60 PUSH2 0x7B4 PUSH2 0x69E PUSH2 0x4FA PUSH1 0x40 MLOAD DUP1 PUSH1 0x40 ADD PUSH1 0x40 MSTORE DUP1 PUSH1 0x15 DUP2 MSTORE PUSH1 0x20 ADD PUSH21 0x4C4F575F4C4556454C5F43414C4C45525F524F4C45 PUSH1 0x58 SHL DUP2 MSTORE POP PUSH2 0xAC4 JUMP JUMPDEST PUSH2 0x7BE DUP4 DUP4 PUSH2 0xF6B JUMP JUMPDEST SWAP1 POP JUMPDEST SWAP3 SWAP2 POP POP JUMP JUMPDEST PUSH2 0x7FA PUSH2 0x69E PUSH2 0x4FA PUSH1 0x40 MLOAD DUP1 PUSH1 0x40 ADD PUSH1 0x40 MSTORE DUP1 PUSH1 0xC DUP2 MSTORE PUSH1 0x20 ADD PUSH12 0x554E50415553455F524F4C45 PUSH1 0xA0 SHL DUP2 MSTORE POP PUSH2 0xAC4 JUMP JUMPDEST PUSH2 0x639 PUSH2 0x108F JUMP JUMPDEST PUSH1 0x0 PUSH2 0x80C PUSH2 0xC19 JUMP JUMPDEST SWAP1 POP SWAP1 JUMP JUMPDEST PUSH1 0x0 PUSH1 0x5 PUSH1 0x0 PUSH2 0x81F PUSH2 0x828 JUMP JUMPDEST DUP2 MSTORE PUSH1 0x20 ADD MSTORE SWAP1 JUMP JUMPDEST PUSH1 0x0 PUSH1 0x40 MLOAD PUSH1 0x20 ADD PUSH2 0x854 SWAP1 PUSH1 0x20 DUP1 DUP3 MSTORE PUSH1 0x6 SWAP1 DUP3 ADD MSTORE PUSH6 0x14105554D151 PUSH1 0xD2 SHL PUSH1 0x40 DUP3 ADD MSTORE PUSH1 0x60 ADD SWAP1 JUMP JUMPDEST PUSH1 0x40 DUP1 MLOAD PUSH1 0x1F NOT DUP2 DUP5 SUB ADD SWAP1 MSTORE MSTORE SWAP1 JUMP JUMPDEST PUSH1 0x0 PUSH1 0x40 MLOAD PUSH1 0x20 ADD PUSH2 0x723 SWAP1 PUSH1 0x20 DUP1 DUP3 MSTORE PUSH1 0xB SWAP1 DUP3 ADD MSTORE PUSH11 0x1253925512505312569151 PUSH1 0xAA SHL PUSH1 0x40 DUP3 ADD MSTORE PUSH1 0x60 ADD SWAP1 JUMP JUMPDEST PUSH1 0x0 PUSH1 0x40 MLOAD PUSH1 0x20 ADD PUSH2 0x723 SWAP1 PUSH1 0x20 DUP1 DUP3 MSTORE PUSH1 0x17 SWAP1 DUP3 ADD MSTORE PUSH32 0x494D504C454D454E544154494F4E5F54494D454C494E45000000000000000000 PUSH1 0x40 DUP3 ADD MSTORE PUSH1 0x60 ADD SWAP1 JUMP JUMPDEST PUSH2 0x8E1 PUSH2 0x10F0 JUMP JUMPDEST PUSH2 0x639 PUSH1 0x0 PUSH2 0x1147 JUMP JUMPDEST PUSH1 0x0 PUSH1 0xB PUSH1 0x0 PUSH2 0x8F9 PUSH2 0x896 JUMP JUMPDEST DUP2 MSTORE PUSH1 0x20 ADD SWAP1 DUP2 MSTORE PUSH1 0x20 ADD PUSH1 0x0 KECCAK256 DUP3 DUP2 SLOAD DUP2 LT PUSH2 0x918 JUMPI PUSH2 0x918 PUSH2 0x19C3 JUMP JUMPDEST PUSH1 0x0 SWAP2 DUP3 MSTORE PUSH1 0x20 SWAP1 SWAP2 KECCAK256 ADD SLOAD PUSH1 0x1 PUSH1 0x1 PUSH1 0xA0 SHL SUB AND SWAP3 SWAP2 POP POP JUMP JUMPDEST PUSH2 0x639 PUSH2 0x11BE JUMP JUMPDEST PUSH2 0x96D PUSH2 0x69E PUSH2 0x4FA PUSH1 0x40 MLOAD DUP1 PUSH1 0x40 ADD PUSH1 0x40 MSTORE DUP1 PUSH1 0xB DUP2 MSTORE PUSH1 0x20 ADD PUSH11 0x5041555345525F524F4C45 PUSH1 0xA8 SHL DUP2 MSTORE POP PUSH2 0xAC4 JUMP JUMPDEST PUSH2 0x639 PUSH2 0x1256 JUMP JUMPDEST PUSH1 0x0 PUSH1 0x4 PUSH1 0x0 PUSH2 0x983 PUSH2 0xAD7 JUMP JUMPDEST DUP2 MSTORE PUSH1 0x20 DUP2 ADD SWAP2 SWAP1 SWAP2 MSTORE PUSH1 0x40 ADD PUSH1 0x0 KECCAK256 SLOAD PUSH1 0x1 PUSH1 0x1 PUSH1 0xA0 SHL SUB AND SWAP2 SWAP1 POP JUMP JUMPDEST PUSH1 0x0 PUSH2 0x7BE DUP3 PUSH1 0x16 PUSH1 0x0 PUSH2 0x9B5 DUP8 PUSH2 0xA73 JUMP JUMPDEST DUP2 MSTORE PUSH1 0x20 ADD SWAP1 DUP2 MSTORE PUSH1 0x20 ADD PUSH1 0x0 KECCAK256 PUSH2 0x12B7 SWAP1 SWAP2 SWAP1 PUSH4 0xFFFFFFFF AND JUMP JUMPDEST PUSH1 0x0 PUSH2 0x7BE DUP3 PUSH1 0x16 PUSH1 0x0 PUSH2 0x9E4 DUP8 PUSH2 0xA73 JUMP JUMPDEST DUP2 MSTORE PUSH1 0x20 ADD SWAP1 DUP2 MSTORE PUSH1 0x20 ADD PUSH1 0x0 KECCAK256 PUSH2 0x12D9 SWAP1 SWAP2 SWAP1 PUSH4 0xFFFFFFFF AND JUMP JUMPDEST PUSH1 0x0 PUSH1 0xB PUSH1 0x0 PUSH2 0xA0E PUSH2 0x896 JUMP JUMPDEST DUP2 MSTORE PUSH1 0x20 DUP2 ADD SWAP2 SWAP1 SWAP2 MSTORE PUSH1 0x40 ADD PUSH1 0x0 KECCAK256 SLOAD SWAP2 SWAP1 POP JUMP JUMPDEST PUSH1 0x0 PUSH1 0x40 MLOAD PUSH1 0x20 ADD PUSH2 0x723 SWAP1 PUSH1 0x20 DUP1 DUP3 MSTORE PUSH1 0x5 SWAP1 DUP3 ADD MSTORE PUSH5 0x524F4C4553 PUSH1 0xD8 SHL PUSH1 0x40 DUP3 ADD MSTORE PUSH1 0x60 ADD SWAP1 JUMP JUMPDEST PUSH1 0x0 PUSH2 0x80C PUSH1 0x17 PUSH1 0x0 PUSH2 0xA60 PUSH2 0xA24 JUMP JUMPDEST DUP2 MSTORE PUSH1 0x20 ADD SWAP1 DUP2 MSTORE PUSH1 0x20 ADD PUSH1 0x0 KECCAK256 PUSH2 0x12E5 JUMP JUMPDEST PUSH1 0x0 DUP2 PUSH1 0x40 MLOAD PUSH1 0x20 ADD PUSH2 0xAA7 SWAP2 DUP2 MSTORE PUSH1 0x40 PUSH1 0x20 DUP3 ADD DUP2 SWAP1 MSTORE PUSH1 0x7 SWAP1 DUP3 ADD MSTORE PUSH7 0x4D454D42455253 PUSH1 0xC8 SHL PUSH1 0x60 DUP3 ADD MSTORE PUSH1 0x80 ADD SWAP1 JUMP JUMPDEST PUSH1 0x40 MLOAD PUSH1 0x20 DUP2 DUP4 SUB SUB DUP2 MSTORE SWAP1 PUSH1 0x40 MSTORE DUP1 MLOAD SWAP1 PUSH1 0x20 ADD KECCAK256 SWAP1 POP SWAP2 SWAP1 POP JUMP JUMPDEST PUSH1 0x0 DUP2 PUSH1 0x40 MLOAD PUSH1 0x20 ADD PUSH2 0xAA7 SWAP2 SWAP1 PUSH2 0x195F JUMP JUMPDEST PUSH1 0x0 PUSH1 0x40 MLOAD PUSH1 0x20 ADD PUSH2 0x723 SWAP1 PUSH1 0x20 DUP1 DUP3 MSTORE PUSH1 0x5 SWAP1 DUP3 ADD MSTORE PUSH5 0x27ABA722A9 PUSH1 0xD9 SHL PUSH1 0x40 DUP3 ADD MSTORE PUSH1 0x60 ADD SWAP1 JUMP JUMPDEST PUSH1 0x0 DUP2 PUSH1 0x40 MLOAD PUSH1 0x20 ADD PUSH2 0xAA7 SWAP2 DUP2 MSTORE PUSH1 0x40 PUSH1 0x20 DUP3 ADD DUP2 SWAP1 MSTORE PUSH1 0xA SWAP1 DUP3 ADD MSTORE PUSH10 0x2927A622AFA0A226A4A7 PUSH1 0xB1 SHL PUSH1 0x60 DUP3 ADD MSTORE PUSH1 0x80 ADD SWAP1 JUMP JUMPDEST PUSH1 0x0 PUSH2 0x7C1 DUP3 PUSH1 0x17 PUSH1 0x0 PUSH2 0x9E4 PUSH2 0xA24 JUMP JUMPDEST PUSH2 0xB64 PUSH1 0x0 DUP1 MLOAD PUSH1 0x20 PUSH2 0x1A2D DUP4 CODECOPY DUP2 MLOAD SWAP2 MSTORE JUMPDEST CALLER PUSH2 0x9A2 JUMP JUMPDEST PUSH2 0x6D0 JUMPI PUSH2 0xB72 DUP3 DUP3 PUSH2 0x9A2 JUMP JUMPDEST PUSH2 0x6D0 JUMPI PUSH1 0x40 MLOAD PUSH4 0x122994E3 PUSH1 0xE1 SHL DUP2 MSTORE PUSH1 0x1 PUSH1 0x1 PUSH1 0xA0 SHL SUB DUP3 AND PUSH1 0x4 DUP3 ADD MSTORE PUSH1 0x24 DUP2 ADD DUP4 SWAP1 MSTORE PUSH1 0x44 ADD JUMPDEST PUSH1 0x40 MLOAD DUP1 SWAP2 SUB SWAP1 REVERT JUMPDEST PUSH1 0x0 PUSH2 0x7C1 PUSH1 0x16 PUSH1 0x0 PUSH2 0xA60 DUP6 PUSH2 0xA73 JUMP JUMPDEST PUSH2 0xBC1 DUP3 PUSH2 0xE42 JUMP JUMPDEST PUSH2 0x6D0 DUP3 DUP3 PUSH2 0x12EF JUMP JUMPDEST PUSH2 0xBD3 PUSH2 0x10F0 JUMP JUMPDEST PUSH2 0x6AD DUP2 PUSH2 0x1147 JUMP JUMPDEST PUSH1 0x0 PUSH1 0x40 MLOAD PUSH1 0x20 ADD PUSH2 0x723 SWAP1 PUSH1 0x20 DUP1 DUP3 MSTORE PUSH1 0xE SWAP1 DUP3 ADD MSTORE PUSH14 0x24A6A82622A6A2A72A20AA24A7A7 PUSH1 0x91 SHL PUSH1 0x40 DUP3 ADD MSTORE PUSH1 0x60 ADD SWAP1 JUMP JUMPDEST PUSH2 0x6A4 DUP2 PUSH2 0x13B8 JUMP JUMPDEST PUSH1 0x0 PUSH1 0x4 PUSH1 0x0 PUSH2 0x983 PUSH2 0xBDC JUMP JUMPDEST CALLDATASIZE PUSH1 0x0 DUP1 CALLDATACOPY PUSH1 0x0 DUP1 CALLDATASIZE PUSH1 0x0 DUP5 GAS DELEGATECALL RETURNDATASIZE PUSH1 0x0 DUP1 RETURNDATACOPY DUP1 DUP1 ISZERO PUSH2 0xC46 JUMPI RETURNDATASIZE PUSH1 0x0 RETURN JUMPDEST RETURNDATASIZE PUSH1 0x0 REVERT JUMPDEST PUSH2 0xC53 PUSH2 0x811 JUMP JUMPDEST PUSH2 0x639 JUMPI PUSH1 0x40 MLOAD PUSH3 0x461BCD PUSH1 0xE5 SHL DUP2 MSTORE PUSH1 0x20 PUSH1 0x4 DUP3 ADD MSTORE PUSH1 0x13 PUSH1 0x24 DUP3 ADD MSTORE PUSH19 0x5061757361626C653A20217061757365642829 PUSH1 0x68 SHL PUSH1 0x44 DUP3 ADD MSTORE PUSH1 0x64 ADD PUSH2 0xB9D JUMP JUMPDEST DUP1 PUSH1 0x4 PUSH1 0x0 PUSH2 0xCA2 PUSH2 0xBDC JUMP JUMPDEST DUP2 MSTORE PUSH1 0x20 ADD SWAP1 DUP2 MSTORE PUSH1 0x20 ADD PUSH1 0x0 KECCAK256 PUSH1 0x0 PUSH2 0x100 EXP DUP2 SLOAD DUP2 PUSH1 0x1 PUSH1 0x1 PUSH1 0xA0 SHL SUB MUL NOT AND SWAP1 DUP4 PUSH1 0x1 PUSH1 0x1 PUSH1 0xA0 SHL SUB AND MUL OR SWAP1 SSTORE POP PUSH2 0xCDD DUP2 PUSH2 0x144D JUMP JUMPDEST PUSH1 0x40 MLOAD PUSH1 0x1 PUSH1 0x1 PUSH1 0xA0 SHL SUB DUP3 AND SWAP1 PUSH32 0xBC7CD75A20EE27FD9ADEBAB32041F755214DBC6BFFA90CC0225B39DA2E5C2D3B SWAP1 PUSH1 0x0 SWAP1 LOG2 POP JUMP JUMPDEST PUSH2 0xD2B PUSH1 0x0 DUP1 MLOAD PUSH1 0x20 PUSH2 0x1A2D DUP4 CODECOPY DUP2 MLOAD SWAP2 MSTORE PUSH2 0xB5E JUMP JUMPDEST PUSH2 0x639 JUMPI PUSH1 0x40 MLOAD PUSH3 0x461BCD PUSH1 0xE5 SHL DUP2 MSTORE PUSH1 0x20 PUSH1 0x4 DUP3 ADD MSTORE PUSH1 0x1A PUSH1 0x24 DUP3 ADD MSTORE PUSH32 0x526F6C653A206973206E6F742064656661756C742061646D696E000000000000 PUSH1 0x44 DUP3 ADD MSTORE PUSH1 0x64 ADD PUSH2 0xB9D JUMP JUMPDEST DUP1 PUSH2 0xD81 DUP4 PUSH2 0x73E JUMP JUMPDEST SUB PUSH2 0xDCE JUMPI PUSH1 0x40 MLOAD PUSH3 0x461BCD PUSH1 0xE5 SHL DUP2 MSTORE PUSH1 0x20 PUSH1 0x4 DUP3 ADD MSTORE PUSH1 0x1B PUSH1 0x24 DUP3 ADD MSTORE PUSH32 0x526F6C653A20697320616C726561647920726F6C652061646D696E0000000000 PUSH1 0x44 DUP3 ADD MSTORE PUSH1 0x64 ADD PUSH2 0xB9D JUMP JUMPDEST PUSH1 0x0 PUSH1 0x6 PUSH1 0x0 PUSH2 0xDDD DUP6 PUSH2 0xB02 JUMP JUMPDEST DUP2 MSTORE PUSH1 0x20 ADD SWAP1 DUP2 MSTORE PUSH1 0x20 ADD PUSH1 0x0 KECCAK256 SLOAD SWAP1 POP DUP2 PUSH1 0x6 PUSH1 0x0 PUSH2 0xDFC DUP7 PUSH2 0xB02 JUMP JUMPDEST DUP2 MSTORE PUSH1 0x20 ADD SWAP1 DUP2 MSTORE PUSH1 0x20 ADD PUSH1 0x0 KECCAK256 DUP2 SWAP1 SSTORE POP DUP2 DUP2 DUP5 PUSH32 0xBD79B86FFE0AB8E8776151514217CD7CACD52C909F66475C3AF44E129F0B00FF PUSH1 0x40 MLOAD PUSH1 0x40 MLOAD DUP1 SWAP2 SUB SWAP1 LOG4 POP POP POP JUMP JUMPDEST PUSH2 0xE59 PUSH1 0x0 DUP1 MLOAD PUSH1 0x20 PUSH2 0x1A2D DUP4 CODECOPY DUP2 MLOAD SWAP2 MSTORE PUSH2 0xB5E JUMP JUMPDEST PUSH2 0x6AD JUMPI PUSH2 0xE69 PUSH2 0xB5E DUP3 PUSH2 0x73E JUMP JUMPDEST PUSH2 0x6AD JUMPI PUSH1 0x40 MLOAD PUSH3 0x461BCD PUSH1 0xE5 SHL DUP2 MSTORE PUSH1 0x20 PUSH1 0x4 DUP3 ADD MSTORE PUSH1 0x10 PUSH1 0x24 DUP3 ADD MSTORE PUSH16 0x526F6C653A2021686173526F6C652829 PUSH1 0x80 SHL PUSH1 0x44 DUP3 ADD MSTORE PUSH1 0x64 ADD PUSH2 0xB9D JUMP JUMPDEST PUSH2 0xEB2 DUP3 DUP3 PUSH2 0x9A2 JUMP JUMPDEST ISZERO PUSH2 0xEF8 JUMPI PUSH1 0x40 MLOAD PUSH3 0x461BCD PUSH1 0xE5 SHL DUP2 MSTORE PUSH1 0x20 PUSH1 0x4 DUP3 ADD MSTORE PUSH1 0x16 PUSH1 0x24 DUP3 ADD MSTORE PUSH22 0x526F6C653A20616C72656164792068617320726F6C65 PUSH1 0x50 SHL PUSH1 0x44 DUP3 ADD MSTORE PUSH1 0x64 ADD PUSH2 0xB9D JUMP JUMPDEST PUSH2 0xF25 DUP2 PUSH1 0x16 PUSH1 0x0 PUSH2 0xF09 DUP7 PUSH2 0xA73 JUMP JUMPDEST DUP2 MSTORE PUSH1 0x20 ADD SWAP1 DUP2 MSTORE PUSH1 0x20 ADD PUSH1 0x0 KECCAK256 PUSH2 0x149B SWAP1 SWAP2 SWAP1 PUSH4 0xFFFFFFFF AND JUMP JUMPDEST POP PUSH2 0xF2F DUP3 PUSH2 0x14B0 JUMP JUMPDEST PUSH1 0x40 MLOAD CALLER SWAP1 PUSH1 0x1 PUSH1 0x1 PUSH1 0xA0 SHL SUB DUP4 AND SWAP1 DUP5 SWAP1 PUSH32 0x2F8788117E7EFF1D82E926EC794901D17C78024A50270940304540A733656F0D SWAP1 PUSH1 0x0 SWAP1 LOG4 POP POP JUMP JUMPDEST PUSH1 0x60 PUSH1 0x0 DUP1 DUP5 PUSH1 0x1 PUSH1 0x1 PUSH1 0xA0 SHL SUB AND DUP5 PUSH1 0x40 MLOAD PUSH2 0xF88 SWAP2 SWAP1 PUSH2 0x19D9 JUMP JUMPDEST PUSH1 0x0 PUSH1 0x40 MLOAD DUP1 DUP4 SUB DUP2 PUSH1 0x0 DUP7 GAS CALL SWAP2 POP POP RETURNDATASIZE DUP1 PUSH1 0x0 DUP2 EQ PUSH2 0xFC5 JUMPI PUSH1 0x40 MLOAD SWAP2 POP PUSH1 0x1F NOT PUSH1 0x3F RETURNDATASIZE ADD AND DUP3 ADD PUSH1 0x40 MSTORE RETURNDATASIZE DUP3 MSTORE RETURNDATASIZE PUSH1 0x0 PUSH1 0x20 DUP5 ADD RETURNDATACOPY PUSH2 0xFCA JUMP JUMPDEST PUSH1 0x60 SWAP2 POP JUMPDEST POP SWAP2 POP SWAP2 POP DUP2 PUSH2 0x1028 JUMPI PUSH1 0x40 MLOAD PUSH3 0x461BCD PUSH1 0xE5 SHL DUP2 MSTORE PUSH1 0x20 PUSH1 0x4 DUP3 ADD MSTORE PUSH1 0x23 PUSH1 0x24 DUP3 ADD MSTORE PUSH32 0x4C6F774C6576656C43616C6C3A206661696C6564206C6F77206C6576656C2063 PUSH1 0x44 DUP3 ADD MSTORE PUSH3 0x185B1B PUSH1 0xEA SHL PUSH1 0x64 DUP3 ADD MSTORE PUSH1 0x84 ADD PUSH2 0xB9D JUMP JUMPDEST DUP1 PUSH1 0x40 MLOAD PUSH2 0x1036 SWAP2 SWAP1 PUSH2 0x19D9 JUMP JUMPDEST PUSH1 0x40 MLOAD DUP1 SWAP2 SUB SWAP1 KECCAK256 DUP5 PUSH1 0x40 MLOAD PUSH2 0x104C SWAP2 SWAP1 PUSH2 0x19D9 JUMP JUMPDEST PUSH1 0x40 MLOAD SWAP1 DUP2 SWAP1 SUB DUP2 KECCAK256 SWAP1 PUSH1 0x1 PUSH1 0x1 PUSH1 0xA0 SHL SUB DUP9 AND SWAP1 PUSH32 0x2BBBBBF24D2D80CEC39DE7A4633CF4C5E30A805731376B32927D93FD29CEC143 SWAP1 PUSH1 0x0 SWAP1 LOG4 SWAP5 SWAP4 POP POP POP POP JUMP JUMPDEST PUSH2 0x1097 PUSH2 0xC4B JUMP JUMPDEST PUSH1 0x0 PUSH1 0x5 PUSH1 0x0 PUSH2 0x10A5 PUSH2 0x828 JUMP JUMPDEST DUP2 MSTORE PUSH1 0x20 DUP2 ADD SWAP2 SWAP1 SWAP2 MSTORE PUSH1 0x40 SWAP1 DUP2 ADD PUSH1 0x0 SWAP1 DUP2 KECCAK256 DUP1 SLOAD PUSH1 0xFF NOT AND SWAP4 ISZERO ISZERO SWAP4 SWAP1 SWAP4 OR SWAP1 SWAP3 SSTORE MLOAD PUSH32 0xA45F47FDEA8A1EFDD9029A5691C7F759C32B7C698632B563573E155625D16933 SWAP2 SWAP1 LOG1 JUMP JUMPDEST CALLER PUSH2 0x10F9 PUSH2 0x975 JUMP JUMPDEST PUSH1 0x1 PUSH1 0x1 PUSH1 0xA0 SHL SUB AND EQ PUSH2 0x639 JUMPI PUSH1 0x40 MLOAD PUSH3 0x461BCD PUSH1 0xE5 SHL DUP2 MSTORE PUSH1 0x20 PUSH1 0x4 DUP3 ADD MSTORE PUSH1 0x15 PUSH1 0x24 DUP3 ADD MSTORE PUSH21 0x37BBB732B9141490109E9036B9B39739B2B73232B9 PUSH1 0x59 SHL PUSH1 0x44 DUP3 ADD MSTORE PUSH1 0x64 ADD PUSH2 0xB9D JUMP JUMPDEST PUSH1 0x0 PUSH2 0x1151 PUSH2 0x975 JUMP JUMPDEST SWAP1 POP DUP2 PUSH1 0x4 PUSH1 0x0 PUSH2 0x1160 PUSH2 0xAD7 JUMP JUMPDEST DUP2 MSTORE PUSH1 0x20 DUP2 ADD SWAP2 SWAP1 SWAP2 MSTORE PUSH1 0x40 SWAP1 DUP2 ADD PUSH1 0x0 SWAP1 DUP2 KECCAK256 DUP1 SLOAD PUSH1 0x1 PUSH1 0x1 PUSH1 0xA0 SHL SUB NOT AND PUSH1 0x1 PUSH1 0x1 PUSH1 0xA0 SHL SUB SWAP5 DUP6 AND OR SWAP1 SSTORE SWAP1 MLOAD DUP5 DUP4 AND SWAP3 DUP5 AND SWAP2 PUSH32 0x8BE0079C531659141344CD1FD0A4F28419497F9722A3DAAFE3B4186F6B6457E0 SWAP2 LOG3 POP POP JUMP JUMPDEST PUSH2 0x11C6 PUSH2 0x6B0 JUMP JUMPDEST ISZERO PUSH2 0x121F JUMPI PUSH1 0x40 MLOAD PUSH3 0x461BCD PUSH1 0xE5 SHL DUP2 MSTORE PUSH1 0x20 PUSH1 0x4 DUP3 ADD MSTORE PUSH1 0x24 DUP1 DUP3 ADD MSTORE PUSH32 0x44656661756C74496D706C656D656E746174696F6E3A20696E697469616C697A PUSH1 0x44 DUP3 ADD MSTORE PUSH4 0x65642829 PUSH1 0xE0 SHL PUSH1 0x64 DUP3 ADD MSTORE PUSH1 0x84 ADD PUSH2 0xB9D JUMP JUMPDEST PUSH2 0x1227 PUSH2 0x14EC JUMP JUMPDEST PUSH1 0x1 PUSH1 0x5 PUSH1 0x0 PUSH2 0x1235 PUSH2 0x865 JUMP JUMPDEST DUP2 MSTORE PUSH1 0x20 DUP2 ADD SWAP2 SWAP1 SWAP2 MSTORE PUSH1 0x40 ADD PUSH1 0x0 KECCAK256 DUP1 SLOAD PUSH1 0xFF NOT AND SWAP2 ISZERO ISZERO SWAP2 SWAP1 SWAP2 OR SWAP1 SSTORE JUMP JUMPDEST PUSH2 0x125E PUSH2 0x151C JUMP JUMPDEST PUSH1 0x1 PUSH1 0x5 PUSH1 0x0 PUSH2 0x126C PUSH2 0x828 JUMP JUMPDEST DUP2 MSTORE PUSH1 0x20 DUP2 ADD SWAP2 SWAP1 SWAP2 MSTORE PUSH1 0x40 SWAP1 DUP2 ADD PUSH1 0x0 SWAP1 DUP2 KECCAK256 DUP1 SLOAD PUSH1 0xFF NOT AND SWAP4 ISZERO ISZERO SWAP4 SWAP1 SWAP4 OR SWAP1 SWAP3 SSTORE MLOAD PUSH32 0x9E87FAC88FF661F02D44F95383C817FECE4BCE600A3DAB7A54406878B965E752 SWAP2 SWAP1 LOG1 JUMP JUMPDEST PUSH1 0x1 PUSH1 0x1 PUSH1 0xA0 SHL SUB DUP2 AND PUSH1 0x0 SWAP1 DUP2 MSTORE PUSH1 0x1 DUP4 ADD PUSH1 0x20 MSTORE PUSH1 0x40 DUP2 KECCAK256 SLOAD ISZERO ISZERO PUSH2 0x7BE JUMP JUMPDEST PUSH1 0x0 PUSH2 0x7BE DUP4 DUP4 PUSH2 0x1566 JUMP JUMPDEST PUSH1 0x0 PUSH2 0x7C1 DUP3 SLOAD SWAP1 JUMP JUMPDEST PUSH2 0x12F9 DUP3 DUP3 PUSH2 0x9A2 JUMP JUMPDEST PUSH2 0x1345 JUMPI PUSH1 0x40 MLOAD PUSH3 0x461BCD PUSH1 0xE5 SHL DUP2 MSTORE PUSH1 0x20 PUSH1 0x4 DUP3 ADD MSTORE PUSH1 0x18 PUSH1 0x24 DUP3 ADD MSTORE PUSH32 0x526F6C653A20646F6573206E6F74206861766520726F6C650000000000000000 PUSH1 0x44 DUP3 ADD MSTORE PUSH1 0x64 ADD PUSH2 0xB9D JUMP JUMPDEST PUSH2 0x1372 DUP2 PUSH1 0x16 PUSH1 0x0 PUSH2 0x1356 DUP7 PUSH2 0xA73 JUMP JUMPDEST DUP2 MSTORE PUSH1 0x20 ADD SWAP1 DUP2 MSTORE PUSH1 0x20 ADD PUSH1 0x0 KECCAK256 PUSH2 0x1590 SWAP1 SWAP2 SWAP1 PUSH4 0xFFFFFFFF AND JUMP JUMPDEST POP PUSH2 0x137C DUP3 PUSH2 0x15A5 JUMP JUMPDEST PUSH1 0x40 MLOAD CALLER SWAP1 PUSH1 0x1 PUSH1 0x1 PUSH1 0xA0 SHL SUB DUP4 AND SWAP1 DUP5 SWAP1 PUSH32 0xF6391F5C32D9C69D2A47EA670B442974B53935D1EDC7FD64EB21E047A839171B SWAP1 PUSH1 0x0 SWAP1 LOG4 POP POP JUMP JUMPDEST PUSH2 0x13C0 PUSH2 0x63B JUMP JUMPDEST ISZERO PUSH2 0x141D JUMPI PUSH1 0x40 MLOAD PUSH3 0x461BCD PUSH1 0xE5 SHL DUP2 MSTORE PUSH1 0x20 PUSH1 0x4 DUP3 ADD MSTORE PUSH1 0x27 PUSH1 0x24 DUP3 ADD MSTORE PUSH32 0x426173653A20696E697469616C496D706C656D656E746174696F6E4861734265 PUSH1 0x44 DUP3 ADD MSTORE PUSH7 0x656E5365742829 PUSH1 0xC8 SHL PUSH1 0x64 DUP3 ADD MSTORE PUSH1 0x84 ADD PUSH2 0xB9D JUMP JUMPDEST PUSH1 0x1 PUSH1 0x5 PUSH1 0x0 PUSH2 0x142B PUSH2 0x6D4 JUMP JUMPDEST DUP2 MSTORE PUSH1 0x20 DUP2 ADD SWAP2 SWAP1 SWAP2 MSTORE PUSH1 0x40 ADD PUSH1 0x0 KECCAK256 DUP1 SLOAD PUSH1 0xFF NOT AND SWAP2 ISZERO ISZERO SWAP2 SWAP1 SWAP2 OR SWAP1 SSTORE POP JUMP JUMPDEST PUSH1 0xB PUSH1 0x0 PUSH2 0x1459 PUSH2 0x896 JUMP JUMPDEST DUP2 MSTORE PUSH1 0x20 DUP1 DUP3 ADD SWAP3 SWAP1 SWAP3 MSTORE PUSH1 0x40 ADD PUSH1 0x0 SWAP1 DUP2 KECCAK256 DUP1 SLOAD PUSH1 0x1 DUP2 ADD DUP3 SSTORE SWAP1 DUP3 MSTORE SWAP2 SWAP1 KECCAK256 ADD DUP1 SLOAD PUSH1 0x1 PUSH1 0x1 PUSH1 0xA0 SHL SUB NOT AND PUSH1 0x1 PUSH1 0x1 PUSH1 0xA0 SHL SUB SWAP3 SWAP1 SWAP3 AND SWAP2 SWAP1 SWAP2 OR SWAP1 SSTORE JUMP JUMPDEST PUSH1 0x0 PUSH2 0x7BE DUP4 PUSH1 0x1 PUSH1 0x1 PUSH1 0xA0 SHL SUB DUP5 AND PUSH2 0x15E1 JUMP JUMPDEST PUSH1 0x1 PUSH2 0x14BB DUP3 PUSH2 0xBA6 JUMP JUMPDEST LT PUSH2 0x6AD JUMPI PUSH2 0x6D0 DUP2 PUSH1 0x17 PUSH1 0x0 PUSH2 0x14D0 PUSH2 0xA24 JUMP JUMPDEST DUP2 MSTORE PUSH1 0x20 ADD SWAP1 DUP2 MSTORE PUSH1 0x20 ADD PUSH1 0x0 KECCAK256 PUSH2 0x1630 SWAP1 SWAP2 SWAP1 PUSH4 0xFFFFFFFF AND JUMP JUMPDEST PUSH2 0x14F4 PUSH2 0x163C JUMP JUMPDEST PUSH2 0x14FC PUSH2 0x1645 JUMP JUMPDEST PUSH2 0x7FA PUSH2 0x1516 PUSH1 0x0 DUP1 MLOAD PUSH1 0x20 PUSH2 0x1A2D DUP4 CODECOPY DUP2 MLOAD SWAP2 MSTORE PUSH2 0xA73 JUMP JUMPDEST ADDRESS PUSH2 0xEA8 JUMP JUMPDEST PUSH2 0x1524 PUSH2 0x811 JUMP JUMPDEST ISZERO PUSH2 0x639 JUMPI PUSH1 0x40 MLOAD PUSH3 0x461BCD PUSH1 0xE5 SHL DUP2 MSTORE PUSH1 0x20 PUSH1 0x4 DUP3 ADD MSTORE PUSH1 0x12 PUSH1 0x24 DUP3 ADD MSTORE PUSH18 0x5061757361626C653A207061757365642829 PUSH1 0x70 SHL PUSH1 0x44 DUP3 ADD MSTORE PUSH1 0x64 ADD PUSH2 0xB9D JUMP JUMPDEST PUSH1 0x0 DUP3 PUSH1 0x0 ADD DUP3 DUP2 SLOAD DUP2 LT PUSH2 0x157D JUMPI PUSH2 0x157D PUSH2 0x19C3 JUMP JUMPDEST SWAP1 PUSH1 0x0 MSTORE PUSH1 0x20 PUSH1 0x0 KECCAK256 ADD SLOAD SWAP1 POP SWAP3 SWAP2 POP POP JUMP JUMPDEST PUSH1 0x0 PUSH2 0x7BE DUP4 PUSH1 0x1 PUSH1 0x1 PUSH1 0xA0 SHL SUB DUP5 AND PUSH2 0x1684 JUMP JUMPDEST PUSH2 0x15AE DUP2 PUSH2 0xBA6 JUMP JUMPDEST PUSH1 0x0 SUB PUSH2 0x6AD JUMPI PUSH2 0x6D0 DUP2 PUSH1 0x17 PUSH1 0x0 PUSH2 0x15C5 PUSH2 0xA24 JUMP JUMPDEST DUP2 MSTORE PUSH1 0x20 ADD SWAP1 DUP2 MSTORE PUSH1 0x20 ADD PUSH1 0x0 KECCAK256 PUSH2 0x1777 SWAP1 SWAP2 SWAP1 PUSH4 0xFFFFFFFF AND JUMP JUMPDEST PUSH1 0x0 DUP2 DUP2 MSTORE PUSH1 0x1 DUP4 ADD PUSH1 0x20 MSTORE PUSH1 0x40 DUP2 KECCAK256 SLOAD PUSH2 0x1628 JUMPI POP DUP2 SLOAD PUSH1 0x1 DUP2 DUP2 ADD DUP5 SSTORE PUSH1 0x0 DUP5 DUP2 MSTORE PUSH1 0x20 DUP1 DUP3 KECCAK256 SWAP1 SWAP4 ADD DUP5 SWAP1 SSTORE DUP5 SLOAD DUP5 DUP3 MSTORE DUP3 DUP7 ADD SWAP1 SWAP4 MSTORE PUSH1 0x40 SWAP1 KECCAK256 SWAP2 SWAP1 SWAP2 SSTORE PUSH2 0x7C1 JUMP JUMPDEST POP PUSH1 0x0 PUSH2 0x7C1 JUMP JUMPDEST PUSH1 0x0 PUSH2 0x7BE DUP4 DUP4 PUSH2 0x15E1 JUMP JUMPDEST PUSH2 0x639 CALLER PUSH2 0x1147 JUMP JUMPDEST PUSH2 0x639 PUSH2 0x167E PUSH2 0x4FA PUSH1 0x40 MLOAD DUP1 PUSH1 0x40 ADD PUSH1 0x40 MSTORE DUP1 PUSH1 0x12 DUP2 MSTORE PUSH1 0x20 ADD PUSH18 0x44454641554C545F41444D494E5F524F4C45 PUSH1 0x70 SHL DUP2 MSTORE POP PUSH2 0xAC4 JUMP JUMPDEST CALLER PUSH2 0xEA8 JUMP JUMPDEST PUSH1 0x0 DUP2 DUP2 MSTORE PUSH1 0x1 DUP4 ADD PUSH1 0x20 MSTORE PUSH1 0x40 DUP2 KECCAK256 SLOAD DUP1 ISZERO PUSH2 0x176D JUMPI PUSH1 0x0 PUSH2 0x16A8 PUSH1 0x1 DUP4 PUSH2 0x19F5 JUMP JUMPDEST DUP6 SLOAD SWAP1 SWAP2 POP PUSH1 0x0 SWAP1 PUSH2 0x16BC SWAP1 PUSH1 0x1 SWAP1 PUSH2 0x19F5 JUMP JUMPDEST SWAP1 POP DUP2 DUP2 EQ PUSH2 0x1721 JUMPI PUSH1 0x0 DUP7 PUSH1 0x0 ADD DUP3 DUP2 SLOAD DUP2 LT PUSH2 0x16DC JUMPI PUSH2 0x16DC PUSH2 0x19C3 JUMP JUMPDEST SWAP1 PUSH1 0x0 MSTORE PUSH1 0x20 PUSH1 0x0 KECCAK256 ADD SLOAD SWAP1 POP DUP1 DUP8 PUSH1 0x0 ADD DUP5 DUP2 SLOAD DUP2 LT PUSH2 0x16FF JUMPI PUSH2 0x16FF PUSH2 0x19C3 JUMP JUMPDEST PUSH1 0x0 SWAP2 DUP3 MSTORE PUSH1 0x20 DUP1 DUP4 KECCAK256 SWAP1 SWAP2 ADD SWAP3 SWAP1 SWAP3 SSTORE SWAP2 DUP3 MSTORE PUSH1 0x1 DUP9 ADD SWAP1 MSTORE PUSH1 0x40 SWAP1 KECCAK256 DUP4 SWAP1 SSTORE JUMPDEST DUP6 SLOAD DUP7 SWAP1 DUP1 PUSH2 0x1732 JUMPI PUSH2 0x1732 PUSH2 0x1A16 JUMP JUMPDEST PUSH1 0x1 SWAP1 SUB DUP2 DUP2 SWAP1 PUSH1 0x0 MSTORE PUSH1 0x20 PUSH1 0x0 KECCAK256 ADD PUSH1 0x0 SWAP1 SSTORE SWAP1 SSTORE DUP6 PUSH1 0x1 ADD PUSH1 0x0 DUP7 DUP2 MSTORE PUSH1 0x20 ADD SWAP1 DUP2 MSTORE PUSH1 0x20 ADD PUSH1 0x0 KECCAK256 PUSH1 0x0 SWAP1 SSTORE PUSH1 0x1 SWAP4 POP POP POP POP PUSH2 0x7C1 JUMP JUMPDEST PUSH1 0x0 SWAP2 POP POP PUSH2 0x7C1 JUMP JUMPDEST PUSH1 0x0 PUSH2 0x7BE DUP4 DUP4 PUSH2 0x1684 JUMP JUMPDEST DUP1 CALLDATALOAD PUSH1 0x1 PUSH1 0x1 PUSH1 0xA0 SHL SUB DUP2 AND DUP2 EQ PUSH2 0x179A JUMPI PUSH1 0x0 DUP1 REVERT JUMPDEST SWAP2 SWAP1 POP JUMP JUMPDEST PUSH1 0x0 PUSH1 0x20 DUP3 DUP5 SUB SLT ISZERO PUSH2 0x17B1 JUMPI PUSH1 0x0 DUP1 REVERT JUMPDEST PUSH2 0x7BE DUP3 PUSH2 0x1783 JUMP JUMPDEST PUSH1 0x0 DUP1 PUSH1 0x40 DUP4 DUP6 SUB SLT ISZERO PUSH2 0x17CD JUMPI PUSH1 0x0 DUP1 REVERT JUMPDEST POP POP DUP1 CALLDATALOAD SWAP3 PUSH1 0x20 SWAP1 SWAP2 ADD CALLDATALOAD SWAP2 POP JUMP JUMPDEST PUSH1 0x0 PUSH1 0x20 DUP3 DUP5 SUB SLT ISZERO PUSH2 0x17EE JUMPI PUSH1 0x0 DUP1 REVERT JUMPDEST POP CALLDATALOAD SWAP2 SWAP1 POP JUMP JUMPDEST PUSH1 0x0 DUP1 PUSH1 0x40 DUP4 DUP6 SUB SLT ISZERO PUSH2 0x1808 JUMPI PUSH1 0x0 DUP1 REVERT JUMPDEST DUP3 CALLDATALOAD SWAP2 POP PUSH2 0x1818 PUSH1 0x20 DUP5 ADD PUSH2 0x1783 JUMP JUMPDEST SWAP1 POP SWAP3 POP SWAP3 SWAP1 POP JUMP JUMPDEST PUSH4 0x4E487B71 PUSH1 0xE0 SHL PUSH1 0x0 MSTORE PUSH1 0x41 PUSH1 0x4 MSTORE PUSH1 0x24 PUSH1 0x0 REVERT JUMPDEST PUSH1 0x0 PUSH8 0xFFFFFFFFFFFFFFFF DUP1 DUP5 GT ISZERO PUSH2 0x1852 JUMPI PUSH2 0x1852 PUSH2 0x1821 JUMP JUMPDEST PUSH1 0x40 MLOAD PUSH1 0x1F DUP6 ADD PUSH1 0x1F NOT SWAP1 DUP2 AND PUSH1 0x3F ADD AND DUP2 ADD SWAP1 DUP3 DUP3 GT DUP2 DUP4 LT OR ISZERO PUSH2 0x187A JUMPI PUSH2 0x187A PUSH2 0x1821 JUMP JUMPDEST DUP2 PUSH1 0x40 MSTORE DUP1 SWAP4 POP DUP6 DUP2 MSTORE DUP7 DUP7 DUP7 ADD GT ISZERO PUSH2 0x1893 JUMPI PUSH1 0x0 DUP1 REVERT JUMPDEST DUP6 DUP6 PUSH1 0x20 DUP4 ADD CALLDATACOPY PUSH1 0x0 PUSH1 0x20 DUP8 DUP4 ADD ADD MSTORE POP POP POP SWAP4 SWAP3 POP POP POP JUMP JUMPDEST PUSH1 0x0 DUP1 PUSH1 0x40 DUP4 DUP6 SUB SLT ISZERO PUSH2 0x18C0 JUMPI PUSH1 0x0 DUP1 REVERT JUMPDEST PUSH2 0x18C9 DUP4 PUSH2 0x1783 JUMP JUMPDEST SWAP2 POP PUSH1 0x20 DUP4 ADD CALLDATALOAD PUSH8 0xFFFFFFFFFFFFFFFF DUP2 GT ISZERO PUSH2 0x18E5 JUMPI PUSH1 0x0 DUP1 REVERT JUMPDEST DUP4 ADD PUSH1 0x1F DUP2 ADD DUP6 SGT PUSH2 0x18F6 JUMPI PUSH1 0x0 DUP1 REVERT JUMPDEST PUSH2 0x1905 DUP6 DUP3 CALLDATALOAD PUSH1 0x20 DUP5 ADD PUSH2 0x1837 JUMP JUMPDEST SWAP2 POP POP SWAP3 POP SWAP3 SWAP1 POP JUMP JUMPDEST PUSH1 0x0 JUMPDEST DUP4 DUP2 LT ISZERO PUSH2 0x192A JUMPI DUP2 DUP2 ADD MLOAD DUP4 DUP3 ADD MSTORE PUSH1 0x20 ADD PUSH2 0x1912 JUMP JUMPDEST POP POP PUSH1 0x0 SWAP2 ADD MSTORE JUMP JUMPDEST PUSH1 0x0 DUP2 MLOAD DUP1 DUP5 MSTORE PUSH2 0x194B DUP2 PUSH1 0x20 DUP7 ADD PUSH1 0x20 DUP7 ADD PUSH2 0x190F JUMP JUMPDEST PUSH1 0x1F ADD PUSH1 0x1F NOT AND SWAP3 SWAP1 SWAP3 ADD PUSH1 0x20 ADD SWAP3 SWAP2 POP POP JUMP JUMPDEST PUSH1 0x20 DUP2 MSTORE PUSH1 0x0 PUSH2 0x7BE PUSH1 0x20 DUP4 ADD DUP5 PUSH2 0x1933 JUMP JUMPDEST PUSH1 0x0 PUSH1 0x20 DUP3 DUP5 SUB SLT ISZERO PUSH2 0x1984 JUMPI PUSH1 0x0 DUP1 REVERT JUMPDEST DUP2 CALLDATALOAD PUSH8 0xFFFFFFFFFFFFFFFF DUP2 GT ISZERO PUSH2 0x199B JUMPI PUSH1 0x0 DUP1 REVERT JUMPDEST DUP3 ADD PUSH1 0x1F DUP2 ADD DUP5 SGT PUSH2 0x19AC JUMPI PUSH1 0x0 DUP1 REVERT JUMPDEST PUSH2 0x19BB DUP5 DUP3 CALLDATALOAD PUSH1 0x20 DUP5 ADD PUSH2 0x1837 JUMP JUMPDEST SWAP5 SWAP4 POP POP POP POP JUMP JUMPDEST PUSH4 0x4E487B71 PUSH1 0xE0 SHL PUSH1 0x0 MSTORE PUSH1 0x32 PUSH1 0x4 MSTORE PUSH1 0x24 PUSH1 0x0 REVERT JUMPDEST PUSH1 0x0 DUP3 MLOAD PUSH2 0x19EB DUP2 DUP5 PUSH1 0x20 DUP8 ADD PUSH2 0x190F JUMP JUMPDEST SWAP2 SWAP1 SWAP2 ADD SWAP3 SWAP2 POP POP JUMP JUMPDEST DUP2 DUP2 SUB DUP2 DUP2 GT ISZERO PUSH2 0x7C1 JUMPI PUSH4 0x4E487B71 PUSH1 0xE0 SHL PUSH1 0x0 MSTORE PUSH1 0x11 PUSH1 0x4 MSTORE PUSH1 0x24 PUSH1 0x0 REVERT JUMPDEST PUSH4 0x4E487B71 PUSH1 0xE0 SHL PUSH1 0x0 MSTORE PUSH1 0x31 PUSH1 0x4 MSTORE PUSH1 0x24 PUSH1 0x0 REVERT INVALID 0xB4 0xDD PUSH28 0x7910623C7C742FEBFBC4566BDEC285F874FAA2742C472ACD10E26BE 0x29 LOG2 PUSH5 0x6970667358 0x22 SLT KECCAK256 0x4E 0x27 0xD7 SSTORE DUP16 DUP11 EXTCODEHASH 0xEE PUSH21 0x86FFAB84D04F33015A4636DB0C2D3603FDEBC2A625 0x27 0xE8 PUSH5 0x736F6C6343 STOP ADDMOD SGT STOP CALLER "
		},
		"gasEstimates": {
			"creation": {
				"codeDepositCost": "1357200",
				"executionCost": "1417",
				"totalCost": "1358617"
			},
			"external": {
				"": "infinite",
				"defaultAdminRoleKey()": "infinite",
				"getRoleAdmin(bytes32)": "2827",
				"grantRole(bytes32,address)": "infinite",
				"hasRole(bytes32,address)": "infinite",
				"hash(string)": "infinite",
				"implementation()": "2768",
				"implementationKey()": "517",
				"implementationTimeline(uint256)": "5029",
				"implementationTimelineKey()": "468",
				"implementationTimelineLength()": "2665",
				"initialImplementationHasBeenSet()": "2698",
				"initialImplementationHasBeenSetKey()": "499",
				"initialize()": "infinite",
				"initialized()": "2718",
				"initializedKey()": "452",
				"lowLeveCall(address,bytes)": "infinite",
				"members(bytes32,uint256)": "infinite",
				"membersLength(bytes32)": "infinite",
				"owner()": "2733",
				"ownerKey()": "452",
				"pause()": "infinite",
				"paused()": "475",
				"pausedKey()": "451",
				"renounceOwnership()": "infinite",
				"requireRole(bytes32,address)": "infinite",
				"revokeRole(bytes32,address)": "infinite",
				"roleAdminKey(bytes32)": "583",
				"roleKey(bytes32)": "627",
				"roles(uint256)": "infinite",
				"rolesKey()": "474",
				"rolesLength()": "2764",
				"setInitialImplementation(address)": "infinite",
				"setRoleAdmin(bytes32,bytes32)": "infinite",
				"transferOwnership(address)": "infinite",
				"unpause()": "infinite",
				"upgrade(address)": "730"
			},
			"internal": {
				"_initialize()": "infinite"
			}
		},
		"methodIdentifiers": {
			"defaultAdminRoleKey()": "1e18f5c9",
			"getRoleAdmin(bytes32)": "248a9ca3",
			"grantRole(bytes32,address)": "2f2ff15d",
			"hasRole(bytes32,address)": "91d14854",
			"hash(string)": "b411ee94",
			"implementation()": "5c60da1b",
			"implementationKey()": "f4358896",
			"implementationTimeline(uint256)": "780e9368",
			"implementationTimelineKey()": "667d4359",
			"implementationTimelineLength()": "985fcf9c",
			"initialImplementationHasBeenSet()": "0717f3e6",
			"initialImplementationHasBeenSetKey()": "2145b31a",
			"initialize()": "8129fc1c",
			"initialized()": "158ef93e",
			"initializedKey()": "6676e926",
			"lowLeveCall(address,bytes)": "34c11fbc",
			"members(bytes32,uint256)": "92beb2a1",
			"membersLength(bytes32)": "d52f8024",
			"owner()": "8da5cb5b",
			"ownerKey()": "b949048b",
			"pause()": "8456cb59",
			"paused()": "5c975abb",
			"pausedKey()": "65ea2aa6",
			"renounceOwnership()": "715018a6",
			"requireRole(bytes32,address)": "d09a20c5",
			"revokeRole(bytes32,address)": "d547741f",
			"roleAdminKey(bytes32)": "bccf0e5e",
			"roleKey(bytes32)": "a657a47e",
			"roles(uint256)": "bfda4a49",
			"rolesKey()": "9db80bf0",
			"rolesLength()": "9dce27ae",
			"setInitialImplementation(address)": "fdb16540",
			"setRoleAdmin(bytes32,bytes32)": "1e4e0091",
			"transferOwnership(address)": "f2fde38b",
			"unpause()": "3f4ba83a",
			"upgrade(address)": "0900f010"
		}
	},
	"abi": [
		{
			"inputs": [
				{
					"internalType": "address",
					"name": "account",
					"type": "address"
				},
				{
					"internalType": "bytes32",
					"name": "roleRequired",
					"type": "bytes32"
				}
			],
			"name": "Unauthorized",
			"type": "error"
		},
		{
			"anonymous": false,
			"inputs": [
				{
					"indexed": true,
					"internalType": "address",
					"name": "target",
					"type": "address"
				},
				{
					"indexed": true,
					"internalType": "bytes",
					"name": "data",
					"type": "bytes"
				},
				{
					"indexed": true,
					"internalType": "bytes",
					"name": "response",
					"type": "bytes"
				}
			],
			"name": "LowLevelCall",
			"type": "event"
		},
		{
			"anonymous": false,
			"inputs": [
				{
					"indexed": true,
					"internalType": "address",
					"name": "oldOwner",
					"type": "address"
				},
				{
					"indexed": true,
					"internalType": "address",
					"name": "newOwner",
					"type": "address"
				}
			],
			"name": "OwnershipTransferred",
			"type": "event"
		},
		{
			"anonymous": false,
			"inputs": [],
			"name": "Paused",
			"type": "event"
		},
		{
			"anonymous": false,
			"inputs": [
				{
					"indexed": true,
					"internalType": "bytes32",
					"name": "role",
					"type": "bytes32"
				},
				{
					"indexed": true,
					"internalType": "bytes32",
					"name": "oldAdminRole",
					"type": "bytes32"
				},
				{
					"indexed": true,
					"internalType": "bytes32",
					"name": "newAdminRole",
					"type": "bytes32"
				}
			],
			"name": "RoleAdminChanged",
			"type": "event"
		},
		{
			"anonymous": false,
			"inputs": [
				{
					"indexed": true,
					"internalType": "bytes32",
					"name": "role",
					"type": "bytes32"
				},
				{
					"indexed": true,
					"internalType": "address",
					"name": "account",
					"type": "address"
				},
				{
					"indexed": true,
					"internalType": "address",
					"name": "sender",
					"type": "address"
				}
			],
			"name": "RoleGranted",
			"type": "event"
		},
		{
			"anonymous": false,
			"inputs": [
				{
					"indexed": true,
					"internalType": "bytes32",
					"name": "role",
					"type": "bytes32"
				},
				{
					"indexed": true,
					"internalType": "address",
					"name": "account",
					"type": "address"
				},
				{
					"indexed": true,
					"internalType": "address",
					"name": "sender",
					"type": "address"
				}
			],
			"name": "RoleRevoked",
			"type": "event"
		},
		{
			"anonymous": false,
			"inputs": [],
			"name": "Unpaused",
			"type": "event"
		},
		{
			"anonymous": false,
			"inputs": [
				{
					"indexed": true,
					"internalType": "address",
					"name": "implementation",
					"type": "address"
				}
			],
			"name": "Upgraded",
			"type": "event"
		},
		{
			"stateMutability": "payable",
			"type": "fallback"
		},
		{
			"inputs": [],
			"name": "defaultAdminRoleKey",
			"outputs": [
				{
					"internalType": "bytes32",
					"name": "",
					"type": "bytes32"
				}
			],
			"stateMutability": "pure",
			"type": "function"
		},
		{
			"inputs": [
				{
					"internalType": "bytes32",
					"name": "role",
					"type": "bytes32"
				}
			],
			"name": "getRoleAdmin",
			"outputs": [
				{
					"internalType": "bytes32",
					"name": "",
					"type": "bytes32"
				}
			],
			"stateMutability": "view",
			"type": "function"
		},
		{
			"inputs": [
				{
					"internalType": "bytes32",
					"name": "role",
					"type": "bytes32"
				},
				{
					"internalType": "address",
					"name": "account",
					"type": "address"
				}
			],
			"name": "grantRole",
			"outputs": [],
			"stateMutability": "nonpayable",
			"type": "function"
		},
		{
			"inputs": [
				{
					"internalType": "bytes32",
					"name": "role",
					"type": "bytes32"
				},
				{
					"internalType": "address",
					"name": "account",
					"type": "address"
				}
			],
			"name": "hasRole",
			"outputs": [
				{
					"internalType": "bool",
					"name": "",
					"type": "bool"
				}
			],
			"stateMutability": "view",
			"type": "function"
		},
		{
			"inputs": [
				{
					"internalType": "string",
					"name": "dat",
					"type": "string"
				}
			],
			"name": "hash",
			"outputs": [
				{
					"internalType": "bytes32",
					"name": "",
					"type": "bytes32"
				}
			],
			"stateMutability": "pure",
			"type": "function"
		},
		{
			"inputs": [],
			"name": "implementation",
			"outputs": [
				{
					"internalType": "address",
					"name": "",
					"type": "address"
				}
			],
			"stateMutability": "view",
			"type": "function"
		},
		{
			"inputs": [],
			"name": "implementationKey",
			"outputs": [
				{
					"internalType": "bytes32",
					"name": "",
					"type": "bytes32"
				}
			],
			"stateMutability": "pure",
			"type": "function"
		},
		{
			"inputs": [
				{
					"internalType": "uint256",
					"name": "implementationId",
					"type": "uint256"
				}
			],
			"name": "implementationTimeline",
			"outputs": [
				{
					"internalType": "address",
					"name": "",
					"type": "address"
				}
			],
			"stateMutability": "view",
			"type": "function"
		},
		{
			"inputs": [],
			"name": "implementationTimelineKey",
			"outputs": [
				{
					"internalType": "bytes32",
					"name": "",
					"type": "bytes32"
				}
			],
			"stateMutability": "pure",
			"type": "function"
		},
		{
			"inputs": [],
			"name": "implementationTimelineLength",
			"outputs": [
				{
					"internalType": "uint256",
					"name": "",
					"type": "uint256"
				}
			],
			"stateMutability": "view",
			"type": "function"
		},
		{
			"inputs": [],
			"name": "initialImplementationHasBeenSet",
			"outputs": [
				{
					"internalType": "bool",
					"name": "",
					"type": "bool"
				}
			],
			"stateMutability": "view",
			"type": "function"
		},
		{
			"inputs": [],
			"name": "initialImplementationHasBeenSetKey",
			"outputs": [
				{
					"internalType": "bytes32",
					"name": "",
					"type": "bytes32"
				}
			],
			"stateMutability": "pure",
			"type": "function"
		},
		{
			"inputs": [],
			"name": "initialize",
			"outputs": [],
			"stateMutability": "nonpayable",
			"type": "function"
		},
		{
			"inputs": [],
			"name": "initialized",
			"outputs": [
				{
					"internalType": "bool",
					"name": "",
					"type": "bool"
				}
			],
			"stateMutability": "view",
			"type": "function"
		},
		{
			"inputs": [],
			"name": "initializedKey",
			"outputs": [
				{
					"internalType": "bytes32",
					"name": "",
					"type": "bytes32"
				}
			],
			"stateMutability": "pure",
			"type": "function"
		},
		{
			"inputs": [
				{
					"internalType": "address",
					"name": "target",
					"type": "address"
				},
				{
					"internalType": "bytes",
					"name": "data",
					"type": "bytes"
				}
			],
			"name": "lowLeveCall",
			"outputs": [
				{
					"internalType": "bytes",
					"name": "",
					"type": "bytes"
				}
			],
			"stateMutability": "nonpayable",
			"type": "function"
		},
		{
			"inputs": [
				{
					"internalType": "bytes32",
					"name": "role",
					"type": "bytes32"
				},
				{
					"internalType": "uint256",
					"name": "id",
					"type": "uint256"
				}
			],
			"name": "members",
			"outputs": [
				{
					"internalType": "address",
					"name": "",
					"type": "address"
				}
			],
			"stateMutability": "view",
			"type": "function"
		},
		{
			"inputs": [
				{
					"internalType": "bytes32",
					"name": "role",
					"type": "bytes32"
				}
			],
			"name": "membersLength",
			"outputs": [
				{
					"internalType": "uint256",
					"name": "",
					"type": "uint256"
				}
			],
			"stateMutability": "view",
			"type": "function"
		},
		{
			"inputs": [],
			"name": "owner",
			"outputs": [
				{
					"internalType": "address",
					"name": "",
					"type": "address"
				}
			],
			"stateMutability": "view",
			"type": "function"
		},
		{
			"inputs": [],
			"name": "ownerKey",
			"outputs": [
				{
					"internalType": "bytes32",
					"name": "",
					"type": "bytes32"
				}
			],
			"stateMutability": "pure",
			"type": "function"
		},
		{
			"inputs": [],
			"name": "pause",
			"outputs": [],
			"stateMutability": "nonpayable",
			"type": "function"
		},
		{
			"inputs": [],
			"name": "paused",
			"outputs": [
				{
					"internalType": "bool",
					"name": "",
					"type": "bool"
				}
			],
			"stateMutability": "view",
			"type": "function"
		},
		{
			"inputs": [],
			"name": "pausedKey",
			"outputs": [
				{
					"internalType": "bytes32",
					"name": "",
					"type": "bytes32"
				}
			],
			"stateMutability": "pure",
			"type": "function"
		},
		{
			"inputs": [],
			"name": "renounceOwnership",
			"outputs": [],
			"stateMutability": "nonpayable",
			"type": "function"
		},
		{
			"inputs": [
				{
					"internalType": "bytes32",
					"name": "role",
					"type": "bytes32"
				},
				{
					"internalType": "address",
					"name": "account",
					"type": "address"
				}
			],
			"name": "requireRole",
			"outputs": [],
			"stateMutability": "view",
			"type": "function"
		},
		{
			"inputs": [
				{
					"internalType": "bytes32",
					"name": "role",
					"type": "bytes32"
				},
				{
					"internalType": "address",
					"name": "account",
					"type": "address"
				}
			],
			"name": "revokeRole",
			"outputs": [],
			"stateMutability": "nonpayable",
			"type": "function"
		},
		{
			"inputs": [
				{
					"internalType": "bytes32",
					"name": "role",
					"type": "bytes32"
				}
			],
			"name": "roleAdminKey",
			"outputs": [
				{
					"internalType": "bytes32",
					"name": "",
					"type": "bytes32"
				}
			],
			"stateMutability": "pure",
			"type": "function"
		},
		{
			"inputs": [
				{
					"internalType": "bytes32",
					"name": "role",
					"type": "bytes32"
				}
			],
			"name": "roleKey",
			"outputs": [
				{
					"internalType": "bytes32",
					"name": "",
					"type": "bytes32"
				}
			],
			"stateMutability": "pure",
			"type": "function"
		},
		{
			"inputs": [
				{
					"internalType": "uint256",
					"name": "id",
					"type": "uint256"
				}
			],
			"name": "roles",
			"outputs": [
				{
					"internalType": "bytes32",
					"name": "",
					"type": "bytes32"
				}
			],
			"stateMutability": "view",
			"type": "function"
		},
		{
			"inputs": [],
			"name": "rolesKey",
			"outputs": [
				{
					"internalType": "bytes32",
					"name": "",
					"type": "bytes32"
				}
			],
			"stateMutability": "pure",
			"type": "function"
		},
		{
			"inputs": [],
			"name": "rolesLength",
			"outputs": [
				{
					"internalType": "uint256",
					"name": "",
					"type": "uint256"
				}
			],
			"stateMutability": "view",
			"type": "function"
		},
		{
			"inputs": [
				{
					"internalType": "address",
					"name": "implementation",
					"type": "address"
				}
			],
			"name": "setInitialImplementation",
			"outputs": [],
			"stateMutability": "nonpayable",
			"type": "function"
		},
		{
			"inputs": [
				{
					"internalType": "bytes32",
					"name": "role",
					"type": "bytes32"
				},
				{
					"internalType": "bytes32",
					"name": "newRoleAdmin",
					"type": "bytes32"
				}
			],
			"name": "setRoleAdmin",
			"outputs": [],
			"stateMutability": "nonpayable",
			"type": "function"
		},
		{
			"inputs": [
				{
					"internalType": "address",
					"name": "newOwner",
					"type": "address"
				}
			],
			"name": "transferOwnership",
			"outputs": [],
			"stateMutability": "nonpayable",
			"type": "function"
		},
		{
			"inputs": [],
			"name": "unpause",
			"outputs": [],
			"stateMutability": "nonpayable",
			"type": "function"
		},
		{
			"inputs": [
				{
					"internalType": "address",
					"name": "implementation",
					"type": "address"
				}
			],
			"name": "upgrade",
			"outputs": [],
			"stateMutability": "nonpayable",
			"type": "function"
		},
		{
			"stateMutability": "payable",
			"type": "receive"
		}
	]
}