{
	"code/contract/sol/native/utils/math/TestableFixedPointArithmeticsMathLib.sol": {
		"TestableFixedPointArithmeticsMathLibrary": {
			"abi": [
				{
					"inputs": [
						{
							"internalType": "uint8",
							"name": "decimals",
							"type": "uint8"
						}
					],
					"name": "maximumRepresentableEntireValue",
					"outputs": [
						{
							"internalType": "uint256",
							"name": "R_",
							"type": "uint256"
						}
					],
					"stateMutability": "pure",
					"type": "function"
				}
			],
			"devdoc": {
				"kind": "dev",
				"methods": {},
				"version": 1
			},
			"evm": {
				"assembly": "    /* \"code/contract/sol/native/utils/math/TestableFixedPointArithmeticsMathLib.sol\":115:363  contract TestableFixedPointArithmeticsMathLibrary {... */\n  mstore(0x40, 0x80)\n  callvalue\n  dup1\n  iszero\n  tag_1\n  jumpi\n  0x00\n  dup1\n  revert\ntag_1:\n  pop\n  dataSize(sub_0)\n  dup1\n  dataOffset(sub_0)\n  0x00\n  codecopy\n  0x00\n  return\nstop\n\nsub_0: assembly {\n        /* \"code/contract/sol/native/utils/math/TestableFixedPointArithmeticsMathLib.sol\":115:363  contract TestableFixedPointArithmeticsMathLibrary {... */\n      mstore(0x40, 0x80)\n      callvalue\n      dup1\n      iszero\n      tag_1\n      jumpi\n      0x00\n      dup1\n      revert\n    tag_1:\n      pop\n      jumpi(tag_2, lt(calldatasize, 0x04))\n      shr(0xe0, calldataload(0x00))\n      dup1\n      0x6673c40d\n      eq\n      tag_3\n      jumpi\n    tag_2:\n      0x00\n      dup1\n      revert\n        /* \"code/contract/sol/native/utils/math/TestableFixedPointArithmeticsMathLib.sol\":171:361  function maximumRepresentableEntireValue(uint8 decimals) external pure returns (uint256 R_) {... */\n    tag_3:\n      tag_4\n      0x04\n      dup1\n      calldatasize\n      sub\n      dup2\n      add\n      swap1\n      tag_5\n      swap2\n      swap1\n      tag_6\n      jump\t// in\n    tag_5:\n      tag_7\n      jump\t// in\n    tag_4:\n      mload(0x40)\n      tag_8\n      swap2\n      swap1\n      tag_9\n      jump\t// in\n    tag_8:\n      mload(0x40)\n      dup1\n      swap2\n      sub\n      swap1\n      return\n    tag_7:\n        /* \"code/contract/sol/native/utils/math/TestableFixedPointArithmeticsMathLib.sol\":251:261  uint256 R_ */\n      0x00\n        /* \"code/contract/sol/native/utils/math/TestableFixedPointArithmeticsMathLib.sol\":280:354  FixedPointArithmeticsMathLibrary.maximumRepresentableEntireValue(decimals) */\n      tag_11\n        /* \"code/contract/sol/native/utils/math/TestableFixedPointArithmeticsMathLib.sol\":345:353  decimals */\n      dup3\n        /* \"code/contract/sol/native/utils/math/TestableFixedPointArithmeticsMathLib.sol\":280:344  FixedPointArithmeticsMathLibrary.maximumRepresentableEntireValue */\n      tag_12\n        /* \"code/contract/sol/native/utils/math/TestableFixedPointArithmeticsMathLib.sol\":280:354  FixedPointArithmeticsMathLibrary.maximumRepresentableEntireValue(decimals) */\n      jump\t// in\n    tag_11:\n        /* \"code/contract/sol/native/utils/math/TestableFixedPointArithmeticsMathLib.sol\":273:354  return FixedPointArithmeticsMathLibrary.maximumRepresentableEntireValue(decimals) */\n      swap1\n      pop\n        /* \"code/contract/sol/native/utils/math/TestableFixedPointArithmeticsMathLib.sol\":171:361  function maximumRepresentableEntireValue(uint8 decimals) external pure returns (uint256 R_) {... */\n      swap2\n      swap1\n      pop\n      jump\t// out\n        /* \"code/contract/sol/native/utils/math/FixedPointArithmeticsMathLibrary.sol\":213:360  function maximumRepresentableEntireValue(uint8 decimals) internal pure returns (uint256 R_) {... */\n    tag_12:\n        /* \"code/contract/sol/native/utils/math/FixedPointArithmeticsMathLibrary.sol\":293:303  uint256 R_ */\n      0x00\n        /* \"code/contract/sol/native/utils/math/FixedPointArithmeticsMathLibrary.sol\":344:352  decimals */\n      dup2\n        /* \"code/contract/sol/native/utils/math/FixedPointArithmeticsMathLibrary.sol\":338:340  10 */\n      0x0a\n        /* \"code/contract/sol/native/utils/math/FixedPointArithmeticsMathLibrary.sol\":338:352  10 ** decimals */\n      tag_14\n      swap2\n      swap1\n      tag_15\n      jump\t// in\n    tag_14:\n        /* \"code/contract/sol/native/utils/math/FixedPointArithmeticsMathLibrary.sol\":322:334  uint256Max() */\n      tag_16\n        /* \"code/contract/sol/native/utils/math/FixedPointArithmeticsMathLibrary.sol\":322:332  uint256Max */\n      tag_17\n        /* \"code/contract/sol/native/utils/math/FixedPointArithmeticsMathLibrary.sol\":322:334  uint256Max() */\n      jump\t// in\n    tag_16:\n        /* \"code/contract/sol/native/utils/math/FixedPointArithmeticsMathLibrary.sol\":322:353  uint256Max() / (10 ** decimals) */\n      tag_18\n      swap2\n      swap1\n      tag_19\n      jump\t// in\n    tag_18:\n        /* \"code/contract/sol/native/utils/math/FixedPointArithmeticsMathLibrary.sol\":315:353  return uint256Max() / (10 ** decimals) */\n      swap1\n      pop\n        /* \"code/contract/sol/native/utils/math/FixedPointArithmeticsMathLibrary.sol\":213:360  function maximumRepresentableEntireValue(uint8 decimals) internal pure returns (uint256 R_) {... */\n      swap2\n      swap1\n      pop\n      jump\t// out\n        /* \"code/contract/sol/native/utils/math/FixedPointArithmeticsMathLibrary.sol\":366:461  function uint256Max() internal pure returns (uint256) {... */\n    tag_17:\n        /* \"code/contract/sol/native/utils/math/FixedPointArithmeticsMathLibrary.sol\":411:418  uint256 */\n      0x00\n        /* \"code/contract/sol/native/utils/math/FixedPointArithmeticsMathLibrary.sol\":437:454  type(uint256).max */\n      0xffffffffffffffffffffffffffffffffffffffffffffffffffffffffffffffff\n        /* \"code/contract/sol/native/utils/math/FixedPointArithmeticsMathLibrary.sol\":430:454  return type(uint256).max */\n      swap1\n      pop\n        /* \"code/contract/sol/native/utils/math/FixedPointArithmeticsMathLibrary.sol\":366:461  function uint256Max() internal pure returns (uint256) {... */\n      swap1\n      jump\t// out\n        /* \"#utility.yul\":88:205   */\n    tag_22:\n        /* \"#utility.yul\":197:198   */\n      0x00\n        /* \"#utility.yul\":194:195   */\n      dup1\n        /* \"#utility.yul\":187:199   */\n      revert\n        /* \"#utility.yul\":334:420   */\n    tag_24:\n        /* \"#utility.yul\":369:376   */\n      0x00\n        /* \"#utility.yul\":409:413   */\n      0xff\n        /* \"#utility.yul\":402:407   */\n      dup3\n        /* \"#utility.yul\":398:414   */\n      and\n        /* \"#utility.yul\":387:414   */\n      swap1\n      pop\n        /* \"#utility.yul\":334:420   */\n      swap2\n      swap1\n      pop\n      jump\t// out\n        /* \"#utility.yul\":426:544   */\n    tag_25:\n        /* \"#utility.yul\":497:519   */\n      tag_40\n        /* \"#utility.yul\":513:518   */\n      dup2\n        /* \"#utility.yul\":497:519   */\n      tag_24\n      jump\t// in\n    tag_40:\n        /* \"#utility.yul\":490:495   */\n      dup2\n        /* \"#utility.yul\":487:520   */\n      eq\n        /* \"#utility.yul\":477:538   */\n      tag_41\n      jumpi\n        /* \"#utility.yul\":534:535   */\n      0x00\n        /* \"#utility.yul\":531:532   */\n      dup1\n        /* \"#utility.yul\":524:536   */\n      revert\n        /* \"#utility.yul\":477:538   */\n    tag_41:\n        /* \"#utility.yul\":426:544   */\n      pop\n      jump\t// out\n        /* \"#utility.yul\":550:685   */\n    tag_26:\n        /* \"#utility.yul\":594:599   */\n      0x00\n        /* \"#utility.yul\":632:638   */\n      dup2\n        /* \"#utility.yul\":619:639   */\n      calldataload\n        /* \"#utility.yul\":610:639   */\n      swap1\n      pop\n        /* \"#utility.yul\":648:679   */\n      tag_43\n        /* \"#utility.yul\":673:678   */\n      dup2\n        /* \"#utility.yul\":648:679   */\n      tag_25\n      jump\t// in\n    tag_43:\n        /* \"#utility.yul\":550:685   */\n      swap3\n      swap2\n      pop\n      pop\n      jump\t// out\n        /* \"#utility.yul\":691:1016   */\n    tag_6:\n        /* \"#utility.yul\":748:754   */\n      0x00\n        /* \"#utility.yul\":797:799   */\n      0x20\n        /* \"#utility.yul\":785:794   */\n      dup3\n        /* \"#utility.yul\":776:783   */\n      dup5\n        /* \"#utility.yul\":772:795   */\n      sub\n        /* \"#utility.yul\":768:800   */\n      slt\n        /* \"#utility.yul\":765:884   */\n      iszero\n      tag_45\n      jumpi\n        /* \"#utility.yul\":803:882   */\n      tag_46\n      tag_22\n      jump\t// in\n    tag_46:\n        /* \"#utility.yul\":765:884   */\n    tag_45:\n        /* \"#utility.yul\":923:924   */\n      0x00\n        /* \"#utility.yul\":948:999   */\n      tag_47\n        /* \"#utility.yul\":991:998   */\n      dup5\n        /* \"#utility.yul\":982:988   */\n      dup3\n        /* \"#utility.yul\":971:980   */\n      dup6\n        /* \"#utility.yul\":967:989   */\n      add\n        /* \"#utility.yul\":948:999   */\n      tag_26\n      jump\t// in\n    tag_47:\n        /* \"#utility.yul\":938:999   */\n      swap2\n      pop\n        /* \"#utility.yul\":894:1009   */\n      pop\n        /* \"#utility.yul\":691:1016   */\n      swap3\n      swap2\n      pop\n      pop\n      jump\t// out\n        /* \"#utility.yul\":1022:1099   */\n    tag_27:\n        /* \"#utility.yul\":1059:1066   */\n      0x00\n        /* \"#utility.yul\":1088:1093   */\n      dup2\n        /* \"#utility.yul\":1077:1093   */\n      swap1\n      pop\n        /* \"#utility.yul\":1022:1099   */\n      swap2\n      swap1\n      pop\n      jump\t// out\n        /* \"#utility.yul\":1105:1223   */\n    tag_28:\n        /* \"#utility.yul\":1192:1216   */\n      tag_50\n        /* \"#utility.yul\":1210:1215   */\n      dup2\n        /* \"#utility.yul\":1192:1216   */\n      tag_27\n      jump\t// in\n    tag_50:\n        /* \"#utility.yul\":1187:1190   */\n      dup3\n        /* \"#utility.yul\":1180:1217   */\n      mstore\n        /* \"#utility.yul\":1105:1223   */\n      pop\n      pop\n      jump\t// out\n        /* \"#utility.yul\":1229:1451   */\n    tag_9:\n        /* \"#utility.yul\":1322:1326   */\n      0x00\n        /* \"#utility.yul\":1360:1362   */\n      0x20\n        /* \"#utility.yul\":1349:1358   */\n      dup3\n        /* \"#utility.yul\":1345:1363   */\n      add\n        /* \"#utility.yul\":1337:1363   */\n      swap1\n      pop\n        /* \"#utility.yul\":1373:1444   */\n      tag_52\n        /* \"#utility.yul\":1441:1442   */\n      0x00\n        /* \"#utility.yul\":1430:1439   */\n      dup4\n        /* \"#utility.yul\":1426:1443   */\n      add\n        /* \"#utility.yul\":1417:1423   */\n      dup5\n        /* \"#utility.yul\":1373:1444   */\n      tag_28\n      jump\t// in\n    tag_52:\n        /* \"#utility.yul\":1229:1451   */\n      swap3\n      swap2\n      pop\n      pop\n      jump\t// out\n        /* \"#utility.yul\":1457:1637   */\n    tag_29:\n        /* \"#utility.yul\":1505:1582   */\n      0x4e487b7100000000000000000000000000000000000000000000000000000000\n        /* \"#utility.yul\":1502:1503   */\n      0x00\n        /* \"#utility.yul\":1495:1583   */\n      mstore\n        /* \"#utility.yul\":1602:1606   */\n      0x11\n        /* \"#utility.yul\":1599:1600   */\n      0x04\n        /* \"#utility.yul\":1592:1607   */\n      mstore\n        /* \"#utility.yul\":1626:1630   */\n      0x24\n        /* \"#utility.yul\":1623:1624   */\n      0x00\n        /* \"#utility.yul\":1616:1631   */\n      revert\n        /* \"#utility.yul\":1643:1745   */\n    tag_30:\n        /* \"#utility.yul\":1685:1693   */\n      0x00\n        /* \"#utility.yul\":1732:1737   */\n      dup2\n        /* \"#utility.yul\":1729:1730   */\n      0x01\n        /* \"#utility.yul\":1725:1738   */\n      shr\n        /* \"#utility.yul\":1704:1738   */\n      swap1\n      pop\n        /* \"#utility.yul\":1643:1745   */\n      swap2\n      swap1\n      pop\n      jump\t// out\n        /* \"#utility.yul\":1751:2599   */\n    tag_31:\n        /* \"#utility.yul\":1812:1817   */\n      0x00\n        /* \"#utility.yul\":1819:1823   */\n      dup1\n        /* \"#utility.yul\":1843:1849   */\n      dup3\n        /* \"#utility.yul\":1834:1849   */\n      swap2\n      pop\n        /* \"#utility.yul\":1867:1872   */\n      dup4\n        /* \"#utility.yul\":1858:1872   */\n      swap1\n      pop\n        /* \"#utility.yul\":1881:2593   */\n    tag_56:\n        /* \"#utility.yul\":1902:1903   */\n      0x01\n        /* \"#utility.yul\":1892:1900   */\n      dup6\n        /* \"#utility.yul\":1889:1904   */\n      gt\n        /* \"#utility.yul\":1881:2593   */\n      iszero\n      tag_58\n      jumpi\n        /* \"#utility.yul\":1997:2001   */\n      dup1\n        /* \"#utility.yul\":1992:1995   */\n      dup7\n        /* \"#utility.yul\":1988:2002   */\n      div\n        /* \"#utility.yul\":1982:1986   */\n      dup2\n        /* \"#utility.yul\":1979:2003   */\n      gt\n        /* \"#utility.yul\":1976:2026   */\n      iszero\n      tag_59\n      jumpi\n        /* \"#utility.yul\":2006:2024   */\n      tag_60\n      tag_29\n      jump\t// in\n    tag_60:\n        /* \"#utility.yul\":1976:2026   */\n    tag_59:\n        /* \"#utility.yul\":2056:2057   */\n      0x01\n        /* \"#utility.yul\":2046:2054   */\n      dup6\n        /* \"#utility.yul\":2042:2058   */\n      and\n        /* \"#utility.yul\":2039:2490   */\n      iszero\n      tag_61\n      jumpi\n        /* \"#utility.yul\":2471:2475   */\n      dup1\n        /* \"#utility.yul\":2464:2469   */\n      dup3\n        /* \"#utility.yul\":2460:2476   */\n      mul\n        /* \"#utility.yul\":2451:2476   */\n      swap2\n      pop\n        /* \"#utility.yul\":2039:2490   */\n    tag_61:\n        /* \"#utility.yul\":2521:2525   */\n      dup1\n        /* \"#utility.yul\":2515:2519   */\n      dup2\n        /* \"#utility.yul\":2511:2526   */\n      mul\n        /* \"#utility.yul\":2503:2526   */\n      swap1\n      pop\n        /* \"#utility.yul\":2551:2583   */\n      tag_62\n        /* \"#utility.yul\":2574:2582   */\n      dup6\n        /* \"#utility.yul\":2551:2583   */\n      tag_30\n      jump\t// in\n    tag_62:\n        /* \"#utility.yul\":2539:2583   */\n      swap5\n      pop\n        /* \"#utility.yul\":1881:2593   */\n      jump(tag_56)\n    tag_58:\n        /* \"#utility.yul\":1751:2599   */\n      swap5\n      pop\n      swap5\n      swap3\n      pop\n      pop\n      pop\n      jump\t// out\n        /* \"#utility.yul\":2605:3678   */\n    tag_32:\n        /* \"#utility.yul\":2659:2664   */\n      0x00\n        /* \"#utility.yul\":2850:2858   */\n      dup3\n        /* \"#utility.yul\":2840:2880   */\n      tag_64\n      jumpi\n        /* \"#utility.yul\":2871:2872   */\n      0x01\n        /* \"#utility.yul\":2862:2872   */\n      swap1\n      pop\n        /* \"#utility.yul\":2873:2878   */\n      jump(tag_63)\n        /* \"#utility.yul\":2840:2880   */\n    tag_64:\n        /* \"#utility.yul\":2899:2903   */\n      dup2\n        /* \"#utility.yul\":2889:2925   */\n      tag_65\n      jumpi\n        /* \"#utility.yul\":2916:2917   */\n      0x00\n        /* \"#utility.yul\":2907:2917   */\n      swap1\n      pop\n        /* \"#utility.yul\":2918:2923   */\n      jump(tag_63)\n        /* \"#utility.yul\":2889:2925   */\n    tag_65:\n        /* \"#utility.yul\":2985:2989   */\n      dup2\n        /* \"#utility.yul\":3033:3034   */\n      0x01\n        /* \"#utility.yul\":3028:3055   */\n      dup2\n      eq\n      tag_67\n      jumpi\n        /* \"#utility.yul\":3069:3070   */\n      0x02\n        /* \"#utility.yul\":3064:3255   */\n      dup2\n      eq\n      tag_68\n      jumpi\n        /* \"#utility.yul\":2978:3255   */\n      jump(tag_66)\n        /* \"#utility.yul\":3028:3055   */\n    tag_67:\n        /* \"#utility.yul\":3046:3047   */\n      0x01\n        /* \"#utility.yul\":3037:3047   */\n      swap2\n      pop\n        /* \"#utility.yul\":3048:3053   */\n      pop\n      jump(tag_63)\n        /* \"#utility.yul\":3064:3255   */\n    tag_68:\n        /* \"#utility.yul\":3109:3112   */\n      0xff\n        /* \"#utility.yul\":3099:3107   */\n      dup5\n        /* \"#utility.yul\":3096:3113   */\n      gt\n        /* \"#utility.yul\":3093:3136   */\n      iszero\n      tag_69\n      jumpi\n        /* \"#utility.yul\":3116:3134   */\n      tag_70\n      tag_29\n      jump\t// in\n    tag_70:\n        /* \"#utility.yul\":3093:3136   */\n    tag_69:\n        /* \"#utility.yul\":3165:3173   */\n      dup4\n        /* \"#utility.yul\":3162:3163   */\n      0x02\n        /* \"#utility.yul\":3158:3174   */\n      exp\n        /* \"#utility.yul\":3149:3174   */\n      swap2\n      pop\n        /* \"#utility.yul\":3200:3203   */\n      dup5\n        /* \"#utility.yul\":3193:3198   */\n      dup3\n        /* \"#utility.yul\":3190:3204   */\n      gt\n        /* \"#utility.yul\":3187:3227   */\n      iszero\n      tag_71\n      jumpi\n        /* \"#utility.yul\":3207:3225   */\n      tag_72\n      tag_29\n      jump\t// in\n    tag_72:\n        /* \"#utility.yul\":3187:3227   */\n    tag_71:\n        /* \"#utility.yul\":3240:3245   */\n      pop\n      jump(tag_63)\n        /* \"#utility.yul\":2978:3255   */\n    tag_66:\n      pop\n        /* \"#utility.yul\":3364:3366   */\n      0x20\n        /* \"#utility.yul\":3354:3362   */\n      dup4\n        /* \"#utility.yul\":3351:3367   */\n      lt\n        /* \"#utility.yul\":3345:3348   */\n      0x0133\n        /* \"#utility.yul\":3339:3343   */\n      dup4\n        /* \"#utility.yul\":3336:3349   */\n      lt\n        /* \"#utility.yul\":3332:3368   */\n      and\n        /* \"#utility.yul\":3314:3316   */\n      0x4e\n        /* \"#utility.yul\":3304:3312   */\n      dup5\n        /* \"#utility.yul\":3301:3317   */\n      lt\n        /* \"#utility.yul\":3296:3298   */\n      0x0b\n        /* \"#utility.yul\":3290:3294   */\n      dup5\n        /* \"#utility.yul\":3287:3299   */\n      lt\n        /* \"#utility.yul\":3283:3318   */\n      and\n        /* \"#utility.yul\":3267:3378   */\n      or\n        /* \"#utility.yul\":3264:3510   */\n      iszero\n      tag_73\n      jumpi\n        /* \"#utility.yul\":3420:3428   */\n      dup3\n        /* \"#utility.yul\":3414:3418   */\n      dup3\n        /* \"#utility.yul\":3410:3429   */\n      exp\n        /* \"#utility.yul\":3401:3429   */\n      swap1\n      pop\n        /* \"#utility.yul\":3455:3458   */\n      dup4\n        /* \"#utility.yul\":3448:3453   */\n      dup2\n        /* \"#utility.yul\":3445:3459   */\n      gt\n        /* \"#utility.yul\":3442:3482   */\n      iszero\n      tag_74\n      jumpi\n        /* \"#utility.yul\":3462:3480   */\n      tag_75\n      tag_29\n      jump\t// in\n    tag_75:\n        /* \"#utility.yul\":3442:3482   */\n    tag_74:\n        /* \"#utility.yul\":3495:3500   */\n      jump(tag_63)\n        /* \"#utility.yul\":3264:3510   */\n    tag_73:\n        /* \"#utility.yul\":3535:3577   */\n      tag_76\n        /* \"#utility.yul\":3573:3576   */\n      dup5\n        /* \"#utility.yul\":3563:3571   */\n      dup5\n        /* \"#utility.yul\":3557:3561   */\n      dup5\n        /* \"#utility.yul\":3554:3555   */\n      0x01\n        /* \"#utility.yul\":3535:3577   */\n      tag_31\n      jump\t// in\n    tag_76:\n        /* \"#utility.yul\":3520:3577   */\n      swap3\n      pop\n      swap1\n      pop\n        /* \"#utility.yul\":3609:3613   */\n      dup2\n        /* \"#utility.yul\":3604:3607   */\n      dup5\n        /* \"#utility.yul\":3600:3614   */\n      div\n        /* \"#utility.yul\":3593:3598   */\n      dup2\n        /* \"#utility.yul\":3590:3615   */\n      gt\n        /* \"#utility.yul\":3587:3638   */\n      iszero\n      tag_77\n      jumpi\n        /* \"#utility.yul\":3618:3636   */\n      tag_78\n      tag_29\n      jump\t// in\n    tag_78:\n        /* \"#utility.yul\":3587:3638   */\n    tag_77:\n        /* \"#utility.yul\":3667:3671   */\n      dup2\n        /* \"#utility.yul\":3660:3665   */\n      dup2\n        /* \"#utility.yul\":3656:3672   */\n      mul\n        /* \"#utility.yul\":3647:3672   */\n      swap1\n      pop\n        /* \"#utility.yul\":2605:3678   */\n    tag_63:\n      swap4\n      swap3\n      pop\n      pop\n      pop\n      jump\t// out\n        /* \"#utility.yul\":3684:3965   */\n    tag_15:\n        /* \"#utility.yul\":3742:3747   */\n      0x00\n        /* \"#utility.yul\":3766:3789   */\n      tag_80\n        /* \"#utility.yul\":3784:3788   */\n      dup3\n        /* \"#utility.yul\":3766:3789   */\n      tag_27\n      jump\t// in\n    tag_80:\n        /* \"#utility.yul\":3758:3789   */\n      swap2\n      pop\n        /* \"#utility.yul\":3810:3835   */\n      tag_81\n        /* \"#utility.yul\":3826:3834   */\n      dup4\n        /* \"#utility.yul\":3810:3835   */\n      tag_24\n      jump\t// in\n    tag_81:\n        /* \"#utility.yul\":3798:3835   */\n      swap3\n      pop\n        /* \"#utility.yul\":3854:3958   */\n      tag_82\n        /* \"#utility.yul\":3891:3957   */\n      0xffffffffffffffffffffffffffffffffffffffffffffffffffffffffffffffff\n        /* \"#utility.yul\":3881:3889   */\n      dup5\n        /* \"#utility.yul\":3875:3879   */\n      dup5\n        /* \"#utility.yul\":3854:3958   */\n      tag_32\n      jump\t// in\n    tag_82:\n        /* \"#utility.yul\":3845:3958   */\n      swap1\n      pop\n        /* \"#utility.yul\":3684:3965   */\n      swap3\n      swap2\n      pop\n      pop\n      jump\t// out\n        /* \"#utility.yul\":3971:4151   */\n    tag_33:\n        /* \"#utility.yul\":4019:4096   */\n      0x4e487b7100000000000000000000000000000000000000000000000000000000\n        /* \"#utility.yul\":4016:4017   */\n      0x00\n        /* \"#utility.yul\":4009:4097   */\n      mstore\n        /* \"#utility.yul\":4116:4120   */\n      0x12\n        /* \"#utility.yul\":4113:4114   */\n      0x04\n        /* \"#utility.yul\":4106:4121   */\n      mstore\n        /* \"#utility.yul\":4140:4144   */\n      0x24\n        /* \"#utility.yul\":4137:4138   */\n      0x00\n        /* \"#utility.yul\":4130:4145   */\n      revert\n        /* \"#utility.yul\":4157:4342   */\n    tag_19:\n        /* \"#utility.yul\":4197:4198   */\n      0x00\n        /* \"#utility.yul\":4214:4234   */\n      tag_85\n        /* \"#utility.yul\":4232:4233   */\n      dup3\n        /* \"#utility.yul\":4214:4234   */\n      tag_27\n      jump\t// in\n    tag_85:\n        /* \"#utility.yul\":4209:4234   */\n      swap2\n      pop\n        /* \"#utility.yul\":4248:4268   */\n      tag_86\n        /* \"#utility.yul\":4266:4267   */\n      dup4\n        /* \"#utility.yul\":4248:4268   */\n      tag_27\n      jump\t// in\n    tag_86:\n        /* \"#utility.yul\":4243:4268   */\n      swap3\n      pop\n        /* \"#utility.yul\":4287:4288   */\n      dup3\n        /* \"#utility.yul\":4277:4312   */\n      tag_87\n      jumpi\n        /* \"#utility.yul\":4292:4310   */\n      tag_88\n      tag_33\n      jump\t// in\n    tag_88:\n        /* \"#utility.yul\":4277:4312   */\n    tag_87:\n        /* \"#utility.yul\":4334:4335   */\n      dup3\n        /* \"#utility.yul\":4331:4332   */\n      dup3\n        /* \"#utility.yul\":4327:4336   */\n      div\n        /* \"#utility.yul\":4322:4336   */\n      swap1\n      pop\n        /* \"#utility.yul\":4157:4342   */\n      swap3\n      swap2\n      pop\n      pop\n      jump\t// out\n\n    auxdata: 0xa26469706673582212202afe3e1e04b83834a9b7343ba0cbadc98031c9d10999d200ae6673168fa6e15f64736f6c63430008180033\n}\n",
				"bytecode": {
					"linkReferences": {},
					"object": "608060405234801561000f575f80fd5b5061038b8061001d5f395ff3fe608060405234801561000f575f80fd5b5060043610610029575f3560e01c80636673c40d1461002d575b5f80fd5b610047600480360381019061004291906100f6565b61005d565b6040516100549190610139565b60405180910390f35b5f6100678261006e565b9050919050565b5f81600a61007c91906102ae565b610084610095565b61008e9190610325565b9050919050565b5f7fffffffffffffffffffffffffffffffffffffffffffffffffffffffffffffffff905090565b5f80fd5b5f60ff82169050919050565b6100d5816100c0565b81146100df575f80fd5b50565b5f813590506100f0816100cc565b92915050565b5f6020828403121561010b5761010a6100bc565b5b5f610118848285016100e2565b91505092915050565b5f819050919050565b61013381610121565b82525050565b5f60208201905061014c5f83018461012a565b92915050565b7f4e487b71000000000000000000000000000000000000000000000000000000005f52601160045260245ffd5b5f8160011c9050919050565b5f808291508390505b60018511156101d4578086048111156101b0576101af610152565b5b60018516156101bf5780820291505b80810290506101cd8561017f565b9450610194565b94509492505050565b5f826101ec57600190506102a7565b816101f9575f90506102a7565b816001811461020f576002811461021957610248565b60019150506102a7565b60ff84111561022b5761022a610152565b5b8360020a91508482111561024257610241610152565b5b506102a7565b5060208310610133831016604e8410600b841016171561027d5782820a90508381111561027857610277610152565b5b6102a7565b61028a848484600161018b565b925090508184048111156102a1576102a0610152565b5b81810290505b9392505050565b5f6102b882610121565b91506102c3836100c0565b92506102f07fffffffffffffffffffffffffffffffffffffffffffffffffffffffffffffffff84846101dd565b905092915050565b7f4e487b71000000000000000000000000000000000000000000000000000000005f52601260045260245ffd5b5f61032f82610121565b915061033a83610121565b92508261034a576103496102f8565b5b82820490509291505056fea26469706673582212202afe3e1e04b83834a9b7343ba0cbadc98031c9d10999d200ae6673168fa6e15f64736f6c63430008180033",
					"opcodes": "PUSH1 0x80 PUSH1 0x40 MSTORE CALLVALUE DUP1 ISZERO PUSH2 0xF JUMPI PUSH0 DUP1 REVERT JUMPDEST POP PUSH2 0x38B DUP1 PUSH2 0x1D PUSH0 CODECOPY PUSH0 RETURN INVALID PUSH1 0x80 PUSH1 0x40 MSTORE CALLVALUE DUP1 ISZERO PUSH2 0xF JUMPI PUSH0 DUP1 REVERT JUMPDEST POP PUSH1 0x4 CALLDATASIZE LT PUSH2 0x29 JUMPI PUSH0 CALLDATALOAD PUSH1 0xE0 SHR DUP1 PUSH4 0x6673C40D EQ PUSH2 0x2D JUMPI JUMPDEST PUSH0 DUP1 REVERT JUMPDEST PUSH2 0x47 PUSH1 0x4 DUP1 CALLDATASIZE SUB DUP2 ADD SWAP1 PUSH2 0x42 SWAP2 SWAP1 PUSH2 0xF6 JUMP JUMPDEST PUSH2 0x5D JUMP JUMPDEST PUSH1 0x40 MLOAD PUSH2 0x54 SWAP2 SWAP1 PUSH2 0x139 JUMP JUMPDEST PUSH1 0x40 MLOAD DUP1 SWAP2 SUB SWAP1 RETURN JUMPDEST PUSH0 PUSH2 0x67 DUP3 PUSH2 0x6E JUMP JUMPDEST SWAP1 POP SWAP2 SWAP1 POP JUMP JUMPDEST PUSH0 DUP2 PUSH1 0xA PUSH2 0x7C SWAP2 SWAP1 PUSH2 0x2AE JUMP JUMPDEST PUSH2 0x84 PUSH2 0x95 JUMP JUMPDEST PUSH2 0x8E SWAP2 SWAP1 PUSH2 0x325 JUMP JUMPDEST SWAP1 POP SWAP2 SWAP1 POP JUMP JUMPDEST PUSH0 PUSH32 0xFFFFFFFFFFFFFFFFFFFFFFFFFFFFFFFFFFFFFFFFFFFFFFFFFFFFFFFFFFFFFFFF SWAP1 POP SWAP1 JUMP JUMPDEST PUSH0 DUP1 REVERT JUMPDEST PUSH0 PUSH1 0xFF DUP3 AND SWAP1 POP SWAP2 SWAP1 POP JUMP JUMPDEST PUSH2 0xD5 DUP2 PUSH2 0xC0 JUMP JUMPDEST DUP2 EQ PUSH2 0xDF JUMPI PUSH0 DUP1 REVERT JUMPDEST POP JUMP JUMPDEST PUSH0 DUP2 CALLDATALOAD SWAP1 POP PUSH2 0xF0 DUP2 PUSH2 0xCC JUMP JUMPDEST SWAP3 SWAP2 POP POP JUMP JUMPDEST PUSH0 PUSH1 0x20 DUP3 DUP5 SUB SLT ISZERO PUSH2 0x10B JUMPI PUSH2 0x10A PUSH2 0xBC JUMP JUMPDEST JUMPDEST PUSH0 PUSH2 0x118 DUP5 DUP3 DUP6 ADD PUSH2 0xE2 JUMP JUMPDEST SWAP2 POP POP SWAP3 SWAP2 POP POP JUMP JUMPDEST PUSH0 DUP2 SWAP1 POP SWAP2 SWAP1 POP JUMP JUMPDEST PUSH2 0x133 DUP2 PUSH2 0x121 JUMP JUMPDEST DUP3 MSTORE POP POP JUMP JUMPDEST PUSH0 PUSH1 0x20 DUP3 ADD SWAP1 POP PUSH2 0x14C PUSH0 DUP4 ADD DUP5 PUSH2 0x12A JUMP JUMPDEST SWAP3 SWAP2 POP POP JUMP JUMPDEST PUSH32 0x4E487B7100000000000000000000000000000000000000000000000000000000 PUSH0 MSTORE PUSH1 0x11 PUSH1 0x4 MSTORE PUSH1 0x24 PUSH0 REVERT JUMPDEST PUSH0 DUP2 PUSH1 0x1 SHR SWAP1 POP SWAP2 SWAP1 POP JUMP JUMPDEST PUSH0 DUP1 DUP3 SWAP2 POP DUP4 SWAP1 POP JUMPDEST PUSH1 0x1 DUP6 GT ISZERO PUSH2 0x1D4 JUMPI DUP1 DUP7 DIV DUP2 GT ISZERO PUSH2 0x1B0 JUMPI PUSH2 0x1AF PUSH2 0x152 JUMP JUMPDEST JUMPDEST PUSH1 0x1 DUP6 AND ISZERO PUSH2 0x1BF JUMPI DUP1 DUP3 MUL SWAP2 POP JUMPDEST DUP1 DUP2 MUL SWAP1 POP PUSH2 0x1CD DUP6 PUSH2 0x17F JUMP JUMPDEST SWAP5 POP PUSH2 0x194 JUMP JUMPDEST SWAP5 POP SWAP5 SWAP3 POP POP POP JUMP JUMPDEST PUSH0 DUP3 PUSH2 0x1EC JUMPI PUSH1 0x1 SWAP1 POP PUSH2 0x2A7 JUMP JUMPDEST DUP2 PUSH2 0x1F9 JUMPI PUSH0 SWAP1 POP PUSH2 0x2A7 JUMP JUMPDEST DUP2 PUSH1 0x1 DUP2 EQ PUSH2 0x20F JUMPI PUSH1 0x2 DUP2 EQ PUSH2 0x219 JUMPI PUSH2 0x248 JUMP JUMPDEST PUSH1 0x1 SWAP2 POP POP PUSH2 0x2A7 JUMP JUMPDEST PUSH1 0xFF DUP5 GT ISZERO PUSH2 0x22B JUMPI PUSH2 0x22A PUSH2 0x152 JUMP JUMPDEST JUMPDEST DUP4 PUSH1 0x2 EXP SWAP2 POP DUP5 DUP3 GT ISZERO PUSH2 0x242 JUMPI PUSH2 0x241 PUSH2 0x152 JUMP JUMPDEST JUMPDEST POP PUSH2 0x2A7 JUMP JUMPDEST POP PUSH1 0x20 DUP4 LT PUSH2 0x133 DUP4 LT AND PUSH1 0x4E DUP5 LT PUSH1 0xB DUP5 LT AND OR ISZERO PUSH2 0x27D JUMPI DUP3 DUP3 EXP SWAP1 POP DUP4 DUP2 GT ISZERO PUSH2 0x278 JUMPI PUSH2 0x277 PUSH2 0x152 JUMP JUMPDEST JUMPDEST PUSH2 0x2A7 JUMP JUMPDEST PUSH2 0x28A DUP5 DUP5 DUP5 PUSH1 0x1 PUSH2 0x18B JUMP JUMPDEST SWAP3 POP SWAP1 POP DUP2 DUP5 DIV DUP2 GT ISZERO PUSH2 0x2A1 JUMPI PUSH2 0x2A0 PUSH2 0x152 JUMP JUMPDEST JUMPDEST DUP2 DUP2 MUL SWAP1 POP JUMPDEST SWAP4 SWAP3 POP POP POP JUMP JUMPDEST PUSH0 PUSH2 0x2B8 DUP3 PUSH2 0x121 JUMP JUMPDEST SWAP2 POP PUSH2 0x2C3 DUP4 PUSH2 0xC0 JUMP JUMPDEST SWAP3 POP PUSH2 0x2F0 PUSH32 0xFFFFFFFFFFFFFFFFFFFFFFFFFFFFFFFFFFFFFFFFFFFFFFFFFFFFFFFFFFFFFFFF DUP5 DUP5 PUSH2 0x1DD JUMP JUMPDEST SWAP1 POP SWAP3 SWAP2 POP POP JUMP JUMPDEST PUSH32 0x4E487B7100000000000000000000000000000000000000000000000000000000 PUSH0 MSTORE PUSH1 0x12 PUSH1 0x4 MSTORE PUSH1 0x24 PUSH0 REVERT JUMPDEST PUSH0 PUSH2 0x32F DUP3 PUSH2 0x121 JUMP JUMPDEST SWAP2 POP PUSH2 0x33A DUP4 PUSH2 0x121 JUMP JUMPDEST SWAP3 POP DUP3 PUSH2 0x34A JUMPI PUSH2 0x349 PUSH2 0x2F8 JUMP JUMPDEST JUMPDEST DUP3 DUP3 DIV SWAP1 POP SWAP3 SWAP2 POP POP JUMP INVALID LOG2 PUSH5 0x6970667358 0x22 SLT KECCAK256 0x2A INVALID RETURNDATACOPY 0x1E DIV 0xB8 CODESIZE CALLVALUE 0xA9 0xB7 CALLVALUE EXTCODESIZE LOG0 0xCB 0xAD 0xC9 DUP1 BALANCE 0xC9 0xD1 MULMOD SWAP10 0xD2 STOP 0xAE PUSH7 0x73168FA6E15F64 PUSH20 0x6F6C634300081800330000000000000000000000 "
				},
				"gasEstimates": {
					"creation": {
						"codeDepositCost": "181400",
						"executionCost": "224",
						"totalCost": "181624"
					},
					"external": {
						"maximumRepresentableEntireValue(uint8)": "infinite"
					}
				},
				"methodIdentifiers": {
					"maximumRepresentableEntireValue(uint8)": "6673c40d"
				}
			},
			"storageLayout": {
				"storage": [],
				"types": null
			},
			"userdoc": {
				"kind": "user",
				"methods": {},
				"version": 1
			}
		}
	}
}