{
	"data": {
		"bytecode": {
			"linkReferences": {},
			"object": "608060405234801562000010575f80fd5b505f600c67ffffffffffffffff81111562000030576200002f62001955565b5b6040519080825280602002602001820160405280156200005f5781602001602082028036833780820191505090505b5090505f632c40805960e01b8282806200007990620019b8565b9350815181106200008f576200008e62001a04565b5b60200260200101907bffffffffffffffffffffffffffffffffffffffffffffffffffffffff191690817bffffffffffffffffffffffffffffffffffffffffffffffffffffffff191681525050639142376560e01b828280620000f190620019b8565b93508151811062000107576200010662001a04565b5b60200260200101907bffffffffffffffffffffffffffffffffffffffffffffffffffffffff191690817bffffffffffffffffffffffffffffffffffffffffffffffffffffffff191681525050620001867fbd02b73c0000000000000000000000000000000000000000000000000000000060016200080360201b60201c565b631f931c1c60e01b8282806200019c90620019b8565b935081518110620001b257620001b162001a04565b5b60200260200101907bffffffffffffffffffffffffffffffffffffffffffffffffffffffff191690817bffffffffffffffffffffffffffffffffffffffffffffffffffffffff191681525050620002317f1f931c1c0000000000000000000000000000000000000000000000000000000060016200080360201b60201c565b637a0ed62760e01b8282806200024790620019b8565b9350815181106200025d576200025c62001a04565b5b60200260200101907bffffffffffffffffffffffffffffffffffffffffffffffffffffffff191690817bffffffffffffffffffffffffffffffffffffffffffffffffffffffff19168152505063adfca15e60e01b828280620002bf90620019b8565b935081518110620002d557620002d462001a04565b5b60200260200101907bffffffffffffffffffffffffffffffffffffffffffffffffffffffff191690817bffffffffffffffffffffffffffffffffffffffffffffffffffffffff1916815250506352ef6b2c60e01b8282806200033790620019b8565b9350815181106200034d576200034c62001a04565b5b60200260200101907bffffffffffffffffffffffffffffffffffffffffffffffffffffffff191690817bffffffffffffffffffffffffffffffffffffffffffffffffffffffff19168152505063cdffacc660e01b828280620003af90620019b8565b935081518110620003c557620003c462001a04565b5b60200260200101907bffffffffffffffffffffffffffffffffffffffffffffffffffffffff191690817bffffffffffffffffffffffffffffffffffffffffffffffffffffffff191681525050620004447f48e2b0930000000000000000000000000000000000000000000000000000000060016200080360201b60201c565b6301ffc9a760e01b8282806200045a90620019b8565b93508151811062000470576200046f62001a04565b5b60200260200101907bffffffffffffffffffffffffffffffffffffffffffffffffffffffff191690817bffffffffffffffffffffffffffffffffffffffffffffffffffffffff191681525050620004ef7f01ffc9a70000000000000000000000000000000000000000000000000000000060016200080360201b60201c565b638da5cb5b60e01b8282806200050590620019b8565b9350815181106200051b576200051a62001a04565b5b60200260200101907bffffffffffffffffffffffffffffffffffffffffffffffffffffffff191690817bffffffffffffffffffffffffffffffffffffffffffffffffffffffff191681525050638ab5150a60e01b8282806200057d90620019b8565b93508151811062000593576200059262001a04565b5b60200260200101907bffffffffffffffffffffffffffffffffffffffffffffffffffffffff191690817bffffffffffffffffffffffffffffffffffffffffffffffffffffffff19168152505063f2fde38b60e01b828280620005f590620019b8565b9350815181106200060b576200060a62001a04565b5b60200260200101907bffffffffffffffffffffffffffffffffffffffffffffffffffffffff191690817bffffffffffffffffffffffffffffffffffffffffffffffffffffffff1916815250506379ba509760e01b8282806200066d90620019b8565b93508151811062000683576200068262001a04565b5b60200260200101907bffffffffffffffffffffffffffffffffffffffffffffffffffffffff191690817bffffffffffffffffffffffffffffffffffffffffffffffffffffffff191681525050620007027f7f5828d00000000000000000000000000000000000000000000000000000000060016200080360201b60201c565b5f600167ffffffffffffffff81111562000721576200072062001955565b5b6040519080825280602002602001820160405280156200075e57816020015b6200074a6200190b565b815260200190600190039081620007405790505b50905060405180606001604052803073ffffffffffffffffffffffffffffffffffffffff1681526020015f60028111156200079e576200079d62001a31565b5b815260200184815250815f81518110620007bd57620007bc62001a04565b5b6020026020010181905250620007e9815f60405180602001604052805f815250620008dd60201b60201c565b620007fa3362000b5260201b60201c565b50505062001e44565b63ffffffff60e01b827bffffffffffffffffffffffffffffffffffffffffffffffffffffffff19160362000863576040517fb0a19dd500000000000000000000000000000000000000000000000000000000815260040160405180910390fd5b806200087462000c2660201b60201c565b5f015f847bffffffffffffffffffffffffffffffffffffffffffffffffffffffff19167bffffffffffffffffffffffffffffffffffffffffffffffffffffffff191681526020019081526020015f205f6101000a81548160ff0219169083151502179055505050565b5f620008ee62000c5260201b60201c565b90505f816001015f9054906101000a900461ffff1661ffff1690505f8190505f806007831611156200093557836002015f600384901c81526020019081526020015f205490505b5f5b875181101562000aa9575f88828151811062000958576200095762001a04565b5b602002602001015190505f816020015190505f82604001515103620009a9576040517feb6c3aeb00000000000000000000000000000000000000000000000000000000815260040160405180910390fd5b5f6002811115620009bf57620009be62001a31565b5b816002811115620009d557620009d462001a31565b5b03620009fd57620009ef8786868562000c7e60201b60201c565b809550819650505062000a99565b6001600281111562000a145762000a1362001a31565b5b81600281111562000a2a5762000a2962001a31565b5b0362000a485762000a42878362000f9760201b60201c565b62000a98565b60028081111562000a5e5762000a5d62001a31565b5b81600281111562000a745762000a7362001a31565b5b0362000a975762000a8e878686856200124f60201b60201c565b80955081965050505b5b5b5050808060010191505062000937565b5082821462000ad15781846001015f6101000a81548161ffff021916908361ffff1602179055505b5f60078316111562000afa5780846002015f600385901c81526020019081526020015f20819055505b7f8faa70878671ccd212d20771b795c50af8fd3ff6cf27f4bde57e5d4de0aeb67387878760405162000b2f9392919062001da3565b60405180910390a162000b4986866200171960201b60201c565b50505050505050565b5f62000b63620018ce60201b60201c565b90508173ffffffffffffffffffffffffffffffffffffffff16815f015f9054906101000a900473ffffffffffffffffffffffffffffffffffffffff1673ffffffffffffffffffffffffffffffffffffffff167f8be0079c531659141344cd1fd0a4f28419497f9722a3daafe3b4186f6b6457e060405160405180910390a381815f015f6101000a81548173ffffffffffffffffffffffffffffffffffffffff021916908373ffffffffffffffffffffffffffffffffffffffff1602179055505050565b5f807ffc606c433378e3a7e0a6a531deac289b66caa1b4aa8554fd4ab2c6f1570f92d890508091505090565b5f807f177481ac65e4292921c69f62d1cc7f57541261e5d61c8175cf4e36a01c9bfc9390508091505090565b5f8062000caa835f015173ffffffffffffffffffffffffffffffffffffffff16620018fa60201b60201c565b1562000d1f573073ffffffffffffffffffffffffffffffffffffffff16835f015173ffffffffffffffffffffffffffffffffffffffff160362000d19576040517fe983573100000000000000000000000000000000000000000000000000000000815260040160405180910390fd5b62000d89565b3073ffffffffffffffffffffffffffffffffffffffff16835f015173ffffffffffffffffffffffffffffffffffffffff161462000d88576040517ff77172ac00000000000000000000000000000000000000000000000000000000815260040160405180910390fd5b5b5f5b83604001515181101562000f87575f8460400151828151811062000db45762000db362001a04565b5b602002602001015190505f885f015f837bffffffffffffffffffffffffffffffffffffffffffffffffffffffff19167bffffffffffffffffffffffffffffffffffffffffffffffffffffffff191681526020019081526020015f205490505f73ffffffffffffffffffffffffffffffffffffffff168160601c73ffffffffffffffffffffffffffffffffffffffff161462000e7b576040517f92474ee200000000000000000000000000000000000000000000000000000000815260040160405180910390fd5b875f1b865f015160601b6bffffffffffffffffffffffff191617895f015f847bffffffffffffffffffffffffffffffffffffffffffffffffffffffff19167bffffffffffffffffffffffffffffffffffffffffffffffffffffffff191681526020019081526020015f20819055505f600560078a16901b905080837bffffffffffffffffffffffffffffffffffffffffffffffffffffffff1916901c817fffffffff000000000000000000000000000000000000000000000000000000005f1b901c19891617975060e0810362000f6e57878a6002015f60038c901c81526020019081526020015f20819055505f801b97505b8880600101995050505050808060010191505062000d8b565b5084849150915094509492505050565b62000fc1815f015173ffffffffffffffffffffffffffffffffffffffff16620018fa60201b60201c565b62000ff8576040517ff77172ac00000000000000000000000000000000000000000000000000000000815260040160405180910390fd5b5f5b8160400151518110156200124a575f8260400151828151811062001023576200102262001a04565b5b602002602001015190505f845f015f837bffffffffffffffffffffffffffffffffffffffffffffffffffffffff19167bffffffffffffffffffffffffffffffffffffffffffffffffffffffff191681526020019081526020015f205490505f8160601c90505f73ffffffffffffffffffffffffffffffffffffffff168173ffffffffffffffffffffffffffffffffffffffff1603620010ee576040517f6fc4b52e00000000000000000000000000000000000000000000000000000000815260040160405180910390fd5b3073ffffffffffffffffffffffffffffffffffffffff168173ffffffffffffffffffffffffffffffffffffffff160362001154576040517fe983573100000000000000000000000000000000000000000000000000000000815260040160405180910390fd5b845f015173ffffffffffffffffffffffffffffffffffffffff168173ffffffffffffffffffffffffffffffffffffffff1603620011bd576040517f617557e600000000000000000000000000000000000000000000000000000000815260040160405180910390fd5b845f015160601b6bffffffffffffffffffffffff19166bffffffffffffffffffffffff5f1b831617865f015f857bffffffffffffffffffffffffffffffffffffffffffffffffffffffff19167bffffffffffffffffffffffffffffffffffffffffffffffffffffffff191681526020019081526020015f2081905550505050808060010191505062000ffa565b505050565b5f805f73ffffffffffffffffffffffffffffffffffffffff16835f015173ffffffffffffffffffffffffffffffffffffffff1614620012ba576040517feacd242400000000000000000000000000000000000000000000000000000000815260040160405180910390fd5b5f600386901c90505f6007871690505f5b856040015151811015620016fe575f86604001518281518110620012f457620012f362001a04565b5b602002602001015190505f8a5f015f837bffffffffffffffffffffffffffffffffffffffffffffffffffffffff19167bffffffffffffffffffffffffffffffffffffffffffffffffffffffff191681526020019081526020015f205490505f73ffffffffffffffffffffffffffffffffffffffff168160601c73ffffffffffffffffffffffffffffffffffffffff1603620013bb576040517f6fc4b52e00000000000000000000000000000000000000000000000000000000815260040160405180910390fd5b3073ffffffffffffffffffffffffffffffffffffffff168160601c73ffffffffffffffffffffffffffffffffffffffff160362001424576040517fe983573100000000000000000000000000000000000000000000000000000000815260040160405180910390fd5b5f801b890362001457578480600190039550508a6002015f8681526020019081526020015f205498506007935062001461565b8380600190039450505b5f805f600587901b8c901b9250847bffffffffffffffffffffffffffffffffffffffffffffffffffffffff1916837bffffffffffffffffffffffffffffffffffffffffffffffffffffffff1916146200157b578d5f015f847bffffffffffffffffffffffffffffffffffffffffffffffffffffffff19167bffffffffffffffffffffffffffffffffffffffffffffffffffffffff191681526020019081526020015f20546bffffffffffffffffffffffff19166bffffffffffffffffffffffff5f1b8516178e5f015f857bffffffffffffffffffffffffffffffffffffffffffffffffffffffff19167bffffffffffffffffffffffffffffffffffffffffffffffffffffffff191681526020019081526020015f20819055505b8d5f015f867bffffffffffffffffffffffffffffffffffffffffffffffffffffffff19167bffffffffffffffffffffffffffffffffffffffffffffffffffffffff191681526020019081526020015f205f90555f845f1c61ffff169050600381901c9250600560078216901b91505087821462001677575f8e6002015f8481526020019081526020015f2054905081847bffffffffffffffffffffffffffffffffffffffffffffffffffffffff1916901c827fffffffff000000000000000000000000000000000000000000000000000000005f1b901c198216179050808f6002015f8581526020019081526020015f208190555050620016c7565b80837bffffffffffffffffffffffffffffffffffffffffffffffffffffffff1916901c817fffffffff000000000000000000000000000000000000000000000000000000005f1b901c198d16179b505b5f8703620016eb578d6002015f8981526020019081526020015f205f90555f801b9b505b50505050508080600101915050620012cb565b5080600383901b179650868693509350505094509492505050565b5f81511415155f73ffffffffffffffffffffffffffffffffffffffff168373ffffffffffffffffffffffffffffffffffffffff161415151462001788576040517f26df4ccd00000000000000000000000000000000000000000000000000000000815260040160405180910390fd5b5f73ffffffffffffffffffffffffffffffffffffffff168273ffffffffffffffffffffffffffffffffffffffff1614620018ca573073ffffffffffffffffffffffffffffffffffffffff168273ffffffffffffffffffffffffffffffffffffffff16146200184f57620018178273ffffffffffffffffffffffffffffffffffffffff16620018fa60201b60201c565b6200184e576040517ff77172ac00000000000000000000000000000000000000000000000000000000815260040160405180910390fd5b5b5f8273ffffffffffffffffffffffffffffffffffffffff168260405162001877919062001e2c565b5f60405180830381855af49150503d805f8114620018b1576040519150601f19603f3d011682016040523d82523d5f602084013e620018b6565b606091505b5050905080620018c8573d5f803e3d5ffd5b505b5050565b5f807f8a22373512790c48b83a1fe2efdd2888d4a917bcdc24d0adf63e60f67168046090508091505090565b5f80823b90505f8111915050919050565b60405180606001604052805f73ffffffffffffffffffffffffffffffffffffffff1681526020015f600281111562001948576200194762001a31565b5b8152602001606081525090565b7f4e487b71000000000000000000000000000000000000000000000000000000005f52604160045260245ffd5b7f4e487b71000000000000000000000000000000000000000000000000000000005f52601160045260245ffd5b5f819050919050565b5f620019c482620019af565b91507fffffffffffffffffffffffffffffffffffffffffffffffffffffffffffffffff8203620019f957620019f862001982565b5b600182019050919050565b7f4e487b71000000000000000000000000000000000000000000000000000000005f52603260045260245ffd5b7f4e487b71000000000000000000000000000000000000000000000000000000005f52602160045260245ffd5b5f81519050919050565b5f82825260208201905092915050565b5f819050602082019050919050565b5f73ffffffffffffffffffffffffffffffffffffffff82169050919050565b5f62001ab28262001a87565b9050919050565b62001ac48162001aa6565b82525050565b6003811062001ade5762001add62001a31565b5b50565b5f81905062001af08262001aca565b919050565b5f62001b018262001ae1565b9050919050565b62001b138162001af5565b82525050565b5f81519050919050565b5f82825260208201905092915050565b5f819050602082019050919050565b5f7fffffffff0000000000000000000000000000000000000000000000000000000082169050919050565b62001b788162001b42565b82525050565b5f62001b8b838362001b6d565b60208301905092915050565b5f602082019050919050565b5f62001baf8262001b19565b62001bbb818562001b23565b935062001bc88362001b33565b805f5b8381101562001bfe57815162001be2888262001b7e565b975062001bef8362001b97565b92505060018101905062001bcb565b5085935050505092915050565b5f606083015f83015162001c225f86018262001ab9565b50602083015162001c37602086018262001b08565b506040830151848203604086015262001c51828262001ba3565b9150508091505092915050565b5f62001c6b838362001c0b565b905092915050565b5f602082019050919050565b5f62001c8b8262001a5e565b62001c97818562001a68565b93508360208202850162001cab8562001a78565b805f5b8581101562001cec578484038952815162001cca858262001c5e565b945062001cd78362001c73565b925060208a0199505060018101905062001cae565b50829750879550505050505092915050565b62001d098162001aa6565b82525050565b5f81519050919050565b5f82825260208201905092915050565b5f5b8381101562001d4857808201518184015260208101905062001d2b565b5f8484015250505050565b5f601f19601f8301169050919050565b5f62001d6f8262001d0f565b62001d7b818562001d19565b935062001d8d81856020860162001d29565b62001d988162001d53565b840191505092915050565b5f6060820190508181035f83015262001dbd818662001c7f565b905062001dce602083018562001cfe565b818103604083015262001de2818462001d63565b9050949350505050565b5f81905092915050565b5f62001e028262001d0f565b62001e0e818562001dec565b935062001e2081856020860162001d29565b80840191505092915050565b5f62001e39828462001df6565b915081905092915050565b61376a8062001e525f395ff3fe6080604052600436106100f6575f3560e01c80637a0ed62711610089578063adfca15e11610058578063adfca15e146103a4578063cdffacc6146103e0578063f2fde38b1461041c578063f4e2edc914610444576100fd565b80637a0ed627146102fe5780638ab5150a146103285780638da5cb5b14610352578063914237651461037c576100fd565b806352ef6b2c116100c557806352ef6b2c1461024657806359bc2249146102705780636546f7fb146102ac57806379ba5097146102e8576100fd565b806301ffc9a71461017c5780631f931c1c146101b85780632a1b8f9b146101e05780632c4080591461021c576100fd565b366100fd57005b5f610106610480565b90506101278173ffffffffffffffffffffffffffffffffffffffff1661048e565b61015d576040517f87c9fc3400000000000000000000000000000000000000000000000000000000815260040160405180910390fd5b365f80375f80365f845af43d5f803e805f8114610178573d5ff35b3d5ffd5b348015610187575f80fd5b506101a2600480360381019061019d91906129ea565b61049f565b6040516101af9190612a2f565b60405180910390f35b3480156101c3575f80fd5b506101de60048036038101906101d99190612b58565b6104b0565b005b3480156101eb575f80fd5b5061020660048036038101906102019190612be9565b61057d565b6040516102139190612a2f565b60405180910390f35b348015610227575f80fd5b50610230610677565b60405161023d9190612c23565b60405180910390f35b348015610251575f80fd5b5061025a610685565b6040516102679190612cf3565b60405180910390f35b34801561027b575f80fd5b5061029660048036038101906102919190612be9565b610694565b6040516102a39190612a2f565b60405180910390f35b3480156102b7575f80fd5b506102d260048036038101906102cd9190612e5b565b61078e565b6040516102df9190612a2f565b60405180910390f35b3480156102f3575f80fd5b506102fc610934565b005b348015610309575f80fd5b506103126109aa565b60405161031f9190613061565b60405180910390f35b348015610333575f80fd5b5061033c6109b9565b6040516103499190612c23565b60405180910390f35b34801561035d575f80fd5b506103666109c7565b6040516103739190612c23565b60405180910390f35b348015610387575f80fd5b506103a2600480360381019061039d9190612be9565b6109d5565b005b3480156103af575f80fd5b506103ca60048036038101906103c59190612be9565b610a4d565b6040516103d791906130ed565b60405180910390f35b3480156103eb575f80fd5b50610406600480360381019061040191906129ea565b610a5f565b6040516104139190612c23565b60405180910390f35b348015610427575f80fd5b50610442600480360381019061043d9190612be9565b610a70565b005b34801561044f575f80fd5b5061046a60048036038101906104659190612e5b565b610ae8565b6040516104779190612a2f565b60405180910390f35b5f610489610c92565b905090565b5f80823b90505f8111915050919050565b5f6104a982610cde565b9050919050565b6104b8610d4a565b73ffffffffffffffffffffffffffffffffffffffff163373ffffffffffffffffffffffffffffffffffffffff161461051c576040517f2f7a8ee100000000000000000000000000000000000000000000000000000000815260040160405180910390fd5b61057685859061052c9190613266565b8484848080601f0160208091040260200160405190810160405280939291908181526020018383808284375f81840152601f19601f82011690508083019250505050505050610d7a565b5050505050565b5f610586610d4a565b73ffffffffffffffffffffffffffffffffffffffff163373ffffffffffffffffffffffffffffffffffffffff16146105ea576040517f2f7a8ee100000000000000000000000000000000000000000000000000000000815260040160405180910390fd5b5f8290505f8173ffffffffffffffffffffffffffffffffffffffff16636e25b9786040518163ffffffff1660e01b81526004015f60405180830381865afa158015610637573d5f803e3d5ffd5b505050506040513d5f823e3d601f19601f8201168201806040525081019061065f9190613323565b905061066b848261078e565b50600192505050919050565b5f610680610fa5565b905090565b606061068f610fd6565b905090565b5f61069d610d4a565b73ffffffffffffffffffffffffffffffffffffffff163373ffffffffffffffffffffffffffffffffffffffff1614610701576040517f2f7a8ee100000000000000000000000000000000000000000000000000000000815260040160405180910390fd5b5f8290505f8173ffffffffffffffffffffffffffffffffffffffff16636e25b9786040518163ffffffff1660e01b81526004015f60405180830381865afa15801561074e573d5f803e3d5ffd5b505050506040513d5f823e3d601f19601f820116820180604052508101906107769190613323565b90506107828482610ae8565b50600192505050919050565b5f610797610d4a565b73ffffffffffffffffffffffffffffffffffffffff163373ffffffffffffffffffffffffffffffffffffffff16146107fb576040517f2f7a8ee100000000000000000000000000000000000000000000000000000000815260040160405180910390fd5b5f8060405180606001604052808673ffffffffffffffffffffffffffffffffffffffff1681526020018360028111156108375761083661336a565b5b81526020018581525090505f3090506060600167ffffffffffffffff81111561086357610862612d23565b5b60405190808252806020026020018201604052801561089c57816020015b61088961290e565b8152602001906001900390816108815790505b50905082815f815181106108b3576108b2613397565b5b60200260200101819052508173ffffffffffffffffffffffffffffffffffffffff16631f931c1c82306040518363ffffffff1660e01b81526004016108f9929190613545565b5f604051808303815f87803b158015610910575f80fd5b505af1158015610922573d5f803e3d5ffd5b50505050600194505050505092915050565b61093c61121b565b73ffffffffffffffffffffffffffffffffffffffff163373ffffffffffffffffffffffffffffffffffffffff16146109a0576040517fefd1052d00000000000000000000000000000000000000000000000000000000815260040160405180910390fd5b6109a861124b565b565b60606109b4611282565b905090565b5f6109c261121b565b905090565b5f6109d0610d4a565b905090565b6109dd610d4a565b73ffffffffffffffffffffffffffffffffffffffff163373ffffffffffffffffffffffffffffffffffffffff1614610a41576040517f2f7a8ee100000000000000000000000000000000000000000000000000000000815260040160405180910390fd5b610a4a816117b7565b50565b6060610a5882611803565b9050919050565b5f610a6982611a0c565b9050919050565b610a78610d4a565b73ffffffffffffffffffffffffffffffffffffffff163373ffffffffffffffffffffffffffffffffffffffff1614610adc576040517f2f7a8ee100000000000000000000000000000000000000000000000000000000815260040160405180910390fd5b610ae581611a6f565b50565b5f610af1610d4a565b73ffffffffffffffffffffffffffffffffffffffff163373ffffffffffffffffffffffffffffffffffffffff1614610b55576040517f2f7a8ee100000000000000000000000000000000000000000000000000000000815260040160405180910390fd5b5f600290505f60405180606001604052808673ffffffffffffffffffffffffffffffffffffffff168152602001836002811115610b9557610b9461336a565b5b81526020018581525090505f3090506060600167ffffffffffffffff811115610bc157610bc0612d23565b5b604051908082528060200260200182016040528015610bfa57816020015b610be761290e565b815260200190600190039081610bdf5790505b50905082815f81518110610c1157610c10613397565b5b60200260200101819052508173ffffffffffffffffffffffffffffffffffffffff16631f931c1c82306040518363ffffffff1660e01b8152600401610c57929190613545565b5f604051808303815f87803b158015610c6e575f80fd5b505af1158015610c80573d5f803e3d5ffd5b50505050600194505050505092915050565b5f610c9b611a7b565b90505f73ffffffffffffffffffffffffffffffffffffffff168173ffffffffffffffffffffffffffffffffffffffff1603610cdb57610cd8610fa5565b90505b90565b5f610ce7611b22565b5f015f837bffffffffffffffffffffffffffffffffffffffffffffffffffffffff19167bffffffffffffffffffffffffffffffffffffffffffffffffffffffff191681526020019081526020015f205f9054906101000a900460ff169050919050565b5f610d53611b4e565b5f015f9054906101000a900473ffffffffffffffffffffffffffffffffffffffff16905090565b5f610d83611b7a565b90505f816001015f9054906101000a900461ffff1661ffff1690505f8190505f80600783161115610dc957836002015f600384901c81526020019081526020015f205490505b5f5b8751811015610f08575f888281518110610de857610de7613397565b5b602002602001015190505f816020015190505f82604001515103610e38576040517feb6c3aeb00000000000000000000000000000000000000000000000000000000815260040160405180910390fd5b5f6002811115610e4b57610e4a61336a565b5b816002811115610e5e57610e5d61336a565b5b03610e7c57610e6f87868685611ba6565b8095508196505050610ef9565b60016002811115610e9057610e8f61336a565b5b816002811115610ea357610ea261336a565b5b03610eb757610eb28783611eac565b610ef8565b600280811115610eca57610ec961336a565b5b816002811115610edd57610edc61336a565b5b03610ef757610eee87868685612153565b80955081965050505b5b5b50508080600101915050610dcb565b50828214610f2f5781846001015f6101000a81548161ffff021916908361ffff1602179055505b5f600783161115610f575780846002015f600385901c81526020019081526020015f20819055505b7f8faa70878671ccd212d20771b795c50af8fd3ff6cf27f4bde57e5d4de0aeb673878787604051610f8a939291906135f0565b60405180910390a1610f9c868661260f565b50505050505050565b5f610fae611b7a565b6003015f9054906101000a900473ffffffffffffffffffffffffffffffffffffffff16905090565b60605f610fe1611b7a565b9050806001015f9054906101000a900461ffff1661ffff1667ffffffffffffffff81111561101257611011612d23565b5b6040519080825280602002602001820160405280156110405781602001602082028036833780820191505090505b5091505f805f5b836001015f9054906101000a900461ffff1661ffff16821015611211575f846002015f8381526020019081526020015f205490505f5b60088110156111fc57838061109190613669565b945050856001015f9054906101000a900461ffff1661ffff1684116111fc575f600582901b83901b90505f875f015f837bffffffffffffffffffffffffffffffffffffffffffffffffffffffff19167bffffffffffffffffffffffffffffffffffffffffffffffffffffffff191681526020019081526020015f205460601c90505f805b88811015611180578a81815181106111305761112f613397565b5b602002602001015173ffffffffffffffffffffffffffffffffffffffff168373ffffffffffffffffffffffffffffffffffffffff16036111735760019150611180565b8080600101915050611115565b50801561118f575050506111ef565b818a89815181106111a3576111a2613397565b5b602002602001019073ffffffffffffffffffffffffffffffffffffffff16908173ffffffffffffffffffffffffffffffffffffffff168152505087806111e890613669565b9850505050505b808060010191505061107d565b5050808061120990613669565b915050611047565b5081845250505090565b5f6112246127b3565b5f015f9054906101000a900473ffffffffffffffffffffffffffffffffffffffff16905090565b611254336127df565b61125c6127b3565b5f015f6101000a81549073ffffffffffffffffffffffffffffffffffffffff0219169055565b60605f61128d611b7a565b9050806001015f9054906101000a900461ffff1661ffff1667ffffffffffffffff8111156112be576112bd612d23565b5b6040519080825280602002602001820160405280156112f757816020015b6112e4612955565b8152602001906001900390816112dc5790505b5091505f816001015f9054906101000a900461ffff1661ffff1667ffffffffffffffff81111561132a57611329612d23565b5b6040519080825280602002602001820160405280156113585781602001602082028036833780820191505090505b5090505f805f5b846001015f9054906101000a900461ffff1661ffff1682101561174c575f856002015f8381526020019081526020015f205490505f5b60088110156117375783806113a990613669565b945050866001015f9054906101000a900461ffff1661ffff168411611737575f600582901b83901b90505f885f015f837bffffffffffffffffffffffffffffffffffffffffffffffffffffffff19167bffffffffffffffffffffffffffffffffffffffffffffffffffffffff191681526020019081526020015f205460601c90505f805b88811015611591578273ffffffffffffffffffffffffffffffffffffffff168c828151811061145f5761145e613397565b5b60200260200101515f015173ffffffffffffffffffffffffffffffffffffffff160361158457838c828151811061149957611498613397565b5b6020026020010151602001518b83815181106114b8576114b7613397565b5b602002602001015160ff16815181106114d4576114d3613397565b5b60200260200101907bffffffffffffffffffffffffffffffffffffffffffffffffffffffff191690817bffffffffffffffffffffffffffffffffffffffffffffffffffffffff19168152505060ff8a828151811061153557611534613397565b5b602002602001015160ff1610611549575f80fd5b89818151811061155c5761155b613397565b5b602002602001018051809190611571906136bc565b60ff1660ff168152505060019150611591565b808060010191505061142d565b5080156115a05750505061172a565b818b89815181106115b4576115b3613397565b5b60200260200101515f019073ffffffffffffffffffffffffffffffffffffffff16908173ffffffffffffffffffffffffffffffffffffffff1681525050896001015f9054906101000a900461ffff1661ffff1667ffffffffffffffff8111156116205761161f612d23565b5b60405190808252806020026020018201604052801561164e5781602001602082028036833780820191505090505b508b898151811061166257611661613397565b5b602002602001015160200181905250828b898151811061168557611684613397565b5b6020026020010151602001515f815181106116a3576116a2613397565b5b60200260200101907bffffffffffffffffffffffffffffffffffffffffffffffffffffffff191690817bffffffffffffffffffffffffffffffffffffffffffffffffffffffff191681525050600189898151811061170457611703613397565b5b602002602001019060ff16908160ff1681525050878061172390613669565b9850505050505b8080600101915050611395565b5050808061174490613669565b91505061135f565b505f5b828110156117ac575f84828151811061176b5761176a613397565b5b602002602001015160ff1690505f87838151811061178c5761178b613397565b5b60200260200101516020015190508181525050808060010191505061174f565b508185525050505090565b806117c0611b7a565b6003015f6101000a81548173ffffffffffffffffffffffffffffffffffffffff021916908373ffffffffffffffffffffffffffffffffffffffff16021790555050565b60605f61180e611b7a565b9050806001015f9054906101000a900461ffff1661ffff1667ffffffffffffffff81111561183f5761183e612d23565b5b60405190808252806020026020018201604052801561186d5781602001602082028036833780820191505090505b5091505f805f5b836001015f9054906101000a900461ffff1661ffff16821015611a00575f846002015f8381526020019081526020015f205490505f5b60088110156119eb5783806118be90613669565b945050856001015f9054906101000a900461ffff1661ffff1684116119eb575f600582901b83901b9050865f015f827bffffffffffffffffffffffffffffffffffffffffffffffffffffffff19167bffffffffffffffffffffffffffffffffffffffffffffffffffffffff191681526020019081526020015f205460601c73ffffffffffffffffffffffffffffffffffffffff168973ffffffffffffffffffffffffffffffffffffffff16036119dd578088878151811061198257611981613397565b5b60200260200101907bffffffffffffffffffffffffffffffffffffffffffffffffffffffff191690817bffffffffffffffffffffffffffffffffffffffffffffffffffffffff19168152505085806119d990613669565b9650505b5080806001019150506118aa565b505080806119f890613669565b915050611874565b50818452505050919050565b5f611a15611b7a565b5f015f837bffffffffffffffffffffffffffffffffffffffffffffffffffffffff19167bffffffffffffffffffffffffffffffffffffffffffffffffffffffff191681526020019081526020015f205460601c9050919050565b611a78816128ab565b50565b5f805f7f177481ac65e4292921c69f62d1cc7f57541261e5d61c8175cf4e36a01c9bfc939050809150815f015f80357fffffffff00000000000000000000000000000000000000000000000000000000167bffffffffffffffffffffffffffffffffffffffffffffffffffffffff19167bffffffffffffffffffffffffffffffffffffffffffffffffffffffff191681526020019081526020015f205460601c9250505090565b5f807ffc606c433378e3a7e0a6a531deac289b66caa1b4aa8554fd4ab2c6f1570f92d890508091505090565b5f807f8a22373512790c48b83a1fe2efdd2888d4a917bcdc24d0adf63e60f67168046090508091505090565b5f807f177481ac65e4292921c69f62d1cc7f57541261e5d61c8175cf4e36a01c9bfc9390508091505090565b5f80611bca835f015173ffffffffffffffffffffffffffffffffffffffff1661048e565b15611c3c573073ffffffffffffffffffffffffffffffffffffffff16835f015173ffffffffffffffffffffffffffffffffffffffff1603611c37576040517fe983573100000000000000000000000000000000000000000000000000000000815260040160405180910390fd5b611ca5565b3073ffffffffffffffffffffffffffffffffffffffff16835f015173ffffffffffffffffffffffffffffffffffffffff1614611ca4576040517ff77172ac00000000000000000000000000000000000000000000000000000000815260040160405180910390fd5b5b5f5b836040015151811015611e9c575f84604001518281518110611ccc57611ccb613397565b5b602002602001015190505f885f015f837bffffffffffffffffffffffffffffffffffffffffffffffffffffffff19167bffffffffffffffffffffffffffffffffffffffffffffffffffffffff191681526020019081526020015f205490505f73ffffffffffffffffffffffffffffffffffffffff168160601c73ffffffffffffffffffffffffffffffffffffffff1614611d92576040517f92474ee200000000000000000000000000000000000000000000000000000000815260040160405180910390fd5b875f1b865f015160601b6bffffffffffffffffffffffff191617895f015f847bffffffffffffffffffffffffffffffffffffffffffffffffffffffff19167bffffffffffffffffffffffffffffffffffffffffffffffffffffffff191681526020019081526020015f20819055505f600560078a16901b905080837bffffffffffffffffffffffffffffffffffffffffffffffffffffffff1916901c817fffffffff000000000000000000000000000000000000000000000000000000005f1b901c19891617975060e08103611e8457878a6002015f60038c901c81526020019081526020015f20819055505f801b97505b88806001019950505050508080600101915050611ca7565b5084849150915094509492505050565b611ece815f015173ffffffffffffffffffffffffffffffffffffffff1661048e565b611f04576040517ff77172ac00000000000000000000000000000000000000000000000000000000815260040160405180910390fd5b5f5b81604001515181101561214e575f82604001518281518110611f2b57611f2a613397565b5b602002602001015190505f845f015f837bffffffffffffffffffffffffffffffffffffffffffffffffffffffff19167bffffffffffffffffffffffffffffffffffffffffffffffffffffffff191681526020019081526020015f205490505f8160601c90505f73ffffffffffffffffffffffffffffffffffffffff168173ffffffffffffffffffffffffffffffffffffffff1603611ff5576040517f6fc4b52e00000000000000000000000000000000000000000000000000000000815260040160405180910390fd5b3073ffffffffffffffffffffffffffffffffffffffff168173ffffffffffffffffffffffffffffffffffffffff160361205a576040517fe983573100000000000000000000000000000000000000000000000000000000815260040160405180910390fd5b845f015173ffffffffffffffffffffffffffffffffffffffff168173ffffffffffffffffffffffffffffffffffffffff16036120c2576040517f617557e600000000000000000000000000000000000000000000000000000000815260040160405180910390fd5b845f015160601b6bffffffffffffffffffffffff19166bffffffffffffffffffffffff5f1b831617865f015f857bffffffffffffffffffffffffffffffffffffffffffffffffffffffff19167bffffffffffffffffffffffffffffffffffffffffffffffffffffffff191681526020019081526020015f20819055505050508080600101915050611f06565b505050565b5f805f73ffffffffffffffffffffffffffffffffffffffff16835f015173ffffffffffffffffffffffffffffffffffffffff16146121bd576040517feacd242400000000000000000000000000000000000000000000000000000000815260040160405180910390fd5b5f600386901c90505f6007871690505f5b8560400151518110156125f4575f866040015182815181106121f3576121f2613397565b5b602002602001015190505f8a5f015f837bffffffffffffffffffffffffffffffffffffffffffffffffffffffff19167bffffffffffffffffffffffffffffffffffffffffffffffffffffffff191681526020019081526020015f205490505f73ffffffffffffffffffffffffffffffffffffffff168160601c73ffffffffffffffffffffffffffffffffffffffff16036122b9576040517f6fc4b52e00000000000000000000000000000000000000000000000000000000815260040160405180910390fd5b3073ffffffffffffffffffffffffffffffffffffffff168160601c73ffffffffffffffffffffffffffffffffffffffff1603612321576040517fe983573100000000000000000000000000000000000000000000000000000000815260040160405180910390fd5b5f801b8903612352578480600190039550508a6002015f8681526020019081526020015f205498506007935061235c565b8380600190039450505b5f805f600587901b8c901b9250847bffffffffffffffffffffffffffffffffffffffffffffffffffffffff1916837bffffffffffffffffffffffffffffffffffffffffffffffffffffffff191614612475578d5f015f847bffffffffffffffffffffffffffffffffffffffffffffffffffffffff19167bffffffffffffffffffffffffffffffffffffffffffffffffffffffff191681526020019081526020015f20546bffffffffffffffffffffffff19166bffffffffffffffffffffffff5f1b8516178e5f015f857bffffffffffffffffffffffffffffffffffffffffffffffffffffffff19167bffffffffffffffffffffffffffffffffffffffffffffffffffffffff191681526020019081526020015f20819055505b8d5f015f867bffffffffffffffffffffffffffffffffffffffffffffffffffffffff19167bffffffffffffffffffffffffffffffffffffffffffffffffffffffff191681526020019081526020015f205f90555f845f1c61ffff169050600381901c9250600560078216901b91505087821461256f575f8e6002015f8481526020019081526020015f2054905081847bffffffffffffffffffffffffffffffffffffffffffffffffffffffff1916901c827fffffffff000000000000000000000000000000000000000000000000000000005f1b901c198216179050808f6002015f8581526020019081526020015f2081905550506125bf565b80837bffffffffffffffffffffffffffffffffffffffffffffffffffffffff1916901c817fffffffff000000000000000000000000000000000000000000000000000000005f1b901c198d16179b505b5f87036125e2578d6002015f8981526020019081526020015f205f90555f801b9b505b505050505080806001019150506121ce565b5080600383901b179650868693509350505094509492505050565b5f81511415155f73ffffffffffffffffffffffffffffffffffffffff168373ffffffffffffffffffffffffffffffffffffffff161415151461267d576040517f26df4ccd00000000000000000000000000000000000000000000000000000000815260040160405180910390fd5b5f73ffffffffffffffffffffffffffffffffffffffff168273ffffffffffffffffffffffffffffffffffffffff16146127af573073ffffffffffffffffffffffffffffffffffffffff168273ffffffffffffffffffffffffffffffffffffffff1614612739576127028273ffffffffffffffffffffffffffffffffffffffff1661048e565b612738576040517ff77172ac00000000000000000000000000000000000000000000000000000000815260040160405180910390fd5b5b5f8273ffffffffffffffffffffffffffffffffffffffff168260405161275f919061371e565b5f60405180830381855af49150503d805f8114612797576040519150601f19603f3d011682016040523d82523d5f602084013e61279c565b606091505b50509050806127ad573d5f803e3d5ffd5b505b5050565b5f807f24aa1f7b31fd188a8d3ecfb06bc55c806040e59b03bd4396283442fce661789090508091505090565b5f6127e8611b4e565b90508173ffffffffffffffffffffffffffffffffffffffff16815f015f9054906101000a900473ffffffffffffffffffffffffffffffffffffffff1673ffffffffffffffffffffffffffffffffffffffff167f8be0079c531659141344cd1fd0a4f28419497f9722a3daafe3b4186f6b6457e060405160405180910390a381815f015f6101000a81548173ffffffffffffffffffffffffffffffffffffffff021916908373ffffffffffffffffffffffffffffffffffffffff1602179055505050565b6128b4816128b7565b50565b6128c0816128c3565b50565b806128cc6127b3565b5f015f6101000a81548173ffffffffffffffffffffffffffffffffffffffff021916908373ffffffffffffffffffffffffffffffffffffffff16021790555050565b60405180606001604052805f73ffffffffffffffffffffffffffffffffffffffff1681526020015f60028111156129485761294761336a565b5b8152602001606081525090565b60405180604001604052805f73ffffffffffffffffffffffffffffffffffffffff168152602001606081525090565b5f604051905090565b5f80fd5b5f80fd5b5f7fffffffff0000000000000000000000000000000000000000000000000000000082169050919050565b6129c981612995565b81146129d3575f80fd5b50565b5f813590506129e4816129c0565b92915050565b5f602082840312156129ff576129fe61298d565b5b5f612a0c848285016129d6565b91505092915050565b5f8115159050919050565b612a2981612a15565b82525050565b5f602082019050612a425f830184612a20565b92915050565b5f80fd5b5f80fd5b5f80fd5b5f8083601f840112612a6957612a68612a48565b5b8235905067ffffffffffffffff811115612a8657612a85612a4c565b5b602083019150836020820283011115612aa257612aa1612a50565b5b9250929050565b5f73ffffffffffffffffffffffffffffffffffffffff82169050919050565b5f612ad282612aa9565b9050919050565b612ae281612ac8565b8114612aec575f80fd5b50565b5f81359050612afd81612ad9565b92915050565b5f8083601f840112612b1857612b17612a48565b5b8235905067ffffffffffffffff811115612b3557612b34612a4c565b5b602083019150836001820283011115612b5157612b50612a50565b5b9250929050565b5f805f805f60608688031215612b7157612b7061298d565b5b5f86013567ffffffffffffffff811115612b8e57612b8d612991565b5b612b9a88828901612a54565b95509550506020612bad88828901612aef565b935050604086013567ffffffffffffffff811115612bce57612bcd612991565b5b612bda88828901612b03565b92509250509295509295909350565b5f60208284031215612bfe57612bfd61298d565b5b5f612c0b84828501612aef565b91505092915050565b612c1d81612ac8565b82525050565b5f602082019050612c365f830184612c14565b92915050565b5f81519050919050565b5f82825260208201905092915050565b5f819050602082019050919050565b612c6e81612ac8565b82525050565b5f612c7f8383612c65565b60208301905092915050565b5f602082019050919050565b5f612ca182612c3c565b612cab8185612c46565b9350612cb683612c56565b805f5b83811015612ce6578151612ccd8882612c74565b9750612cd883612c8b565b925050600181019050612cb9565b5085935050505092915050565b5f6020820190508181035f830152612d0b8184612c97565b905092915050565b5f601f19601f8301169050919050565b7f4e487b71000000000000000000000000000000000000000000000000000000005f52604160045260245ffd5b612d5982612d13565b810181811067ffffffffffffffff82111715612d7857612d77612d23565b5b80604052505050565b5f612d8a612984565b9050612d968282612d50565b919050565b5f67ffffffffffffffff821115612db557612db4612d23565b5b602082029050602081019050919050565b5f612dd8612dd384612d9b565b612d81565b90508083825260208201905060208402830185811115612dfb57612dfa612a50565b5b835b81811015612e245780612e1088826129d6565b845260208401935050602081019050612dfd565b5050509392505050565b5f82601f830112612e4257612e41612a48565b5b8135612e52848260208601612dc6565b91505092915050565b5f8060408385031215612e7157612e7061298d565b5b5f612e7e85828601612aef565b925050602083013567ffffffffffffffff811115612e9f57612e9e612991565b5b612eab85828601612e2e565b9150509250929050565b5f81519050919050565b5f82825260208201905092915050565b5f819050602082019050919050565b5f81519050919050565b5f82825260208201905092915050565b5f819050602082019050919050565b612f1081612995565b82525050565b5f612f218383612f07565b60208301905092915050565b5f602082019050919050565b5f612f4382612ede565b612f4d8185612ee8565b9350612f5883612ef8565b805f5b83811015612f88578151612f6f8882612f16565b9750612f7a83612f2d565b925050600181019050612f5b565b5085935050505092915050565b5f604083015f830151612faa5f860182612c65565b5060208301518482036020860152612fc28282612f39565b9150508091505092915050565b5f612fda8383612f95565b905092915050565b5f602082019050919050565b5f612ff882612eb5565b6130028185612ebf565b93508360208202850161301485612ecf565b805f5b8581101561304f57848403895281516130308582612fcf565b945061303b83612fe2565b925060208a01995050600181019050613017565b50829750879550505050505092915050565b5f6020820190508181035f8301526130798184612fee565b905092915050565b5f82825260208201905092915050565b5f61309b82612ede565b6130a58185613081565b93506130b083612ef8565b805f5b838110156130e05781516130c78882612f16565b97506130d283612f2d565b9250506001810190506130b3565b5085935050505092915050565b5f6020820190508181035f8301526131058184613091565b905092915050565b5f67ffffffffffffffff82111561312757613126612d23565b5b602082029050602081019050919050565b5f80fd5b5f80fd5b6003811061314c575f80fd5b50565b5f8135905061315d81613140565b92915050565b5f6060828403121561317857613177613138565b5b6131826060612d81565b90505f61319184828501612aef565b5f8301525060206131a48482850161314f565b602083015250604082013567ffffffffffffffff8111156131c8576131c761313c565b5b6131d484828501612e2e565b60408301525092915050565b5f6131f26131ed8461310d565b612d81565b9050808382526020820190506020840283018581111561321557613214612a50565b5b835b8181101561325c57803567ffffffffffffffff81111561323a57613239612a48565b5b8086016132478982613163565b85526020850194505050602081019050613217565b5050509392505050565b5f6132723684846131e0565b905092915050565b5f81519050613288816129c0565b92915050565b5f6132a061329b84612d9b565b612d81565b905080838252602082019050602084028301858111156132c3576132c2612a50565b5b835b818110156132ec57806132d8888261327a565b8452602084019350506020810190506132c5565b5050509392505050565b5f82601f83011261330a57613309612a48565b5b815161331a84826020860161328e565b91505092915050565b5f602082840312156133385761333761298d565b5b5f82015167ffffffffffffffff81111561335557613354612991565b5b613361848285016132f6565b91505092915050565b7f4e487b71000000000000000000000000000000000000000000000000000000005f52602160045260245ffd5b7f4e487b71000000000000000000000000000000000000000000000000000000005f52603260045260245ffd5b5f81519050919050565b5f82825260208201905092915050565b5f819050602082019050919050565b600381106133fe576133fd61336a565b5b50565b5f81905061340e826133ed565b919050565b5f61341d82613401565b9050919050565b61342d81613413565b82525050565b5f606083015f8301516134485f860182612c65565b50602083015161345b6020860182613424565b50604083015184820360408601526134738282612f39565b9150508091505092915050565b5f61348b8383613433565b905092915050565b5f602082019050919050565b5f6134a9826133c4565b6134b381856133ce565b9350836020820285016134c5856133de565b805f5b8581101561350057848403895281516134e18582613480565b94506134ec83613493565b925060208a019950506001810190506134c8565b50829750879550505050505092915050565b5f82825260208201905092915050565b50565b5f6135305f83613512565b915061353b82613522565b5f82019050919050565b5f6060820190508181035f83015261355d818561349f565b905061356c6020830184612c14565b818103604083015261357d81613525565b90509392505050565b5f81519050919050565b5f5b838110156135ad578082015181840152602081019050613592565b5f8484015250505050565b5f6135c282613586565b6135cc8185613512565b93506135dc818560208601613590565b6135e581612d13565b840191505092915050565b5f6060820190508181035f830152613608818661349f565b90506136176020830185612c14565b818103604083015261362981846135b8565b9050949350505050565b7f4e487b71000000000000000000000000000000000000000000000000000000005f52601160045260245ffd5b5f819050919050565b5f61367382613660565b91507fffffffffffffffffffffffffffffffffffffffffffffffffffffffffffffffff82036136a5576136a4613633565b5b600182019050919050565b5f60ff82169050919050565b5f6136c6826136b0565b915060ff82036136d9576136d8613633565b5b600182019050919050565b5f81905092915050565b5f6136f882613586565b61370281856136e4565b9350613712818560208601613590565b80840191505092915050565b5f61372982846136ee565b91508190509291505056fea264697066735822122027d1c1d0f872f094b33568622c8cb5d08a2bc8a3d599782fbf163eaabcbe74d364736f6c63430008180033",
			"opcodes": "PUSH1 0x80 PUSH1 0x40 MSTORE CALLVALUE DUP1 ISZERO PUSH3 0x10 JUMPI PUSH0 DUP1 REVERT JUMPDEST POP PUSH0 PUSH1 0xC PUSH8 0xFFFFFFFFFFFFFFFF DUP2 GT ISZERO PUSH3 0x30 JUMPI PUSH3 0x2F PUSH3 0x1955 JUMP JUMPDEST JUMPDEST PUSH1 0x40 MLOAD SWAP1 DUP1 DUP3 MSTORE DUP1 PUSH1 0x20 MUL PUSH1 0x20 ADD DUP3 ADD PUSH1 0x40 MSTORE DUP1 ISZERO PUSH3 0x5F JUMPI DUP2 PUSH1 0x20 ADD PUSH1 0x20 DUP3 MUL DUP1 CALLDATASIZE DUP4 CALLDATACOPY DUP1 DUP3 ADD SWAP2 POP POP SWAP1 POP JUMPDEST POP SWAP1 POP PUSH0 PUSH4 0x2C408059 PUSH1 0xE0 SHL DUP3 DUP3 DUP1 PUSH3 0x79 SWAP1 PUSH3 0x19B8 JUMP JUMPDEST SWAP4 POP DUP2 MLOAD DUP2 LT PUSH3 0x8F JUMPI PUSH3 0x8E PUSH3 0x1A04 JUMP JUMPDEST JUMPDEST PUSH1 0x20 MUL PUSH1 0x20 ADD ADD SWAP1 PUSH28 0xFFFFFFFFFFFFFFFFFFFFFFFFFFFFFFFFFFFFFFFFFFFFFFFFFFFFFFFF NOT AND SWAP1 DUP2 PUSH28 0xFFFFFFFFFFFFFFFFFFFFFFFFFFFFFFFFFFFFFFFFFFFFFFFFFFFFFFFF NOT AND DUP2 MSTORE POP POP PUSH4 0x91423765 PUSH1 0xE0 SHL DUP3 DUP3 DUP1 PUSH3 0xF1 SWAP1 PUSH3 0x19B8 JUMP JUMPDEST SWAP4 POP DUP2 MLOAD DUP2 LT PUSH3 0x107 JUMPI PUSH3 0x106 PUSH3 0x1A04 JUMP JUMPDEST JUMPDEST PUSH1 0x20 MUL PUSH1 0x20 ADD ADD SWAP1 PUSH28 0xFFFFFFFFFFFFFFFFFFFFFFFFFFFFFFFFFFFFFFFFFFFFFFFFFFFFFFFF NOT AND SWAP1 DUP2 PUSH28 0xFFFFFFFFFFFFFFFFFFFFFFFFFFFFFFFFFFFFFFFFFFFFFFFFFFFFFFFF NOT AND DUP2 MSTORE POP POP PUSH3 0x186 PUSH32 0xBD02B73C00000000000000000000000000000000000000000000000000000000 PUSH1 0x1 PUSH3 0x803 PUSH1 0x20 SHL PUSH1 0x20 SHR JUMP JUMPDEST PUSH4 0x1F931C1C PUSH1 0xE0 SHL DUP3 DUP3 DUP1 PUSH3 0x19C SWAP1 PUSH3 0x19B8 JUMP JUMPDEST SWAP4 POP DUP2 MLOAD DUP2 LT PUSH3 0x1B2 JUMPI PUSH3 0x1B1 PUSH3 0x1A04 JUMP JUMPDEST JUMPDEST PUSH1 0x20 MUL PUSH1 0x20 ADD ADD SWAP1 PUSH28 0xFFFFFFFFFFFFFFFFFFFFFFFFFFFFFFFFFFFFFFFFFFFFFFFFFFFFFFFF NOT AND SWAP1 DUP2 PUSH28 0xFFFFFFFFFFFFFFFFFFFFFFFFFFFFFFFFFFFFFFFFFFFFFFFFFFFFFFFF NOT AND DUP2 MSTORE POP POP PUSH3 0x231 PUSH32 0x1F931C1C00000000000000000000000000000000000000000000000000000000 PUSH1 0x1 PUSH3 0x803 PUSH1 0x20 SHL PUSH1 0x20 SHR JUMP JUMPDEST PUSH4 0x7A0ED627 PUSH1 0xE0 SHL DUP3 DUP3 DUP1 PUSH3 0x247 SWAP1 PUSH3 0x19B8 JUMP JUMPDEST SWAP4 POP DUP2 MLOAD DUP2 LT PUSH3 0x25D JUMPI PUSH3 0x25C PUSH3 0x1A04 JUMP JUMPDEST JUMPDEST PUSH1 0x20 MUL PUSH1 0x20 ADD ADD SWAP1 PUSH28 0xFFFFFFFFFFFFFFFFFFFFFFFFFFFFFFFFFFFFFFFFFFFFFFFFFFFFFFFF NOT AND SWAP1 DUP2 PUSH28 0xFFFFFFFFFFFFFFFFFFFFFFFFFFFFFFFFFFFFFFFFFFFFFFFFFFFFFFFF NOT AND DUP2 MSTORE POP POP PUSH4 0xADFCA15E PUSH1 0xE0 SHL DUP3 DUP3 DUP1 PUSH3 0x2BF SWAP1 PUSH3 0x19B8 JUMP JUMPDEST SWAP4 POP DUP2 MLOAD DUP2 LT PUSH3 0x2D5 JUMPI PUSH3 0x2D4 PUSH3 0x1A04 JUMP JUMPDEST JUMPDEST PUSH1 0x20 MUL PUSH1 0x20 ADD ADD SWAP1 PUSH28 0xFFFFFFFFFFFFFFFFFFFFFFFFFFFFFFFFFFFFFFFFFFFFFFFFFFFFFFFF NOT AND SWAP1 DUP2 PUSH28 0xFFFFFFFFFFFFFFFFFFFFFFFFFFFFFFFFFFFFFFFFFFFFFFFFFFFFFFFF NOT AND DUP2 MSTORE POP POP PUSH4 0x52EF6B2C PUSH1 0xE0 SHL DUP3 DUP3 DUP1 PUSH3 0x337 SWAP1 PUSH3 0x19B8 JUMP JUMPDEST SWAP4 POP DUP2 MLOAD DUP2 LT PUSH3 0x34D JUMPI PUSH3 0x34C PUSH3 0x1A04 JUMP JUMPDEST JUMPDEST PUSH1 0x20 MUL PUSH1 0x20 ADD ADD SWAP1 PUSH28 0xFFFFFFFFFFFFFFFFFFFFFFFFFFFFFFFFFFFFFFFFFFFFFFFFFFFFFFFF NOT AND SWAP1 DUP2 PUSH28 0xFFFFFFFFFFFFFFFFFFFFFFFFFFFFFFFFFFFFFFFFFFFFFFFFFFFFFFFF NOT AND DUP2 MSTORE POP POP PUSH4 0xCDFFACC6 PUSH1 0xE0 SHL DUP3 DUP3 DUP1 PUSH3 0x3AF SWAP1 PUSH3 0x19B8 JUMP JUMPDEST SWAP4 POP DUP2 MLOAD DUP2 LT PUSH3 0x3C5 JUMPI PUSH3 0x3C4 PUSH3 0x1A04 JUMP JUMPDEST JUMPDEST PUSH1 0x20 MUL PUSH1 0x20 ADD ADD SWAP1 PUSH28 0xFFFFFFFFFFFFFFFFFFFFFFFFFFFFFFFFFFFFFFFFFFFFFFFFFFFFFFFF NOT AND SWAP1 DUP2 PUSH28 0xFFFFFFFFFFFFFFFFFFFFFFFFFFFFFFFFFFFFFFFFFFFFFFFFFFFFFFFF NOT AND DUP2 MSTORE POP POP PUSH3 0x444 PUSH32 0x48E2B09300000000000000000000000000000000000000000000000000000000 PUSH1 0x1 PUSH3 0x803 PUSH1 0x20 SHL PUSH1 0x20 SHR JUMP JUMPDEST PUSH4 0x1FFC9A7 PUSH1 0xE0 SHL DUP3 DUP3 DUP1 PUSH3 0x45A SWAP1 PUSH3 0x19B8 JUMP JUMPDEST SWAP4 POP DUP2 MLOAD DUP2 LT PUSH3 0x470 JUMPI PUSH3 0x46F PUSH3 0x1A04 JUMP JUMPDEST JUMPDEST PUSH1 0x20 MUL PUSH1 0x20 ADD ADD SWAP1 PUSH28 0xFFFFFFFFFFFFFFFFFFFFFFFFFFFFFFFFFFFFFFFFFFFFFFFFFFFFFFFF NOT AND SWAP1 DUP2 PUSH28 0xFFFFFFFFFFFFFFFFFFFFFFFFFFFFFFFFFFFFFFFFFFFFFFFFFFFFFFFF NOT AND DUP2 MSTORE POP POP PUSH3 0x4EF PUSH32 0x1FFC9A700000000000000000000000000000000000000000000000000000000 PUSH1 0x1 PUSH3 0x803 PUSH1 0x20 SHL PUSH1 0x20 SHR JUMP JUMPDEST PUSH4 0x8DA5CB5B PUSH1 0xE0 SHL DUP3 DUP3 DUP1 PUSH3 0x505 SWAP1 PUSH3 0x19B8 JUMP JUMPDEST SWAP4 POP DUP2 MLOAD DUP2 LT PUSH3 0x51B JUMPI PUSH3 0x51A PUSH3 0x1A04 JUMP JUMPDEST JUMPDEST PUSH1 0x20 MUL PUSH1 0x20 ADD ADD SWAP1 PUSH28 0xFFFFFFFFFFFFFFFFFFFFFFFFFFFFFFFFFFFFFFFFFFFFFFFFFFFFFFFF NOT AND SWAP1 DUP2 PUSH28 0xFFFFFFFFFFFFFFFFFFFFFFFFFFFFFFFFFFFFFFFFFFFFFFFFFFFFFFFF NOT AND DUP2 MSTORE POP POP PUSH4 0x8AB5150A PUSH1 0xE0 SHL DUP3 DUP3 DUP1 PUSH3 0x57D SWAP1 PUSH3 0x19B8 JUMP JUMPDEST SWAP4 POP DUP2 MLOAD DUP2 LT PUSH3 0x593 JUMPI PUSH3 0x592 PUSH3 0x1A04 JUMP JUMPDEST JUMPDEST PUSH1 0x20 MUL PUSH1 0x20 ADD ADD SWAP1 PUSH28 0xFFFFFFFFFFFFFFFFFFFFFFFFFFFFFFFFFFFFFFFFFFFFFFFFFFFFFFFF NOT AND SWAP1 DUP2 PUSH28 0xFFFFFFFFFFFFFFFFFFFFFFFFFFFFFFFFFFFFFFFFFFFFFFFFFFFFFFFF NOT AND DUP2 MSTORE POP POP PUSH4 0xF2FDE38B PUSH1 0xE0 SHL DUP3 DUP3 DUP1 PUSH3 0x5F5 SWAP1 PUSH3 0x19B8 JUMP JUMPDEST SWAP4 POP DUP2 MLOAD DUP2 LT PUSH3 0x60B JUMPI PUSH3 0x60A PUSH3 0x1A04 JUMP JUMPDEST JUMPDEST PUSH1 0x20 MUL PUSH1 0x20 ADD ADD SWAP1 PUSH28 0xFFFFFFFFFFFFFFFFFFFFFFFFFFFFFFFFFFFFFFFFFFFFFFFFFFFFFFFF NOT AND SWAP1 DUP2 PUSH28 0xFFFFFFFFFFFFFFFFFFFFFFFFFFFFFFFFFFFFFFFFFFFFFFFFFFFFFFFF NOT AND DUP2 MSTORE POP POP PUSH4 0x79BA5097 PUSH1 0xE0 SHL DUP3 DUP3 DUP1 PUSH3 0x66D SWAP1 PUSH3 0x19B8 JUMP JUMPDEST SWAP4 POP DUP2 MLOAD DUP2 LT PUSH3 0x683 JUMPI PUSH3 0x682 PUSH3 0x1A04 JUMP JUMPDEST JUMPDEST PUSH1 0x20 MUL PUSH1 0x20 ADD ADD SWAP1 PUSH28 0xFFFFFFFFFFFFFFFFFFFFFFFFFFFFFFFFFFFFFFFFFFFFFFFFFFFFFFFF NOT AND SWAP1 DUP2 PUSH28 0xFFFFFFFFFFFFFFFFFFFFFFFFFFFFFFFFFFFFFFFFFFFFFFFFFFFFFFFF NOT AND DUP2 MSTORE POP POP PUSH3 0x702 PUSH32 0x7F5828D000000000000000000000000000000000000000000000000000000000 PUSH1 0x1 PUSH3 0x803 PUSH1 0x20 SHL PUSH1 0x20 SHR JUMP JUMPDEST PUSH0 PUSH1 0x1 PUSH8 0xFFFFFFFFFFFFFFFF DUP2 GT ISZERO PUSH3 0x721 JUMPI PUSH3 0x720 PUSH3 0x1955 JUMP JUMPDEST JUMPDEST PUSH1 0x40 MLOAD SWAP1 DUP1 DUP3 MSTORE DUP1 PUSH1 0x20 MUL PUSH1 0x20 ADD DUP3 ADD PUSH1 0x40 MSTORE DUP1 ISZERO PUSH3 0x75E JUMPI DUP2 PUSH1 0x20 ADD JUMPDEST PUSH3 0x74A PUSH3 0x190B JUMP JUMPDEST DUP2 MSTORE PUSH1 0x20 ADD SWAP1 PUSH1 0x1 SWAP1 SUB SWAP1 DUP2 PUSH3 0x740 JUMPI SWAP1 POP JUMPDEST POP SWAP1 POP PUSH1 0x40 MLOAD DUP1 PUSH1 0x60 ADD PUSH1 0x40 MSTORE DUP1 ADDRESS PUSH20 0xFFFFFFFFFFFFFFFFFFFFFFFFFFFFFFFFFFFFFFFF AND DUP2 MSTORE PUSH1 0x20 ADD PUSH0 PUSH1 0x2 DUP2 GT ISZERO PUSH3 0x79E JUMPI PUSH3 0x79D PUSH3 0x1A31 JUMP JUMPDEST JUMPDEST DUP2 MSTORE PUSH1 0x20 ADD DUP5 DUP2 MSTORE POP DUP2 PUSH0 DUP2 MLOAD DUP2 LT PUSH3 0x7BD JUMPI PUSH3 0x7BC PUSH3 0x1A04 JUMP JUMPDEST JUMPDEST PUSH1 0x20 MUL PUSH1 0x20 ADD ADD DUP2 SWAP1 MSTORE POP PUSH3 0x7E9 DUP2 PUSH0 PUSH1 0x40 MLOAD DUP1 PUSH1 0x20 ADD PUSH1 0x40 MSTORE DUP1 PUSH0 DUP2 MSTORE POP PUSH3 0x8DD PUSH1 0x20 SHL PUSH1 0x20 SHR JUMP JUMPDEST PUSH3 0x7FA CALLER PUSH3 0xB52 PUSH1 0x20 SHL PUSH1 0x20 SHR JUMP JUMPDEST POP POP POP PUSH3 0x1E44 JUMP JUMPDEST PUSH4 0xFFFFFFFF PUSH1 0xE0 SHL DUP3 PUSH28 0xFFFFFFFFFFFFFFFFFFFFFFFFFFFFFFFFFFFFFFFFFFFFFFFFFFFFFFFF NOT AND SUB PUSH3 0x863 JUMPI PUSH1 0x40 MLOAD PUSH32 0xB0A19DD500000000000000000000000000000000000000000000000000000000 DUP2 MSTORE PUSH1 0x4 ADD PUSH1 0x40 MLOAD DUP1 SWAP2 SUB SWAP1 REVERT JUMPDEST DUP1 PUSH3 0x874 PUSH3 0xC26 PUSH1 0x20 SHL PUSH1 0x20 SHR JUMP JUMPDEST PUSH0 ADD PUSH0 DUP5 PUSH28 0xFFFFFFFFFFFFFFFFFFFFFFFFFFFFFFFFFFFFFFFFFFFFFFFFFFFFFFFF NOT AND PUSH28 0xFFFFFFFFFFFFFFFFFFFFFFFFFFFFFFFFFFFFFFFFFFFFFFFFFFFFFFFF NOT AND DUP2 MSTORE PUSH1 0x20 ADD SWAP1 DUP2 MSTORE PUSH1 0x20 ADD PUSH0 KECCAK256 PUSH0 PUSH2 0x100 EXP DUP2 SLOAD DUP2 PUSH1 0xFF MUL NOT AND SWAP1 DUP4 ISZERO ISZERO MUL OR SWAP1 SSTORE POP POP POP JUMP JUMPDEST PUSH0 PUSH3 0x8EE PUSH3 0xC52 PUSH1 0x20 SHL PUSH1 0x20 SHR JUMP JUMPDEST SWAP1 POP PUSH0 DUP2 PUSH1 0x1 ADD PUSH0 SWAP1 SLOAD SWAP1 PUSH2 0x100 EXP SWAP1 DIV PUSH2 0xFFFF AND PUSH2 0xFFFF AND SWAP1 POP PUSH0 DUP2 SWAP1 POP PUSH0 DUP1 PUSH1 0x7 DUP4 AND GT ISZERO PUSH3 0x935 JUMPI DUP4 PUSH1 0x2 ADD PUSH0 PUSH1 0x3 DUP5 SWAP1 SHR DUP2 MSTORE PUSH1 0x20 ADD SWAP1 DUP2 MSTORE PUSH1 0x20 ADD PUSH0 KECCAK256 SLOAD SWAP1 POP JUMPDEST PUSH0 JUMPDEST DUP8 MLOAD DUP2 LT ISZERO PUSH3 0xAA9 JUMPI PUSH0 DUP9 DUP3 DUP2 MLOAD DUP2 LT PUSH3 0x958 JUMPI PUSH3 0x957 PUSH3 0x1A04 JUMP JUMPDEST JUMPDEST PUSH1 0x20 MUL PUSH1 0x20 ADD ADD MLOAD SWAP1 POP PUSH0 DUP2 PUSH1 0x20 ADD MLOAD SWAP1 POP PUSH0 DUP3 PUSH1 0x40 ADD MLOAD MLOAD SUB PUSH3 0x9A9 JUMPI PUSH1 0x40 MLOAD PUSH32 0xEB6C3AEB00000000000000000000000000000000000000000000000000000000 DUP2 MSTORE PUSH1 0x4 ADD PUSH1 0x40 MLOAD DUP1 SWAP2 SUB SWAP1 REVERT JUMPDEST PUSH0 PUSH1 0x2 DUP2 GT ISZERO PUSH3 0x9BF JUMPI PUSH3 0x9BE PUSH3 0x1A31 JUMP JUMPDEST JUMPDEST DUP2 PUSH1 0x2 DUP2 GT ISZERO PUSH3 0x9D5 JUMPI PUSH3 0x9D4 PUSH3 0x1A31 JUMP JUMPDEST JUMPDEST SUB PUSH3 0x9FD JUMPI PUSH3 0x9EF DUP8 DUP7 DUP7 DUP6 PUSH3 0xC7E PUSH1 0x20 SHL PUSH1 0x20 SHR JUMP JUMPDEST DUP1 SWAP6 POP DUP2 SWAP7 POP POP POP PUSH3 0xA99 JUMP JUMPDEST PUSH1 0x1 PUSH1 0x2 DUP2 GT ISZERO PUSH3 0xA14 JUMPI PUSH3 0xA13 PUSH3 0x1A31 JUMP JUMPDEST JUMPDEST DUP2 PUSH1 0x2 DUP2 GT ISZERO PUSH3 0xA2A JUMPI PUSH3 0xA29 PUSH3 0x1A31 JUMP JUMPDEST JUMPDEST SUB PUSH3 0xA48 JUMPI PUSH3 0xA42 DUP8 DUP4 PUSH3 0xF97 PUSH1 0x20 SHL PUSH1 0x20 SHR JUMP JUMPDEST PUSH3 0xA98 JUMP JUMPDEST PUSH1 0x2 DUP1 DUP2 GT ISZERO PUSH3 0xA5E JUMPI PUSH3 0xA5D PUSH3 0x1A31 JUMP JUMPDEST JUMPDEST DUP2 PUSH1 0x2 DUP2 GT ISZERO PUSH3 0xA74 JUMPI PUSH3 0xA73 PUSH3 0x1A31 JUMP JUMPDEST JUMPDEST SUB PUSH3 0xA97 JUMPI PUSH3 0xA8E DUP8 DUP7 DUP7 DUP6 PUSH3 0x124F PUSH1 0x20 SHL PUSH1 0x20 SHR JUMP JUMPDEST DUP1 SWAP6 POP DUP2 SWAP7 POP POP POP JUMPDEST JUMPDEST JUMPDEST POP POP DUP1 DUP1 PUSH1 0x1 ADD SWAP2 POP POP PUSH3 0x937 JUMP JUMPDEST POP DUP3 DUP3 EQ PUSH3 0xAD1 JUMPI DUP2 DUP5 PUSH1 0x1 ADD PUSH0 PUSH2 0x100 EXP DUP2 SLOAD DUP2 PUSH2 0xFFFF MUL NOT AND SWAP1 DUP4 PUSH2 0xFFFF AND MUL OR SWAP1 SSTORE POP JUMPDEST PUSH0 PUSH1 0x7 DUP4 AND GT ISZERO PUSH3 0xAFA JUMPI DUP1 DUP5 PUSH1 0x2 ADD PUSH0 PUSH1 0x3 DUP6 SWAP1 SHR DUP2 MSTORE PUSH1 0x20 ADD SWAP1 DUP2 MSTORE PUSH1 0x20 ADD PUSH0 KECCAK256 DUP2 SWAP1 SSTORE POP JUMPDEST PUSH32 0x8FAA70878671CCD212D20771B795C50AF8FD3FF6CF27F4BDE57E5D4DE0AEB673 DUP8 DUP8 DUP8 PUSH1 0x40 MLOAD PUSH3 0xB2F SWAP4 SWAP3 SWAP2 SWAP1 PUSH3 0x1DA3 JUMP JUMPDEST PUSH1 0x40 MLOAD DUP1 SWAP2 SUB SWAP1 LOG1 PUSH3 0xB49 DUP7 DUP7 PUSH3 0x1719 PUSH1 0x20 SHL PUSH1 0x20 SHR JUMP JUMPDEST POP POP POP POP POP POP POP JUMP JUMPDEST PUSH0 PUSH3 0xB63 PUSH3 0x18CE PUSH1 0x20 SHL PUSH1 0x20 SHR JUMP JUMPDEST SWAP1 POP DUP2 PUSH20 0xFFFFFFFFFFFFFFFFFFFFFFFFFFFFFFFFFFFFFFFF AND DUP2 PUSH0 ADD PUSH0 SWAP1 SLOAD SWAP1 PUSH2 0x100 EXP SWAP1 DIV PUSH20 0xFFFFFFFFFFFFFFFFFFFFFFFFFFFFFFFFFFFFFFFF AND PUSH20 0xFFFFFFFFFFFFFFFFFFFFFFFFFFFFFFFFFFFFFFFF AND PUSH32 0x8BE0079C531659141344CD1FD0A4F28419497F9722A3DAAFE3B4186F6B6457E0 PUSH1 0x40 MLOAD PUSH1 0x40 MLOAD DUP1 SWAP2 SUB SWAP1 LOG3 DUP2 DUP2 PUSH0 ADD PUSH0 PUSH2 0x100 EXP DUP2 SLOAD DUP2 PUSH20 0xFFFFFFFFFFFFFFFFFFFFFFFFFFFFFFFFFFFFFFFF MUL NOT AND SWAP1 DUP4 PUSH20 0xFFFFFFFFFFFFFFFFFFFFFFFFFFFFFFFFFFFFFFFF AND MUL OR SWAP1 SSTORE POP POP POP JUMP JUMPDEST PUSH0 DUP1 PUSH32 0xFC606C433378E3A7E0A6A531DEAC289B66CAA1B4AA8554FD4AB2C6F1570F92D8 SWAP1 POP DUP1 SWAP2 POP POP SWAP1 JUMP JUMPDEST PUSH0 DUP1 PUSH32 0x177481AC65E4292921C69F62D1CC7F57541261E5D61C8175CF4E36A01C9BFC93 SWAP1 POP DUP1 SWAP2 POP POP SWAP1 JUMP JUMPDEST PUSH0 DUP1 PUSH3 0xCAA DUP4 PUSH0 ADD MLOAD PUSH20 0xFFFFFFFFFFFFFFFFFFFFFFFFFFFFFFFFFFFFFFFF AND PUSH3 0x18FA PUSH1 0x20 SHL PUSH1 0x20 SHR JUMP JUMPDEST ISZERO PUSH3 0xD1F JUMPI ADDRESS PUSH20 0xFFFFFFFFFFFFFFFFFFFFFFFFFFFFFFFFFFFFFFFF AND DUP4 PUSH0 ADD MLOAD PUSH20 0xFFFFFFFFFFFFFFFFFFFFFFFFFFFFFFFFFFFFFFFF AND SUB PUSH3 0xD19 JUMPI PUSH1 0x40 MLOAD PUSH32 0xE983573100000000000000000000000000000000000000000000000000000000 DUP2 MSTORE PUSH1 0x4 ADD PUSH1 0x40 MLOAD DUP1 SWAP2 SUB SWAP1 REVERT JUMPDEST PUSH3 0xD89 JUMP JUMPDEST ADDRESS PUSH20 0xFFFFFFFFFFFFFFFFFFFFFFFFFFFFFFFFFFFFFFFF AND DUP4 PUSH0 ADD MLOAD PUSH20 0xFFFFFFFFFFFFFFFFFFFFFFFFFFFFFFFFFFFFFFFF AND EQ PUSH3 0xD88 JUMPI PUSH1 0x40 MLOAD PUSH32 0xF77172AC00000000000000000000000000000000000000000000000000000000 DUP2 MSTORE PUSH1 0x4 ADD PUSH1 0x40 MLOAD DUP1 SWAP2 SUB SWAP1 REVERT JUMPDEST JUMPDEST PUSH0 JUMPDEST DUP4 PUSH1 0x40 ADD MLOAD MLOAD DUP2 LT ISZERO PUSH3 0xF87 JUMPI PUSH0 DUP5 PUSH1 0x40 ADD MLOAD DUP3 DUP2 MLOAD DUP2 LT PUSH3 0xDB4 JUMPI PUSH3 0xDB3 PUSH3 0x1A04 JUMP JUMPDEST JUMPDEST PUSH1 0x20 MUL PUSH1 0x20 ADD ADD MLOAD SWAP1 POP PUSH0 DUP9 PUSH0 ADD PUSH0 DUP4 PUSH28 0xFFFFFFFFFFFFFFFFFFFFFFFFFFFFFFFFFFFFFFFFFFFFFFFFFFFFFFFF NOT AND PUSH28 0xFFFFFFFFFFFFFFFFFFFFFFFFFFFFFFFFFFFFFFFFFFFFFFFFFFFFFFFF NOT AND DUP2 MSTORE PUSH1 0x20 ADD SWAP1 DUP2 MSTORE PUSH1 0x20 ADD PUSH0 KECCAK256 SLOAD SWAP1 POP PUSH0 PUSH20 0xFFFFFFFFFFFFFFFFFFFFFFFFFFFFFFFFFFFFFFFF AND DUP2 PUSH1 0x60 SHR PUSH20 0xFFFFFFFFFFFFFFFFFFFFFFFFFFFFFFFFFFFFFFFF AND EQ PUSH3 0xE7B JUMPI PUSH1 0x40 MLOAD PUSH32 0x92474EE200000000000000000000000000000000000000000000000000000000 DUP2 MSTORE PUSH1 0x4 ADD PUSH1 0x40 MLOAD DUP1 SWAP2 SUB SWAP1 REVERT JUMPDEST DUP8 PUSH0 SHL DUP7 PUSH0 ADD MLOAD PUSH1 0x60 SHL PUSH12 0xFFFFFFFFFFFFFFFFFFFFFFFF NOT AND OR DUP10 PUSH0 ADD PUSH0 DUP5 PUSH28 0xFFFFFFFFFFFFFFFFFFFFFFFFFFFFFFFFFFFFFFFFFFFFFFFFFFFFFFFF NOT AND PUSH28 0xFFFFFFFFFFFFFFFFFFFFFFFFFFFFFFFFFFFFFFFFFFFFFFFFFFFFFFFF NOT AND DUP2 MSTORE PUSH1 0x20 ADD SWAP1 DUP2 MSTORE PUSH1 0x20 ADD PUSH0 KECCAK256 DUP2 SWAP1 SSTORE POP PUSH0 PUSH1 0x5 PUSH1 0x7 DUP11 AND SWAP1 SHL SWAP1 POP DUP1 DUP4 PUSH28 0xFFFFFFFFFFFFFFFFFFFFFFFFFFFFFFFFFFFFFFFFFFFFFFFFFFFFFFFF NOT AND SWAP1 SHR DUP2 PUSH32 0xFFFFFFFF00000000000000000000000000000000000000000000000000000000 PUSH0 SHL SWAP1 SHR NOT DUP10 AND OR SWAP8 POP PUSH1 0xE0 DUP2 SUB PUSH3 0xF6E JUMPI DUP8 DUP11 PUSH1 0x2 ADD PUSH0 PUSH1 0x3 DUP13 SWAP1 SHR DUP2 MSTORE PUSH1 0x20 ADD SWAP1 DUP2 MSTORE PUSH1 0x20 ADD PUSH0 KECCAK256 DUP2 SWAP1 SSTORE POP PUSH0 DUP1 SHL SWAP8 POP JUMPDEST DUP9 DUP1 PUSH1 0x1 ADD SWAP10 POP POP POP POP POP DUP1 DUP1 PUSH1 0x1 ADD SWAP2 POP POP PUSH3 0xD8B JUMP JUMPDEST POP DUP5 DUP5 SWAP2 POP SWAP2 POP SWAP5 POP SWAP5 SWAP3 POP POP POP JUMP JUMPDEST PUSH3 0xFC1 DUP2 PUSH0 ADD MLOAD PUSH20 0xFFFFFFFFFFFFFFFFFFFFFFFFFFFFFFFFFFFFFFFF AND PUSH3 0x18FA PUSH1 0x20 SHL PUSH1 0x20 SHR JUMP JUMPDEST PUSH3 0xFF8 JUMPI PUSH1 0x40 MLOAD PUSH32 0xF77172AC00000000000000000000000000000000000000000000000000000000 DUP2 MSTORE PUSH1 0x4 ADD PUSH1 0x40 MLOAD DUP1 SWAP2 SUB SWAP1 REVERT JUMPDEST PUSH0 JUMPDEST DUP2 PUSH1 0x40 ADD MLOAD MLOAD DUP2 LT ISZERO PUSH3 0x124A JUMPI PUSH0 DUP3 PUSH1 0x40 ADD MLOAD DUP3 DUP2 MLOAD DUP2 LT PUSH3 0x1023 JUMPI PUSH3 0x1022 PUSH3 0x1A04 JUMP JUMPDEST JUMPDEST PUSH1 0x20 MUL PUSH1 0x20 ADD ADD MLOAD SWAP1 POP PUSH0 DUP5 PUSH0 ADD PUSH0 DUP4 PUSH28 0xFFFFFFFFFFFFFFFFFFFFFFFFFFFFFFFFFFFFFFFFFFFFFFFFFFFFFFFF NOT AND PUSH28 0xFFFFFFFFFFFFFFFFFFFFFFFFFFFFFFFFFFFFFFFFFFFFFFFFFFFFFFFF NOT AND DUP2 MSTORE PUSH1 0x20 ADD SWAP1 DUP2 MSTORE PUSH1 0x20 ADD PUSH0 KECCAK256 SLOAD SWAP1 POP PUSH0 DUP2 PUSH1 0x60 SHR SWAP1 POP PUSH0 PUSH20 0xFFFFFFFFFFFFFFFFFFFFFFFFFFFFFFFFFFFFFFFF AND DUP2 PUSH20 0xFFFFFFFFFFFFFFFFFFFFFFFFFFFFFFFFFFFFFFFF AND SUB PUSH3 0x10EE JUMPI PUSH1 0x40 MLOAD PUSH32 0x6FC4B52E00000000000000000000000000000000000000000000000000000000 DUP2 MSTORE PUSH1 0x4 ADD PUSH1 0x40 MLOAD DUP1 SWAP2 SUB SWAP1 REVERT JUMPDEST ADDRESS PUSH20 0xFFFFFFFFFFFFFFFFFFFFFFFFFFFFFFFFFFFFFFFF AND DUP2 PUSH20 0xFFFFFFFFFFFFFFFFFFFFFFFFFFFFFFFFFFFFFFFF AND SUB PUSH3 0x1154 JUMPI PUSH1 0x40 MLOAD PUSH32 0xE983573100000000000000000000000000000000000000000000000000000000 DUP2 MSTORE PUSH1 0x4 ADD PUSH1 0x40 MLOAD DUP1 SWAP2 SUB SWAP1 REVERT JUMPDEST DUP5 PUSH0 ADD MLOAD PUSH20 0xFFFFFFFFFFFFFFFFFFFFFFFFFFFFFFFFFFFFFFFF AND DUP2 PUSH20 0xFFFFFFFFFFFFFFFFFFFFFFFFFFFFFFFFFFFFFFFF AND SUB PUSH3 0x11BD JUMPI PUSH1 0x40 MLOAD PUSH32 0x617557E600000000000000000000000000000000000000000000000000000000 DUP2 MSTORE PUSH1 0x4 ADD PUSH1 0x40 MLOAD DUP1 SWAP2 SUB SWAP1 REVERT JUMPDEST DUP5 PUSH0 ADD MLOAD PUSH1 0x60 SHL PUSH12 0xFFFFFFFFFFFFFFFFFFFFFFFF NOT AND PUSH12 0xFFFFFFFFFFFFFFFFFFFFFFFF PUSH0 SHL DUP4 AND OR DUP7 PUSH0 ADD PUSH0 DUP6 PUSH28 0xFFFFFFFFFFFFFFFFFFFFFFFFFFFFFFFFFFFFFFFFFFFFFFFFFFFFFFFF NOT AND PUSH28 0xFFFFFFFFFFFFFFFFFFFFFFFFFFFFFFFFFFFFFFFFFFFFFFFFFFFFFFFF NOT AND DUP2 MSTORE PUSH1 0x20 ADD SWAP1 DUP2 MSTORE PUSH1 0x20 ADD PUSH0 KECCAK256 DUP2 SWAP1 SSTORE POP POP POP POP DUP1 DUP1 PUSH1 0x1 ADD SWAP2 POP POP PUSH3 0xFFA JUMP JUMPDEST POP POP POP JUMP JUMPDEST PUSH0 DUP1 PUSH0 PUSH20 0xFFFFFFFFFFFFFFFFFFFFFFFFFFFFFFFFFFFFFFFF AND DUP4 PUSH0 ADD MLOAD PUSH20 0xFFFFFFFFFFFFFFFFFFFFFFFFFFFFFFFFFFFFFFFF AND EQ PUSH3 0x12BA JUMPI PUSH1 0x40 MLOAD PUSH32 0xEACD242400000000000000000000000000000000000000000000000000000000 DUP2 MSTORE PUSH1 0x4 ADD PUSH1 0x40 MLOAD DUP1 SWAP2 SUB SWAP1 REVERT JUMPDEST PUSH0 PUSH1 0x3 DUP7 SWAP1 SHR SWAP1 POP PUSH0 PUSH1 0x7 DUP8 AND SWAP1 POP PUSH0 JUMPDEST DUP6 PUSH1 0x40 ADD MLOAD MLOAD DUP2 LT ISZERO PUSH3 0x16FE JUMPI PUSH0 DUP7 PUSH1 0x40 ADD MLOAD DUP3 DUP2 MLOAD DUP2 LT PUSH3 0x12F4 JUMPI PUSH3 0x12F3 PUSH3 0x1A04 JUMP JUMPDEST JUMPDEST PUSH1 0x20 MUL PUSH1 0x20 ADD ADD MLOAD SWAP1 POP PUSH0 DUP11 PUSH0 ADD PUSH0 DUP4 PUSH28 0xFFFFFFFFFFFFFFFFFFFFFFFFFFFFFFFFFFFFFFFFFFFFFFFFFFFFFFFF NOT AND PUSH28 0xFFFFFFFFFFFFFFFFFFFFFFFFFFFFFFFFFFFFFFFFFFFFFFFFFFFFFFFF NOT AND DUP2 MSTORE PUSH1 0x20 ADD SWAP1 DUP2 MSTORE PUSH1 0x20 ADD PUSH0 KECCAK256 SLOAD SWAP1 POP PUSH0 PUSH20 0xFFFFFFFFFFFFFFFFFFFFFFFFFFFFFFFFFFFFFFFF AND DUP2 PUSH1 0x60 SHR PUSH20 0xFFFFFFFFFFFFFFFFFFFFFFFFFFFFFFFFFFFFFFFF AND SUB PUSH3 0x13BB JUMPI PUSH1 0x40 MLOAD PUSH32 0x6FC4B52E00000000000000000000000000000000000000000000000000000000 DUP2 MSTORE PUSH1 0x4 ADD PUSH1 0x40 MLOAD DUP1 SWAP2 SUB SWAP1 REVERT JUMPDEST ADDRESS PUSH20 0xFFFFFFFFFFFFFFFFFFFFFFFFFFFFFFFFFFFFFFFF AND DUP2 PUSH1 0x60 SHR PUSH20 0xFFFFFFFFFFFFFFFFFFFFFFFFFFFFFFFFFFFFFFFF AND SUB PUSH3 0x1424 JUMPI PUSH1 0x40 MLOAD PUSH32 0xE983573100000000000000000000000000000000000000000000000000000000 DUP2 MSTORE PUSH1 0x4 ADD PUSH1 0x40 MLOAD DUP1 SWAP2 SUB SWAP1 REVERT JUMPDEST PUSH0 DUP1 SHL DUP10 SUB PUSH3 0x1457 JUMPI DUP5 DUP1 PUSH1 0x1 SWAP1 SUB SWAP6 POP POP DUP11 PUSH1 0x2 ADD PUSH0 DUP7 DUP2 MSTORE PUSH1 0x20 ADD SWAP1 DUP2 MSTORE PUSH1 0x20 ADD PUSH0 KECCAK256 SLOAD SWAP9 POP PUSH1 0x7 SWAP4 POP PUSH3 0x1461 JUMP JUMPDEST DUP4 DUP1 PUSH1 0x1 SWAP1 SUB SWAP5 POP POP JUMPDEST PUSH0 DUP1 PUSH0 PUSH1 0x5 DUP8 SWAP1 SHL DUP13 SWAP1 SHL SWAP3 POP DUP5 PUSH28 0xFFFFFFFFFFFFFFFFFFFFFFFFFFFFFFFFFFFFFFFFFFFFFFFFFFFFFFFF NOT AND DUP4 PUSH28 0xFFFFFFFFFFFFFFFFFFFFFFFFFFFFFFFFFFFFFFFFFFFFFFFFFFFFFFFF NOT AND EQ PUSH3 0x157B JUMPI DUP14 PUSH0 ADD PUSH0 DUP5 PUSH28 0xFFFFFFFFFFFFFFFFFFFFFFFFFFFFFFFFFFFFFFFFFFFFFFFFFFFFFFFF NOT AND PUSH28 0xFFFFFFFFFFFFFFFFFFFFFFFFFFFFFFFFFFFFFFFFFFFFFFFFFFFFFFFF NOT AND DUP2 MSTORE PUSH1 0x20 ADD SWAP1 DUP2 MSTORE PUSH1 0x20 ADD PUSH0 KECCAK256 SLOAD PUSH12 0xFFFFFFFFFFFFFFFFFFFFFFFF NOT AND PUSH12 0xFFFFFFFFFFFFFFFFFFFFFFFF PUSH0 SHL DUP6 AND OR DUP15 PUSH0 ADD PUSH0 DUP6 PUSH28 0xFFFFFFFFFFFFFFFFFFFFFFFFFFFFFFFFFFFFFFFFFFFFFFFFFFFFFFFF NOT AND PUSH28 0xFFFFFFFFFFFFFFFFFFFFFFFFFFFFFFFFFFFFFFFFFFFFFFFFFFFFFFFF NOT AND DUP2 MSTORE PUSH1 0x20 ADD SWAP1 DUP2 MSTORE PUSH1 0x20 ADD PUSH0 KECCAK256 DUP2 SWAP1 SSTORE POP JUMPDEST DUP14 PUSH0 ADD PUSH0 DUP7 PUSH28 0xFFFFFFFFFFFFFFFFFFFFFFFFFFFFFFFFFFFFFFFFFFFFFFFFFFFFFFFF NOT AND PUSH28 0xFFFFFFFFFFFFFFFFFFFFFFFFFFFFFFFFFFFFFFFFFFFFFFFFFFFFFFFF NOT AND DUP2 MSTORE PUSH1 0x20 ADD SWAP1 DUP2 MSTORE PUSH1 0x20 ADD PUSH0 KECCAK256 PUSH0 SWAP1 SSTORE PUSH0 DUP5 PUSH0 SHR PUSH2 0xFFFF AND SWAP1 POP PUSH1 0x3 DUP2 SWAP1 SHR SWAP3 POP PUSH1 0x5 PUSH1 0x7 DUP3 AND SWAP1 SHL SWAP2 POP POP DUP8 DUP3 EQ PUSH3 0x1677 JUMPI PUSH0 DUP15 PUSH1 0x2 ADD PUSH0 DUP5 DUP2 MSTORE PUSH1 0x20 ADD SWAP1 DUP2 MSTORE PUSH1 0x20 ADD PUSH0 KECCAK256 SLOAD SWAP1 POP DUP2 DUP5 PUSH28 0xFFFFFFFFFFFFFFFFFFFFFFFFFFFFFFFFFFFFFFFFFFFFFFFFFFFFFFFF NOT AND SWAP1 SHR DUP3 PUSH32 0xFFFFFFFF00000000000000000000000000000000000000000000000000000000 PUSH0 SHL SWAP1 SHR NOT DUP3 AND OR SWAP1 POP DUP1 DUP16 PUSH1 0x2 ADD PUSH0 DUP6 DUP2 MSTORE PUSH1 0x20 ADD SWAP1 DUP2 MSTORE PUSH1 0x20 ADD PUSH0 KECCAK256 DUP2 SWAP1 SSTORE POP POP PUSH3 0x16C7 JUMP JUMPDEST DUP1 DUP4 PUSH28 0xFFFFFFFFFFFFFFFFFFFFFFFFFFFFFFFFFFFFFFFFFFFFFFFFFFFFFFFF NOT AND SWAP1 SHR DUP2 PUSH32 0xFFFFFFFF00000000000000000000000000000000000000000000000000000000 PUSH0 SHL SWAP1 SHR NOT DUP14 AND OR SWAP12 POP JUMPDEST PUSH0 DUP8 SUB PUSH3 0x16EB JUMPI DUP14 PUSH1 0x2 ADD PUSH0 DUP10 DUP2 MSTORE PUSH1 0x20 ADD SWAP1 DUP2 MSTORE PUSH1 0x20 ADD PUSH0 KECCAK256 PUSH0 SWAP1 SSTORE PUSH0 DUP1 SHL SWAP12 POP JUMPDEST POP POP POP POP POP DUP1 DUP1 PUSH1 0x1 ADD SWAP2 POP POP PUSH3 0x12CB JUMP JUMPDEST POP DUP1 PUSH1 0x3 DUP4 SWAP1 SHL OR SWAP7 POP DUP7 DUP7 SWAP4 POP SWAP4 POP POP POP SWAP5 POP SWAP5 SWAP3 POP POP POP JUMP JUMPDEST PUSH0 DUP2 MLOAD EQ ISZERO ISZERO PUSH0 PUSH20 0xFFFFFFFFFFFFFFFFFFFFFFFFFFFFFFFFFFFFFFFF AND DUP4 PUSH20 0xFFFFFFFFFFFFFFFFFFFFFFFFFFFFFFFFFFFFFFFF AND EQ ISZERO ISZERO EQ PUSH3 0x1788 JUMPI PUSH1 0x40 MLOAD PUSH32 0x26DF4CCD00000000000000000000000000000000000000000000000000000000 DUP2 MSTORE PUSH1 0x4 ADD PUSH1 0x40 MLOAD DUP1 SWAP2 SUB SWAP1 REVERT JUMPDEST PUSH0 PUSH20 0xFFFFFFFFFFFFFFFFFFFFFFFFFFFFFFFFFFFFFFFF AND DUP3 PUSH20 0xFFFFFFFFFFFFFFFFFFFFFFFFFFFFFFFFFFFFFFFF AND EQ PUSH3 0x18CA JUMPI ADDRESS PUSH20 0xFFFFFFFFFFFFFFFFFFFFFFFFFFFFFFFFFFFFFFFF AND DUP3 PUSH20 0xFFFFFFFFFFFFFFFFFFFFFFFFFFFFFFFFFFFFFFFF AND EQ PUSH3 0x184F JUMPI PUSH3 0x1817 DUP3 PUSH20 0xFFFFFFFFFFFFFFFFFFFFFFFFFFFFFFFFFFFFFFFF AND PUSH3 0x18FA PUSH1 0x20 SHL PUSH1 0x20 SHR JUMP JUMPDEST PUSH3 0x184E JUMPI PUSH1 0x40 MLOAD PUSH32 0xF77172AC00000000000000000000000000000000000000000000000000000000 DUP2 MSTORE PUSH1 0x4 ADD PUSH1 0x40 MLOAD DUP1 SWAP2 SUB SWAP1 REVERT JUMPDEST JUMPDEST PUSH0 DUP3 PUSH20 0xFFFFFFFFFFFFFFFFFFFFFFFFFFFFFFFFFFFFFFFF AND DUP3 PUSH1 0x40 MLOAD PUSH3 0x1877 SWAP2 SWAP1 PUSH3 0x1E2C JUMP JUMPDEST PUSH0 PUSH1 0x40 MLOAD DUP1 DUP4 SUB DUP2 DUP6 GAS DELEGATECALL SWAP2 POP POP RETURNDATASIZE DUP1 PUSH0 DUP2 EQ PUSH3 0x18B1 JUMPI PUSH1 0x40 MLOAD SWAP2 POP PUSH1 0x1F NOT PUSH1 0x3F RETURNDATASIZE ADD AND DUP3 ADD PUSH1 0x40 MSTORE RETURNDATASIZE DUP3 MSTORE RETURNDATASIZE PUSH0 PUSH1 0x20 DUP5 ADD RETURNDATACOPY PUSH3 0x18B6 JUMP JUMPDEST PUSH1 0x60 SWAP2 POP JUMPDEST POP POP SWAP1 POP DUP1 PUSH3 0x18C8 JUMPI RETURNDATASIZE PUSH0 DUP1 RETURNDATACOPY RETURNDATASIZE PUSH0 REVERT JUMPDEST POP JUMPDEST POP POP JUMP JUMPDEST PUSH0 DUP1 PUSH32 0x8A22373512790C48B83A1FE2EFDD2888D4A917BCDC24D0ADF63E60F671680460 SWAP1 POP DUP1 SWAP2 POP POP SWAP1 JUMP JUMPDEST PUSH0 DUP1 DUP3 EXTCODESIZE SWAP1 POP PUSH0 DUP2 GT SWAP2 POP POP SWAP2 SWAP1 POP JUMP JUMPDEST PUSH1 0x40 MLOAD DUP1 PUSH1 0x60 ADD PUSH1 0x40 MSTORE DUP1 PUSH0 PUSH20 0xFFFFFFFFFFFFFFFFFFFFFFFFFFFFFFFFFFFFFFFF AND DUP2 MSTORE PUSH1 0x20 ADD PUSH0 PUSH1 0x2 DUP2 GT ISZERO PUSH3 0x1948 JUMPI PUSH3 0x1947 PUSH3 0x1A31 JUMP JUMPDEST JUMPDEST DUP2 MSTORE PUSH1 0x20 ADD PUSH1 0x60 DUP2 MSTORE POP SWAP1 JUMP JUMPDEST PUSH32 0x4E487B7100000000000000000000000000000000000000000000000000000000 PUSH0 MSTORE PUSH1 0x41 PUSH1 0x4 MSTORE PUSH1 0x24 PUSH0 REVERT JUMPDEST PUSH32 0x4E487B7100000000000000000000000000000000000000000000000000000000 PUSH0 MSTORE PUSH1 0x11 PUSH1 0x4 MSTORE PUSH1 0x24 PUSH0 REVERT JUMPDEST PUSH0 DUP2 SWAP1 POP SWAP2 SWAP1 POP JUMP JUMPDEST PUSH0 PUSH3 0x19C4 DUP3 PUSH3 0x19AF JUMP JUMPDEST SWAP2 POP PUSH32 0xFFFFFFFFFFFFFFFFFFFFFFFFFFFFFFFFFFFFFFFFFFFFFFFFFFFFFFFFFFFFFFFF DUP3 SUB PUSH3 0x19F9 JUMPI PUSH3 0x19F8 PUSH3 0x1982 JUMP JUMPDEST JUMPDEST PUSH1 0x1 DUP3 ADD SWAP1 POP SWAP2 SWAP1 POP JUMP JUMPDEST PUSH32 0x4E487B7100000000000000000000000000000000000000000000000000000000 PUSH0 MSTORE PUSH1 0x32 PUSH1 0x4 MSTORE PUSH1 0x24 PUSH0 REVERT JUMPDEST PUSH32 0x4E487B7100000000000000000000000000000000000000000000000000000000 PUSH0 MSTORE PUSH1 0x21 PUSH1 0x4 MSTORE PUSH1 0x24 PUSH0 REVERT JUMPDEST PUSH0 DUP2 MLOAD SWAP1 POP SWAP2 SWAP1 POP JUMP JUMPDEST PUSH0 DUP3 DUP3 MSTORE PUSH1 0x20 DUP3 ADD SWAP1 POP SWAP3 SWAP2 POP POP JUMP JUMPDEST PUSH0 DUP2 SWAP1 POP PUSH1 0x20 DUP3 ADD SWAP1 POP SWAP2 SWAP1 POP JUMP JUMPDEST PUSH0 PUSH20 0xFFFFFFFFFFFFFFFFFFFFFFFFFFFFFFFFFFFFFFFF DUP3 AND SWAP1 POP SWAP2 SWAP1 POP JUMP JUMPDEST PUSH0 PUSH3 0x1AB2 DUP3 PUSH3 0x1A87 JUMP JUMPDEST SWAP1 POP SWAP2 SWAP1 POP JUMP JUMPDEST PUSH3 0x1AC4 DUP2 PUSH3 0x1AA6 JUMP JUMPDEST DUP3 MSTORE POP POP JUMP JUMPDEST PUSH1 0x3 DUP2 LT PUSH3 0x1ADE JUMPI PUSH3 0x1ADD PUSH3 0x1A31 JUMP JUMPDEST JUMPDEST POP JUMP JUMPDEST PUSH0 DUP2 SWAP1 POP PUSH3 0x1AF0 DUP3 PUSH3 0x1ACA JUMP JUMPDEST SWAP2 SWAP1 POP JUMP JUMPDEST PUSH0 PUSH3 0x1B01 DUP3 PUSH3 0x1AE1 JUMP JUMPDEST SWAP1 POP SWAP2 SWAP1 POP JUMP JUMPDEST PUSH3 0x1B13 DUP2 PUSH3 0x1AF5 JUMP JUMPDEST DUP3 MSTORE POP POP JUMP JUMPDEST PUSH0 DUP2 MLOAD SWAP1 POP SWAP2 SWAP1 POP JUMP JUMPDEST PUSH0 DUP3 DUP3 MSTORE PUSH1 0x20 DUP3 ADD SWAP1 POP SWAP3 SWAP2 POP POP JUMP JUMPDEST PUSH0 DUP2 SWAP1 POP PUSH1 0x20 DUP3 ADD SWAP1 POP SWAP2 SWAP1 POP JUMP JUMPDEST PUSH0 PUSH32 0xFFFFFFFF00000000000000000000000000000000000000000000000000000000 DUP3 AND SWAP1 POP SWAP2 SWAP1 POP JUMP JUMPDEST PUSH3 0x1B78 DUP2 PUSH3 0x1B42 JUMP JUMPDEST DUP3 MSTORE POP POP JUMP JUMPDEST PUSH0 PUSH3 0x1B8B DUP4 DUP4 PUSH3 0x1B6D JUMP JUMPDEST PUSH1 0x20 DUP4 ADD SWAP1 POP SWAP3 SWAP2 POP POP JUMP JUMPDEST PUSH0 PUSH1 0x20 DUP3 ADD SWAP1 POP SWAP2 SWAP1 POP JUMP JUMPDEST PUSH0 PUSH3 0x1BAF DUP3 PUSH3 0x1B19 JUMP JUMPDEST PUSH3 0x1BBB DUP2 DUP6 PUSH3 0x1B23 JUMP JUMPDEST SWAP4 POP PUSH3 0x1BC8 DUP4 PUSH3 0x1B33 JUMP JUMPDEST DUP1 PUSH0 JUMPDEST DUP4 DUP2 LT ISZERO PUSH3 0x1BFE JUMPI DUP2 MLOAD PUSH3 0x1BE2 DUP9 DUP3 PUSH3 0x1B7E JUMP JUMPDEST SWAP8 POP PUSH3 0x1BEF DUP4 PUSH3 0x1B97 JUMP JUMPDEST SWAP3 POP POP PUSH1 0x1 DUP2 ADD SWAP1 POP PUSH3 0x1BCB JUMP JUMPDEST POP DUP6 SWAP4 POP POP POP POP SWAP3 SWAP2 POP POP JUMP JUMPDEST PUSH0 PUSH1 0x60 DUP4 ADD PUSH0 DUP4 ADD MLOAD PUSH3 0x1C22 PUSH0 DUP7 ADD DUP3 PUSH3 0x1AB9 JUMP JUMPDEST POP PUSH1 0x20 DUP4 ADD MLOAD PUSH3 0x1C37 PUSH1 0x20 DUP7 ADD DUP3 PUSH3 0x1B08 JUMP JUMPDEST POP PUSH1 0x40 DUP4 ADD MLOAD DUP5 DUP3 SUB PUSH1 0x40 DUP7 ADD MSTORE PUSH3 0x1C51 DUP3 DUP3 PUSH3 0x1BA3 JUMP JUMPDEST SWAP2 POP POP DUP1 SWAP2 POP POP SWAP3 SWAP2 POP POP JUMP JUMPDEST PUSH0 PUSH3 0x1C6B DUP4 DUP4 PUSH3 0x1C0B JUMP JUMPDEST SWAP1 POP SWAP3 SWAP2 POP POP JUMP JUMPDEST PUSH0 PUSH1 0x20 DUP3 ADD SWAP1 POP SWAP2 SWAP1 POP JUMP JUMPDEST PUSH0 PUSH3 0x1C8B DUP3 PUSH3 0x1A5E JUMP JUMPDEST PUSH3 0x1C97 DUP2 DUP6 PUSH3 0x1A68 JUMP JUMPDEST SWAP4 POP DUP4 PUSH1 0x20 DUP3 MUL DUP6 ADD PUSH3 0x1CAB DUP6 PUSH3 0x1A78 JUMP JUMPDEST DUP1 PUSH0 JUMPDEST DUP6 DUP2 LT ISZERO PUSH3 0x1CEC JUMPI DUP5 DUP5 SUB DUP10 MSTORE DUP2 MLOAD PUSH3 0x1CCA DUP6 DUP3 PUSH3 0x1C5E JUMP JUMPDEST SWAP5 POP PUSH3 0x1CD7 DUP4 PUSH3 0x1C73 JUMP JUMPDEST SWAP3 POP PUSH1 0x20 DUP11 ADD SWAP10 POP POP PUSH1 0x1 DUP2 ADD SWAP1 POP PUSH3 0x1CAE JUMP JUMPDEST POP DUP3 SWAP8 POP DUP8 SWAP6 POP POP POP POP POP POP SWAP3 SWAP2 POP POP JUMP JUMPDEST PUSH3 0x1D09 DUP2 PUSH3 0x1AA6 JUMP JUMPDEST DUP3 MSTORE POP POP JUMP JUMPDEST PUSH0 DUP2 MLOAD SWAP1 POP SWAP2 SWAP1 POP JUMP JUMPDEST PUSH0 DUP3 DUP3 MSTORE PUSH1 0x20 DUP3 ADD SWAP1 POP SWAP3 SWAP2 POP POP JUMP JUMPDEST PUSH0 JUMPDEST DUP4 DUP2 LT ISZERO PUSH3 0x1D48 JUMPI DUP1 DUP3 ADD MLOAD DUP2 DUP5 ADD MSTORE PUSH1 0x20 DUP2 ADD SWAP1 POP PUSH3 0x1D2B JUMP JUMPDEST PUSH0 DUP5 DUP5 ADD MSTORE POP POP POP POP JUMP JUMPDEST PUSH0 PUSH1 0x1F NOT PUSH1 0x1F DUP4 ADD AND SWAP1 POP SWAP2 SWAP1 POP JUMP JUMPDEST PUSH0 PUSH3 0x1D6F DUP3 PUSH3 0x1D0F JUMP JUMPDEST PUSH3 0x1D7B DUP2 DUP6 PUSH3 0x1D19 JUMP JUMPDEST SWAP4 POP PUSH3 0x1D8D DUP2 DUP6 PUSH1 0x20 DUP7 ADD PUSH3 0x1D29 JUMP JUMPDEST PUSH3 0x1D98 DUP2 PUSH3 0x1D53 JUMP JUMPDEST DUP5 ADD SWAP2 POP POP SWAP3 SWAP2 POP POP JUMP JUMPDEST PUSH0 PUSH1 0x60 DUP3 ADD SWAP1 POP DUP2 DUP2 SUB PUSH0 DUP4 ADD MSTORE PUSH3 0x1DBD DUP2 DUP7 PUSH3 0x1C7F JUMP JUMPDEST SWAP1 POP PUSH3 0x1DCE PUSH1 0x20 DUP4 ADD DUP6 PUSH3 0x1CFE JUMP JUMPDEST DUP2 DUP2 SUB PUSH1 0x40 DUP4 ADD MSTORE PUSH3 0x1DE2 DUP2 DUP5 PUSH3 0x1D63 JUMP JUMPDEST SWAP1 POP SWAP5 SWAP4 POP POP POP POP JUMP JUMPDEST PUSH0 DUP2 SWAP1 POP SWAP3 SWAP2 POP POP JUMP JUMPDEST PUSH0 PUSH3 0x1E02 DUP3 PUSH3 0x1D0F JUMP JUMPDEST PUSH3 0x1E0E DUP2 DUP6 PUSH3 0x1DEC JUMP JUMPDEST SWAP4 POP PUSH3 0x1E20 DUP2 DUP6 PUSH1 0x20 DUP7 ADD PUSH3 0x1D29 JUMP JUMPDEST DUP1 DUP5 ADD SWAP2 POP POP SWAP3 SWAP2 POP POP JUMP JUMPDEST PUSH0 PUSH3 0x1E39 DUP3 DUP5 PUSH3 0x1DF6 JUMP JUMPDEST SWAP2 POP DUP2 SWAP1 POP SWAP3 SWAP2 POP POP JUMP JUMPDEST PUSH2 0x376A DUP1 PUSH3 0x1E52 PUSH0 CODECOPY PUSH0 RETURN INVALID PUSH1 0x80 PUSH1 0x40 MSTORE PUSH1 0x4 CALLDATASIZE LT PUSH2 0xF6 JUMPI PUSH0 CALLDATALOAD PUSH1 0xE0 SHR DUP1 PUSH4 0x7A0ED627 GT PUSH2 0x89 JUMPI DUP1 PUSH4 0xADFCA15E GT PUSH2 0x58 JUMPI DUP1 PUSH4 0xADFCA15E EQ PUSH2 0x3A4 JUMPI DUP1 PUSH4 0xCDFFACC6 EQ PUSH2 0x3E0 JUMPI DUP1 PUSH4 0xF2FDE38B EQ PUSH2 0x41C JUMPI DUP1 PUSH4 0xF4E2EDC9 EQ PUSH2 0x444 JUMPI PUSH2 0xFD JUMP JUMPDEST DUP1 PUSH4 0x7A0ED627 EQ PUSH2 0x2FE JUMPI DUP1 PUSH4 0x8AB5150A EQ PUSH2 0x328 JUMPI DUP1 PUSH4 0x8DA5CB5B EQ PUSH2 0x352 JUMPI DUP1 PUSH4 0x91423765 EQ PUSH2 0x37C JUMPI PUSH2 0xFD JUMP JUMPDEST DUP1 PUSH4 0x52EF6B2C GT PUSH2 0xC5 JUMPI DUP1 PUSH4 0x52EF6B2C EQ PUSH2 0x246 JUMPI DUP1 PUSH4 0x59BC2249 EQ PUSH2 0x270 JUMPI DUP1 PUSH4 0x6546F7FB EQ PUSH2 0x2AC JUMPI DUP1 PUSH4 0x79BA5097 EQ PUSH2 0x2E8 JUMPI PUSH2 0xFD JUMP JUMPDEST DUP1 PUSH4 0x1FFC9A7 EQ PUSH2 0x17C JUMPI DUP1 PUSH4 0x1F931C1C EQ PUSH2 0x1B8 JUMPI DUP1 PUSH4 0x2A1B8F9B EQ PUSH2 0x1E0 JUMPI DUP1 PUSH4 0x2C408059 EQ PUSH2 0x21C JUMPI PUSH2 0xFD JUMP JUMPDEST CALLDATASIZE PUSH2 0xFD JUMPI STOP JUMPDEST PUSH0 PUSH2 0x106 PUSH2 0x480 JUMP JUMPDEST SWAP1 POP PUSH2 0x127 DUP2 PUSH20 0xFFFFFFFFFFFFFFFFFFFFFFFFFFFFFFFFFFFFFFFF AND PUSH2 0x48E JUMP JUMPDEST PUSH2 0x15D JUMPI PUSH1 0x40 MLOAD PUSH32 0x87C9FC3400000000000000000000000000000000000000000000000000000000 DUP2 MSTORE PUSH1 0x4 ADD PUSH1 0x40 MLOAD DUP1 SWAP2 SUB SWAP1 REVERT JUMPDEST CALLDATASIZE PUSH0 DUP1 CALLDATACOPY PUSH0 DUP1 CALLDATASIZE PUSH0 DUP5 GAS DELEGATECALL RETURNDATASIZE PUSH0 DUP1 RETURNDATACOPY DUP1 PUSH0 DUP2 EQ PUSH2 0x178 JUMPI RETURNDATASIZE PUSH0 RETURN JUMPDEST RETURNDATASIZE PUSH0 REVERT JUMPDEST CALLVALUE DUP1 ISZERO PUSH2 0x187 JUMPI PUSH0 DUP1 REVERT JUMPDEST POP PUSH2 0x1A2 PUSH1 0x4 DUP1 CALLDATASIZE SUB DUP2 ADD SWAP1 PUSH2 0x19D SWAP2 SWAP1 PUSH2 0x29EA JUMP JUMPDEST PUSH2 0x49F JUMP JUMPDEST PUSH1 0x40 MLOAD PUSH2 0x1AF SWAP2 SWAP1 PUSH2 0x2A2F JUMP JUMPDEST PUSH1 0x40 MLOAD DUP1 SWAP2 SUB SWAP1 RETURN JUMPDEST CALLVALUE DUP1 ISZERO PUSH2 0x1C3 JUMPI PUSH0 DUP1 REVERT JUMPDEST POP PUSH2 0x1DE PUSH1 0x4 DUP1 CALLDATASIZE SUB DUP2 ADD SWAP1 PUSH2 0x1D9 SWAP2 SWAP1 PUSH2 0x2B58 JUMP JUMPDEST PUSH2 0x4B0 JUMP JUMPDEST STOP JUMPDEST CALLVALUE DUP1 ISZERO PUSH2 0x1EB JUMPI PUSH0 DUP1 REVERT JUMPDEST POP PUSH2 0x206 PUSH1 0x4 DUP1 CALLDATASIZE SUB DUP2 ADD SWAP1 PUSH2 0x201 SWAP2 SWAP1 PUSH2 0x2BE9 JUMP JUMPDEST PUSH2 0x57D JUMP JUMPDEST PUSH1 0x40 MLOAD PUSH2 0x213 SWAP2 SWAP1 PUSH2 0x2A2F JUMP JUMPDEST PUSH1 0x40 MLOAD DUP1 SWAP2 SUB SWAP1 RETURN JUMPDEST CALLVALUE DUP1 ISZERO PUSH2 0x227 JUMPI PUSH0 DUP1 REVERT JUMPDEST POP PUSH2 0x230 PUSH2 0x677 JUMP JUMPDEST PUSH1 0x40 MLOAD PUSH2 0x23D SWAP2 SWAP1 PUSH2 0x2C23 JUMP JUMPDEST PUSH1 0x40 MLOAD DUP1 SWAP2 SUB SWAP1 RETURN JUMPDEST CALLVALUE DUP1 ISZERO PUSH2 0x251 JUMPI PUSH0 DUP1 REVERT JUMPDEST POP PUSH2 0x25A PUSH2 0x685 JUMP JUMPDEST PUSH1 0x40 MLOAD PUSH2 0x267 SWAP2 SWAP1 PUSH2 0x2CF3 JUMP JUMPDEST PUSH1 0x40 MLOAD DUP1 SWAP2 SUB SWAP1 RETURN JUMPDEST CALLVALUE DUP1 ISZERO PUSH2 0x27B JUMPI PUSH0 DUP1 REVERT JUMPDEST POP PUSH2 0x296 PUSH1 0x4 DUP1 CALLDATASIZE SUB DUP2 ADD SWAP1 PUSH2 0x291 SWAP2 SWAP1 PUSH2 0x2BE9 JUMP JUMPDEST PUSH2 0x694 JUMP JUMPDEST PUSH1 0x40 MLOAD PUSH2 0x2A3 SWAP2 SWAP1 PUSH2 0x2A2F JUMP JUMPDEST PUSH1 0x40 MLOAD DUP1 SWAP2 SUB SWAP1 RETURN JUMPDEST CALLVALUE DUP1 ISZERO PUSH2 0x2B7 JUMPI PUSH0 DUP1 REVERT JUMPDEST POP PUSH2 0x2D2 PUSH1 0x4 DUP1 CALLDATASIZE SUB DUP2 ADD SWAP1 PUSH2 0x2CD SWAP2 SWAP1 PUSH2 0x2E5B JUMP JUMPDEST PUSH2 0x78E JUMP JUMPDEST PUSH1 0x40 MLOAD PUSH2 0x2DF SWAP2 SWAP1 PUSH2 0x2A2F JUMP JUMPDEST PUSH1 0x40 MLOAD DUP1 SWAP2 SUB SWAP1 RETURN JUMPDEST CALLVALUE DUP1 ISZERO PUSH2 0x2F3 JUMPI PUSH0 DUP1 REVERT JUMPDEST POP PUSH2 0x2FC PUSH2 0x934 JUMP JUMPDEST STOP JUMPDEST CALLVALUE DUP1 ISZERO PUSH2 0x309 JUMPI PUSH0 DUP1 REVERT JUMPDEST POP PUSH2 0x312 PUSH2 0x9AA JUMP JUMPDEST PUSH1 0x40 MLOAD PUSH2 0x31F SWAP2 SWAP1 PUSH2 0x3061 JUMP JUMPDEST PUSH1 0x40 MLOAD DUP1 SWAP2 SUB SWAP1 RETURN JUMPDEST CALLVALUE DUP1 ISZERO PUSH2 0x333 JUMPI PUSH0 DUP1 REVERT JUMPDEST POP PUSH2 0x33C PUSH2 0x9B9 JUMP JUMPDEST PUSH1 0x40 MLOAD PUSH2 0x349 SWAP2 SWAP1 PUSH2 0x2C23 JUMP JUMPDEST PUSH1 0x40 MLOAD DUP1 SWAP2 SUB SWAP1 RETURN JUMPDEST CALLVALUE DUP1 ISZERO PUSH2 0x35D JUMPI PUSH0 DUP1 REVERT JUMPDEST POP PUSH2 0x366 PUSH2 0x9C7 JUMP JUMPDEST PUSH1 0x40 MLOAD PUSH2 0x373 SWAP2 SWAP1 PUSH2 0x2C23 JUMP JUMPDEST PUSH1 0x40 MLOAD DUP1 SWAP2 SUB SWAP1 RETURN JUMPDEST CALLVALUE DUP1 ISZERO PUSH2 0x387 JUMPI PUSH0 DUP1 REVERT JUMPDEST POP PUSH2 0x3A2 PUSH1 0x4 DUP1 CALLDATASIZE SUB DUP2 ADD SWAP1 PUSH2 0x39D SWAP2 SWAP1 PUSH2 0x2BE9 JUMP JUMPDEST PUSH2 0x9D5 JUMP JUMPDEST STOP JUMPDEST CALLVALUE DUP1 ISZERO PUSH2 0x3AF JUMPI PUSH0 DUP1 REVERT JUMPDEST POP PUSH2 0x3CA PUSH1 0x4 DUP1 CALLDATASIZE SUB DUP2 ADD SWAP1 PUSH2 0x3C5 SWAP2 SWAP1 PUSH2 0x2BE9 JUMP JUMPDEST PUSH2 0xA4D JUMP JUMPDEST PUSH1 0x40 MLOAD PUSH2 0x3D7 SWAP2 SWAP1 PUSH2 0x30ED JUMP JUMPDEST PUSH1 0x40 MLOAD DUP1 SWAP2 SUB SWAP1 RETURN JUMPDEST CALLVALUE DUP1 ISZERO PUSH2 0x3EB JUMPI PUSH0 DUP1 REVERT JUMPDEST POP PUSH2 0x406 PUSH1 0x4 DUP1 CALLDATASIZE SUB DUP2 ADD SWAP1 PUSH2 0x401 SWAP2 SWAP1 PUSH2 0x29EA JUMP JUMPDEST PUSH2 0xA5F JUMP JUMPDEST PUSH1 0x40 MLOAD PUSH2 0x413 SWAP2 SWAP1 PUSH2 0x2C23 JUMP JUMPDEST PUSH1 0x40 MLOAD DUP1 SWAP2 SUB SWAP1 RETURN JUMPDEST CALLVALUE DUP1 ISZERO PUSH2 0x427 JUMPI PUSH0 DUP1 REVERT JUMPDEST POP PUSH2 0x442 PUSH1 0x4 DUP1 CALLDATASIZE SUB DUP2 ADD SWAP1 PUSH2 0x43D SWAP2 SWAP1 PUSH2 0x2BE9 JUMP JUMPDEST PUSH2 0xA70 JUMP JUMPDEST STOP JUMPDEST CALLVALUE DUP1 ISZERO PUSH2 0x44F JUMPI PUSH0 DUP1 REVERT JUMPDEST POP PUSH2 0x46A PUSH1 0x4 DUP1 CALLDATASIZE SUB DUP2 ADD SWAP1 PUSH2 0x465 SWAP2 SWAP1 PUSH2 0x2E5B JUMP JUMPDEST PUSH2 0xAE8 JUMP JUMPDEST PUSH1 0x40 MLOAD PUSH2 0x477 SWAP2 SWAP1 PUSH2 0x2A2F JUMP JUMPDEST PUSH1 0x40 MLOAD DUP1 SWAP2 SUB SWAP1 RETURN JUMPDEST PUSH0 PUSH2 0x489 PUSH2 0xC92 JUMP JUMPDEST SWAP1 POP SWAP1 JUMP JUMPDEST PUSH0 DUP1 DUP3 EXTCODESIZE SWAP1 POP PUSH0 DUP2 GT SWAP2 POP POP SWAP2 SWAP1 POP JUMP JUMPDEST PUSH0 PUSH2 0x4A9 DUP3 PUSH2 0xCDE JUMP JUMPDEST SWAP1 POP SWAP2 SWAP1 POP JUMP JUMPDEST PUSH2 0x4B8 PUSH2 0xD4A JUMP JUMPDEST PUSH20 0xFFFFFFFFFFFFFFFFFFFFFFFFFFFFFFFFFFFFFFFF AND CALLER PUSH20 0xFFFFFFFFFFFFFFFFFFFFFFFFFFFFFFFFFFFFFFFF AND EQ PUSH2 0x51C JUMPI PUSH1 0x40 MLOAD PUSH32 0x2F7A8EE100000000000000000000000000000000000000000000000000000000 DUP2 MSTORE PUSH1 0x4 ADD PUSH1 0x40 MLOAD DUP1 SWAP2 SUB SWAP1 REVERT JUMPDEST PUSH2 0x576 DUP6 DUP6 SWAP1 PUSH2 0x52C SWAP2 SWAP1 PUSH2 0x3266 JUMP JUMPDEST DUP5 DUP5 DUP5 DUP1 DUP1 PUSH1 0x1F ADD PUSH1 0x20 DUP1 SWAP2 DIV MUL PUSH1 0x20 ADD PUSH1 0x40 MLOAD SWAP1 DUP2 ADD PUSH1 0x40 MSTORE DUP1 SWAP4 SWAP3 SWAP2 SWAP1 DUP2 DUP2 MSTORE PUSH1 0x20 ADD DUP4 DUP4 DUP1 DUP3 DUP5 CALLDATACOPY PUSH0 DUP2 DUP5 ADD MSTORE PUSH1 0x1F NOT PUSH1 0x1F DUP3 ADD AND SWAP1 POP DUP1 DUP4 ADD SWAP3 POP POP POP POP POP POP POP PUSH2 0xD7A JUMP JUMPDEST POP POP POP POP POP JUMP JUMPDEST PUSH0 PUSH2 0x586 PUSH2 0xD4A JUMP JUMPDEST PUSH20 0xFFFFFFFFFFFFFFFFFFFFFFFFFFFFFFFFFFFFFFFF AND CALLER PUSH20 0xFFFFFFFFFFFFFFFFFFFFFFFFFFFFFFFFFFFFFFFF AND EQ PUSH2 0x5EA JUMPI PUSH1 0x40 MLOAD PUSH32 0x2F7A8EE100000000000000000000000000000000000000000000000000000000 DUP2 MSTORE PUSH1 0x4 ADD PUSH1 0x40 MLOAD DUP1 SWAP2 SUB SWAP1 REVERT JUMPDEST PUSH0 DUP3 SWAP1 POP PUSH0 DUP2 PUSH20 0xFFFFFFFFFFFFFFFFFFFFFFFFFFFFFFFFFFFFFFFF AND PUSH4 0x6E25B978 PUSH1 0x40 MLOAD DUP2 PUSH4 0xFFFFFFFF AND PUSH1 0xE0 SHL DUP2 MSTORE PUSH1 0x4 ADD PUSH0 PUSH1 0x40 MLOAD DUP1 DUP4 SUB DUP2 DUP7 GAS STATICCALL ISZERO DUP1 ISZERO PUSH2 0x637 JUMPI RETURNDATASIZE PUSH0 DUP1 RETURNDATACOPY RETURNDATASIZE PUSH0 REVERT JUMPDEST POP POP POP POP PUSH1 0x40 MLOAD RETURNDATASIZE PUSH0 DUP3 RETURNDATACOPY RETURNDATASIZE PUSH1 0x1F NOT PUSH1 0x1F DUP3 ADD AND DUP3 ADD DUP1 PUSH1 0x40 MSTORE POP DUP2 ADD SWAP1 PUSH2 0x65F SWAP2 SWAP1 PUSH2 0x3323 JUMP JUMPDEST SWAP1 POP PUSH2 0x66B DUP5 DUP3 PUSH2 0x78E JUMP JUMPDEST POP PUSH1 0x1 SWAP3 POP POP POP SWAP2 SWAP1 POP JUMP JUMPDEST PUSH0 PUSH2 0x680 PUSH2 0xFA5 JUMP JUMPDEST SWAP1 POP SWAP1 JUMP JUMPDEST PUSH1 0x60 PUSH2 0x68F PUSH2 0xFD6 JUMP JUMPDEST SWAP1 POP SWAP1 JUMP JUMPDEST PUSH0 PUSH2 0x69D PUSH2 0xD4A JUMP JUMPDEST PUSH20 0xFFFFFFFFFFFFFFFFFFFFFFFFFFFFFFFFFFFFFFFF AND CALLER PUSH20 0xFFFFFFFFFFFFFFFFFFFFFFFFFFFFFFFFFFFFFFFF AND EQ PUSH2 0x701 JUMPI PUSH1 0x40 MLOAD PUSH32 0x2F7A8EE100000000000000000000000000000000000000000000000000000000 DUP2 MSTORE PUSH1 0x4 ADD PUSH1 0x40 MLOAD DUP1 SWAP2 SUB SWAP1 REVERT JUMPDEST PUSH0 DUP3 SWAP1 POP PUSH0 DUP2 PUSH20 0xFFFFFFFFFFFFFFFFFFFFFFFFFFFFFFFFFFFFFFFF AND PUSH4 0x6E25B978 PUSH1 0x40 MLOAD DUP2 PUSH4 0xFFFFFFFF AND PUSH1 0xE0 SHL DUP2 MSTORE PUSH1 0x4 ADD PUSH0 PUSH1 0x40 MLOAD DUP1 DUP4 SUB DUP2 DUP7 GAS STATICCALL ISZERO DUP1 ISZERO PUSH2 0x74E JUMPI RETURNDATASIZE PUSH0 DUP1 RETURNDATACOPY RETURNDATASIZE PUSH0 REVERT JUMPDEST POP POP POP POP PUSH1 0x40 MLOAD RETURNDATASIZE PUSH0 DUP3 RETURNDATACOPY RETURNDATASIZE PUSH1 0x1F NOT PUSH1 0x1F DUP3 ADD AND DUP3 ADD DUP1 PUSH1 0x40 MSTORE POP DUP2 ADD SWAP1 PUSH2 0x776 SWAP2 SWAP1 PUSH2 0x3323 JUMP JUMPDEST SWAP1 POP PUSH2 0x782 DUP5 DUP3 PUSH2 0xAE8 JUMP JUMPDEST POP PUSH1 0x1 SWAP3 POP POP POP SWAP2 SWAP1 POP JUMP JUMPDEST PUSH0 PUSH2 0x797 PUSH2 0xD4A JUMP JUMPDEST PUSH20 0xFFFFFFFFFFFFFFFFFFFFFFFFFFFFFFFFFFFFFFFF AND CALLER PUSH20 0xFFFFFFFFFFFFFFFFFFFFFFFFFFFFFFFFFFFFFFFF AND EQ PUSH2 0x7FB JUMPI PUSH1 0x40 MLOAD PUSH32 0x2F7A8EE100000000000000000000000000000000000000000000000000000000 DUP2 MSTORE PUSH1 0x4 ADD PUSH1 0x40 MLOAD DUP1 SWAP2 SUB SWAP1 REVERT JUMPDEST PUSH0 DUP1 PUSH1 0x40 MLOAD DUP1 PUSH1 0x60 ADD PUSH1 0x40 MSTORE DUP1 DUP7 PUSH20 0xFFFFFFFFFFFFFFFFFFFFFFFFFFFFFFFFFFFFFFFF AND DUP2 MSTORE PUSH1 0x20 ADD DUP4 PUSH1 0x2 DUP2 GT ISZERO PUSH2 0x837 JUMPI PUSH2 0x836 PUSH2 0x336A JUMP JUMPDEST JUMPDEST DUP2 MSTORE PUSH1 0x20 ADD DUP6 DUP2 MSTORE POP SWAP1 POP PUSH0 ADDRESS SWAP1 POP PUSH1 0x60 PUSH1 0x1 PUSH8 0xFFFFFFFFFFFFFFFF DUP2 GT ISZERO PUSH2 0x863 JUMPI PUSH2 0x862 PUSH2 0x2D23 JUMP JUMPDEST JUMPDEST PUSH1 0x40 MLOAD SWAP1 DUP1 DUP3 MSTORE DUP1 PUSH1 0x20 MUL PUSH1 0x20 ADD DUP3 ADD PUSH1 0x40 MSTORE DUP1 ISZERO PUSH2 0x89C JUMPI DUP2 PUSH1 0x20 ADD JUMPDEST PUSH2 0x889 PUSH2 0x290E JUMP JUMPDEST DUP2 MSTORE PUSH1 0x20 ADD SWAP1 PUSH1 0x1 SWAP1 SUB SWAP1 DUP2 PUSH2 0x881 JUMPI SWAP1 POP JUMPDEST POP SWAP1 POP DUP3 DUP2 PUSH0 DUP2 MLOAD DUP2 LT PUSH2 0x8B3 JUMPI PUSH2 0x8B2 PUSH2 0x3397 JUMP JUMPDEST JUMPDEST PUSH1 0x20 MUL PUSH1 0x20 ADD ADD DUP2 SWAP1 MSTORE POP DUP2 PUSH20 0xFFFFFFFFFFFFFFFFFFFFFFFFFFFFFFFFFFFFFFFF AND PUSH4 0x1F931C1C DUP3 ADDRESS PUSH1 0x40 MLOAD DUP4 PUSH4 0xFFFFFFFF AND PUSH1 0xE0 SHL DUP2 MSTORE PUSH1 0x4 ADD PUSH2 0x8F9 SWAP3 SWAP2 SWAP1 PUSH2 0x3545 JUMP JUMPDEST PUSH0 PUSH1 0x40 MLOAD DUP1 DUP4 SUB DUP2 PUSH0 DUP8 DUP1 EXTCODESIZE ISZERO DUP1 ISZERO PUSH2 0x910 JUMPI PUSH0 DUP1 REVERT JUMPDEST POP GAS CALL ISZERO DUP1 ISZERO PUSH2 0x922 JUMPI RETURNDATASIZE PUSH0 DUP1 RETURNDATACOPY RETURNDATASIZE PUSH0 REVERT JUMPDEST POP POP POP POP PUSH1 0x1 SWAP5 POP POP POP POP POP SWAP3 SWAP2 POP POP JUMP JUMPDEST PUSH2 0x93C PUSH2 0x121B JUMP JUMPDEST PUSH20 0xFFFFFFFFFFFFFFFFFFFFFFFFFFFFFFFFFFFFFFFF AND CALLER PUSH20 0xFFFFFFFFFFFFFFFFFFFFFFFFFFFFFFFFFFFFFFFF AND EQ PUSH2 0x9A0 JUMPI PUSH1 0x40 MLOAD PUSH32 0xEFD1052D00000000000000000000000000000000000000000000000000000000 DUP2 MSTORE PUSH1 0x4 ADD PUSH1 0x40 MLOAD DUP1 SWAP2 SUB SWAP1 REVERT JUMPDEST PUSH2 0x9A8 PUSH2 0x124B JUMP JUMPDEST JUMP JUMPDEST PUSH1 0x60 PUSH2 0x9B4 PUSH2 0x1282 JUMP JUMPDEST SWAP1 POP SWAP1 JUMP JUMPDEST PUSH0 PUSH2 0x9C2 PUSH2 0x121B JUMP JUMPDEST SWAP1 POP SWAP1 JUMP JUMPDEST PUSH0 PUSH2 0x9D0 PUSH2 0xD4A JUMP JUMPDEST SWAP1 POP SWAP1 JUMP JUMPDEST PUSH2 0x9DD PUSH2 0xD4A JUMP JUMPDEST PUSH20 0xFFFFFFFFFFFFFFFFFFFFFFFFFFFFFFFFFFFFFFFF AND CALLER PUSH20 0xFFFFFFFFFFFFFFFFFFFFFFFFFFFFFFFFFFFFFFFF AND EQ PUSH2 0xA41 JUMPI PUSH1 0x40 MLOAD PUSH32 0x2F7A8EE100000000000000000000000000000000000000000000000000000000 DUP2 MSTORE PUSH1 0x4 ADD PUSH1 0x40 MLOAD DUP1 SWAP2 SUB SWAP1 REVERT JUMPDEST PUSH2 0xA4A DUP2 PUSH2 0x17B7 JUMP JUMPDEST POP JUMP JUMPDEST PUSH1 0x60 PUSH2 0xA58 DUP3 PUSH2 0x1803 JUMP JUMPDEST SWAP1 POP SWAP2 SWAP1 POP JUMP JUMPDEST PUSH0 PUSH2 0xA69 DUP3 PUSH2 0x1A0C JUMP JUMPDEST SWAP1 POP SWAP2 SWAP1 POP JUMP JUMPDEST PUSH2 0xA78 PUSH2 0xD4A JUMP JUMPDEST PUSH20 0xFFFFFFFFFFFFFFFFFFFFFFFFFFFFFFFFFFFFFFFF AND CALLER PUSH20 0xFFFFFFFFFFFFFFFFFFFFFFFFFFFFFFFFFFFFFFFF AND EQ PUSH2 0xADC JUMPI PUSH1 0x40 MLOAD PUSH32 0x2F7A8EE100000000000000000000000000000000000000000000000000000000 DUP2 MSTORE PUSH1 0x4 ADD PUSH1 0x40 MLOAD DUP1 SWAP2 SUB SWAP1 REVERT JUMPDEST PUSH2 0xAE5 DUP2 PUSH2 0x1A6F JUMP JUMPDEST POP JUMP JUMPDEST PUSH0 PUSH2 0xAF1 PUSH2 0xD4A JUMP JUMPDEST PUSH20 0xFFFFFFFFFFFFFFFFFFFFFFFFFFFFFFFFFFFFFFFF AND CALLER PUSH20 0xFFFFFFFFFFFFFFFFFFFFFFFFFFFFFFFFFFFFFFFF AND EQ PUSH2 0xB55 JUMPI PUSH1 0x40 MLOAD PUSH32 0x2F7A8EE100000000000000000000000000000000000000000000000000000000 DUP2 MSTORE PUSH1 0x4 ADD PUSH1 0x40 MLOAD DUP1 SWAP2 SUB SWAP1 REVERT JUMPDEST PUSH0 PUSH1 0x2 SWAP1 POP PUSH0 PUSH1 0x40 MLOAD DUP1 PUSH1 0x60 ADD PUSH1 0x40 MSTORE DUP1 DUP7 PUSH20 0xFFFFFFFFFFFFFFFFFFFFFFFFFFFFFFFFFFFFFFFF AND DUP2 MSTORE PUSH1 0x20 ADD DUP4 PUSH1 0x2 DUP2 GT ISZERO PUSH2 0xB95 JUMPI PUSH2 0xB94 PUSH2 0x336A JUMP JUMPDEST JUMPDEST DUP2 MSTORE PUSH1 0x20 ADD DUP6 DUP2 MSTORE POP SWAP1 POP PUSH0 ADDRESS SWAP1 POP PUSH1 0x60 PUSH1 0x1 PUSH8 0xFFFFFFFFFFFFFFFF DUP2 GT ISZERO PUSH2 0xBC1 JUMPI PUSH2 0xBC0 PUSH2 0x2D23 JUMP JUMPDEST JUMPDEST PUSH1 0x40 MLOAD SWAP1 DUP1 DUP3 MSTORE DUP1 PUSH1 0x20 MUL PUSH1 0x20 ADD DUP3 ADD PUSH1 0x40 MSTORE DUP1 ISZERO PUSH2 0xBFA JUMPI DUP2 PUSH1 0x20 ADD JUMPDEST PUSH2 0xBE7 PUSH2 0x290E JUMP JUMPDEST DUP2 MSTORE PUSH1 0x20 ADD SWAP1 PUSH1 0x1 SWAP1 SUB SWAP1 DUP2 PUSH2 0xBDF JUMPI SWAP1 POP JUMPDEST POP SWAP1 POP DUP3 DUP2 PUSH0 DUP2 MLOAD DUP2 LT PUSH2 0xC11 JUMPI PUSH2 0xC10 PUSH2 0x3397 JUMP JUMPDEST JUMPDEST PUSH1 0x20 MUL PUSH1 0x20 ADD ADD DUP2 SWAP1 MSTORE POP DUP2 PUSH20 0xFFFFFFFFFFFFFFFFFFFFFFFFFFFFFFFFFFFFFFFF AND PUSH4 0x1F931C1C DUP3 ADDRESS PUSH1 0x40 MLOAD DUP4 PUSH4 0xFFFFFFFF AND PUSH1 0xE0 SHL DUP2 MSTORE PUSH1 0x4 ADD PUSH2 0xC57 SWAP3 SWAP2 SWAP1 PUSH2 0x3545 JUMP JUMPDEST PUSH0 PUSH1 0x40 MLOAD DUP1 DUP4 SUB DUP2 PUSH0 DUP8 DUP1 EXTCODESIZE ISZERO DUP1 ISZERO PUSH2 0xC6E JUMPI PUSH0 DUP1 REVERT JUMPDEST POP GAS CALL ISZERO DUP1 ISZERO PUSH2 0xC80 JUMPI RETURNDATASIZE PUSH0 DUP1 RETURNDATACOPY RETURNDATASIZE PUSH0 REVERT JUMPDEST POP POP POP POP PUSH1 0x1 SWAP5 POP POP POP POP POP SWAP3 SWAP2 POP POP JUMP JUMPDEST PUSH0 PUSH2 0xC9B PUSH2 0x1A7B JUMP JUMPDEST SWAP1 POP PUSH0 PUSH20 0xFFFFFFFFFFFFFFFFFFFFFFFFFFFFFFFFFFFFFFFF AND DUP2 PUSH20 0xFFFFFFFFFFFFFFFFFFFFFFFFFFFFFFFFFFFFFFFF AND SUB PUSH2 0xCDB JUMPI PUSH2 0xCD8 PUSH2 0xFA5 JUMP JUMPDEST SWAP1 POP JUMPDEST SWAP1 JUMP JUMPDEST PUSH0 PUSH2 0xCE7 PUSH2 0x1B22 JUMP JUMPDEST PUSH0 ADD PUSH0 DUP4 PUSH28 0xFFFFFFFFFFFFFFFFFFFFFFFFFFFFFFFFFFFFFFFFFFFFFFFFFFFFFFFF NOT AND PUSH28 0xFFFFFFFFFFFFFFFFFFFFFFFFFFFFFFFFFFFFFFFFFFFFFFFFFFFFFFFF NOT AND DUP2 MSTORE PUSH1 0x20 ADD SWAP1 DUP2 MSTORE PUSH1 0x20 ADD PUSH0 KECCAK256 PUSH0 SWAP1 SLOAD SWAP1 PUSH2 0x100 EXP SWAP1 DIV PUSH1 0xFF AND SWAP1 POP SWAP2 SWAP1 POP JUMP JUMPDEST PUSH0 PUSH2 0xD53 PUSH2 0x1B4E JUMP JUMPDEST PUSH0 ADD PUSH0 SWAP1 SLOAD SWAP1 PUSH2 0x100 EXP SWAP1 DIV PUSH20 0xFFFFFFFFFFFFFFFFFFFFFFFFFFFFFFFFFFFFFFFF AND SWAP1 POP SWAP1 JUMP JUMPDEST PUSH0 PUSH2 0xD83 PUSH2 0x1B7A JUMP JUMPDEST SWAP1 POP PUSH0 DUP2 PUSH1 0x1 ADD PUSH0 SWAP1 SLOAD SWAP1 PUSH2 0x100 EXP SWAP1 DIV PUSH2 0xFFFF AND PUSH2 0xFFFF AND SWAP1 POP PUSH0 DUP2 SWAP1 POP PUSH0 DUP1 PUSH1 0x7 DUP4 AND GT ISZERO PUSH2 0xDC9 JUMPI DUP4 PUSH1 0x2 ADD PUSH0 PUSH1 0x3 DUP5 SWAP1 SHR DUP2 MSTORE PUSH1 0x20 ADD SWAP1 DUP2 MSTORE PUSH1 0x20 ADD PUSH0 KECCAK256 SLOAD SWAP1 POP JUMPDEST PUSH0 JUMPDEST DUP8 MLOAD DUP2 LT ISZERO PUSH2 0xF08 JUMPI PUSH0 DUP9 DUP3 DUP2 MLOAD DUP2 LT PUSH2 0xDE8 JUMPI PUSH2 0xDE7 PUSH2 0x3397 JUMP JUMPDEST JUMPDEST PUSH1 0x20 MUL PUSH1 0x20 ADD ADD MLOAD SWAP1 POP PUSH0 DUP2 PUSH1 0x20 ADD MLOAD SWAP1 POP PUSH0 DUP3 PUSH1 0x40 ADD MLOAD MLOAD SUB PUSH2 0xE38 JUMPI PUSH1 0x40 MLOAD PUSH32 0xEB6C3AEB00000000000000000000000000000000000000000000000000000000 DUP2 MSTORE PUSH1 0x4 ADD PUSH1 0x40 MLOAD DUP1 SWAP2 SUB SWAP1 REVERT JUMPDEST PUSH0 PUSH1 0x2 DUP2 GT ISZERO PUSH2 0xE4B JUMPI PUSH2 0xE4A PUSH2 0x336A JUMP JUMPDEST JUMPDEST DUP2 PUSH1 0x2 DUP2 GT ISZERO PUSH2 0xE5E JUMPI PUSH2 0xE5D PUSH2 0x336A JUMP JUMPDEST JUMPDEST SUB PUSH2 0xE7C JUMPI PUSH2 0xE6F DUP8 DUP7 DUP7 DUP6 PUSH2 0x1BA6 JUMP JUMPDEST DUP1 SWAP6 POP DUP2 SWAP7 POP POP POP PUSH2 0xEF9 JUMP JUMPDEST PUSH1 0x1 PUSH1 0x2 DUP2 GT ISZERO PUSH2 0xE90 JUMPI PUSH2 0xE8F PUSH2 0x336A JUMP JUMPDEST JUMPDEST DUP2 PUSH1 0x2 DUP2 GT ISZERO PUSH2 0xEA3 JUMPI PUSH2 0xEA2 PUSH2 0x336A JUMP JUMPDEST JUMPDEST SUB PUSH2 0xEB7 JUMPI PUSH2 0xEB2 DUP8 DUP4 PUSH2 0x1EAC JUMP JUMPDEST PUSH2 0xEF8 JUMP JUMPDEST PUSH1 0x2 DUP1 DUP2 GT ISZERO PUSH2 0xECA JUMPI PUSH2 0xEC9 PUSH2 0x336A JUMP JUMPDEST JUMPDEST DUP2 PUSH1 0x2 DUP2 GT ISZERO PUSH2 0xEDD JUMPI PUSH2 0xEDC PUSH2 0x336A JUMP JUMPDEST JUMPDEST SUB PUSH2 0xEF7 JUMPI PUSH2 0xEEE DUP8 DUP7 DUP7 DUP6 PUSH2 0x2153 JUMP JUMPDEST DUP1 SWAP6 POP DUP2 SWAP7 POP POP POP JUMPDEST JUMPDEST JUMPDEST POP POP DUP1 DUP1 PUSH1 0x1 ADD SWAP2 POP POP PUSH2 0xDCB JUMP JUMPDEST POP DUP3 DUP3 EQ PUSH2 0xF2F JUMPI DUP2 DUP5 PUSH1 0x1 ADD PUSH0 PUSH2 0x100 EXP DUP2 SLOAD DUP2 PUSH2 0xFFFF MUL NOT AND SWAP1 DUP4 PUSH2 0xFFFF AND MUL OR SWAP1 SSTORE POP JUMPDEST PUSH0 PUSH1 0x7 DUP4 AND GT ISZERO PUSH2 0xF57 JUMPI DUP1 DUP5 PUSH1 0x2 ADD PUSH0 PUSH1 0x3 DUP6 SWAP1 SHR DUP2 MSTORE PUSH1 0x20 ADD SWAP1 DUP2 MSTORE PUSH1 0x20 ADD PUSH0 KECCAK256 DUP2 SWAP1 SSTORE POP JUMPDEST PUSH32 0x8FAA70878671CCD212D20771B795C50AF8FD3FF6CF27F4BDE57E5D4DE0AEB673 DUP8 DUP8 DUP8 PUSH1 0x40 MLOAD PUSH2 0xF8A SWAP4 SWAP3 SWAP2 SWAP1 PUSH2 0x35F0 JUMP JUMPDEST PUSH1 0x40 MLOAD DUP1 SWAP2 SUB SWAP1 LOG1 PUSH2 0xF9C DUP7 DUP7 PUSH2 0x260F JUMP JUMPDEST POP POP POP POP POP POP POP JUMP JUMPDEST PUSH0 PUSH2 0xFAE PUSH2 0x1B7A JUMP JUMPDEST PUSH1 0x3 ADD PUSH0 SWAP1 SLOAD SWAP1 PUSH2 0x100 EXP SWAP1 DIV PUSH20 0xFFFFFFFFFFFFFFFFFFFFFFFFFFFFFFFFFFFFFFFF AND SWAP1 POP SWAP1 JUMP JUMPDEST PUSH1 0x60 PUSH0 PUSH2 0xFE1 PUSH2 0x1B7A JUMP JUMPDEST SWAP1 POP DUP1 PUSH1 0x1 ADD PUSH0 SWAP1 SLOAD SWAP1 PUSH2 0x100 EXP SWAP1 DIV PUSH2 0xFFFF AND PUSH2 0xFFFF AND PUSH8 0xFFFFFFFFFFFFFFFF DUP2 GT ISZERO PUSH2 0x1012 JUMPI PUSH2 0x1011 PUSH2 0x2D23 JUMP JUMPDEST JUMPDEST PUSH1 0x40 MLOAD SWAP1 DUP1 DUP3 MSTORE DUP1 PUSH1 0x20 MUL PUSH1 0x20 ADD DUP3 ADD PUSH1 0x40 MSTORE DUP1 ISZERO PUSH2 0x1040 JUMPI DUP2 PUSH1 0x20 ADD PUSH1 0x20 DUP3 MUL DUP1 CALLDATASIZE DUP4 CALLDATACOPY DUP1 DUP3 ADD SWAP2 POP POP SWAP1 POP JUMPDEST POP SWAP2 POP PUSH0 DUP1 PUSH0 JUMPDEST DUP4 PUSH1 0x1 ADD PUSH0 SWAP1 SLOAD SWAP1 PUSH2 0x100 EXP SWAP1 DIV PUSH2 0xFFFF AND PUSH2 0xFFFF AND DUP3 LT ISZERO PUSH2 0x1211 JUMPI PUSH0 DUP5 PUSH1 0x2 ADD PUSH0 DUP4 DUP2 MSTORE PUSH1 0x20 ADD SWAP1 DUP2 MSTORE PUSH1 0x20 ADD PUSH0 KECCAK256 SLOAD SWAP1 POP PUSH0 JUMPDEST PUSH1 0x8 DUP2 LT ISZERO PUSH2 0x11FC JUMPI DUP4 DUP1 PUSH2 0x1091 SWAP1 PUSH2 0x3669 JUMP JUMPDEST SWAP5 POP POP DUP6 PUSH1 0x1 ADD PUSH0 SWAP1 SLOAD SWAP1 PUSH2 0x100 EXP SWAP1 DIV PUSH2 0xFFFF AND PUSH2 0xFFFF AND DUP5 GT PUSH2 0x11FC JUMPI PUSH0 PUSH1 0x5 DUP3 SWAP1 SHL DUP4 SWAP1 SHL SWAP1 POP PUSH0 DUP8 PUSH0 ADD PUSH0 DUP4 PUSH28 0xFFFFFFFFFFFFFFFFFFFFFFFFFFFFFFFFFFFFFFFFFFFFFFFFFFFFFFFF NOT AND PUSH28 0xFFFFFFFFFFFFFFFFFFFFFFFFFFFFFFFFFFFFFFFFFFFFFFFFFFFFFFFF NOT AND DUP2 MSTORE PUSH1 0x20 ADD SWAP1 DUP2 MSTORE PUSH1 0x20 ADD PUSH0 KECCAK256 SLOAD PUSH1 0x60 SHR SWAP1 POP PUSH0 DUP1 JUMPDEST DUP9 DUP2 LT ISZERO PUSH2 0x1180 JUMPI DUP11 DUP2 DUP2 MLOAD DUP2 LT PUSH2 0x1130 JUMPI PUSH2 0x112F PUSH2 0x3397 JUMP JUMPDEST JUMPDEST PUSH1 0x20 MUL PUSH1 0x20 ADD ADD MLOAD PUSH20 0xFFFFFFFFFFFFFFFFFFFFFFFFFFFFFFFFFFFFFFFF AND DUP4 PUSH20 0xFFFFFFFFFFFFFFFFFFFFFFFFFFFFFFFFFFFFFFFF AND SUB PUSH2 0x1173 JUMPI PUSH1 0x1 SWAP2 POP PUSH2 0x1180 JUMP JUMPDEST DUP1 DUP1 PUSH1 0x1 ADD SWAP2 POP POP PUSH2 0x1115 JUMP JUMPDEST POP DUP1 ISZERO PUSH2 0x118F JUMPI POP POP POP PUSH2 0x11EF JUMP JUMPDEST DUP2 DUP11 DUP10 DUP2 MLOAD DUP2 LT PUSH2 0x11A3 JUMPI PUSH2 0x11A2 PUSH2 0x3397 JUMP JUMPDEST JUMPDEST PUSH1 0x20 MUL PUSH1 0x20 ADD ADD SWAP1 PUSH20 0xFFFFFFFFFFFFFFFFFFFFFFFFFFFFFFFFFFFFFFFF AND SWAP1 DUP2 PUSH20 0xFFFFFFFFFFFFFFFFFFFFFFFFFFFFFFFFFFFFFFFF AND DUP2 MSTORE POP POP DUP8 DUP1 PUSH2 0x11E8 SWAP1 PUSH2 0x3669 JUMP JUMPDEST SWAP9 POP POP POP POP POP JUMPDEST DUP1 DUP1 PUSH1 0x1 ADD SWAP2 POP POP PUSH2 0x107D JUMP JUMPDEST POP POP DUP1 DUP1 PUSH2 0x1209 SWAP1 PUSH2 0x3669 JUMP JUMPDEST SWAP2 POP POP PUSH2 0x1047 JUMP JUMPDEST POP DUP2 DUP5 MSTORE POP POP POP SWAP1 JUMP JUMPDEST PUSH0 PUSH2 0x1224 PUSH2 0x27B3 JUMP JUMPDEST PUSH0 ADD PUSH0 SWAP1 SLOAD SWAP1 PUSH2 0x100 EXP SWAP1 DIV PUSH20 0xFFFFFFFFFFFFFFFFFFFFFFFFFFFFFFFFFFFFFFFF AND SWAP1 POP SWAP1 JUMP JUMPDEST PUSH2 0x1254 CALLER PUSH2 0x27DF JUMP JUMPDEST PUSH2 0x125C PUSH2 0x27B3 JUMP JUMPDEST PUSH0 ADD PUSH0 PUSH2 0x100 EXP DUP2 SLOAD SWAP1 PUSH20 0xFFFFFFFFFFFFFFFFFFFFFFFFFFFFFFFFFFFFFFFF MUL NOT AND SWAP1 SSTORE JUMP JUMPDEST PUSH1 0x60 PUSH0 PUSH2 0x128D PUSH2 0x1B7A JUMP JUMPDEST SWAP1 POP DUP1 PUSH1 0x1 ADD PUSH0 SWAP1 SLOAD SWAP1 PUSH2 0x100 EXP SWAP1 DIV PUSH2 0xFFFF AND PUSH2 0xFFFF AND PUSH8 0xFFFFFFFFFFFFFFFF DUP2 GT ISZERO PUSH2 0x12BE JUMPI PUSH2 0x12BD PUSH2 0x2D23 JUMP JUMPDEST JUMPDEST PUSH1 0x40 MLOAD SWAP1 DUP1 DUP3 MSTORE DUP1 PUSH1 0x20 MUL PUSH1 0x20 ADD DUP3 ADD PUSH1 0x40 MSTORE DUP1 ISZERO PUSH2 0x12F7 JUMPI DUP2 PUSH1 0x20 ADD JUMPDEST PUSH2 0x12E4 PUSH2 0x2955 JUMP JUMPDEST DUP2 MSTORE PUSH1 0x20 ADD SWAP1 PUSH1 0x1 SWAP1 SUB SWAP1 DUP2 PUSH2 0x12DC JUMPI SWAP1 POP JUMPDEST POP SWAP2 POP PUSH0 DUP2 PUSH1 0x1 ADD PUSH0 SWAP1 SLOAD SWAP1 PUSH2 0x100 EXP SWAP1 DIV PUSH2 0xFFFF AND PUSH2 0xFFFF AND PUSH8 0xFFFFFFFFFFFFFFFF DUP2 GT ISZERO PUSH2 0x132A JUMPI PUSH2 0x1329 PUSH2 0x2D23 JUMP JUMPDEST JUMPDEST PUSH1 0x40 MLOAD SWAP1 DUP1 DUP3 MSTORE DUP1 PUSH1 0x20 MUL PUSH1 0x20 ADD DUP3 ADD PUSH1 0x40 MSTORE DUP1 ISZERO PUSH2 0x1358 JUMPI DUP2 PUSH1 0x20 ADD PUSH1 0x20 DUP3 MUL DUP1 CALLDATASIZE DUP4 CALLDATACOPY DUP1 DUP3 ADD SWAP2 POP POP SWAP1 POP JUMPDEST POP SWAP1 POP PUSH0 DUP1 PUSH0 JUMPDEST DUP5 PUSH1 0x1 ADD PUSH0 SWAP1 SLOAD SWAP1 PUSH2 0x100 EXP SWAP1 DIV PUSH2 0xFFFF AND PUSH2 0xFFFF AND DUP3 LT ISZERO PUSH2 0x174C JUMPI PUSH0 DUP6 PUSH1 0x2 ADD PUSH0 DUP4 DUP2 MSTORE PUSH1 0x20 ADD SWAP1 DUP2 MSTORE PUSH1 0x20 ADD PUSH0 KECCAK256 SLOAD SWAP1 POP PUSH0 JUMPDEST PUSH1 0x8 DUP2 LT ISZERO PUSH2 0x1737 JUMPI DUP4 DUP1 PUSH2 0x13A9 SWAP1 PUSH2 0x3669 JUMP JUMPDEST SWAP5 POP POP DUP7 PUSH1 0x1 ADD PUSH0 SWAP1 SLOAD SWAP1 PUSH2 0x100 EXP SWAP1 DIV PUSH2 0xFFFF AND PUSH2 0xFFFF AND DUP5 GT PUSH2 0x1737 JUMPI PUSH0 PUSH1 0x5 DUP3 SWAP1 SHL DUP4 SWAP1 SHL SWAP1 POP PUSH0 DUP9 PUSH0 ADD PUSH0 DUP4 PUSH28 0xFFFFFFFFFFFFFFFFFFFFFFFFFFFFFFFFFFFFFFFFFFFFFFFFFFFFFFFF NOT AND PUSH28 0xFFFFFFFFFFFFFFFFFFFFFFFFFFFFFFFFFFFFFFFFFFFFFFFFFFFFFFFF NOT AND DUP2 MSTORE PUSH1 0x20 ADD SWAP1 DUP2 MSTORE PUSH1 0x20 ADD PUSH0 KECCAK256 SLOAD PUSH1 0x60 SHR SWAP1 POP PUSH0 DUP1 JUMPDEST DUP9 DUP2 LT ISZERO PUSH2 0x1591 JUMPI DUP3 PUSH20 0xFFFFFFFFFFFFFFFFFFFFFFFFFFFFFFFFFFFFFFFF AND DUP13 DUP3 DUP2 MLOAD DUP2 LT PUSH2 0x145F JUMPI PUSH2 0x145E PUSH2 0x3397 JUMP JUMPDEST JUMPDEST PUSH1 0x20 MUL PUSH1 0x20 ADD ADD MLOAD PUSH0 ADD MLOAD PUSH20 0xFFFFFFFFFFFFFFFFFFFFFFFFFFFFFFFFFFFFFFFF AND SUB PUSH2 0x1584 JUMPI DUP4 DUP13 DUP3 DUP2 MLOAD DUP2 LT PUSH2 0x1499 JUMPI PUSH2 0x1498 PUSH2 0x3397 JUMP JUMPDEST JUMPDEST PUSH1 0x20 MUL PUSH1 0x20 ADD ADD MLOAD PUSH1 0x20 ADD MLOAD DUP12 DUP4 DUP2 MLOAD DUP2 LT PUSH2 0x14B8 JUMPI PUSH2 0x14B7 PUSH2 0x3397 JUMP JUMPDEST JUMPDEST PUSH1 0x20 MUL PUSH1 0x20 ADD ADD MLOAD PUSH1 0xFF AND DUP2 MLOAD DUP2 LT PUSH2 0x14D4 JUMPI PUSH2 0x14D3 PUSH2 0x3397 JUMP JUMPDEST JUMPDEST PUSH1 0x20 MUL PUSH1 0x20 ADD ADD SWAP1 PUSH28 0xFFFFFFFFFFFFFFFFFFFFFFFFFFFFFFFFFFFFFFFFFFFFFFFFFFFFFFFF NOT AND SWAP1 DUP2 PUSH28 0xFFFFFFFFFFFFFFFFFFFFFFFFFFFFFFFFFFFFFFFFFFFFFFFFFFFFFFFF NOT AND DUP2 MSTORE POP POP PUSH1 0xFF DUP11 DUP3 DUP2 MLOAD DUP2 LT PUSH2 0x1535 JUMPI PUSH2 0x1534 PUSH2 0x3397 JUMP JUMPDEST JUMPDEST PUSH1 0x20 MUL PUSH1 0x20 ADD ADD MLOAD PUSH1 0xFF AND LT PUSH2 0x1549 JUMPI PUSH0 DUP1 REVERT JUMPDEST DUP10 DUP2 DUP2 MLOAD DUP2 LT PUSH2 0x155C JUMPI PUSH2 0x155B PUSH2 0x3397 JUMP JUMPDEST JUMPDEST PUSH1 0x20 MUL PUSH1 0x20 ADD ADD DUP1 MLOAD DUP1 SWAP2 SWAP1 PUSH2 0x1571 SWAP1 PUSH2 0x36BC JUMP JUMPDEST PUSH1 0xFF AND PUSH1 0xFF AND DUP2 MSTORE POP POP PUSH1 0x1 SWAP2 POP PUSH2 0x1591 JUMP JUMPDEST DUP1 DUP1 PUSH1 0x1 ADD SWAP2 POP POP PUSH2 0x142D JUMP JUMPDEST POP DUP1 ISZERO PUSH2 0x15A0 JUMPI POP POP POP PUSH2 0x172A JUMP JUMPDEST DUP2 DUP12 DUP10 DUP2 MLOAD DUP2 LT PUSH2 0x15B4 JUMPI PUSH2 0x15B3 PUSH2 0x3397 JUMP JUMPDEST JUMPDEST PUSH1 0x20 MUL PUSH1 0x20 ADD ADD MLOAD PUSH0 ADD SWAP1 PUSH20 0xFFFFFFFFFFFFFFFFFFFFFFFFFFFFFFFFFFFFFFFF AND SWAP1 DUP2 PUSH20 0xFFFFFFFFFFFFFFFFFFFFFFFFFFFFFFFFFFFFFFFF AND DUP2 MSTORE POP POP DUP10 PUSH1 0x1 ADD PUSH0 SWAP1 SLOAD SWAP1 PUSH2 0x100 EXP SWAP1 DIV PUSH2 0xFFFF AND PUSH2 0xFFFF AND PUSH8 0xFFFFFFFFFFFFFFFF DUP2 GT ISZERO PUSH2 0x1620 JUMPI PUSH2 0x161F PUSH2 0x2D23 JUMP JUMPDEST JUMPDEST PUSH1 0x40 MLOAD SWAP1 DUP1 DUP3 MSTORE DUP1 PUSH1 0x20 MUL PUSH1 0x20 ADD DUP3 ADD PUSH1 0x40 MSTORE DUP1 ISZERO PUSH2 0x164E JUMPI DUP2 PUSH1 0x20 ADD PUSH1 0x20 DUP3 MUL DUP1 CALLDATASIZE DUP4 CALLDATACOPY DUP1 DUP3 ADD SWAP2 POP POP SWAP1 POP JUMPDEST POP DUP12 DUP10 DUP2 MLOAD DUP2 LT PUSH2 0x1662 JUMPI PUSH2 0x1661 PUSH2 0x3397 JUMP JUMPDEST JUMPDEST PUSH1 0x20 MUL PUSH1 0x20 ADD ADD MLOAD PUSH1 0x20 ADD DUP2 SWAP1 MSTORE POP DUP3 DUP12 DUP10 DUP2 MLOAD DUP2 LT PUSH2 0x1685 JUMPI PUSH2 0x1684 PUSH2 0x3397 JUMP JUMPDEST JUMPDEST PUSH1 0x20 MUL PUSH1 0x20 ADD ADD MLOAD PUSH1 0x20 ADD MLOAD PUSH0 DUP2 MLOAD DUP2 LT PUSH2 0x16A3 JUMPI PUSH2 0x16A2 PUSH2 0x3397 JUMP JUMPDEST JUMPDEST PUSH1 0x20 MUL PUSH1 0x20 ADD ADD SWAP1 PUSH28 0xFFFFFFFFFFFFFFFFFFFFFFFFFFFFFFFFFFFFFFFFFFFFFFFFFFFFFFFF NOT AND SWAP1 DUP2 PUSH28 0xFFFFFFFFFFFFFFFFFFFFFFFFFFFFFFFFFFFFFFFFFFFFFFFFFFFFFFFF NOT AND DUP2 MSTORE POP POP PUSH1 0x1 DUP10 DUP10 DUP2 MLOAD DUP2 LT PUSH2 0x1704 JUMPI PUSH2 0x1703 PUSH2 0x3397 JUMP JUMPDEST JUMPDEST PUSH1 0x20 MUL PUSH1 0x20 ADD ADD SWAP1 PUSH1 0xFF AND SWAP1 DUP2 PUSH1 0xFF AND DUP2 MSTORE POP POP DUP8 DUP1 PUSH2 0x1723 SWAP1 PUSH2 0x3669 JUMP JUMPDEST SWAP9 POP POP POP POP POP JUMPDEST DUP1 DUP1 PUSH1 0x1 ADD SWAP2 POP POP PUSH2 0x1395 JUMP JUMPDEST POP POP DUP1 DUP1 PUSH2 0x1744 SWAP1 PUSH2 0x3669 JUMP JUMPDEST SWAP2 POP POP PUSH2 0x135F JUMP JUMPDEST POP PUSH0 JUMPDEST DUP3 DUP2 LT ISZERO PUSH2 0x17AC JUMPI PUSH0 DUP5 DUP3 DUP2 MLOAD DUP2 LT PUSH2 0x176B JUMPI PUSH2 0x176A PUSH2 0x3397 JUMP JUMPDEST JUMPDEST PUSH1 0x20 MUL PUSH1 0x20 ADD ADD MLOAD PUSH1 0xFF AND SWAP1 POP PUSH0 DUP8 DUP4 DUP2 MLOAD DUP2 LT PUSH2 0x178C JUMPI PUSH2 0x178B PUSH2 0x3397 JUMP JUMPDEST JUMPDEST PUSH1 0x20 MUL PUSH1 0x20 ADD ADD MLOAD PUSH1 0x20 ADD MLOAD SWAP1 POP DUP2 DUP2 MSTORE POP POP DUP1 DUP1 PUSH1 0x1 ADD SWAP2 POP POP PUSH2 0x174F JUMP JUMPDEST POP DUP2 DUP6 MSTORE POP POP POP POP SWAP1 JUMP JUMPDEST DUP1 PUSH2 0x17C0 PUSH2 0x1B7A JUMP JUMPDEST PUSH1 0x3 ADD PUSH0 PUSH2 0x100 EXP DUP2 SLOAD DUP2 PUSH20 0xFFFFFFFFFFFFFFFFFFFFFFFFFFFFFFFFFFFFFFFF MUL NOT AND SWAP1 DUP4 PUSH20 0xFFFFFFFFFFFFFFFFFFFFFFFFFFFFFFFFFFFFFFFF AND MUL OR SWAP1 SSTORE POP POP JUMP JUMPDEST PUSH1 0x60 PUSH0 PUSH2 0x180E PUSH2 0x1B7A JUMP JUMPDEST SWAP1 POP DUP1 PUSH1 0x1 ADD PUSH0 SWAP1 SLOAD SWAP1 PUSH2 0x100 EXP SWAP1 DIV PUSH2 0xFFFF AND PUSH2 0xFFFF AND PUSH8 0xFFFFFFFFFFFFFFFF DUP2 GT ISZERO PUSH2 0x183F JUMPI PUSH2 0x183E PUSH2 0x2D23 JUMP JUMPDEST JUMPDEST PUSH1 0x40 MLOAD SWAP1 DUP1 DUP3 MSTORE DUP1 PUSH1 0x20 MUL PUSH1 0x20 ADD DUP3 ADD PUSH1 0x40 MSTORE DUP1 ISZERO PUSH2 0x186D JUMPI DUP2 PUSH1 0x20 ADD PUSH1 0x20 DUP3 MUL DUP1 CALLDATASIZE DUP4 CALLDATACOPY DUP1 DUP3 ADD SWAP2 POP POP SWAP1 POP JUMPDEST POP SWAP2 POP PUSH0 DUP1 PUSH0 JUMPDEST DUP4 PUSH1 0x1 ADD PUSH0 SWAP1 SLOAD SWAP1 PUSH2 0x100 EXP SWAP1 DIV PUSH2 0xFFFF AND PUSH2 0xFFFF AND DUP3 LT ISZERO PUSH2 0x1A00 JUMPI PUSH0 DUP5 PUSH1 0x2 ADD PUSH0 DUP4 DUP2 MSTORE PUSH1 0x20 ADD SWAP1 DUP2 MSTORE PUSH1 0x20 ADD PUSH0 KECCAK256 SLOAD SWAP1 POP PUSH0 JUMPDEST PUSH1 0x8 DUP2 LT ISZERO PUSH2 0x19EB JUMPI DUP4 DUP1 PUSH2 0x18BE SWAP1 PUSH2 0x3669 JUMP JUMPDEST SWAP5 POP POP DUP6 PUSH1 0x1 ADD PUSH0 SWAP1 SLOAD SWAP1 PUSH2 0x100 EXP SWAP1 DIV PUSH2 0xFFFF AND PUSH2 0xFFFF AND DUP5 GT PUSH2 0x19EB JUMPI PUSH0 PUSH1 0x5 DUP3 SWAP1 SHL DUP4 SWAP1 SHL SWAP1 POP DUP7 PUSH0 ADD PUSH0 DUP3 PUSH28 0xFFFFFFFFFFFFFFFFFFFFFFFFFFFFFFFFFFFFFFFFFFFFFFFFFFFFFFFF NOT AND PUSH28 0xFFFFFFFFFFFFFFFFFFFFFFFFFFFFFFFFFFFFFFFFFFFFFFFFFFFFFFFF NOT AND DUP2 MSTORE PUSH1 0x20 ADD SWAP1 DUP2 MSTORE PUSH1 0x20 ADD PUSH0 KECCAK256 SLOAD PUSH1 0x60 SHR PUSH20 0xFFFFFFFFFFFFFFFFFFFFFFFFFFFFFFFFFFFFFFFF AND DUP10 PUSH20 0xFFFFFFFFFFFFFFFFFFFFFFFFFFFFFFFFFFFFFFFF AND SUB PUSH2 0x19DD JUMPI DUP1 DUP9 DUP8 DUP2 MLOAD DUP2 LT PUSH2 0x1982 JUMPI PUSH2 0x1981 PUSH2 0x3397 JUMP JUMPDEST JUMPDEST PUSH1 0x20 MUL PUSH1 0x20 ADD ADD SWAP1 PUSH28 0xFFFFFFFFFFFFFFFFFFFFFFFFFFFFFFFFFFFFFFFFFFFFFFFFFFFFFFFF NOT AND SWAP1 DUP2 PUSH28 0xFFFFFFFFFFFFFFFFFFFFFFFFFFFFFFFFFFFFFFFFFFFFFFFFFFFFFFFF NOT AND DUP2 MSTORE POP POP DUP6 DUP1 PUSH2 0x19D9 SWAP1 PUSH2 0x3669 JUMP JUMPDEST SWAP7 POP POP JUMPDEST POP DUP1 DUP1 PUSH1 0x1 ADD SWAP2 POP POP PUSH2 0x18AA JUMP JUMPDEST POP POP DUP1 DUP1 PUSH2 0x19F8 SWAP1 PUSH2 0x3669 JUMP JUMPDEST SWAP2 POP POP PUSH2 0x1874 JUMP JUMPDEST POP DUP2 DUP5 MSTORE POP POP POP SWAP2 SWAP1 POP JUMP JUMPDEST PUSH0 PUSH2 0x1A15 PUSH2 0x1B7A JUMP JUMPDEST PUSH0 ADD PUSH0 DUP4 PUSH28 0xFFFFFFFFFFFFFFFFFFFFFFFFFFFFFFFFFFFFFFFFFFFFFFFFFFFFFFFF NOT AND PUSH28 0xFFFFFFFFFFFFFFFFFFFFFFFFFFFFFFFFFFFFFFFFFFFFFFFFFFFFFFFF NOT AND DUP2 MSTORE PUSH1 0x20 ADD SWAP1 DUP2 MSTORE PUSH1 0x20 ADD PUSH0 KECCAK256 SLOAD PUSH1 0x60 SHR SWAP1 POP SWAP2 SWAP1 POP JUMP JUMPDEST PUSH2 0x1A78 DUP2 PUSH2 0x28AB JUMP JUMPDEST POP JUMP JUMPDEST PUSH0 DUP1 PUSH0 PUSH32 0x177481AC65E4292921C69F62D1CC7F57541261E5D61C8175CF4E36A01C9BFC93 SWAP1 POP DUP1 SWAP2 POP DUP2 PUSH0 ADD PUSH0 DUP1 CALLDATALOAD PUSH32 0xFFFFFFFF00000000000000000000000000000000000000000000000000000000 AND PUSH28 0xFFFFFFFFFFFFFFFFFFFFFFFFFFFFFFFFFFFFFFFFFFFFFFFFFFFFFFFF NOT AND PUSH28 0xFFFFFFFFFFFFFFFFFFFFFFFFFFFFFFFFFFFFFFFFFFFFFFFFFFFFFFFF NOT AND DUP2 MSTORE PUSH1 0x20 ADD SWAP1 DUP2 MSTORE PUSH1 0x20 ADD PUSH0 KECCAK256 SLOAD PUSH1 0x60 SHR SWAP3 POP POP POP SWAP1 JUMP JUMPDEST PUSH0 DUP1 PUSH32 0xFC606C433378E3A7E0A6A531DEAC289B66CAA1B4AA8554FD4AB2C6F1570F92D8 SWAP1 POP DUP1 SWAP2 POP POP SWAP1 JUMP JUMPDEST PUSH0 DUP1 PUSH32 0x8A22373512790C48B83A1FE2EFDD2888D4A917BCDC24D0ADF63E60F671680460 SWAP1 POP DUP1 SWAP2 POP POP SWAP1 JUMP JUMPDEST PUSH0 DUP1 PUSH32 0x177481AC65E4292921C69F62D1CC7F57541261E5D61C8175CF4E36A01C9BFC93 SWAP1 POP DUP1 SWAP2 POP POP SWAP1 JUMP JUMPDEST PUSH0 DUP1 PUSH2 0x1BCA DUP4 PUSH0 ADD MLOAD PUSH20 0xFFFFFFFFFFFFFFFFFFFFFFFFFFFFFFFFFFFFFFFF AND PUSH2 0x48E JUMP JUMPDEST ISZERO PUSH2 0x1C3C JUMPI ADDRESS PUSH20 0xFFFFFFFFFFFFFFFFFFFFFFFFFFFFFFFFFFFFFFFF AND DUP4 PUSH0 ADD MLOAD PUSH20 0xFFFFFFFFFFFFFFFFFFFFFFFFFFFFFFFFFFFFFFFF AND SUB PUSH2 0x1C37 JUMPI PUSH1 0x40 MLOAD PUSH32 0xE983573100000000000000000000000000000000000000000000000000000000 DUP2 MSTORE PUSH1 0x4 ADD PUSH1 0x40 MLOAD DUP1 SWAP2 SUB SWAP1 REVERT JUMPDEST PUSH2 0x1CA5 JUMP JUMPDEST ADDRESS PUSH20 0xFFFFFFFFFFFFFFFFFFFFFFFFFFFFFFFFFFFFFFFF AND DUP4 PUSH0 ADD MLOAD PUSH20 0xFFFFFFFFFFFFFFFFFFFFFFFFFFFFFFFFFFFFFFFF AND EQ PUSH2 0x1CA4 JUMPI PUSH1 0x40 MLOAD PUSH32 0xF77172AC00000000000000000000000000000000000000000000000000000000 DUP2 MSTORE PUSH1 0x4 ADD PUSH1 0x40 MLOAD DUP1 SWAP2 SUB SWAP1 REVERT JUMPDEST JUMPDEST PUSH0 JUMPDEST DUP4 PUSH1 0x40 ADD MLOAD MLOAD DUP2 LT ISZERO PUSH2 0x1E9C JUMPI PUSH0 DUP5 PUSH1 0x40 ADD MLOAD DUP3 DUP2 MLOAD DUP2 LT PUSH2 0x1CCC JUMPI PUSH2 0x1CCB PUSH2 0x3397 JUMP JUMPDEST JUMPDEST PUSH1 0x20 MUL PUSH1 0x20 ADD ADD MLOAD SWAP1 POP PUSH0 DUP9 PUSH0 ADD PUSH0 DUP4 PUSH28 0xFFFFFFFFFFFFFFFFFFFFFFFFFFFFFFFFFFFFFFFFFFFFFFFFFFFFFFFF NOT AND PUSH28 0xFFFFFFFFFFFFFFFFFFFFFFFFFFFFFFFFFFFFFFFFFFFFFFFFFFFFFFFF NOT AND DUP2 MSTORE PUSH1 0x20 ADD SWAP1 DUP2 MSTORE PUSH1 0x20 ADD PUSH0 KECCAK256 SLOAD SWAP1 POP PUSH0 PUSH20 0xFFFFFFFFFFFFFFFFFFFFFFFFFFFFFFFFFFFFFFFF AND DUP2 PUSH1 0x60 SHR PUSH20 0xFFFFFFFFFFFFFFFFFFFFFFFFFFFFFFFFFFFFFFFF AND EQ PUSH2 0x1D92 JUMPI PUSH1 0x40 MLOAD PUSH32 0x92474EE200000000000000000000000000000000000000000000000000000000 DUP2 MSTORE PUSH1 0x4 ADD PUSH1 0x40 MLOAD DUP1 SWAP2 SUB SWAP1 REVERT JUMPDEST DUP8 PUSH0 SHL DUP7 PUSH0 ADD MLOAD PUSH1 0x60 SHL PUSH12 0xFFFFFFFFFFFFFFFFFFFFFFFF NOT AND OR DUP10 PUSH0 ADD PUSH0 DUP5 PUSH28 0xFFFFFFFFFFFFFFFFFFFFFFFFFFFFFFFFFFFFFFFFFFFFFFFFFFFFFFFF NOT AND PUSH28 0xFFFFFFFFFFFFFFFFFFFFFFFFFFFFFFFFFFFFFFFFFFFFFFFFFFFFFFFF NOT AND DUP2 MSTORE PUSH1 0x20 ADD SWAP1 DUP2 MSTORE PUSH1 0x20 ADD PUSH0 KECCAK256 DUP2 SWAP1 SSTORE POP PUSH0 PUSH1 0x5 PUSH1 0x7 DUP11 AND SWAP1 SHL SWAP1 POP DUP1 DUP4 PUSH28 0xFFFFFFFFFFFFFFFFFFFFFFFFFFFFFFFFFFFFFFFFFFFFFFFFFFFFFFFF NOT AND SWAP1 SHR DUP2 PUSH32 0xFFFFFFFF00000000000000000000000000000000000000000000000000000000 PUSH0 SHL SWAP1 SHR NOT DUP10 AND OR SWAP8 POP PUSH1 0xE0 DUP2 SUB PUSH2 0x1E84 JUMPI DUP8 DUP11 PUSH1 0x2 ADD PUSH0 PUSH1 0x3 DUP13 SWAP1 SHR DUP2 MSTORE PUSH1 0x20 ADD SWAP1 DUP2 MSTORE PUSH1 0x20 ADD PUSH0 KECCAK256 DUP2 SWAP1 SSTORE POP PUSH0 DUP1 SHL SWAP8 POP JUMPDEST DUP9 DUP1 PUSH1 0x1 ADD SWAP10 POP POP POP POP POP DUP1 DUP1 PUSH1 0x1 ADD SWAP2 POP POP PUSH2 0x1CA7 JUMP JUMPDEST POP DUP5 DUP5 SWAP2 POP SWAP2 POP SWAP5 POP SWAP5 SWAP3 POP POP POP JUMP JUMPDEST PUSH2 0x1ECE DUP2 PUSH0 ADD MLOAD PUSH20 0xFFFFFFFFFFFFFFFFFFFFFFFFFFFFFFFFFFFFFFFF AND PUSH2 0x48E JUMP JUMPDEST PUSH2 0x1F04 JUMPI PUSH1 0x40 MLOAD PUSH32 0xF77172AC00000000000000000000000000000000000000000000000000000000 DUP2 MSTORE PUSH1 0x4 ADD PUSH1 0x40 MLOAD DUP1 SWAP2 SUB SWAP1 REVERT JUMPDEST PUSH0 JUMPDEST DUP2 PUSH1 0x40 ADD MLOAD MLOAD DUP2 LT ISZERO PUSH2 0x214E JUMPI PUSH0 DUP3 PUSH1 0x40 ADD MLOAD DUP3 DUP2 MLOAD DUP2 LT PUSH2 0x1F2B JUMPI PUSH2 0x1F2A PUSH2 0x3397 JUMP JUMPDEST JUMPDEST PUSH1 0x20 MUL PUSH1 0x20 ADD ADD MLOAD SWAP1 POP PUSH0 DUP5 PUSH0 ADD PUSH0 DUP4 PUSH28 0xFFFFFFFFFFFFFFFFFFFFFFFFFFFFFFFFFFFFFFFFFFFFFFFFFFFFFFFF NOT AND PUSH28 0xFFFFFFFFFFFFFFFFFFFFFFFFFFFFFFFFFFFFFFFFFFFFFFFFFFFFFFFF NOT AND DUP2 MSTORE PUSH1 0x20 ADD SWAP1 DUP2 MSTORE PUSH1 0x20 ADD PUSH0 KECCAK256 SLOAD SWAP1 POP PUSH0 DUP2 PUSH1 0x60 SHR SWAP1 POP PUSH0 PUSH20 0xFFFFFFFFFFFFFFFFFFFFFFFFFFFFFFFFFFFFFFFF AND DUP2 PUSH20 0xFFFFFFFFFFFFFFFFFFFFFFFFFFFFFFFFFFFFFFFF AND SUB PUSH2 0x1FF5 JUMPI PUSH1 0x40 MLOAD PUSH32 0x6FC4B52E00000000000000000000000000000000000000000000000000000000 DUP2 MSTORE PUSH1 0x4 ADD PUSH1 0x40 MLOAD DUP1 SWAP2 SUB SWAP1 REVERT JUMPDEST ADDRESS PUSH20 0xFFFFFFFFFFFFFFFFFFFFFFFFFFFFFFFFFFFFFFFF AND DUP2 PUSH20 0xFFFFFFFFFFFFFFFFFFFFFFFFFFFFFFFFFFFFFFFF AND SUB PUSH2 0x205A JUMPI PUSH1 0x40 MLOAD PUSH32 0xE983573100000000000000000000000000000000000000000000000000000000 DUP2 MSTORE PUSH1 0x4 ADD PUSH1 0x40 MLOAD DUP1 SWAP2 SUB SWAP1 REVERT JUMPDEST DUP5 PUSH0 ADD MLOAD PUSH20 0xFFFFFFFFFFFFFFFFFFFFFFFFFFFFFFFFFFFFFFFF AND DUP2 PUSH20 0xFFFFFFFFFFFFFFFFFFFFFFFFFFFFFFFFFFFFFFFF AND SUB PUSH2 0x20C2 JUMPI PUSH1 0x40 MLOAD PUSH32 0x617557E600000000000000000000000000000000000000000000000000000000 DUP2 MSTORE PUSH1 0x4 ADD PUSH1 0x40 MLOAD DUP1 SWAP2 SUB SWAP1 REVERT JUMPDEST DUP5 PUSH0 ADD MLOAD PUSH1 0x60 SHL PUSH12 0xFFFFFFFFFFFFFFFFFFFFFFFF NOT AND PUSH12 0xFFFFFFFFFFFFFFFFFFFFFFFF PUSH0 SHL DUP4 AND OR DUP7 PUSH0 ADD PUSH0 DUP6 PUSH28 0xFFFFFFFFFFFFFFFFFFFFFFFFFFFFFFFFFFFFFFFFFFFFFFFFFFFFFFFF NOT AND PUSH28 0xFFFFFFFFFFFFFFFFFFFFFFFFFFFFFFFFFFFFFFFFFFFFFFFFFFFFFFFF NOT AND DUP2 MSTORE PUSH1 0x20 ADD SWAP1 DUP2 MSTORE PUSH1 0x20 ADD PUSH0 KECCAK256 DUP2 SWAP1 SSTORE POP POP POP POP DUP1 DUP1 PUSH1 0x1 ADD SWAP2 POP POP PUSH2 0x1F06 JUMP JUMPDEST POP POP POP JUMP JUMPDEST PUSH0 DUP1 PUSH0 PUSH20 0xFFFFFFFFFFFFFFFFFFFFFFFFFFFFFFFFFFFFFFFF AND DUP4 PUSH0 ADD MLOAD PUSH20 0xFFFFFFFFFFFFFFFFFFFFFFFFFFFFFFFFFFFFFFFF AND EQ PUSH2 0x21BD JUMPI PUSH1 0x40 MLOAD PUSH32 0xEACD242400000000000000000000000000000000000000000000000000000000 DUP2 MSTORE PUSH1 0x4 ADD PUSH1 0x40 MLOAD DUP1 SWAP2 SUB SWAP1 REVERT JUMPDEST PUSH0 PUSH1 0x3 DUP7 SWAP1 SHR SWAP1 POP PUSH0 PUSH1 0x7 DUP8 AND SWAP1 POP PUSH0 JUMPDEST DUP6 PUSH1 0x40 ADD MLOAD MLOAD DUP2 LT ISZERO PUSH2 0x25F4 JUMPI PUSH0 DUP7 PUSH1 0x40 ADD MLOAD DUP3 DUP2 MLOAD DUP2 LT PUSH2 0x21F3 JUMPI PUSH2 0x21F2 PUSH2 0x3397 JUMP JUMPDEST JUMPDEST PUSH1 0x20 MUL PUSH1 0x20 ADD ADD MLOAD SWAP1 POP PUSH0 DUP11 PUSH0 ADD PUSH0 DUP4 PUSH28 0xFFFFFFFFFFFFFFFFFFFFFFFFFFFFFFFFFFFFFFFFFFFFFFFFFFFFFFFF NOT AND PUSH28 0xFFFFFFFFFFFFFFFFFFFFFFFFFFFFFFFFFFFFFFFFFFFFFFFFFFFFFFFF NOT AND DUP2 MSTORE PUSH1 0x20 ADD SWAP1 DUP2 MSTORE PUSH1 0x20 ADD PUSH0 KECCAK256 SLOAD SWAP1 POP PUSH0 PUSH20 0xFFFFFFFFFFFFFFFFFFFFFFFFFFFFFFFFFFFFFFFF AND DUP2 PUSH1 0x60 SHR PUSH20 0xFFFFFFFFFFFFFFFFFFFFFFFFFFFFFFFFFFFFFFFF AND SUB PUSH2 0x22B9 JUMPI PUSH1 0x40 MLOAD PUSH32 0x6FC4B52E00000000000000000000000000000000000000000000000000000000 DUP2 MSTORE PUSH1 0x4 ADD PUSH1 0x40 MLOAD DUP1 SWAP2 SUB SWAP1 REVERT JUMPDEST ADDRESS PUSH20 0xFFFFFFFFFFFFFFFFFFFFFFFFFFFFFFFFFFFFFFFF AND DUP2 PUSH1 0x60 SHR PUSH20 0xFFFFFFFFFFFFFFFFFFFFFFFFFFFFFFFFFFFFFFFF AND SUB PUSH2 0x2321 JUMPI PUSH1 0x40 MLOAD PUSH32 0xE983573100000000000000000000000000000000000000000000000000000000 DUP2 MSTORE PUSH1 0x4 ADD PUSH1 0x40 MLOAD DUP1 SWAP2 SUB SWAP1 REVERT JUMPDEST PUSH0 DUP1 SHL DUP10 SUB PUSH2 0x2352 JUMPI DUP5 DUP1 PUSH1 0x1 SWAP1 SUB SWAP6 POP POP DUP11 PUSH1 0x2 ADD PUSH0 DUP7 DUP2 MSTORE PUSH1 0x20 ADD SWAP1 DUP2 MSTORE PUSH1 0x20 ADD PUSH0 KECCAK256 SLOAD SWAP9 POP PUSH1 0x7 SWAP4 POP PUSH2 0x235C JUMP JUMPDEST DUP4 DUP1 PUSH1 0x1 SWAP1 SUB SWAP5 POP POP JUMPDEST PUSH0 DUP1 PUSH0 PUSH1 0x5 DUP8 SWAP1 SHL DUP13 SWAP1 SHL SWAP3 POP DUP5 PUSH28 0xFFFFFFFFFFFFFFFFFFFFFFFFFFFFFFFFFFFFFFFFFFFFFFFFFFFFFFFF NOT AND DUP4 PUSH28 0xFFFFFFFFFFFFFFFFFFFFFFFFFFFFFFFFFFFFFFFFFFFFFFFFFFFFFFFF NOT AND EQ PUSH2 0x2475 JUMPI DUP14 PUSH0 ADD PUSH0 DUP5 PUSH28 0xFFFFFFFFFFFFFFFFFFFFFFFFFFFFFFFFFFFFFFFFFFFFFFFFFFFFFFFF NOT AND PUSH28 0xFFFFFFFFFFFFFFFFFFFFFFFFFFFFFFFFFFFFFFFFFFFFFFFFFFFFFFFF NOT AND DUP2 MSTORE PUSH1 0x20 ADD SWAP1 DUP2 MSTORE PUSH1 0x20 ADD PUSH0 KECCAK256 SLOAD PUSH12 0xFFFFFFFFFFFFFFFFFFFFFFFF NOT AND PUSH12 0xFFFFFFFFFFFFFFFFFFFFFFFF PUSH0 SHL DUP6 AND OR DUP15 PUSH0 ADD PUSH0 DUP6 PUSH28 0xFFFFFFFFFFFFFFFFFFFFFFFFFFFFFFFFFFFFFFFFFFFFFFFFFFFFFFFF NOT AND PUSH28 0xFFFFFFFFFFFFFFFFFFFFFFFFFFFFFFFFFFFFFFFFFFFFFFFFFFFFFFFF NOT AND DUP2 MSTORE PUSH1 0x20 ADD SWAP1 DUP2 MSTORE PUSH1 0x20 ADD PUSH0 KECCAK256 DUP2 SWAP1 SSTORE POP JUMPDEST DUP14 PUSH0 ADD PUSH0 DUP7 PUSH28 0xFFFFFFFFFFFFFFFFFFFFFFFFFFFFFFFFFFFFFFFFFFFFFFFFFFFFFFFF NOT AND PUSH28 0xFFFFFFFFFFFFFFFFFFFFFFFFFFFFFFFFFFFFFFFFFFFFFFFFFFFFFFFF NOT AND DUP2 MSTORE PUSH1 0x20 ADD SWAP1 DUP2 MSTORE PUSH1 0x20 ADD PUSH0 KECCAK256 PUSH0 SWAP1 SSTORE PUSH0 DUP5 PUSH0 SHR PUSH2 0xFFFF AND SWAP1 POP PUSH1 0x3 DUP2 SWAP1 SHR SWAP3 POP PUSH1 0x5 PUSH1 0x7 DUP3 AND SWAP1 SHL SWAP2 POP POP DUP8 DUP3 EQ PUSH2 0x256F JUMPI PUSH0 DUP15 PUSH1 0x2 ADD PUSH0 DUP5 DUP2 MSTORE PUSH1 0x20 ADD SWAP1 DUP2 MSTORE PUSH1 0x20 ADD PUSH0 KECCAK256 SLOAD SWAP1 POP DUP2 DUP5 PUSH28 0xFFFFFFFFFFFFFFFFFFFFFFFFFFFFFFFFFFFFFFFFFFFFFFFFFFFFFFFF NOT AND SWAP1 SHR DUP3 PUSH32 0xFFFFFFFF00000000000000000000000000000000000000000000000000000000 PUSH0 SHL SWAP1 SHR NOT DUP3 AND OR SWAP1 POP DUP1 DUP16 PUSH1 0x2 ADD PUSH0 DUP6 DUP2 MSTORE PUSH1 0x20 ADD SWAP1 DUP2 MSTORE PUSH1 0x20 ADD PUSH0 KECCAK256 DUP2 SWAP1 SSTORE POP POP PUSH2 0x25BF JUMP JUMPDEST DUP1 DUP4 PUSH28 0xFFFFFFFFFFFFFFFFFFFFFFFFFFFFFFFFFFFFFFFFFFFFFFFFFFFFFFFF NOT AND SWAP1 SHR DUP2 PUSH32 0xFFFFFFFF00000000000000000000000000000000000000000000000000000000 PUSH0 SHL SWAP1 SHR NOT DUP14 AND OR SWAP12 POP JUMPDEST PUSH0 DUP8 SUB PUSH2 0x25E2 JUMPI DUP14 PUSH1 0x2 ADD PUSH0 DUP10 DUP2 MSTORE PUSH1 0x20 ADD SWAP1 DUP2 MSTORE PUSH1 0x20 ADD PUSH0 KECCAK256 PUSH0 SWAP1 SSTORE PUSH0 DUP1 SHL SWAP12 POP JUMPDEST POP POP POP POP POP DUP1 DUP1 PUSH1 0x1 ADD SWAP2 POP POP PUSH2 0x21CE JUMP JUMPDEST POP DUP1 PUSH1 0x3 DUP4 SWAP1 SHL OR SWAP7 POP DUP7 DUP7 SWAP4 POP SWAP4 POP POP POP SWAP5 POP SWAP5 SWAP3 POP POP POP JUMP JUMPDEST PUSH0 DUP2 MLOAD EQ ISZERO ISZERO PUSH0 PUSH20 0xFFFFFFFFFFFFFFFFFFFFFFFFFFFFFFFFFFFFFFFF AND DUP4 PUSH20 0xFFFFFFFFFFFFFFFFFFFFFFFFFFFFFFFFFFFFFFFF AND EQ ISZERO ISZERO EQ PUSH2 0x267D JUMPI PUSH1 0x40 MLOAD PUSH32 0x26DF4CCD00000000000000000000000000000000000000000000000000000000 DUP2 MSTORE PUSH1 0x4 ADD PUSH1 0x40 MLOAD DUP1 SWAP2 SUB SWAP1 REVERT JUMPDEST PUSH0 PUSH20 0xFFFFFFFFFFFFFFFFFFFFFFFFFFFFFFFFFFFFFFFF AND DUP3 PUSH20 0xFFFFFFFFFFFFFFFFFFFFFFFFFFFFFFFFFFFFFFFF AND EQ PUSH2 0x27AF JUMPI ADDRESS PUSH20 0xFFFFFFFFFFFFFFFFFFFFFFFFFFFFFFFFFFFFFFFF AND DUP3 PUSH20 0xFFFFFFFFFFFFFFFFFFFFFFFFFFFFFFFFFFFFFFFF AND EQ PUSH2 0x2739 JUMPI PUSH2 0x2702 DUP3 PUSH20 0xFFFFFFFFFFFFFFFFFFFFFFFFFFFFFFFFFFFFFFFF AND PUSH2 0x48E JUMP JUMPDEST PUSH2 0x2738 JUMPI PUSH1 0x40 MLOAD PUSH32 0xF77172AC00000000000000000000000000000000000000000000000000000000 DUP2 MSTORE PUSH1 0x4 ADD PUSH1 0x40 MLOAD DUP1 SWAP2 SUB SWAP1 REVERT JUMPDEST JUMPDEST PUSH0 DUP3 PUSH20 0xFFFFFFFFFFFFFFFFFFFFFFFFFFFFFFFFFFFFFFFF AND DUP3 PUSH1 0x40 MLOAD PUSH2 0x275F SWAP2 SWAP1 PUSH2 0x371E JUMP JUMPDEST PUSH0 PUSH1 0x40 MLOAD DUP1 DUP4 SUB DUP2 DUP6 GAS DELEGATECALL SWAP2 POP POP RETURNDATASIZE DUP1 PUSH0 DUP2 EQ PUSH2 0x2797 JUMPI PUSH1 0x40 MLOAD SWAP2 POP PUSH1 0x1F NOT PUSH1 0x3F RETURNDATASIZE ADD AND DUP3 ADD PUSH1 0x40 MSTORE RETURNDATASIZE DUP3 MSTORE RETURNDATASIZE PUSH0 PUSH1 0x20 DUP5 ADD RETURNDATACOPY PUSH2 0x279C JUMP JUMPDEST PUSH1 0x60 SWAP2 POP JUMPDEST POP POP SWAP1 POP DUP1 PUSH2 0x27AD JUMPI RETURNDATASIZE PUSH0 DUP1 RETURNDATACOPY RETURNDATASIZE PUSH0 REVERT JUMPDEST POP JUMPDEST POP POP JUMP JUMPDEST PUSH0 DUP1 PUSH32 0x24AA1F7B31FD188A8D3ECFB06BC55C806040E59B03BD4396283442FCE6617890 SWAP1 POP DUP1 SWAP2 POP POP SWAP1 JUMP JUMPDEST PUSH0 PUSH2 0x27E8 PUSH2 0x1B4E JUMP JUMPDEST SWAP1 POP DUP2 PUSH20 0xFFFFFFFFFFFFFFFFFFFFFFFFFFFFFFFFFFFFFFFF AND DUP2 PUSH0 ADD PUSH0 SWAP1 SLOAD SWAP1 PUSH2 0x100 EXP SWAP1 DIV PUSH20 0xFFFFFFFFFFFFFFFFFFFFFFFFFFFFFFFFFFFFFFFF AND PUSH20 0xFFFFFFFFFFFFFFFFFFFFFFFFFFFFFFFFFFFFFFFF AND PUSH32 0x8BE0079C531659141344CD1FD0A4F28419497F9722A3DAAFE3B4186F6B6457E0 PUSH1 0x40 MLOAD PUSH1 0x40 MLOAD DUP1 SWAP2 SUB SWAP1 LOG3 DUP2 DUP2 PUSH0 ADD PUSH0 PUSH2 0x100 EXP DUP2 SLOAD DUP2 PUSH20 0xFFFFFFFFFFFFFFFFFFFFFFFFFFFFFFFFFFFFFFFF MUL NOT AND SWAP1 DUP4 PUSH20 0xFFFFFFFFFFFFFFFFFFFFFFFFFFFFFFFFFFFFFFFF AND MUL OR SWAP1 SSTORE POP POP POP JUMP JUMPDEST PUSH2 0x28B4 DUP2 PUSH2 0x28B7 JUMP JUMPDEST POP JUMP JUMPDEST PUSH2 0x28C0 DUP2 PUSH2 0x28C3 JUMP JUMPDEST POP JUMP JUMPDEST DUP1 PUSH2 0x28CC PUSH2 0x27B3 JUMP JUMPDEST PUSH0 ADD PUSH0 PUSH2 0x100 EXP DUP2 SLOAD DUP2 PUSH20 0xFFFFFFFFFFFFFFFFFFFFFFFFFFFFFFFFFFFFFFFF MUL NOT AND SWAP1 DUP4 PUSH20 0xFFFFFFFFFFFFFFFFFFFFFFFFFFFFFFFFFFFFFFFF AND MUL OR SWAP1 SSTORE POP POP JUMP JUMPDEST PUSH1 0x40 MLOAD DUP1 PUSH1 0x60 ADD PUSH1 0x40 MSTORE DUP1 PUSH0 PUSH20 0xFFFFFFFFFFFFFFFFFFFFFFFFFFFFFFFFFFFFFFFF AND DUP2 MSTORE PUSH1 0x20 ADD PUSH0 PUSH1 0x2 DUP2 GT ISZERO PUSH2 0x2948 JUMPI PUSH2 0x2947 PUSH2 0x336A JUMP JUMPDEST JUMPDEST DUP2 MSTORE PUSH1 0x20 ADD PUSH1 0x60 DUP2 MSTORE POP SWAP1 JUMP JUMPDEST PUSH1 0x40 MLOAD DUP1 PUSH1 0x40 ADD PUSH1 0x40 MSTORE DUP1 PUSH0 PUSH20 0xFFFFFFFFFFFFFFFFFFFFFFFFFFFFFFFFFFFFFFFF AND DUP2 MSTORE PUSH1 0x20 ADD PUSH1 0x60 DUP2 MSTORE POP SWAP1 JUMP JUMPDEST PUSH0 PUSH1 0x40 MLOAD SWAP1 POP SWAP1 JUMP JUMPDEST PUSH0 DUP1 REVERT JUMPDEST PUSH0 DUP1 REVERT JUMPDEST PUSH0 PUSH32 0xFFFFFFFF00000000000000000000000000000000000000000000000000000000 DUP3 AND SWAP1 POP SWAP2 SWAP1 POP JUMP JUMPDEST PUSH2 0x29C9 DUP2 PUSH2 0x2995 JUMP JUMPDEST DUP2 EQ PUSH2 0x29D3 JUMPI PUSH0 DUP1 REVERT JUMPDEST POP JUMP JUMPDEST PUSH0 DUP2 CALLDATALOAD SWAP1 POP PUSH2 0x29E4 DUP2 PUSH2 0x29C0 JUMP JUMPDEST SWAP3 SWAP2 POP POP JUMP JUMPDEST PUSH0 PUSH1 0x20 DUP3 DUP5 SUB SLT ISZERO PUSH2 0x29FF JUMPI PUSH2 0x29FE PUSH2 0x298D JUMP JUMPDEST JUMPDEST PUSH0 PUSH2 0x2A0C DUP5 DUP3 DUP6 ADD PUSH2 0x29D6 JUMP JUMPDEST SWAP2 POP POP SWAP3 SWAP2 POP POP JUMP JUMPDEST PUSH0 DUP2 ISZERO ISZERO SWAP1 POP SWAP2 SWAP1 POP JUMP JUMPDEST PUSH2 0x2A29 DUP2 PUSH2 0x2A15 JUMP JUMPDEST DUP3 MSTORE POP POP JUMP JUMPDEST PUSH0 PUSH1 0x20 DUP3 ADD SWAP1 POP PUSH2 0x2A42 PUSH0 DUP4 ADD DUP5 PUSH2 0x2A20 JUMP JUMPDEST SWAP3 SWAP2 POP POP JUMP JUMPDEST PUSH0 DUP1 REVERT JUMPDEST PUSH0 DUP1 REVERT JUMPDEST PUSH0 DUP1 REVERT JUMPDEST PUSH0 DUP1 DUP4 PUSH1 0x1F DUP5 ADD SLT PUSH2 0x2A69 JUMPI PUSH2 0x2A68 PUSH2 0x2A48 JUMP JUMPDEST JUMPDEST DUP3 CALLDATALOAD SWAP1 POP PUSH8 0xFFFFFFFFFFFFFFFF DUP2 GT ISZERO PUSH2 0x2A86 JUMPI PUSH2 0x2A85 PUSH2 0x2A4C JUMP JUMPDEST JUMPDEST PUSH1 0x20 DUP4 ADD SWAP2 POP DUP4 PUSH1 0x20 DUP3 MUL DUP4 ADD GT ISZERO PUSH2 0x2AA2 JUMPI PUSH2 0x2AA1 PUSH2 0x2A50 JUMP JUMPDEST JUMPDEST SWAP3 POP SWAP3 SWAP1 POP JUMP JUMPDEST PUSH0 PUSH20 0xFFFFFFFFFFFFFFFFFFFFFFFFFFFFFFFFFFFFFFFF DUP3 AND SWAP1 POP SWAP2 SWAP1 POP JUMP JUMPDEST PUSH0 PUSH2 0x2AD2 DUP3 PUSH2 0x2AA9 JUMP JUMPDEST SWAP1 POP SWAP2 SWAP1 POP JUMP JUMPDEST PUSH2 0x2AE2 DUP2 PUSH2 0x2AC8 JUMP JUMPDEST DUP2 EQ PUSH2 0x2AEC JUMPI PUSH0 DUP1 REVERT JUMPDEST POP JUMP JUMPDEST PUSH0 DUP2 CALLDATALOAD SWAP1 POP PUSH2 0x2AFD DUP2 PUSH2 0x2AD9 JUMP JUMPDEST SWAP3 SWAP2 POP POP JUMP JUMPDEST PUSH0 DUP1 DUP4 PUSH1 0x1F DUP5 ADD SLT PUSH2 0x2B18 JUMPI PUSH2 0x2B17 PUSH2 0x2A48 JUMP JUMPDEST JUMPDEST DUP3 CALLDATALOAD SWAP1 POP PUSH8 0xFFFFFFFFFFFFFFFF DUP2 GT ISZERO PUSH2 0x2B35 JUMPI PUSH2 0x2B34 PUSH2 0x2A4C JUMP JUMPDEST JUMPDEST PUSH1 0x20 DUP4 ADD SWAP2 POP DUP4 PUSH1 0x1 DUP3 MUL DUP4 ADD GT ISZERO PUSH2 0x2B51 JUMPI PUSH2 0x2B50 PUSH2 0x2A50 JUMP JUMPDEST JUMPDEST SWAP3 POP SWAP3 SWAP1 POP JUMP JUMPDEST PUSH0 DUP1 PUSH0 DUP1 PUSH0 PUSH1 0x60 DUP7 DUP9 SUB SLT ISZERO PUSH2 0x2B71 JUMPI PUSH2 0x2B70 PUSH2 0x298D JUMP JUMPDEST JUMPDEST PUSH0 DUP7 ADD CALLDATALOAD PUSH8 0xFFFFFFFFFFFFFFFF DUP2 GT ISZERO PUSH2 0x2B8E JUMPI PUSH2 0x2B8D PUSH2 0x2991 JUMP JUMPDEST JUMPDEST PUSH2 0x2B9A DUP9 DUP3 DUP10 ADD PUSH2 0x2A54 JUMP JUMPDEST SWAP6 POP SWAP6 POP POP PUSH1 0x20 PUSH2 0x2BAD DUP9 DUP3 DUP10 ADD PUSH2 0x2AEF JUMP JUMPDEST SWAP4 POP POP PUSH1 0x40 DUP7 ADD CALLDATALOAD PUSH8 0xFFFFFFFFFFFFFFFF DUP2 GT ISZERO PUSH2 0x2BCE JUMPI PUSH2 0x2BCD PUSH2 0x2991 JUMP JUMPDEST JUMPDEST PUSH2 0x2BDA DUP9 DUP3 DUP10 ADD PUSH2 0x2B03 JUMP JUMPDEST SWAP3 POP SWAP3 POP POP SWAP3 SWAP6 POP SWAP3 SWAP6 SWAP1 SWAP4 POP JUMP JUMPDEST PUSH0 PUSH1 0x20 DUP3 DUP5 SUB SLT ISZERO PUSH2 0x2BFE JUMPI PUSH2 0x2BFD PUSH2 0x298D JUMP JUMPDEST JUMPDEST PUSH0 PUSH2 0x2C0B DUP5 DUP3 DUP6 ADD PUSH2 0x2AEF JUMP JUMPDEST SWAP2 POP POP SWAP3 SWAP2 POP POP JUMP JUMPDEST PUSH2 0x2C1D DUP2 PUSH2 0x2AC8 JUMP JUMPDEST DUP3 MSTORE POP POP JUMP JUMPDEST PUSH0 PUSH1 0x20 DUP3 ADD SWAP1 POP PUSH2 0x2C36 PUSH0 DUP4 ADD DUP5 PUSH2 0x2C14 JUMP JUMPDEST SWAP3 SWAP2 POP POP JUMP JUMPDEST PUSH0 DUP2 MLOAD SWAP1 POP SWAP2 SWAP1 POP JUMP JUMPDEST PUSH0 DUP3 DUP3 MSTORE PUSH1 0x20 DUP3 ADD SWAP1 POP SWAP3 SWAP2 POP POP JUMP JUMPDEST PUSH0 DUP2 SWAP1 POP PUSH1 0x20 DUP3 ADD SWAP1 POP SWAP2 SWAP1 POP JUMP JUMPDEST PUSH2 0x2C6E DUP2 PUSH2 0x2AC8 JUMP JUMPDEST DUP3 MSTORE POP POP JUMP JUMPDEST PUSH0 PUSH2 0x2C7F DUP4 DUP4 PUSH2 0x2C65 JUMP JUMPDEST PUSH1 0x20 DUP4 ADD SWAP1 POP SWAP3 SWAP2 POP POP JUMP JUMPDEST PUSH0 PUSH1 0x20 DUP3 ADD SWAP1 POP SWAP2 SWAP1 POP JUMP JUMPDEST PUSH0 PUSH2 0x2CA1 DUP3 PUSH2 0x2C3C JUMP JUMPDEST PUSH2 0x2CAB DUP2 DUP6 PUSH2 0x2C46 JUMP JUMPDEST SWAP4 POP PUSH2 0x2CB6 DUP4 PUSH2 0x2C56 JUMP JUMPDEST DUP1 PUSH0 JUMPDEST DUP4 DUP2 LT ISZERO PUSH2 0x2CE6 JUMPI DUP2 MLOAD PUSH2 0x2CCD DUP9 DUP3 PUSH2 0x2C74 JUMP JUMPDEST SWAP8 POP PUSH2 0x2CD8 DUP4 PUSH2 0x2C8B JUMP JUMPDEST SWAP3 POP POP PUSH1 0x1 DUP2 ADD SWAP1 POP PUSH2 0x2CB9 JUMP JUMPDEST POP DUP6 SWAP4 POP POP POP POP SWAP3 SWAP2 POP POP JUMP JUMPDEST PUSH0 PUSH1 0x20 DUP3 ADD SWAP1 POP DUP2 DUP2 SUB PUSH0 DUP4 ADD MSTORE PUSH2 0x2D0B DUP2 DUP5 PUSH2 0x2C97 JUMP JUMPDEST SWAP1 POP SWAP3 SWAP2 POP POP JUMP JUMPDEST PUSH0 PUSH1 0x1F NOT PUSH1 0x1F DUP4 ADD AND SWAP1 POP SWAP2 SWAP1 POP JUMP JUMPDEST PUSH32 0x4E487B7100000000000000000000000000000000000000000000000000000000 PUSH0 MSTORE PUSH1 0x41 PUSH1 0x4 MSTORE PUSH1 0x24 PUSH0 REVERT JUMPDEST PUSH2 0x2D59 DUP3 PUSH2 0x2D13 JUMP JUMPDEST DUP2 ADD DUP2 DUP2 LT PUSH8 0xFFFFFFFFFFFFFFFF DUP3 GT OR ISZERO PUSH2 0x2D78 JUMPI PUSH2 0x2D77 PUSH2 0x2D23 JUMP JUMPDEST JUMPDEST DUP1 PUSH1 0x40 MSTORE POP POP POP JUMP JUMPDEST PUSH0 PUSH2 0x2D8A PUSH2 0x2984 JUMP JUMPDEST SWAP1 POP PUSH2 0x2D96 DUP3 DUP3 PUSH2 0x2D50 JUMP JUMPDEST SWAP2 SWAP1 POP JUMP JUMPDEST PUSH0 PUSH8 0xFFFFFFFFFFFFFFFF DUP3 GT ISZERO PUSH2 0x2DB5 JUMPI PUSH2 0x2DB4 PUSH2 0x2D23 JUMP JUMPDEST JUMPDEST PUSH1 0x20 DUP3 MUL SWAP1 POP PUSH1 0x20 DUP2 ADD SWAP1 POP SWAP2 SWAP1 POP JUMP JUMPDEST PUSH0 PUSH2 0x2DD8 PUSH2 0x2DD3 DUP5 PUSH2 0x2D9B JUMP JUMPDEST PUSH2 0x2D81 JUMP JUMPDEST SWAP1 POP DUP1 DUP4 DUP3 MSTORE PUSH1 0x20 DUP3 ADD SWAP1 POP PUSH1 0x20 DUP5 MUL DUP4 ADD DUP6 DUP2 GT ISZERO PUSH2 0x2DFB JUMPI PUSH2 0x2DFA PUSH2 0x2A50 JUMP JUMPDEST JUMPDEST DUP4 JUMPDEST DUP2 DUP2 LT ISZERO PUSH2 0x2E24 JUMPI DUP1 PUSH2 0x2E10 DUP9 DUP3 PUSH2 0x29D6 JUMP JUMPDEST DUP5 MSTORE PUSH1 0x20 DUP5 ADD SWAP4 POP POP PUSH1 0x20 DUP2 ADD SWAP1 POP PUSH2 0x2DFD JUMP JUMPDEST POP POP POP SWAP4 SWAP3 POP POP POP JUMP JUMPDEST PUSH0 DUP3 PUSH1 0x1F DUP4 ADD SLT PUSH2 0x2E42 JUMPI PUSH2 0x2E41 PUSH2 0x2A48 JUMP JUMPDEST JUMPDEST DUP2 CALLDATALOAD PUSH2 0x2E52 DUP5 DUP3 PUSH1 0x20 DUP7 ADD PUSH2 0x2DC6 JUMP JUMPDEST SWAP2 POP POP SWAP3 SWAP2 POP POP JUMP JUMPDEST PUSH0 DUP1 PUSH1 0x40 DUP4 DUP6 SUB SLT ISZERO PUSH2 0x2E71 JUMPI PUSH2 0x2E70 PUSH2 0x298D JUMP JUMPDEST JUMPDEST PUSH0 PUSH2 0x2E7E DUP6 DUP3 DUP7 ADD PUSH2 0x2AEF JUMP JUMPDEST SWAP3 POP POP PUSH1 0x20 DUP4 ADD CALLDATALOAD PUSH8 0xFFFFFFFFFFFFFFFF DUP2 GT ISZERO PUSH2 0x2E9F JUMPI PUSH2 0x2E9E PUSH2 0x2991 JUMP JUMPDEST JUMPDEST PUSH2 0x2EAB DUP6 DUP3 DUP7 ADD PUSH2 0x2E2E JUMP JUMPDEST SWAP2 POP POP SWAP3 POP SWAP3 SWAP1 POP JUMP JUMPDEST PUSH0 DUP2 MLOAD SWAP1 POP SWAP2 SWAP1 POP JUMP JUMPDEST PUSH0 DUP3 DUP3 MSTORE PUSH1 0x20 DUP3 ADD SWAP1 POP SWAP3 SWAP2 POP POP JUMP JUMPDEST PUSH0 DUP2 SWAP1 POP PUSH1 0x20 DUP3 ADD SWAP1 POP SWAP2 SWAP1 POP JUMP JUMPDEST PUSH0 DUP2 MLOAD SWAP1 POP SWAP2 SWAP1 POP JUMP JUMPDEST PUSH0 DUP3 DUP3 MSTORE PUSH1 0x20 DUP3 ADD SWAP1 POP SWAP3 SWAP2 POP POP JUMP JUMPDEST PUSH0 DUP2 SWAP1 POP PUSH1 0x20 DUP3 ADD SWAP1 POP SWAP2 SWAP1 POP JUMP JUMPDEST PUSH2 0x2F10 DUP2 PUSH2 0x2995 JUMP JUMPDEST DUP3 MSTORE POP POP JUMP JUMPDEST PUSH0 PUSH2 0x2F21 DUP4 DUP4 PUSH2 0x2F07 JUMP JUMPDEST PUSH1 0x20 DUP4 ADD SWAP1 POP SWAP3 SWAP2 POP POP JUMP JUMPDEST PUSH0 PUSH1 0x20 DUP3 ADD SWAP1 POP SWAP2 SWAP1 POP JUMP JUMPDEST PUSH0 PUSH2 0x2F43 DUP3 PUSH2 0x2EDE JUMP JUMPDEST PUSH2 0x2F4D DUP2 DUP6 PUSH2 0x2EE8 JUMP JUMPDEST SWAP4 POP PUSH2 0x2F58 DUP4 PUSH2 0x2EF8 JUMP JUMPDEST DUP1 PUSH0 JUMPDEST DUP4 DUP2 LT ISZERO PUSH2 0x2F88 JUMPI DUP2 MLOAD PUSH2 0x2F6F DUP9 DUP3 PUSH2 0x2F16 JUMP JUMPDEST SWAP8 POP PUSH2 0x2F7A DUP4 PUSH2 0x2F2D JUMP JUMPDEST SWAP3 POP POP PUSH1 0x1 DUP2 ADD SWAP1 POP PUSH2 0x2F5B JUMP JUMPDEST POP DUP6 SWAP4 POP POP POP POP SWAP3 SWAP2 POP POP JUMP JUMPDEST PUSH0 PUSH1 0x40 DUP4 ADD PUSH0 DUP4 ADD MLOAD PUSH2 0x2FAA PUSH0 DUP7 ADD DUP3 PUSH2 0x2C65 JUMP JUMPDEST POP PUSH1 0x20 DUP4 ADD MLOAD DUP5 DUP3 SUB PUSH1 0x20 DUP7 ADD MSTORE PUSH2 0x2FC2 DUP3 DUP3 PUSH2 0x2F39 JUMP JUMPDEST SWAP2 POP POP DUP1 SWAP2 POP POP SWAP3 SWAP2 POP POP JUMP JUMPDEST PUSH0 PUSH2 0x2FDA DUP4 DUP4 PUSH2 0x2F95 JUMP JUMPDEST SWAP1 POP SWAP3 SWAP2 POP POP JUMP JUMPDEST PUSH0 PUSH1 0x20 DUP3 ADD SWAP1 POP SWAP2 SWAP1 POP JUMP JUMPDEST PUSH0 PUSH2 0x2FF8 DUP3 PUSH2 0x2EB5 JUMP JUMPDEST PUSH2 0x3002 DUP2 DUP6 PUSH2 0x2EBF JUMP JUMPDEST SWAP4 POP DUP4 PUSH1 0x20 DUP3 MUL DUP6 ADD PUSH2 0x3014 DUP6 PUSH2 0x2ECF JUMP JUMPDEST DUP1 PUSH0 JUMPDEST DUP6 DUP2 LT ISZERO PUSH2 0x304F JUMPI DUP5 DUP5 SUB DUP10 MSTORE DUP2 MLOAD PUSH2 0x3030 DUP6 DUP3 PUSH2 0x2FCF JUMP JUMPDEST SWAP5 POP PUSH2 0x303B DUP4 PUSH2 0x2FE2 JUMP JUMPDEST SWAP3 POP PUSH1 0x20 DUP11 ADD SWAP10 POP POP PUSH1 0x1 DUP2 ADD SWAP1 POP PUSH2 0x3017 JUMP JUMPDEST POP DUP3 SWAP8 POP DUP8 SWAP6 POP POP POP POP POP POP SWAP3 SWAP2 POP POP JUMP JUMPDEST PUSH0 PUSH1 0x20 DUP3 ADD SWAP1 POP DUP2 DUP2 SUB PUSH0 DUP4 ADD MSTORE PUSH2 0x3079 DUP2 DUP5 PUSH2 0x2FEE JUMP JUMPDEST SWAP1 POP SWAP3 SWAP2 POP POP JUMP JUMPDEST PUSH0 DUP3 DUP3 MSTORE PUSH1 0x20 DUP3 ADD SWAP1 POP SWAP3 SWAP2 POP POP JUMP JUMPDEST PUSH0 PUSH2 0x309B DUP3 PUSH2 0x2EDE JUMP JUMPDEST PUSH2 0x30A5 DUP2 DUP6 PUSH2 0x3081 JUMP JUMPDEST SWAP4 POP PUSH2 0x30B0 DUP4 PUSH2 0x2EF8 JUMP JUMPDEST DUP1 PUSH0 JUMPDEST DUP4 DUP2 LT ISZERO PUSH2 0x30E0 JUMPI DUP2 MLOAD PUSH2 0x30C7 DUP9 DUP3 PUSH2 0x2F16 JUMP JUMPDEST SWAP8 POP PUSH2 0x30D2 DUP4 PUSH2 0x2F2D JUMP JUMPDEST SWAP3 POP POP PUSH1 0x1 DUP2 ADD SWAP1 POP PUSH2 0x30B3 JUMP JUMPDEST POP DUP6 SWAP4 POP POP POP POP SWAP3 SWAP2 POP POP JUMP JUMPDEST PUSH0 PUSH1 0x20 DUP3 ADD SWAP1 POP DUP2 DUP2 SUB PUSH0 DUP4 ADD MSTORE PUSH2 0x3105 DUP2 DUP5 PUSH2 0x3091 JUMP JUMPDEST SWAP1 POP SWAP3 SWAP2 POP POP JUMP JUMPDEST PUSH0 PUSH8 0xFFFFFFFFFFFFFFFF DUP3 GT ISZERO PUSH2 0x3127 JUMPI PUSH2 0x3126 PUSH2 0x2D23 JUMP JUMPDEST JUMPDEST PUSH1 0x20 DUP3 MUL SWAP1 POP PUSH1 0x20 DUP2 ADD SWAP1 POP SWAP2 SWAP1 POP JUMP JUMPDEST PUSH0 DUP1 REVERT JUMPDEST PUSH0 DUP1 REVERT JUMPDEST PUSH1 0x3 DUP2 LT PUSH2 0x314C JUMPI PUSH0 DUP1 REVERT JUMPDEST POP JUMP JUMPDEST PUSH0 DUP2 CALLDATALOAD SWAP1 POP PUSH2 0x315D DUP2 PUSH2 0x3140 JUMP JUMPDEST SWAP3 SWAP2 POP POP JUMP JUMPDEST PUSH0 PUSH1 0x60 DUP3 DUP5 SUB SLT ISZERO PUSH2 0x3178 JUMPI PUSH2 0x3177 PUSH2 0x3138 JUMP JUMPDEST JUMPDEST PUSH2 0x3182 PUSH1 0x60 PUSH2 0x2D81 JUMP JUMPDEST SWAP1 POP PUSH0 PUSH2 0x3191 DUP5 DUP3 DUP6 ADD PUSH2 0x2AEF JUMP JUMPDEST PUSH0 DUP4 ADD MSTORE POP PUSH1 0x20 PUSH2 0x31A4 DUP5 DUP3 DUP6 ADD PUSH2 0x314F JUMP JUMPDEST PUSH1 0x20 DUP4 ADD MSTORE POP PUSH1 0x40 DUP3 ADD CALLDATALOAD PUSH8 0xFFFFFFFFFFFFFFFF DUP2 GT ISZERO PUSH2 0x31C8 JUMPI PUSH2 0x31C7 PUSH2 0x313C JUMP JUMPDEST JUMPDEST PUSH2 0x31D4 DUP5 DUP3 DUP6 ADD PUSH2 0x2E2E JUMP JUMPDEST PUSH1 0x40 DUP4 ADD MSTORE POP SWAP3 SWAP2 POP POP JUMP JUMPDEST PUSH0 PUSH2 0x31F2 PUSH2 0x31ED DUP5 PUSH2 0x310D JUMP JUMPDEST PUSH2 0x2D81 JUMP JUMPDEST SWAP1 POP DUP1 DUP4 DUP3 MSTORE PUSH1 0x20 DUP3 ADD SWAP1 POP PUSH1 0x20 DUP5 MUL DUP4 ADD DUP6 DUP2 GT ISZERO PUSH2 0x3215 JUMPI PUSH2 0x3214 PUSH2 0x2A50 JUMP JUMPDEST JUMPDEST DUP4 JUMPDEST DUP2 DUP2 LT ISZERO PUSH2 0x325C JUMPI DUP1 CALLDATALOAD PUSH8 0xFFFFFFFFFFFFFFFF DUP2 GT ISZERO PUSH2 0x323A JUMPI PUSH2 0x3239 PUSH2 0x2A48 JUMP JUMPDEST JUMPDEST DUP1 DUP7 ADD PUSH2 0x3247 DUP10 DUP3 PUSH2 0x3163 JUMP JUMPDEST DUP6 MSTORE PUSH1 0x20 DUP6 ADD SWAP5 POP POP POP PUSH1 0x20 DUP2 ADD SWAP1 POP PUSH2 0x3217 JUMP JUMPDEST POP POP POP SWAP4 SWAP3 POP POP POP JUMP JUMPDEST PUSH0 PUSH2 0x3272 CALLDATASIZE DUP5 DUP5 PUSH2 0x31E0 JUMP JUMPDEST SWAP1 POP SWAP3 SWAP2 POP POP JUMP JUMPDEST PUSH0 DUP2 MLOAD SWAP1 POP PUSH2 0x3288 DUP2 PUSH2 0x29C0 JUMP JUMPDEST SWAP3 SWAP2 POP POP JUMP JUMPDEST PUSH0 PUSH2 0x32A0 PUSH2 0x329B DUP5 PUSH2 0x2D9B JUMP JUMPDEST PUSH2 0x2D81 JUMP JUMPDEST SWAP1 POP DUP1 DUP4 DUP3 MSTORE PUSH1 0x20 DUP3 ADD SWAP1 POP PUSH1 0x20 DUP5 MUL DUP4 ADD DUP6 DUP2 GT ISZERO PUSH2 0x32C3 JUMPI PUSH2 0x32C2 PUSH2 0x2A50 JUMP JUMPDEST JUMPDEST DUP4 JUMPDEST DUP2 DUP2 LT ISZERO PUSH2 0x32EC JUMPI DUP1 PUSH2 0x32D8 DUP9 DUP3 PUSH2 0x327A JUMP JUMPDEST DUP5 MSTORE PUSH1 0x20 DUP5 ADD SWAP4 POP POP PUSH1 0x20 DUP2 ADD SWAP1 POP PUSH2 0x32C5 JUMP JUMPDEST POP POP POP SWAP4 SWAP3 POP POP POP JUMP JUMPDEST PUSH0 DUP3 PUSH1 0x1F DUP4 ADD SLT PUSH2 0x330A JUMPI PUSH2 0x3309 PUSH2 0x2A48 JUMP JUMPDEST JUMPDEST DUP2 MLOAD PUSH2 0x331A DUP5 DUP3 PUSH1 0x20 DUP7 ADD PUSH2 0x328E JUMP JUMPDEST SWAP2 POP POP SWAP3 SWAP2 POP POP JUMP JUMPDEST PUSH0 PUSH1 0x20 DUP3 DUP5 SUB SLT ISZERO PUSH2 0x3338 JUMPI PUSH2 0x3337 PUSH2 0x298D JUMP JUMPDEST JUMPDEST PUSH0 DUP3 ADD MLOAD PUSH8 0xFFFFFFFFFFFFFFFF DUP2 GT ISZERO PUSH2 0x3355 JUMPI PUSH2 0x3354 PUSH2 0x2991 JUMP JUMPDEST JUMPDEST PUSH2 0x3361 DUP5 DUP3 DUP6 ADD PUSH2 0x32F6 JUMP JUMPDEST SWAP2 POP POP SWAP3 SWAP2 POP POP JUMP JUMPDEST PUSH32 0x4E487B7100000000000000000000000000000000000000000000000000000000 PUSH0 MSTORE PUSH1 0x21 PUSH1 0x4 MSTORE PUSH1 0x24 PUSH0 REVERT JUMPDEST PUSH32 0x4E487B7100000000000000000000000000000000000000000000000000000000 PUSH0 MSTORE PUSH1 0x32 PUSH1 0x4 MSTORE PUSH1 0x24 PUSH0 REVERT JUMPDEST PUSH0 DUP2 MLOAD SWAP1 POP SWAP2 SWAP1 POP JUMP JUMPDEST PUSH0 DUP3 DUP3 MSTORE PUSH1 0x20 DUP3 ADD SWAP1 POP SWAP3 SWAP2 POP POP JUMP JUMPDEST PUSH0 DUP2 SWAP1 POP PUSH1 0x20 DUP3 ADD SWAP1 POP SWAP2 SWAP1 POP JUMP JUMPDEST PUSH1 0x3 DUP2 LT PUSH2 0x33FE JUMPI PUSH2 0x33FD PUSH2 0x336A JUMP JUMPDEST JUMPDEST POP JUMP JUMPDEST PUSH0 DUP2 SWAP1 POP PUSH2 0x340E DUP3 PUSH2 0x33ED JUMP JUMPDEST SWAP2 SWAP1 POP JUMP JUMPDEST PUSH0 PUSH2 0x341D DUP3 PUSH2 0x3401 JUMP JUMPDEST SWAP1 POP SWAP2 SWAP1 POP JUMP JUMPDEST PUSH2 0x342D DUP2 PUSH2 0x3413 JUMP JUMPDEST DUP3 MSTORE POP POP JUMP JUMPDEST PUSH0 PUSH1 0x60 DUP4 ADD PUSH0 DUP4 ADD MLOAD PUSH2 0x3448 PUSH0 DUP7 ADD DUP3 PUSH2 0x2C65 JUMP JUMPDEST POP PUSH1 0x20 DUP4 ADD MLOAD PUSH2 0x345B PUSH1 0x20 DUP7 ADD DUP3 PUSH2 0x3424 JUMP JUMPDEST POP PUSH1 0x40 DUP4 ADD MLOAD DUP5 DUP3 SUB PUSH1 0x40 DUP7 ADD MSTORE PUSH2 0x3473 DUP3 DUP3 PUSH2 0x2F39 JUMP JUMPDEST SWAP2 POP POP DUP1 SWAP2 POP POP SWAP3 SWAP2 POP POP JUMP JUMPDEST PUSH0 PUSH2 0x348B DUP4 DUP4 PUSH2 0x3433 JUMP JUMPDEST SWAP1 POP SWAP3 SWAP2 POP POP JUMP JUMPDEST PUSH0 PUSH1 0x20 DUP3 ADD SWAP1 POP SWAP2 SWAP1 POP JUMP JUMPDEST PUSH0 PUSH2 0x34A9 DUP3 PUSH2 0x33C4 JUMP JUMPDEST PUSH2 0x34B3 DUP2 DUP6 PUSH2 0x33CE JUMP JUMPDEST SWAP4 POP DUP4 PUSH1 0x20 DUP3 MUL DUP6 ADD PUSH2 0x34C5 DUP6 PUSH2 0x33DE JUMP JUMPDEST DUP1 PUSH0 JUMPDEST DUP6 DUP2 LT ISZERO PUSH2 0x3500 JUMPI DUP5 DUP5 SUB DUP10 MSTORE DUP2 MLOAD PUSH2 0x34E1 DUP6 DUP3 PUSH2 0x3480 JUMP JUMPDEST SWAP5 POP PUSH2 0x34EC DUP4 PUSH2 0x3493 JUMP JUMPDEST SWAP3 POP PUSH1 0x20 DUP11 ADD SWAP10 POP POP PUSH1 0x1 DUP2 ADD SWAP1 POP PUSH2 0x34C8 JUMP JUMPDEST POP DUP3 SWAP8 POP DUP8 SWAP6 POP POP POP POP POP POP SWAP3 SWAP2 POP POP JUMP JUMPDEST PUSH0 DUP3 DUP3 MSTORE PUSH1 0x20 DUP3 ADD SWAP1 POP SWAP3 SWAP2 POP POP JUMP JUMPDEST POP JUMP JUMPDEST PUSH0 PUSH2 0x3530 PUSH0 DUP4 PUSH2 0x3512 JUMP JUMPDEST SWAP2 POP PUSH2 0x353B DUP3 PUSH2 0x3522 JUMP JUMPDEST PUSH0 DUP3 ADD SWAP1 POP SWAP2 SWAP1 POP JUMP JUMPDEST PUSH0 PUSH1 0x60 DUP3 ADD SWAP1 POP DUP2 DUP2 SUB PUSH0 DUP4 ADD MSTORE PUSH2 0x355D DUP2 DUP6 PUSH2 0x349F JUMP JUMPDEST SWAP1 POP PUSH2 0x356C PUSH1 0x20 DUP4 ADD DUP5 PUSH2 0x2C14 JUMP JUMPDEST DUP2 DUP2 SUB PUSH1 0x40 DUP4 ADD MSTORE PUSH2 0x357D DUP2 PUSH2 0x3525 JUMP JUMPDEST SWAP1 POP SWAP4 SWAP3 POP POP POP JUMP JUMPDEST PUSH0 DUP2 MLOAD SWAP1 POP SWAP2 SWAP1 POP JUMP JUMPDEST PUSH0 JUMPDEST DUP4 DUP2 LT ISZERO PUSH2 0x35AD JUMPI DUP1 DUP3 ADD MLOAD DUP2 DUP5 ADD MSTORE PUSH1 0x20 DUP2 ADD SWAP1 POP PUSH2 0x3592 JUMP JUMPDEST PUSH0 DUP5 DUP5 ADD MSTORE POP POP POP POP JUMP JUMPDEST PUSH0 PUSH2 0x35C2 DUP3 PUSH2 0x3586 JUMP JUMPDEST PUSH2 0x35CC DUP2 DUP6 PUSH2 0x3512 JUMP JUMPDEST SWAP4 POP PUSH2 0x35DC DUP2 DUP6 PUSH1 0x20 DUP7 ADD PUSH2 0x3590 JUMP JUMPDEST PUSH2 0x35E5 DUP2 PUSH2 0x2D13 JUMP JUMPDEST DUP5 ADD SWAP2 POP POP SWAP3 SWAP2 POP POP JUMP JUMPDEST PUSH0 PUSH1 0x60 DUP3 ADD SWAP1 POP DUP2 DUP2 SUB PUSH0 DUP4 ADD MSTORE PUSH2 0x3608 DUP2 DUP7 PUSH2 0x349F JUMP JUMPDEST SWAP1 POP PUSH2 0x3617 PUSH1 0x20 DUP4 ADD DUP6 PUSH2 0x2C14 JUMP JUMPDEST DUP2 DUP2 SUB PUSH1 0x40 DUP4 ADD MSTORE PUSH2 0x3629 DUP2 DUP5 PUSH2 0x35B8 JUMP JUMPDEST SWAP1 POP SWAP5 SWAP4 POP POP POP POP JUMP JUMPDEST PUSH32 0x4E487B7100000000000000000000000000000000000000000000000000000000 PUSH0 MSTORE PUSH1 0x11 PUSH1 0x4 MSTORE PUSH1 0x24 PUSH0 REVERT JUMPDEST PUSH0 DUP2 SWAP1 POP SWAP2 SWAP1 POP JUMP JUMPDEST PUSH0 PUSH2 0x3673 DUP3 PUSH2 0x3660 JUMP JUMPDEST SWAP2 POP PUSH32 0xFFFFFFFFFFFFFFFFFFFFFFFFFFFFFFFFFFFFFFFFFFFFFFFFFFFFFFFFFFFFFFFF DUP3 SUB PUSH2 0x36A5 JUMPI PUSH2 0x36A4 PUSH2 0x3633 JUMP JUMPDEST JUMPDEST PUSH1 0x1 DUP3 ADD SWAP1 POP SWAP2 SWAP1 POP JUMP JUMPDEST PUSH0 PUSH1 0xFF DUP3 AND SWAP1 POP SWAP2 SWAP1 POP JUMP JUMPDEST PUSH0 PUSH2 0x36C6 DUP3 PUSH2 0x36B0 JUMP JUMPDEST SWAP2 POP PUSH1 0xFF DUP3 SUB PUSH2 0x36D9 JUMPI PUSH2 0x36D8 PUSH2 0x3633 JUMP JUMPDEST JUMPDEST PUSH1 0x1 DUP3 ADD SWAP1 POP SWAP2 SWAP1 POP JUMP JUMPDEST PUSH0 DUP2 SWAP1 POP SWAP3 SWAP2 POP POP JUMP JUMPDEST PUSH0 PUSH2 0x36F8 DUP3 PUSH2 0x3586 JUMP JUMPDEST PUSH2 0x3702 DUP2 DUP6 PUSH2 0x36E4 JUMP JUMPDEST SWAP4 POP PUSH2 0x3712 DUP2 DUP6 PUSH1 0x20 DUP7 ADD PUSH2 0x3590 JUMP JUMPDEST DUP1 DUP5 ADD SWAP2 POP POP SWAP3 SWAP2 POP POP JUMP JUMPDEST PUSH0 PUSH2 0x3729 DUP3 DUP5 PUSH2 0x36EE JUMP JUMPDEST SWAP2 POP DUP2 SWAP1 POP SWAP3 SWAP2 POP POP JUMP INVALID LOG2 PUSH5 0x6970667358 0x22 SLT KECCAK256 0x27 0xD1 0xC1 0xD0 0xF8 PUSH19 0xF094B33568622C8CB5D08A2BC8A3D599782FBF AND RETURNDATACOPY 0xAA 0xBC 0xBE PUSH21 0xD364736F6C63430008180033000000000000000000 "
		},
		"gasEstimates": {
			"creation": {
				"codeDepositCost": "2837200",
				"executionCost": "infinite",
				"totalCost": "infinite"
			},
			"external": {
				"": "infinite",
				"acceptOwnership()": "infinite",
				"addSelectors(address,bytes4[])": "infinite",
				"diamondCut((address,uint8,bytes4[])[],address,bytes)": "infinite",
				"facetAddress(bytes4)": "2985",
				"facetAddresses()": "infinite",
				"facetFunctionSelectors(address)": "infinite",
				"facets()": "infinite",
				"getFallbackAddress()": "2692",
				"install(address)": "infinite",
				"nomineeOwner()": "2646",
				"owner()": "2668",
				"removeSelectors(address,bytes4[])": "infinite",
				"setFallbackAddress(address)": "27141",
				"supportsInterface(bytes4)": "2952",
				"transferOwnership(address)": "27204",
				"uninstall(address)": "infinite"
			}
		},
		"methodIdentifiers": {
			"acceptOwnership()": "79ba5097",
			"addSelectors(address,bytes4[])": "6546f7fb",
			"diamondCut((address,uint8,bytes4[])[],address,bytes)": "1f931c1c",
			"facetAddress(bytes4)": "cdffacc6",
			"facetAddresses()": "52ef6b2c",
			"facetFunctionSelectors(address)": "adfca15e",
			"facets()": "7a0ed627",
			"getFallbackAddress()": "2c408059",
			"install(address)": "2a1b8f9b",
			"nomineeOwner()": "8ab5150a",
			"owner()": "8da5cb5b",
			"removeSelectors(address,bytes4[])": "f4e2edc9",
			"setFallbackAddress(address)": "91423765",
			"supportsInterface(bytes4)": "01ffc9a7",
			"transferOwnership(address)": "f2fde38b",
			"uninstall(address)": "59bc2249"
		}
	},
	"abi": [
		{
			"inputs": [],
			"name": "DiamondWritable__InvalidInitializationParameters",
			"type": "error"
		},
		{
			"inputs": [],
			"name": "DiamondWritable__RemoveTargetNotZeroAddress",
			"type": "error"
		},
		{
			"inputs": [],
			"name": "DiamondWritable__ReplaceTargetIsIdentical",
			"type": "error"
		},
		{
			"inputs": [],
			"name": "DiamondWritable__SelectorAlreadyAdded",
			"type": "error"
		},
		{
			"inputs": [],
			"name": "DiamondWritable__SelectorIsImmutable",
			"type": "error"
		},
		{
			"inputs": [],
			"name": "DiamondWritable__SelectorNotFound",
			"type": "error"
		},
		{
			"inputs": [],
			"name": "DiamondWritable__SelectorNotSpecified",
			"type": "error"
		},
		{
			"inputs": [],
			"name": "DiamondWritable__TargetHasNoCode",
			"type": "error"
		},
		{
			"inputs": [],
			"name": "ERC165Base__InvalidInterfaceId",
			"type": "error"
		},
		{
			"inputs": [],
			"name": "Ownable__NotOwner",
			"type": "error"
		},
		{
			"inputs": [],
			"name": "Ownable__NotTransitiveOwner",
			"type": "error"
		},
		{
			"inputs": [],
			"name": "Proxy__ImplementationIsNotContract",
			"type": "error"
		},
		{
			"inputs": [],
			"name": "SafeOwnable__NotNomineeOwner",
			"type": "error"
		},
		{
			"anonymous": false,
			"inputs": [
				{
					"components": [
						{
							"internalType": "address",
							"name": "target",
							"type": "address"
						},
						{
							"internalType": "enum IERC2535DiamondCutInternal.FacetCutAction",
							"name": "action",
							"type": "uint8"
						},
						{
							"internalType": "bytes4[]",
							"name": "selectors",
							"type": "bytes4[]"
						}
					],
					"indexed": false,
					"internalType": "struct IERC2535DiamondCutInternal.FacetCut[]",
					"name": "facetCuts",
					"type": "tuple[]"
				},
				{
					"indexed": false,
					"internalType": "address",
					"name": "target",
					"type": "address"
				},
				{
					"indexed": false,
					"internalType": "bytes",
					"name": "data",
					"type": "bytes"
				}
			],
			"name": "DiamondCut",
			"type": "event"
		},
		{
			"anonymous": false,
			"inputs": [
				{
					"indexed": true,
					"internalType": "address",
					"name": "previousOwner",
					"type": "address"
				},
				{
					"indexed": true,
					"internalType": "address",
					"name": "newOwner",
					"type": "address"
				}
			],
			"name": "OwnershipTransferred",
			"type": "event"
		},
		{
			"stateMutability": "payable",
			"type": "fallback"
		},
		{
			"inputs": [],
			"name": "acceptOwnership",
			"outputs": [],
			"stateMutability": "nonpayable",
			"type": "function"
		},
		{
			"inputs": [
				{
					"internalType": "address",
					"name": "implementation",
					"type": "address"
				},
				{
					"internalType": "bytes4[]",
					"name": "selectors",
					"type": "bytes4[]"
				}
			],
			"name": "addSelectors",
			"outputs": [
				{
					"internalType": "bool",
					"name": "",
					"type": "bool"
				}
			],
			"stateMutability": "nonpayable",
			"type": "function"
		},
		{
			"inputs": [
				{
					"components": [
						{
							"internalType": "address",
							"name": "target",
							"type": "address"
						},
						{
							"internalType": "enum IERC2535DiamondCutInternal.FacetCutAction",
							"name": "action",
							"type": "uint8"
						},
						{
							"internalType": "bytes4[]",
							"name": "selectors",
							"type": "bytes4[]"
						}
					],
					"internalType": "struct IERC2535DiamondCutInternal.FacetCut[]",
					"name": "facetCuts",
					"type": "tuple[]"
				},
				{
					"internalType": "address",
					"name": "target",
					"type": "address"
				},
				{
					"internalType": "bytes",
					"name": "data",
					"type": "bytes"
				}
			],
			"name": "diamondCut",
			"outputs": [],
			"stateMutability": "nonpayable",
			"type": "function"
		},
		{
			"inputs": [
				{
					"internalType": "bytes4",
					"name": "selector",
					"type": "bytes4"
				}
			],
			"name": "facetAddress",
			"outputs": [
				{
					"internalType": "address",
					"name": "facet",
					"type": "address"
				}
			],
			"stateMutability": "view",
			"type": "function"
		},
		{
			"inputs": [],
			"name": "facetAddresses",
			"outputs": [
				{
					"internalType": "address[]",
					"name": "addresses",
					"type": "address[]"
				}
			],
			"stateMutability": "view",
			"type": "function"
		},
		{
			"inputs": [
				{
					"internalType": "address",
					"name": "facet",
					"type": "address"
				}
			],
			"name": "facetFunctionSelectors",
			"outputs": [
				{
					"internalType": "bytes4[]",
					"name": "selectors",
					"type": "bytes4[]"
				}
			],
			"stateMutability": "view",
			"type": "function"
		},
		{
			"inputs": [],
			"name": "facets",
			"outputs": [
				{
					"components": [
						{
							"internalType": "address",
							"name": "target",
							"type": "address"
						},
						{
							"internalType": "bytes4[]",
							"name": "selectors",
							"type": "bytes4[]"
						}
					],
					"internalType": "struct IERC2535DiamondLoupeInternal.Facet[]",
					"name": "diamondFacets",
					"type": "tuple[]"
				}
			],
			"stateMutability": "view",
			"type": "function"
		},
		{
			"inputs": [],
			"name": "getFallbackAddress",
			"outputs": [
				{
					"internalType": "address",
					"name": "fallbackAddress",
					"type": "address"
				}
			],
			"stateMutability": "view",
			"type": "function"
		},
		{
			"inputs": [
				{
					"internalType": "address",
					"name": "facet",
					"type": "address"
				}
			],
			"name": "install",
			"outputs": [
				{
					"internalType": "bool",
					"name": "",
					"type": "bool"
				}
			],
			"stateMutability": "nonpayable",
			"type": "function"
		},
		{
			"inputs": [],
			"name": "nomineeOwner",
			"outputs": [
				{
					"internalType": "address",
					"name": "",
					"type": "address"
				}
			],
			"stateMutability": "view",
			"type": "function"
		},
		{
			"inputs": [],
			"name": "owner",
			"outputs": [
				{
					"internalType": "address",
					"name": "",
					"type": "address"
				}
			],
			"stateMutability": "view",
			"type": "function"
		},
		{
			"inputs": [
				{
					"internalType": "address",
					"name": "implementation",
					"type": "address"
				},
				{
					"internalType": "bytes4[]",
					"name": "selectors",
					"type": "bytes4[]"
				}
			],
			"name": "removeSelectors",
			"outputs": [
				{
					"internalType": "bool",
					"name": "",
					"type": "bool"
				}
			],
			"stateMutability": "nonpayable",
			"type": "function"
		},
		{
			"inputs": [
				{
					"internalType": "address",
					"name": "fallbackAddress",
					"type": "address"
				}
			],
			"name": "setFallbackAddress",
			"outputs": [],
			"stateMutability": "nonpayable",
			"type": "function"
		},
		{
			"inputs": [
				{
					"internalType": "bytes4",
					"name": "interfaceId",
					"type": "bytes4"
				}
			],
			"name": "supportsInterface",
			"outputs": [
				{
					"internalType": "bool",
					"name": "",
					"type": "bool"
				}
			],
			"stateMutability": "view",
			"type": "function"
		},
		{
			"inputs": [
				{
					"internalType": "address",
					"name": "account",
					"type": "address"
				}
			],
			"name": "transferOwnership",
			"outputs": [],
			"stateMutability": "nonpayable",
			"type": "function"
		},
		{
			"inputs": [
				{
					"internalType": "address",
					"name": "facet",
					"type": "address"
				}
			],
			"name": "uninstall",
			"outputs": [
				{
					"internalType": "bool",
					"name": "",
					"type": "bool"
				}
			],
			"stateMutability": "nonpayable",
			"type": "function"
		},
		{
			"stateMutability": "payable",
			"type": "receive"
		}
	]
}