{
	"data": {
		"bytecode": {
			"linkReferences": {},
			"object": "608060405234801561001057600080fd5b5060405162001c0938038062001c09833981016040819052610031916100bc565b803361003c8161006c565b50600280546001600160a01b0319166001600160a01b03929092169190911790556100663361006c565b506100ec565b600080546001600160a01b038381166001600160a01b0319831681178455604051919092169283917f8be0079c531659141344cd1fd0a4f28419497f9722a3daafe3b4186f6b6457e09190a35050565b6000602082840312156100ce57600080fd5b81516001600160a01b03811681146100e557600080fd5b9392505050565b611b0d80620000fc6000396000f3fe608060405234801561001057600080fd5b506004361061012c5760003560e01c8063795208c1116100ad578063bd9f98e111610071578063bd9f98e11461023e578063c138d1a014610251578063dab7a46c14610264578063f2fde38b14610287578063f45d0bc61461029a57600080fd5b8063795208c1146101e35780637cf8d57f146101f65780638da5cb5b146102095780638df3072d1461021a578063b39c45931461022d57600080fd5b80632af7e2ea116100f45780632af7e2ea146101b057806333a39247146101b85780635a4f24c6146101cb578063715018a6146101d3578063775c300c146101db57600080fd5b8063010a1f811461013157806305917872146101465780630ddce3c1146101595780631d2d01b6146101745780632053aa531461019f575b600080fd5b61014461013f3660046112c5565b6102ab565b005b6101446101543660046112e0565b6102bf565b6101616102d0565b6040519081526020015b60405180910390f35b6101876101823660046112e0565b6102e1565b6040516001600160a01b03909116815260200161016b565b6007546001600160a01b0316610187565b600654610161565b6101446101c63660046112c5565b6102f4565b600554610161565b610144610305565b610187610319565b6101876101f13660046113a5565b61039f565b6101446102043660046112e0565b610c04565b6000546001600160a01b0316610187565b6101876102283660046112e0565b610c15565b6002546001600160a01b0316610187565b61014461024c3660046112c5565b610c45565b61014461025f3660046112c5565b610c56565b6102776102723660046112c5565b610c67565b604051901515815260200161016b565b6101446102953660046112c5565b610c74565b6008546001600160a01b0316610187565b6102b3610cea565b6102bc81610d44565b50565b6102c7610cea565b6102bc81610dfb565b60006102dc6003610e2e565b905090565b60006102ee600383610e38565b92915050565b6102fc610cea565b6102bc81610e4b565b61030d610cea565b6103176000610f02565b565b60405162461bcd60e51b815260206004820152604760248201527f4d756c746953696750726f706f73616c466163746f72793a206465707265636160448201527f746564207573652066756e6374696f6e206372656174654d756c7469536967506064820152661c9bdc1bdcd85b60ca1b608482015260009060a4015b60405180910390fd5b60006103a9610f52565b60016040516103b79061129c565b604051809103906000f0801580156103d3573d6000803e3d6000fd5b5081546001808201845560009384526020842090910180546001600160a01b0319166001600160a01b03939093169290921790915580546104149190611468565b9050600181815481106104295761042961147b565b6000918252602090912001546001600160a01b031663fdb165406104556002546001600160a01b031690565b6040516001600160e01b031960e084901b1681526001600160a01b039091166004820152602401600060405180830381600087803b15801561049657600080fd5b505af11580156104aa573d6000803e3d6000fd5b505050506000600182815481106104c3576104c361147b565b60009182526020822001546040805163204a7f0760e21b815290516001600160a01b0390921693508392638129fc1c9260048084019382900301818387803b15801561050e57600080fd5b505af1158015610522573d6000803e3d6000fd5b5083925060009150505b6105346102d0565b8110156105bf57816001600160a01b031663eb12d61e610553836102e1565b6040516001600160e01b031960e084901b1681526001600160a01b039091166004820152602401600060405180830381600087803b15801561059457600080fd5b505af11580156105a8573d6000803e3d6000fd5b5050505080806105b790611491565b91505061052c565b50604051624b9f2f60e41b81526001600160a01b038216906304b9f2f0906105eb908b906004016114f0565b600060405180830381600087803b15801561060557600080fd5b505af1158015610619573d6000803e3d6000fd5b5050604051631b45c3b960e11b81526001600160a01b038416925063368b87729150610649908a906004016114f0565b600060405180830381600087803b15801561066357600080fd5b505af1158015610677573d6000803e3d6000fd5b50506040516307ea2c0360e31b81523360048201526001600160a01b0384169250633f5160189150602401600060405180830381600087803b1580156106bc57600080fd5b505af11580156106d0573d6000803e3d6000fd5b505060405163776d1a0160e01b81526001600160a01b0389811660048301528416925063776d1a019150602401600060405180830381600087803b15801561071757600080fd5b505af115801561072b573d6000803e3d6000fd5b505060405163ab62f0e160e01b81526001600160a01b038416925063ab62f0e1915061075b9088906004016114f0565b600060405180830381600087803b15801561077557600080fd5b505af1158015610789573d6000803e3d6000fd5b505060405163c44bef7560e01b81524260048201526001600160a01b038416925063c44bef759150602401600060405180830381600087803b1580156107ce57600080fd5b505af11580156107e2573d6000803e3d6000fd5b50505050806001600160a01b031663f6be71d16107fe60065490565b6040518263ffffffff1660e01b815260040161081c91815260200190565b600060405180830381600087803b15801561083657600080fd5b505af115801561084a573d6000803e3d6000fd5b50505050806001600160a01b031663fc19e8ed61086660055490565b6040518263ffffffff1660e01b815260040161088491815260200190565b600060405180830381600087803b15801561089e57600080fd5b505af11580156108b2573d6000803e3d6000fd5b50505050806001600160a01b031663bd9f98e16108d76008546001600160a01b031690565b6040516001600160e01b031960e084901b1681526001600160a01b039091166004820152602401600060405180830381600087803b15801561091857600080fd5b505af115801561092c573d6000803e3d6000fd5b505060405163297da9e160e01b81523060048201526001600160a01b038416925063297da9e19150602401600060405180830381600087803b15801561097157600080fd5b505af1158015610985573d6000803e3d6000fd5b50505050806001600160a01b031663c138d1a06109aa6007546001600160a01b031690565b6040516001600160e01b031960e084901b1681526001600160a01b039091166004820152602401600060405180830381600087803b1580156109eb57600080fd5b505af11580156109ff573d6000803e3d6000fd5b505050506000610a176008546001600160a01b031690565b604051632d047ba560e21b815260206004820152601760248201527f4d554c54495f5349475f50524f504f53414c5f524f4c4500000000000000000060448201529091506001600160a01b03821690632f2ff15d90829063a657a47e90829063b411ee9490606401602060405180830381865afa158015610a9c573d6000803e3d6000fd5b505050506040513d601f19601f82011682018060405250810190610ac09190611503565b6040518263ffffffff1660e01b8152600401610ade91815260200190565b602060405180830381865afa158015610afb573d6000803e3d6000fd5b505050506040513d601f19601f82011682018060405250810190610b1f9190611503565b6040516001600160e01b031960e084901b16815260048101919091526001600160a01b0385166024820152604401600060405180830381600087803b158015610b6757600080fd5b505af1158015610b7b573d6000803e3d6000fd5b5050505060018481548110610b9257610b9261147b565b60009182526020822001546040516001600160a01b03909116917ff40fcec21964ffb566044d083b4073f29f7f7929110ea19e1b3ebe375d89055e91a260018481548110610be257610be261147b565b6000918252602090912001546001600160a01b03169998505050505050505050565b610c0c610cea565b6102bc81610fbc565b600060018281548110610c2a57610c2a61147b565b6000918252602090912001546001600160a01b031692915050565b610c4d610cea565b6102bc81611050565b610c5e610cea565b6102bc8161109a565b60006102ee6003836110e4565b610c7c610cea565b6001600160a01b038116610ce15760405162461bcd60e51b815260206004820152602660248201527f4f776e61626c653a206e6577206f776e657220697320746865207a65726f206160448201526564647265737360d01b6064820152608401610396565b6102bc81610f02565b6000546001600160a01b031633146103175760405162461bcd60e51b815260206004820181905260248201527f4f776e61626c653a2063616c6c6572206973206e6f7420746865206f776e65726044820152606401610396565b610d4f6003826110e4565b610db85760405162461bcd60e51b815260206004820152603460248201527f4d756c746953696750726f706f73616c466163746f72793a20215f7369676e6560448201527372732e636f6e7461696e73286163636f756e742960601b6064820152608401610396565b610dc3600382611106565b506040516001600160a01b038216907f1a74e3ea89bb33de6283f87dc55d9ae0db56275c5770a3cdaf50ff180e7fbf6690600090a250565b600681905560405181907f76c2d280863de185ccb1ec30b13eb12746da33b0416a08ba5fe551634657f31a90600090a250565b60006102ee825490565b6000610e44838361111b565b9392505050565b610e566003826110e4565b15610ebf5760405162461bcd60e51b815260206004820152603360248201527f4d756c746953696750726f706f73616c466163746f72793a205f7369676e6572604482015272732e636f6e7461696e73286163636f756e742960681b6064820152608401610396565b610eca600382611145565b506040516001600160a01b038216907ff4d5c03c7ad36a06446beae30a36751894df3a8621fa4f4244f1dd6227a9229090600090a250565b600080546001600160a01b038381166001600160a01b0319831681178455604051919092169283917f8be0079c531659141344cd1fd0a4f28419497f9722a3daafe3b4186f6b6457e09190a35050565b610f5b33610c67565b6103175760405162461bcd60e51b815260206004820152602c60248201527f4d756c746953696750726f706f73616c466163746f72793a206f6e6c7920646560448201526b3330bab63a1039b4b3b732b960a11b6064820152608401610396565b61271081111561101d5760405162461bcd60e51b815260206004820152602660248201527f4d756c746953696750726f706f73616c466163746f72793a206f7574206f6620604482015265626f756e647360d01b6064820152608401610396565b600581905560405181907f9df01f49d1ab71af4750440788ac45f22c4cf2e0ccd54aba51facf10466959ff90600090a250565b600880546001600160a01b0319166001600160a01b0383169081179091556040517fda041d56f89460d53852e1b9f9576dc62eb726bde1008706dd87cdfe647a697390600090a250565b600780546001600160a01b0319166001600160a01b0383169081179091556040517f35c343c1b11e5cc8ae3b77869ed9a3d1c4191286edcfa2ad41e689ab012eadc190600090a250565b6001600160a01b03811660009081526001830160205260408120541515610e44565b6000610e44836001600160a01b03841661115a565b60008260000182815481106111325761113261147b565b9060005260206000200154905092915050565b6000610e44836001600160a01b03841661124d565b6000818152600183016020526040812054801561124357600061117e600183611468565b855490915060009061119290600190611468565b90508181146111f75760008660000182815481106111b2576111b261147b565b90600052602060002001549050808760000184815481106111d5576111d561147b565b6000918252602080832090910192909255918252600188019052604090208390555b85548690806112085761120861151c565b6001900381819060005260206000200160009055905585600101600086815260200190815260200160002060009055600193505050506102ee565b60009150506102ee565b6000818152600183016020526040812054611294575081546001818101845560008481526020808220909301849055845484825282860190935260409020919091556102ee565b5060006102ee565b6105a58061153383390190565b80356001600160a01b03811681146112c057600080fd5b919050565b6000602082840312156112d757600080fd5b610e44826112a9565b6000602082840312156112f257600080fd5b5035919050565b634e487b7160e01b600052604160045260246000fd5b600067ffffffffffffffff8084111561132a5761132a6112f9565b604051601f8501601f19908116603f01168101908282118183101715611352576113526112f9565b8160405280935085815286868601111561136b57600080fd5b858560208301376000602087830101525050509392505050565b600082601f83011261139657600080fd5b610e448383356020850161130f565b600080600080608085870312156113bb57600080fd5b843567ffffffffffffffff808211156113d357600080fd5b6113df88838901611385565b955060208701359150808211156113f557600080fd5b61140188838901611385565b945061140f604088016112a9565b9350606087013591508082111561142557600080fd5b508501601f8101871361143757600080fd5b6114468782356020840161130f565b91505092959194509250565b634e487b7160e01b600052601160045260246000fd5b818103818111156102ee576102ee611452565b634e487b7160e01b600052603260045260246000fd5b6000600182016114a3576114a3611452565b5060010190565b6000815180845260005b818110156114d0576020818501810151868301820152016114b4565b506000602082860101526020601f19601f83011685010191505092915050565b602081526000610e4460208301846114aa565b60006020828403121561151557600080fd5b5051919050565b634e487b7160e01b600052603160045260246000fdfe608060405234801561001057600080fd5b50610585806100206000396000f3fe60806040526004361061007f5760003560e01c8063780e93681161004e578063780e936814610125578063985fcf9c14610145578063f43588961461015a578063fdb165401461016f5761008e565b80630717f3e6146100965780632145b31a146100c05780635c60da1b146100e3578063667d4359146101105761008e565b3661008e5761008c61018f565b005b61008c61018f565b3480156100a257600080fd5b506100ab6101a1565b60405190151581526020015b60405180910390f35b3480156100cc57600080fd5b506100d56101c8565b6040519081526020016100b7565b3480156100ef57600080fd5b506100f8610232565b6040516001600160a01b0390911681526020016100b7565b34801561011c57600080fd5b506100d5610241565b34801561013157600080fd5b506100f86101403660046104f0565b610284565b34801561015157600080fd5b506100d56102cc565b34801561016657600080fd5b506100d56102f0565b34801561017b57600080fd5b5061008c61018a366004610509565b610324565b61019f61019a610339565b610366565b565b6000600560006101af6101c8565b815260208101919091526040016000205460ff16919050565b60006040516020016102179060208082526023908201527f494e495449414c5f494d504c454d454e544154494f4e5f4841535f4245454e5f60408201526214d15560ea1b606082015260800190565b60405160208183030381529060405280519060200120905090565b600061023c610339565b905090565b60006040516020016102179060208082526017908201527f494d504c454d454e544154494f4e5f54494d454c494e45000000000000000000604082015260600190565b6000600b6000610292610241565b815260200190815260200160002082815481106102b1576102b1610539565b6000918252602090912001546001600160a01b031692915050565b6000600b60006102da610241565b8152602081019190915260400160002054919050565b6000604051602001610217906020808252600e908201526d24a6a82622a6a2a72a20aa24a7a760911b604082015260600190565b61032d8161038a565b61033681610423565b50565b6000600460006103476102f0565b81526020810191909152604001600020546001600160a01b0316919050565b3660008037600080366000845af43d6000803e808015610385573d6000f35b3d6000fd5b6103926101a1565b156103f35760405162461bcd60e51b815260206004820152602760248201527f426173653a20696e697469616c496d706c656d656e746174696f6e4861734265604482015266656e536574282960c81b606482015260840160405180910390fd5b6001600560006104016101c8565b81526020810191909152604001600020805460ff191691151591909117905550565b80600460006104306102f0565b815260200190815260200160002060006101000a8154816001600160a01b0302191690836001600160a01b0316021790555061046b816104a2565b6040516001600160a01b038216907fbc7cd75a20ee27fd9adebab32041f755214dbc6bffa90cc0225b39da2e5c2d3b90600090a250565b600b60006104ae610241565b8152602080820192909252604001600090812080546001810182559082529190200180546001600160a01b0319166001600160a01b0392909216919091179055565b60006020828403121561050257600080fd5b5035919050565b60006020828403121561051b57600080fd5b81356001600160a01b038116811461053257600080fd5b9392505050565b634e487b7160e01b600052603260045260246000fdfea264697066735822122020c0e22c0d4e563f887dd7270f15beaece1d6ebc6a0eecfeee8ffcd8b54559e064736f6c63430008130033a264697066735822122076de4143a2ba3f8f355838edd80014d8fb9a69c6d8523d64666ea4086657bc8f64736f6c63430008130033",
			"opcodes": "PUSH1 0x80 PUSH1 0x40 MSTORE CALLVALUE DUP1 ISZERO PUSH2 0x10 JUMPI PUSH1 0x0 DUP1 REVERT JUMPDEST POP PUSH1 0x40 MLOAD PUSH3 0x1C09 CODESIZE SUB DUP1 PUSH3 0x1C09 DUP4 CODECOPY DUP2 ADD PUSH1 0x40 DUP2 SWAP1 MSTORE PUSH2 0x31 SWAP2 PUSH2 0xBC JUMP JUMPDEST DUP1 CALLER PUSH2 0x3C DUP2 PUSH2 0x6C JUMP JUMPDEST POP PUSH1 0x2 DUP1 SLOAD PUSH1 0x1 PUSH1 0x1 PUSH1 0xA0 SHL SUB NOT AND PUSH1 0x1 PUSH1 0x1 PUSH1 0xA0 SHL SUB SWAP3 SWAP1 SWAP3 AND SWAP2 SWAP1 SWAP2 OR SWAP1 SSTORE PUSH2 0x66 CALLER PUSH2 0x6C JUMP JUMPDEST POP PUSH2 0xEC JUMP JUMPDEST PUSH1 0x0 DUP1 SLOAD PUSH1 0x1 PUSH1 0x1 PUSH1 0xA0 SHL SUB DUP4 DUP2 AND PUSH1 0x1 PUSH1 0x1 PUSH1 0xA0 SHL SUB NOT DUP4 AND DUP2 OR DUP5 SSTORE PUSH1 0x40 MLOAD SWAP2 SWAP1 SWAP3 AND SWAP3 DUP4 SWAP2 PUSH32 0x8BE0079C531659141344CD1FD0A4F28419497F9722A3DAAFE3B4186F6B6457E0 SWAP2 SWAP1 LOG3 POP POP JUMP JUMPDEST PUSH1 0x0 PUSH1 0x20 DUP3 DUP5 SUB SLT ISZERO PUSH2 0xCE JUMPI PUSH1 0x0 DUP1 REVERT JUMPDEST DUP2 MLOAD PUSH1 0x1 PUSH1 0x1 PUSH1 0xA0 SHL SUB DUP2 AND DUP2 EQ PUSH2 0xE5 JUMPI PUSH1 0x0 DUP1 REVERT JUMPDEST SWAP4 SWAP3 POP POP POP JUMP JUMPDEST PUSH2 0x1B0D DUP1 PUSH3 0xFC PUSH1 0x0 CODECOPY PUSH1 0x0 RETURN INVALID PUSH1 0x80 PUSH1 0x40 MSTORE CALLVALUE DUP1 ISZERO PUSH2 0x10 JUMPI PUSH1 0x0 DUP1 REVERT JUMPDEST POP PUSH1 0x4 CALLDATASIZE LT PUSH2 0x12C JUMPI PUSH1 0x0 CALLDATALOAD PUSH1 0xE0 SHR DUP1 PUSH4 0x795208C1 GT PUSH2 0xAD JUMPI DUP1 PUSH4 0xBD9F98E1 GT PUSH2 0x71 JUMPI DUP1 PUSH4 0xBD9F98E1 EQ PUSH2 0x23E JUMPI DUP1 PUSH4 0xC138D1A0 EQ PUSH2 0x251 JUMPI DUP1 PUSH4 0xDAB7A46C EQ PUSH2 0x264 JUMPI DUP1 PUSH4 0xF2FDE38B EQ PUSH2 0x287 JUMPI DUP1 PUSH4 0xF45D0BC6 EQ PUSH2 0x29A JUMPI PUSH1 0x0 DUP1 REVERT JUMPDEST DUP1 PUSH4 0x795208C1 EQ PUSH2 0x1E3 JUMPI DUP1 PUSH4 0x7CF8D57F EQ PUSH2 0x1F6 JUMPI DUP1 PUSH4 0x8DA5CB5B EQ PUSH2 0x209 JUMPI DUP1 PUSH4 0x8DF3072D EQ PUSH2 0x21A JUMPI DUP1 PUSH4 0xB39C4593 EQ PUSH2 0x22D JUMPI PUSH1 0x0 DUP1 REVERT JUMPDEST DUP1 PUSH4 0x2AF7E2EA GT PUSH2 0xF4 JUMPI DUP1 PUSH4 0x2AF7E2EA EQ PUSH2 0x1B0 JUMPI DUP1 PUSH4 0x33A39247 EQ PUSH2 0x1B8 JUMPI DUP1 PUSH4 0x5A4F24C6 EQ PUSH2 0x1CB JUMPI DUP1 PUSH4 0x715018A6 EQ PUSH2 0x1D3 JUMPI DUP1 PUSH4 0x775C300C EQ PUSH2 0x1DB JUMPI PUSH1 0x0 DUP1 REVERT JUMPDEST DUP1 PUSH4 0x10A1F81 EQ PUSH2 0x131 JUMPI DUP1 PUSH4 0x5917872 EQ PUSH2 0x146 JUMPI DUP1 PUSH4 0xDDCE3C1 EQ PUSH2 0x159 JUMPI DUP1 PUSH4 0x1D2D01B6 EQ PUSH2 0x174 JUMPI DUP1 PUSH4 0x2053AA53 EQ PUSH2 0x19F JUMPI JUMPDEST PUSH1 0x0 DUP1 REVERT JUMPDEST PUSH2 0x144 PUSH2 0x13F CALLDATASIZE PUSH1 0x4 PUSH2 0x12C5 JUMP JUMPDEST PUSH2 0x2AB JUMP JUMPDEST STOP JUMPDEST PUSH2 0x144 PUSH2 0x154 CALLDATASIZE PUSH1 0x4 PUSH2 0x12E0 JUMP JUMPDEST PUSH2 0x2BF JUMP JUMPDEST PUSH2 0x161 PUSH2 0x2D0 JUMP JUMPDEST PUSH1 0x40 MLOAD SWAP1 DUP2 MSTORE PUSH1 0x20 ADD JUMPDEST PUSH1 0x40 MLOAD DUP1 SWAP2 SUB SWAP1 RETURN JUMPDEST PUSH2 0x187 PUSH2 0x182 CALLDATASIZE PUSH1 0x4 PUSH2 0x12E0 JUMP JUMPDEST PUSH2 0x2E1 JUMP JUMPDEST PUSH1 0x40 MLOAD PUSH1 0x1 PUSH1 0x1 PUSH1 0xA0 SHL SUB SWAP1 SWAP2 AND DUP2 MSTORE PUSH1 0x20 ADD PUSH2 0x16B JUMP JUMPDEST PUSH1 0x7 SLOAD PUSH1 0x1 PUSH1 0x1 PUSH1 0xA0 SHL SUB AND PUSH2 0x187 JUMP JUMPDEST PUSH1 0x6 SLOAD PUSH2 0x161 JUMP JUMPDEST PUSH2 0x144 PUSH2 0x1C6 CALLDATASIZE PUSH1 0x4 PUSH2 0x12C5 JUMP JUMPDEST PUSH2 0x2F4 JUMP JUMPDEST PUSH1 0x5 SLOAD PUSH2 0x161 JUMP JUMPDEST PUSH2 0x144 PUSH2 0x305 JUMP JUMPDEST PUSH2 0x187 PUSH2 0x319 JUMP JUMPDEST PUSH2 0x187 PUSH2 0x1F1 CALLDATASIZE PUSH1 0x4 PUSH2 0x13A5 JUMP JUMPDEST PUSH2 0x39F JUMP JUMPDEST PUSH2 0x144 PUSH2 0x204 CALLDATASIZE PUSH1 0x4 PUSH2 0x12E0 JUMP JUMPDEST PUSH2 0xC04 JUMP JUMPDEST PUSH1 0x0 SLOAD PUSH1 0x1 PUSH1 0x1 PUSH1 0xA0 SHL SUB AND PUSH2 0x187 JUMP JUMPDEST PUSH2 0x187 PUSH2 0x228 CALLDATASIZE PUSH1 0x4 PUSH2 0x12E0 JUMP JUMPDEST PUSH2 0xC15 JUMP JUMPDEST PUSH1 0x2 SLOAD PUSH1 0x1 PUSH1 0x1 PUSH1 0xA0 SHL SUB AND PUSH2 0x187 JUMP JUMPDEST PUSH2 0x144 PUSH2 0x24C CALLDATASIZE PUSH1 0x4 PUSH2 0x12C5 JUMP JUMPDEST PUSH2 0xC45 JUMP JUMPDEST PUSH2 0x144 PUSH2 0x25F CALLDATASIZE PUSH1 0x4 PUSH2 0x12C5 JUMP JUMPDEST PUSH2 0xC56 JUMP JUMPDEST PUSH2 0x277 PUSH2 0x272 CALLDATASIZE PUSH1 0x4 PUSH2 0x12C5 JUMP JUMPDEST PUSH2 0xC67 JUMP JUMPDEST PUSH1 0x40 MLOAD SWAP1 ISZERO ISZERO DUP2 MSTORE PUSH1 0x20 ADD PUSH2 0x16B JUMP JUMPDEST PUSH2 0x144 PUSH2 0x295 CALLDATASIZE PUSH1 0x4 PUSH2 0x12C5 JUMP JUMPDEST PUSH2 0xC74 JUMP JUMPDEST PUSH1 0x8 SLOAD PUSH1 0x1 PUSH1 0x1 PUSH1 0xA0 SHL SUB AND PUSH2 0x187 JUMP JUMPDEST PUSH2 0x2B3 PUSH2 0xCEA JUMP JUMPDEST PUSH2 0x2BC DUP2 PUSH2 0xD44 JUMP JUMPDEST POP JUMP JUMPDEST PUSH2 0x2C7 PUSH2 0xCEA JUMP JUMPDEST PUSH2 0x2BC DUP2 PUSH2 0xDFB JUMP JUMPDEST PUSH1 0x0 PUSH2 0x2DC PUSH1 0x3 PUSH2 0xE2E JUMP JUMPDEST SWAP1 POP SWAP1 JUMP JUMPDEST PUSH1 0x0 PUSH2 0x2EE PUSH1 0x3 DUP4 PUSH2 0xE38 JUMP JUMPDEST SWAP3 SWAP2 POP POP JUMP JUMPDEST PUSH2 0x2FC PUSH2 0xCEA JUMP JUMPDEST PUSH2 0x2BC DUP2 PUSH2 0xE4B JUMP JUMPDEST PUSH2 0x30D PUSH2 0xCEA JUMP JUMPDEST PUSH2 0x317 PUSH1 0x0 PUSH2 0xF02 JUMP JUMPDEST JUMP JUMPDEST PUSH1 0x40 MLOAD PUSH3 0x461BCD PUSH1 0xE5 SHL DUP2 MSTORE PUSH1 0x20 PUSH1 0x4 DUP3 ADD MSTORE PUSH1 0x47 PUSH1 0x24 DUP3 ADD MSTORE PUSH32 0x4D756C746953696750726F706F73616C466163746F72793A2064657072656361 PUSH1 0x44 DUP3 ADD MSTORE PUSH32 0x746564207573652066756E6374696F6E206372656174654D756C746953696750 PUSH1 0x64 DUP3 ADD MSTORE PUSH7 0x1C9BDC1BDCD85B PUSH1 0xCA SHL PUSH1 0x84 DUP3 ADD MSTORE PUSH1 0x0 SWAP1 PUSH1 0xA4 ADD JUMPDEST PUSH1 0x40 MLOAD DUP1 SWAP2 SUB SWAP1 REVERT JUMPDEST PUSH1 0x0 PUSH2 0x3A9 PUSH2 0xF52 JUMP JUMPDEST PUSH1 0x1 PUSH1 0x40 MLOAD PUSH2 0x3B7 SWAP1 PUSH2 0x129C JUMP JUMPDEST PUSH1 0x40 MLOAD DUP1 SWAP2 SUB SWAP1 PUSH1 0x0 CREATE DUP1 ISZERO DUP1 ISZERO PUSH2 0x3D3 JUMPI RETURNDATASIZE PUSH1 0x0 DUP1 RETURNDATACOPY RETURNDATASIZE PUSH1 0x0 REVERT JUMPDEST POP DUP2 SLOAD PUSH1 0x1 DUP1 DUP3 ADD DUP5 SSTORE PUSH1 0x0 SWAP4 DUP5 MSTORE PUSH1 0x20 DUP5 KECCAK256 SWAP1 SWAP2 ADD DUP1 SLOAD PUSH1 0x1 PUSH1 0x1 PUSH1 0xA0 SHL SUB NOT AND PUSH1 0x1 PUSH1 0x1 PUSH1 0xA0 SHL SUB SWAP4 SWAP1 SWAP4 AND SWAP3 SWAP1 SWAP3 OR SWAP1 SWAP2 SSTORE DUP1 SLOAD PUSH2 0x414 SWAP2 SWAP1 PUSH2 0x1468 JUMP JUMPDEST SWAP1 POP PUSH1 0x1 DUP2 DUP2 SLOAD DUP2 LT PUSH2 0x429 JUMPI PUSH2 0x429 PUSH2 0x147B JUMP JUMPDEST PUSH1 0x0 SWAP2 DUP3 MSTORE PUSH1 0x20 SWAP1 SWAP2 KECCAK256 ADD SLOAD PUSH1 0x1 PUSH1 0x1 PUSH1 0xA0 SHL SUB AND PUSH4 0xFDB16540 PUSH2 0x455 PUSH1 0x2 SLOAD PUSH1 0x1 PUSH1 0x1 PUSH1 0xA0 SHL SUB AND SWAP1 JUMP JUMPDEST PUSH1 0x40 MLOAD PUSH1 0x1 PUSH1 0x1 PUSH1 0xE0 SHL SUB NOT PUSH1 0xE0 DUP5 SWAP1 SHL AND DUP2 MSTORE PUSH1 0x1 PUSH1 0x1 PUSH1 0xA0 SHL SUB SWAP1 SWAP2 AND PUSH1 0x4 DUP3 ADD MSTORE PUSH1 0x24 ADD PUSH1 0x0 PUSH1 0x40 MLOAD DUP1 DUP4 SUB DUP2 PUSH1 0x0 DUP8 DUP1 EXTCODESIZE ISZERO DUP1 ISZERO PUSH2 0x496 JUMPI PUSH1 0x0 DUP1 REVERT JUMPDEST POP GAS CALL ISZERO DUP1 ISZERO PUSH2 0x4AA JUMPI RETURNDATASIZE PUSH1 0x0 DUP1 RETURNDATACOPY RETURNDATASIZE PUSH1 0x0 REVERT JUMPDEST POP POP POP POP PUSH1 0x0 PUSH1 0x1 DUP3 DUP2 SLOAD DUP2 LT PUSH2 0x4C3 JUMPI PUSH2 0x4C3 PUSH2 0x147B JUMP JUMPDEST PUSH1 0x0 SWAP2 DUP3 MSTORE PUSH1 0x20 DUP3 KECCAK256 ADD SLOAD PUSH1 0x40 DUP1 MLOAD PUSH4 0x204A7F07 PUSH1 0xE2 SHL DUP2 MSTORE SWAP1 MLOAD PUSH1 0x1 PUSH1 0x1 PUSH1 0xA0 SHL SUB SWAP1 SWAP3 AND SWAP4 POP DUP4 SWAP3 PUSH4 0x8129FC1C SWAP3 PUSH1 0x4 DUP1 DUP5 ADD SWAP4 DUP3 SWAP1 SUB ADD DUP2 DUP4 DUP8 DUP1 EXTCODESIZE ISZERO DUP1 ISZERO PUSH2 0x50E JUMPI PUSH1 0x0 DUP1 REVERT JUMPDEST POP GAS CALL ISZERO DUP1 ISZERO PUSH2 0x522 JUMPI RETURNDATASIZE PUSH1 0x0 DUP1 RETURNDATACOPY RETURNDATASIZE PUSH1 0x0 REVERT JUMPDEST POP DUP4 SWAP3 POP PUSH1 0x0 SWAP2 POP POP JUMPDEST PUSH2 0x534 PUSH2 0x2D0 JUMP JUMPDEST DUP2 LT ISZERO PUSH2 0x5BF JUMPI DUP2 PUSH1 0x1 PUSH1 0x1 PUSH1 0xA0 SHL SUB AND PUSH4 0xEB12D61E PUSH2 0x553 DUP4 PUSH2 0x2E1 JUMP JUMPDEST PUSH1 0x40 MLOAD PUSH1 0x1 PUSH1 0x1 PUSH1 0xE0 SHL SUB NOT PUSH1 0xE0 DUP5 SWAP1 SHL AND DUP2 MSTORE PUSH1 0x1 PUSH1 0x1 PUSH1 0xA0 SHL SUB SWAP1 SWAP2 AND PUSH1 0x4 DUP3 ADD MSTORE PUSH1 0x24 ADD PUSH1 0x0 PUSH1 0x40 MLOAD DUP1 DUP4 SUB DUP2 PUSH1 0x0 DUP8 DUP1 EXTCODESIZE ISZERO DUP1 ISZERO PUSH2 0x594 JUMPI PUSH1 0x0 DUP1 REVERT JUMPDEST POP GAS CALL ISZERO DUP1 ISZERO PUSH2 0x5A8 JUMPI RETURNDATASIZE PUSH1 0x0 DUP1 RETURNDATACOPY RETURNDATASIZE PUSH1 0x0 REVERT JUMPDEST POP POP POP POP DUP1 DUP1 PUSH2 0x5B7 SWAP1 PUSH2 0x1491 JUMP JUMPDEST SWAP2 POP POP PUSH2 0x52C JUMP JUMPDEST POP PUSH1 0x40 MLOAD PUSH3 0x4B9F2F PUSH1 0xE4 SHL DUP2 MSTORE PUSH1 0x1 PUSH1 0x1 PUSH1 0xA0 SHL SUB DUP3 AND SWAP1 PUSH4 0x4B9F2F0 SWAP1 PUSH2 0x5EB SWAP1 DUP12 SWAP1 PUSH1 0x4 ADD PUSH2 0x14F0 JUMP JUMPDEST PUSH1 0x0 PUSH1 0x40 MLOAD DUP1 DUP4 SUB DUP2 PUSH1 0x0 DUP8 DUP1 EXTCODESIZE ISZERO DUP1 ISZERO PUSH2 0x605 JUMPI PUSH1 0x0 DUP1 REVERT JUMPDEST POP GAS CALL ISZERO DUP1 ISZERO PUSH2 0x619 JUMPI RETURNDATASIZE PUSH1 0x0 DUP1 RETURNDATACOPY RETURNDATASIZE PUSH1 0x0 REVERT JUMPDEST POP POP PUSH1 0x40 MLOAD PUSH4 0x1B45C3B9 PUSH1 0xE1 SHL DUP2 MSTORE PUSH1 0x1 PUSH1 0x1 PUSH1 0xA0 SHL SUB DUP5 AND SWAP3 POP PUSH4 0x368B8772 SWAP2 POP PUSH2 0x649 SWAP1 DUP11 SWAP1 PUSH1 0x4 ADD PUSH2 0x14F0 JUMP JUMPDEST PUSH1 0x0 PUSH1 0x40 MLOAD DUP1 DUP4 SUB DUP2 PUSH1 0x0 DUP8 DUP1 EXTCODESIZE ISZERO DUP1 ISZERO PUSH2 0x663 JUMPI PUSH1 0x0 DUP1 REVERT JUMPDEST POP GAS CALL ISZERO DUP1 ISZERO PUSH2 0x677 JUMPI RETURNDATASIZE PUSH1 0x0 DUP1 RETURNDATACOPY RETURNDATASIZE PUSH1 0x0 REVERT JUMPDEST POP POP PUSH1 0x40 MLOAD PUSH4 0x7EA2C03 PUSH1 0xE3 SHL DUP2 MSTORE CALLER PUSH1 0x4 DUP3 ADD MSTORE PUSH1 0x1 PUSH1 0x1 PUSH1 0xA0 SHL SUB DUP5 AND SWAP3 POP PUSH4 0x3F516018 SWAP2 POP PUSH1 0x24 ADD PUSH1 0x0 PUSH1 0x40 MLOAD DUP1 DUP4 SUB DUP2 PUSH1 0x0 DUP8 DUP1 EXTCODESIZE ISZERO DUP1 ISZERO PUSH2 0x6BC JUMPI PUSH1 0x0 DUP1 REVERT JUMPDEST POP GAS CALL ISZERO DUP1 ISZERO PUSH2 0x6D0 JUMPI RETURNDATASIZE PUSH1 0x0 DUP1 RETURNDATACOPY RETURNDATASIZE PUSH1 0x0 REVERT JUMPDEST POP POP PUSH1 0x40 MLOAD PUSH4 0x776D1A01 PUSH1 0xE0 SHL DUP2 MSTORE PUSH1 0x1 PUSH1 0x1 PUSH1 0xA0 SHL SUB DUP10 DUP2 AND PUSH1 0x4 DUP4 ADD MSTORE DUP5 AND SWAP3 POP PUSH4 0x776D1A01 SWAP2 POP PUSH1 0x24 ADD PUSH1 0x0 PUSH1 0x40 MLOAD DUP1 DUP4 SUB DUP2 PUSH1 0x0 DUP8 DUP1 EXTCODESIZE ISZERO DUP1 ISZERO PUSH2 0x717 JUMPI PUSH1 0x0 DUP1 REVERT JUMPDEST POP GAS CALL ISZERO DUP1 ISZERO PUSH2 0x72B JUMPI RETURNDATASIZE PUSH1 0x0 DUP1 RETURNDATACOPY RETURNDATASIZE PUSH1 0x0 REVERT JUMPDEST POP POP PUSH1 0x40 MLOAD PUSH4 0xAB62F0E1 PUSH1 0xE0 SHL DUP2 MSTORE PUSH1 0x1 PUSH1 0x1 PUSH1 0xA0 SHL SUB DUP5 AND SWAP3 POP PUSH4 0xAB62F0E1 SWAP2 POP PUSH2 0x75B SWAP1 DUP9 SWAP1 PUSH1 0x4 ADD PUSH2 0x14F0 JUMP JUMPDEST PUSH1 0x0 PUSH1 0x40 MLOAD DUP1 DUP4 SUB DUP2 PUSH1 0x0 DUP8 DUP1 EXTCODESIZE ISZERO DUP1 ISZERO PUSH2 0x775 JUMPI PUSH1 0x0 DUP1 REVERT JUMPDEST POP GAS CALL ISZERO DUP1 ISZERO PUSH2 0x789 JUMPI RETURNDATASIZE PUSH1 0x0 DUP1 RETURNDATACOPY RETURNDATASIZE PUSH1 0x0 REVERT JUMPDEST POP POP PUSH1 0x40 MLOAD PUSH4 0xC44BEF75 PUSH1 0xE0 SHL DUP2 MSTORE TIMESTAMP PUSH1 0x4 DUP3 ADD MSTORE PUSH1 0x1 PUSH1 0x1 PUSH1 0xA0 SHL SUB DUP5 AND SWAP3 POP PUSH4 0xC44BEF75 SWAP2 POP PUSH1 0x24 ADD PUSH1 0x0 PUSH1 0x40 MLOAD DUP1 DUP4 SUB DUP2 PUSH1 0x0 DUP8 DUP1 EXTCODESIZE ISZERO DUP1 ISZERO PUSH2 0x7CE JUMPI PUSH1 0x0 DUP1 REVERT JUMPDEST POP GAS CALL ISZERO DUP1 ISZERO PUSH2 0x7E2 JUMPI RETURNDATASIZE PUSH1 0x0 DUP1 RETURNDATACOPY RETURNDATASIZE PUSH1 0x0 REVERT JUMPDEST POP POP POP POP DUP1 PUSH1 0x1 PUSH1 0x1 PUSH1 0xA0 SHL SUB AND PUSH4 0xF6BE71D1 PUSH2 0x7FE PUSH1 0x6 SLOAD SWAP1 JUMP JUMPDEST PUSH1 0x40 MLOAD DUP3 PUSH4 0xFFFFFFFF AND PUSH1 0xE0 SHL DUP2 MSTORE PUSH1 0x4 ADD PUSH2 0x81C SWAP2 DUP2 MSTORE PUSH1 0x20 ADD SWAP1 JUMP JUMPDEST PUSH1 0x0 PUSH1 0x40 MLOAD DUP1 DUP4 SUB DUP2 PUSH1 0x0 DUP8 DUP1 EXTCODESIZE ISZERO DUP1 ISZERO PUSH2 0x836 JUMPI PUSH1 0x0 DUP1 REVERT JUMPDEST POP GAS CALL ISZERO DUP1 ISZERO PUSH2 0x84A JUMPI RETURNDATASIZE PUSH1 0x0 DUP1 RETURNDATACOPY RETURNDATASIZE PUSH1 0x0 REVERT JUMPDEST POP POP POP POP DUP1 PUSH1 0x1 PUSH1 0x1 PUSH1 0xA0 SHL SUB AND PUSH4 0xFC19E8ED PUSH2 0x866 PUSH1 0x5 SLOAD SWAP1 JUMP JUMPDEST PUSH1 0x40 MLOAD DUP3 PUSH4 0xFFFFFFFF AND PUSH1 0xE0 SHL DUP2 MSTORE PUSH1 0x4 ADD PUSH2 0x884 SWAP2 DUP2 MSTORE PUSH1 0x20 ADD SWAP1 JUMP JUMPDEST PUSH1 0x0 PUSH1 0x40 MLOAD DUP1 DUP4 SUB DUP2 PUSH1 0x0 DUP8 DUP1 EXTCODESIZE ISZERO DUP1 ISZERO PUSH2 0x89E JUMPI PUSH1 0x0 DUP1 REVERT JUMPDEST POP GAS CALL ISZERO DUP1 ISZERO PUSH2 0x8B2 JUMPI RETURNDATASIZE PUSH1 0x0 DUP1 RETURNDATACOPY RETURNDATASIZE PUSH1 0x0 REVERT JUMPDEST POP POP POP POP DUP1 PUSH1 0x1 PUSH1 0x1 PUSH1 0xA0 SHL SUB AND PUSH4 0xBD9F98E1 PUSH2 0x8D7 PUSH1 0x8 SLOAD PUSH1 0x1 PUSH1 0x1 PUSH1 0xA0 SHL SUB AND SWAP1 JUMP JUMPDEST PUSH1 0x40 MLOAD PUSH1 0x1 PUSH1 0x1 PUSH1 0xE0 SHL SUB NOT PUSH1 0xE0 DUP5 SWAP1 SHL AND DUP2 MSTORE PUSH1 0x1 PUSH1 0x1 PUSH1 0xA0 SHL SUB SWAP1 SWAP2 AND PUSH1 0x4 DUP3 ADD MSTORE PUSH1 0x24 ADD PUSH1 0x0 PUSH1 0x40 MLOAD DUP1 DUP4 SUB DUP2 PUSH1 0x0 DUP8 DUP1 EXTCODESIZE ISZERO DUP1 ISZERO PUSH2 0x918 JUMPI PUSH1 0x0 DUP1 REVERT JUMPDEST POP GAS CALL ISZERO DUP1 ISZERO PUSH2 0x92C JUMPI RETURNDATASIZE PUSH1 0x0 DUP1 RETURNDATACOPY RETURNDATASIZE PUSH1 0x0 REVERT JUMPDEST POP POP PUSH1 0x40 MLOAD PUSH4 0x297DA9E1 PUSH1 0xE0 SHL DUP2 MSTORE ADDRESS PUSH1 0x4 DUP3 ADD MSTORE PUSH1 0x1 PUSH1 0x1 PUSH1 0xA0 SHL SUB DUP5 AND SWAP3 POP PUSH4 0x297DA9E1 SWAP2 POP PUSH1 0x24 ADD PUSH1 0x0 PUSH1 0x40 MLOAD DUP1 DUP4 SUB DUP2 PUSH1 0x0 DUP8 DUP1 EXTCODESIZE ISZERO DUP1 ISZERO PUSH2 0x971 JUMPI PUSH1 0x0 DUP1 REVERT JUMPDEST POP GAS CALL ISZERO DUP1 ISZERO PUSH2 0x985 JUMPI RETURNDATASIZE PUSH1 0x0 DUP1 RETURNDATACOPY RETURNDATASIZE PUSH1 0x0 REVERT JUMPDEST POP POP POP POP DUP1 PUSH1 0x1 PUSH1 0x1 PUSH1 0xA0 SHL SUB AND PUSH4 0xC138D1A0 PUSH2 0x9AA PUSH1 0x7 SLOAD PUSH1 0x1 PUSH1 0x1 PUSH1 0xA0 SHL SUB AND SWAP1 JUMP JUMPDEST PUSH1 0x40 MLOAD PUSH1 0x1 PUSH1 0x1 PUSH1 0xE0 SHL SUB NOT PUSH1 0xE0 DUP5 SWAP1 SHL AND DUP2 MSTORE PUSH1 0x1 PUSH1 0x1 PUSH1 0xA0 SHL SUB SWAP1 SWAP2 AND PUSH1 0x4 DUP3 ADD MSTORE PUSH1 0x24 ADD PUSH1 0x0 PUSH1 0x40 MLOAD DUP1 DUP4 SUB DUP2 PUSH1 0x0 DUP8 DUP1 EXTCODESIZE ISZERO DUP1 ISZERO PUSH2 0x9EB JUMPI PUSH1 0x0 DUP1 REVERT JUMPDEST POP GAS CALL ISZERO DUP1 ISZERO PUSH2 0x9FF JUMPI RETURNDATASIZE PUSH1 0x0 DUP1 RETURNDATACOPY RETURNDATASIZE PUSH1 0x0 REVERT JUMPDEST POP POP POP POP PUSH1 0x0 PUSH2 0xA17 PUSH1 0x8 SLOAD PUSH1 0x1 PUSH1 0x1 PUSH1 0xA0 SHL SUB AND SWAP1 JUMP JUMPDEST PUSH1 0x40 MLOAD PUSH4 0x2D047BA5 PUSH1 0xE2 SHL DUP2 MSTORE PUSH1 0x20 PUSH1 0x4 DUP3 ADD MSTORE PUSH1 0x17 PUSH1 0x24 DUP3 ADD MSTORE PUSH32 0x4D554C54495F5349475F50524F504F53414C5F524F4C45000000000000000000 PUSH1 0x44 DUP3 ADD MSTORE SWAP1 SWAP2 POP PUSH1 0x1 PUSH1 0x1 PUSH1 0xA0 SHL SUB DUP3 AND SWAP1 PUSH4 0x2F2FF15D SWAP1 DUP3 SWAP1 PUSH4 0xA657A47E SWAP1 DUP3 SWAP1 PUSH4 0xB411EE94 SWAP1 PUSH1 0x64 ADD PUSH1 0x20 PUSH1 0x40 MLOAD DUP1 DUP4 SUB DUP2 DUP7 GAS STATICCALL ISZERO DUP1 ISZERO PUSH2 0xA9C JUMPI RETURNDATASIZE PUSH1 0x0 DUP1 RETURNDATACOPY RETURNDATASIZE PUSH1 0x0 REVERT JUMPDEST POP POP POP POP PUSH1 0x40 MLOAD RETURNDATASIZE PUSH1 0x1F NOT PUSH1 0x1F DUP3 ADD AND DUP3 ADD DUP1 PUSH1 0x40 MSTORE POP DUP2 ADD SWAP1 PUSH2 0xAC0 SWAP2 SWAP1 PUSH2 0x1503 JUMP JUMPDEST PUSH1 0x40 MLOAD DUP3 PUSH4 0xFFFFFFFF AND PUSH1 0xE0 SHL DUP2 MSTORE PUSH1 0x4 ADD PUSH2 0xADE SWAP2 DUP2 MSTORE PUSH1 0x20 ADD SWAP1 JUMP JUMPDEST PUSH1 0x20 PUSH1 0x40 MLOAD DUP1 DUP4 SUB DUP2 DUP7 GAS STATICCALL ISZERO DUP1 ISZERO PUSH2 0xAFB JUMPI RETURNDATASIZE PUSH1 0x0 DUP1 RETURNDATACOPY RETURNDATASIZE PUSH1 0x0 REVERT JUMPDEST POP POP POP POP PUSH1 0x40 MLOAD RETURNDATASIZE PUSH1 0x1F NOT PUSH1 0x1F DUP3 ADD AND DUP3 ADD DUP1 PUSH1 0x40 MSTORE POP DUP2 ADD SWAP1 PUSH2 0xB1F SWAP2 SWAP1 PUSH2 0x1503 JUMP JUMPDEST PUSH1 0x40 MLOAD PUSH1 0x1 PUSH1 0x1 PUSH1 0xE0 SHL SUB NOT PUSH1 0xE0 DUP5 SWAP1 SHL AND DUP2 MSTORE PUSH1 0x4 DUP2 ADD SWAP2 SWAP1 SWAP2 MSTORE PUSH1 0x1 PUSH1 0x1 PUSH1 0xA0 SHL SUB DUP6 AND PUSH1 0x24 DUP3 ADD MSTORE PUSH1 0x44 ADD PUSH1 0x0 PUSH1 0x40 MLOAD DUP1 DUP4 SUB DUP2 PUSH1 0x0 DUP8 DUP1 EXTCODESIZE ISZERO DUP1 ISZERO PUSH2 0xB67 JUMPI PUSH1 0x0 DUP1 REVERT JUMPDEST POP GAS CALL ISZERO DUP1 ISZERO PUSH2 0xB7B JUMPI RETURNDATASIZE PUSH1 0x0 DUP1 RETURNDATACOPY RETURNDATASIZE PUSH1 0x0 REVERT JUMPDEST POP POP POP POP PUSH1 0x1 DUP5 DUP2 SLOAD DUP2 LT PUSH2 0xB92 JUMPI PUSH2 0xB92 PUSH2 0x147B JUMP JUMPDEST PUSH1 0x0 SWAP2 DUP3 MSTORE PUSH1 0x20 DUP3 KECCAK256 ADD SLOAD PUSH1 0x40 MLOAD PUSH1 0x1 PUSH1 0x1 PUSH1 0xA0 SHL SUB SWAP1 SWAP2 AND SWAP2 PUSH32 0xF40FCEC21964FFB566044D083B4073F29F7F7929110EA19E1B3EBE375D89055E SWAP2 LOG2 PUSH1 0x1 DUP5 DUP2 SLOAD DUP2 LT PUSH2 0xBE2 JUMPI PUSH2 0xBE2 PUSH2 0x147B JUMP JUMPDEST PUSH1 0x0 SWAP2 DUP3 MSTORE PUSH1 0x20 SWAP1 SWAP2 KECCAK256 ADD SLOAD PUSH1 0x1 PUSH1 0x1 PUSH1 0xA0 SHL SUB AND SWAP10 SWAP9 POP POP POP POP POP POP POP POP POP JUMP JUMPDEST PUSH2 0xC0C PUSH2 0xCEA JUMP JUMPDEST PUSH2 0x2BC DUP2 PUSH2 0xFBC JUMP JUMPDEST PUSH1 0x0 PUSH1 0x1 DUP3 DUP2 SLOAD DUP2 LT PUSH2 0xC2A JUMPI PUSH2 0xC2A PUSH2 0x147B JUMP JUMPDEST PUSH1 0x0 SWAP2 DUP3 MSTORE PUSH1 0x20 SWAP1 SWAP2 KECCAK256 ADD SLOAD PUSH1 0x1 PUSH1 0x1 PUSH1 0xA0 SHL SUB AND SWAP3 SWAP2 POP POP JUMP JUMPDEST PUSH2 0xC4D PUSH2 0xCEA JUMP JUMPDEST PUSH2 0x2BC DUP2 PUSH2 0x1050 JUMP JUMPDEST PUSH2 0xC5E PUSH2 0xCEA JUMP JUMPDEST PUSH2 0x2BC DUP2 PUSH2 0x109A JUMP JUMPDEST PUSH1 0x0 PUSH2 0x2EE PUSH1 0x3 DUP4 PUSH2 0x10E4 JUMP JUMPDEST PUSH2 0xC7C PUSH2 0xCEA JUMP JUMPDEST PUSH1 0x1 PUSH1 0x1 PUSH1 0xA0 SHL SUB DUP2 AND PUSH2 0xCE1 JUMPI PUSH1 0x40 MLOAD PUSH3 0x461BCD PUSH1 0xE5 SHL DUP2 MSTORE PUSH1 0x20 PUSH1 0x4 DUP3 ADD MSTORE PUSH1 0x26 PUSH1 0x24 DUP3 ADD MSTORE PUSH32 0x4F776E61626C653A206E6577206F776E657220697320746865207A65726F2061 PUSH1 0x44 DUP3 ADD MSTORE PUSH6 0x646472657373 PUSH1 0xD0 SHL PUSH1 0x64 DUP3 ADD MSTORE PUSH1 0x84 ADD PUSH2 0x396 JUMP JUMPDEST PUSH2 0x2BC DUP2 PUSH2 0xF02 JUMP JUMPDEST PUSH1 0x0 SLOAD PUSH1 0x1 PUSH1 0x1 PUSH1 0xA0 SHL SUB AND CALLER EQ PUSH2 0x317 JUMPI PUSH1 0x40 MLOAD PUSH3 0x461BCD PUSH1 0xE5 SHL DUP2 MSTORE PUSH1 0x20 PUSH1 0x4 DUP3 ADD DUP2 SWAP1 MSTORE PUSH1 0x24 DUP3 ADD MSTORE PUSH32 0x4F776E61626C653A2063616C6C6572206973206E6F7420746865206F776E6572 PUSH1 0x44 DUP3 ADD MSTORE PUSH1 0x64 ADD PUSH2 0x396 JUMP JUMPDEST PUSH2 0xD4F PUSH1 0x3 DUP3 PUSH2 0x10E4 JUMP JUMPDEST PUSH2 0xDB8 JUMPI PUSH1 0x40 MLOAD PUSH3 0x461BCD PUSH1 0xE5 SHL DUP2 MSTORE PUSH1 0x20 PUSH1 0x4 DUP3 ADD MSTORE PUSH1 0x34 PUSH1 0x24 DUP3 ADD MSTORE PUSH32 0x4D756C746953696750726F706F73616C466163746F72793A20215F7369676E65 PUSH1 0x44 DUP3 ADD MSTORE PUSH20 0x72732E636F6E7461696E73286163636F756E7429 PUSH1 0x60 SHL PUSH1 0x64 DUP3 ADD MSTORE PUSH1 0x84 ADD PUSH2 0x396 JUMP JUMPDEST PUSH2 0xDC3 PUSH1 0x3 DUP3 PUSH2 0x1106 JUMP JUMPDEST POP PUSH1 0x40 MLOAD PUSH1 0x1 PUSH1 0x1 PUSH1 0xA0 SHL SUB DUP3 AND SWAP1 PUSH32 0x1A74E3EA89BB33DE6283F87DC55D9AE0DB56275C5770A3CDAF50FF180E7FBF66 SWAP1 PUSH1 0x0 SWAP1 LOG2 POP JUMP JUMPDEST PUSH1 0x6 DUP2 SWAP1 SSTORE PUSH1 0x40 MLOAD DUP2 SWAP1 PUSH32 0x76C2D280863DE185CCB1EC30B13EB12746DA33B0416A08BA5FE551634657F31A SWAP1 PUSH1 0x0 SWAP1 LOG2 POP JUMP JUMPDEST PUSH1 0x0 PUSH2 0x2EE DUP3 SLOAD SWAP1 JUMP JUMPDEST PUSH1 0x0 PUSH2 0xE44 DUP4 DUP4 PUSH2 0x111B JUMP JUMPDEST SWAP4 SWAP3 POP POP POP JUMP JUMPDEST PUSH2 0xE56 PUSH1 0x3 DUP3 PUSH2 0x10E4 JUMP JUMPDEST ISZERO PUSH2 0xEBF JUMPI PUSH1 0x40 MLOAD PUSH3 0x461BCD PUSH1 0xE5 SHL DUP2 MSTORE PUSH1 0x20 PUSH1 0x4 DUP3 ADD MSTORE PUSH1 0x33 PUSH1 0x24 DUP3 ADD MSTORE PUSH32 0x4D756C746953696750726F706F73616C466163746F72793A205F7369676E6572 PUSH1 0x44 DUP3 ADD MSTORE PUSH19 0x732E636F6E7461696E73286163636F756E7429 PUSH1 0x68 SHL PUSH1 0x64 DUP3 ADD MSTORE PUSH1 0x84 ADD PUSH2 0x396 JUMP JUMPDEST PUSH2 0xECA PUSH1 0x3 DUP3 PUSH2 0x1145 JUMP JUMPDEST POP PUSH1 0x40 MLOAD PUSH1 0x1 PUSH1 0x1 PUSH1 0xA0 SHL SUB DUP3 AND SWAP1 PUSH32 0xF4D5C03C7AD36A06446BEAE30A36751894DF3A8621FA4F4244F1DD6227A92290 SWAP1 PUSH1 0x0 SWAP1 LOG2 POP JUMP JUMPDEST PUSH1 0x0 DUP1 SLOAD PUSH1 0x1 PUSH1 0x1 PUSH1 0xA0 SHL SUB DUP4 DUP2 AND PUSH1 0x1 PUSH1 0x1 PUSH1 0xA0 SHL SUB NOT DUP4 AND DUP2 OR DUP5 SSTORE PUSH1 0x40 MLOAD SWAP2 SWAP1 SWAP3 AND SWAP3 DUP4 SWAP2 PUSH32 0x8BE0079C531659141344CD1FD0A4F28419497F9722A3DAAFE3B4186F6B6457E0 SWAP2 SWAP1 LOG3 POP POP JUMP JUMPDEST PUSH2 0xF5B CALLER PUSH2 0xC67 JUMP JUMPDEST PUSH2 0x317 JUMPI PUSH1 0x40 MLOAD PUSH3 0x461BCD PUSH1 0xE5 SHL DUP2 MSTORE PUSH1 0x20 PUSH1 0x4 DUP3 ADD MSTORE PUSH1 0x2C PUSH1 0x24 DUP3 ADD MSTORE PUSH32 0x4D756C746953696750726F706F73616C466163746F72793A206F6E6C79206465 PUSH1 0x44 DUP3 ADD MSTORE PUSH12 0x3330BAB63A1039B4B3B732B9 PUSH1 0xA1 SHL PUSH1 0x64 DUP3 ADD MSTORE PUSH1 0x84 ADD PUSH2 0x396 JUMP JUMPDEST PUSH2 0x2710 DUP2 GT ISZERO PUSH2 0x101D JUMPI PUSH1 0x40 MLOAD PUSH3 0x461BCD PUSH1 0xE5 SHL DUP2 MSTORE PUSH1 0x20 PUSH1 0x4 DUP3 ADD MSTORE PUSH1 0x26 PUSH1 0x24 DUP3 ADD MSTORE PUSH32 0x4D756C746953696750726F706F73616C466163746F72793A206F7574206F6620 PUSH1 0x44 DUP3 ADD MSTORE PUSH6 0x626F756E6473 PUSH1 0xD0 SHL PUSH1 0x64 DUP3 ADD MSTORE PUSH1 0x84 ADD PUSH2 0x396 JUMP JUMPDEST PUSH1 0x5 DUP2 SWAP1 SSTORE PUSH1 0x40 MLOAD DUP2 SWAP1 PUSH32 0x9DF01F49D1AB71AF4750440788AC45F22C4CF2E0CCD54ABA51FACF10466959FF SWAP1 PUSH1 0x0 SWAP1 LOG2 POP JUMP JUMPDEST PUSH1 0x8 DUP1 SLOAD PUSH1 0x1 PUSH1 0x1 PUSH1 0xA0 SHL SUB NOT AND PUSH1 0x1 PUSH1 0x1 PUSH1 0xA0 SHL SUB DUP4 AND SWAP1 DUP2 OR SWAP1 SWAP2 SSTORE PUSH1 0x40 MLOAD PUSH32 0xDA041D56F89460D53852E1B9F9576DC62EB726BDE1008706DD87CDFE647A6973 SWAP1 PUSH1 0x0 SWAP1 LOG2 POP JUMP JUMPDEST PUSH1 0x7 DUP1 SLOAD PUSH1 0x1 PUSH1 0x1 PUSH1 0xA0 SHL SUB NOT AND PUSH1 0x1 PUSH1 0x1 PUSH1 0xA0 SHL SUB DUP4 AND SWAP1 DUP2 OR SWAP1 SWAP2 SSTORE PUSH1 0x40 MLOAD PUSH32 0x35C343C1B11E5CC8AE3B77869ED9A3D1C4191286EDCFA2AD41E689AB012EADC1 SWAP1 PUSH1 0x0 SWAP1 LOG2 POP JUMP JUMPDEST PUSH1 0x1 PUSH1 0x1 PUSH1 0xA0 SHL SUB DUP2 AND PUSH1 0x0 SWAP1 DUP2 MSTORE PUSH1 0x1 DUP4 ADD PUSH1 0x20 MSTORE PUSH1 0x40 DUP2 KECCAK256 SLOAD ISZERO ISZERO PUSH2 0xE44 JUMP JUMPDEST PUSH1 0x0 PUSH2 0xE44 DUP4 PUSH1 0x1 PUSH1 0x1 PUSH1 0xA0 SHL SUB DUP5 AND PUSH2 0x115A JUMP JUMPDEST PUSH1 0x0 DUP3 PUSH1 0x0 ADD DUP3 DUP2 SLOAD DUP2 LT PUSH2 0x1132 JUMPI PUSH2 0x1132 PUSH2 0x147B JUMP JUMPDEST SWAP1 PUSH1 0x0 MSTORE PUSH1 0x20 PUSH1 0x0 KECCAK256 ADD SLOAD SWAP1 POP SWAP3 SWAP2 POP POP JUMP JUMPDEST PUSH1 0x0 PUSH2 0xE44 DUP4 PUSH1 0x1 PUSH1 0x1 PUSH1 0xA0 SHL SUB DUP5 AND PUSH2 0x124D JUMP JUMPDEST PUSH1 0x0 DUP2 DUP2 MSTORE PUSH1 0x1 DUP4 ADD PUSH1 0x20 MSTORE PUSH1 0x40 DUP2 KECCAK256 SLOAD DUP1 ISZERO PUSH2 0x1243 JUMPI PUSH1 0x0 PUSH2 0x117E PUSH1 0x1 DUP4 PUSH2 0x1468 JUMP JUMPDEST DUP6 SLOAD SWAP1 SWAP2 POP PUSH1 0x0 SWAP1 PUSH2 0x1192 SWAP1 PUSH1 0x1 SWAP1 PUSH2 0x1468 JUMP JUMPDEST SWAP1 POP DUP2 DUP2 EQ PUSH2 0x11F7 JUMPI PUSH1 0x0 DUP7 PUSH1 0x0 ADD DUP3 DUP2 SLOAD DUP2 LT PUSH2 0x11B2 JUMPI PUSH2 0x11B2 PUSH2 0x147B JUMP JUMPDEST SWAP1 PUSH1 0x0 MSTORE PUSH1 0x20 PUSH1 0x0 KECCAK256 ADD SLOAD SWAP1 POP DUP1 DUP8 PUSH1 0x0 ADD DUP5 DUP2 SLOAD DUP2 LT PUSH2 0x11D5 JUMPI PUSH2 0x11D5 PUSH2 0x147B JUMP JUMPDEST PUSH1 0x0 SWAP2 DUP3 MSTORE PUSH1 0x20 DUP1 DUP4 KECCAK256 SWAP1 SWAP2 ADD SWAP3 SWAP1 SWAP3 SSTORE SWAP2 DUP3 MSTORE PUSH1 0x1 DUP9 ADD SWAP1 MSTORE PUSH1 0x40 SWAP1 KECCAK256 DUP4 SWAP1 SSTORE JUMPDEST DUP6 SLOAD DUP7 SWAP1 DUP1 PUSH2 0x1208 JUMPI PUSH2 0x1208 PUSH2 0x151C JUMP JUMPDEST PUSH1 0x1 SWAP1 SUB DUP2 DUP2 SWAP1 PUSH1 0x0 MSTORE PUSH1 0x20 PUSH1 0x0 KECCAK256 ADD PUSH1 0x0 SWAP1 SSTORE SWAP1 SSTORE DUP6 PUSH1 0x1 ADD PUSH1 0x0 DUP7 DUP2 MSTORE PUSH1 0x20 ADD SWAP1 DUP2 MSTORE PUSH1 0x20 ADD PUSH1 0x0 KECCAK256 PUSH1 0x0 SWAP1 SSTORE PUSH1 0x1 SWAP4 POP POP POP POP PUSH2 0x2EE JUMP JUMPDEST PUSH1 0x0 SWAP2 POP POP PUSH2 0x2EE JUMP JUMPDEST PUSH1 0x0 DUP2 DUP2 MSTORE PUSH1 0x1 DUP4 ADD PUSH1 0x20 MSTORE PUSH1 0x40 DUP2 KECCAK256 SLOAD PUSH2 0x1294 JUMPI POP DUP2 SLOAD PUSH1 0x1 DUP2 DUP2 ADD DUP5 SSTORE PUSH1 0x0 DUP5 DUP2 MSTORE PUSH1 0x20 DUP1 DUP3 KECCAK256 SWAP1 SWAP4 ADD DUP5 SWAP1 SSTORE DUP5 SLOAD DUP5 DUP3 MSTORE DUP3 DUP7 ADD SWAP1 SWAP4 MSTORE PUSH1 0x40 SWAP1 KECCAK256 SWAP2 SWAP1 SWAP2 SSTORE PUSH2 0x2EE JUMP JUMPDEST POP PUSH1 0x0 PUSH2 0x2EE JUMP JUMPDEST PUSH2 0x5A5 DUP1 PUSH2 0x1533 DUP4 CODECOPY ADD SWAP1 JUMP JUMPDEST DUP1 CALLDATALOAD PUSH1 0x1 PUSH1 0x1 PUSH1 0xA0 SHL SUB DUP2 AND DUP2 EQ PUSH2 0x12C0 JUMPI PUSH1 0x0 DUP1 REVERT JUMPDEST SWAP2 SWAP1 POP JUMP JUMPDEST PUSH1 0x0 PUSH1 0x20 DUP3 DUP5 SUB SLT ISZERO PUSH2 0x12D7 JUMPI PUSH1 0x0 DUP1 REVERT JUMPDEST PUSH2 0xE44 DUP3 PUSH2 0x12A9 JUMP JUMPDEST PUSH1 0x0 PUSH1 0x20 DUP3 DUP5 SUB SLT ISZERO PUSH2 0x12F2 JUMPI PUSH1 0x0 DUP1 REVERT JUMPDEST POP CALLDATALOAD SWAP2 SWAP1 POP JUMP JUMPDEST PUSH4 0x4E487B71 PUSH1 0xE0 SHL PUSH1 0x0 MSTORE PUSH1 0x41 PUSH1 0x4 MSTORE PUSH1 0x24 PUSH1 0x0 REVERT JUMPDEST PUSH1 0x0 PUSH8 0xFFFFFFFFFFFFFFFF DUP1 DUP5 GT ISZERO PUSH2 0x132A JUMPI PUSH2 0x132A PUSH2 0x12F9 JUMP JUMPDEST PUSH1 0x40 MLOAD PUSH1 0x1F DUP6 ADD PUSH1 0x1F NOT SWAP1 DUP2 AND PUSH1 0x3F ADD AND DUP2 ADD SWAP1 DUP3 DUP3 GT DUP2 DUP4 LT OR ISZERO PUSH2 0x1352 JUMPI PUSH2 0x1352 PUSH2 0x12F9 JUMP JUMPDEST DUP2 PUSH1 0x40 MSTORE DUP1 SWAP4 POP DUP6 DUP2 MSTORE DUP7 DUP7 DUP7 ADD GT ISZERO PUSH2 0x136B JUMPI PUSH1 0x0 DUP1 REVERT JUMPDEST DUP6 DUP6 PUSH1 0x20 DUP4 ADD CALLDATACOPY PUSH1 0x0 PUSH1 0x20 DUP8 DUP4 ADD ADD MSTORE POP POP POP SWAP4 SWAP3 POP POP POP JUMP JUMPDEST PUSH1 0x0 DUP3 PUSH1 0x1F DUP4 ADD SLT PUSH2 0x1396 JUMPI PUSH1 0x0 DUP1 REVERT JUMPDEST PUSH2 0xE44 DUP4 DUP4 CALLDATALOAD PUSH1 0x20 DUP6 ADD PUSH2 0x130F JUMP JUMPDEST PUSH1 0x0 DUP1 PUSH1 0x0 DUP1 PUSH1 0x80 DUP6 DUP8 SUB SLT ISZERO PUSH2 0x13BB JUMPI PUSH1 0x0 DUP1 REVERT JUMPDEST DUP5 CALLDATALOAD PUSH8 0xFFFFFFFFFFFFFFFF DUP1 DUP3 GT ISZERO PUSH2 0x13D3 JUMPI PUSH1 0x0 DUP1 REVERT JUMPDEST PUSH2 0x13DF DUP9 DUP4 DUP10 ADD PUSH2 0x1385 JUMP JUMPDEST SWAP6 POP PUSH1 0x20 DUP8 ADD CALLDATALOAD SWAP2 POP DUP1 DUP3 GT ISZERO PUSH2 0x13F5 JUMPI PUSH1 0x0 DUP1 REVERT JUMPDEST PUSH2 0x1401 DUP9 DUP4 DUP10 ADD PUSH2 0x1385 JUMP JUMPDEST SWAP5 POP PUSH2 0x140F PUSH1 0x40 DUP9 ADD PUSH2 0x12A9 JUMP JUMPDEST SWAP4 POP PUSH1 0x60 DUP8 ADD CALLDATALOAD SWAP2 POP DUP1 DUP3 GT ISZERO PUSH2 0x1425 JUMPI PUSH1 0x0 DUP1 REVERT JUMPDEST POP DUP6 ADD PUSH1 0x1F DUP2 ADD DUP8 SGT PUSH2 0x1437 JUMPI PUSH1 0x0 DUP1 REVERT JUMPDEST PUSH2 0x1446 DUP8 DUP3 CALLDATALOAD PUSH1 0x20 DUP5 ADD PUSH2 0x130F JUMP JUMPDEST SWAP2 POP POP SWAP3 SWAP6 SWAP2 SWAP5 POP SWAP3 POP JUMP JUMPDEST PUSH4 0x4E487B71 PUSH1 0xE0 SHL PUSH1 0x0 MSTORE PUSH1 0x11 PUSH1 0x4 MSTORE PUSH1 0x24 PUSH1 0x0 REVERT JUMPDEST DUP2 DUP2 SUB DUP2 DUP2 GT ISZERO PUSH2 0x2EE JUMPI PUSH2 0x2EE PUSH2 0x1452 JUMP JUMPDEST PUSH4 0x4E487B71 PUSH1 0xE0 SHL PUSH1 0x0 MSTORE PUSH1 0x32 PUSH1 0x4 MSTORE PUSH1 0x24 PUSH1 0x0 REVERT JUMPDEST PUSH1 0x0 PUSH1 0x1 DUP3 ADD PUSH2 0x14A3 JUMPI PUSH2 0x14A3 PUSH2 0x1452 JUMP JUMPDEST POP PUSH1 0x1 ADD SWAP1 JUMP JUMPDEST PUSH1 0x0 DUP2 MLOAD DUP1 DUP5 MSTORE PUSH1 0x0 JUMPDEST DUP2 DUP2 LT ISZERO PUSH2 0x14D0 JUMPI PUSH1 0x20 DUP2 DUP6 ADD DUP2 ADD MLOAD DUP7 DUP4 ADD DUP3 ADD MSTORE ADD PUSH2 0x14B4 JUMP JUMPDEST POP PUSH1 0x0 PUSH1 0x20 DUP3 DUP7 ADD ADD MSTORE PUSH1 0x20 PUSH1 0x1F NOT PUSH1 0x1F DUP4 ADD AND DUP6 ADD ADD SWAP2 POP POP SWAP3 SWAP2 POP POP JUMP JUMPDEST PUSH1 0x20 DUP2 MSTORE PUSH1 0x0 PUSH2 0xE44 PUSH1 0x20 DUP4 ADD DUP5 PUSH2 0x14AA JUMP JUMPDEST PUSH1 0x0 PUSH1 0x20 DUP3 DUP5 SUB SLT ISZERO PUSH2 0x1515 JUMPI PUSH1 0x0 DUP1 REVERT JUMPDEST POP MLOAD SWAP2 SWAP1 POP JUMP JUMPDEST PUSH4 0x4E487B71 PUSH1 0xE0 SHL PUSH1 0x0 MSTORE PUSH1 0x31 PUSH1 0x4 MSTORE PUSH1 0x24 PUSH1 0x0 REVERT INVALID PUSH1 0x80 PUSH1 0x40 MSTORE CALLVALUE DUP1 ISZERO PUSH2 0x10 JUMPI PUSH1 0x0 DUP1 REVERT JUMPDEST POP PUSH2 0x585 DUP1 PUSH2 0x20 PUSH1 0x0 CODECOPY PUSH1 0x0 RETURN INVALID PUSH1 0x80 PUSH1 0x40 MSTORE PUSH1 0x4 CALLDATASIZE LT PUSH2 0x7F JUMPI PUSH1 0x0 CALLDATALOAD PUSH1 0xE0 SHR DUP1 PUSH4 0x780E9368 GT PUSH2 0x4E JUMPI DUP1 PUSH4 0x780E9368 EQ PUSH2 0x125 JUMPI DUP1 PUSH4 0x985FCF9C EQ PUSH2 0x145 JUMPI DUP1 PUSH4 0xF4358896 EQ PUSH2 0x15A JUMPI DUP1 PUSH4 0xFDB16540 EQ PUSH2 0x16F JUMPI PUSH2 0x8E JUMP JUMPDEST DUP1 PUSH4 0x717F3E6 EQ PUSH2 0x96 JUMPI DUP1 PUSH4 0x2145B31A EQ PUSH2 0xC0 JUMPI DUP1 PUSH4 0x5C60DA1B EQ PUSH2 0xE3 JUMPI DUP1 PUSH4 0x667D4359 EQ PUSH2 0x110 JUMPI PUSH2 0x8E JUMP JUMPDEST CALLDATASIZE PUSH2 0x8E JUMPI PUSH2 0x8C PUSH2 0x18F JUMP JUMPDEST STOP JUMPDEST PUSH2 0x8C PUSH2 0x18F JUMP JUMPDEST CALLVALUE DUP1 ISZERO PUSH2 0xA2 JUMPI PUSH1 0x0 DUP1 REVERT JUMPDEST POP PUSH2 0xAB PUSH2 0x1A1 JUMP JUMPDEST PUSH1 0x40 MLOAD SWAP1 ISZERO ISZERO DUP2 MSTORE PUSH1 0x20 ADD JUMPDEST PUSH1 0x40 MLOAD DUP1 SWAP2 SUB SWAP1 RETURN JUMPDEST CALLVALUE DUP1 ISZERO PUSH2 0xCC JUMPI PUSH1 0x0 DUP1 REVERT JUMPDEST POP PUSH2 0xD5 PUSH2 0x1C8 JUMP JUMPDEST PUSH1 0x40 MLOAD SWAP1 DUP2 MSTORE PUSH1 0x20 ADD PUSH2 0xB7 JUMP JUMPDEST CALLVALUE DUP1 ISZERO PUSH2 0xEF JUMPI PUSH1 0x0 DUP1 REVERT JUMPDEST POP PUSH2 0xF8 PUSH2 0x232 JUMP JUMPDEST PUSH1 0x40 MLOAD PUSH1 0x1 PUSH1 0x1 PUSH1 0xA0 SHL SUB SWAP1 SWAP2 AND DUP2 MSTORE PUSH1 0x20 ADD PUSH2 0xB7 JUMP JUMPDEST CALLVALUE DUP1 ISZERO PUSH2 0x11C JUMPI PUSH1 0x0 DUP1 REVERT JUMPDEST POP PUSH2 0xD5 PUSH2 0x241 JUMP JUMPDEST CALLVALUE DUP1 ISZERO PUSH2 0x131 JUMPI PUSH1 0x0 DUP1 REVERT JUMPDEST POP PUSH2 0xF8 PUSH2 0x140 CALLDATASIZE PUSH1 0x4 PUSH2 0x4F0 JUMP JUMPDEST PUSH2 0x284 JUMP JUMPDEST CALLVALUE DUP1 ISZERO PUSH2 0x151 JUMPI PUSH1 0x0 DUP1 REVERT JUMPDEST POP PUSH2 0xD5 PUSH2 0x2CC JUMP JUMPDEST CALLVALUE DUP1 ISZERO PUSH2 0x166 JUMPI PUSH1 0x0 DUP1 REVERT JUMPDEST POP PUSH2 0xD5 PUSH2 0x2F0 JUMP JUMPDEST CALLVALUE DUP1 ISZERO PUSH2 0x17B JUMPI PUSH1 0x0 DUP1 REVERT JUMPDEST POP PUSH2 0x8C PUSH2 0x18A CALLDATASIZE PUSH1 0x4 PUSH2 0x509 JUMP JUMPDEST PUSH2 0x324 JUMP JUMPDEST PUSH2 0x19F PUSH2 0x19A PUSH2 0x339 JUMP JUMPDEST PUSH2 0x366 JUMP JUMPDEST JUMP JUMPDEST PUSH1 0x0 PUSH1 0x5 PUSH1 0x0 PUSH2 0x1AF PUSH2 0x1C8 JUMP JUMPDEST DUP2 MSTORE PUSH1 0x20 DUP2 ADD SWAP2 SWAP1 SWAP2 MSTORE PUSH1 0x40 ADD PUSH1 0x0 KECCAK256 SLOAD PUSH1 0xFF AND SWAP2 SWAP1 POP JUMP JUMPDEST PUSH1 0x0 PUSH1 0x40 MLOAD PUSH1 0x20 ADD PUSH2 0x217 SWAP1 PUSH1 0x20 DUP1 DUP3 MSTORE PUSH1 0x23 SWAP1 DUP3 ADD MSTORE PUSH32 0x494E495449414C5F494D504C454D454E544154494F4E5F4841535F4245454E5F PUSH1 0x40 DUP3 ADD MSTORE PUSH3 0x14D155 PUSH1 0xEA SHL PUSH1 0x60 DUP3 ADD MSTORE PUSH1 0x80 ADD SWAP1 JUMP JUMPDEST PUSH1 0x40 MLOAD PUSH1 0x20 DUP2 DUP4 SUB SUB DUP2 MSTORE SWAP1 PUSH1 0x40 MSTORE DUP1 MLOAD SWAP1 PUSH1 0x20 ADD KECCAK256 SWAP1 POP SWAP1 JUMP JUMPDEST PUSH1 0x0 PUSH2 0x23C PUSH2 0x339 JUMP JUMPDEST SWAP1 POP SWAP1 JUMP JUMPDEST PUSH1 0x0 PUSH1 0x40 MLOAD PUSH1 0x20 ADD PUSH2 0x217 SWAP1 PUSH1 0x20 DUP1 DUP3 MSTORE PUSH1 0x17 SWAP1 DUP3 ADD MSTORE PUSH32 0x494D504C454D454E544154494F4E5F54494D454C494E45000000000000000000 PUSH1 0x40 DUP3 ADD MSTORE PUSH1 0x60 ADD SWAP1 JUMP JUMPDEST PUSH1 0x0 PUSH1 0xB PUSH1 0x0 PUSH2 0x292 PUSH2 0x241 JUMP JUMPDEST DUP2 MSTORE PUSH1 0x20 ADD SWAP1 DUP2 MSTORE PUSH1 0x20 ADD PUSH1 0x0 KECCAK256 DUP3 DUP2 SLOAD DUP2 LT PUSH2 0x2B1 JUMPI PUSH2 0x2B1 PUSH2 0x539 JUMP JUMPDEST PUSH1 0x0 SWAP2 DUP3 MSTORE PUSH1 0x20 SWAP1 SWAP2 KECCAK256 ADD SLOAD PUSH1 0x1 PUSH1 0x1 PUSH1 0xA0 SHL SUB AND SWAP3 SWAP2 POP POP JUMP JUMPDEST PUSH1 0x0 PUSH1 0xB PUSH1 0x0 PUSH2 0x2DA PUSH2 0x241 JUMP JUMPDEST DUP2 MSTORE PUSH1 0x20 DUP2 ADD SWAP2 SWAP1 SWAP2 MSTORE PUSH1 0x40 ADD PUSH1 0x0 KECCAK256 SLOAD SWAP2 SWAP1 POP JUMP JUMPDEST PUSH1 0x0 PUSH1 0x40 MLOAD PUSH1 0x20 ADD PUSH2 0x217 SWAP1 PUSH1 0x20 DUP1 DUP3 MSTORE PUSH1 0xE SWAP1 DUP3 ADD MSTORE PUSH14 0x24A6A82622A6A2A72A20AA24A7A7 PUSH1 0x91 SHL PUSH1 0x40 DUP3 ADD MSTORE PUSH1 0x60 ADD SWAP1 JUMP JUMPDEST PUSH2 0x32D DUP2 PUSH2 0x38A JUMP JUMPDEST PUSH2 0x336 DUP2 PUSH2 0x423 JUMP JUMPDEST POP JUMP JUMPDEST PUSH1 0x0 PUSH1 0x4 PUSH1 0x0 PUSH2 0x347 PUSH2 0x2F0 JUMP JUMPDEST DUP2 MSTORE PUSH1 0x20 DUP2 ADD SWAP2 SWAP1 SWAP2 MSTORE PUSH1 0x40 ADD PUSH1 0x0 KECCAK256 SLOAD PUSH1 0x1 PUSH1 0x1 PUSH1 0xA0 SHL SUB AND SWAP2 SWAP1 POP JUMP JUMPDEST CALLDATASIZE PUSH1 0x0 DUP1 CALLDATACOPY PUSH1 0x0 DUP1 CALLDATASIZE PUSH1 0x0 DUP5 GAS DELEGATECALL RETURNDATASIZE PUSH1 0x0 DUP1 RETURNDATACOPY DUP1 DUP1 ISZERO PUSH2 0x385 JUMPI RETURNDATASIZE PUSH1 0x0 RETURN JUMPDEST RETURNDATASIZE PUSH1 0x0 REVERT JUMPDEST PUSH2 0x392 PUSH2 0x1A1 JUMP JUMPDEST ISZERO PUSH2 0x3F3 JUMPI PUSH1 0x40 MLOAD PUSH3 0x461BCD PUSH1 0xE5 SHL DUP2 MSTORE PUSH1 0x20 PUSH1 0x4 DUP3 ADD MSTORE PUSH1 0x27 PUSH1 0x24 DUP3 ADD MSTORE PUSH32 0x426173653A20696E697469616C496D706C656D656E746174696F6E4861734265 PUSH1 0x44 DUP3 ADD MSTORE PUSH7 0x656E5365742829 PUSH1 0xC8 SHL PUSH1 0x64 DUP3 ADD MSTORE PUSH1 0x84 ADD PUSH1 0x40 MLOAD DUP1 SWAP2 SUB SWAP1 REVERT JUMPDEST PUSH1 0x1 PUSH1 0x5 PUSH1 0x0 PUSH2 0x401 PUSH2 0x1C8 JUMP JUMPDEST DUP2 MSTORE PUSH1 0x20 DUP2 ADD SWAP2 SWAP1 SWAP2 MSTORE PUSH1 0x40 ADD PUSH1 0x0 KECCAK256 DUP1 SLOAD PUSH1 0xFF NOT AND SWAP2 ISZERO ISZERO SWAP2 SWAP1 SWAP2 OR SWAP1 SSTORE POP JUMP JUMPDEST DUP1 PUSH1 0x4 PUSH1 0x0 PUSH2 0x430 PUSH2 0x2F0 JUMP JUMPDEST DUP2 MSTORE PUSH1 0x20 ADD SWAP1 DUP2 MSTORE PUSH1 0x20 ADD PUSH1 0x0 KECCAK256 PUSH1 0x0 PUSH2 0x100 EXP DUP2 SLOAD DUP2 PUSH1 0x1 PUSH1 0x1 PUSH1 0xA0 SHL SUB MUL NOT AND SWAP1 DUP4 PUSH1 0x1 PUSH1 0x1 PUSH1 0xA0 SHL SUB AND MUL OR SWAP1 SSTORE POP PUSH2 0x46B DUP2 PUSH2 0x4A2 JUMP JUMPDEST PUSH1 0x40 MLOAD PUSH1 0x1 PUSH1 0x1 PUSH1 0xA0 SHL SUB DUP3 AND SWAP1 PUSH32 0xBC7CD75A20EE27FD9ADEBAB32041F755214DBC6BFFA90CC0225B39DA2E5C2D3B SWAP1 PUSH1 0x0 SWAP1 LOG2 POP JUMP JUMPDEST PUSH1 0xB PUSH1 0x0 PUSH2 0x4AE PUSH2 0x241 JUMP JUMPDEST DUP2 MSTORE PUSH1 0x20 DUP1 DUP3 ADD SWAP3 SWAP1 SWAP3 MSTORE PUSH1 0x40 ADD PUSH1 0x0 SWAP1 DUP2 KECCAK256 DUP1 SLOAD PUSH1 0x1 DUP2 ADD DUP3 SSTORE SWAP1 DUP3 MSTORE SWAP2 SWAP1 KECCAK256 ADD DUP1 SLOAD PUSH1 0x1 PUSH1 0x1 PUSH1 0xA0 SHL SUB NOT AND PUSH1 0x1 PUSH1 0x1 PUSH1 0xA0 SHL SUB SWAP3 SWAP1 SWAP3 AND SWAP2 SWAP1 SWAP2 OR SWAP1 SSTORE JUMP JUMPDEST PUSH1 0x0 PUSH1 0x20 DUP3 DUP5 SUB SLT ISZERO PUSH2 0x502 JUMPI PUSH1 0x0 DUP1 REVERT JUMPDEST POP CALLDATALOAD SWAP2 SWAP1 POP JUMP JUMPDEST PUSH1 0x0 PUSH1 0x20 DUP3 DUP5 SUB SLT ISZERO PUSH2 0x51B JUMPI PUSH1 0x0 DUP1 REVERT JUMPDEST DUP2 CALLDATALOAD PUSH1 0x1 PUSH1 0x1 PUSH1 0xA0 SHL SUB DUP2 AND DUP2 EQ PUSH2 0x532 JUMPI PUSH1 0x0 DUP1 REVERT JUMPDEST SWAP4 SWAP3 POP POP POP JUMP JUMPDEST PUSH4 0x4E487B71 PUSH1 0xE0 SHL PUSH1 0x0 MSTORE PUSH1 0x32 PUSH1 0x4 MSTORE PUSH1 0x24 PUSH1 0x0 REVERT INVALID LOG2 PUSH5 0x6970667358 0x22 SLT KECCAK256 KECCAK256 0xC0 0xE2 0x2C 0xD 0x4E JUMP EXTCODEHASH DUP9 PUSH30 0xD7270F15BEAECE1D6EBC6A0EECFEEE8FFCD8B54559E064736F6C63430008 SGT STOP CALLER LOG2 PUSH5 0x6970667358 0x22 SLT KECCAK256 PUSH23 0xDE4143A2BA3F8F355838EDD80014D8FB9A69C6D8523D64 PUSH7 0x6EA4086657BC8F PUSH5 0x736F6C6343 STOP ADDMOD SGT STOP CALLER "
		},
		"gasEstimates": {
			"creation": {
				"codeDepositCost": "1385000",
				"executionCost": "infinite",
				"totalCost": "infinite"
			},
			"external": {
				"addDefaultSigner(address)": "infinite",
				"addressDeployedTo(uint256)": "4708",
				"createMultiSigProposal(string,string,address,bytes)": "infinite",
				"defaultDuration()": "2304",
				"defaultImplementation()": "2442",
				"defaultRequiredQuorum()": "2348",
				"defaultSigners(uint256)": "4784",
				"defaultSignersLength()": "2427",
				"deploy()": "400",
				"isDefaultSigner(address)": "infinite",
				"owner()": "2398",
				"referendumProposalFactory()": "2443",
				"removeDefaultSigner(address)": "infinite",
				"renounceOwnership()": "infinite",
				"setDefaultDuration(uint256)": "25720",
				"setDefaultRequiredQuorum(uint256)": "25745",
				"setReferendumProposalFactory(address)": "27947",
				"setTerminal(address)": "27925",
				"terminal()": "2441",
				"transferOwnership(address)": "28421"
			},
			"internal": {
				"_addDefaultSigner(address)": "infinite",
				"_onlySigner()": "infinite",
				"_removeDefaultSigner(address)": "infinite",
				"_setDefaultDuration(uint256)": "23278",
				"_setDefaultRequiredQuorum(uint256)": "infinite",
				"_setReferendumProposalFactory(address)": "25426",
				"_setTerminal(address)": "25426"
			}
		},
		"methodIdentifiers": {
			"addDefaultSigner(address)": "33a39247",
			"addressDeployedTo(uint256)": "8df3072d",
			"createMultiSigProposal(string,string,address,bytes)": "795208c1",
			"defaultDuration()": "2af7e2ea",
			"defaultImplementation()": "b39c4593",
			"defaultRequiredQuorum()": "5a4f24c6",
			"defaultSigners(uint256)": "1d2d01b6",
			"defaultSignersLength()": "0ddce3c1",
			"deploy()": "775c300c",
			"isDefaultSigner(address)": "dab7a46c",
			"owner()": "8da5cb5b",
			"referendumProposalFactory()": "2053aa53",
			"removeDefaultSigner(address)": "010a1f81",
			"renounceOwnership()": "715018a6",
			"setDefaultDuration(uint256)": "05917872",
			"setDefaultRequiredQuorum(uint256)": "7cf8d57f",
			"setReferendumProposalFactory(address)": "c138d1a0",
			"setTerminal(address)": "bd9f98e1",
			"terminal()": "f45d0bc6",
			"transferOwnership(address)": "f2fde38b"
		}
	},
	"abi": [
		{
			"inputs": [
				{
					"internalType": "address",
					"name": "multiSigProposalImplementation",
					"type": "address"
				}
			],
			"stateMutability": "nonpayable",
			"type": "constructor"
		},
		{
			"anonymous": false,
			"inputs": [
				{
					"indexed": true,
					"internalType": "uint256",
					"name": "seconds_",
					"type": "uint256"
				}
			],
			"name": "DefaultDurationSet",
			"type": "event"
		},
		{
			"anonymous": false,
			"inputs": [
				{
					"indexed": true,
					"internalType": "uint256",
					"name": "bp",
					"type": "uint256"
				}
			],
			"name": "DefaultRequiredQuorumSet",
			"type": "event"
		},
		{
			"anonymous": false,
			"inputs": [
				{
					"indexed": true,
					"internalType": "address",
					"name": "signer",
					"type": "address"
				}
			],
			"name": "DefaultSignerAdded",
			"type": "event"
		},
		{
			"anonymous": false,
			"inputs": [
				{
					"indexed": true,
					"internalType": "address",
					"name": "signer",
					"type": "address"
				}
			],
			"name": "DefaultSignerRemoved",
			"type": "event"
		},
		{
			"anonymous": false,
			"inputs": [
				{
					"indexed": true,
					"internalType": "address",
					"name": "newBase",
					"type": "address"
				}
			],
			"name": "Deployed",
			"type": "event"
		},
		{
			"anonymous": false,
			"inputs": [
				{
					"indexed": true,
					"internalType": "address",
					"name": "previousOwner",
					"type": "address"
				},
				{
					"indexed": true,
					"internalType": "address",
					"name": "newOwner",
					"type": "address"
				}
			],
			"name": "OwnershipTransferred",
			"type": "event"
		},
		{
			"anonymous": false,
			"inputs": [
				{
					"indexed": true,
					"internalType": "address",
					"name": "account",
					"type": "address"
				}
			],
			"name": "ReferendumProposalFactorySet",
			"type": "event"
		},
		{
			"anonymous": false,
			"inputs": [
				{
					"indexed": true,
					"internalType": "address",
					"name": "account",
					"type": "address"
				}
			],
			"name": "TerminalSet",
			"type": "event"
		},
		{
			"inputs": [
				{
					"internalType": "address",
					"name": "account",
					"type": "address"
				}
			],
			"name": "addDefaultSigner",
			"outputs": [],
			"stateMutability": "nonpayable",
			"type": "function"
		},
		{
			"inputs": [
				{
					"internalType": "uint256",
					"name": "deployedId",
					"type": "uint256"
				}
			],
			"name": "addressDeployedTo",
			"outputs": [
				{
					"internalType": "address",
					"name": "",
					"type": "address"
				}
			],
			"stateMutability": "view",
			"type": "function"
		},
		{
			"inputs": [
				{
					"internalType": "string",
					"name": "caption",
					"type": "string"
				},
				{
					"internalType": "string",
					"name": "message",
					"type": "string"
				},
				{
					"internalType": "address",
					"name": "target",
					"type": "address"
				},
				{
					"internalType": "bytes",
					"name": "data",
					"type": "bytes"
				}
			],
			"name": "createMultiSigProposal",
			"outputs": [
				{
					"internalType": "address",
					"name": "",
					"type": "address"
				}
			],
			"stateMutability": "nonpayable",
			"type": "function"
		},
		{
			"inputs": [],
			"name": "defaultDuration",
			"outputs": [
				{
					"internalType": "uint256",
					"name": "",
					"type": "uint256"
				}
			],
			"stateMutability": "view",
			"type": "function"
		},
		{
			"inputs": [],
			"name": "defaultImplementation",
			"outputs": [
				{
					"internalType": "address",
					"name": "",
					"type": "address"
				}
			],
			"stateMutability": "view",
			"type": "function"
		},
		{
			"inputs": [],
			"name": "defaultRequiredQuorum",
			"outputs": [
				{
					"internalType": "uint256",
					"name": "",
					"type": "uint256"
				}
			],
			"stateMutability": "view",
			"type": "function"
		},
		{
			"inputs": [
				{
					"internalType": "uint256",
					"name": "signerId",
					"type": "uint256"
				}
			],
			"name": "defaultSigners",
			"outputs": [
				{
					"internalType": "address",
					"name": "",
					"type": "address"
				}
			],
			"stateMutability": "view",
			"type": "function"
		},
		{
			"inputs": [],
			"name": "defaultSignersLength",
			"outputs": [
				{
					"internalType": "uint256",
					"name": "",
					"type": "uint256"
				}
			],
			"stateMutability": "view",
			"type": "function"
		},
		{
			"inputs": [],
			"name": "deploy",
			"outputs": [
				{
					"internalType": "address",
					"name": "",
					"type": "address"
				}
			],
			"stateMutability": "nonpayable",
			"type": "function"
		},
		{
			"inputs": [
				{
					"internalType": "address",
					"name": "account",
					"type": "address"
				}
			],
			"name": "isDefaultSigner",
			"outputs": [
				{
					"internalType": "bool",
					"name": "",
					"type": "bool"
				}
			],
			"stateMutability": "view",
			"type": "function"
		},
		{
			"inputs": [],
			"name": "owner",
			"outputs": [
				{
					"internalType": "address",
					"name": "",
					"type": "address"
				}
			],
			"stateMutability": "view",
			"type": "function"
		},
		{
			"inputs": [],
			"name": "referendumProposalFactory",
			"outputs": [
				{
					"internalType": "address",
					"name": "",
					"type": "address"
				}
			],
			"stateMutability": "view",
			"type": "function"
		},
		{
			"inputs": [
				{
					"internalType": "address",
					"name": "account",
					"type": "address"
				}
			],
			"name": "removeDefaultSigner",
			"outputs": [],
			"stateMutability": "nonpayable",
			"type": "function"
		},
		{
			"inputs": [],
			"name": "renounceOwnership",
			"outputs": [],
			"stateMutability": "nonpayable",
			"type": "function"
		},
		{
			"inputs": [
				{
					"internalType": "uint256",
					"name": "seconds_",
					"type": "uint256"
				}
			],
			"name": "setDefaultDuration",
			"outputs": [],
			"stateMutability": "nonpayable",
			"type": "function"
		},
		{
			"inputs": [
				{
					"internalType": "uint256",
					"name": "bp",
					"type": "uint256"
				}
			],
			"name": "setDefaultRequiredQuorum",
			"outputs": [],
			"stateMutability": "nonpayable",
			"type": "function"
		},
		{
			"inputs": [
				{
					"internalType": "address",
					"name": "account",
					"type": "address"
				}
			],
			"name": "setReferendumProposalFactory",
			"outputs": [],
			"stateMutability": "nonpayable",
			"type": "function"
		},
		{
			"inputs": [
				{
					"internalType": "address",
					"name": "account",
					"type": "address"
				}
			],
			"name": "setTerminal",
			"outputs": [],
			"stateMutability": "nonpayable",
			"type": "function"
		},
		{
			"inputs": [],
			"name": "terminal",
			"outputs": [
				{
					"internalType": "address",
					"name": "",
					"type": "address"
				}
			],
			"stateMutability": "view",
			"type": "function"
		},
		{
			"inputs": [
				{
					"internalType": "address",
					"name": "newOwner",
					"type": "address"
				}
			],
			"name": "transferOwnership",
			"outputs": [],
			"stateMutability": "nonpayable",
			"type": "function"
		}
	]
}