{
	"data": {
		"bytecode": {
			"linkReferences": {},
			"object": "608060405234801561001057600080fd5b50611d71806100206000396000f3fe608060405234801561001057600080fd5b50600436106103b85760003560e01c80637870dfae116101f4578063bd9f98e11161011a578063dedaace5116100ad578063f2fde38b1161007c578063f2fde38b14610671578063f45d0bc614610684578063f6be71d11461068c578063fc19e8ed1461069f57600080fd5b8063dedaace514610646578063e21f37ce1461064e578063e6fd48bc14610656578063eb12d61e1461065e57600080fd5b8063c44bef75116100e9578063c44bef751461061b578063c7ac09171461062e578063d4b8399214610636578063d63391c01461063e57600080fd5b8063bd9f98e1146105da578063becfa6c0146105ed578063bf6a1413146105f5578063c138d1a01461060857600080fd5b80638da5cb5b11610192578063a85adeab11610161578063a85adeab146105af578063ab62f0e1146105b7578063b859dd3e146105ca578063b949048b146105d257600080fd5b80638da5cb5b1461058f578063902b29ed14610597578063a05b5c301461059f578063a73e8e36146105a757600080fd5b80638554b847116101ce5780638554b8471461056457806386a837351461056c5780638bc301fd146105745780638be101941461057c57600080fd5b80637870dfae146105415780637df73e27146105495780638129fc1c1461055c57600080fd5b806339540e5e116102e457806361461954116102775780637036014e116102465780637036014e14610516578063715018a61461051e57806373d4a13a14610526578063776d1a011461052e57600080fd5b806361461954146104f65780636676e926146104fe5780636c6169bd146105065780636d22a0c71461050e57600080fd5b8063476221fe116102b3578063476221fe146104d657806358221c6b146104de5780635d32eeb5146104e65780635fabb1bf146104ee57600080fd5b806339540e5e1461049e5780633f516018146104b357806341346f0a146104c657806341f684f3146104ce57600080fd5b80631f2698ab1161035c5780632ca151221161032b5780632ca151221461047357806331a38c891461047b578063368b877214610483578063372fdd001461049657600080fd5b80631f2698ab1461043d5780632053aa53146104455780632079fb9a1461044d578063297da9e11461046057600080fd5b806304b9f2f01161039857806304b9f2f0146104005780630fb5a6b41461041557806312fa6feb1461041d578063158ef93e1461043557600080fd5b806265d30d146103bd57806277158b146103e257806302d05d3f146103f8575b600080fd5b6103c56106b2565b6040516001600160a01b0390911681526020015b60405180910390f35b6103ea6106df565b6040519081526020016103d9565b6103c5610708565b61041361040e3660046119dc565b610716565b005b6103ea61072a565b61042561074c565b60405190151581526020016103d9565b61042561075e565b610425610785565b6103c561078f565b6103c561045b366004611a2d565b61079d565b61041361046e366004611a5b565b6107d1565b6104136107e2565b6104256107ec565b6104136104913660046119dc565b6107fa565b6103ea61080b565b6104a661085b565b6040516103d99190611ac8565b6104136104c1366004611a5b565b610905565b6103ea610916565b6103ea610944565b6103ea610955565b6103ea610982565b6103ea6109af565b6103ea6109dc565b6103c5610a0c565b6103ea610ab9565b6103ea610aea565b6103ea610b1f565b6103ea610b48565b610413610b56565b6104a6610b68565b61041361053c366004611a5b565b610b75565b6103ea610b86565b610425610557366004611a5b565b610bb4565b610413610be2565b610425610bea565b6103ea610c09565b610425610c46565b6103c561058a366004611a2d565b610c5f565b6103c5610c71565b6103ea610c7f565b610425610cad565b6103ea610cbb565b6103ea610ce7565b6104136105c53660046119dc565b610d03565b6103ea610d14565b6103ea610d3e565b6104136105e8366004611a5b565b610d69565b6103ea610d7a565b610425610603366004611a5b565b610da6565b610413610616366004611a5b565b610db8565b610413610629366004611a2d565b610dc9565b6103ea610dda565b6103c5610e07565b6103ea610e15565b6103ea610e58565b6104a6610e9b565b6103ea610ea9565b61041361066c366004611a5b565b610eb7565b61041361067f366004611a5b565b610ec8565b6103c5610ed9565b61041361069a366004611a2d565b610ee7565b6104136106ad366004611a2d565b610ef8565b6000600460006106c0610e15565b81526020810191909152604001600020546001600160a01b0316919050565b6000610703601660006106f06109dc565b8152602001908152602001600020610f09565b905090565b6000600460006106c06109af565b61071e610f13565b61072781610f6f565b50565b600060026000610738610c7f565b815260200190815260200160002054905090565b6000610756610ce7565b421015905090565b60006005600061076c610ab9565b815260208101919091526040016000205460ff16919050565b6000610756610ea9565b6000600460006106c0610e58565b60006107cb82601660006107af610dda565b8152602001908152602001600020610fb990919063ffffffff16565b92915050565b6107d9610f13565b61072781610fcc565b6107ea61100c565b565b60006005600061076c610b86565b610802610f13565b61072781611131565b6000604051602001610840906020808252600f908201526e52455155495245445f51554f52554d60881b604082015260600190565b60405160208183030381529060405280519060200120905090565b606060016000610869610955565b8152602001908152602001600020805461088290611adb565b80601f01602080910402602001604051908101604052809291908181526020018280546108ae90611adb565b80156108fb5780601f106108d0576101008083540402835291602001916108fb565b820191906000526020600020905b8154815290600101906020018083116108de57829003601f168201915b5050505050905090565b61090d610f13565b6107278161117b565b600060405160200161084090602080825260089082015267151154935253905360c21b604082015260600190565b6000610703601660006106f0610dda565b60006040516020016108409060208082526007908201526621a0a82a24a7a760c91b604082015260600190565b6000604051602001610840906020808252600790820152664d45535341474560c81b604082015260600190565b60006040516020016108409060208082526007908201526621a922a0aa27a960c91b604082015260600190565b6000604051602001610840906020808252600a90820152695349474e41545552455360b01b604082015260600190565b6000610a166111bb565b6000610a2061078f565b9050806001600160a01b031663f52f8570610a3961085b565b610a41610e9b565b610a49610e07565b610a51610b68565b6040518563ffffffff1660e01b8152600401610a709493929190611b15565b6020604051808303816000875af1158015610a8f573d6000803e3d6000fd5b505050506040513d601f19601f82011682018060405250810190610ab39190611b68565b91505090565b6000604051602001610840906020808252600b908201526a125392551250531256915160aa1b604082015260600190565b6000604051602001610840906020808252600f908201526e053544152545f54494d455354414d5608c1b604082015260600190565b6000612710610b2c610b48565b610b34610944565b610b3e9190611b9b565b6107039190611bb2565b60006002600061073861080b565b610b5e610f13565b6107ea600061122c565b6060600080610869610d14565b610b7d610f13565b610727816112a3565b60006040516020016108409060208082526008908201526711561150d555115160c21b604082015260600190565b60006107cb8260166000610bc6610dda565b81526020019081526020016000206112e390919063ffffffff16565b6107ea611305565b6000610bf4610785565b80156107035750610c0361074c565b15905090565b6000610c13610bea565b15610c2b5742610c21610ce7565b6107039190611bd4565b610c33610785565b15610c405761070361072a565b50600090565b6000610c50610b1f565b610c586106df565b1015905090565b60006107cb82601660006107af6109dc565b6000600460006106c0610d3e565b600060405160200161084090602080825260089082015267222aa920aa24a7a760c11b604082015260600190565b60006005600061076c610d7a565b60006040516020016108409060208082526006908201526515105491d15560d21b604082015260600190565b6000610cf161072a565b610cf9610ea9565b6107039190611be7565b610d0b610f13565b6107278161131e565b6000604051602001610840906020808252600490820152634441544160e01b604082015260600190565b60006040516020016108409060208082526005908201526427aba722a960d91b604082015260600190565b610d71610f13565b61072781611368565b600060405160200161084090602080825260069082015265141054d4d15160d21b604082015260600190565b60006107cb8260166000610bc66109dc565b610dc0610f13565b610727816113a8565b610dd1610f13565b610727816113e8565b6000604051602001610840906020808252600790820152665349474e45525360c81b604082015260600190565b6000600460006106c0610cbb565b6000604051602001610840906020808252601a908201527f4d554c54495f5349475f50524f504f53414c5f464143544f5259000000000000604082015260600190565b6000604051602001610840906020808252601b908201527f5245464552454e44554d5f50524f504f53414c5f464143544f52590000000000604082015260600190565b606060016000610869610982565b600060026000610738610aea565b610ebf610f13565b6107278161141f565b610ed0610f13565b6107278161122c565b6000600460006106c0610916565b610eef610f13565b610727816114bd565b610f00610f13565b610727816114f4565b60006107cb825490565b33610f1c610c71565b6001600160a01b0316146107ea5760405162461bcd60e51b815260206004820152601560248201527437bbb732b9141490109e9036b9b39739b2b73232b960591b60448201526064015b60405180910390fd5b610f7881611595565b80604051610f869190611bfa565b604051908190038120907f7935b61140db6ed0dbbd02b692adfaa25439ab982bd6eea1879ae7be537cbfed90600090a250565b6000610fc583836115c0565b9392505050565b610fd5816115ea565b6040516001600160a01b038216907fd09c0624caca0531ea4b7bd26613634cf337f4065ef6aff84501cbc8182c535590600090a250565b61101461162c565b61101c611680565b6110246116d5565b61102d33610bb4565b6110795760405162461bcd60e51b815260206004820152601d60248201527f4d756c746953696750726f706f73616c3a202169735369676e657228290000006044820152606401610f66565b61108233610da6565b156110cf5760405162461bcd60e51b815260206004820152601d60248201527f4d756c746953696750726f706f73616c3a206861735369676e656428290000006044820152606401610f66565b6110fb33601660006110df6109dc565b815260200190815260200160002061172a90919063ffffffff16565b5061110461173f565b60405133907f568aebae0f7dc6c96727fb4cdfdf7add45fec43fffd69b3fa71ea0898a27f8cc90600090a2565b61113a816117a5565b806040516111489190611bfa565b604051908190038120907f3d7f415c35b881f2d0a109b3d9a1377e1e14afec5cc1fd06b563ed160c5e263090600090a250565b611184816117b2565b6040516001600160a01b038216907fd4396a7e1ee1013c611432f59b862687db5c35b5ae1fd43334ccba88fac8e67890600090a250565b6111c361162c565b6111cb6117bf565b6111d36116d5565b6001600560006111e1610b86565b8152602081019190915260409081016000908120805460ff191693151593909317909255517f68f46c45a243a0e9065a97649faf9a5afe1692f2679e650c2f853b9cd734cc0e9190a1565b6000611236610c71565b90508160046000611245610d3e565b815260208101919091526040908101600090812080546001600160a01b0319166001600160a01b039485161790559051848316928416917f8be0079c531659141344cd1fd0a4f28419497f9722a3daafe3b4186f6b6457e091a35050565b6112ac81611813565b6040516001600160a01b038216907f3bfb4bbf112628248058745a3c57e35b13369386e474b8e56c552f3063a4a19690600090a250565b6001600160a01b03811660009081526001830160205260408120541515610fc5565b61130e3361122c565b611316611820565b6107ea611829565b611327816118ad565b806040516113359190611bfa565b604051908190038120907f648803d94e57304c319cbb4af7a1b1b5d74577e581f5f6cf5e8af9a932bb0d5490600090a250565b611371816118b9565b6040516001600160a01b038216907fda041d56f89460d53852e1b9f9576dc62eb726bde1008706dd87cdfe647a697390600090a250565b6113b1816118c6565b6040516001600160a01b038216907f35c343c1b11e5cc8ae3b77869ed9a3d1c4191286edcfa2ad41e689ab012eadc190600090a250565b6113f1816118d3565b60405181907f2b9ea1248daf3a58246ca1b3401344f8f1809f146bad26ccc6059cba160ed22190600090a250565b61142881610bb4565b156114755760405162461bcd60e51b815260206004820152601c60248201527f4d756c746953696750726f706f73616c3a2069735369676e65722829000000006044820152606401610f66565b61148581601660006110df610dda565b506040516001600160a01b038216907f47d1c22a25bb3a5d4e481b9b1e6944c2eade3181a0a20b495ed61d35b5323f2490600090a250565b6114c6816118f4565b60405181907f234a8b70e70d5fc5ace24d19c8c988edfd5dc006d6f8356cab0273e2f084a90990600090a250565b6127108111156115465760405162461bcd60e51b815260206004820152601f60248201527f4d756c746953696750726f706f73616c3a206f7574206f6620626f756e6473006044820152606401610f66565b806002600061155361080b565b815260200190815260200160002081905550807f79ba8674a90cd5c280a86c18d9b4fa843c1bc0a11c3afaf2c50df52c0ca0fb0660405160405180910390a250565b80600160006115a2610955565b815260200190815260200160002090816115bc9190611c65565b5050565b60008260000182815481106115d7576115d7611d25565b9060005260206000200154905092915050565b80600460006115f7610e15565b815260200190815260200160002060006101000a8154816001600160a01b0302191690836001600160a01b0316021790555050565b611634610bea565b6107ea5760405162461bcd60e51b815260206004820152601d60248201527f4d756c746953696750726f706f73616c3a2021636f756e74696e6728290000006044820152606401610f66565b611688610cad565b156107ea5760405162461bcd60e51b815260206004820152601a60248201527f4d756c746953696750726f706f73616c3a2070617373656428290000000000006044820152606401610f66565b6116dd6107ec565b156107ea5760405162461bcd60e51b815260206004820152601c60248201527f4d756c746953696750726f706f73616c3a2065786563757465642829000000006044820152606401610f66565b6000610fc5836001600160a01b038416611901565b611747610c46565b156107ea5760016005600061175a610d7a565b8152602081019190915260409081016000908120805460ff191693151593909317909255517f5aa8a44622c21066164c551945caf713792e9fbee8ce54bb83cb3d5410549dfe9190a1565b80600160006115a2610982565b80600460006115f76109af565b6117c7610cad565b6107ea5760405162461bcd60e51b815260206004820152601b60248201527f4d756c746953696750726f706f73616c3a2021706173736564282900000000006044820152606401610f66565b80600460006115f7610cbb565b6107ea3361122c565b61183161075e565b1561187e5760405162461bcd60e51b815260206004820152601c60248201527f496e697469616c697a61626c653a20696e697469616c697a65642829000000006044820152606401610f66565b60016005600061188c610ab9565b81526020810191909152604001600020805460ff1916911515919091179055565b806000806115a2610d14565b80600460006115f7610916565b80600460006115f7610e58565b80600260006118e0610aea565b815260208101919091526040016000205550565b80600260006118e0610c7f565b6000818152600183016020526040812054611948575081546001818101845560008481526020808220909301849055845484825282860190935260409020919091556107cb565b5060006107cb565b634e487b7160e01b600052604160045260246000fd5b600067ffffffffffffffff8084111561198157611981611950565b604051601f8501601f19908116603f011681019082821181831017156119a9576119a9611950565b816040528093508581528686860111156119c257600080fd5b858560208301376000602087830101525050509392505050565b6000602082840312156119ee57600080fd5b813567ffffffffffffffff811115611a0557600080fd5b8201601f81018413611a1657600080fd5b611a2584823560208401611966565b949350505050565b600060208284031215611a3f57600080fd5b5035919050565b6001600160a01b038116811461072757600080fd5b600060208284031215611a6d57600080fd5b8135610fc581611a46565b60005b83811015611a93578181015183820152602001611a7b565b50506000910152565b60008151808452611ab4816020860160208601611a78565b601f01601f19169290920160200192915050565b602081526000610fc56020830184611a9c565b600181811c90821680611aef57607f821691505b602082108103611b0f57634e487b7160e01b600052602260045260246000fd5b50919050565b608081526000611b286080830187611a9c565b8281036020840152611b3a8187611a9c565b6001600160a01b038616604085015283810360608501529050611b5d8185611a9c565b979650505050505050565b600060208284031215611b7a57600080fd5b8151610fc581611a46565b634e487b7160e01b600052601160045260246000fd5b80820281158282048414176107cb576107cb611b85565b600082611bcf57634e487b7160e01b600052601260045260246000fd5b500490565b818103818111156107cb576107cb611b85565b808201808211156107cb576107cb611b85565b60008251611c0c818460208701611a78565b9190910192915050565b601f821115611c6057600081815260208120601f850160051c81016020861015611c3d5750805b601f850160051c820191505b81811015611c5c57828155600101611c49565b5050505b505050565b815167ffffffffffffffff811115611c7f57611c7f611950565b611c9381611c8d8454611adb565b84611c16565b602080601f831160018114611cc85760008415611cb05750858301515b600019600386901b1c1916600185901b178555611c5c565b600085815260208120601f198616915b82811015611cf757888601518255948401946001909101908401611cd8565b5085821015611d155787850151600019600388901b60f8161c191681555b5050505050600190811b01905550565b634e487b7160e01b600052603260045260246000fdfea264697066735822122091a2724e7fb569f3999509ce67791035ff98110f290cc11786fdc6a124b3628964736f6c63430008130033",
			"opcodes": "PUSH1 0x80 PUSH1 0x40 MSTORE CALLVALUE DUP1 ISZERO PUSH2 0x10 JUMPI PUSH1 0x0 DUP1 REVERT JUMPDEST POP PUSH2 0x1D71 DUP1 PUSH2 0x20 PUSH1 0x0 CODECOPY PUSH1 0x0 RETURN INVALID PUSH1 0x80 PUSH1 0x40 MSTORE CALLVALUE DUP1 ISZERO PUSH2 0x10 JUMPI PUSH1 0x0 DUP1 REVERT JUMPDEST POP PUSH1 0x4 CALLDATASIZE LT PUSH2 0x3B8 JUMPI PUSH1 0x0 CALLDATALOAD PUSH1 0xE0 SHR DUP1 PUSH4 0x7870DFAE GT PUSH2 0x1F4 JUMPI DUP1 PUSH4 0xBD9F98E1 GT PUSH2 0x11A JUMPI DUP1 PUSH4 0xDEDAACE5 GT PUSH2 0xAD JUMPI DUP1 PUSH4 0xF2FDE38B GT PUSH2 0x7C JUMPI DUP1 PUSH4 0xF2FDE38B EQ PUSH2 0x671 JUMPI DUP1 PUSH4 0xF45D0BC6 EQ PUSH2 0x684 JUMPI DUP1 PUSH4 0xF6BE71D1 EQ PUSH2 0x68C JUMPI DUP1 PUSH4 0xFC19E8ED EQ PUSH2 0x69F JUMPI PUSH1 0x0 DUP1 REVERT JUMPDEST DUP1 PUSH4 0xDEDAACE5 EQ PUSH2 0x646 JUMPI DUP1 PUSH4 0xE21F37CE EQ PUSH2 0x64E JUMPI DUP1 PUSH4 0xE6FD48BC EQ PUSH2 0x656 JUMPI DUP1 PUSH4 0xEB12D61E EQ PUSH2 0x65E JUMPI PUSH1 0x0 DUP1 REVERT JUMPDEST DUP1 PUSH4 0xC44BEF75 GT PUSH2 0xE9 JUMPI DUP1 PUSH4 0xC44BEF75 EQ PUSH2 0x61B JUMPI DUP1 PUSH4 0xC7AC0917 EQ PUSH2 0x62E JUMPI DUP1 PUSH4 0xD4B83992 EQ PUSH2 0x636 JUMPI DUP1 PUSH4 0xD63391C0 EQ PUSH2 0x63E JUMPI PUSH1 0x0 DUP1 REVERT JUMPDEST DUP1 PUSH4 0xBD9F98E1 EQ PUSH2 0x5DA JUMPI DUP1 PUSH4 0xBECFA6C0 EQ PUSH2 0x5ED JUMPI DUP1 PUSH4 0xBF6A1413 EQ PUSH2 0x5F5 JUMPI DUP1 PUSH4 0xC138D1A0 EQ PUSH2 0x608 JUMPI PUSH1 0x0 DUP1 REVERT JUMPDEST DUP1 PUSH4 0x8DA5CB5B GT PUSH2 0x192 JUMPI DUP1 PUSH4 0xA85ADEAB GT PUSH2 0x161 JUMPI DUP1 PUSH4 0xA85ADEAB EQ PUSH2 0x5AF JUMPI DUP1 PUSH4 0xAB62F0E1 EQ PUSH2 0x5B7 JUMPI DUP1 PUSH4 0xB859DD3E EQ PUSH2 0x5CA JUMPI DUP1 PUSH4 0xB949048B EQ PUSH2 0x5D2 JUMPI PUSH1 0x0 DUP1 REVERT JUMPDEST DUP1 PUSH4 0x8DA5CB5B EQ PUSH2 0x58F JUMPI DUP1 PUSH4 0x902B29ED EQ PUSH2 0x597 JUMPI DUP1 PUSH4 0xA05B5C30 EQ PUSH2 0x59F JUMPI DUP1 PUSH4 0xA73E8E36 EQ PUSH2 0x5A7 JUMPI PUSH1 0x0 DUP1 REVERT JUMPDEST DUP1 PUSH4 0x8554B847 GT PUSH2 0x1CE JUMPI DUP1 PUSH4 0x8554B847 EQ PUSH2 0x564 JUMPI DUP1 PUSH4 0x86A83735 EQ PUSH2 0x56C JUMPI DUP1 PUSH4 0x8BC301FD EQ PUSH2 0x574 JUMPI DUP1 PUSH4 0x8BE10194 EQ PUSH2 0x57C JUMPI PUSH1 0x0 DUP1 REVERT JUMPDEST DUP1 PUSH4 0x7870DFAE EQ PUSH2 0x541 JUMPI DUP1 PUSH4 0x7DF73E27 EQ PUSH2 0x549 JUMPI DUP1 PUSH4 0x8129FC1C EQ PUSH2 0x55C JUMPI PUSH1 0x0 DUP1 REVERT JUMPDEST DUP1 PUSH4 0x39540E5E GT PUSH2 0x2E4 JUMPI DUP1 PUSH4 0x61461954 GT PUSH2 0x277 JUMPI DUP1 PUSH4 0x7036014E GT PUSH2 0x246 JUMPI DUP1 PUSH4 0x7036014E EQ PUSH2 0x516 JUMPI DUP1 PUSH4 0x715018A6 EQ PUSH2 0x51E JUMPI DUP1 PUSH4 0x73D4A13A EQ PUSH2 0x526 JUMPI DUP1 PUSH4 0x776D1A01 EQ PUSH2 0x52E JUMPI PUSH1 0x0 DUP1 REVERT JUMPDEST DUP1 PUSH4 0x61461954 EQ PUSH2 0x4F6 JUMPI DUP1 PUSH4 0x6676E926 EQ PUSH2 0x4FE JUMPI DUP1 PUSH4 0x6C6169BD EQ PUSH2 0x506 JUMPI DUP1 PUSH4 0x6D22A0C7 EQ PUSH2 0x50E JUMPI PUSH1 0x0 DUP1 REVERT JUMPDEST DUP1 PUSH4 0x476221FE GT PUSH2 0x2B3 JUMPI DUP1 PUSH4 0x476221FE EQ PUSH2 0x4D6 JUMPI DUP1 PUSH4 0x58221C6B EQ PUSH2 0x4DE JUMPI DUP1 PUSH4 0x5D32EEB5 EQ PUSH2 0x4E6 JUMPI DUP1 PUSH4 0x5FABB1BF EQ PUSH2 0x4EE JUMPI PUSH1 0x0 DUP1 REVERT JUMPDEST DUP1 PUSH4 0x39540E5E EQ PUSH2 0x49E JUMPI DUP1 PUSH4 0x3F516018 EQ PUSH2 0x4B3 JUMPI DUP1 PUSH4 0x41346F0A EQ PUSH2 0x4C6 JUMPI DUP1 PUSH4 0x41F684F3 EQ PUSH2 0x4CE JUMPI PUSH1 0x0 DUP1 REVERT JUMPDEST DUP1 PUSH4 0x1F2698AB GT PUSH2 0x35C JUMPI DUP1 PUSH4 0x2CA15122 GT PUSH2 0x32B JUMPI DUP1 PUSH4 0x2CA15122 EQ PUSH2 0x473 JUMPI DUP1 PUSH4 0x31A38C89 EQ PUSH2 0x47B JUMPI DUP1 PUSH4 0x368B8772 EQ PUSH2 0x483 JUMPI DUP1 PUSH4 0x372FDD00 EQ PUSH2 0x496 JUMPI PUSH1 0x0 DUP1 REVERT JUMPDEST DUP1 PUSH4 0x1F2698AB EQ PUSH2 0x43D JUMPI DUP1 PUSH4 0x2053AA53 EQ PUSH2 0x445 JUMPI DUP1 PUSH4 0x2079FB9A EQ PUSH2 0x44D JUMPI DUP1 PUSH4 0x297DA9E1 EQ PUSH2 0x460 JUMPI PUSH1 0x0 DUP1 REVERT JUMPDEST DUP1 PUSH4 0x4B9F2F0 GT PUSH2 0x398 JUMPI DUP1 PUSH4 0x4B9F2F0 EQ PUSH2 0x400 JUMPI DUP1 PUSH4 0xFB5A6B4 EQ PUSH2 0x415 JUMPI DUP1 PUSH4 0x12FA6FEB EQ PUSH2 0x41D JUMPI DUP1 PUSH4 0x158EF93E EQ PUSH2 0x435 JUMPI PUSH1 0x0 DUP1 REVERT JUMPDEST DUP1 PUSH3 0x65D30D EQ PUSH2 0x3BD JUMPI DUP1 PUSH3 0x77158B EQ PUSH2 0x3E2 JUMPI DUP1 PUSH4 0x2D05D3F EQ PUSH2 0x3F8 JUMPI JUMPDEST PUSH1 0x0 DUP1 REVERT JUMPDEST PUSH2 0x3C5 PUSH2 0x6B2 JUMP JUMPDEST PUSH1 0x40 MLOAD PUSH1 0x1 PUSH1 0x1 PUSH1 0xA0 SHL SUB SWAP1 SWAP2 AND DUP2 MSTORE PUSH1 0x20 ADD JUMPDEST PUSH1 0x40 MLOAD DUP1 SWAP2 SUB SWAP1 RETURN JUMPDEST PUSH2 0x3EA PUSH2 0x6DF JUMP JUMPDEST PUSH1 0x40 MLOAD SWAP1 DUP2 MSTORE PUSH1 0x20 ADD PUSH2 0x3D9 JUMP JUMPDEST PUSH2 0x3C5 PUSH2 0x708 JUMP JUMPDEST PUSH2 0x413 PUSH2 0x40E CALLDATASIZE PUSH1 0x4 PUSH2 0x19DC JUMP JUMPDEST PUSH2 0x716 JUMP JUMPDEST STOP JUMPDEST PUSH2 0x3EA PUSH2 0x72A JUMP JUMPDEST PUSH2 0x425 PUSH2 0x74C JUMP JUMPDEST PUSH1 0x40 MLOAD SWAP1 ISZERO ISZERO DUP2 MSTORE PUSH1 0x20 ADD PUSH2 0x3D9 JUMP JUMPDEST PUSH2 0x425 PUSH2 0x75E JUMP JUMPDEST PUSH2 0x425 PUSH2 0x785 JUMP JUMPDEST PUSH2 0x3C5 PUSH2 0x78F JUMP JUMPDEST PUSH2 0x3C5 PUSH2 0x45B CALLDATASIZE PUSH1 0x4 PUSH2 0x1A2D JUMP JUMPDEST PUSH2 0x79D JUMP JUMPDEST PUSH2 0x413 PUSH2 0x46E CALLDATASIZE PUSH1 0x4 PUSH2 0x1A5B JUMP JUMPDEST PUSH2 0x7D1 JUMP JUMPDEST PUSH2 0x413 PUSH2 0x7E2 JUMP JUMPDEST PUSH2 0x425 PUSH2 0x7EC JUMP JUMPDEST PUSH2 0x413 PUSH2 0x491 CALLDATASIZE PUSH1 0x4 PUSH2 0x19DC JUMP JUMPDEST PUSH2 0x7FA JUMP JUMPDEST PUSH2 0x3EA PUSH2 0x80B JUMP JUMPDEST PUSH2 0x4A6 PUSH2 0x85B JUMP JUMPDEST PUSH1 0x40 MLOAD PUSH2 0x3D9 SWAP2 SWAP1 PUSH2 0x1AC8 JUMP JUMPDEST PUSH2 0x413 PUSH2 0x4C1 CALLDATASIZE PUSH1 0x4 PUSH2 0x1A5B JUMP JUMPDEST PUSH2 0x905 JUMP JUMPDEST PUSH2 0x3EA PUSH2 0x916 JUMP JUMPDEST PUSH2 0x3EA PUSH2 0x944 JUMP JUMPDEST PUSH2 0x3EA PUSH2 0x955 JUMP JUMPDEST PUSH2 0x3EA PUSH2 0x982 JUMP JUMPDEST PUSH2 0x3EA PUSH2 0x9AF JUMP JUMPDEST PUSH2 0x3EA PUSH2 0x9DC JUMP JUMPDEST PUSH2 0x3C5 PUSH2 0xA0C JUMP JUMPDEST PUSH2 0x3EA PUSH2 0xAB9 JUMP JUMPDEST PUSH2 0x3EA PUSH2 0xAEA JUMP JUMPDEST PUSH2 0x3EA PUSH2 0xB1F JUMP JUMPDEST PUSH2 0x3EA PUSH2 0xB48 JUMP JUMPDEST PUSH2 0x413 PUSH2 0xB56 JUMP JUMPDEST PUSH2 0x4A6 PUSH2 0xB68 JUMP JUMPDEST PUSH2 0x413 PUSH2 0x53C CALLDATASIZE PUSH1 0x4 PUSH2 0x1A5B JUMP JUMPDEST PUSH2 0xB75 JUMP JUMPDEST PUSH2 0x3EA PUSH2 0xB86 JUMP JUMPDEST PUSH2 0x425 PUSH2 0x557 CALLDATASIZE PUSH1 0x4 PUSH2 0x1A5B JUMP JUMPDEST PUSH2 0xBB4 JUMP JUMPDEST PUSH2 0x413 PUSH2 0xBE2 JUMP JUMPDEST PUSH2 0x425 PUSH2 0xBEA JUMP JUMPDEST PUSH2 0x3EA PUSH2 0xC09 JUMP JUMPDEST PUSH2 0x425 PUSH2 0xC46 JUMP JUMPDEST PUSH2 0x3C5 PUSH2 0x58A CALLDATASIZE PUSH1 0x4 PUSH2 0x1A2D JUMP JUMPDEST PUSH2 0xC5F JUMP JUMPDEST PUSH2 0x3C5 PUSH2 0xC71 JUMP JUMPDEST PUSH2 0x3EA PUSH2 0xC7F JUMP JUMPDEST PUSH2 0x425 PUSH2 0xCAD JUMP JUMPDEST PUSH2 0x3EA PUSH2 0xCBB JUMP JUMPDEST PUSH2 0x3EA PUSH2 0xCE7 JUMP JUMPDEST PUSH2 0x413 PUSH2 0x5C5 CALLDATASIZE PUSH1 0x4 PUSH2 0x19DC JUMP JUMPDEST PUSH2 0xD03 JUMP JUMPDEST PUSH2 0x3EA PUSH2 0xD14 JUMP JUMPDEST PUSH2 0x3EA PUSH2 0xD3E JUMP JUMPDEST PUSH2 0x413 PUSH2 0x5E8 CALLDATASIZE PUSH1 0x4 PUSH2 0x1A5B JUMP JUMPDEST PUSH2 0xD69 JUMP JUMPDEST PUSH2 0x3EA PUSH2 0xD7A JUMP JUMPDEST PUSH2 0x425 PUSH2 0x603 CALLDATASIZE PUSH1 0x4 PUSH2 0x1A5B JUMP JUMPDEST PUSH2 0xDA6 JUMP JUMPDEST PUSH2 0x413 PUSH2 0x616 CALLDATASIZE PUSH1 0x4 PUSH2 0x1A5B JUMP JUMPDEST PUSH2 0xDB8 JUMP JUMPDEST PUSH2 0x413 PUSH2 0x629 CALLDATASIZE PUSH1 0x4 PUSH2 0x1A2D JUMP JUMPDEST PUSH2 0xDC9 JUMP JUMPDEST PUSH2 0x3EA PUSH2 0xDDA JUMP JUMPDEST PUSH2 0x3C5 PUSH2 0xE07 JUMP JUMPDEST PUSH2 0x3EA PUSH2 0xE15 JUMP JUMPDEST PUSH2 0x3EA PUSH2 0xE58 JUMP JUMPDEST PUSH2 0x4A6 PUSH2 0xE9B JUMP JUMPDEST PUSH2 0x3EA PUSH2 0xEA9 JUMP JUMPDEST PUSH2 0x413 PUSH2 0x66C CALLDATASIZE PUSH1 0x4 PUSH2 0x1A5B JUMP JUMPDEST PUSH2 0xEB7 JUMP JUMPDEST PUSH2 0x413 PUSH2 0x67F CALLDATASIZE PUSH1 0x4 PUSH2 0x1A5B JUMP JUMPDEST PUSH2 0xEC8 JUMP JUMPDEST PUSH2 0x3C5 PUSH2 0xED9 JUMP JUMPDEST PUSH2 0x413 PUSH2 0x69A CALLDATASIZE PUSH1 0x4 PUSH2 0x1A2D JUMP JUMPDEST PUSH2 0xEE7 JUMP JUMPDEST PUSH2 0x413 PUSH2 0x6AD CALLDATASIZE PUSH1 0x4 PUSH2 0x1A2D JUMP JUMPDEST PUSH2 0xEF8 JUMP JUMPDEST PUSH1 0x0 PUSH1 0x4 PUSH1 0x0 PUSH2 0x6C0 PUSH2 0xE15 JUMP JUMPDEST DUP2 MSTORE PUSH1 0x20 DUP2 ADD SWAP2 SWAP1 SWAP2 MSTORE PUSH1 0x40 ADD PUSH1 0x0 KECCAK256 SLOAD PUSH1 0x1 PUSH1 0x1 PUSH1 0xA0 SHL SUB AND SWAP2 SWAP1 POP JUMP JUMPDEST PUSH1 0x0 PUSH2 0x703 PUSH1 0x16 PUSH1 0x0 PUSH2 0x6F0 PUSH2 0x9DC JUMP JUMPDEST DUP2 MSTORE PUSH1 0x20 ADD SWAP1 DUP2 MSTORE PUSH1 0x20 ADD PUSH1 0x0 KECCAK256 PUSH2 0xF09 JUMP JUMPDEST SWAP1 POP SWAP1 JUMP JUMPDEST PUSH1 0x0 PUSH1 0x4 PUSH1 0x0 PUSH2 0x6C0 PUSH2 0x9AF JUMP JUMPDEST PUSH2 0x71E PUSH2 0xF13 JUMP JUMPDEST PUSH2 0x727 DUP2 PUSH2 0xF6F JUMP JUMPDEST POP JUMP JUMPDEST PUSH1 0x0 PUSH1 0x2 PUSH1 0x0 PUSH2 0x738 PUSH2 0xC7F JUMP JUMPDEST DUP2 MSTORE PUSH1 0x20 ADD SWAP1 DUP2 MSTORE PUSH1 0x20 ADD PUSH1 0x0 KECCAK256 SLOAD SWAP1 POP SWAP1 JUMP JUMPDEST PUSH1 0x0 PUSH2 0x756 PUSH2 0xCE7 JUMP JUMPDEST TIMESTAMP LT ISZERO SWAP1 POP SWAP1 JUMP JUMPDEST PUSH1 0x0 PUSH1 0x5 PUSH1 0x0 PUSH2 0x76C PUSH2 0xAB9 JUMP JUMPDEST DUP2 MSTORE PUSH1 0x20 DUP2 ADD SWAP2 SWAP1 SWAP2 MSTORE PUSH1 0x40 ADD PUSH1 0x0 KECCAK256 SLOAD PUSH1 0xFF AND SWAP2 SWAP1 POP JUMP JUMPDEST PUSH1 0x0 PUSH2 0x756 PUSH2 0xEA9 JUMP JUMPDEST PUSH1 0x0 PUSH1 0x4 PUSH1 0x0 PUSH2 0x6C0 PUSH2 0xE58 JUMP JUMPDEST PUSH1 0x0 PUSH2 0x7CB DUP3 PUSH1 0x16 PUSH1 0x0 PUSH2 0x7AF PUSH2 0xDDA JUMP JUMPDEST DUP2 MSTORE PUSH1 0x20 ADD SWAP1 DUP2 MSTORE PUSH1 0x20 ADD PUSH1 0x0 KECCAK256 PUSH2 0xFB9 SWAP1 SWAP2 SWAP1 PUSH4 0xFFFFFFFF AND JUMP JUMPDEST SWAP3 SWAP2 POP POP JUMP JUMPDEST PUSH2 0x7D9 PUSH2 0xF13 JUMP JUMPDEST PUSH2 0x727 DUP2 PUSH2 0xFCC JUMP JUMPDEST PUSH2 0x7EA PUSH2 0x100C JUMP JUMPDEST JUMP JUMPDEST PUSH1 0x0 PUSH1 0x5 PUSH1 0x0 PUSH2 0x76C PUSH2 0xB86 JUMP JUMPDEST PUSH2 0x802 PUSH2 0xF13 JUMP JUMPDEST PUSH2 0x727 DUP2 PUSH2 0x1131 JUMP JUMPDEST PUSH1 0x0 PUSH1 0x40 MLOAD PUSH1 0x20 ADD PUSH2 0x840 SWAP1 PUSH1 0x20 DUP1 DUP3 MSTORE PUSH1 0xF SWAP1 DUP3 ADD MSTORE PUSH15 0x52455155495245445F51554F52554D PUSH1 0x88 SHL PUSH1 0x40 DUP3 ADD MSTORE PUSH1 0x60 ADD SWAP1 JUMP JUMPDEST PUSH1 0x40 MLOAD PUSH1 0x20 DUP2 DUP4 SUB SUB DUP2 MSTORE SWAP1 PUSH1 0x40 MSTORE DUP1 MLOAD SWAP1 PUSH1 0x20 ADD KECCAK256 SWAP1 POP SWAP1 JUMP JUMPDEST PUSH1 0x60 PUSH1 0x1 PUSH1 0x0 PUSH2 0x869 PUSH2 0x955 JUMP JUMPDEST DUP2 MSTORE PUSH1 0x20 ADD SWAP1 DUP2 MSTORE PUSH1 0x20 ADD PUSH1 0x0 KECCAK256 DUP1 SLOAD PUSH2 0x882 SWAP1 PUSH2 0x1ADB JUMP JUMPDEST DUP1 PUSH1 0x1F ADD PUSH1 0x20 DUP1 SWAP2 DIV MUL PUSH1 0x20 ADD PUSH1 0x40 MLOAD SWAP1 DUP2 ADD PUSH1 0x40 MSTORE DUP1 SWAP3 SWAP2 SWAP1 DUP2 DUP2 MSTORE PUSH1 0x20 ADD DUP3 DUP1 SLOAD PUSH2 0x8AE SWAP1 PUSH2 0x1ADB JUMP JUMPDEST DUP1 ISZERO PUSH2 0x8FB JUMPI DUP1 PUSH1 0x1F LT PUSH2 0x8D0 JUMPI PUSH2 0x100 DUP1 DUP4 SLOAD DIV MUL DUP4 MSTORE SWAP2 PUSH1 0x20 ADD SWAP2 PUSH2 0x8FB JUMP JUMPDEST DUP3 ADD SWAP2 SWAP1 PUSH1 0x0 MSTORE PUSH1 0x20 PUSH1 0x0 KECCAK256 SWAP1 JUMPDEST DUP2 SLOAD DUP2 MSTORE SWAP1 PUSH1 0x1 ADD SWAP1 PUSH1 0x20 ADD DUP1 DUP4 GT PUSH2 0x8DE JUMPI DUP3 SWAP1 SUB PUSH1 0x1F AND DUP3 ADD SWAP2 JUMPDEST POP POP POP POP POP SWAP1 POP SWAP1 JUMP JUMPDEST PUSH2 0x90D PUSH2 0xF13 JUMP JUMPDEST PUSH2 0x727 DUP2 PUSH2 0x117B JUMP JUMPDEST PUSH1 0x0 PUSH1 0x40 MLOAD PUSH1 0x20 ADD PUSH2 0x840 SWAP1 PUSH1 0x20 DUP1 DUP3 MSTORE PUSH1 0x8 SWAP1 DUP3 ADD MSTORE PUSH8 0x1511549352539053 PUSH1 0xC2 SHL PUSH1 0x40 DUP3 ADD MSTORE PUSH1 0x60 ADD SWAP1 JUMP JUMPDEST PUSH1 0x0 PUSH2 0x703 PUSH1 0x16 PUSH1 0x0 PUSH2 0x6F0 PUSH2 0xDDA JUMP JUMPDEST PUSH1 0x0 PUSH1 0x40 MLOAD PUSH1 0x20 ADD PUSH2 0x840 SWAP1 PUSH1 0x20 DUP1 DUP3 MSTORE PUSH1 0x7 SWAP1 DUP3 ADD MSTORE PUSH7 0x21A0A82A24A7A7 PUSH1 0xC9 SHL PUSH1 0x40 DUP3 ADD MSTORE PUSH1 0x60 ADD SWAP1 JUMP JUMPDEST PUSH1 0x0 PUSH1 0x40 MLOAD PUSH1 0x20 ADD PUSH2 0x840 SWAP1 PUSH1 0x20 DUP1 DUP3 MSTORE PUSH1 0x7 SWAP1 DUP3 ADD MSTORE PUSH7 0x4D455353414745 PUSH1 0xC8 SHL PUSH1 0x40 DUP3 ADD MSTORE PUSH1 0x60 ADD SWAP1 JUMP JUMPDEST PUSH1 0x0 PUSH1 0x40 MLOAD PUSH1 0x20 ADD PUSH2 0x840 SWAP1 PUSH1 0x20 DUP1 DUP3 MSTORE PUSH1 0x7 SWAP1 DUP3 ADD MSTORE PUSH7 0x21A922A0AA27A9 PUSH1 0xC9 SHL PUSH1 0x40 DUP3 ADD MSTORE PUSH1 0x60 ADD SWAP1 JUMP JUMPDEST PUSH1 0x0 PUSH1 0x40 MLOAD PUSH1 0x20 ADD PUSH2 0x840 SWAP1 PUSH1 0x20 DUP1 DUP3 MSTORE PUSH1 0xA SWAP1 DUP3 ADD MSTORE PUSH10 0x5349474E415455524553 PUSH1 0xB0 SHL PUSH1 0x40 DUP3 ADD MSTORE PUSH1 0x60 ADD SWAP1 JUMP JUMPDEST PUSH1 0x0 PUSH2 0xA16 PUSH2 0x11BB JUMP JUMPDEST PUSH1 0x0 PUSH2 0xA20 PUSH2 0x78F JUMP JUMPDEST SWAP1 POP DUP1 PUSH1 0x1 PUSH1 0x1 PUSH1 0xA0 SHL SUB AND PUSH4 0xF52F8570 PUSH2 0xA39 PUSH2 0x85B JUMP JUMPDEST PUSH2 0xA41 PUSH2 0xE9B JUMP JUMPDEST PUSH2 0xA49 PUSH2 0xE07 JUMP JUMPDEST PUSH2 0xA51 PUSH2 0xB68 JUMP JUMPDEST PUSH1 0x40 MLOAD DUP6 PUSH4 0xFFFFFFFF AND PUSH1 0xE0 SHL DUP2 MSTORE PUSH1 0x4 ADD PUSH2 0xA70 SWAP5 SWAP4 SWAP3 SWAP2 SWAP1 PUSH2 0x1B15 JUMP JUMPDEST PUSH1 0x20 PUSH1 0x40 MLOAD DUP1 DUP4 SUB DUP2 PUSH1 0x0 DUP8 GAS CALL ISZERO DUP1 ISZERO PUSH2 0xA8F JUMPI RETURNDATASIZE PUSH1 0x0 DUP1 RETURNDATACOPY RETURNDATASIZE PUSH1 0x0 REVERT JUMPDEST POP POP POP POP PUSH1 0x40 MLOAD RETURNDATASIZE PUSH1 0x1F NOT PUSH1 0x1F DUP3 ADD AND DUP3 ADD DUP1 PUSH1 0x40 MSTORE POP DUP2 ADD SWAP1 PUSH2 0xAB3 SWAP2 SWAP1 PUSH2 0x1B68 JUMP JUMPDEST SWAP2 POP POP SWAP1 JUMP JUMPDEST PUSH1 0x0 PUSH1 0x40 MLOAD PUSH1 0x20 ADD PUSH2 0x840 SWAP1 PUSH1 0x20 DUP1 DUP3 MSTORE PUSH1 0xB SWAP1 DUP3 ADD MSTORE PUSH11 0x1253925512505312569151 PUSH1 0xAA SHL PUSH1 0x40 DUP3 ADD MSTORE PUSH1 0x60 ADD SWAP1 JUMP JUMPDEST PUSH1 0x0 PUSH1 0x40 MLOAD PUSH1 0x20 ADD PUSH2 0x840 SWAP1 PUSH1 0x20 DUP1 DUP3 MSTORE PUSH1 0xF SWAP1 DUP3 ADD MSTORE PUSH15 0x53544152545F54494D455354414D5 PUSH1 0x8C SHL PUSH1 0x40 DUP3 ADD MSTORE PUSH1 0x60 ADD SWAP1 JUMP JUMPDEST PUSH1 0x0 PUSH2 0x2710 PUSH2 0xB2C PUSH2 0xB48 JUMP JUMPDEST PUSH2 0xB34 PUSH2 0x944 JUMP JUMPDEST PUSH2 0xB3E SWAP2 SWAP1 PUSH2 0x1B9B JUMP JUMPDEST PUSH2 0x703 SWAP2 SWAP1 PUSH2 0x1BB2 JUMP JUMPDEST PUSH1 0x0 PUSH1 0x2 PUSH1 0x0 PUSH2 0x738 PUSH2 0x80B JUMP JUMPDEST PUSH2 0xB5E PUSH2 0xF13 JUMP JUMPDEST PUSH2 0x7EA PUSH1 0x0 PUSH2 0x122C JUMP JUMPDEST PUSH1 0x60 PUSH1 0x0 DUP1 PUSH2 0x869 PUSH2 0xD14 JUMP JUMPDEST PUSH2 0xB7D PUSH2 0xF13 JUMP JUMPDEST PUSH2 0x727 DUP2 PUSH2 0x12A3 JUMP JUMPDEST PUSH1 0x0 PUSH1 0x40 MLOAD PUSH1 0x20 ADD PUSH2 0x840 SWAP1 PUSH1 0x20 DUP1 DUP3 MSTORE PUSH1 0x8 SWAP1 DUP3 ADD MSTORE PUSH8 0x11561150D5551151 PUSH1 0xC2 SHL PUSH1 0x40 DUP3 ADD MSTORE PUSH1 0x60 ADD SWAP1 JUMP JUMPDEST PUSH1 0x0 PUSH2 0x7CB DUP3 PUSH1 0x16 PUSH1 0x0 PUSH2 0xBC6 PUSH2 0xDDA JUMP JUMPDEST DUP2 MSTORE PUSH1 0x20 ADD SWAP1 DUP2 MSTORE PUSH1 0x20 ADD PUSH1 0x0 KECCAK256 PUSH2 0x12E3 SWAP1 SWAP2 SWAP1 PUSH4 0xFFFFFFFF AND JUMP JUMPDEST PUSH2 0x7EA PUSH2 0x1305 JUMP JUMPDEST PUSH1 0x0 PUSH2 0xBF4 PUSH2 0x785 JUMP JUMPDEST DUP1 ISZERO PUSH2 0x703 JUMPI POP PUSH2 0xC03 PUSH2 0x74C JUMP JUMPDEST ISZERO SWAP1 POP SWAP1 JUMP JUMPDEST PUSH1 0x0 PUSH2 0xC13 PUSH2 0xBEA JUMP JUMPDEST ISZERO PUSH2 0xC2B JUMPI TIMESTAMP PUSH2 0xC21 PUSH2 0xCE7 JUMP JUMPDEST PUSH2 0x703 SWAP2 SWAP1 PUSH2 0x1BD4 JUMP JUMPDEST PUSH2 0xC33 PUSH2 0x785 JUMP JUMPDEST ISZERO PUSH2 0xC40 JUMPI PUSH2 0x703 PUSH2 0x72A JUMP JUMPDEST POP PUSH1 0x0 SWAP1 JUMP JUMPDEST PUSH1 0x0 PUSH2 0xC50 PUSH2 0xB1F JUMP JUMPDEST PUSH2 0xC58 PUSH2 0x6DF JUMP JUMPDEST LT ISZERO SWAP1 POP SWAP1 JUMP JUMPDEST PUSH1 0x0 PUSH2 0x7CB DUP3 PUSH1 0x16 PUSH1 0x0 PUSH2 0x7AF PUSH2 0x9DC JUMP JUMPDEST PUSH1 0x0 PUSH1 0x4 PUSH1 0x0 PUSH2 0x6C0 PUSH2 0xD3E JUMP JUMPDEST PUSH1 0x0 PUSH1 0x40 MLOAD PUSH1 0x20 ADD PUSH2 0x840 SWAP1 PUSH1 0x20 DUP1 DUP3 MSTORE PUSH1 0x8 SWAP1 DUP3 ADD MSTORE PUSH8 0x222AA920AA24A7A7 PUSH1 0xC1 SHL PUSH1 0x40 DUP3 ADD MSTORE PUSH1 0x60 ADD SWAP1 JUMP JUMPDEST PUSH1 0x0 PUSH1 0x5 PUSH1 0x0 PUSH2 0x76C PUSH2 0xD7A JUMP JUMPDEST PUSH1 0x0 PUSH1 0x40 MLOAD PUSH1 0x20 ADD PUSH2 0x840 SWAP1 PUSH1 0x20 DUP1 DUP3 MSTORE PUSH1 0x6 SWAP1 DUP3 ADD MSTORE PUSH6 0x15105491D155 PUSH1 0xD2 SHL PUSH1 0x40 DUP3 ADD MSTORE PUSH1 0x60 ADD SWAP1 JUMP JUMPDEST PUSH1 0x0 PUSH2 0xCF1 PUSH2 0x72A JUMP JUMPDEST PUSH2 0xCF9 PUSH2 0xEA9 JUMP JUMPDEST PUSH2 0x703 SWAP2 SWAP1 PUSH2 0x1BE7 JUMP JUMPDEST PUSH2 0xD0B PUSH2 0xF13 JUMP JUMPDEST PUSH2 0x727 DUP2 PUSH2 0x131E JUMP JUMPDEST PUSH1 0x0 PUSH1 0x40 MLOAD PUSH1 0x20 ADD PUSH2 0x840 SWAP1 PUSH1 0x20 DUP1 DUP3 MSTORE PUSH1 0x4 SWAP1 DUP3 ADD MSTORE PUSH4 0x44415441 PUSH1 0xE0 SHL PUSH1 0x40 DUP3 ADD MSTORE PUSH1 0x60 ADD SWAP1 JUMP JUMPDEST PUSH1 0x0 PUSH1 0x40 MLOAD PUSH1 0x20 ADD PUSH2 0x840 SWAP1 PUSH1 0x20 DUP1 DUP3 MSTORE PUSH1 0x5 SWAP1 DUP3 ADD MSTORE PUSH5 0x27ABA722A9 PUSH1 0xD9 SHL PUSH1 0x40 DUP3 ADD MSTORE PUSH1 0x60 ADD SWAP1 JUMP JUMPDEST PUSH2 0xD71 PUSH2 0xF13 JUMP JUMPDEST PUSH2 0x727 DUP2 PUSH2 0x1368 JUMP JUMPDEST PUSH1 0x0 PUSH1 0x40 MLOAD PUSH1 0x20 ADD PUSH2 0x840 SWAP1 PUSH1 0x20 DUP1 DUP3 MSTORE PUSH1 0x6 SWAP1 DUP3 ADD MSTORE PUSH6 0x141054D4D151 PUSH1 0xD2 SHL PUSH1 0x40 DUP3 ADD MSTORE PUSH1 0x60 ADD SWAP1 JUMP JUMPDEST PUSH1 0x0 PUSH2 0x7CB DUP3 PUSH1 0x16 PUSH1 0x0 PUSH2 0xBC6 PUSH2 0x9DC JUMP JUMPDEST PUSH2 0xDC0 PUSH2 0xF13 JUMP JUMPDEST PUSH2 0x727 DUP2 PUSH2 0x13A8 JUMP JUMPDEST PUSH2 0xDD1 PUSH2 0xF13 JUMP JUMPDEST PUSH2 0x727 DUP2 PUSH2 0x13E8 JUMP JUMPDEST PUSH1 0x0 PUSH1 0x40 MLOAD PUSH1 0x20 ADD PUSH2 0x840 SWAP1 PUSH1 0x20 DUP1 DUP3 MSTORE PUSH1 0x7 SWAP1 DUP3 ADD MSTORE PUSH7 0x5349474E455253 PUSH1 0xC8 SHL PUSH1 0x40 DUP3 ADD MSTORE PUSH1 0x60 ADD SWAP1 JUMP JUMPDEST PUSH1 0x0 PUSH1 0x4 PUSH1 0x0 PUSH2 0x6C0 PUSH2 0xCBB JUMP JUMPDEST PUSH1 0x0 PUSH1 0x40 MLOAD PUSH1 0x20 ADD PUSH2 0x840 SWAP1 PUSH1 0x20 DUP1 DUP3 MSTORE PUSH1 0x1A SWAP1 DUP3 ADD MSTORE PUSH32 0x4D554C54495F5349475F50524F504F53414C5F464143544F5259000000000000 PUSH1 0x40 DUP3 ADD MSTORE PUSH1 0x60 ADD SWAP1 JUMP JUMPDEST PUSH1 0x0 PUSH1 0x40 MLOAD PUSH1 0x20 ADD PUSH2 0x840 SWAP1 PUSH1 0x20 DUP1 DUP3 MSTORE PUSH1 0x1B SWAP1 DUP3 ADD MSTORE PUSH32 0x5245464552454E44554D5F50524F504F53414C5F464143544F52590000000000 PUSH1 0x40 DUP3 ADD MSTORE PUSH1 0x60 ADD SWAP1 JUMP JUMPDEST PUSH1 0x60 PUSH1 0x1 PUSH1 0x0 PUSH2 0x869 PUSH2 0x982 JUMP JUMPDEST PUSH1 0x0 PUSH1 0x2 PUSH1 0x0 PUSH2 0x738 PUSH2 0xAEA JUMP JUMPDEST PUSH2 0xEBF PUSH2 0xF13 JUMP JUMPDEST PUSH2 0x727 DUP2 PUSH2 0x141F JUMP JUMPDEST PUSH2 0xED0 PUSH2 0xF13 JUMP JUMPDEST PUSH2 0x727 DUP2 PUSH2 0x122C JUMP JUMPDEST PUSH1 0x0 PUSH1 0x4 PUSH1 0x0 PUSH2 0x6C0 PUSH2 0x916 JUMP JUMPDEST PUSH2 0xEEF PUSH2 0xF13 JUMP JUMPDEST PUSH2 0x727 DUP2 PUSH2 0x14BD JUMP JUMPDEST PUSH2 0xF00 PUSH2 0xF13 JUMP JUMPDEST PUSH2 0x727 DUP2 PUSH2 0x14F4 JUMP JUMPDEST PUSH1 0x0 PUSH2 0x7CB DUP3 SLOAD SWAP1 JUMP JUMPDEST CALLER PUSH2 0xF1C PUSH2 0xC71 JUMP JUMPDEST PUSH1 0x1 PUSH1 0x1 PUSH1 0xA0 SHL SUB AND EQ PUSH2 0x7EA JUMPI PUSH1 0x40 MLOAD PUSH3 0x461BCD PUSH1 0xE5 SHL DUP2 MSTORE PUSH1 0x20 PUSH1 0x4 DUP3 ADD MSTORE PUSH1 0x15 PUSH1 0x24 DUP3 ADD MSTORE PUSH21 0x37BBB732B9141490109E9036B9B39739B2B73232B9 PUSH1 0x59 SHL PUSH1 0x44 DUP3 ADD MSTORE PUSH1 0x64 ADD JUMPDEST PUSH1 0x40 MLOAD DUP1 SWAP2 SUB SWAP1 REVERT JUMPDEST PUSH2 0xF78 DUP2 PUSH2 0x1595 JUMP JUMPDEST DUP1 PUSH1 0x40 MLOAD PUSH2 0xF86 SWAP2 SWAP1 PUSH2 0x1BFA JUMP JUMPDEST PUSH1 0x40 MLOAD SWAP1 DUP2 SWAP1 SUB DUP2 KECCAK256 SWAP1 PUSH32 0x7935B61140DB6ED0DBBD02B692ADFAA25439AB982BD6EEA1879AE7BE537CBFED SWAP1 PUSH1 0x0 SWAP1 LOG2 POP JUMP JUMPDEST PUSH1 0x0 PUSH2 0xFC5 DUP4 DUP4 PUSH2 0x15C0 JUMP JUMPDEST SWAP4 SWAP3 POP POP POP JUMP JUMPDEST PUSH2 0xFD5 DUP2 PUSH2 0x15EA JUMP JUMPDEST PUSH1 0x40 MLOAD PUSH1 0x1 PUSH1 0x1 PUSH1 0xA0 SHL SUB DUP3 AND SWAP1 PUSH32 0xD09C0624CACA0531EA4B7BD26613634CF337F4065EF6AFF84501CBC8182C5355 SWAP1 PUSH1 0x0 SWAP1 LOG2 POP JUMP JUMPDEST PUSH2 0x1014 PUSH2 0x162C JUMP JUMPDEST PUSH2 0x101C PUSH2 0x1680 JUMP JUMPDEST PUSH2 0x1024 PUSH2 0x16D5 JUMP JUMPDEST PUSH2 0x102D CALLER PUSH2 0xBB4 JUMP JUMPDEST PUSH2 0x1079 JUMPI PUSH1 0x40 MLOAD PUSH3 0x461BCD PUSH1 0xE5 SHL DUP2 MSTORE PUSH1 0x20 PUSH1 0x4 DUP3 ADD MSTORE PUSH1 0x1D PUSH1 0x24 DUP3 ADD MSTORE PUSH32 0x4D756C746953696750726F706F73616C3A202169735369676E65722829000000 PUSH1 0x44 DUP3 ADD MSTORE PUSH1 0x64 ADD PUSH2 0xF66 JUMP JUMPDEST PUSH2 0x1082 CALLER PUSH2 0xDA6 JUMP JUMPDEST ISZERO PUSH2 0x10CF JUMPI PUSH1 0x40 MLOAD PUSH3 0x461BCD PUSH1 0xE5 SHL DUP2 MSTORE PUSH1 0x20 PUSH1 0x4 DUP3 ADD MSTORE PUSH1 0x1D PUSH1 0x24 DUP3 ADD MSTORE PUSH32 0x4D756C746953696750726F706F73616C3A206861735369676E65642829000000 PUSH1 0x44 DUP3 ADD MSTORE PUSH1 0x64 ADD PUSH2 0xF66 JUMP JUMPDEST PUSH2 0x10FB CALLER PUSH1 0x16 PUSH1 0x0 PUSH2 0x10DF PUSH2 0x9DC JUMP JUMPDEST DUP2 MSTORE PUSH1 0x20 ADD SWAP1 DUP2 MSTORE PUSH1 0x20 ADD PUSH1 0x0 KECCAK256 PUSH2 0x172A SWAP1 SWAP2 SWAP1 PUSH4 0xFFFFFFFF AND JUMP JUMPDEST POP PUSH2 0x1104 PUSH2 0x173F JUMP JUMPDEST PUSH1 0x40 MLOAD CALLER SWAP1 PUSH32 0x568AEBAE0F7DC6C96727FB4CDFDF7ADD45FEC43FFFD69B3FA71EA0898A27F8CC SWAP1 PUSH1 0x0 SWAP1 LOG2 JUMP JUMPDEST PUSH2 0x113A DUP2 PUSH2 0x17A5 JUMP JUMPDEST DUP1 PUSH1 0x40 MLOAD PUSH2 0x1148 SWAP2 SWAP1 PUSH2 0x1BFA JUMP JUMPDEST PUSH1 0x40 MLOAD SWAP1 DUP2 SWAP1 SUB DUP2 KECCAK256 SWAP1 PUSH32 0x3D7F415C35B881F2D0A109B3D9A1377E1E14AFEC5CC1FD06B563ED160C5E2630 SWAP1 PUSH1 0x0 SWAP1 LOG2 POP JUMP JUMPDEST PUSH2 0x1184 DUP2 PUSH2 0x17B2 JUMP JUMPDEST PUSH1 0x40 MLOAD PUSH1 0x1 PUSH1 0x1 PUSH1 0xA0 SHL SUB DUP3 AND SWAP1 PUSH32 0xD4396A7E1EE1013C611432F59B862687DB5C35B5AE1FD43334CCBA88FAC8E678 SWAP1 PUSH1 0x0 SWAP1 LOG2 POP JUMP JUMPDEST PUSH2 0x11C3 PUSH2 0x162C JUMP JUMPDEST PUSH2 0x11CB PUSH2 0x17BF JUMP JUMPDEST PUSH2 0x11D3 PUSH2 0x16D5 JUMP JUMPDEST PUSH1 0x1 PUSH1 0x5 PUSH1 0x0 PUSH2 0x11E1 PUSH2 0xB86 JUMP JUMPDEST DUP2 MSTORE PUSH1 0x20 DUP2 ADD SWAP2 SWAP1 SWAP2 MSTORE PUSH1 0x40 SWAP1 DUP2 ADD PUSH1 0x0 SWAP1 DUP2 KECCAK256 DUP1 SLOAD PUSH1 0xFF NOT AND SWAP4 ISZERO ISZERO SWAP4 SWAP1 SWAP4 OR SWAP1 SWAP3 SSTORE MLOAD PUSH32 0x68F46C45A243A0E9065A97649FAF9A5AFE1692F2679E650C2F853B9CD734CC0E SWAP2 SWAP1 LOG1 JUMP JUMPDEST PUSH1 0x0 PUSH2 0x1236 PUSH2 0xC71 JUMP JUMPDEST SWAP1 POP DUP2 PUSH1 0x4 PUSH1 0x0 PUSH2 0x1245 PUSH2 0xD3E JUMP JUMPDEST DUP2 MSTORE PUSH1 0x20 DUP2 ADD SWAP2 SWAP1 SWAP2 MSTORE PUSH1 0x40 SWAP1 DUP2 ADD PUSH1 0x0 SWAP1 DUP2 KECCAK256 DUP1 SLOAD PUSH1 0x1 PUSH1 0x1 PUSH1 0xA0 SHL SUB NOT AND PUSH1 0x1 PUSH1 0x1 PUSH1 0xA0 SHL SUB SWAP5 DUP6 AND OR SWAP1 SSTORE SWAP1 MLOAD DUP5 DUP4 AND SWAP3 DUP5 AND SWAP2 PUSH32 0x8BE0079C531659141344CD1FD0A4F28419497F9722A3DAAFE3B4186F6B6457E0 SWAP2 LOG3 POP POP JUMP JUMPDEST PUSH2 0x12AC DUP2 PUSH2 0x1813 JUMP JUMPDEST PUSH1 0x40 MLOAD PUSH1 0x1 PUSH1 0x1 PUSH1 0xA0 SHL SUB DUP3 AND SWAP1 PUSH32 0x3BFB4BBF112628248058745A3C57E35B13369386E474B8E56C552F3063A4A196 SWAP1 PUSH1 0x0 SWAP1 LOG2 POP JUMP JUMPDEST PUSH1 0x1 PUSH1 0x1 PUSH1 0xA0 SHL SUB DUP2 AND PUSH1 0x0 SWAP1 DUP2 MSTORE PUSH1 0x1 DUP4 ADD PUSH1 0x20 MSTORE PUSH1 0x40 DUP2 KECCAK256 SLOAD ISZERO ISZERO PUSH2 0xFC5 JUMP JUMPDEST PUSH2 0x130E CALLER PUSH2 0x122C JUMP JUMPDEST PUSH2 0x1316 PUSH2 0x1820 JUMP JUMPDEST PUSH2 0x7EA PUSH2 0x1829 JUMP JUMPDEST PUSH2 0x1327 DUP2 PUSH2 0x18AD JUMP JUMPDEST DUP1 PUSH1 0x40 MLOAD PUSH2 0x1335 SWAP2 SWAP1 PUSH2 0x1BFA JUMP JUMPDEST PUSH1 0x40 MLOAD SWAP1 DUP2 SWAP1 SUB DUP2 KECCAK256 SWAP1 PUSH32 0x648803D94E57304C319CBB4AF7A1B1B5D74577E581F5F6CF5E8AF9A932BB0D54 SWAP1 PUSH1 0x0 SWAP1 LOG2 POP JUMP JUMPDEST PUSH2 0x1371 DUP2 PUSH2 0x18B9 JUMP JUMPDEST PUSH1 0x40 MLOAD PUSH1 0x1 PUSH1 0x1 PUSH1 0xA0 SHL SUB DUP3 AND SWAP1 PUSH32 0xDA041D56F89460D53852E1B9F9576DC62EB726BDE1008706DD87CDFE647A6973 SWAP1 PUSH1 0x0 SWAP1 LOG2 POP JUMP JUMPDEST PUSH2 0x13B1 DUP2 PUSH2 0x18C6 JUMP JUMPDEST PUSH1 0x40 MLOAD PUSH1 0x1 PUSH1 0x1 PUSH1 0xA0 SHL SUB DUP3 AND SWAP1 PUSH32 0x35C343C1B11E5CC8AE3B77869ED9A3D1C4191286EDCFA2AD41E689AB012EADC1 SWAP1 PUSH1 0x0 SWAP1 LOG2 POP JUMP JUMPDEST PUSH2 0x13F1 DUP2 PUSH2 0x18D3 JUMP JUMPDEST PUSH1 0x40 MLOAD DUP2 SWAP1 PUSH32 0x2B9EA1248DAF3A58246CA1B3401344F8F1809F146BAD26CCC6059CBA160ED221 SWAP1 PUSH1 0x0 SWAP1 LOG2 POP JUMP JUMPDEST PUSH2 0x1428 DUP2 PUSH2 0xBB4 JUMP JUMPDEST ISZERO PUSH2 0x1475 JUMPI PUSH1 0x40 MLOAD PUSH3 0x461BCD PUSH1 0xE5 SHL DUP2 MSTORE PUSH1 0x20 PUSH1 0x4 DUP3 ADD MSTORE PUSH1 0x1C PUSH1 0x24 DUP3 ADD MSTORE PUSH32 0x4D756C746953696750726F706F73616C3A2069735369676E6572282900000000 PUSH1 0x44 DUP3 ADD MSTORE PUSH1 0x64 ADD PUSH2 0xF66 JUMP JUMPDEST PUSH2 0x1485 DUP2 PUSH1 0x16 PUSH1 0x0 PUSH2 0x10DF PUSH2 0xDDA JUMP JUMPDEST POP PUSH1 0x40 MLOAD PUSH1 0x1 PUSH1 0x1 PUSH1 0xA0 SHL SUB DUP3 AND SWAP1 PUSH32 0x47D1C22A25BB3A5D4E481B9B1E6944C2EADE3181A0A20B495ED61D35B5323F24 SWAP1 PUSH1 0x0 SWAP1 LOG2 POP JUMP JUMPDEST PUSH2 0x14C6 DUP2 PUSH2 0x18F4 JUMP JUMPDEST PUSH1 0x40 MLOAD DUP2 SWAP1 PUSH32 0x234A8B70E70D5FC5ACE24D19C8C988EDFD5DC006D6F8356CAB0273E2F084A909 SWAP1 PUSH1 0x0 SWAP1 LOG2 POP JUMP JUMPDEST PUSH2 0x2710 DUP2 GT ISZERO PUSH2 0x1546 JUMPI PUSH1 0x40 MLOAD PUSH3 0x461BCD PUSH1 0xE5 SHL DUP2 MSTORE PUSH1 0x20 PUSH1 0x4 DUP3 ADD MSTORE PUSH1 0x1F PUSH1 0x24 DUP3 ADD MSTORE PUSH32 0x4D756C746953696750726F706F73616C3A206F7574206F6620626F756E647300 PUSH1 0x44 DUP3 ADD MSTORE PUSH1 0x64 ADD PUSH2 0xF66 JUMP JUMPDEST DUP1 PUSH1 0x2 PUSH1 0x0 PUSH2 0x1553 PUSH2 0x80B JUMP JUMPDEST DUP2 MSTORE PUSH1 0x20 ADD SWAP1 DUP2 MSTORE PUSH1 0x20 ADD PUSH1 0x0 KECCAK256 DUP2 SWAP1 SSTORE POP DUP1 PUSH32 0x79BA8674A90CD5C280A86C18D9B4FA843C1BC0A11C3AFAF2C50DF52C0CA0FB06 PUSH1 0x40 MLOAD PUSH1 0x40 MLOAD DUP1 SWAP2 SUB SWAP1 LOG2 POP JUMP JUMPDEST DUP1 PUSH1 0x1 PUSH1 0x0 PUSH2 0x15A2 PUSH2 0x955 JUMP JUMPDEST DUP2 MSTORE PUSH1 0x20 ADD SWAP1 DUP2 MSTORE PUSH1 0x20 ADD PUSH1 0x0 KECCAK256 SWAP1 DUP2 PUSH2 0x15BC SWAP2 SWAP1 PUSH2 0x1C65 JUMP JUMPDEST POP POP JUMP JUMPDEST PUSH1 0x0 DUP3 PUSH1 0x0 ADD DUP3 DUP2 SLOAD DUP2 LT PUSH2 0x15D7 JUMPI PUSH2 0x15D7 PUSH2 0x1D25 JUMP JUMPDEST SWAP1 PUSH1 0x0 MSTORE PUSH1 0x20 PUSH1 0x0 KECCAK256 ADD SLOAD SWAP1 POP SWAP3 SWAP2 POP POP JUMP JUMPDEST DUP1 PUSH1 0x4 PUSH1 0x0 PUSH2 0x15F7 PUSH2 0xE15 JUMP JUMPDEST DUP2 MSTORE PUSH1 0x20 ADD SWAP1 DUP2 MSTORE PUSH1 0x20 ADD PUSH1 0x0 KECCAK256 PUSH1 0x0 PUSH2 0x100 EXP DUP2 SLOAD DUP2 PUSH1 0x1 PUSH1 0x1 PUSH1 0xA0 SHL SUB MUL NOT AND SWAP1 DUP4 PUSH1 0x1 PUSH1 0x1 PUSH1 0xA0 SHL SUB AND MUL OR SWAP1 SSTORE POP POP JUMP JUMPDEST PUSH2 0x1634 PUSH2 0xBEA JUMP JUMPDEST PUSH2 0x7EA JUMPI PUSH1 0x40 MLOAD PUSH3 0x461BCD PUSH1 0xE5 SHL DUP2 MSTORE PUSH1 0x20 PUSH1 0x4 DUP3 ADD MSTORE PUSH1 0x1D PUSH1 0x24 DUP3 ADD MSTORE PUSH32 0x4D756C746953696750726F706F73616C3A2021636F756E74696E672829000000 PUSH1 0x44 DUP3 ADD MSTORE PUSH1 0x64 ADD PUSH2 0xF66 JUMP JUMPDEST PUSH2 0x1688 PUSH2 0xCAD JUMP JUMPDEST ISZERO PUSH2 0x7EA JUMPI PUSH1 0x40 MLOAD PUSH3 0x461BCD PUSH1 0xE5 SHL DUP2 MSTORE PUSH1 0x20 PUSH1 0x4 DUP3 ADD MSTORE PUSH1 0x1A PUSH1 0x24 DUP3 ADD MSTORE PUSH32 0x4D756C746953696750726F706F73616C3A207061737365642829000000000000 PUSH1 0x44 DUP3 ADD MSTORE PUSH1 0x64 ADD PUSH2 0xF66 JUMP JUMPDEST PUSH2 0x16DD PUSH2 0x7EC JUMP JUMPDEST ISZERO PUSH2 0x7EA JUMPI PUSH1 0x40 MLOAD PUSH3 0x461BCD PUSH1 0xE5 SHL DUP2 MSTORE PUSH1 0x20 PUSH1 0x4 DUP3 ADD MSTORE PUSH1 0x1C PUSH1 0x24 DUP3 ADD MSTORE PUSH32 0x4D756C746953696750726F706F73616C3A206578656375746564282900000000 PUSH1 0x44 DUP3 ADD MSTORE PUSH1 0x64 ADD PUSH2 0xF66 JUMP JUMPDEST PUSH1 0x0 PUSH2 0xFC5 DUP4 PUSH1 0x1 PUSH1 0x1 PUSH1 0xA0 SHL SUB DUP5 AND PUSH2 0x1901 JUMP JUMPDEST PUSH2 0x1747 PUSH2 0xC46 JUMP JUMPDEST ISZERO PUSH2 0x7EA JUMPI PUSH1 0x1 PUSH1 0x5 PUSH1 0x0 PUSH2 0x175A PUSH2 0xD7A JUMP JUMPDEST DUP2 MSTORE PUSH1 0x20 DUP2 ADD SWAP2 SWAP1 SWAP2 MSTORE PUSH1 0x40 SWAP1 DUP2 ADD PUSH1 0x0 SWAP1 DUP2 KECCAK256 DUP1 SLOAD PUSH1 0xFF NOT AND SWAP4 ISZERO ISZERO SWAP4 SWAP1 SWAP4 OR SWAP1 SWAP3 SSTORE MLOAD PUSH32 0x5AA8A44622C21066164C551945CAF713792E9FBEE8CE54BB83CB3D5410549DFE SWAP2 SWAP1 LOG1 JUMP JUMPDEST DUP1 PUSH1 0x1 PUSH1 0x0 PUSH2 0x15A2 PUSH2 0x982 JUMP JUMPDEST DUP1 PUSH1 0x4 PUSH1 0x0 PUSH2 0x15F7 PUSH2 0x9AF JUMP JUMPDEST PUSH2 0x17C7 PUSH2 0xCAD JUMP JUMPDEST PUSH2 0x7EA JUMPI PUSH1 0x40 MLOAD PUSH3 0x461BCD PUSH1 0xE5 SHL DUP2 MSTORE PUSH1 0x20 PUSH1 0x4 DUP3 ADD MSTORE PUSH1 0x1B PUSH1 0x24 DUP3 ADD MSTORE PUSH32 0x4D756C746953696750726F706F73616C3A202170617373656428290000000000 PUSH1 0x44 DUP3 ADD MSTORE PUSH1 0x64 ADD PUSH2 0xF66 JUMP JUMPDEST DUP1 PUSH1 0x4 PUSH1 0x0 PUSH2 0x15F7 PUSH2 0xCBB JUMP JUMPDEST PUSH2 0x7EA CALLER PUSH2 0x122C JUMP JUMPDEST PUSH2 0x1831 PUSH2 0x75E JUMP JUMPDEST ISZERO PUSH2 0x187E JUMPI PUSH1 0x40 MLOAD PUSH3 0x461BCD PUSH1 0xE5 SHL DUP2 MSTORE PUSH1 0x20 PUSH1 0x4 DUP3 ADD MSTORE PUSH1 0x1C PUSH1 0x24 DUP3 ADD MSTORE PUSH32 0x496E697469616C697A61626C653A20696E697469616C697A6564282900000000 PUSH1 0x44 DUP3 ADD MSTORE PUSH1 0x64 ADD PUSH2 0xF66 JUMP JUMPDEST PUSH1 0x1 PUSH1 0x5 PUSH1 0x0 PUSH2 0x188C PUSH2 0xAB9 JUMP JUMPDEST DUP2 MSTORE PUSH1 0x20 DUP2 ADD SWAP2 SWAP1 SWAP2 MSTORE PUSH1 0x40 ADD PUSH1 0x0 KECCAK256 DUP1 SLOAD PUSH1 0xFF NOT AND SWAP2 ISZERO ISZERO SWAP2 SWAP1 SWAP2 OR SWAP1 SSTORE JUMP JUMPDEST DUP1 PUSH1 0x0 DUP1 PUSH2 0x15A2 PUSH2 0xD14 JUMP JUMPDEST DUP1 PUSH1 0x4 PUSH1 0x0 PUSH2 0x15F7 PUSH2 0x916 JUMP JUMPDEST DUP1 PUSH1 0x4 PUSH1 0x0 PUSH2 0x15F7 PUSH2 0xE58 JUMP JUMPDEST DUP1 PUSH1 0x2 PUSH1 0x0 PUSH2 0x18E0 PUSH2 0xAEA JUMP JUMPDEST DUP2 MSTORE PUSH1 0x20 DUP2 ADD SWAP2 SWAP1 SWAP2 MSTORE PUSH1 0x40 ADD PUSH1 0x0 KECCAK256 SSTORE POP JUMP JUMPDEST DUP1 PUSH1 0x2 PUSH1 0x0 PUSH2 0x18E0 PUSH2 0xC7F JUMP JUMPDEST PUSH1 0x0 DUP2 DUP2 MSTORE PUSH1 0x1 DUP4 ADD PUSH1 0x20 MSTORE PUSH1 0x40 DUP2 KECCAK256 SLOAD PUSH2 0x1948 JUMPI POP DUP2 SLOAD PUSH1 0x1 DUP2 DUP2 ADD DUP5 SSTORE PUSH1 0x0 DUP5 DUP2 MSTORE PUSH1 0x20 DUP1 DUP3 KECCAK256 SWAP1 SWAP4 ADD DUP5 SWAP1 SSTORE DUP5 SLOAD DUP5 DUP3 MSTORE DUP3 DUP7 ADD SWAP1 SWAP4 MSTORE PUSH1 0x40 SWAP1 KECCAK256 SWAP2 SWAP1 SWAP2 SSTORE PUSH2 0x7CB JUMP JUMPDEST POP PUSH1 0x0 PUSH2 0x7CB JUMP JUMPDEST PUSH4 0x4E487B71 PUSH1 0xE0 SHL PUSH1 0x0 MSTORE PUSH1 0x41 PUSH1 0x4 MSTORE PUSH1 0x24 PUSH1 0x0 REVERT JUMPDEST PUSH1 0x0 PUSH8 0xFFFFFFFFFFFFFFFF DUP1 DUP5 GT ISZERO PUSH2 0x1981 JUMPI PUSH2 0x1981 PUSH2 0x1950 JUMP JUMPDEST PUSH1 0x40 MLOAD PUSH1 0x1F DUP6 ADD PUSH1 0x1F NOT SWAP1 DUP2 AND PUSH1 0x3F ADD AND DUP2 ADD SWAP1 DUP3 DUP3 GT DUP2 DUP4 LT OR ISZERO PUSH2 0x19A9 JUMPI PUSH2 0x19A9 PUSH2 0x1950 JUMP JUMPDEST DUP2 PUSH1 0x40 MSTORE DUP1 SWAP4 POP DUP6 DUP2 MSTORE DUP7 DUP7 DUP7 ADD GT ISZERO PUSH2 0x19C2 JUMPI PUSH1 0x0 DUP1 REVERT JUMPDEST DUP6 DUP6 PUSH1 0x20 DUP4 ADD CALLDATACOPY PUSH1 0x0 PUSH1 0x20 DUP8 DUP4 ADD ADD MSTORE POP POP POP SWAP4 SWAP3 POP POP POP JUMP JUMPDEST PUSH1 0x0 PUSH1 0x20 DUP3 DUP5 SUB SLT ISZERO PUSH2 0x19EE JUMPI PUSH1 0x0 DUP1 REVERT JUMPDEST DUP2 CALLDATALOAD PUSH8 0xFFFFFFFFFFFFFFFF DUP2 GT ISZERO PUSH2 0x1A05 JUMPI PUSH1 0x0 DUP1 REVERT JUMPDEST DUP3 ADD PUSH1 0x1F DUP2 ADD DUP5 SGT PUSH2 0x1A16 JUMPI PUSH1 0x0 DUP1 REVERT JUMPDEST PUSH2 0x1A25 DUP5 DUP3 CALLDATALOAD PUSH1 0x20 DUP5 ADD PUSH2 0x1966 JUMP JUMPDEST SWAP5 SWAP4 POP POP POP POP JUMP JUMPDEST PUSH1 0x0 PUSH1 0x20 DUP3 DUP5 SUB SLT ISZERO PUSH2 0x1A3F JUMPI PUSH1 0x0 DUP1 REVERT JUMPDEST POP CALLDATALOAD SWAP2 SWAP1 POP JUMP JUMPDEST PUSH1 0x1 PUSH1 0x1 PUSH1 0xA0 SHL SUB DUP2 AND DUP2 EQ PUSH2 0x727 JUMPI PUSH1 0x0 DUP1 REVERT JUMPDEST PUSH1 0x0 PUSH1 0x20 DUP3 DUP5 SUB SLT ISZERO PUSH2 0x1A6D JUMPI PUSH1 0x0 DUP1 REVERT JUMPDEST DUP2 CALLDATALOAD PUSH2 0xFC5 DUP2 PUSH2 0x1A46 JUMP JUMPDEST PUSH1 0x0 JUMPDEST DUP4 DUP2 LT ISZERO PUSH2 0x1A93 JUMPI DUP2 DUP2 ADD MLOAD DUP4 DUP3 ADD MSTORE PUSH1 0x20 ADD PUSH2 0x1A7B JUMP JUMPDEST POP POP PUSH1 0x0 SWAP2 ADD MSTORE JUMP JUMPDEST PUSH1 0x0 DUP2 MLOAD DUP1 DUP5 MSTORE PUSH2 0x1AB4 DUP2 PUSH1 0x20 DUP7 ADD PUSH1 0x20 DUP7 ADD PUSH2 0x1A78 JUMP JUMPDEST PUSH1 0x1F ADD PUSH1 0x1F NOT AND SWAP3 SWAP1 SWAP3 ADD PUSH1 0x20 ADD SWAP3 SWAP2 POP POP JUMP JUMPDEST PUSH1 0x20 DUP2 MSTORE PUSH1 0x0 PUSH2 0xFC5 PUSH1 0x20 DUP4 ADD DUP5 PUSH2 0x1A9C JUMP JUMPDEST PUSH1 0x1 DUP2 DUP2 SHR SWAP1 DUP3 AND DUP1 PUSH2 0x1AEF JUMPI PUSH1 0x7F DUP3 AND SWAP2 POP JUMPDEST PUSH1 0x20 DUP3 LT DUP2 SUB PUSH2 0x1B0F JUMPI PUSH4 0x4E487B71 PUSH1 0xE0 SHL PUSH1 0x0 MSTORE PUSH1 0x22 PUSH1 0x4 MSTORE PUSH1 0x24 PUSH1 0x0 REVERT JUMPDEST POP SWAP2 SWAP1 POP JUMP JUMPDEST PUSH1 0x80 DUP2 MSTORE PUSH1 0x0 PUSH2 0x1B28 PUSH1 0x80 DUP4 ADD DUP8 PUSH2 0x1A9C JUMP JUMPDEST DUP3 DUP2 SUB PUSH1 0x20 DUP5 ADD MSTORE PUSH2 0x1B3A DUP2 DUP8 PUSH2 0x1A9C JUMP JUMPDEST PUSH1 0x1 PUSH1 0x1 PUSH1 0xA0 SHL SUB DUP7 AND PUSH1 0x40 DUP6 ADD MSTORE DUP4 DUP2 SUB PUSH1 0x60 DUP6 ADD MSTORE SWAP1 POP PUSH2 0x1B5D DUP2 DUP6 PUSH2 0x1A9C JUMP JUMPDEST SWAP8 SWAP7 POP POP POP POP POP POP POP JUMP JUMPDEST PUSH1 0x0 PUSH1 0x20 DUP3 DUP5 SUB SLT ISZERO PUSH2 0x1B7A JUMPI PUSH1 0x0 DUP1 REVERT JUMPDEST DUP2 MLOAD PUSH2 0xFC5 DUP2 PUSH2 0x1A46 JUMP JUMPDEST PUSH4 0x4E487B71 PUSH1 0xE0 SHL PUSH1 0x0 MSTORE PUSH1 0x11 PUSH1 0x4 MSTORE PUSH1 0x24 PUSH1 0x0 REVERT JUMPDEST DUP1 DUP3 MUL DUP2 ISZERO DUP3 DUP3 DIV DUP5 EQ OR PUSH2 0x7CB JUMPI PUSH2 0x7CB PUSH2 0x1B85 JUMP JUMPDEST PUSH1 0x0 DUP3 PUSH2 0x1BCF JUMPI PUSH4 0x4E487B71 PUSH1 0xE0 SHL PUSH1 0x0 MSTORE PUSH1 0x12 PUSH1 0x4 MSTORE PUSH1 0x24 PUSH1 0x0 REVERT JUMPDEST POP DIV SWAP1 JUMP JUMPDEST DUP2 DUP2 SUB DUP2 DUP2 GT ISZERO PUSH2 0x7CB JUMPI PUSH2 0x7CB PUSH2 0x1B85 JUMP JUMPDEST DUP1 DUP3 ADD DUP1 DUP3 GT ISZERO PUSH2 0x7CB JUMPI PUSH2 0x7CB PUSH2 0x1B85 JUMP JUMPDEST PUSH1 0x0 DUP3 MLOAD PUSH2 0x1C0C DUP2 DUP5 PUSH1 0x20 DUP8 ADD PUSH2 0x1A78 JUMP JUMPDEST SWAP2 SWAP1 SWAP2 ADD SWAP3 SWAP2 POP POP JUMP JUMPDEST PUSH1 0x1F DUP3 GT ISZERO PUSH2 0x1C60 JUMPI PUSH1 0x0 DUP2 DUP2 MSTORE PUSH1 0x20 DUP2 KECCAK256 PUSH1 0x1F DUP6 ADD PUSH1 0x5 SHR DUP2 ADD PUSH1 0x20 DUP7 LT ISZERO PUSH2 0x1C3D JUMPI POP DUP1 JUMPDEST PUSH1 0x1F DUP6 ADD PUSH1 0x5 SHR DUP3 ADD SWAP2 POP JUMPDEST DUP2 DUP2 LT ISZERO PUSH2 0x1C5C JUMPI DUP3 DUP2 SSTORE PUSH1 0x1 ADD PUSH2 0x1C49 JUMP JUMPDEST POP POP POP JUMPDEST POP POP POP JUMP JUMPDEST DUP2 MLOAD PUSH8 0xFFFFFFFFFFFFFFFF DUP2 GT ISZERO PUSH2 0x1C7F JUMPI PUSH2 0x1C7F PUSH2 0x1950 JUMP JUMPDEST PUSH2 0x1C93 DUP2 PUSH2 0x1C8D DUP5 SLOAD PUSH2 0x1ADB JUMP JUMPDEST DUP5 PUSH2 0x1C16 JUMP JUMPDEST PUSH1 0x20 DUP1 PUSH1 0x1F DUP4 GT PUSH1 0x1 DUP2 EQ PUSH2 0x1CC8 JUMPI PUSH1 0x0 DUP5 ISZERO PUSH2 0x1CB0 JUMPI POP DUP6 DUP4 ADD MLOAD JUMPDEST PUSH1 0x0 NOT PUSH1 0x3 DUP7 SWAP1 SHL SHR NOT AND PUSH1 0x1 DUP6 SWAP1 SHL OR DUP6 SSTORE PUSH2 0x1C5C JUMP JUMPDEST PUSH1 0x0 DUP6 DUP2 MSTORE PUSH1 0x20 DUP2 KECCAK256 PUSH1 0x1F NOT DUP7 AND SWAP2 JUMPDEST DUP3 DUP2 LT ISZERO PUSH2 0x1CF7 JUMPI DUP9 DUP7 ADD MLOAD DUP3 SSTORE SWAP5 DUP5 ADD SWAP5 PUSH1 0x1 SWAP1 SWAP2 ADD SWAP1 DUP5 ADD PUSH2 0x1CD8 JUMP JUMPDEST POP DUP6 DUP3 LT ISZERO PUSH2 0x1D15 JUMPI DUP8 DUP6 ADD MLOAD PUSH1 0x0 NOT PUSH1 0x3 DUP9 SWAP1 SHL PUSH1 0xF8 AND SHR NOT AND DUP2 SSTORE JUMPDEST POP POP POP POP POP PUSH1 0x1 SWAP1 DUP2 SHL ADD SWAP1 SSTORE POP JUMP JUMPDEST PUSH4 0x4E487B71 PUSH1 0xE0 SHL PUSH1 0x0 MSTORE PUSH1 0x32 PUSH1 0x4 MSTORE PUSH1 0x24 PUSH1 0x0 REVERT INVALID LOG2 PUSH5 0x6970667358 0x22 SLT KECCAK256 SWAP2 LOG2 PUSH19 0x4E7FB569F3999509CE67791035FF98110F290C 0xC1 OR DUP7 REVERT 0xC6 LOG1 0x24 0xB3 PUSH3 0x896473 PUSH16 0x6C634300081300330000000000000000 "
		},
		"gasEstimates": {
			"creation": {
				"codeDepositCost": "1507400",
				"executionCost": "1575",
				"totalCost": "1508975"
			},
			"external": {
				"addSigner(address)": "infinite",
				"caption()": "infinite",
				"captionKey()": "475",
				"counting()": "infinite",
				"creator()": "2768",
				"creatorKey()": "519",
				"data()": "infinite",
				"dataKey()": "518",
				"duration()": "2711",
				"durationKey()": "497",
				"endTimestamp()": "infinite",
				"ended()": "infinite",
				"execute()": "infinite",
				"executed()": "2728",
				"executedKey()": "476",
				"hasSigned(address)": "infinite",
				"hasSufficientSignatures()": "infinite",
				"initialize()": "infinite",
				"initialized()": "2773",
				"initializedKey()": "497",
				"isSigner(address)": "infinite",
				"message()": "infinite",
				"messageKey()": "497",
				"multiSigProposalFactory()": "2718",
				"multiSigProposalFactoryKey()": "534",
				"owner()": "2722",
				"ownerKey()": "540",
				"passed()": "2750",
				"passedKey()": "497",
				"referendumProposalFactory()": "2739",
				"referendumProposalFactoryKey()": "468",
				"renounceOwnership()": "infinite",
				"requiredQuorum()": "2687",
				"requiredQuorumKey()": "541",
				"requiredSignaturesLength()": "infinite",
				"secondsLeft()": "infinite",
				"setCaption(string)": "infinite",
				"setCreator(address)": "infinite",
				"setData(bytes)": "infinite",
				"setDuration(uint256)": "infinite",
				"setMessage(string)": "infinite",
				"setMultiSigProposalFactory(address)": "infinite",
				"setReferendumProposalFactory(address)": "infinite",
				"setRequiredQuorum(uint256)": "infinite",
				"setStartTimestamp(uint256)": "infinite",
				"setTarget(address)": "infinite",
				"setTerminal(address)": "infinite",
				"sign()": "infinite",
				"signatures(uint256)": "infinite",
				"signaturesKey()": "541",
				"signaturesLength()": "2767",
				"signers(uint256)": "infinite",
				"signersKey()": "496",
				"signersLength()": "2810",
				"startTimestamp()": "2731",
				"startTimestampKey()": "519",
				"started()": "2738",
				"target()": "2765",
				"targetKey()": "541",
				"terminal()": "2742",
				"terminalKey()": "520",
				"transferOwnership(address)": "infinite"
			},
			"internal": {
				"_setMultiSigProposalFactory(address)": "infinite",
				"_setReferendumProposalFactory(address)": "infinite",
				"_setTerminal(address)": "infinite"
			}
		},
		"methodIdentifiers": {
			"addSigner(address)": "eb12d61e",
			"caption()": "39540e5e",
			"captionKey()": "476221fe",
			"counting()": "8554b847",
			"creator()": "02d05d3f",
			"creatorKey()": "5d32eeb5",
			"data()": "73d4a13a",
			"dataKey()": "b859dd3e",
			"duration()": "0fb5a6b4",
			"durationKey()": "902b29ed",
			"endTimestamp()": "a85adeab",
			"ended()": "12fa6feb",
			"execute()": "61461954",
			"executed()": "31a38c89",
			"executedKey()": "7870dfae",
			"hasSigned(address)": "bf6a1413",
			"hasSufficientSignatures()": "8bc301fd",
			"initialize()": "8129fc1c",
			"initialized()": "158ef93e",
			"initializedKey()": "6676e926",
			"isSigner(address)": "7df73e27",
			"message()": "e21f37ce",
			"messageKey()": "58221c6b",
			"multiSigProposalFactory()": "0065d30d",
			"multiSigProposalFactoryKey()": "d63391c0",
			"owner()": "8da5cb5b",
			"ownerKey()": "b949048b",
			"passed()": "a05b5c30",
			"passedKey()": "becfa6c0",
			"referendumProposalFactory()": "2053aa53",
			"referendumProposalFactoryKey()": "dedaace5",
			"renounceOwnership()": "715018a6",
			"requiredQuorum()": "7036014e",
			"requiredQuorumKey()": "372fdd00",
			"requiredSignaturesLength()": "6d22a0c7",
			"secondsLeft()": "86a83735",
			"setCaption(string)": "04b9f2f0",
			"setCreator(address)": "3f516018",
			"setData(bytes)": "ab62f0e1",
			"setDuration(uint256)": "f6be71d1",
			"setMessage(string)": "368b8772",
			"setMultiSigProposalFactory(address)": "297da9e1",
			"setReferendumProposalFactory(address)": "c138d1a0",
			"setRequiredQuorum(uint256)": "fc19e8ed",
			"setStartTimestamp(uint256)": "c44bef75",
			"setTarget(address)": "776d1a01",
			"setTerminal(address)": "bd9f98e1",
			"sign()": "2ca15122",
			"signatures(uint256)": "8be10194",
			"signaturesKey()": "5fabb1bf",
			"signaturesLength()": "0077158b",
			"signers(uint256)": "2079fb9a",
			"signersKey()": "c7ac0917",
			"signersLength()": "41f684f3",
			"startTimestamp()": "e6fd48bc",
			"startTimestampKey()": "6c6169bd",
			"started()": "1f2698ab",
			"target()": "d4b83992",
			"targetKey()": "a73e8e36",
			"terminal()": "f45d0bc6",
			"terminalKey()": "41346f0a",
			"transferOwnership(address)": "f2fde38b"
		}
	},
	"abi": [
		{
			"anonymous": false,
			"inputs": [
				{
					"indexed": true,
					"internalType": "string",
					"name": "caption",
					"type": "string"
				}
			],
			"name": "CaptionSet",
			"type": "event"
		},
		{
			"anonymous": false,
			"inputs": [
				{
					"indexed": true,
					"internalType": "address",
					"name": "creator",
					"type": "address"
				}
			],
			"name": "CreatorSet",
			"type": "event"
		},
		{
			"anonymous": false,
			"inputs": [
				{
					"indexed": true,
					"internalType": "bytes",
					"name": "data",
					"type": "bytes"
				}
			],
			"name": "DataSet",
			"type": "event"
		},
		{
			"anonymous": false,
			"inputs": [
				{
					"indexed": true,
					"internalType": "uint256",
					"name": "seconds_",
					"type": "uint256"
				}
			],
			"name": "DurationSet",
			"type": "event"
		},
		{
			"anonymous": false,
			"inputs": [],
			"name": "Executed",
			"type": "event"
		},
		{
			"anonymous": false,
			"inputs": [
				{
					"indexed": true,
					"internalType": "address",
					"name": "target",
					"type": "address"
				},
				{
					"indexed": true,
					"internalType": "bytes",
					"name": "data",
					"type": "bytes"
				},
				{
					"indexed": true,
					"internalType": "bytes",
					"name": "response",
					"type": "bytes"
				}
			],
			"name": "LowLevelCall",
			"type": "event"
		},
		{
			"anonymous": false,
			"inputs": [
				{
					"indexed": true,
					"internalType": "string",
					"name": "message",
					"type": "string"
				}
			],
			"name": "MessageSet",
			"type": "event"
		},
		{
			"anonymous": false,
			"inputs": [
				{
					"indexed": true,
					"internalType": "address",
					"name": "account",
					"type": "address"
				}
			],
			"name": "MultiSigProposalFactorySet",
			"type": "event"
		},
		{
			"anonymous": false,
			"inputs": [
				{
					"indexed": true,
					"internalType": "address",
					"name": "oldOwner",
					"type": "address"
				},
				{
					"indexed": true,
					"internalType": "address",
					"name": "newOwner",
					"type": "address"
				}
			],
			"name": "OwnershipTransferred",
			"type": "event"
		},
		{
			"anonymous": false,
			"inputs": [],
			"name": "Passed",
			"type": "event"
		},
		{
			"anonymous": false,
			"inputs": [
				{
					"indexed": true,
					"internalType": "address",
					"name": "account",
					"type": "address"
				}
			],
			"name": "ReferendumProposalFactorySet",
			"type": "event"
		},
		{
			"anonymous": false,
			"inputs": [
				{
					"indexed": true,
					"internalType": "uint256",
					"name": "bp",
					"type": "uint256"
				}
			],
			"name": "RequiredQuorumSet",
			"type": "event"
		},
		{
			"anonymous": false,
			"inputs": [
				{
					"indexed": true,
					"internalType": "address",
					"name": "signer",
					"type": "address"
				}
			],
			"name": "Signed",
			"type": "event"
		},
		{
			"anonymous": false,
			"inputs": [
				{
					"indexed": true,
					"internalType": "address",
					"name": "signer",
					"type": "address"
				}
			],
			"name": "SignerAdded",
			"type": "event"
		},
		{
			"anonymous": false,
			"inputs": [
				{
					"indexed": true,
					"internalType": "uint256",
					"name": "timestamp",
					"type": "uint256"
				}
			],
			"name": "StartTimestampSet",
			"type": "event"
		},
		{
			"anonymous": false,
			"inputs": [
				{
					"indexed": true,
					"internalType": "address",
					"name": "target",
					"type": "address"
				}
			],
			"name": "TargetSet",
			"type": "event"
		},
		{
			"anonymous": false,
			"inputs": [
				{
					"indexed": true,
					"internalType": "address",
					"name": "account",
					"type": "address"
				}
			],
			"name": "TerminalSet",
			"type": "event"
		},
		{
			"inputs": [
				{
					"internalType": "address",
					"name": "account",
					"type": "address"
				}
			],
			"name": "addSigner",
			"outputs": [],
			"stateMutability": "nonpayable",
			"type": "function"
		},
		{
			"inputs": [],
			"name": "caption",
			"outputs": [
				{
					"internalType": "string",
					"name": "",
					"type": "string"
				}
			],
			"stateMutability": "view",
			"type": "function"
		},
		{
			"inputs": [],
			"name": "captionKey",
			"outputs": [
				{
					"internalType": "bytes32",
					"name": "",
					"type": "bytes32"
				}
			],
			"stateMutability": "pure",
			"type": "function"
		},
		{
			"inputs": [],
			"name": "counting",
			"outputs": [
				{
					"internalType": "bool",
					"name": "",
					"type": "bool"
				}
			],
			"stateMutability": "view",
			"type": "function"
		},
		{
			"inputs": [],
			"name": "creator",
			"outputs": [
				{
					"internalType": "address",
					"name": "",
					"type": "address"
				}
			],
			"stateMutability": "view",
			"type": "function"
		},
		{
			"inputs": [],
			"name": "creatorKey",
			"outputs": [
				{
					"internalType": "bytes32",
					"name": "",
					"type": "bytes32"
				}
			],
			"stateMutability": "pure",
			"type": "function"
		},
		{
			"inputs": [],
			"name": "data",
			"outputs": [
				{
					"internalType": "bytes",
					"name": "",
					"type": "bytes"
				}
			],
			"stateMutability": "view",
			"type": "function"
		},
		{
			"inputs": [],
			"name": "dataKey",
			"outputs": [
				{
					"internalType": "bytes32",
					"name": "",
					"type": "bytes32"
				}
			],
			"stateMutability": "pure",
			"type": "function"
		},
		{
			"inputs": [],
			"name": "duration",
			"outputs": [
				{
					"internalType": "uint256",
					"name": "",
					"type": "uint256"
				}
			],
			"stateMutability": "view",
			"type": "function"
		},
		{
			"inputs": [],
			"name": "durationKey",
			"outputs": [
				{
					"internalType": "bytes32",
					"name": "",
					"type": "bytes32"
				}
			],
			"stateMutability": "pure",
			"type": "function"
		},
		{
			"inputs": [],
			"name": "endTimestamp",
			"outputs": [
				{
					"internalType": "uint256",
					"name": "",
					"type": "uint256"
				}
			],
			"stateMutability": "view",
			"type": "function"
		},
		{
			"inputs": [],
			"name": "ended",
			"outputs": [
				{
					"internalType": "bool",
					"name": "",
					"type": "bool"
				}
			],
			"stateMutability": "view",
			"type": "function"
		},
		{
			"inputs": [],
			"name": "execute",
			"outputs": [
				{
					"internalType": "address",
					"name": "",
					"type": "address"
				}
			],
			"stateMutability": "nonpayable",
			"type": "function"
		},
		{
			"inputs": [],
			"name": "executed",
			"outputs": [
				{
					"internalType": "bool",
					"name": "",
					"type": "bool"
				}
			],
			"stateMutability": "view",
			"type": "function"
		},
		{
			"inputs": [],
			"name": "executedKey",
			"outputs": [
				{
					"internalType": "bytes32",
					"name": "",
					"type": "bytes32"
				}
			],
			"stateMutability": "pure",
			"type": "function"
		},
		{
			"inputs": [
				{
					"internalType": "address",
					"name": "account",
					"type": "address"
				}
			],
			"name": "hasSigned",
			"outputs": [
				{
					"internalType": "bool",
					"name": "",
					"type": "bool"
				}
			],
			"stateMutability": "view",
			"type": "function"
		},
		{
			"inputs": [],
			"name": "hasSufficientSignatures",
			"outputs": [
				{
					"internalType": "bool",
					"name": "",
					"type": "bool"
				}
			],
			"stateMutability": "view",
			"type": "function"
		},
		{
			"inputs": [],
			"name": "initialize",
			"outputs": [],
			"stateMutability": "nonpayable",
			"type": "function"
		},
		{
			"inputs": [],
			"name": "initialized",
			"outputs": [
				{
					"internalType": "bool",
					"name": "",
					"type": "bool"
				}
			],
			"stateMutability": "view",
			"type": "function"
		},
		{
			"inputs": [],
			"name": "initializedKey",
			"outputs": [
				{
					"internalType": "bytes32",
					"name": "",
					"type": "bytes32"
				}
			],
			"stateMutability": "pure",
			"type": "function"
		},
		{
			"inputs": [
				{
					"internalType": "address",
					"name": "account",
					"type": "address"
				}
			],
			"name": "isSigner",
			"outputs": [
				{
					"internalType": "bool",
					"name": "",
					"type": "bool"
				}
			],
			"stateMutability": "view",
			"type": "function"
		},
		{
			"inputs": [],
			"name": "message",
			"outputs": [
				{
					"internalType": "string",
					"name": "",
					"type": "string"
				}
			],
			"stateMutability": "view",
			"type": "function"
		},
		{
			"inputs": [],
			"name": "messageKey",
			"outputs": [
				{
					"internalType": "bytes32",
					"name": "",
					"type": "bytes32"
				}
			],
			"stateMutability": "pure",
			"type": "function"
		},
		{
			"inputs": [],
			"name": "multiSigProposalFactory",
			"outputs": [
				{
					"internalType": "address",
					"name": "",
					"type": "address"
				}
			],
			"stateMutability": "view",
			"type": "function"
		},
		{
			"inputs": [],
			"name": "multiSigProposalFactoryKey",
			"outputs": [
				{
					"internalType": "bytes32",
					"name": "",
					"type": "bytes32"
				}
			],
			"stateMutability": "pure",
			"type": "function"
		},
		{
			"inputs": [],
			"name": "owner",
			"outputs": [
				{
					"internalType": "address",
					"name": "",
					"type": "address"
				}
			],
			"stateMutability": "view",
			"type": "function"
		},
		{
			"inputs": [],
			"name": "ownerKey",
			"outputs": [
				{
					"internalType": "bytes32",
					"name": "",
					"type": "bytes32"
				}
			],
			"stateMutability": "pure",
			"type": "function"
		},
		{
			"inputs": [],
			"name": "passed",
			"outputs": [
				{
					"internalType": "bool",
					"name": "",
					"type": "bool"
				}
			],
			"stateMutability": "view",
			"type": "function"
		},
		{
			"inputs": [],
			"name": "passedKey",
			"outputs": [
				{
					"internalType": "bytes32",
					"name": "",
					"type": "bytes32"
				}
			],
			"stateMutability": "pure",
			"type": "function"
		},
		{
			"inputs": [],
			"name": "referendumProposalFactory",
			"outputs": [
				{
					"internalType": "address",
					"name": "",
					"type": "address"
				}
			],
			"stateMutability": "view",
			"type": "function"
		},
		{
			"inputs": [],
			"name": "referendumProposalFactoryKey",
			"outputs": [
				{
					"internalType": "bytes32",
					"name": "",
					"type": "bytes32"
				}
			],
			"stateMutability": "pure",
			"type": "function"
		},
		{
			"inputs": [],
			"name": "renounceOwnership",
			"outputs": [],
			"stateMutability": "nonpayable",
			"type": "function"
		},
		{
			"inputs": [],
			"name": "requiredQuorum",
			"outputs": [
				{
					"internalType": "uint256",
					"name": "",
					"type": "uint256"
				}
			],
			"stateMutability": "view",
			"type": "function"
		},
		{
			"inputs": [],
			"name": "requiredQuorumKey",
			"outputs": [
				{
					"internalType": "bytes32",
					"name": "",
					"type": "bytes32"
				}
			],
			"stateMutability": "pure",
			"type": "function"
		},
		{
			"inputs": [],
			"name": "requiredSignaturesLength",
			"outputs": [
				{
					"internalType": "uint256",
					"name": "",
					"type": "uint256"
				}
			],
			"stateMutability": "view",
			"type": "function"
		},
		{
			"inputs": [],
			"name": "secondsLeft",
			"outputs": [
				{
					"internalType": "uint256",
					"name": "",
					"type": "uint256"
				}
			],
			"stateMutability": "view",
			"type": "function"
		},
		{
			"inputs": [
				{
					"internalType": "string",
					"name": "caption",
					"type": "string"
				}
			],
			"name": "setCaption",
			"outputs": [],
			"stateMutability": "nonpayable",
			"type": "function"
		},
		{
			"inputs": [
				{
					"internalType": "address",
					"name": "account",
					"type": "address"
				}
			],
			"name": "setCreator",
			"outputs": [],
			"stateMutability": "nonpayable",
			"type": "function"
		},
		{
			"inputs": [
				{
					"internalType": "bytes",
					"name": "data",
					"type": "bytes"
				}
			],
			"name": "setData",
			"outputs": [],
			"stateMutability": "nonpayable",
			"type": "function"
		},
		{
			"inputs": [
				{
					"internalType": "uint256",
					"name": "seconds_",
					"type": "uint256"
				}
			],
			"name": "setDuration",
			"outputs": [],
			"stateMutability": "nonpayable",
			"type": "function"
		},
		{
			"inputs": [
				{
					"internalType": "string",
					"name": "message",
					"type": "string"
				}
			],
			"name": "setMessage",
			"outputs": [],
			"stateMutability": "nonpayable",
			"type": "function"
		},
		{
			"inputs": [
				{
					"internalType": "address",
					"name": "account",
					"type": "address"
				}
			],
			"name": "setMultiSigProposalFactory",
			"outputs": [],
			"stateMutability": "nonpayable",
			"type": "function"
		},
		{
			"inputs": [
				{
					"internalType": "address",
					"name": "account",
					"type": "address"
				}
			],
			"name": "setReferendumProposalFactory",
			"outputs": [],
			"stateMutability": "nonpayable",
			"type": "function"
		},
		{
			"inputs": [
				{
					"internalType": "uint256",
					"name": "bp",
					"type": "uint256"
				}
			],
			"name": "setRequiredQuorum",
			"outputs": [],
			"stateMutability": "nonpayable",
			"type": "function"
		},
		{
			"inputs": [
				{
					"internalType": "uint256",
					"name": "timestamp",
					"type": "uint256"
				}
			],
			"name": "setStartTimestamp",
			"outputs": [],
			"stateMutability": "nonpayable",
			"type": "function"
		},
		{
			"inputs": [
				{
					"internalType": "address",
					"name": "account",
					"type": "address"
				}
			],
			"name": "setTarget",
			"outputs": [],
			"stateMutability": "nonpayable",
			"type": "function"
		},
		{
			"inputs": [
				{
					"internalType": "address",
					"name": "account",
					"type": "address"
				}
			],
			"name": "setTerminal",
			"outputs": [],
			"stateMutability": "nonpayable",
			"type": "function"
		},
		{
			"inputs": [],
			"name": "sign",
			"outputs": [],
			"stateMutability": "nonpayable",
			"type": "function"
		},
		{
			"inputs": [
				{
					"internalType": "uint256",
					"name": "signatureId",
					"type": "uint256"
				}
			],
			"name": "signatures",
			"outputs": [
				{
					"internalType": "address",
					"name": "",
					"type": "address"
				}
			],
			"stateMutability": "view",
			"type": "function"
		},
		{
			"inputs": [],
			"name": "signaturesKey",
			"outputs": [
				{
					"internalType": "bytes32",
					"name": "",
					"type": "bytes32"
				}
			],
			"stateMutability": "pure",
			"type": "function"
		},
		{
			"inputs": [],
			"name": "signaturesLength",
			"outputs": [
				{
					"internalType": "uint256",
					"name": "",
					"type": "uint256"
				}
			],
			"stateMutability": "view",
			"type": "function"
		},
		{
			"inputs": [
				{
					"internalType": "uint256",
					"name": "signerId",
					"type": "uint256"
				}
			],
			"name": "signers",
			"outputs": [
				{
					"internalType": "address",
					"name": "",
					"type": "address"
				}
			],
			"stateMutability": "view",
			"type": "function"
		},
		{
			"inputs": [],
			"name": "signersKey",
			"outputs": [
				{
					"internalType": "bytes32",
					"name": "",
					"type": "bytes32"
				}
			],
			"stateMutability": "pure",
			"type": "function"
		},
		{
			"inputs": [],
			"name": "signersLength",
			"outputs": [
				{
					"internalType": "uint256",
					"name": "",
					"type": "uint256"
				}
			],
			"stateMutability": "view",
			"type": "function"
		},
		{
			"inputs": [],
			"name": "startTimestamp",
			"outputs": [
				{
					"internalType": "uint256",
					"name": "",
					"type": "uint256"
				}
			],
			"stateMutability": "view",
			"type": "function"
		},
		{
			"inputs": [],
			"name": "startTimestampKey",
			"outputs": [
				{
					"internalType": "bytes32",
					"name": "",
					"type": "bytes32"
				}
			],
			"stateMutability": "pure",
			"type": "function"
		},
		{
			"inputs": [],
			"name": "started",
			"outputs": [
				{
					"internalType": "bool",
					"name": "",
					"type": "bool"
				}
			],
			"stateMutability": "view",
			"type": "function"
		},
		{
			"inputs": [],
			"name": "target",
			"outputs": [
				{
					"internalType": "address",
					"name": "",
					"type": "address"
				}
			],
			"stateMutability": "view",
			"type": "function"
		},
		{
			"inputs": [],
			"name": "targetKey",
			"outputs": [
				{
					"internalType": "bytes32",
					"name": "",
					"type": "bytes32"
				}
			],
			"stateMutability": "pure",
			"type": "function"
		},
		{
			"inputs": [],
			"name": "terminal",
			"outputs": [
				{
					"internalType": "address",
					"name": "",
					"type": "address"
				}
			],
			"stateMutability": "view",
			"type": "function"
		},
		{
			"inputs": [],
			"name": "terminalKey",
			"outputs": [
				{
					"internalType": "bytes32",
					"name": "",
					"type": "bytes32"
				}
			],
			"stateMutability": "pure",
			"type": "function"
		},
		{
			"inputs": [
				{
					"internalType": "address",
					"name": "newOwner",
					"type": "address"
				}
			],
			"name": "transferOwnership",
			"outputs": [],
			"stateMutability": "nonpayable",
			"type": "function"
		}
	]
}