{
	"data": {
		"bytecode": {
			"linkReferences": {},
			"object": "608060405234801561001057600080fd5b50612144806100206000396000f3fe608060405234801561001057600080fd5b506004361061041c5760003560e01c8063715018a61161022b578063bd9f98e111610130578063dc50af26116100b8578063efc1b2c311610087578063efc1b2c3146106ff578063f2fde38b14610707578063f45d0bc61461071a578063f6be71d114610722578063fc19e8ed1461073557600080fd5b8063dc50af26146106df578063dedaace5146106e7578063e21f37ce146106ef578063e6fd48bc146106f757600080fd5b8063c44bef75116100ff578063c44bef75146106a1578063d4b83992146106b4578063d4b927fd146106bc578063d63391c0146106c4578063d92f1c96146106cc57600080fd5b8063bd9f98e11461066b578063beb0a18d1461067e578063becfa6c014610686578063c138d1a01461068e57600080fd5b80639711715a116101b3578063a85adeab11610182578063a85adeab14610638578063ab62f0e114610640578063b0687ad714610653578063b859dd3e1461065b578063b949048b1461066357600080fd5b80639711715a146106185780639eace5cd14610620578063a05b5c3014610628578063a73e8e361461063057600080fd5b80638129fc1c116101fa5780638129fc1c146105f05780638554b847146105f857806386a83735146106005780638da5cb5b14610608578063902b29ed1461061057600080fd5b8063715018a6146105c557806373d4a13a146105cd578063776d1a01146105d55780637870dfae146105e857600080fd5b8063372fdd00116103315780635d32eeb5116102b95780636676e926116102885780636676e92614610592578063689e4d8d1461059a5780636c6169bd146105a25780636f206f2c146105aa5780637036014e146105bd57600080fd5b80635d32eeb5146105725780635e98e4c71461057a5780636146195414610582578063647baea11461058a57600080fd5b806342cde4e81161030057806342cde4e81461054a578063476221fe146105525780634af5e37f1461055a57806358221c6b146105625780635c098f1a1461056a57600080fd5b8063372fdd001461051257806339540e5e1461051a5780633f5160181461052f57806341346f0a1461054257600080fd5b8063158ef93e116103b457806328f9b0c71161038357806328f9b0c7146104d4578063297da9e1146104dc5780632ddc79b7146104ef57806331a38c89146104f7578063368b8772146104ff57600080fd5b8063158ef93e146104b45780631703a018146104bc5780631f2698ab146104c45780632053aa53146104cc57600080fd5b80630fb5a6b4116103f05780630fb5a6b414610476578063119f87471461048c57806312fa6feb14610494578063152737b2146104ac57600080fd5b806265d30d146104215780630121b93f1461044657806302d05d3f1461045b57806304b9f2f014610463575b600080fd5b610429610748565b6040516001600160a01b0390911681526020015b60405180910390f35b610459610454366004611c8f565b610775565b005b610429610781565b610459610471366004611d55565b61078f565b61047e6107a0565b60405190815260200161043d565b61047e6107c2565b61049c6107d0565b604051901515815260200161043d565b61049c6107e2565b61049c6107fb565b61047e610822565b61049c610855565b61042961085f565b61047e61086d565b6104596104ea366004611da6565b6108b5565b61047e6108c6565b61049c6108d4565b61045961050d366004611d55565b6108e2565b61047e6108f3565b610522610928565b60405161043d9190611e26565b61045961053d366004611da6565b6109d2565b61047e6109e3565b61047e610a11565b61047e610a39565b61047e610a66565b61047e610a74565b610429610aa1565b61047e610aaf565b61047e610adc565b610522610aea565b61047e610b89565b61047e610bb6565b61047e610be7565b61047e610c14565b6104596105b8366004611c8f565b610c49565b61047e610c5a565b610459610c68565b610522610c7c565b6104596105e3366004611da6565b610c89565b61047e610c9a565b610459610cc8565b61049c610cd0565b61047e610cef565b610429610d2c565b61047e610d3a565b610459610d68565b61049c610d78565b61049c610d8a565b61047e610d98565b61047e610dc4565b61045961064e366004611d55565b610dd6565b61047e610de7565b61047e610e1f565b61047e610e49565b610459610679366004611da6565b610e74565b61047e610e85565b61047e610f32565b61045961069c366004611da6565b610f5e565b6104596106af366004611c8f565b610f6f565b610429610f80565b61047e610f8e565b61047e610fc0565b6104596106da366004611da6565b611003565b61047e611014565b61047e611022565b610522611065565b61047e611073565b61047e611081565b610459610715366004611da6565b6110b2565b6104296110c3565b610459610730366004611c8f565b6110d1565b610459610743366004611c8f565b6110e2565b600060046000610756610fc0565b81526020810191909152604001600020546001600160a01b0316919050565b61077e816110f3565b50565b600060046000610756610aaf565b61079761123a565b61077e81611291565b6000600260006107ae610d3a565b815260200190815260200160002054905090565b6000600260006107ae610b89565b60006107da610dc4565b421015905090565b60006107ec610a66565b6107f4610a11565b1015905090565b600060056000610809610bb6565b815260208101919091526040016000205460ff16919050565b600061082c610adc565b610834611014565b61083c6107c2565b6108469190611e4f565b6108509190611e4f565b905090565b60006107da611073565b600060046000610756611022565b600060405160200161089a9060208082526007908201526620a129aa20a4a760c91b604082015260600190565b60405160208183030381529060405280519060200120905090565b6108bd61123a565b61077e816112db565b6000600260006107ae611081565b600060056000610809610c9a565b6108ea61123a565b61077e8161131b565b600060405160200161089a906020808252600f908201526e52455155495245445f51554f52554d60881b604082015260600190565b606060016000610936610a39565b8152602001908152602001600020805461094f90611e68565b80601f016020809104026020016040519081016040528092919081815260200182805461097b90611e68565b80156109c85780601f1061099d576101008083540402835291602001916109c8565b820191906000526020600020905b8154815290600101906020018083116109ab57829003601f168201915b5050505050905090565b6109da61123a565b61077e81611365565b600060405160200161089a90602080825260089082015267151154935253905360c21b604082015260600190565b6000610a1b610822565b610a236107c2565b610a2f90612710611ea2565b6108509190611eb9565b600060405160200161089a9060208082526007908201526621a0a82a24a7a760c91b604082015260600190565b6000600260006107ae610de7565b600060405160200161089a906020808252600790820152664d45535341474560c81b604082015260600190565b600060046000610756610f8e565b600060405160200161089a9060208082526007908201526621a922a0aa27a960c91b604082015260600190565b6000600260006107ae61086d565b60606000610af66110c3565b9050610b006113a5565b806001600160a01b031663bae07360610b17610f80565b610b1f610c7c565b6040518363ffffffff1660e01b8152600401610b3c929190611edb565b6000604051808303816000875af1158015610b5b573d6000803e3d6000fd5b505050506040513d6000823e601f3d908101601f19168201604052610b839190810190611eff565b91505090565b600060405160200161089a9060208082526007908201526614d5541413d49560ca1b604082015260600190565b600060405160200161089a906020808252600b908201526a125392551250531256915160aa1b604082015260600190565b600060405160200161089a906020808252600790820152661051d0525394d560ca1b604082015260600190565b600060405160200161089a906020808252600f908201526e053544152545f54494d455354414d5608c1b604082015260600190565b610c5161123a565b61077e81611416565b6000600260006107ae6108f3565b610c7061123a565b610c7a6000611487565b565b6060600080610936610e1f565b610c9161123a565b61077e816114fe565b600060405160200161089a9060208082526008908201526711561150d555115160c21b604082015260600190565b610c7a61153e565b6000610cda610855565b80156108505750610ce96107d0565b15905090565b6000610cf9610cd0565b15610d115742610d07610dc4565b6108509190611f76565b610d19610855565b15610d26576108506107a0565b50600090565b600060046000610756610e49565b600060405160200161089a90602080825260089082015267222aa920aa24a7a760c11b604082015260600190565b610d7061123a565b610c7a611557565b6000610d82610e85565b6107f4610822565b600060056000610809610f32565b600060405160200161089a9060208082526006908201526515105491d15560d21b604082015260600190565b6000610dce6107a0565b610846611073565b610dde61123a565b61077e81611629565b600060405160200161089a90602080825260129082015271149154555254915117d512149154d213d31160721b604082015260600190565b600060405160200161089a906020808252600490820152634441544160e01b604082015260600190565b600060405160200161089a9060208082526005908201526427aba722a960d91b604082015260600190565b610e7c61123a565b61077e81611673565b600080610e90610aa1565b90506000816001600160a01b031663981b24d0610eab6108c6565b6040518263ffffffff1660e01b8152600401610ec991815260200190565b602060405180830381865afa158015610ee6573d6000803e3d6000fd5b505050506040513d601f19601f82011682018060405250810190610f0a9190611f89565b9050612710610f17610c5a565b610f219083611ea2565b610f2b9190611eb9565b9250505090565b600060405160200161089a90602080825260069082015265141054d4d15160d21b604082015260600190565b610f6661123a565b61077e816116b3565b610f7761123a565b61077e816116f3565b600060046000610756610d98565b600060405160200161089a906020808252600c908201526b0564f54494e475f45524332360a41b604082015260600190565b600060405160200161089a906020808252601a908201527f4d554c54495f5349475f50524f504f53414c5f464143544f5259000000000000604082015260600190565b61100b61123a565b61077e8161172a565b6000600260006107ae610be7565b600060405160200161089a906020808252601b908201527f5245464552454e44554d5f50524f504f53414c5f464143544f52590000000000604082015260600190565b606060016000610936610a74565b6000600260006107ae610c14565b600060405160200161089a906020808252600b908201526a14d3905414d213d517d25160aa1b604082015260600190565b6110ba61123a565b61077e81611487565b6000600460006107566109e3565b6110d961123a565b61077e81611792565b6110ea61123a565b61077e816117c9565b6110fb61183a565b61110361188e565b61110b6118e3565b6000611115610aa1565b6001600160a01b0316634ee2cd7e3361112c6108c6565b6040516001600160e01b031960e085901b1681526001600160a01b0390921660048301526024820152604401602060405180830381865afa158015611175573d6000803e3d6000fd5b505050506040513d601f19601f820116820180604052508101906111999190611f89565b9050816000036111b1576111ac81611938565b61122e565b816001036111c2576111ac81611997565b816002036111d3576111ac816119f6565b60405162461bcd60e51b815260206004820152602560248201527f5265666572656e64756d50726f706f73616c3a20756e737570706f72746564206044820152641a5b9c1d5d60da1b60648201526084015b60405180910390fd5b611236611a55565b5050565b33611243610d2c565b6001600160a01b031614610c7a5760405162461bcd60e51b815260206004820152601560248201527437bbb732b9141490109e9036b9b39739b2b73232b960591b6044820152606401611225565b61129a81611aca565b806040516112a89190611fa2565b604051908190038120907f7935b61140db6ed0dbbd02b692adfaa25439ab982bd6eea1879ae7be537cbfed90600090a250565b6112e481611af1565b6040516001600160a01b038216907fd09c0624caca0531ea4b7bd26613634cf337f4065ef6aff84501cbc8182c535590600090a250565b61132481611b33565b806040516113329190611fa2565b604051908190038120907f3d7f415c35b881f2d0a109b3d9a1377e1e14afec5cc1fd06b563ed160c5e263090600090a250565b61136e81611b40565b6040516001600160a01b038216907fd4396a7e1ee1013c611432f59b862687db5c35b5ae1fd43334ccba88fac8e67890600090a250565b6113ad61183a565b6113b5611b4d565b6113bd6118e3565b6001600560006113cb610c9a565b8152602081019190915260409081016000908120805460ff191693151593909317909255517f68f46c45a243a0e9065a97649faf9a5afe1692f2679e650c2f853b9cd734cc0e9190a1565b6127108111156114385760405162461bcd60e51b815260040161122590611fbe565b8060026000611445610de7565b815260200190815260200160002081905550807f8c3c72bc6cbbe96b506aec6d1e60128ed7aff893e475f219672f7b5cbeb17f9960405160405180910390a250565b6000611491610d2c565b905081600460006114a0610e49565b815260208101919091526040908101600090812080546001600160a01b0319166001600160a01b039485161790559051848316928416917f8be0079c531659141344cd1fd0a4f28419497f9722a3daafe3b4186f6b6457e091a35050565b61150781611ba1565b6040516001600160a01b038216907f3bfb4bbf112628248058745a3c57e35b13369386e474b8e56c552f3063a4a19690600090a250565b61154733611487565b61154f611bae565b610c7a611bb7565b61155f610aa1565b6001600160a01b0316639711715a6040518163ffffffff1660e01b81526004016020604051808303816000875af115801561159e573d6000803e3d6000fd5b505050506040513d601f19601f820116820180604052508101906115c29190611f89565b600260006115ce611081565b815260200190815260200160002081905550600260006115ec611081565b8152602001908152602001600020547fd6d4ba5cdc121c3d1e1d9d83bf92765b05c9c7c4c50c1054df6682ff3dde938660405160405180910390a2565b61163281611c3b565b806040516116409190611fa2565b604051908190038120907f648803d94e57304c319cbb4af7a1b1b5d74577e581f5f6cf5e8af9a932bb0d5490600090a250565b61167c81611c47565b6040516001600160a01b038216907fda041d56f89460d53852e1b9f9576dc62eb726bde1008706dd87cdfe647a697390600090a250565b6116bc81611c54565b6040516001600160a01b038216907f35c343c1b11e5cc8ae3b77869ed9a3d1c4191286edcfa2ad41e689ab012eadc190600090a250565b6116fc81611c61565b60405181907f2b9ea1248daf3a58246ca1b3401344f8f1809f146bad26ccc6059cba160ed22190600090a250565b8060046000611737610f8e565b815260208101919091526040908101600090812080546001600160a01b0319166001600160a01b039485161790559051918316917f114d15828c0b9d9edda29c2b42efbef9d2c1ed07528e4716bfbb326a30f39a529190a250565b61179b81611c82565b60405181907f234a8b70e70d5fc5ace24d19c8c988edfd5dc006d6f8356cab0273e2f084a90990600090a250565b6127108111156117eb5760405162461bcd60e51b815260040161122590611fbe565b80600260006117f86108f3565b815260200190815260200160002081905550807f79ba8674a90cd5c280a86c18d9b4fa843c1bc0a11c3afaf2c50df52c0ca0fb0660405160405180910390a250565b611842610cd0565b610c7a5760405162461bcd60e51b815260206004820152601f60248201527f5265666572656e64756d50726f706f73616c3a2021636f756e74696e672829006044820152606401611225565b611896610d8a565b15610c7a5760405162461bcd60e51b815260206004820152601c60248201527f5265666572656e64756d50726f706f73616c3a207061737365642829000000006044820152606401611225565b6118eb6108d4565b15610c7a5760405162461bcd60e51b815260206004820152601e60248201527f5265666572656e64756d50726f706f73616c3a206578656375746564282900006044820152606401611225565b806002600061194561086d565b815260200190815260200160002060008282546119629190611e4f565b9091555050604051819033907fc795fd933e199d367001436a8cd6f9d694ce6f65f0e4787f90342007833a125390600090a350565b80600260006119a4610be7565b815260200190815260200160002060008282546119c19190611e4f565b9091555050604051819033907fa83aa407c0aea80c3a1e1433f5a87c67e906dafe3e78b22d449979ec22847c5b90600090a350565b8060026000611a03610b89565b81526020019081526020016000206000828254611a209190611e4f565b9091555050604051819033907fda8e2bce8fd493451fdd1339476184fde26e2b59c861fef937d7da5a846f895b90600090a350565b611a5d610d78565b8015611a6c5750611a6c6107e2565b15610c7a57600160056000611a7f610f32565b8152602081019190915260409081016000908120805460ff191693151593909317909255517f5aa8a44622c21066164c551945caf713792e9fbee8ce54bb83cb3d5410549dfe9190a1565b8060016000611ad7610a39565b81526020019081526020016000209081611236919061204e565b8060046000611afe610fc0565b815260200190815260200160002060006101000a8154816001600160a01b0302191690836001600160a01b0316021790555050565b8060016000611ad7610a74565b8060046000611afe610aaf565b611b55610d8a565b610c7a5760405162461bcd60e51b815260206004820152601d60248201527f5265666572656e64756d50726f706f73616c3a202170617373656428290000006044820152606401611225565b8060046000611afe610d98565b610c7a33611487565b611bbf6107fb565b15611c0c5760405162461bcd60e51b815260206004820152601c60248201527f496e697469616c697a61626c653a20696e697469616c697a65642829000000006044820152606401611225565b600160056000611c1a610bb6565b81526020810191909152604001600020805460ff1916911515919091179055565b80600080611ad7610e1f565b8060046000611afe6109e3565b8060046000611afe611022565b8060026000611c6e610c14565b815260208101919091526040016000205550565b8060026000611c6e610d3a565b600060208284031215611ca157600080fd5b5035919050565b634e487b7160e01b600052604160045260246000fd5b604051601f8201601f1916810167ffffffffffffffff81118282101715611ce757611ce7611ca8565b604052919050565b600067ffffffffffffffff821115611d0957611d09611ca8565b50601f01601f191660200190565b6000611d2a611d2584611cef565b611cbe565b9050828152838383011115611d3e57600080fd5b828260208301376000602084830101529392505050565b600060208284031215611d6757600080fd5b813567ffffffffffffffff811115611d7e57600080fd5b8201601f81018413611d8f57600080fd5b611d9e84823560208401611d17565b949350505050565b600060208284031215611db857600080fd5b81356001600160a01b0381168114611dcf57600080fd5b9392505050565b60005b83811015611df1578181015183820152602001611dd9565b50506000910152565b60008151808452611e12816020860160208601611dd6565b601f01601f19169290920160200192915050565b602081526000611dcf6020830184611dfa565b634e487b7160e01b600052601160045260246000fd5b80820180821115611e6257611e62611e39565b92915050565b600181811c90821680611e7c57607f821691505b602082108103611e9c57634e487b7160e01b600052602260045260246000fd5b50919050565b8082028115828204841417611e6257611e62611e39565b600082611ed657634e487b7160e01b600052601260045260246000fd5b500490565b6001600160a01b0383168152604060208201819052600090611d9e90830184611dfa565b600060208284031215611f1157600080fd5b815167ffffffffffffffff811115611f2857600080fd5b8201601f81018413611f3957600080fd5b8051611f47611d2582611cef565b818152856020838501011115611f5c57600080fd5b611f6d826020830160208601611dd6565b95945050505050565b81810381811115611e6257611e62611e39565b600060208284031215611f9b57600080fd5b5051919050565b60008251611fb4818460208701611dd6565b9190910192915050565b60208082526021908201527f5265666572656e64756d50726f706f73616c3a206f7574206f6620626f756e646040820152607360f81b606082015260800190565b601f82111561204957600081815260208120601f850160051c810160208610156120265750805b601f850160051c820191505b8181101561204557828155600101612032565b5050505b505050565b815167ffffffffffffffff81111561206857612068611ca8565b61207c816120768454611e68565b84611fff565b602080601f8311600181146120b157600084156120995750858301515b600019600386901b1c1916600185901b178555612045565b600085815260208120601f198616915b828110156120e0578886015182559484019460019091019084016120c1565b50858210156120fe5787850151600019600388901b60f8161c191681555b5050505050600190811b0190555056fea264697066735822122074c66b6da70a6aae0226404d1f1b63db371a98244e51ed966fc1481e53bd35a364736f6c63430008130033",
			"opcodes": "PUSH1 0x80 PUSH1 0x40 MSTORE CALLVALUE DUP1 ISZERO PUSH2 0x10 JUMPI PUSH1 0x0 DUP1 REVERT JUMPDEST POP PUSH2 0x2144 DUP1 PUSH2 0x20 PUSH1 0x0 CODECOPY PUSH1 0x0 RETURN INVALID PUSH1 0x80 PUSH1 0x40 MSTORE CALLVALUE DUP1 ISZERO PUSH2 0x10 JUMPI PUSH1 0x0 DUP1 REVERT JUMPDEST POP PUSH1 0x4 CALLDATASIZE LT PUSH2 0x41C JUMPI PUSH1 0x0 CALLDATALOAD PUSH1 0xE0 SHR DUP1 PUSH4 0x715018A6 GT PUSH2 0x22B JUMPI DUP1 PUSH4 0xBD9F98E1 GT PUSH2 0x130 JUMPI DUP1 PUSH4 0xDC50AF26 GT PUSH2 0xB8 JUMPI DUP1 PUSH4 0xEFC1B2C3 GT PUSH2 0x87 JUMPI DUP1 PUSH4 0xEFC1B2C3 EQ PUSH2 0x6FF JUMPI DUP1 PUSH4 0xF2FDE38B EQ PUSH2 0x707 JUMPI DUP1 PUSH4 0xF45D0BC6 EQ PUSH2 0x71A JUMPI DUP1 PUSH4 0xF6BE71D1 EQ PUSH2 0x722 JUMPI DUP1 PUSH4 0xFC19E8ED EQ PUSH2 0x735 JUMPI PUSH1 0x0 DUP1 REVERT JUMPDEST DUP1 PUSH4 0xDC50AF26 EQ PUSH2 0x6DF JUMPI DUP1 PUSH4 0xDEDAACE5 EQ PUSH2 0x6E7 JUMPI DUP1 PUSH4 0xE21F37CE EQ PUSH2 0x6EF JUMPI DUP1 PUSH4 0xE6FD48BC EQ PUSH2 0x6F7 JUMPI PUSH1 0x0 DUP1 REVERT JUMPDEST DUP1 PUSH4 0xC44BEF75 GT PUSH2 0xFF JUMPI DUP1 PUSH4 0xC44BEF75 EQ PUSH2 0x6A1 JUMPI DUP1 PUSH4 0xD4B83992 EQ PUSH2 0x6B4 JUMPI DUP1 PUSH4 0xD4B927FD EQ PUSH2 0x6BC JUMPI DUP1 PUSH4 0xD63391C0 EQ PUSH2 0x6C4 JUMPI DUP1 PUSH4 0xD92F1C96 EQ PUSH2 0x6CC JUMPI PUSH1 0x0 DUP1 REVERT JUMPDEST DUP1 PUSH4 0xBD9F98E1 EQ PUSH2 0x66B JUMPI DUP1 PUSH4 0xBEB0A18D EQ PUSH2 0x67E JUMPI DUP1 PUSH4 0xBECFA6C0 EQ PUSH2 0x686 JUMPI DUP1 PUSH4 0xC138D1A0 EQ PUSH2 0x68E JUMPI PUSH1 0x0 DUP1 REVERT JUMPDEST DUP1 PUSH4 0x9711715A GT PUSH2 0x1B3 JUMPI DUP1 PUSH4 0xA85ADEAB GT PUSH2 0x182 JUMPI DUP1 PUSH4 0xA85ADEAB EQ PUSH2 0x638 JUMPI DUP1 PUSH4 0xAB62F0E1 EQ PUSH2 0x640 JUMPI DUP1 PUSH4 0xB0687AD7 EQ PUSH2 0x653 JUMPI DUP1 PUSH4 0xB859DD3E EQ PUSH2 0x65B JUMPI DUP1 PUSH4 0xB949048B EQ PUSH2 0x663 JUMPI PUSH1 0x0 DUP1 REVERT JUMPDEST DUP1 PUSH4 0x9711715A EQ PUSH2 0x618 JUMPI DUP1 PUSH4 0x9EACE5CD EQ PUSH2 0x620 JUMPI DUP1 PUSH4 0xA05B5C30 EQ PUSH2 0x628 JUMPI DUP1 PUSH4 0xA73E8E36 EQ PUSH2 0x630 JUMPI PUSH1 0x0 DUP1 REVERT JUMPDEST DUP1 PUSH4 0x8129FC1C GT PUSH2 0x1FA JUMPI DUP1 PUSH4 0x8129FC1C EQ PUSH2 0x5F0 JUMPI DUP1 PUSH4 0x8554B847 EQ PUSH2 0x5F8 JUMPI DUP1 PUSH4 0x86A83735 EQ PUSH2 0x600 JUMPI DUP1 PUSH4 0x8DA5CB5B EQ PUSH2 0x608 JUMPI DUP1 PUSH4 0x902B29ED EQ PUSH2 0x610 JUMPI PUSH1 0x0 DUP1 REVERT JUMPDEST DUP1 PUSH4 0x715018A6 EQ PUSH2 0x5C5 JUMPI DUP1 PUSH4 0x73D4A13A EQ PUSH2 0x5CD JUMPI DUP1 PUSH4 0x776D1A01 EQ PUSH2 0x5D5 JUMPI DUP1 PUSH4 0x7870DFAE EQ PUSH2 0x5E8 JUMPI PUSH1 0x0 DUP1 REVERT JUMPDEST DUP1 PUSH4 0x372FDD00 GT PUSH2 0x331 JUMPI DUP1 PUSH4 0x5D32EEB5 GT PUSH2 0x2B9 JUMPI DUP1 PUSH4 0x6676E926 GT PUSH2 0x288 JUMPI DUP1 PUSH4 0x6676E926 EQ PUSH2 0x592 JUMPI DUP1 PUSH4 0x689E4D8D EQ PUSH2 0x59A JUMPI DUP1 PUSH4 0x6C6169BD EQ PUSH2 0x5A2 JUMPI DUP1 PUSH4 0x6F206F2C EQ PUSH2 0x5AA JUMPI DUP1 PUSH4 0x7036014E EQ PUSH2 0x5BD JUMPI PUSH1 0x0 DUP1 REVERT JUMPDEST DUP1 PUSH4 0x5D32EEB5 EQ PUSH2 0x572 JUMPI DUP1 PUSH4 0x5E98E4C7 EQ PUSH2 0x57A JUMPI DUP1 PUSH4 0x61461954 EQ PUSH2 0x582 JUMPI DUP1 PUSH4 0x647BAEA1 EQ PUSH2 0x58A JUMPI PUSH1 0x0 DUP1 REVERT JUMPDEST DUP1 PUSH4 0x42CDE4E8 GT PUSH2 0x300 JUMPI DUP1 PUSH4 0x42CDE4E8 EQ PUSH2 0x54A JUMPI DUP1 PUSH4 0x476221FE EQ PUSH2 0x552 JUMPI DUP1 PUSH4 0x4AF5E37F EQ PUSH2 0x55A JUMPI DUP1 PUSH4 0x58221C6B EQ PUSH2 0x562 JUMPI DUP1 PUSH4 0x5C098F1A EQ PUSH2 0x56A JUMPI PUSH1 0x0 DUP1 REVERT JUMPDEST DUP1 PUSH4 0x372FDD00 EQ PUSH2 0x512 JUMPI DUP1 PUSH4 0x39540E5E EQ PUSH2 0x51A JUMPI DUP1 PUSH4 0x3F516018 EQ PUSH2 0x52F JUMPI DUP1 PUSH4 0x41346F0A EQ PUSH2 0x542 JUMPI PUSH1 0x0 DUP1 REVERT JUMPDEST DUP1 PUSH4 0x158EF93E GT PUSH2 0x3B4 JUMPI DUP1 PUSH4 0x28F9B0C7 GT PUSH2 0x383 JUMPI DUP1 PUSH4 0x28F9B0C7 EQ PUSH2 0x4D4 JUMPI DUP1 PUSH4 0x297DA9E1 EQ PUSH2 0x4DC JUMPI DUP1 PUSH4 0x2DDC79B7 EQ PUSH2 0x4EF JUMPI DUP1 PUSH4 0x31A38C89 EQ PUSH2 0x4F7 JUMPI DUP1 PUSH4 0x368B8772 EQ PUSH2 0x4FF JUMPI PUSH1 0x0 DUP1 REVERT JUMPDEST DUP1 PUSH4 0x158EF93E EQ PUSH2 0x4B4 JUMPI DUP1 PUSH4 0x1703A018 EQ PUSH2 0x4BC JUMPI DUP1 PUSH4 0x1F2698AB EQ PUSH2 0x4C4 JUMPI DUP1 PUSH4 0x2053AA53 EQ PUSH2 0x4CC JUMPI PUSH1 0x0 DUP1 REVERT JUMPDEST DUP1 PUSH4 0xFB5A6B4 GT PUSH2 0x3F0 JUMPI DUP1 PUSH4 0xFB5A6B4 EQ PUSH2 0x476 JUMPI DUP1 PUSH4 0x119F8747 EQ PUSH2 0x48C JUMPI DUP1 PUSH4 0x12FA6FEB EQ PUSH2 0x494 JUMPI DUP1 PUSH4 0x152737B2 EQ PUSH2 0x4AC JUMPI PUSH1 0x0 DUP1 REVERT JUMPDEST DUP1 PUSH3 0x65D30D EQ PUSH2 0x421 JUMPI DUP1 PUSH4 0x121B93F EQ PUSH2 0x446 JUMPI DUP1 PUSH4 0x2D05D3F EQ PUSH2 0x45B JUMPI DUP1 PUSH4 0x4B9F2F0 EQ PUSH2 0x463 JUMPI JUMPDEST PUSH1 0x0 DUP1 REVERT JUMPDEST PUSH2 0x429 PUSH2 0x748 JUMP JUMPDEST PUSH1 0x40 MLOAD PUSH1 0x1 PUSH1 0x1 PUSH1 0xA0 SHL SUB SWAP1 SWAP2 AND DUP2 MSTORE PUSH1 0x20 ADD JUMPDEST PUSH1 0x40 MLOAD DUP1 SWAP2 SUB SWAP1 RETURN JUMPDEST PUSH2 0x459 PUSH2 0x454 CALLDATASIZE PUSH1 0x4 PUSH2 0x1C8F JUMP JUMPDEST PUSH2 0x775 JUMP JUMPDEST STOP JUMPDEST PUSH2 0x429 PUSH2 0x781 JUMP JUMPDEST PUSH2 0x459 PUSH2 0x471 CALLDATASIZE PUSH1 0x4 PUSH2 0x1D55 JUMP JUMPDEST PUSH2 0x78F JUMP JUMPDEST PUSH2 0x47E PUSH2 0x7A0 JUMP JUMPDEST PUSH1 0x40 MLOAD SWAP1 DUP2 MSTORE PUSH1 0x20 ADD PUSH2 0x43D JUMP JUMPDEST PUSH2 0x47E PUSH2 0x7C2 JUMP JUMPDEST PUSH2 0x49C PUSH2 0x7D0 JUMP JUMPDEST PUSH1 0x40 MLOAD SWAP1 ISZERO ISZERO DUP2 MSTORE PUSH1 0x20 ADD PUSH2 0x43D JUMP JUMPDEST PUSH2 0x49C PUSH2 0x7E2 JUMP JUMPDEST PUSH2 0x49C PUSH2 0x7FB JUMP JUMPDEST PUSH2 0x47E PUSH2 0x822 JUMP JUMPDEST PUSH2 0x49C PUSH2 0x855 JUMP JUMPDEST PUSH2 0x429 PUSH2 0x85F JUMP JUMPDEST PUSH2 0x47E PUSH2 0x86D JUMP JUMPDEST PUSH2 0x459 PUSH2 0x4EA CALLDATASIZE PUSH1 0x4 PUSH2 0x1DA6 JUMP JUMPDEST PUSH2 0x8B5 JUMP JUMPDEST PUSH2 0x47E PUSH2 0x8C6 JUMP JUMPDEST PUSH2 0x49C PUSH2 0x8D4 JUMP JUMPDEST PUSH2 0x459 PUSH2 0x50D CALLDATASIZE PUSH1 0x4 PUSH2 0x1D55 JUMP JUMPDEST PUSH2 0x8E2 JUMP JUMPDEST PUSH2 0x47E PUSH2 0x8F3 JUMP JUMPDEST PUSH2 0x522 PUSH2 0x928 JUMP JUMPDEST PUSH1 0x40 MLOAD PUSH2 0x43D SWAP2 SWAP1 PUSH2 0x1E26 JUMP JUMPDEST PUSH2 0x459 PUSH2 0x53D CALLDATASIZE PUSH1 0x4 PUSH2 0x1DA6 JUMP JUMPDEST PUSH2 0x9D2 JUMP JUMPDEST PUSH2 0x47E PUSH2 0x9E3 JUMP JUMPDEST PUSH2 0x47E PUSH2 0xA11 JUMP JUMPDEST PUSH2 0x47E PUSH2 0xA39 JUMP JUMPDEST PUSH2 0x47E PUSH2 0xA66 JUMP JUMPDEST PUSH2 0x47E PUSH2 0xA74 JUMP JUMPDEST PUSH2 0x429 PUSH2 0xAA1 JUMP JUMPDEST PUSH2 0x47E PUSH2 0xAAF JUMP JUMPDEST PUSH2 0x47E PUSH2 0xADC JUMP JUMPDEST PUSH2 0x522 PUSH2 0xAEA JUMP JUMPDEST PUSH2 0x47E PUSH2 0xB89 JUMP JUMPDEST PUSH2 0x47E PUSH2 0xBB6 JUMP JUMPDEST PUSH2 0x47E PUSH2 0xBE7 JUMP JUMPDEST PUSH2 0x47E PUSH2 0xC14 JUMP JUMPDEST PUSH2 0x459 PUSH2 0x5B8 CALLDATASIZE PUSH1 0x4 PUSH2 0x1C8F JUMP JUMPDEST PUSH2 0xC49 JUMP JUMPDEST PUSH2 0x47E PUSH2 0xC5A JUMP JUMPDEST PUSH2 0x459 PUSH2 0xC68 JUMP JUMPDEST PUSH2 0x522 PUSH2 0xC7C JUMP JUMPDEST PUSH2 0x459 PUSH2 0x5E3 CALLDATASIZE PUSH1 0x4 PUSH2 0x1DA6 JUMP JUMPDEST PUSH2 0xC89 JUMP JUMPDEST PUSH2 0x47E PUSH2 0xC9A JUMP JUMPDEST PUSH2 0x459 PUSH2 0xCC8 JUMP JUMPDEST PUSH2 0x49C PUSH2 0xCD0 JUMP JUMPDEST PUSH2 0x47E PUSH2 0xCEF JUMP JUMPDEST PUSH2 0x429 PUSH2 0xD2C JUMP JUMPDEST PUSH2 0x47E PUSH2 0xD3A JUMP JUMPDEST PUSH2 0x459 PUSH2 0xD68 JUMP JUMPDEST PUSH2 0x49C PUSH2 0xD78 JUMP JUMPDEST PUSH2 0x49C PUSH2 0xD8A JUMP JUMPDEST PUSH2 0x47E PUSH2 0xD98 JUMP JUMPDEST PUSH2 0x47E PUSH2 0xDC4 JUMP JUMPDEST PUSH2 0x459 PUSH2 0x64E CALLDATASIZE PUSH1 0x4 PUSH2 0x1D55 JUMP JUMPDEST PUSH2 0xDD6 JUMP JUMPDEST PUSH2 0x47E PUSH2 0xDE7 JUMP JUMPDEST PUSH2 0x47E PUSH2 0xE1F JUMP JUMPDEST PUSH2 0x47E PUSH2 0xE49 JUMP JUMPDEST PUSH2 0x459 PUSH2 0x679 CALLDATASIZE PUSH1 0x4 PUSH2 0x1DA6 JUMP JUMPDEST PUSH2 0xE74 JUMP JUMPDEST PUSH2 0x47E PUSH2 0xE85 JUMP JUMPDEST PUSH2 0x47E PUSH2 0xF32 JUMP JUMPDEST PUSH2 0x459 PUSH2 0x69C CALLDATASIZE PUSH1 0x4 PUSH2 0x1DA6 JUMP JUMPDEST PUSH2 0xF5E JUMP JUMPDEST PUSH2 0x459 PUSH2 0x6AF CALLDATASIZE PUSH1 0x4 PUSH2 0x1C8F JUMP JUMPDEST PUSH2 0xF6F JUMP JUMPDEST PUSH2 0x429 PUSH2 0xF80 JUMP JUMPDEST PUSH2 0x47E PUSH2 0xF8E JUMP JUMPDEST PUSH2 0x47E PUSH2 0xFC0 JUMP JUMPDEST PUSH2 0x459 PUSH2 0x6DA CALLDATASIZE PUSH1 0x4 PUSH2 0x1DA6 JUMP JUMPDEST PUSH2 0x1003 JUMP JUMPDEST PUSH2 0x47E PUSH2 0x1014 JUMP JUMPDEST PUSH2 0x47E PUSH2 0x1022 JUMP JUMPDEST PUSH2 0x522 PUSH2 0x1065 JUMP JUMPDEST PUSH2 0x47E PUSH2 0x1073 JUMP JUMPDEST PUSH2 0x47E PUSH2 0x1081 JUMP JUMPDEST PUSH2 0x459 PUSH2 0x715 CALLDATASIZE PUSH1 0x4 PUSH2 0x1DA6 JUMP JUMPDEST PUSH2 0x10B2 JUMP JUMPDEST PUSH2 0x429 PUSH2 0x10C3 JUMP JUMPDEST PUSH2 0x459 PUSH2 0x730 CALLDATASIZE PUSH1 0x4 PUSH2 0x1C8F JUMP JUMPDEST PUSH2 0x10D1 JUMP JUMPDEST PUSH2 0x459 PUSH2 0x743 CALLDATASIZE PUSH1 0x4 PUSH2 0x1C8F JUMP JUMPDEST PUSH2 0x10E2 JUMP JUMPDEST PUSH1 0x0 PUSH1 0x4 PUSH1 0x0 PUSH2 0x756 PUSH2 0xFC0 JUMP JUMPDEST DUP2 MSTORE PUSH1 0x20 DUP2 ADD SWAP2 SWAP1 SWAP2 MSTORE PUSH1 0x40 ADD PUSH1 0x0 KECCAK256 SLOAD PUSH1 0x1 PUSH1 0x1 PUSH1 0xA0 SHL SUB AND SWAP2 SWAP1 POP JUMP JUMPDEST PUSH2 0x77E DUP2 PUSH2 0x10F3 JUMP JUMPDEST POP JUMP JUMPDEST PUSH1 0x0 PUSH1 0x4 PUSH1 0x0 PUSH2 0x756 PUSH2 0xAAF JUMP JUMPDEST PUSH2 0x797 PUSH2 0x123A JUMP JUMPDEST PUSH2 0x77E DUP2 PUSH2 0x1291 JUMP JUMPDEST PUSH1 0x0 PUSH1 0x2 PUSH1 0x0 PUSH2 0x7AE PUSH2 0xD3A JUMP JUMPDEST DUP2 MSTORE PUSH1 0x20 ADD SWAP1 DUP2 MSTORE PUSH1 0x20 ADD PUSH1 0x0 KECCAK256 SLOAD SWAP1 POP SWAP1 JUMP JUMPDEST PUSH1 0x0 PUSH1 0x2 PUSH1 0x0 PUSH2 0x7AE PUSH2 0xB89 JUMP JUMPDEST PUSH1 0x0 PUSH2 0x7DA PUSH2 0xDC4 JUMP JUMPDEST TIMESTAMP LT ISZERO SWAP1 POP SWAP1 JUMP JUMPDEST PUSH1 0x0 PUSH2 0x7EC PUSH2 0xA66 JUMP JUMPDEST PUSH2 0x7F4 PUSH2 0xA11 JUMP JUMPDEST LT ISZERO SWAP1 POP SWAP1 JUMP JUMPDEST PUSH1 0x0 PUSH1 0x5 PUSH1 0x0 PUSH2 0x809 PUSH2 0xBB6 JUMP JUMPDEST DUP2 MSTORE PUSH1 0x20 DUP2 ADD SWAP2 SWAP1 SWAP2 MSTORE PUSH1 0x40 ADD PUSH1 0x0 KECCAK256 SLOAD PUSH1 0xFF AND SWAP2 SWAP1 POP JUMP JUMPDEST PUSH1 0x0 PUSH2 0x82C PUSH2 0xADC JUMP JUMPDEST PUSH2 0x834 PUSH2 0x1014 JUMP JUMPDEST PUSH2 0x83C PUSH2 0x7C2 JUMP JUMPDEST PUSH2 0x846 SWAP2 SWAP1 PUSH2 0x1E4F JUMP JUMPDEST PUSH2 0x850 SWAP2 SWAP1 PUSH2 0x1E4F JUMP JUMPDEST SWAP1 POP SWAP1 JUMP JUMPDEST PUSH1 0x0 PUSH2 0x7DA PUSH2 0x1073 JUMP JUMPDEST PUSH1 0x0 PUSH1 0x4 PUSH1 0x0 PUSH2 0x756 PUSH2 0x1022 JUMP JUMPDEST PUSH1 0x0 PUSH1 0x40 MLOAD PUSH1 0x20 ADD PUSH2 0x89A SWAP1 PUSH1 0x20 DUP1 DUP3 MSTORE PUSH1 0x7 SWAP1 DUP3 ADD MSTORE PUSH7 0x20A129AA20A4A7 PUSH1 0xC9 SHL PUSH1 0x40 DUP3 ADD MSTORE PUSH1 0x60 ADD SWAP1 JUMP JUMPDEST PUSH1 0x40 MLOAD PUSH1 0x20 DUP2 DUP4 SUB SUB DUP2 MSTORE SWAP1 PUSH1 0x40 MSTORE DUP1 MLOAD SWAP1 PUSH1 0x20 ADD KECCAK256 SWAP1 POP SWAP1 JUMP JUMPDEST PUSH2 0x8BD PUSH2 0x123A JUMP JUMPDEST PUSH2 0x77E DUP2 PUSH2 0x12DB JUMP JUMPDEST PUSH1 0x0 PUSH1 0x2 PUSH1 0x0 PUSH2 0x7AE PUSH2 0x1081 JUMP JUMPDEST PUSH1 0x0 PUSH1 0x5 PUSH1 0x0 PUSH2 0x809 PUSH2 0xC9A JUMP JUMPDEST PUSH2 0x8EA PUSH2 0x123A JUMP JUMPDEST PUSH2 0x77E DUP2 PUSH2 0x131B JUMP JUMPDEST PUSH1 0x0 PUSH1 0x40 MLOAD PUSH1 0x20 ADD PUSH2 0x89A SWAP1 PUSH1 0x20 DUP1 DUP3 MSTORE PUSH1 0xF SWAP1 DUP3 ADD MSTORE PUSH15 0x52455155495245445F51554F52554D PUSH1 0x88 SHL PUSH1 0x40 DUP3 ADD MSTORE PUSH1 0x60 ADD SWAP1 JUMP JUMPDEST PUSH1 0x60 PUSH1 0x1 PUSH1 0x0 PUSH2 0x936 PUSH2 0xA39 JUMP JUMPDEST DUP2 MSTORE PUSH1 0x20 ADD SWAP1 DUP2 MSTORE PUSH1 0x20 ADD PUSH1 0x0 KECCAK256 DUP1 SLOAD PUSH2 0x94F SWAP1 PUSH2 0x1E68 JUMP JUMPDEST DUP1 PUSH1 0x1F ADD PUSH1 0x20 DUP1 SWAP2 DIV MUL PUSH1 0x20 ADD PUSH1 0x40 MLOAD SWAP1 DUP2 ADD PUSH1 0x40 MSTORE DUP1 SWAP3 SWAP2 SWAP1 DUP2 DUP2 MSTORE PUSH1 0x20 ADD DUP3 DUP1 SLOAD PUSH2 0x97B SWAP1 PUSH2 0x1E68 JUMP JUMPDEST DUP1 ISZERO PUSH2 0x9C8 JUMPI DUP1 PUSH1 0x1F LT PUSH2 0x99D JUMPI PUSH2 0x100 DUP1 DUP4 SLOAD DIV MUL DUP4 MSTORE SWAP2 PUSH1 0x20 ADD SWAP2 PUSH2 0x9C8 JUMP JUMPDEST DUP3 ADD SWAP2 SWAP1 PUSH1 0x0 MSTORE PUSH1 0x20 PUSH1 0x0 KECCAK256 SWAP1 JUMPDEST DUP2 SLOAD DUP2 MSTORE SWAP1 PUSH1 0x1 ADD SWAP1 PUSH1 0x20 ADD DUP1 DUP4 GT PUSH2 0x9AB JUMPI DUP3 SWAP1 SUB PUSH1 0x1F AND DUP3 ADD SWAP2 JUMPDEST POP POP POP POP POP SWAP1 POP SWAP1 JUMP JUMPDEST PUSH2 0x9DA PUSH2 0x123A JUMP JUMPDEST PUSH2 0x77E DUP2 PUSH2 0x1365 JUMP JUMPDEST PUSH1 0x0 PUSH1 0x40 MLOAD PUSH1 0x20 ADD PUSH2 0x89A SWAP1 PUSH1 0x20 DUP1 DUP3 MSTORE PUSH1 0x8 SWAP1 DUP3 ADD MSTORE PUSH8 0x1511549352539053 PUSH1 0xC2 SHL PUSH1 0x40 DUP3 ADD MSTORE PUSH1 0x60 ADD SWAP1 JUMP JUMPDEST PUSH1 0x0 PUSH2 0xA1B PUSH2 0x822 JUMP JUMPDEST PUSH2 0xA23 PUSH2 0x7C2 JUMP JUMPDEST PUSH2 0xA2F SWAP1 PUSH2 0x2710 PUSH2 0x1EA2 JUMP JUMPDEST PUSH2 0x850 SWAP2 SWAP1 PUSH2 0x1EB9 JUMP JUMPDEST PUSH1 0x0 PUSH1 0x40 MLOAD PUSH1 0x20 ADD PUSH2 0x89A SWAP1 PUSH1 0x20 DUP1 DUP3 MSTORE PUSH1 0x7 SWAP1 DUP3 ADD MSTORE PUSH7 0x21A0A82A24A7A7 PUSH1 0xC9 SHL PUSH1 0x40 DUP3 ADD MSTORE PUSH1 0x60 ADD SWAP1 JUMP JUMPDEST PUSH1 0x0 PUSH1 0x2 PUSH1 0x0 PUSH2 0x7AE PUSH2 0xDE7 JUMP JUMPDEST PUSH1 0x0 PUSH1 0x40 MLOAD PUSH1 0x20 ADD PUSH2 0x89A SWAP1 PUSH1 0x20 DUP1 DUP3 MSTORE PUSH1 0x7 SWAP1 DUP3 ADD MSTORE PUSH7 0x4D455353414745 PUSH1 0xC8 SHL PUSH1 0x40 DUP3 ADD MSTORE PUSH1 0x60 ADD SWAP1 JUMP JUMPDEST PUSH1 0x0 PUSH1 0x4 PUSH1 0x0 PUSH2 0x756 PUSH2 0xF8E JUMP JUMPDEST PUSH1 0x0 PUSH1 0x40 MLOAD PUSH1 0x20 ADD PUSH2 0x89A SWAP1 PUSH1 0x20 DUP1 DUP3 MSTORE PUSH1 0x7 SWAP1 DUP3 ADD MSTORE PUSH7 0x21A922A0AA27A9 PUSH1 0xC9 SHL PUSH1 0x40 DUP3 ADD MSTORE PUSH1 0x60 ADD SWAP1 JUMP JUMPDEST PUSH1 0x0 PUSH1 0x2 PUSH1 0x0 PUSH2 0x7AE PUSH2 0x86D JUMP JUMPDEST PUSH1 0x60 PUSH1 0x0 PUSH2 0xAF6 PUSH2 0x10C3 JUMP JUMPDEST SWAP1 POP PUSH2 0xB00 PUSH2 0x13A5 JUMP JUMPDEST DUP1 PUSH1 0x1 PUSH1 0x1 PUSH1 0xA0 SHL SUB AND PUSH4 0xBAE07360 PUSH2 0xB17 PUSH2 0xF80 JUMP JUMPDEST PUSH2 0xB1F PUSH2 0xC7C JUMP JUMPDEST PUSH1 0x40 MLOAD DUP4 PUSH4 0xFFFFFFFF AND PUSH1 0xE0 SHL DUP2 MSTORE PUSH1 0x4 ADD PUSH2 0xB3C SWAP3 SWAP2 SWAP1 PUSH2 0x1EDB JUMP JUMPDEST PUSH1 0x0 PUSH1 0x40 MLOAD DUP1 DUP4 SUB DUP2 PUSH1 0x0 DUP8 GAS CALL ISZERO DUP1 ISZERO PUSH2 0xB5B JUMPI RETURNDATASIZE PUSH1 0x0 DUP1 RETURNDATACOPY RETURNDATASIZE PUSH1 0x0 REVERT JUMPDEST POP POP POP POP PUSH1 0x40 MLOAD RETURNDATASIZE PUSH1 0x0 DUP3 RETURNDATACOPY PUSH1 0x1F RETURNDATASIZE SWAP1 DUP2 ADD PUSH1 0x1F NOT AND DUP3 ADD PUSH1 0x40 MSTORE PUSH2 0xB83 SWAP2 SWAP1 DUP2 ADD SWAP1 PUSH2 0x1EFF JUMP JUMPDEST SWAP2 POP POP SWAP1 JUMP JUMPDEST PUSH1 0x0 PUSH1 0x40 MLOAD PUSH1 0x20 ADD PUSH2 0x89A SWAP1 PUSH1 0x20 DUP1 DUP3 MSTORE PUSH1 0x7 SWAP1 DUP3 ADD MSTORE PUSH7 0x14D5541413D495 PUSH1 0xCA SHL PUSH1 0x40 DUP3 ADD MSTORE PUSH1 0x60 ADD SWAP1 JUMP JUMPDEST PUSH1 0x0 PUSH1 0x40 MLOAD PUSH1 0x20 ADD PUSH2 0x89A SWAP1 PUSH1 0x20 DUP1 DUP3 MSTORE PUSH1 0xB SWAP1 DUP3 ADD MSTORE PUSH11 0x1253925512505312569151 PUSH1 0xAA SHL PUSH1 0x40 DUP3 ADD MSTORE PUSH1 0x60 ADD SWAP1 JUMP JUMPDEST PUSH1 0x0 PUSH1 0x40 MLOAD PUSH1 0x20 ADD PUSH2 0x89A SWAP1 PUSH1 0x20 DUP1 DUP3 MSTORE PUSH1 0x7 SWAP1 DUP3 ADD MSTORE PUSH7 0x1051D0525394D5 PUSH1 0xCA SHL PUSH1 0x40 DUP3 ADD MSTORE PUSH1 0x60 ADD SWAP1 JUMP JUMPDEST PUSH1 0x0 PUSH1 0x40 MLOAD PUSH1 0x20 ADD PUSH2 0x89A SWAP1 PUSH1 0x20 DUP1 DUP3 MSTORE PUSH1 0xF SWAP1 DUP3 ADD MSTORE PUSH15 0x53544152545F54494D455354414D5 PUSH1 0x8C SHL PUSH1 0x40 DUP3 ADD MSTORE PUSH1 0x60 ADD SWAP1 JUMP JUMPDEST PUSH2 0xC51 PUSH2 0x123A JUMP JUMPDEST PUSH2 0x77E DUP2 PUSH2 0x1416 JUMP JUMPDEST PUSH1 0x0 PUSH1 0x2 PUSH1 0x0 PUSH2 0x7AE PUSH2 0x8F3 JUMP JUMPDEST PUSH2 0xC70 PUSH2 0x123A JUMP JUMPDEST PUSH2 0xC7A PUSH1 0x0 PUSH2 0x1487 JUMP JUMPDEST JUMP JUMPDEST PUSH1 0x60 PUSH1 0x0 DUP1 PUSH2 0x936 PUSH2 0xE1F JUMP JUMPDEST PUSH2 0xC91 PUSH2 0x123A JUMP JUMPDEST PUSH2 0x77E DUP2 PUSH2 0x14FE JUMP JUMPDEST PUSH1 0x0 PUSH1 0x40 MLOAD PUSH1 0x20 ADD PUSH2 0x89A SWAP1 PUSH1 0x20 DUP1 DUP3 MSTORE PUSH1 0x8 SWAP1 DUP3 ADD MSTORE PUSH8 0x11561150D5551151 PUSH1 0xC2 SHL PUSH1 0x40 DUP3 ADD MSTORE PUSH1 0x60 ADD SWAP1 JUMP JUMPDEST PUSH2 0xC7A PUSH2 0x153E JUMP JUMPDEST PUSH1 0x0 PUSH2 0xCDA PUSH2 0x855 JUMP JUMPDEST DUP1 ISZERO PUSH2 0x850 JUMPI POP PUSH2 0xCE9 PUSH2 0x7D0 JUMP JUMPDEST ISZERO SWAP1 POP SWAP1 JUMP JUMPDEST PUSH1 0x0 PUSH2 0xCF9 PUSH2 0xCD0 JUMP JUMPDEST ISZERO PUSH2 0xD11 JUMPI TIMESTAMP PUSH2 0xD07 PUSH2 0xDC4 JUMP JUMPDEST PUSH2 0x850 SWAP2 SWAP1 PUSH2 0x1F76 JUMP JUMPDEST PUSH2 0xD19 PUSH2 0x855 JUMP JUMPDEST ISZERO PUSH2 0xD26 JUMPI PUSH2 0x850 PUSH2 0x7A0 JUMP JUMPDEST POP PUSH1 0x0 SWAP1 JUMP JUMPDEST PUSH1 0x0 PUSH1 0x4 PUSH1 0x0 PUSH2 0x756 PUSH2 0xE49 JUMP JUMPDEST PUSH1 0x0 PUSH1 0x40 MLOAD PUSH1 0x20 ADD PUSH2 0x89A SWAP1 PUSH1 0x20 DUP1 DUP3 MSTORE PUSH1 0x8 SWAP1 DUP3 ADD MSTORE PUSH8 0x222AA920AA24A7A7 PUSH1 0xC1 SHL PUSH1 0x40 DUP3 ADD MSTORE PUSH1 0x60 ADD SWAP1 JUMP JUMPDEST PUSH2 0xD70 PUSH2 0x123A JUMP JUMPDEST PUSH2 0xC7A PUSH2 0x1557 JUMP JUMPDEST PUSH1 0x0 PUSH2 0xD82 PUSH2 0xE85 JUMP JUMPDEST PUSH2 0x7F4 PUSH2 0x822 JUMP JUMPDEST PUSH1 0x0 PUSH1 0x5 PUSH1 0x0 PUSH2 0x809 PUSH2 0xF32 JUMP JUMPDEST PUSH1 0x0 PUSH1 0x40 MLOAD PUSH1 0x20 ADD PUSH2 0x89A SWAP1 PUSH1 0x20 DUP1 DUP3 MSTORE PUSH1 0x6 SWAP1 DUP3 ADD MSTORE PUSH6 0x15105491D155 PUSH1 0xD2 SHL PUSH1 0x40 DUP3 ADD MSTORE PUSH1 0x60 ADD SWAP1 JUMP JUMPDEST PUSH1 0x0 PUSH2 0xDCE PUSH2 0x7A0 JUMP JUMPDEST PUSH2 0x846 PUSH2 0x1073 JUMP JUMPDEST PUSH2 0xDDE PUSH2 0x123A JUMP JUMPDEST PUSH2 0x77E DUP2 PUSH2 0x1629 JUMP JUMPDEST PUSH1 0x0 PUSH1 0x40 MLOAD PUSH1 0x20 ADD PUSH2 0x89A SWAP1 PUSH1 0x20 DUP1 DUP3 MSTORE PUSH1 0x12 SWAP1 DUP3 ADD MSTORE PUSH18 0x149154555254915117D512149154D213D311 PUSH1 0x72 SHL PUSH1 0x40 DUP3 ADD MSTORE PUSH1 0x60 ADD SWAP1 JUMP JUMPDEST PUSH1 0x0 PUSH1 0x40 MLOAD PUSH1 0x20 ADD PUSH2 0x89A SWAP1 PUSH1 0x20 DUP1 DUP3 MSTORE PUSH1 0x4 SWAP1 DUP3 ADD MSTORE PUSH4 0x44415441 PUSH1 0xE0 SHL PUSH1 0x40 DUP3 ADD MSTORE PUSH1 0x60 ADD SWAP1 JUMP JUMPDEST PUSH1 0x0 PUSH1 0x40 MLOAD PUSH1 0x20 ADD PUSH2 0x89A SWAP1 PUSH1 0x20 DUP1 DUP3 MSTORE PUSH1 0x5 SWAP1 DUP3 ADD MSTORE PUSH5 0x27ABA722A9 PUSH1 0xD9 SHL PUSH1 0x40 DUP3 ADD MSTORE PUSH1 0x60 ADD SWAP1 JUMP JUMPDEST PUSH2 0xE7C PUSH2 0x123A JUMP JUMPDEST PUSH2 0x77E DUP2 PUSH2 0x1673 JUMP JUMPDEST PUSH1 0x0 DUP1 PUSH2 0xE90 PUSH2 0xAA1 JUMP JUMPDEST SWAP1 POP PUSH1 0x0 DUP2 PUSH1 0x1 PUSH1 0x1 PUSH1 0xA0 SHL SUB AND PUSH4 0x981B24D0 PUSH2 0xEAB PUSH2 0x8C6 JUMP JUMPDEST PUSH1 0x40 MLOAD DUP3 PUSH4 0xFFFFFFFF AND PUSH1 0xE0 SHL DUP2 MSTORE PUSH1 0x4 ADD PUSH2 0xEC9 SWAP2 DUP2 MSTORE PUSH1 0x20 ADD SWAP1 JUMP JUMPDEST PUSH1 0x20 PUSH1 0x40 MLOAD DUP1 DUP4 SUB DUP2 DUP7 GAS STATICCALL ISZERO DUP1 ISZERO PUSH2 0xEE6 JUMPI RETURNDATASIZE PUSH1 0x0 DUP1 RETURNDATACOPY RETURNDATASIZE PUSH1 0x0 REVERT JUMPDEST POP POP POP POP PUSH1 0x40 MLOAD RETURNDATASIZE PUSH1 0x1F NOT PUSH1 0x1F DUP3 ADD AND DUP3 ADD DUP1 PUSH1 0x40 MSTORE POP DUP2 ADD SWAP1 PUSH2 0xF0A SWAP2 SWAP1 PUSH2 0x1F89 JUMP JUMPDEST SWAP1 POP PUSH2 0x2710 PUSH2 0xF17 PUSH2 0xC5A JUMP JUMPDEST PUSH2 0xF21 SWAP1 DUP4 PUSH2 0x1EA2 JUMP JUMPDEST PUSH2 0xF2B SWAP2 SWAP1 PUSH2 0x1EB9 JUMP JUMPDEST SWAP3 POP POP POP SWAP1 JUMP JUMPDEST PUSH1 0x0 PUSH1 0x40 MLOAD PUSH1 0x20 ADD PUSH2 0x89A SWAP1 PUSH1 0x20 DUP1 DUP3 MSTORE PUSH1 0x6 SWAP1 DUP3 ADD MSTORE PUSH6 0x141054D4D151 PUSH1 0xD2 SHL PUSH1 0x40 DUP3 ADD MSTORE PUSH1 0x60 ADD SWAP1 JUMP JUMPDEST PUSH2 0xF66 PUSH2 0x123A JUMP JUMPDEST PUSH2 0x77E DUP2 PUSH2 0x16B3 JUMP JUMPDEST PUSH2 0xF77 PUSH2 0x123A JUMP JUMPDEST PUSH2 0x77E DUP2 PUSH2 0x16F3 JUMP JUMPDEST PUSH1 0x0 PUSH1 0x4 PUSH1 0x0 PUSH2 0x756 PUSH2 0xD98 JUMP JUMPDEST PUSH1 0x0 PUSH1 0x40 MLOAD PUSH1 0x20 ADD PUSH2 0x89A SWAP1 PUSH1 0x20 DUP1 DUP3 MSTORE PUSH1 0xC SWAP1 DUP3 ADD MSTORE PUSH12 0x564F54494E475F455243323 PUSH1 0xA4 SHL PUSH1 0x40 DUP3 ADD MSTORE PUSH1 0x60 ADD SWAP1 JUMP JUMPDEST PUSH1 0x0 PUSH1 0x40 MLOAD PUSH1 0x20 ADD PUSH2 0x89A SWAP1 PUSH1 0x20 DUP1 DUP3 MSTORE PUSH1 0x1A SWAP1 DUP3 ADD MSTORE PUSH32 0x4D554C54495F5349475F50524F504F53414C5F464143544F5259000000000000 PUSH1 0x40 DUP3 ADD MSTORE PUSH1 0x60 ADD SWAP1 JUMP JUMPDEST PUSH2 0x100B PUSH2 0x123A JUMP JUMPDEST PUSH2 0x77E DUP2 PUSH2 0x172A JUMP JUMPDEST PUSH1 0x0 PUSH1 0x2 PUSH1 0x0 PUSH2 0x7AE PUSH2 0xBE7 JUMP JUMPDEST PUSH1 0x0 PUSH1 0x40 MLOAD PUSH1 0x20 ADD PUSH2 0x89A SWAP1 PUSH1 0x20 DUP1 DUP3 MSTORE PUSH1 0x1B SWAP1 DUP3 ADD MSTORE PUSH32 0x5245464552454E44554D5F50524F504F53414C5F464143544F52590000000000 PUSH1 0x40 DUP3 ADD MSTORE PUSH1 0x60 ADD SWAP1 JUMP JUMPDEST PUSH1 0x60 PUSH1 0x1 PUSH1 0x0 PUSH2 0x936 PUSH2 0xA74 JUMP JUMPDEST PUSH1 0x0 PUSH1 0x2 PUSH1 0x0 PUSH2 0x7AE PUSH2 0xC14 JUMP JUMPDEST PUSH1 0x0 PUSH1 0x40 MLOAD PUSH1 0x20 ADD PUSH2 0x89A SWAP1 PUSH1 0x20 DUP1 DUP3 MSTORE PUSH1 0xB SWAP1 DUP3 ADD MSTORE PUSH11 0x14D3905414D213D517D251 PUSH1 0xAA SHL PUSH1 0x40 DUP3 ADD MSTORE PUSH1 0x60 ADD SWAP1 JUMP JUMPDEST PUSH2 0x10BA PUSH2 0x123A JUMP JUMPDEST PUSH2 0x77E DUP2 PUSH2 0x1487 JUMP JUMPDEST PUSH1 0x0 PUSH1 0x4 PUSH1 0x0 PUSH2 0x756 PUSH2 0x9E3 JUMP JUMPDEST PUSH2 0x10D9 PUSH2 0x123A JUMP JUMPDEST PUSH2 0x77E DUP2 PUSH2 0x1792 JUMP JUMPDEST PUSH2 0x10EA PUSH2 0x123A JUMP JUMPDEST PUSH2 0x77E DUP2 PUSH2 0x17C9 JUMP JUMPDEST PUSH2 0x10FB PUSH2 0x183A JUMP JUMPDEST PUSH2 0x1103 PUSH2 0x188E JUMP JUMPDEST PUSH2 0x110B PUSH2 0x18E3 JUMP JUMPDEST PUSH1 0x0 PUSH2 0x1115 PUSH2 0xAA1 JUMP JUMPDEST PUSH1 0x1 PUSH1 0x1 PUSH1 0xA0 SHL SUB AND PUSH4 0x4EE2CD7E CALLER PUSH2 0x112C PUSH2 0x8C6 JUMP JUMPDEST PUSH1 0x40 MLOAD PUSH1 0x1 PUSH1 0x1 PUSH1 0xE0 SHL SUB NOT PUSH1 0xE0 DUP6 SWAP1 SHL AND DUP2 MSTORE PUSH1 0x1 PUSH1 0x1 PUSH1 0xA0 SHL SUB SWAP1 SWAP3 AND PUSH1 0x4 DUP4 ADD MSTORE PUSH1 0x24 DUP3 ADD MSTORE PUSH1 0x44 ADD PUSH1 0x20 PUSH1 0x40 MLOAD DUP1 DUP4 SUB DUP2 DUP7 GAS STATICCALL ISZERO DUP1 ISZERO PUSH2 0x1175 JUMPI RETURNDATASIZE PUSH1 0x0 DUP1 RETURNDATACOPY RETURNDATASIZE PUSH1 0x0 REVERT JUMPDEST POP POP POP POP PUSH1 0x40 MLOAD RETURNDATASIZE PUSH1 0x1F NOT PUSH1 0x1F DUP3 ADD AND DUP3 ADD DUP1 PUSH1 0x40 MSTORE POP DUP2 ADD SWAP1 PUSH2 0x1199 SWAP2 SWAP1 PUSH2 0x1F89 JUMP JUMPDEST SWAP1 POP DUP2 PUSH1 0x0 SUB PUSH2 0x11B1 JUMPI PUSH2 0x11AC DUP2 PUSH2 0x1938 JUMP JUMPDEST PUSH2 0x122E JUMP JUMPDEST DUP2 PUSH1 0x1 SUB PUSH2 0x11C2 JUMPI PUSH2 0x11AC DUP2 PUSH2 0x1997 JUMP JUMPDEST DUP2 PUSH1 0x2 SUB PUSH2 0x11D3 JUMPI PUSH2 0x11AC DUP2 PUSH2 0x19F6 JUMP JUMPDEST PUSH1 0x40 MLOAD PUSH3 0x461BCD PUSH1 0xE5 SHL DUP2 MSTORE PUSH1 0x20 PUSH1 0x4 DUP3 ADD MSTORE PUSH1 0x25 PUSH1 0x24 DUP3 ADD MSTORE PUSH32 0x5265666572656E64756D50726F706F73616C3A20756E737570706F7274656420 PUSH1 0x44 DUP3 ADD MSTORE PUSH5 0x1A5B9C1D5D PUSH1 0xDA SHL PUSH1 0x64 DUP3 ADD MSTORE PUSH1 0x84 ADD JUMPDEST PUSH1 0x40 MLOAD DUP1 SWAP2 SUB SWAP1 REVERT JUMPDEST PUSH2 0x1236 PUSH2 0x1A55 JUMP JUMPDEST POP POP JUMP JUMPDEST CALLER PUSH2 0x1243 PUSH2 0xD2C JUMP JUMPDEST PUSH1 0x1 PUSH1 0x1 PUSH1 0xA0 SHL SUB AND EQ PUSH2 0xC7A JUMPI PUSH1 0x40 MLOAD PUSH3 0x461BCD PUSH1 0xE5 SHL DUP2 MSTORE PUSH1 0x20 PUSH1 0x4 DUP3 ADD MSTORE PUSH1 0x15 PUSH1 0x24 DUP3 ADD MSTORE PUSH21 0x37BBB732B9141490109E9036B9B39739B2B73232B9 PUSH1 0x59 SHL PUSH1 0x44 DUP3 ADD MSTORE PUSH1 0x64 ADD PUSH2 0x1225 JUMP JUMPDEST PUSH2 0x129A DUP2 PUSH2 0x1ACA JUMP JUMPDEST DUP1 PUSH1 0x40 MLOAD PUSH2 0x12A8 SWAP2 SWAP1 PUSH2 0x1FA2 JUMP JUMPDEST PUSH1 0x40 MLOAD SWAP1 DUP2 SWAP1 SUB DUP2 KECCAK256 SWAP1 PUSH32 0x7935B61140DB6ED0DBBD02B692ADFAA25439AB982BD6EEA1879AE7BE537CBFED SWAP1 PUSH1 0x0 SWAP1 LOG2 POP JUMP JUMPDEST PUSH2 0x12E4 DUP2 PUSH2 0x1AF1 JUMP JUMPDEST PUSH1 0x40 MLOAD PUSH1 0x1 PUSH1 0x1 PUSH1 0xA0 SHL SUB DUP3 AND SWAP1 PUSH32 0xD09C0624CACA0531EA4B7BD26613634CF337F4065EF6AFF84501CBC8182C5355 SWAP1 PUSH1 0x0 SWAP1 LOG2 POP JUMP JUMPDEST PUSH2 0x1324 DUP2 PUSH2 0x1B33 JUMP JUMPDEST DUP1 PUSH1 0x40 MLOAD PUSH2 0x1332 SWAP2 SWAP1 PUSH2 0x1FA2 JUMP JUMPDEST PUSH1 0x40 MLOAD SWAP1 DUP2 SWAP1 SUB DUP2 KECCAK256 SWAP1 PUSH32 0x3D7F415C35B881F2D0A109B3D9A1377E1E14AFEC5CC1FD06B563ED160C5E2630 SWAP1 PUSH1 0x0 SWAP1 LOG2 POP JUMP JUMPDEST PUSH2 0x136E DUP2 PUSH2 0x1B40 JUMP JUMPDEST PUSH1 0x40 MLOAD PUSH1 0x1 PUSH1 0x1 PUSH1 0xA0 SHL SUB DUP3 AND SWAP1 PUSH32 0xD4396A7E1EE1013C611432F59B862687DB5C35B5AE1FD43334CCBA88FAC8E678 SWAP1 PUSH1 0x0 SWAP1 LOG2 POP JUMP JUMPDEST PUSH2 0x13AD PUSH2 0x183A JUMP JUMPDEST PUSH2 0x13B5 PUSH2 0x1B4D JUMP JUMPDEST PUSH2 0x13BD PUSH2 0x18E3 JUMP JUMPDEST PUSH1 0x1 PUSH1 0x5 PUSH1 0x0 PUSH2 0x13CB PUSH2 0xC9A JUMP JUMPDEST DUP2 MSTORE PUSH1 0x20 DUP2 ADD SWAP2 SWAP1 SWAP2 MSTORE PUSH1 0x40 SWAP1 DUP2 ADD PUSH1 0x0 SWAP1 DUP2 KECCAK256 DUP1 SLOAD PUSH1 0xFF NOT AND SWAP4 ISZERO ISZERO SWAP4 SWAP1 SWAP4 OR SWAP1 SWAP3 SSTORE MLOAD PUSH32 0x68F46C45A243A0E9065A97649FAF9A5AFE1692F2679E650C2F853B9CD734CC0E SWAP2 SWAP1 LOG1 JUMP JUMPDEST PUSH2 0x2710 DUP2 GT ISZERO PUSH2 0x1438 JUMPI PUSH1 0x40 MLOAD PUSH3 0x461BCD PUSH1 0xE5 SHL DUP2 MSTORE PUSH1 0x4 ADD PUSH2 0x1225 SWAP1 PUSH2 0x1FBE JUMP JUMPDEST DUP1 PUSH1 0x2 PUSH1 0x0 PUSH2 0x1445 PUSH2 0xDE7 JUMP JUMPDEST DUP2 MSTORE PUSH1 0x20 ADD SWAP1 DUP2 MSTORE PUSH1 0x20 ADD PUSH1 0x0 KECCAK256 DUP2 SWAP1 SSTORE POP DUP1 PUSH32 0x8C3C72BC6CBBE96B506AEC6D1E60128ED7AFF893E475F219672F7B5CBEB17F99 PUSH1 0x40 MLOAD PUSH1 0x40 MLOAD DUP1 SWAP2 SUB SWAP1 LOG2 POP JUMP JUMPDEST PUSH1 0x0 PUSH2 0x1491 PUSH2 0xD2C JUMP JUMPDEST SWAP1 POP DUP2 PUSH1 0x4 PUSH1 0x0 PUSH2 0x14A0 PUSH2 0xE49 JUMP JUMPDEST DUP2 MSTORE PUSH1 0x20 DUP2 ADD SWAP2 SWAP1 SWAP2 MSTORE PUSH1 0x40 SWAP1 DUP2 ADD PUSH1 0x0 SWAP1 DUP2 KECCAK256 DUP1 SLOAD PUSH1 0x1 PUSH1 0x1 PUSH1 0xA0 SHL SUB NOT AND PUSH1 0x1 PUSH1 0x1 PUSH1 0xA0 SHL SUB SWAP5 DUP6 AND OR SWAP1 SSTORE SWAP1 MLOAD DUP5 DUP4 AND SWAP3 DUP5 AND SWAP2 PUSH32 0x8BE0079C531659141344CD1FD0A4F28419497F9722A3DAAFE3B4186F6B6457E0 SWAP2 LOG3 POP POP JUMP JUMPDEST PUSH2 0x1507 DUP2 PUSH2 0x1BA1 JUMP JUMPDEST PUSH1 0x40 MLOAD PUSH1 0x1 PUSH1 0x1 PUSH1 0xA0 SHL SUB DUP3 AND SWAP1 PUSH32 0x3BFB4BBF112628248058745A3C57E35B13369386E474B8E56C552F3063A4A196 SWAP1 PUSH1 0x0 SWAP1 LOG2 POP JUMP JUMPDEST PUSH2 0x1547 CALLER PUSH2 0x1487 JUMP JUMPDEST PUSH2 0x154F PUSH2 0x1BAE JUMP JUMPDEST PUSH2 0xC7A PUSH2 0x1BB7 JUMP JUMPDEST PUSH2 0x155F PUSH2 0xAA1 JUMP JUMPDEST PUSH1 0x1 PUSH1 0x1 PUSH1 0xA0 SHL SUB AND PUSH4 0x9711715A PUSH1 0x40 MLOAD DUP2 PUSH4 0xFFFFFFFF AND PUSH1 0xE0 SHL DUP2 MSTORE PUSH1 0x4 ADD PUSH1 0x20 PUSH1 0x40 MLOAD DUP1 DUP4 SUB DUP2 PUSH1 0x0 DUP8 GAS CALL ISZERO DUP1 ISZERO PUSH2 0x159E JUMPI RETURNDATASIZE PUSH1 0x0 DUP1 RETURNDATACOPY RETURNDATASIZE PUSH1 0x0 REVERT JUMPDEST POP POP POP POP PUSH1 0x40 MLOAD RETURNDATASIZE PUSH1 0x1F NOT PUSH1 0x1F DUP3 ADD AND DUP3 ADD DUP1 PUSH1 0x40 MSTORE POP DUP2 ADD SWAP1 PUSH2 0x15C2 SWAP2 SWAP1 PUSH2 0x1F89 JUMP JUMPDEST PUSH1 0x2 PUSH1 0x0 PUSH2 0x15CE PUSH2 0x1081 JUMP JUMPDEST DUP2 MSTORE PUSH1 0x20 ADD SWAP1 DUP2 MSTORE PUSH1 0x20 ADD PUSH1 0x0 KECCAK256 DUP2 SWAP1 SSTORE POP PUSH1 0x2 PUSH1 0x0 PUSH2 0x15EC PUSH2 0x1081 JUMP JUMPDEST DUP2 MSTORE PUSH1 0x20 ADD SWAP1 DUP2 MSTORE PUSH1 0x20 ADD PUSH1 0x0 KECCAK256 SLOAD PUSH32 0xD6D4BA5CDC121C3D1E1D9D83BF92765B05C9C7C4C50C1054DF6682FF3DDE9386 PUSH1 0x40 MLOAD PUSH1 0x40 MLOAD DUP1 SWAP2 SUB SWAP1 LOG2 JUMP JUMPDEST PUSH2 0x1632 DUP2 PUSH2 0x1C3B JUMP JUMPDEST DUP1 PUSH1 0x40 MLOAD PUSH2 0x1640 SWAP2 SWAP1 PUSH2 0x1FA2 JUMP JUMPDEST PUSH1 0x40 MLOAD SWAP1 DUP2 SWAP1 SUB DUP2 KECCAK256 SWAP1 PUSH32 0x648803D94E57304C319CBB4AF7A1B1B5D74577E581F5F6CF5E8AF9A932BB0D54 SWAP1 PUSH1 0x0 SWAP1 LOG2 POP JUMP JUMPDEST PUSH2 0x167C DUP2 PUSH2 0x1C47 JUMP JUMPDEST PUSH1 0x40 MLOAD PUSH1 0x1 PUSH1 0x1 PUSH1 0xA0 SHL SUB DUP3 AND SWAP1 PUSH32 0xDA041D56F89460D53852E1B9F9576DC62EB726BDE1008706DD87CDFE647A6973 SWAP1 PUSH1 0x0 SWAP1 LOG2 POP JUMP JUMPDEST PUSH2 0x16BC DUP2 PUSH2 0x1C54 JUMP JUMPDEST PUSH1 0x40 MLOAD PUSH1 0x1 PUSH1 0x1 PUSH1 0xA0 SHL SUB DUP3 AND SWAP1 PUSH32 0x35C343C1B11E5CC8AE3B77869ED9A3D1C4191286EDCFA2AD41E689AB012EADC1 SWAP1 PUSH1 0x0 SWAP1 LOG2 POP JUMP JUMPDEST PUSH2 0x16FC DUP2 PUSH2 0x1C61 JUMP JUMPDEST PUSH1 0x40 MLOAD DUP2 SWAP1 PUSH32 0x2B9EA1248DAF3A58246CA1B3401344F8F1809F146BAD26CCC6059CBA160ED221 SWAP1 PUSH1 0x0 SWAP1 LOG2 POP JUMP JUMPDEST DUP1 PUSH1 0x4 PUSH1 0x0 PUSH2 0x1737 PUSH2 0xF8E JUMP JUMPDEST DUP2 MSTORE PUSH1 0x20 DUP2 ADD SWAP2 SWAP1 SWAP2 MSTORE PUSH1 0x40 SWAP1 DUP2 ADD PUSH1 0x0 SWAP1 DUP2 KECCAK256 DUP1 SLOAD PUSH1 0x1 PUSH1 0x1 PUSH1 0xA0 SHL SUB NOT AND PUSH1 0x1 PUSH1 0x1 PUSH1 0xA0 SHL SUB SWAP5 DUP6 AND OR SWAP1 SSTORE SWAP1 MLOAD SWAP2 DUP4 AND SWAP2 PUSH32 0x114D15828C0B9D9EDDA29C2B42EFBEF9D2C1ED07528E4716BFBB326A30F39A52 SWAP2 SWAP1 LOG2 POP JUMP JUMPDEST PUSH2 0x179B DUP2 PUSH2 0x1C82 JUMP JUMPDEST PUSH1 0x40 MLOAD DUP2 SWAP1 PUSH32 0x234A8B70E70D5FC5ACE24D19C8C988EDFD5DC006D6F8356CAB0273E2F084A909 SWAP1 PUSH1 0x0 SWAP1 LOG2 POP JUMP JUMPDEST PUSH2 0x2710 DUP2 GT ISZERO PUSH2 0x17EB JUMPI PUSH1 0x40 MLOAD PUSH3 0x461BCD PUSH1 0xE5 SHL DUP2 MSTORE PUSH1 0x4 ADD PUSH2 0x1225 SWAP1 PUSH2 0x1FBE JUMP JUMPDEST DUP1 PUSH1 0x2 PUSH1 0x0 PUSH2 0x17F8 PUSH2 0x8F3 JUMP JUMPDEST DUP2 MSTORE PUSH1 0x20 ADD SWAP1 DUP2 MSTORE PUSH1 0x20 ADD PUSH1 0x0 KECCAK256 DUP2 SWAP1 SSTORE POP DUP1 PUSH32 0x79BA8674A90CD5C280A86C18D9B4FA843C1BC0A11C3AFAF2C50DF52C0CA0FB06 PUSH1 0x40 MLOAD PUSH1 0x40 MLOAD DUP1 SWAP2 SUB SWAP1 LOG2 POP JUMP JUMPDEST PUSH2 0x1842 PUSH2 0xCD0 JUMP JUMPDEST PUSH2 0xC7A JUMPI PUSH1 0x40 MLOAD PUSH3 0x461BCD PUSH1 0xE5 SHL DUP2 MSTORE PUSH1 0x20 PUSH1 0x4 DUP3 ADD MSTORE PUSH1 0x1F PUSH1 0x24 DUP3 ADD MSTORE PUSH32 0x5265666572656E64756D50726F706F73616C3A2021636F756E74696E67282900 PUSH1 0x44 DUP3 ADD MSTORE PUSH1 0x64 ADD PUSH2 0x1225 JUMP JUMPDEST PUSH2 0x1896 PUSH2 0xD8A JUMP JUMPDEST ISZERO PUSH2 0xC7A JUMPI PUSH1 0x40 MLOAD PUSH3 0x461BCD PUSH1 0xE5 SHL DUP2 MSTORE PUSH1 0x20 PUSH1 0x4 DUP3 ADD MSTORE PUSH1 0x1C PUSH1 0x24 DUP3 ADD MSTORE PUSH32 0x5265666572656E64756D50726F706F73616C3A20706173736564282900000000 PUSH1 0x44 DUP3 ADD MSTORE PUSH1 0x64 ADD PUSH2 0x1225 JUMP JUMPDEST PUSH2 0x18EB PUSH2 0x8D4 JUMP JUMPDEST ISZERO PUSH2 0xC7A JUMPI PUSH1 0x40 MLOAD PUSH3 0x461BCD PUSH1 0xE5 SHL DUP2 MSTORE PUSH1 0x20 PUSH1 0x4 DUP3 ADD MSTORE PUSH1 0x1E PUSH1 0x24 DUP3 ADD MSTORE PUSH32 0x5265666572656E64756D50726F706F73616C3A20657865637574656428290000 PUSH1 0x44 DUP3 ADD MSTORE PUSH1 0x64 ADD PUSH2 0x1225 JUMP JUMPDEST DUP1 PUSH1 0x2 PUSH1 0x0 PUSH2 0x1945 PUSH2 0x86D JUMP JUMPDEST DUP2 MSTORE PUSH1 0x20 ADD SWAP1 DUP2 MSTORE PUSH1 0x20 ADD PUSH1 0x0 KECCAK256 PUSH1 0x0 DUP3 DUP3 SLOAD PUSH2 0x1962 SWAP2 SWAP1 PUSH2 0x1E4F JUMP JUMPDEST SWAP1 SWAP2 SSTORE POP POP PUSH1 0x40 MLOAD DUP2 SWAP1 CALLER SWAP1 PUSH32 0xC795FD933E199D367001436A8CD6F9D694CE6F65F0E4787F90342007833A1253 SWAP1 PUSH1 0x0 SWAP1 LOG3 POP JUMP JUMPDEST DUP1 PUSH1 0x2 PUSH1 0x0 PUSH2 0x19A4 PUSH2 0xBE7 JUMP JUMPDEST DUP2 MSTORE PUSH1 0x20 ADD SWAP1 DUP2 MSTORE PUSH1 0x20 ADD PUSH1 0x0 KECCAK256 PUSH1 0x0 DUP3 DUP3 SLOAD PUSH2 0x19C1 SWAP2 SWAP1 PUSH2 0x1E4F JUMP JUMPDEST SWAP1 SWAP2 SSTORE POP POP PUSH1 0x40 MLOAD DUP2 SWAP1 CALLER SWAP1 PUSH32 0xA83AA407C0AEA80C3A1E1433F5A87C67E906DAFE3E78B22D449979EC22847C5B SWAP1 PUSH1 0x0 SWAP1 LOG3 POP JUMP JUMPDEST DUP1 PUSH1 0x2 PUSH1 0x0 PUSH2 0x1A03 PUSH2 0xB89 JUMP JUMPDEST DUP2 MSTORE PUSH1 0x20 ADD SWAP1 DUP2 MSTORE PUSH1 0x20 ADD PUSH1 0x0 KECCAK256 PUSH1 0x0 DUP3 DUP3 SLOAD PUSH2 0x1A20 SWAP2 SWAP1 PUSH2 0x1E4F JUMP JUMPDEST SWAP1 SWAP2 SSTORE POP POP PUSH1 0x40 MLOAD DUP2 SWAP1 CALLER SWAP1 PUSH32 0xDA8E2BCE8FD493451FDD1339476184FDE26E2B59C861FEF937D7DA5A846F895B SWAP1 PUSH1 0x0 SWAP1 LOG3 POP JUMP JUMPDEST PUSH2 0x1A5D PUSH2 0xD78 JUMP JUMPDEST DUP1 ISZERO PUSH2 0x1A6C JUMPI POP PUSH2 0x1A6C PUSH2 0x7E2 JUMP JUMPDEST ISZERO PUSH2 0xC7A JUMPI PUSH1 0x1 PUSH1 0x5 PUSH1 0x0 PUSH2 0x1A7F PUSH2 0xF32 JUMP JUMPDEST DUP2 MSTORE PUSH1 0x20 DUP2 ADD SWAP2 SWAP1 SWAP2 MSTORE PUSH1 0x40 SWAP1 DUP2 ADD PUSH1 0x0 SWAP1 DUP2 KECCAK256 DUP1 SLOAD PUSH1 0xFF NOT AND SWAP4 ISZERO ISZERO SWAP4 SWAP1 SWAP4 OR SWAP1 SWAP3 SSTORE MLOAD PUSH32 0x5AA8A44622C21066164C551945CAF713792E9FBEE8CE54BB83CB3D5410549DFE SWAP2 SWAP1 LOG1 JUMP JUMPDEST DUP1 PUSH1 0x1 PUSH1 0x0 PUSH2 0x1AD7 PUSH2 0xA39 JUMP JUMPDEST DUP2 MSTORE PUSH1 0x20 ADD SWAP1 DUP2 MSTORE PUSH1 0x20 ADD PUSH1 0x0 KECCAK256 SWAP1 DUP2 PUSH2 0x1236 SWAP2 SWAP1 PUSH2 0x204E JUMP JUMPDEST DUP1 PUSH1 0x4 PUSH1 0x0 PUSH2 0x1AFE PUSH2 0xFC0 JUMP JUMPDEST DUP2 MSTORE PUSH1 0x20 ADD SWAP1 DUP2 MSTORE PUSH1 0x20 ADD PUSH1 0x0 KECCAK256 PUSH1 0x0 PUSH2 0x100 EXP DUP2 SLOAD DUP2 PUSH1 0x1 PUSH1 0x1 PUSH1 0xA0 SHL SUB MUL NOT AND SWAP1 DUP4 PUSH1 0x1 PUSH1 0x1 PUSH1 0xA0 SHL SUB AND MUL OR SWAP1 SSTORE POP POP JUMP JUMPDEST DUP1 PUSH1 0x1 PUSH1 0x0 PUSH2 0x1AD7 PUSH2 0xA74 JUMP JUMPDEST DUP1 PUSH1 0x4 PUSH1 0x0 PUSH2 0x1AFE PUSH2 0xAAF JUMP JUMPDEST PUSH2 0x1B55 PUSH2 0xD8A JUMP JUMPDEST PUSH2 0xC7A JUMPI PUSH1 0x40 MLOAD PUSH3 0x461BCD PUSH1 0xE5 SHL DUP2 MSTORE PUSH1 0x20 PUSH1 0x4 DUP3 ADD MSTORE PUSH1 0x1D PUSH1 0x24 DUP3 ADD MSTORE PUSH32 0x5265666572656E64756D50726F706F73616C3A20217061737365642829000000 PUSH1 0x44 DUP3 ADD MSTORE PUSH1 0x64 ADD PUSH2 0x1225 JUMP JUMPDEST DUP1 PUSH1 0x4 PUSH1 0x0 PUSH2 0x1AFE PUSH2 0xD98 JUMP JUMPDEST PUSH2 0xC7A CALLER PUSH2 0x1487 JUMP JUMPDEST PUSH2 0x1BBF PUSH2 0x7FB JUMP JUMPDEST ISZERO PUSH2 0x1C0C JUMPI PUSH1 0x40 MLOAD PUSH3 0x461BCD PUSH1 0xE5 SHL DUP2 MSTORE PUSH1 0x20 PUSH1 0x4 DUP3 ADD MSTORE PUSH1 0x1C PUSH1 0x24 DUP3 ADD MSTORE PUSH32 0x496E697469616C697A61626C653A20696E697469616C697A6564282900000000 PUSH1 0x44 DUP3 ADD MSTORE PUSH1 0x64 ADD PUSH2 0x1225 JUMP JUMPDEST PUSH1 0x1 PUSH1 0x5 PUSH1 0x0 PUSH2 0x1C1A PUSH2 0xBB6 JUMP JUMPDEST DUP2 MSTORE PUSH1 0x20 DUP2 ADD SWAP2 SWAP1 SWAP2 MSTORE PUSH1 0x40 ADD PUSH1 0x0 KECCAK256 DUP1 SLOAD PUSH1 0xFF NOT AND SWAP2 ISZERO ISZERO SWAP2 SWAP1 SWAP2 OR SWAP1 SSTORE JUMP JUMPDEST DUP1 PUSH1 0x0 DUP1 PUSH2 0x1AD7 PUSH2 0xE1F JUMP JUMPDEST DUP1 PUSH1 0x4 PUSH1 0x0 PUSH2 0x1AFE PUSH2 0x9E3 JUMP JUMPDEST DUP1 PUSH1 0x4 PUSH1 0x0 PUSH2 0x1AFE PUSH2 0x1022 JUMP JUMPDEST DUP1 PUSH1 0x2 PUSH1 0x0 PUSH2 0x1C6E PUSH2 0xC14 JUMP JUMPDEST DUP2 MSTORE PUSH1 0x20 DUP2 ADD SWAP2 SWAP1 SWAP2 MSTORE PUSH1 0x40 ADD PUSH1 0x0 KECCAK256 SSTORE POP JUMP JUMPDEST DUP1 PUSH1 0x2 PUSH1 0x0 PUSH2 0x1C6E PUSH2 0xD3A JUMP JUMPDEST PUSH1 0x0 PUSH1 0x20 DUP3 DUP5 SUB SLT ISZERO PUSH2 0x1CA1 JUMPI PUSH1 0x0 DUP1 REVERT JUMPDEST POP CALLDATALOAD SWAP2 SWAP1 POP JUMP JUMPDEST PUSH4 0x4E487B71 PUSH1 0xE0 SHL PUSH1 0x0 MSTORE PUSH1 0x41 PUSH1 0x4 MSTORE PUSH1 0x24 PUSH1 0x0 REVERT JUMPDEST PUSH1 0x40 MLOAD PUSH1 0x1F DUP3 ADD PUSH1 0x1F NOT AND DUP2 ADD PUSH8 0xFFFFFFFFFFFFFFFF DUP2 GT DUP3 DUP3 LT OR ISZERO PUSH2 0x1CE7 JUMPI PUSH2 0x1CE7 PUSH2 0x1CA8 JUMP JUMPDEST PUSH1 0x40 MSTORE SWAP2 SWAP1 POP JUMP JUMPDEST PUSH1 0x0 PUSH8 0xFFFFFFFFFFFFFFFF DUP3 GT ISZERO PUSH2 0x1D09 JUMPI PUSH2 0x1D09 PUSH2 0x1CA8 JUMP JUMPDEST POP PUSH1 0x1F ADD PUSH1 0x1F NOT AND PUSH1 0x20 ADD SWAP1 JUMP JUMPDEST PUSH1 0x0 PUSH2 0x1D2A PUSH2 0x1D25 DUP5 PUSH2 0x1CEF JUMP JUMPDEST PUSH2 0x1CBE JUMP JUMPDEST SWAP1 POP DUP3 DUP2 MSTORE DUP4 DUP4 DUP4 ADD GT ISZERO PUSH2 0x1D3E JUMPI PUSH1 0x0 DUP1 REVERT JUMPDEST DUP3 DUP3 PUSH1 0x20 DUP4 ADD CALLDATACOPY PUSH1 0x0 PUSH1 0x20 DUP5 DUP4 ADD ADD MSTORE SWAP4 SWAP3 POP POP POP JUMP JUMPDEST PUSH1 0x0 PUSH1 0x20 DUP3 DUP5 SUB SLT ISZERO PUSH2 0x1D67 JUMPI PUSH1 0x0 DUP1 REVERT JUMPDEST DUP2 CALLDATALOAD PUSH8 0xFFFFFFFFFFFFFFFF DUP2 GT ISZERO PUSH2 0x1D7E JUMPI PUSH1 0x0 DUP1 REVERT JUMPDEST DUP3 ADD PUSH1 0x1F DUP2 ADD DUP5 SGT PUSH2 0x1D8F JUMPI PUSH1 0x0 DUP1 REVERT JUMPDEST PUSH2 0x1D9E DUP5 DUP3 CALLDATALOAD PUSH1 0x20 DUP5 ADD PUSH2 0x1D17 JUMP JUMPDEST SWAP5 SWAP4 POP POP POP POP JUMP JUMPDEST PUSH1 0x0 PUSH1 0x20 DUP3 DUP5 SUB SLT ISZERO PUSH2 0x1DB8 JUMPI PUSH1 0x0 DUP1 REVERT JUMPDEST DUP2 CALLDATALOAD PUSH1 0x1 PUSH1 0x1 PUSH1 0xA0 SHL SUB DUP2 AND DUP2 EQ PUSH2 0x1DCF JUMPI PUSH1 0x0 DUP1 REVERT JUMPDEST SWAP4 SWAP3 POP POP POP JUMP JUMPDEST PUSH1 0x0 JUMPDEST DUP4 DUP2 LT ISZERO PUSH2 0x1DF1 JUMPI DUP2 DUP2 ADD MLOAD DUP4 DUP3 ADD MSTORE PUSH1 0x20 ADD PUSH2 0x1DD9 JUMP JUMPDEST POP POP PUSH1 0x0 SWAP2 ADD MSTORE JUMP JUMPDEST PUSH1 0x0 DUP2 MLOAD DUP1 DUP5 MSTORE PUSH2 0x1E12 DUP2 PUSH1 0x20 DUP7 ADD PUSH1 0x20 DUP7 ADD PUSH2 0x1DD6 JUMP JUMPDEST PUSH1 0x1F ADD PUSH1 0x1F NOT AND SWAP3 SWAP1 SWAP3 ADD PUSH1 0x20 ADD SWAP3 SWAP2 POP POP JUMP JUMPDEST PUSH1 0x20 DUP2 MSTORE PUSH1 0x0 PUSH2 0x1DCF PUSH1 0x20 DUP4 ADD DUP5 PUSH2 0x1DFA JUMP JUMPDEST PUSH4 0x4E487B71 PUSH1 0xE0 SHL PUSH1 0x0 MSTORE PUSH1 0x11 PUSH1 0x4 MSTORE PUSH1 0x24 PUSH1 0x0 REVERT JUMPDEST DUP1 DUP3 ADD DUP1 DUP3 GT ISZERO PUSH2 0x1E62 JUMPI PUSH2 0x1E62 PUSH2 0x1E39 JUMP JUMPDEST SWAP3 SWAP2 POP POP JUMP JUMPDEST PUSH1 0x1 DUP2 DUP2 SHR SWAP1 DUP3 AND DUP1 PUSH2 0x1E7C JUMPI PUSH1 0x7F DUP3 AND SWAP2 POP JUMPDEST PUSH1 0x20 DUP3 LT DUP2 SUB PUSH2 0x1E9C JUMPI PUSH4 0x4E487B71 PUSH1 0xE0 SHL PUSH1 0x0 MSTORE PUSH1 0x22 PUSH1 0x4 MSTORE PUSH1 0x24 PUSH1 0x0 REVERT JUMPDEST POP SWAP2 SWAP1 POP JUMP JUMPDEST DUP1 DUP3 MUL DUP2 ISZERO DUP3 DUP3 DIV DUP5 EQ OR PUSH2 0x1E62 JUMPI PUSH2 0x1E62 PUSH2 0x1E39 JUMP JUMPDEST PUSH1 0x0 DUP3 PUSH2 0x1ED6 JUMPI PUSH4 0x4E487B71 PUSH1 0xE0 SHL PUSH1 0x0 MSTORE PUSH1 0x12 PUSH1 0x4 MSTORE PUSH1 0x24 PUSH1 0x0 REVERT JUMPDEST POP DIV SWAP1 JUMP JUMPDEST PUSH1 0x1 PUSH1 0x1 PUSH1 0xA0 SHL SUB DUP4 AND DUP2 MSTORE PUSH1 0x40 PUSH1 0x20 DUP3 ADD DUP2 SWAP1 MSTORE PUSH1 0x0 SWAP1 PUSH2 0x1D9E SWAP1 DUP4 ADD DUP5 PUSH2 0x1DFA JUMP JUMPDEST PUSH1 0x0 PUSH1 0x20 DUP3 DUP5 SUB SLT ISZERO PUSH2 0x1F11 JUMPI PUSH1 0x0 DUP1 REVERT JUMPDEST DUP2 MLOAD PUSH8 0xFFFFFFFFFFFFFFFF DUP2 GT ISZERO PUSH2 0x1F28 JUMPI PUSH1 0x0 DUP1 REVERT JUMPDEST DUP3 ADD PUSH1 0x1F DUP2 ADD DUP5 SGT PUSH2 0x1F39 JUMPI PUSH1 0x0 DUP1 REVERT JUMPDEST DUP1 MLOAD PUSH2 0x1F47 PUSH2 0x1D25 DUP3 PUSH2 0x1CEF JUMP JUMPDEST DUP2 DUP2 MSTORE DUP6 PUSH1 0x20 DUP4 DUP6 ADD ADD GT ISZERO PUSH2 0x1F5C JUMPI PUSH1 0x0 DUP1 REVERT JUMPDEST PUSH2 0x1F6D DUP3 PUSH1 0x20 DUP4 ADD PUSH1 0x20 DUP7 ADD PUSH2 0x1DD6 JUMP JUMPDEST SWAP6 SWAP5 POP POP POP POP POP JUMP JUMPDEST DUP2 DUP2 SUB DUP2 DUP2 GT ISZERO PUSH2 0x1E62 JUMPI PUSH2 0x1E62 PUSH2 0x1E39 JUMP JUMPDEST PUSH1 0x0 PUSH1 0x20 DUP3 DUP5 SUB SLT ISZERO PUSH2 0x1F9B JUMPI PUSH1 0x0 DUP1 REVERT JUMPDEST POP MLOAD SWAP2 SWAP1 POP JUMP JUMPDEST PUSH1 0x0 DUP3 MLOAD PUSH2 0x1FB4 DUP2 DUP5 PUSH1 0x20 DUP8 ADD PUSH2 0x1DD6 JUMP JUMPDEST SWAP2 SWAP1 SWAP2 ADD SWAP3 SWAP2 POP POP JUMP JUMPDEST PUSH1 0x20 DUP1 DUP3 MSTORE PUSH1 0x21 SWAP1 DUP3 ADD MSTORE PUSH32 0x5265666572656E64756D50726F706F73616C3A206F7574206F6620626F756E64 PUSH1 0x40 DUP3 ADD MSTORE PUSH1 0x73 PUSH1 0xF8 SHL PUSH1 0x60 DUP3 ADD MSTORE PUSH1 0x80 ADD SWAP1 JUMP JUMPDEST PUSH1 0x1F DUP3 GT ISZERO PUSH2 0x2049 JUMPI PUSH1 0x0 DUP2 DUP2 MSTORE PUSH1 0x20 DUP2 KECCAK256 PUSH1 0x1F DUP6 ADD PUSH1 0x5 SHR DUP2 ADD PUSH1 0x20 DUP7 LT ISZERO PUSH2 0x2026 JUMPI POP DUP1 JUMPDEST PUSH1 0x1F DUP6 ADD PUSH1 0x5 SHR DUP3 ADD SWAP2 POP JUMPDEST DUP2 DUP2 LT ISZERO PUSH2 0x2045 JUMPI DUP3 DUP2 SSTORE PUSH1 0x1 ADD PUSH2 0x2032 JUMP JUMPDEST POP POP POP JUMPDEST POP POP POP JUMP JUMPDEST DUP2 MLOAD PUSH8 0xFFFFFFFFFFFFFFFF DUP2 GT ISZERO PUSH2 0x2068 JUMPI PUSH2 0x2068 PUSH2 0x1CA8 JUMP JUMPDEST PUSH2 0x207C DUP2 PUSH2 0x2076 DUP5 SLOAD PUSH2 0x1E68 JUMP JUMPDEST DUP5 PUSH2 0x1FFF JUMP JUMPDEST PUSH1 0x20 DUP1 PUSH1 0x1F DUP4 GT PUSH1 0x1 DUP2 EQ PUSH2 0x20B1 JUMPI PUSH1 0x0 DUP5 ISZERO PUSH2 0x2099 JUMPI POP DUP6 DUP4 ADD MLOAD JUMPDEST PUSH1 0x0 NOT PUSH1 0x3 DUP7 SWAP1 SHL SHR NOT AND PUSH1 0x1 DUP6 SWAP1 SHL OR DUP6 SSTORE PUSH2 0x2045 JUMP JUMPDEST PUSH1 0x0 DUP6 DUP2 MSTORE PUSH1 0x20 DUP2 KECCAK256 PUSH1 0x1F NOT DUP7 AND SWAP2 JUMPDEST DUP3 DUP2 LT ISZERO PUSH2 0x20E0 JUMPI DUP9 DUP7 ADD MLOAD DUP3 SSTORE SWAP5 DUP5 ADD SWAP5 PUSH1 0x1 SWAP1 SWAP2 ADD SWAP1 DUP5 ADD PUSH2 0x20C1 JUMP JUMPDEST POP DUP6 DUP3 LT ISZERO PUSH2 0x20FE JUMPI DUP8 DUP6 ADD MLOAD PUSH1 0x0 NOT PUSH1 0x3 DUP9 SWAP1 SHL PUSH1 0xF8 AND SHR NOT AND DUP2 SSTORE JUMPDEST POP POP POP POP POP PUSH1 0x1 SWAP1 DUP2 SHL ADD SWAP1 SSTORE POP JUMP INVALID LOG2 PUSH5 0x6970667358 0x22 SLT KECCAK256 PUSH21 0xC66B6DA70A6AAE0226404D1F1B63DB371A98244E51 0xED SWAP7 PUSH16 0xC1481E53BD35A364736F6C6343000813 STOP CALLER "
		},
		"gasEstimates": {
			"creation": {
				"codeDepositCost": "1703200",
				"executionCost": "1792",
				"totalCost": "1704992"
			},
			"external": {
				"abstain()": "2710",
				"abstainKey()": "475",
				"against()": "2687",
				"againstKey()": "496",
				"caption()": "infinite",
				"captionKey()": "497",
				"counting()": "infinite",
				"creator()": "2768",
				"creatorKey()": "475",
				"data()": "infinite",
				"dataKey()": "540",
				"duration()": "2689",
				"durationKey()": "563",
				"endTimestamp()": "infinite",
				"ended()": "infinite",
				"execute()": "infinite",
				"executed()": "2772",
				"executedKey()": "542",
				"initialize()": "infinite",
				"initialized()": "2707",
				"initializedKey()": "474",
				"message()": "infinite",
				"messageKey()": "541",
				"multiSigProposalFactory()": "2718",
				"multiSigProposalFactoryKey()": "534",
				"owner()": "2788",
				"ownerKey()": "562",
				"passed()": "2750",
				"passedKey()": "519",
				"quorum()": "infinite",
				"referendumProposalFactory()": "2783",
				"referendumProposalFactoryKey()": "490",
				"renounceOwnership()": "infinite",
				"requiredQuorum()": "2775",
				"requiredQuorumKey()": "476",
				"requiredQuorumNumber()": "infinite",
				"requiredThreshold()": "2732",
				"requiredThresholdKey()": "518",
				"secondsLeft()": "infinite",
				"setCaption(string)": "infinite",
				"setCreator(address)": "infinite",
				"setData(bytes)": "infinite",
				"setDuration(uint256)": "infinite",
				"setMessage(string)": "infinite",
				"setMultiSigProposalFactory(address)": "infinite",
				"setReferendumProposalFactory(address)": "infinite",
				"setRequiredQuorum(uint256)": "infinite",
				"setRequiredThreshold(uint256)": "infinite",
				"setStartTimestamp(uint256)": "infinite",
				"setTarget(address)": "infinite",
				"setTerminal(address)": "infinite",
				"setVotingERC20(address)": "infinite",
				"snapshot()": "infinite",
				"snapshotId()": "2732",
				"snapshotIdKey()": "473",
				"startTimestamp()": "2753",
				"startTimestampKey()": "518",
				"started()": "2782",
				"sufficientQuorum()": "infinite",
				"sufficientThreshold()": "infinite",
				"support()": "2711",
				"supportKey()": "541",
				"target()": "2743",
				"targetKey()": "541",
				"terminal()": "2764",
				"terminalKey()": "542",
				"threshold()": "infinite",
				"transferOwnership(address)": "infinite",
				"vote(uint256)": "infinite",
				"votingERC20()": "2810",
				"votingERC20Key()": "518"
			},
			"internal": {
				"_setMultiSigProposalFactory(address)": "infinite",
				"_setReferendumProposalFactory(address)": "infinite",
				"_setTerminal(address)": "infinite"
			}
		},
		"methodIdentifiers": {
			"abstain()": "5e98e4c7",
			"abstainKey()": "28f9b0c7",
			"against()": "dc50af26",
			"againstKey()": "689e4d8d",
			"caption()": "39540e5e",
			"captionKey()": "476221fe",
			"counting()": "8554b847",
			"creator()": "02d05d3f",
			"creatorKey()": "5d32eeb5",
			"data()": "73d4a13a",
			"dataKey()": "b859dd3e",
			"duration()": "0fb5a6b4",
			"durationKey()": "902b29ed",
			"endTimestamp()": "a85adeab",
			"ended()": "12fa6feb",
			"execute()": "61461954",
			"executed()": "31a38c89",
			"executedKey()": "7870dfae",
			"initialize()": "8129fc1c",
			"initialized()": "158ef93e",
			"initializedKey()": "6676e926",
			"message()": "e21f37ce",
			"messageKey()": "58221c6b",
			"multiSigProposalFactory()": "0065d30d",
			"multiSigProposalFactoryKey()": "d63391c0",
			"owner()": "8da5cb5b",
			"ownerKey()": "b949048b",
			"passed()": "a05b5c30",
			"passedKey()": "becfa6c0",
			"quorum()": "1703a018",
			"referendumProposalFactory()": "2053aa53",
			"referendumProposalFactoryKey()": "dedaace5",
			"renounceOwnership()": "715018a6",
			"requiredQuorum()": "7036014e",
			"requiredQuorumKey()": "372fdd00",
			"requiredQuorumNumber()": "beb0a18d",
			"requiredThreshold()": "4af5e37f",
			"requiredThresholdKey()": "b0687ad7",
			"secondsLeft()": "86a83735",
			"setCaption(string)": "04b9f2f0",
			"setCreator(address)": "3f516018",
			"setData(bytes)": "ab62f0e1",
			"setDuration(uint256)": "f6be71d1",
			"setMessage(string)": "368b8772",
			"setMultiSigProposalFactory(address)": "297da9e1",
			"setReferendumProposalFactory(address)": "c138d1a0",
			"setRequiredQuorum(uint256)": "fc19e8ed",
			"setRequiredThreshold(uint256)": "6f206f2c",
			"setStartTimestamp(uint256)": "c44bef75",
			"setTarget(address)": "776d1a01",
			"setTerminal(address)": "bd9f98e1",
			"setVotingERC20(address)": "d92f1c96",
			"snapshot()": "9711715a",
			"snapshotId()": "2ddc79b7",
			"snapshotIdKey()": "efc1b2c3",
			"startTimestamp()": "e6fd48bc",
			"startTimestampKey()": "6c6169bd",
			"started()": "1f2698ab",
			"sufficientQuorum()": "9eace5cd",
			"sufficientThreshold()": "152737b2",
			"support()": "119f8747",
			"supportKey()": "647baea1",
			"target()": "d4b83992",
			"targetKey()": "a73e8e36",
			"terminal()": "f45d0bc6",
			"terminalKey()": "41346f0a",
			"threshold()": "42cde4e8",
			"transferOwnership(address)": "f2fde38b",
			"vote(uint256)": "0121b93f",
			"votingERC20()": "5c098f1a",
			"votingERC20Key()": "d4b927fd"
		}
	},
	"abi": [
		{
			"anonymous": false,
			"inputs": [
				{
					"indexed": true,
					"internalType": "address",
					"name": "account",
					"type": "address"
				},
				{
					"indexed": true,
					"internalType": "uint256",
					"name": "amount",
					"type": "uint256"
				}
			],
			"name": "AbstainIncreased",
			"type": "event"
		},
		{
			"anonymous": false,
			"inputs": [
				{
					"indexed": true,
					"internalType": "address",
					"name": "account",
					"type": "address"
				},
				{
					"indexed": true,
					"internalType": "uint256",
					"name": "amount",
					"type": "uint256"
				}
			],
			"name": "AgainstIncreased",
			"type": "event"
		},
		{
			"anonymous": false,
			"inputs": [
				{
					"indexed": true,
					"internalType": "string",
					"name": "caption",
					"type": "string"
				}
			],
			"name": "CaptionSet",
			"type": "event"
		},
		{
			"anonymous": false,
			"inputs": [
				{
					"indexed": true,
					"internalType": "address",
					"name": "creator",
					"type": "address"
				}
			],
			"name": "CreatorSet",
			"type": "event"
		},
		{
			"anonymous": false,
			"inputs": [
				{
					"indexed": true,
					"internalType": "bytes",
					"name": "data",
					"type": "bytes"
				}
			],
			"name": "DataSet",
			"type": "event"
		},
		{
			"anonymous": false,
			"inputs": [
				{
					"indexed": true,
					"internalType": "uint256",
					"name": "seconds_",
					"type": "uint256"
				}
			],
			"name": "DurationSet",
			"type": "event"
		},
		{
			"anonymous": false,
			"inputs": [],
			"name": "Executed",
			"type": "event"
		},
		{
			"anonymous": false,
			"inputs": [
				{
					"indexed": true,
					"internalType": "address",
					"name": "target",
					"type": "address"
				},
				{
					"indexed": true,
					"internalType": "bytes",
					"name": "data",
					"type": "bytes"
				},
				{
					"indexed": true,
					"internalType": "bytes",
					"name": "response",
					"type": "bytes"
				}
			],
			"name": "LowLevelCall",
			"type": "event"
		},
		{
			"anonymous": false,
			"inputs": [
				{
					"indexed": true,
					"internalType": "string",
					"name": "message",
					"type": "string"
				}
			],
			"name": "MessageSet",
			"type": "event"
		},
		{
			"anonymous": false,
			"inputs": [
				{
					"indexed": true,
					"internalType": "address",
					"name": "account",
					"type": "address"
				}
			],
			"name": "MultiSigProposalFactorySet",
			"type": "event"
		},
		{
			"anonymous": false,
			"inputs": [
				{
					"indexed": true,
					"internalType": "address",
					"name": "oldOwner",
					"type": "address"
				},
				{
					"indexed": true,
					"internalType": "address",
					"name": "newOwner",
					"type": "address"
				}
			],
			"name": "OwnershipTransferred",
			"type": "event"
		},
		{
			"anonymous": false,
			"inputs": [],
			"name": "Passed",
			"type": "event"
		},
		{
			"anonymous": false,
			"inputs": [
				{
					"indexed": true,
					"internalType": "address",
					"name": "account",
					"type": "address"
				}
			],
			"name": "ReferendumProposalFactorySet",
			"type": "event"
		},
		{
			"anonymous": false,
			"inputs": [
				{
					"indexed": true,
					"internalType": "uint256",
					"name": "bp",
					"type": "uint256"
				}
			],
			"name": "RequiredQuorumSet",
			"type": "event"
		},
		{
			"anonymous": false,
			"inputs": [
				{
					"indexed": true,
					"internalType": "uint256",
					"name": "bp",
					"type": "uint256"
				}
			],
			"name": "RequiredThresholdSet",
			"type": "event"
		},
		{
			"anonymous": false,
			"inputs": [
				{
					"indexed": true,
					"internalType": "uint256",
					"name": "id",
					"type": "uint256"
				}
			],
			"name": "SnapshotTaken",
			"type": "event"
		},
		{
			"anonymous": false,
			"inputs": [
				{
					"indexed": true,
					"internalType": "uint256",
					"name": "timestamp",
					"type": "uint256"
				}
			],
			"name": "StartTimestampSet",
			"type": "event"
		},
		{
			"anonymous": false,
			"inputs": [
				{
					"indexed": true,
					"internalType": "address",
					"name": "account",
					"type": "address"
				},
				{
					"indexed": true,
					"internalType": "uint256",
					"name": "amount",
					"type": "uint256"
				}
			],
			"name": "SupportIncreased",
			"type": "event"
		},
		{
			"anonymous": false,
			"inputs": [
				{
					"indexed": true,
					"internalType": "address",
					"name": "target",
					"type": "address"
				}
			],
			"name": "TargetSet",
			"type": "event"
		},
		{
			"anonymous": false,
			"inputs": [
				{
					"indexed": true,
					"internalType": "address",
					"name": "account",
					"type": "address"
				}
			],
			"name": "TerminalSet",
			"type": "event"
		},
		{
			"anonymous": false,
			"inputs": [
				{
					"indexed": true,
					"internalType": "address",
					"name": "erc20",
					"type": "address"
				}
			],
			"name": "VotingERC20Set",
			"type": "event"
		},
		{
			"inputs": [],
			"name": "abstain",
			"outputs": [
				{
					"internalType": "uint256",
					"name": "",
					"type": "uint256"
				}
			],
			"stateMutability": "view",
			"type": "function"
		},
		{
			"inputs": [],
			"name": "abstainKey",
			"outputs": [
				{
					"internalType": "bytes32",
					"name": "",
					"type": "bytes32"
				}
			],
			"stateMutability": "pure",
			"type": "function"
		},
		{
			"inputs": [],
			"name": "against",
			"outputs": [
				{
					"internalType": "uint256",
					"name": "",
					"type": "uint256"
				}
			],
			"stateMutability": "view",
			"type": "function"
		},
		{
			"inputs": [],
			"name": "againstKey",
			"outputs": [
				{
					"internalType": "bytes32",
					"name": "",
					"type": "bytes32"
				}
			],
			"stateMutability": "pure",
			"type": "function"
		},
		{
			"inputs": [],
			"name": "caption",
			"outputs": [
				{
					"internalType": "string",
					"name": "",
					"type": "string"
				}
			],
			"stateMutability": "view",
			"type": "function"
		},
		{
			"inputs": [],
			"name": "captionKey",
			"outputs": [
				{
					"internalType": "bytes32",
					"name": "",
					"type": "bytes32"
				}
			],
			"stateMutability": "pure",
			"type": "function"
		},
		{
			"inputs": [],
			"name": "counting",
			"outputs": [
				{
					"internalType": "bool",
					"name": "",
					"type": "bool"
				}
			],
			"stateMutability": "view",
			"type": "function"
		},
		{
			"inputs": [],
			"name": "creator",
			"outputs": [
				{
					"internalType": "address",
					"name": "",
					"type": "address"
				}
			],
			"stateMutability": "view",
			"type": "function"
		},
		{
			"inputs": [],
			"name": "creatorKey",
			"outputs": [
				{
					"internalType": "bytes32",
					"name": "",
					"type": "bytes32"
				}
			],
			"stateMutability": "pure",
			"type": "function"
		},
		{
			"inputs": [],
			"name": "data",
			"outputs": [
				{
					"internalType": "bytes",
					"name": "",
					"type": "bytes"
				}
			],
			"stateMutability": "view",
			"type": "function"
		},
		{
			"inputs": [],
			"name": "dataKey",
			"outputs": [
				{
					"internalType": "bytes32",
					"name": "",
					"type": "bytes32"
				}
			],
			"stateMutability": "pure",
			"type": "function"
		},
		{
			"inputs": [],
			"name": "duration",
			"outputs": [
				{
					"internalType": "uint256",
					"name": "",
					"type": "uint256"
				}
			],
			"stateMutability": "view",
			"type": "function"
		},
		{
			"inputs": [],
			"name": "durationKey",
			"outputs": [
				{
					"internalType": "bytes32",
					"name": "",
					"type": "bytes32"
				}
			],
			"stateMutability": "pure",
			"type": "function"
		},
		{
			"inputs": [],
			"name": "endTimestamp",
			"outputs": [
				{
					"internalType": "uint256",
					"name": "",
					"type": "uint256"
				}
			],
			"stateMutability": "view",
			"type": "function"
		},
		{
			"inputs": [],
			"name": "ended",
			"outputs": [
				{
					"internalType": "bool",
					"name": "",
					"type": "bool"
				}
			],
			"stateMutability": "view",
			"type": "function"
		},
		{
			"inputs": [],
			"name": "execute",
			"outputs": [
				{
					"internalType": "bytes",
					"name": "",
					"type": "bytes"
				}
			],
			"stateMutability": "nonpayable",
			"type": "function"
		},
		{
			"inputs": [],
			"name": "executed",
			"outputs": [
				{
					"internalType": "bool",
					"name": "",
					"type": "bool"
				}
			],
			"stateMutability": "view",
			"type": "function"
		},
		{
			"inputs": [],
			"name": "executedKey",
			"outputs": [
				{
					"internalType": "bytes32",
					"name": "",
					"type": "bytes32"
				}
			],
			"stateMutability": "pure",
			"type": "function"
		},
		{
			"inputs": [],
			"name": "initialize",
			"outputs": [],
			"stateMutability": "nonpayable",
			"type": "function"
		},
		{
			"inputs": [],
			"name": "initialized",
			"outputs": [
				{
					"internalType": "bool",
					"name": "",
					"type": "bool"
				}
			],
			"stateMutability": "view",
			"type": "function"
		},
		{
			"inputs": [],
			"name": "initializedKey",
			"outputs": [
				{
					"internalType": "bytes32",
					"name": "",
					"type": "bytes32"
				}
			],
			"stateMutability": "pure",
			"type": "function"
		},
		{
			"inputs": [],
			"name": "message",
			"outputs": [
				{
					"internalType": "string",
					"name": "",
					"type": "string"
				}
			],
			"stateMutability": "view",
			"type": "function"
		},
		{
			"inputs": [],
			"name": "messageKey",
			"outputs": [
				{
					"internalType": "bytes32",
					"name": "",
					"type": "bytes32"
				}
			],
			"stateMutability": "pure",
			"type": "function"
		},
		{
			"inputs": [],
			"name": "multiSigProposalFactory",
			"outputs": [
				{
					"internalType": "address",
					"name": "",
					"type": "address"
				}
			],
			"stateMutability": "view",
			"type": "function"
		},
		{
			"inputs": [],
			"name": "multiSigProposalFactoryKey",
			"outputs": [
				{
					"internalType": "bytes32",
					"name": "",
					"type": "bytes32"
				}
			],
			"stateMutability": "pure",
			"type": "function"
		},
		{
			"inputs": [],
			"name": "owner",
			"outputs": [
				{
					"internalType": "address",
					"name": "",
					"type": "address"
				}
			],
			"stateMutability": "view",
			"type": "function"
		},
		{
			"inputs": [],
			"name": "ownerKey",
			"outputs": [
				{
					"internalType": "bytes32",
					"name": "",
					"type": "bytes32"
				}
			],
			"stateMutability": "pure",
			"type": "function"
		},
		{
			"inputs": [],
			"name": "passed",
			"outputs": [
				{
					"internalType": "bool",
					"name": "",
					"type": "bool"
				}
			],
			"stateMutability": "view",
			"type": "function"
		},
		{
			"inputs": [],
			"name": "passedKey",
			"outputs": [
				{
					"internalType": "bytes32",
					"name": "",
					"type": "bytes32"
				}
			],
			"stateMutability": "pure",
			"type": "function"
		},
		{
			"inputs": [],
			"name": "quorum",
			"outputs": [
				{
					"internalType": "uint256",
					"name": "",
					"type": "uint256"
				}
			],
			"stateMutability": "view",
			"type": "function"
		},
		{
			"inputs": [],
			"name": "referendumProposalFactory",
			"outputs": [
				{
					"internalType": "address",
					"name": "",
					"type": "address"
				}
			],
			"stateMutability": "view",
			"type": "function"
		},
		{
			"inputs": [],
			"name": "referendumProposalFactoryKey",
			"outputs": [
				{
					"internalType": "bytes32",
					"name": "",
					"type": "bytes32"
				}
			],
			"stateMutability": "pure",
			"type": "function"
		},
		{
			"inputs": [],
			"name": "renounceOwnership",
			"outputs": [],
			"stateMutability": "nonpayable",
			"type": "function"
		},
		{
			"inputs": [],
			"name": "requiredQuorum",
			"outputs": [
				{
					"internalType": "uint256",
					"name": "",
					"type": "uint256"
				}
			],
			"stateMutability": "view",
			"type": "function"
		},
		{
			"inputs": [],
			"name": "requiredQuorumKey",
			"outputs": [
				{
					"internalType": "bytes32",
					"name": "",
					"type": "bytes32"
				}
			],
			"stateMutability": "pure",
			"type": "function"
		},
		{
			"inputs": [],
			"name": "requiredQuorumNumber",
			"outputs": [
				{
					"internalType": "uint256",
					"name": "",
					"type": "uint256"
				}
			],
			"stateMutability": "view",
			"type": "function"
		},
		{
			"inputs": [],
			"name": "requiredThreshold",
			"outputs": [
				{
					"internalType": "uint256",
					"name": "",
					"type": "uint256"
				}
			],
			"stateMutability": "view",
			"type": "function"
		},
		{
			"inputs": [],
			"name": "requiredThresholdKey",
			"outputs": [
				{
					"internalType": "bytes32",
					"name": "",
					"type": "bytes32"
				}
			],
			"stateMutability": "pure",
			"type": "function"
		},
		{
			"inputs": [],
			"name": "secondsLeft",
			"outputs": [
				{
					"internalType": "uint256",
					"name": "",
					"type": "uint256"
				}
			],
			"stateMutability": "view",
			"type": "function"
		},
		{
			"inputs": [
				{
					"internalType": "string",
					"name": "caption",
					"type": "string"
				}
			],
			"name": "setCaption",
			"outputs": [],
			"stateMutability": "nonpayable",
			"type": "function"
		},
		{
			"inputs": [
				{
					"internalType": "address",
					"name": "account",
					"type": "address"
				}
			],
			"name": "setCreator",
			"outputs": [],
			"stateMutability": "nonpayable",
			"type": "function"
		},
		{
			"inputs": [
				{
					"internalType": "bytes",
					"name": "data",
					"type": "bytes"
				}
			],
			"name": "setData",
			"outputs": [],
			"stateMutability": "nonpayable",
			"type": "function"
		},
		{
			"inputs": [
				{
					"internalType": "uint256",
					"name": "seconds_",
					"type": "uint256"
				}
			],
			"name": "setDuration",
			"outputs": [],
			"stateMutability": "nonpayable",
			"type": "function"
		},
		{
			"inputs": [
				{
					"internalType": "string",
					"name": "message",
					"type": "string"
				}
			],
			"name": "setMessage",
			"outputs": [],
			"stateMutability": "nonpayable",
			"type": "function"
		},
		{
			"inputs": [
				{
					"internalType": "address",
					"name": "account",
					"type": "address"
				}
			],
			"name": "setMultiSigProposalFactory",
			"outputs": [],
			"stateMutability": "nonpayable",
			"type": "function"
		},
		{
			"inputs": [
				{
					"internalType": "address",
					"name": "account",
					"type": "address"
				}
			],
			"name": "setReferendumProposalFactory",
			"outputs": [],
			"stateMutability": "nonpayable",
			"type": "function"
		},
		{
			"inputs": [
				{
					"internalType": "uint256",
					"name": "bp",
					"type": "uint256"
				}
			],
			"name": "setRequiredQuorum",
			"outputs": [],
			"stateMutability": "nonpayable",
			"type": "function"
		},
		{
			"inputs": [
				{
					"internalType": "uint256",
					"name": "bp",
					"type": "uint256"
				}
			],
			"name": "setRequiredThreshold",
			"outputs": [],
			"stateMutability": "nonpayable",
			"type": "function"
		},
		{
			"inputs": [
				{
					"internalType": "uint256",
					"name": "timestamp",
					"type": "uint256"
				}
			],
			"name": "setStartTimestamp",
			"outputs": [],
			"stateMutability": "nonpayable",
			"type": "function"
		},
		{
			"inputs": [
				{
					"internalType": "address",
					"name": "account",
					"type": "address"
				}
			],
			"name": "setTarget",
			"outputs": [],
			"stateMutability": "nonpayable",
			"type": "function"
		},
		{
			"inputs": [
				{
					"internalType": "address",
					"name": "account",
					"type": "address"
				}
			],
			"name": "setTerminal",
			"outputs": [],
			"stateMutability": "nonpayable",
			"type": "function"
		},
		{
			"inputs": [
				{
					"internalType": "address",
					"name": "erc20",
					"type": "address"
				}
			],
			"name": "setVotingERC20",
			"outputs": [],
			"stateMutability": "nonpayable",
			"type": "function"
		},
		{
			"inputs": [],
			"name": "snapshot",
			"outputs": [],
			"stateMutability": "nonpayable",
			"type": "function"
		},
		{
			"inputs": [],
			"name": "snapshotId",
			"outputs": [
				{
					"internalType": "uint256",
					"name": "",
					"type": "uint256"
				}
			],
			"stateMutability": "view",
			"type": "function"
		},
		{
			"inputs": [],
			"name": "snapshotIdKey",
			"outputs": [
				{
					"internalType": "bytes32",
					"name": "",
					"type": "bytes32"
				}
			],
			"stateMutability": "pure",
			"type": "function"
		},
		{
			"inputs": [],
			"name": "startTimestamp",
			"outputs": [
				{
					"internalType": "uint256",
					"name": "",
					"type": "uint256"
				}
			],
			"stateMutability": "view",
			"type": "function"
		},
		{
			"inputs": [],
			"name": "startTimestampKey",
			"outputs": [
				{
					"internalType": "bytes32",
					"name": "",
					"type": "bytes32"
				}
			],
			"stateMutability": "pure",
			"type": "function"
		},
		{
			"inputs": [],
			"name": "started",
			"outputs": [
				{
					"internalType": "bool",
					"name": "",
					"type": "bool"
				}
			],
			"stateMutability": "view",
			"type": "function"
		},
		{
			"inputs": [],
			"name": "sufficientQuorum",
			"outputs": [
				{
					"internalType": "bool",
					"name": "",
					"type": "bool"
				}
			],
			"stateMutability": "view",
			"type": "function"
		},
		{
			"inputs": [],
			"name": "sufficientThreshold",
			"outputs": [
				{
					"internalType": "bool",
					"name": "",
					"type": "bool"
				}
			],
			"stateMutability": "view",
			"type": "function"
		},
		{
			"inputs": [],
			"name": "support",
			"outputs": [
				{
					"internalType": "uint256",
					"name": "",
					"type": "uint256"
				}
			],
			"stateMutability": "view",
			"type": "function"
		},
		{
			"inputs": [],
			"name": "supportKey",
			"outputs": [
				{
					"internalType": "bytes32",
					"name": "",
					"type": "bytes32"
				}
			],
			"stateMutability": "pure",
			"type": "function"
		},
		{
			"inputs": [],
			"name": "target",
			"outputs": [
				{
					"internalType": "address",
					"name": "",
					"type": "address"
				}
			],
			"stateMutability": "view",
			"type": "function"
		},
		{
			"inputs": [],
			"name": "targetKey",
			"outputs": [
				{
					"internalType": "bytes32",
					"name": "",
					"type": "bytes32"
				}
			],
			"stateMutability": "pure",
			"type": "function"
		},
		{
			"inputs": [],
			"name": "terminal",
			"outputs": [
				{
					"internalType": "address",
					"name": "",
					"type": "address"
				}
			],
			"stateMutability": "view",
			"type": "function"
		},
		{
			"inputs": [],
			"name": "terminalKey",
			"outputs": [
				{
					"internalType": "bytes32",
					"name": "",
					"type": "bytes32"
				}
			],
			"stateMutability": "pure",
			"type": "function"
		},
		{
			"inputs": [],
			"name": "threshold",
			"outputs": [
				{
					"internalType": "uint256",
					"name": "",
					"type": "uint256"
				}
			],
			"stateMutability": "view",
			"type": "function"
		},
		{
			"inputs": [
				{
					"internalType": "address",
					"name": "newOwner",
					"type": "address"
				}
			],
			"name": "transferOwnership",
			"outputs": [],
			"stateMutability": "nonpayable",
			"type": "function"
		},
		{
			"inputs": [
				{
					"internalType": "uint256",
					"name": "side",
					"type": "uint256"
				}
			],
			"name": "vote",
			"outputs": [],
			"stateMutability": "nonpayable",
			"type": "function"
		},
		{
			"inputs": [],
			"name": "votingERC20",
			"outputs": [
				{
					"internalType": "address",
					"name": "",
					"type": "address"
				}
			],
			"stateMutability": "view",
			"type": "function"
		},
		{
			"inputs": [],
			"name": "votingERC20Key",
			"outputs": [
				{
					"internalType": "bytes32",
					"name": "",
					"type": "bytes32"
				}
			],
			"stateMutability": "pure",
			"type": "function"
		}
	]
}